:020000040800F2
:100000007C36002011330008B97800087D330008E1
:1000100000000000000000000000000000000000E0
:100020000000000000000000000000007D33000818
:100030000000000000000000D12100081522000887
:100040007D3300087D3300087D3300087D330008D0
:100050007D330008597C0008697C0008797C000821
:10006000897C00087D3300087D3300087D3300085B
:100070007D330008E97200080D7300083173000831
:10008000557300087579000885790008957900088E
:10009000A57900087D3300088D7800086178000894
:1000A0003D7100087D3300087D3300084576000867
:1000B0006D76000895760008BD7600081177000877
:1000C00010B5064C2378002B07D1054B002B02D02E
:1000D000044800E000BF0123237010BD8804002005
:1000E00000000000B0820008084B10B5002B03D0C0
:1000F0000749084800E000BF07480368002B00D10B
:1001000010BD064B002BFBD09847F9E7000000001C
:100110008C040020B0820008880400200000000049
:10012000002243088B4274D303098B425FD3030A36
:100130008B4244D3030B8B4228D3030C8B420DD349
:10014000FF22090212BA030C8B4202D312120902D7
:1001500065D0030B8B4219D300E0090AC30B8B4215
:1001600001D3CB03C01A5241830B8B4201D38B03C3
:10017000C01A5241430B8B4201D34B03C01A524168
:10018000030B8B4201D30B03C01A5241C30A8B42AB
:1001900001D3CB02C01A5241830A8B4201D38B0296
:1001A000C01A5241430A8B4201D34B02C01A52413A
:1001B000030A8B4201D30B02C01A5241CDD2C309AC
:1001C0008B4201D3CB01C01A524183098B4201D328
:1001D0008B01C01A524143098B4201D34B01C01A13
:1001E000524103098B4201D30B01C01A5241C3088B
:1001F0008B4201D3CB00C01A524183088B4201D3FA
:100200008B00C01A524143088B4201D34B00C01AE5
:100210005241411A00D20146524110467047FFE751
:1002200001B5002000F006F802BDC0460029F7D055
:1002300076E770477047C0469E2110B5C905041C7B
:1002400001F018FB002803D1201C00F0E1FB10BDD9
:100250009E21201CC90500F055FA00F0D9FB80232F
:100260001B069C466044F2E770B501F07FFA00225D
:100270000B4B0D00040000F073FC01F023FB0600A3
:1002800001F03CFA0022074B00F06AFC02000B0070
:100290002000290000F0DEFE01F014FB310070BDEB
:1002A0000000F03D0000F041F0B5564644465F4680
:1002B0004D46F0B444024600C70F83B08846650A35
:1002C000360EBA463DD0FF2E22D00023EC0080250A
:1002D00099469B46ED0425437F3E43465C02580009
:1002E000DB0F640A000E984636D0FF2830D08023FA
:1002F0000021E400DB041C437F38301A019048469B
:1003000042460843724E800030587A4013008746B8
:10031000002D44D108239946063B9B46DDE7012288
:10032000FF2000241A406402C305640AD2071C435C
:100330001443200003B03CBC90469946A246AB460D
:10034000F0BD002D20D104239946033B9B46C4E712
:10035000002C17D1022102E0002C0AD10121321A0F
:1003600001924A4643460A435A48920082587B40CB
:100370009746200001F088FA431F76309C404042A7
:100380000021BAE70321B8E7280001F07DFA431FF6
:100390009D4000237630464299469B469DE70C23BC
:1003A0009946093B9B4698E780240022E403FF20FE
:1003B000B9E70024C2468B465A465346022AAED0BD
:1003C000032A7DD0012A31D1012200201A400024C5
:1003D000A9E70122101A1B2856DD1A40002000242C
:1003E000A1E78023DB031D424BD18023DB032B439A
:1003F0005C02640A3A00FF2095E76D0160018542C6
:1004000030D2019A0024013A01921B2201272900CF
:1004100064006D00002901DBA84201D82D1A3C437D
:10042000013A002AF3D16A1E95412C4301987F308E
:100430000028CEDD620704D00F222240042A00D01B
:100440000434220103D5244A019814408030FE2848
:1004500000DD64E70122A401640AC0B21A4062E729
:100460002C00A9E72D1A1A220124CFE76B02BCD574
:1004700000248023DB031C436402640A4246FF20FD
:1004800051E71C42B3D1F4E721002022C140101AE9
:100490008440621E94410C43620704D00F22224024
:1004A000042A00D00434620104D5012201201A403C
:1004B000002438E70122A401640A1A40002032E730
:1004C0008023DB031C436402640A5246FF202AE7B0
:1004D000DC7E00081C7F0008FFFFFFF7F0B55746E1
:1004E0004E4645464300E0B446028846760A1F0E53
:1004F000C40F002F47D0FF2F25D0002380259A4618
:100500009946F600ED042E437F3F434642465D0286
:10051000D20F5B006D0A1B0E904640D0FF2B39D0E6
:1005200080220020ED00D20415437F3BFB18424699
:100530005746591C62408C4607430F2F5CD86F49C1
:10054000BF00C9598F46002E45D108239A46063B65
:100550009946DAE7424602282DD0032800D1C3E0AD
:10056000012800D0A2E0002500260240D4B2760285
:10057000ED05760A2E43E407264330001CBC904666
:100580009946A246F0BD002E1AD104239A46033B99
:100590009946BAE72A00511E8A41901CC6E70120FD
:1005A000002DC3D0280001F06FF9431F76309D4025
:1005B00043420020BAE70124FF2514400026D6E775
:1005C000300001F061F9431F9E400023763047421E
:1005D0009A46994699E70C239A46093B994694E72F
:1005E00080260024F603FF25C1E735004846B2E720
:1005F000350022004846AEE72904090C0800370CF4
:100600003604360C2C0C7943704367437443060C54
:1006100064183619B14203D98021490288464744FB
:100620000004000C310409188D01681E8541890EF3
:100630002943350CED19AD010D43290104D50123E2
:1006400069081D4063460D4319007F31002925DDEF
:10065000680704D00F202840042800D00435280162
:1006600003D5274980330D401900FE29A3DC01245E
:10067000AD016E0A1440CDB279E78020C003064276
:1006800007D0054205D128434602760A4446FF2595
:100690006DE706437602760AFF2568E70124611AB2
:1006A0001B2905DD14400025002660E76346CBE7E3
:1006B0002E002023CE40591A8D406B1E9D412E43A3
:1006C000730704D00F233340042B00D0043673018A
:1006D00004D5012401251440002648E70124B60171
:1006E000760A1440002542E780260124F6032E43B3
:1006F0007602760A1440FF2539E7C0465C7F000881
:10070000FFFFFFF7F8B54A024E0043024400240EF3
:10071000C50F9B09360EC90F9209FF2E00D183E049
:1007200001204140A01BA9425CD0002800DC95E0DC
:10073000002E1CD1002A00D081E05A0704D00F22DD
:100740001A40042A00D004335A013BD50134FF2C4F
:1007500000D191E001209B015B0AE4B205405B02FD
:10076000E4055B0AED0723432B431800F8BDFF2C7B
:10077000E3D08021C9040A431B2800DD90E0160065
:100780002021C640081A8240511E8A4132439B1ADA
:100790005A0115D59B019E09300001F075F8053806
:1007A000864084426CDC041B330020200134E3408B
:1007B000041BA640721E964100243343BDE70D0082
:1007C0005A07BCD1DF0801231D40FF2C33D1002F75
:1007D00000D190E08022D20313003B435B025B0A0E
:1007E000FF24BCE700284FDD002E2ED0FF2CA4D024
:1007F0008025ED042A431B2800DD97E01600202504
:10080000C640281A8240501E824132439B185A012A
:10081000D5D50134FF2C6DD001227B481A405B08EE
:10082000034013430D0088E7002A00D07AE777E7FA
:10083000031EC5D100257B025B0AE4B28FE70138B5
:100840000028A4D0FF2C97D177E7002A00D174E7C5
:1008500001380028DAD0FF2CCDD16EE7002821D155
:10086000601CC0B2012858DD80279E1AFF04374063
:100870002FD0D61A0D008FE701231D4000236EE70D
:10088000624B241A334058E7002851D1601CC6B28D
:10089000012E33DDFF282DD09B185B0804004CE7A8
:1008A000012274E7002C1AD0FF2E1FD08024E4040C
:1008B000404223431B2800DD96E01D002024C54054
:1008C000201A8340581E83412B43D31A34000D0055
:1008D0005EE7002E00D05FE700250024ABE7002B89
:1008E00044D0C0430028F0D0FF2EE3D11300FF24F2
:1008F0000D0022E70D00FF24002330E7002C5DD11E
:10090000002B7DD0002A00D117E79B185A0100D494
:1009100056E73E4A040013400FE7002C1ED1002B7F
:100920002FD1002A65D013000D0006E701226DE7E4
:10093000002C1FD1002B59D0C04300280BD0FF2E14
:100940004FD01B285EDC1D002024C540201A8340A8
:10095000581E83412B439B18340058E7002B1CD1B1
:10096000002A49D013000D00FF24E6E613003400EE
:100970000D00E2E6FF2E34D08024E40440422343FD
:10098000DFE7002A00D1D8E68027981AFF04074045
:1009900000D14DE7D31A0D00CFE6FF24002A00D185
:1009A000CBE68020DB08C003034204D0D208024219
:1009B00001D113000D00DB00FF24BEE6002B10D098
:1009C000FF24002A00D1B8E68020DB08C0030342E0
:1009D00003D0D208024200D11300DB000D00FF2437
:1009E000ABE61300FF24A8E601236EE713003400F2
:1009F000A3E6002700251EE780270025FF03E9E680
:100A000013009AE60123A6E7FFFFFF7DFFFFFFFB30
:100A10004302590A4300C20F1B0E00207E2B0EDD3D
:100A20009D2B0DDC802000040143952B0BDC9620D0
:100A3000C31AD9400B005842002A00D11800704751
:100A4000034BD018FBE7963B99400B00F3E7C046F9
:100A5000FFFFFF7F70B5002830D0C317C5185D4079
:100A6000C40F280000F010FF9E231B1A962B0DDCEC
:100A70009622D21A95406A02520AD8B25202C00592
:100A8000520AE40702432243100070BD992B19DC7F
:100A90009922D21A9540124A2A40690704D00F21A0
:100AA0000D40042D00D00432510103D50C4B1A40E7
:100AB0009F231B1A9201520AD8B2DFE700240020BC
:100AC0000022DBE705222E00121AB921D6402A00A7
:100AD000C91A8A40551EAA4135001543DBE7C046B6
:100AE000FFFFFFFB70B5041E28D000F0CDFE9E2353
:100AF0001B1A962B0ADC9622D21A94406202520AE2
:100B0000D8B25202520AC005104370BD992B18DCAE
:100B10009922D21A9440114A2240610704D00F2131
:100B20000C40042C00D00432510103D50B4B1A4069
:100B30009F231B1A9201520AD8B2E2E7002000223A
:100B4000DFE705222500121AB921D5402200C91A73
:100B50008A40541EA2412C001443DCE7FFFFFFFB38
:100B6000F0B55F4656464D464446F0B40D039946EF
:100B70004E002B0B87B00700924680469B46760DB1
:100B8000CC0F002E69D06D4B9E4235D05B46802243
:100B9000DD001204430F13432B439B46C3009846CA
:100BA000674B00279C460023664401934A46150381
:100BB0005000D20F53462D0B400D914600D176E0E8
:100BC0005E4A90426CD080225B0F120413435C4A51
:100BD000ED0094461D4353460022DB006044494625
:100BE0003618701C6140029017430F2F00D9AFE0F8
:100BF0005448BF00C759BF465B461F4300D088E03A
:100C000000239B469846023308270193CEE74946C6
:100C1000022A6AD0032A00D109E2012A00D0BBE1EE
:100C200011400022002300259046CCB200212D0364
:100C30000A0D12052D0B1543434A1B0515401D4394
:100C40006D00E4076D0825434046290007B03CBC11
:100C500090469946A246AB46F0BD034352D05B4650
:100C6000002B00D18AE1584600F00EFE03000B3B3A
:100C70001C2B00DD7BE11D22D31A3A0001005D46EA
:100C8000DA4008398D4013008F402B439B46B8460D
:100C90002E4B00279C46002360444642019385E783
:100CA00052462A432CD100250023022297E75246C0
:100CB0002A4321D0002D00D154E1280000F0E4FDAA
:100CC00003000B3B1C2B00DD46E11D21CB1A5146D6
:100CD0000200D9405346083A954093400D431B4AC1
:100CE000944660444042002279E7012400220C40EF
:100CF000124B0025904699E70025002301226EE75C
:100D000003226CE700239B46984601330427019396
:100D10004CE703230C27019348E7002380259846DE
:100D200000242D03054B81E75D464346019A6FE79A
:100D30005D4643462100019A6AE7C046FF0700006E
:100D400001FCFFFF9C7F0008FFFF0F80F303000002
:100D50004246120C91461A0C9446424617044A46E3
:100D60001B041B0C5A43604690464A4642431000FF
:100D7000039262461C003F0C7A437C43424401923A
:100D8000220C9246019A5244904506D98246802010
:100D900040028046C24450460390100C04904846DE
:100DA0002404240C1204121905922A0C2D042D0C73
:100DB00068432C00824648467C4350438146200CC1
:100DC0008046574357444744BA4503D980204002E0
:100DD0008046C144380C3F04B84648442404240CDF
:100DE00001900498A044404404905846000C814669
:100DF00058460404200C8246070048465F434C4690
:100E00004343604660436446834650464443380C3F
:100E10008446E4186444A34203D980235B029C46C1
:100E2000E34448463F04230C3F0C2404E41957468E
:100E300068436F4384464D46504655434243380C01
:100E4000814662444A445B44944503D98020400271
:100E50008446654403983F04834604983F0C8446C7
:100E6000E344C345804140428246100484460198D1
:100E7000674484466744A344BC46A345A4419946BD
:100E8000D44464428742BF41D4458041E144A046F6
:100E900099459B417F424042C8440743120CBA180F
:100EA000A045A4415F423B0064422343D718434618
:100EB0007D19DB0D6D021D435B465A02059B1A43EB
:100EC000531E9A415B46DB0D1A4343465B021343B4
:100ED000EA0107D501225C0813402343EA07029E7A
:100EE00013436D08574AB218002A4BDD580709D042
:100EF0000F201840042805D0181D98429B415B42E2
:100F0000ED180300E80104D54F4A15408022D200B5
:100F1000B2184E48824200DDE7E60124DB0868078C
:100F200018436D02530580462D0B5B0D0C407DE68A
:100F3000802259461203114208D0154206D11543AA
:100F40002D0398462D0B4C46414B6FE65D461543ED
:100F50002D032D0B3E4B69E603005546283B9D4073
:100F60000023BCE6504600F08FFC2030A8E60300CA
:100F7000283B9F400023BB46984689E600F084FC4E
:100F8000203073E60124A61A382E07DD00220C401B
:100F900000230025904649E6029EA3E71F2E20DC91
:100FA00020222C001800921BF040944093400443F0
:100FB000581E83411C43F540630709D00F2323408B
:100FC000042B05D023001C1D9C4292415242AD18B7
:100FD0002B021FD5012400220C400123002590463E
:100FE00024E61F202C004042821AD440202E1CD020
:100FF0004022961BB5402B43581E834107202343B4
:1010000018400025002809D00F2200251A401C0096
:10101000042AD8D1230068076D022D0B0124DB08B8
:10102000034398460C40002300E60025E3E78022B6
:101030000124120315432D0398462D0B0C40044B3D
:10104000F4E5C046FF030000FFFFFFFEFE070000BF
:10105000FF070000F0B557464E464546E0B40E0087
:101060001100F20F9246C500420F180337037400B7
:10107000400A4E0F7F0A3043CF4E17435A00640D8B
:10108000520DDB0FC900B24200D1E5E001267340EA
:10109000A61AB446534500D1AFE0002E00DC0DE1A6
:1010A000002A3AD103000B4300D0E4E06B0709D0DB
:1010B0000F232B40042B05D02B1DAB42AD416D42BD
:1010C0007F191D003B0200D488E0BB4B01349C42D9
:1010D00000D110E13A00B94B51461A4001235007A4
:1010E000ED08520264050543120B640D0B4000210C
:1010F000280012030D0D120B64052D05154362081F
:10110000AF4CDB072C401443640064081C432100EF
:101110001CBC90469946A246F0BDA74B9C42C5D048
:1011200080231B0418436346382B00DDFDE01F2B92
:1011300000DD30E1624620239B1A02009A40664699
:1011400090460A009940F24046464B1E9941324370
:10115000114363460200DA40691A8D429B410D003B
:10116000BA1A5B42D71A3B0235D57A02530A98461F
:101170004346002B00D1C4E0404600F085FB03004D
:10118000083B1F2B00DDC5E020222900D21A47466C
:10119000D1409F400A009D403A439C4200DDC0E0A0
:1011A0001C1B631C1F2B00DDE4E020211400280021
:1011B000C91AD8408C408D400443DA40681E8541EE
:1011C00017002543002471E7424663461A4300D1C5
:1011D0004CE2674645466B0700D069E7012351465C
:1011E0007807ED08FA080B40054373498C4238D064
:1011F00012036405120B640D79E7002E00DC9AE0FF
:10120000002A47D06C4A944200D14FE78022120452
:1012100010436246382A00DC08E10143481E814140
:101220000022C9B24919D219A942BF410D007F421B
:10123000BF183A0200D442E15F4A0134944200D11F
:101240004EE101205D4A69083A4028400843D5072D
:10125000054357089A4629E706000E4300D017E7D2
:1012600014E72900114300D1F9E1802109030A4361
:101270001203120B3BE701235B429846C4446346CA
:10128000002B72D1691A8D429B413F1A5B42FF1AB3
:101290000D0068E702000A4300D107E7012252422D
:1012A0009046C4446246002A00D0E6E06918A9428C
:1012B000B6413F187642F7190D00BAE7002E00D06C
:1012C00080E0621C5205520D012A00DCF9E06A1A26
:1012D00091464D45B6413A1A7642921B904612020B
:1012E00000D499E04D1BA9428941C71B49427A1A93
:1012F00090469A463CE752460123002513400022BF
:10130000F5E6280000F0C0FA20300300083B1F2B50
:1013100000DC39E72A002838824000259C4200DCA6
:101320003EE7264FE41A1740C0E60143481E8141BC
:101330000022C9B210E7002E00D0F1E0621C9446F2
:101340005205520D012A00DCA0E01B4A944500D151
:10135000C5E06918A94292413F185242D219490882
:10136000D5070D4357086446A0E6134B9C4200D0B6
:10137000D9E69BE611001F3CE1400C00202B00D178
:1013800080E04021CB1A9A4015436A1E9541002700
:10139000254300241FE763460200203BDA406346F2
:1013A000202B71D0402366469B1B98400143481E6A
:1013B000814111430022CFE6FF070000FFFF7FFFBE
:1013C000FFFF0F80002C48D0CA4CA24200D1A2E0FF
:1013D0007442A1468024240427434C46382C00DD67
:1013E000DBE01F2C00DD44E14E462024A41B3E0020
:1013F000A640A246B0464C462E00E640B4464646BD
:10140000644626435446A5406C1EA54134002C4337
:101410004D46EF400D1B28E04A4643464D461A43D1
:1014200000D0A5E6002300240025DEE61F2A5ADCB2
:1014300066462022921B060096409146B0466246C0
:101440000E00D640424616434A4691404A1E9141FC
:10145000020060463143C240E4E63C002C435AD0CF
:10146000F443A146002C52D14D1BA9428941C71B10
:1014700049427F1A14009A4675E69E4A944200D06B
:10148000C7E613E600227FE700208FE7002C00D09C
:10149000C8E03B002B4300D10FE103000B4300D118
:1014A00004E66918A9429B413F185B42DF193B02E1
:1014B00000D41AE1904B0D001F406446F6E59A46B1
:1014C00089E63A002A43002C5CD1002A75D102003B
:1014D0000A4300D1CAE007000D009A46E6E56446DB
:1014E0000022002581E662460600203AD640624688
:1014F000B046202A00D1B7E040226646921B9040B9
:1015000001434246481E8141114300228AE6794C3C
:10151000A24200D061E707000D0014009A46C5E51D
:10152000002C41D13C002C4378D0F443A146002C40
:1015300020D0704CA24271D04C46382C00DDB2E075
:101540001F2C00DDBCE02026341BA2463C00564682
:10155000B4404E46A0462C00F440A446444666469D
:101560003443A4465446A54064466E1EB541254307
:101570004C46E7406D188D4289413F184942CF19CA
:10158000140056E6002A2FD102000A4300D184E05D
:1015900007000D009A46574C88E53D436F1EBD413C
:1015A000ECB200270D1B60E7524CA24236D07442C9
:1015B00080263604A1463743BEE702000A4300D125
:1015C00074E56A1A90464545B6413A1A7642921B2E
:1015D0009446120200D4F7E54D1BA9428941C71B6E
:1015E00049427F1A9A4661E502000A433AD0ED0863
:1015F0007C072C438025FA082D032A4208D0C7080F
:101600002F4205D145072C003A009A46C9080C43E1
:10161000670FD200E5001743364C47E507000D0081
:10162000140043E53A002A4343D002000A4319D08C
:10163000ED087C072C438025FA082D032A4207D0A9
:10164000C6082E4204D147073C003200C9080C43AB
:10165000D700620FE50017439A46264C26E5002284
:10166000002544E5234C21E5002049E7002300251F
:10167000BBE54C463E00203CE6404C46B446202CA0
:1016800031D040244E46A61BB7403D436C1EA541B9
:1016900064462C4300270D1BE7E68022002312033B
:1016A000144C0025A1E53D436F1EBD410027EDB25E
:1016B00060E707000D000F4CF8E407000D00F5E4AB
:1016C0004E463C00203EF440A0464C46202C0ED016
:1016D00040244E46A41BA7403D436F1EBD414446D7
:1016E0000027254346E70027CFE70D0073E50027D5
:1016F000F2E7C046FF070000FFFF7FFF70B5051E41
:1017000028D000F0C1F8154B154A1B1AD21A1F2A0F
:1017100016DD2C00134A0025D21A94405A052403E2
:10172000240B520D002124030B0D240B1B05234316
:101730000D4C1205234013435B002800590870BD6F
:101740000B212C00081AC440954024035A05240B91
:10175000520DE7E700220024E4E7C0461E04000023
:101760003304000013040000FFFF0F804200120E3C
:10177000511C4302C9B270B55D0AC40F012915DDC1
:10178000E02189008C466D071B0B62440021280074
:101790000D0D2D052B431C4D52052B4052081343B4
:1017A0005B00E4075B082343190070BD002A15D1D4
:1017B000002D1FD0280000F067F80A281DDC0B233D
:1017C0002A001B1ADA4013000200153295400F4A16
:1017D0001B03121A52051B0B520DD7E7002D06D022
:1017E00080221B0B120313436D07094ACEE7084AF8
:1017F0000023CBE700220023C8E703000B3B9D40FA
:101800002B000025E3E7C046FFFF0F80890300009F
:10181000FF0700008446081C6146FFE71FB500F083
:10182000DBF8002801D40021C8421FBD10B500F02C
:1018300067F84042013010BD10B500F0CDF8002827
:1018400001DB002010BD012010BDC04610B500F026
:10185000C3F8002801DD002010BD012010BDC046E6
:1018600010B500F075F8002801DC002010BD012043
:1018700010BDC04610B500F06BF8002801DA00205A
:1018800010BD012010BDC0461C2101231B0498423D
:1018900001D3000C10391B0A984201D3000A083901
:1018A0001B09984201D30009043902A2105C4018B8
:1018B0007047C0460403020201010101000000005C
:1018C0000000000070B500220C4B04000D0000F079
:1018D00031F9002804D12000290000F0C1F870BDC2
:1018E000064B002220002900FFF7B4FB00F0B8F8F7
:1018F00080231B069C466044F1E7C0460000E0419F
:10190000430270B542004C005D0AC30F4802120E3C
:10191000460A240EC90FFF2A0FD0FF2C11D0012038
:10192000A24200D070BDB542FCD18B420DD0002A3E
:10193000F8D12800431E9841F4E70120002DF1D191
:10194000EBE70120002EEDD1E9E70020EAE7C046F1
:101950004302F0B542005D0AC30F4802440A480042
:10196000120E000EC90FFF2A1FD0FF2822D0002A16
:1019700009D16E426E4100280FD1002C0DD10020FC
:10198000002D09D005E0002801D1002C01D08B42A8
:1019900013D0584201231843F0BD002EF7D048421F
:1019A0004141012049420843F6E7002DDDD00220E5
:1019B0004042F1E7002CDAD0F9E78242E9DC04DBAF
:1019C000A542E6D80020A542E6D258424341012074
:1019D0005B421843E0E7C0464302F0B542004C00CA
:1019E0005E0AC30F4802120E450A240EC90FFF2AD1
:1019F00017D0FF2C19D0002A0BD170427041002C57
:101A000017D0002807D048424141012049420843ED
:101A1000F0BD002C13D08B4214D058420123184340
:101A2000F6E70220002EF3D1E3E70220002DEFD1EC
:101A3000E1E7002DE5D10020002EE9D0EDE7002DF3
:101A4000E9D1EAE7A242E8DC04DBAE42E5D80020B7
:101A5000AE42DDD25842434101205B421843D7E7F2
:101A60000B0330B5134D1A0B4B005B0DC90F00244F
:101A7000AB4211DD104CA34210DC802464032243EE
:101A80000E4CE41A1F2C0CDD0D48C31ADA4013006B
:101A90005C42002900D11C00200030BD094BCC184D
:101AA000FAE7E040084CA44663449A40130003431D
:101AB000EEE7C046FE0300001D04000033040000F2
:101AC00013040000FFFFFF7FEDFBFFFF8446101CA7
:101AD00062468C46191C634600E0C0461FB500F004
:101AE000D7F8002801D40021C8421FBD10B500F06E
:101AF0002BF84042013010BD10B500F0C9F80028A5
:101B000001DB002010BD012010BDC04610B500F063
:101B1000BFF8002801DD002010BD012010BDC04627
:101B200010B500F051F8002801DC002010BD0120A4
:101B300010BDC04610B500F047F8002801DA0020BB
:101B400010BD012010BDC046F0B55F4656464D465B
:101B50004446F0B41F035C00DB0F9A46194B0E039A
:101B60004D00C90F8046360B6D0D8B4691463F0BDD
:101B7000640D9D4219D0134B9C421BD00123A542FA
:101B800006D018003CBC90469946A246AB46F0BD34
:101B9000BE42F6D1C845F4D1D34510D0002DF0D1C6
:101BA000304303005A1E9341EBE731000123014308
:101BB000E7D1E0E73A430123002AE2D1DEE7002340
:101BC000DFE7C046FF070000F0B55F4644465646D3
:101BD0004D46F0B41F033C0B2C4F0E034D00A346A3
:101BE0005C008446360B6D0DC90F9046640DDB0F0B
:101BF000BD422BD0254FBC422ED0002D0ED13043FC
:101C00000700814678427841002C17D15F463A435D
:101C100014D14B460020002B0AD006E0002C02D144
:101C20005846024301D099421AD001234842184332
:101C30003CBC90469946A246AB46F0BD0028F2D087
:101C400058425841012240421043F1E73700074310
:101C5000D0D002204042EBE75F461743CDD0F8E7F3
:101C6000A542E2DC05DB5E45DFD808D000205E45FA
:101C7000DED248424841012340421843D8E7C445D8
:101C8000D3D80020C445F4D3D2E7C046FF070000F4
:101C9000F0B55F464D4644465646F0B41C03240B4F
:101CA000A4462F4C0F034D005E00C90F80463F0B2A
:101CB0006D0D8B469146760DDB0FA54220D0284C4A
:101CC000A64222D0002D12D1384344424441002E76
:101CD00020D0002C0DD05C42634101245B421C43A8
:101CE00020003CBC90469946A246AB46F0BD002E73
:101CF00017D05B4519D05B465C4201231C43EFE7DC
:101D0000390002240143EBD1D9E761460224114393
:101D1000E6D1D7E761460A43DBD100240028DFD0B3
:101D2000E9E761460A43E4D1E5E7B54203DD012274
:101D30005C421443D4E7B542CDDB6745DBD809D01C
:101D400000246745CCD259464C42614101244942A6
:101D50000C43C5E7C845CED80024C845F3D3BFE738
:101D6000FF07000010B500F0F1FF01F0EDF804F0FE
:101D700089FC04F031FD01F003FC05F071F900F07D
:101D800067F8FEE730B583B000F0F8F980256D0004
:101D9000114B01930223009300232A000F4910489E
:101DA00000F0B2FB0F4B01930124009400232A00A2
:101DB0000D490E4800F0A8FB0D4B01930094002341
:101DC00080220C490C4800F09FFB002000F092FCA0
:101DD00000F0E0F903B030BDAC040020DC7F000867
:101DE000FD1D0008A4040020FC7F0008211E00083F
:101DF000A804002014800008391E000810B582B025
:101E000000F008FD0190054C23680133236004F0C5
:101E10009FFE032101A800F08FFEF5E7B8310020F6
:101E200000B583B000F0F6FC019003F0D9FF052166
:101E300001A800F081FEF8E700B583B000F0EAFCED
:101E4000019003F089FB0A2101A800F075FEF8E774
:101E500000B583B000230193013300930023402297
:101E60000449054800F050FB012801D100F098FC1E
:101E7000FEE7C04630800008851D000808220028C3
:101E800009D10AE0C046013BDBB2002BFAD1013890
:101E900080B2002801D01300F4E7704710B5124B50
:101EA00000E013001A688242FBD359685C18A04214
:101EB00003D14068411859601800446801198A42EA
:101EC0000CD10A4A1268914206D04A68141944603B
:101ED0001A681268026002E0016000E00260984245
:101EE00000D0186010BDC046BC040020B80400201B
:101EF00070B5040000F086FC3C4B1B68002B20D121
:101F00003B4A530708D0D11D07239943A0239B01C7
:101F1000D3185B1A0A0001E0A0239B013548026038
:101F200000214160D318083B072083432F480360FA
:101F300059601960991A516013602F4B19602F4B2B
:101F40001960002C4CD0072323401A0010239B1A41
:101F5000DA43944244D8E318002B3DDD274A166843
:101F6000B34239D8234A146801E022000C006168AA
:101F70008B4202D921680029F7D11C4909688C429B
:101F80002AD01568216811606268D21A102A08D90F
:101F9000E018410701D072B6FEE742606360FFF7C8
:101FA0007DFF6268B31A15490B60134909688B42BB
:101FB00001D211490B60083580231B061A43626069
:101FC000002323600E4A13680133136000F016FDEE
:101FD0006B0708D072B6FEE700F010FD002502E0A6
:101FE00000F00CFD0025280070BDC046B80400209C
:101FF000C8040020BC040020C82C0020B404002029
:10200000B004002010B5002823D00300083B5B6813
:10201000002B01DB72B6FEE70200083A1268002AC4
:1020200001D072B6FEE7083804005B005B0843602D
:1020300000F0E8FB074A636811688C46634413604C
:102040002000FFF72BFF044A13680133136000F0F0
:10205000D5FC10BDB4040020C404002003000833E4
:102060004360012252428260C36003610023036027
:102070007047C046002303617047C04643684B6009
:102080009A688A609A6851609960086103680133B0
:102090000360704730B50C6802000832631C02D13F
:1020A000026904E01A0053681D68AC42FAD2536812
:1020B0004B6099608A605160086103680133036076
:1020C00030BDC0460369426881689160826841689A
:1020D00051605A68904201D182685A6000220261C0
:1020E0001A68013A1A6018687047C04682B0002327
:1020F0000193064B1B68013301D072B6FEE772B63E
:10210000019B002BFCD002B07047C04600000020AD
:102110000B4A13681868203080F30988022080F386
:102120001488BFF36F8F3FBCAE4608BC04BC62B6D8
:102130001847C046C046C046C046C046C046C04616
:102140007C2D002010B5031F802464041C60043B18
:102150001960043B02491960143B1A60403810BDF5
:10216000ED20000880225205034B1A60BFF34F8F09
:10217000BFF36F8F7047C04604ED00E072B6044AAB
:10218000136801331360BFF34F8FBFF36F8F704736
:1021900000000020064B1B68002B01D172B6FEE741
:1021A000013B034A1360002B00D162B67047C04662
:1021B00000000020EFF3108072B6704780F31088A3
:1021C0007047C04600000000000000000000000052
:1021D000EFF309800E4B1A6820381060F0C04446B7
:1021E0004D4656465F46F0C008B572B600F030FD69
:1021F00062B60CBC116808681030F0C8A046A94649
:10220000B246BB4680F309882038F0C81847C0465C
:102210007C2D002010B5FFF7CDFF040000F032FB4D
:10222000002803D080225205024B1A602000FFF7DD
:10223000C5FF10BD04ED00E070B5144D2C68FA2107
:1022400089002000FDF76CFF0100114B1860114858
:10225000FDF766FF104B186021002000FDF760FFBE
:1022600001005E20FDF75CFF0C4B18600C4C002356
:1022700023600C4A13602868FA218900FDF750FF9B
:102280000138094B18600723236070BD0800002047
:10229000CC2C0020FFFFFF00D42C0020D02C0020ED
:1022A00010E000E018E000E014E000E010B50C4B96
:1022B0001A68FF2109040A431A601A68FF210906F7
:1022C0000A431A60FFF7B8FF0022064B1A60FFF7B7
:1022D0001FFF00F0BDFCFFF709FF002010BDC04646
:1022E00020ED00E00000002070B504003F4B1D68A9
:1022F00072B6BFF34F8FBFF36F8F00F0F7FC00286B
:1023000001D162B670E00622394B1A60394B196868
:10231000002901D1384B19682B00A54200D92300B0
:10232000581E354A12684243521834490968490117
:1023300006D58024A40431490C602F490968521A3B
:102340002F4909688A4200D9521A2E490A6000248E
:1023500028490C60264C2568012129432160002B67
:1023600004D0BFF34F8F30BFBFF36F8F62B6BFF3A0
:102370004F8FBFF36F8F72B6BFF34F8FBFF36F8F67
:102380001B4906240C600968C90310D51A4B19684B
:10239000184B1B68CB18013B9A1A194B1B689A42C1
:1023A00001D9914200D24A1E164B1A600EE0114A22
:1023B0001468114A15686B431C1B29002000FDF7A7
:1023C000AFFE431C5D432C1B0E4B1C600022094BCF
:1023D0001A600732064B1A60074B1B68013B094A1B
:1023E000136000F01DFA62B670BDC046D42C002008
:1023F00010E000E018E000E0CC2C002004ED00E04C
:10240000D02C002014E000E0094B1A68094B1B682F
:10241000DB6A0020002B0AD1074B1B68012B06D872
:10242000002A04D1054B1B68054A1068181A70472A
:10243000D42D00207C2D0020002D0020802D002098
:10244000882D0020084B1B681B68002B04D101223B
:102450005242064B1A6005E0034B1B68DB681A68A2
:10246000024B1A607047C046DC2C0020802D0020F3
:1024700070B504000D001E4B1E681E4B186804301A
:10248000FFF720FE631C16D1002D14D01A4A5168A4
:10249000184B1868816018688C68C4608C6818686C
:1024A000043060601868043088601B685A611368E3
:1024B000013313601AE034190E4B1B685C60A642AE
:1024C00007D90E4B18680B4B19680431FFF7E2FD72
:1024D0000CE00B4B1868074B19680431FFF7DAFD65
:1024E000084B1B689C4201D2064B1C6070BDC04665
:1024F000882D00207C2D0020C02D00208C2D002058
:10250000DC2C0020802D0020F0B5474680B482B03E
:1025100000900E00019395002800FFF7E9FC041ECF
:1025200000D1C7E05820FFF7E3FC071E0ED0582269
:10253000002105F0F5FB3C632A00A521200005F0F1
:10254000EFFB3B6B9846002E04D11EE02000FFF706
:1025500059FDAFE00022B2563423FA540023F3565B
:10256000002B0FD0731C3A00353239003E31002069
:102570001856107000201856002803D0013301327D
:102580008A42F4D100223D23FA54089B042B01D93E
:1025900072B6FEE7089E042E00D90426FE62BE64D1
:1025A0003C1D2000FFF766FD38001830FFF762FD84
:1025B0003F6105239B1BBB617F62281F40440723AB
:1025C0009843019A0099FFF7BDFD3860099B002BE5
:1025D00000D01F60FFF7D2FD394A13680133136042
:1025E000384B1B68002B23D1364B1F601368012B1F
:1025F0002AD1354D2E0064362800FFF72FFD143503
:10260000AE42F9D1314E3000FFF728FD304D2800A1
:10261000FFF724FD2F48FFF721FD2F48FFF71EFD90
:102620002E48FFF71BFD2E4B1E602E4B1D600BE04E
:102630002D4B1B68002B07D1224B1B68DB6AFA6A03
:10264000934201D81F4B1F60284A1368013313605F
:102650003B64FB6A264A1268934201D9244A1360FC
:1026600019499A00D3189B00CB185B68BB609A6825
:10267000FA609A6854609C60FB6A9800C2189200E5
:102680008A187A61C218920052580132C3189B000E
:102690005A50FFF77FFD144B1B680120002B0BD015
:1026A000084B1B68DA6AFB6A9A4205D2FFF75AFDAB
:1026B000012001E00120404202B004BC9046F0BD80
:1026C000A82D00207C2D0020002D0020E82C0020CB
:1026D000AC2D0020902D0020642D0020C02D002066
:1026E000DC2C00208C2D0020E02C0020A42D0020CC
:1026F000D42D002070B50400FFF740FD002C01D15F
:10270000204B1C68251D2800FFF7DCFCA36A002B6A
:1027100003D020001830FFF7D5FC1B4A13680133A3
:102720001360184B1B689C4208D129001748FFF71B
:10273000A5FC174A13680133136005E0154A1368B6
:10274000013B1360FFF77EFEFFF724FD0D4B1B6876
:102750009C4205D0206BFFF755FC2000FFF752FC90
:102760000D4B1B68002B0BD0064B1B689C4207D1FE
:102770000A4B1B68002B01D072B6FEE7FFF7F2FC94
:1027800070BDC0467C2D0020A42D0020642D0020AB
:10279000782D0020A82D0020E02C0020E42C002023
:1027A00000B583B0104B0193002300938022D20028
:1027B0000E490F48FFF7A8FE01280DD172B601227D
:1027C00052420C4B1A6002320B4B1A6000220B4B28
:1027D0001A60FFF76BFD03E0431C01D172B6FEE700
:1027E000074B1B6803B000BD842D00204880000803
:1027F000B52B0008802D0020E02C0020882D002023
:1028000004000020024A1368013313607047C04679
:10281000E42C0020014B18687047C046882D00202A
:1028200010B50400134B1B68134A12681B1893421F
:1028300001D972B6FEE70F4B1B680F4A1268C31826
:10284000934212D10D4B1B68002B01D172B6FEE7EB
:10285000002801D172B6FEE7FFF790FC084A136822
:1028600001331360FFF796FC013C024A1368E41839
:10287000146010BD882D0020802D0020E42C002045
:10288000FC2C0020F0B5474680B4514B1B68002B50
:1028900000D094E04F4B1C6801341C60002C12D116
:1028A0004D4B1B681B68002B01D072B6FEE74A4AED
:1028B00011684A4B186810601960494A136801335F
:1028C0001360FFF7BFFD474B1B6800209C4265D398
:1028D0000020414B9846002643461B681B68002B8E
:1028E00004D1012252423F4B1A6057E03A4B1B6819
:1028F000DB68DB685A68944202D23A4B1A604DE0BA
:102900005A699968DF688F60D9689F684F60191DA0
:1029100057688F4201D1DF6857605E611768013FD9
:1029200017609A6A002A10D0DF691D6ABD601F6AAD
:10293000DD697D601F0018375568BD4201D11D6AF1
:1029400055609E621768013F1760DA6A264D2F684E
:10295000BA4200D92A609700BA189200234DAC46BB
:10296000624452689A609568DD609768796091600A
:10297000DA6A9700B9188900654661445961B91847
:10298000890049590131BA1892005151184A116809
:10299000DA6ACB6A9A429FD901209DE7144B1B68E3
:1029A000DB6A9A00D3189B00104A9B58012B00D970
:1029B0000120104B1B68002B06D0012004E00E4ABA
:1029C000136801331360002004BC9046F0BDC0467C
:1029D000E42C0020882D0020DC2C00208C2D0020F1
:1029E000D82C0020802D0020D42D0020002D002088
:1029F0007C2D0020D82D0020FC2C0020F8B5464B63
:102A00001B68002B01D172B6FEE7FFF7B7FB424B04
:102A10001A68013A1A601B680024002B77D13F4BDB
:102A20001A680023002A4ED171E0F368DB689C6AC3
:102A3000DA691D6A95601A6ADD6955601A001832F4
:102A40006568954201D11A6A626098622268013A0B
:102A500022605D699A68DC689460DA689C685460FA
:102A60001C1D6A68A24201D1DA686A6058612A684E
:102A7000013A2A60DA6A2A4D2D68AA4201D9284D06
:102A80002A609500AA1892008A1852689A60956880
:102A9000DD6095686C609460DA6A9500AC18A400FB
:102AA0000C195C61AC18A40064580134AA18920097
:102AB00054501C4A1268D26ADC6A944207D301223D
:102AC000194C226003E0194F3E00002018493A6873
:102AD000002AAAD1002B01D0FFF7B4FC154B1C68CB
:102AE000002C0CD0104E0125FFF7CCFE002800D0A2
:102AF0003560013C002CF7D100220E4B1A600A4BC6
:102B00001B680024002B02D0FFF72CFB0134FFF7D9
:102B100041FB2000F8BDC046E42C0020A82D002079
:102B2000D42D00207C2D0020D82D0020902D0020B9
:102B3000002D0020FC2C002070B505000C000028A2
:102B400001D172B6FEE7002901D172B6FEE7174B3C
:102B50001B68002B01D072B6FEE7FFF753FE144B43
:102B600018682A68A318904208D29A4219D9984244
:102B7000A44164422B60984209D204E09A420DD8E5
:102B800098420BD30DE0181A0021FFF771FCFFF7F4
:102B900035FF002808D1FFF7E5FA05E02B60012496
:102BA000F1E72B600024F2E7200070BDE42C002048
:102BB000882D0020F0B5474680B41F4B98461F4F24
:102BC0001F4E43461B68002B18D01B4DFFF7D6FA4B
:102BD000FB68DC68201DFFF775FA3368013B336042
:102BE0002B68013B2B60FFF7D5FA206BFFF70AFA41
:102BF0002000FFF707FA2B68002BE7D1114B1B6869
:102C0000012B01D9FFF7AEFAFFF7FEFB0128D8D957
:102C1000FFF7F8FD0C4B1A680C4B1B689A4201D267
:102C200072B6FEE7FFF7F0FB012801D9FFF75CFB66
:102C3000FFF7E4FEC5E7C046782D0020642D002094
:102C4000A82D0020002D0020802D0020882D0020A0
:102C500010B5214B1B68002B03D001221F4B1A60BB
:102C600038E000221D4B1A601D4B1B689A00D218D9
:102C700092001C495258002A0DD1002B02D003E0CB
:102C8000002B01D172B6FEE7013B9A00D2189200E8
:102C90005258002AF4D0134C9A00D11889006118B8
:102CA000486840684860D21892000832A2189042E2
:102CB00005D141689A00D2189200A21851609A007A
:102CC000D218920007498A185268D168064A1160E2
:102CD000034A136010BDC046E42C0020D82D00200C
:102CE000D42D0020002D00207C2D00200B4B1B68D4
:102CF0000020002B11D10A4B1B68002B0DD1094B72
:102D00001B68002B09D1084B1B68084A1068013862
:102D1000181A431E98410223181A7047902D00205C
:102D2000D82D0020FC2C0020C02D0020A82D002034
:102D3000044B5969044A0A405A615A691043586160
:102D40007047C0460020004080FEFFFF10B53120D4
:102D5000FFF7EEFF10BDC04610B504F00DFB1023C9
:102D6000022809D1054B1A690223920704D4FA20DC
:102D7000800004F043FB0300180010BD0020004059
:102D8000F8B506000F00FFF7E7FF042202281AD16A
:102D90007B0501D1FF0A01E0FF0A0137002F11D0A6
:102DA000002300240C25D802801904F04FFB0228D0
:102DB00001D02A0000E002220134A4B22300A7427D
:102DC000F1D800E013221000F8BDC04670B506002F
:102DD0000D00140080239B0007209A4237D8A020C2
:102DE000000404F0EBFA03000420022B2FD132037D
:102DF000120B174B9A60210403220A43DA60D96848
:102E000010220A43DA60002C07D0A400A419330072
:102E1000AD1BEA5804C3A342FBD1A020000404F078
:102E2000CDFA042302280ED1A020000404F0E6FA13
:102E30000300022804D1064A1269920602D402E075
:102E4000042300E00B230021014AD160180070BD6B
:102E500000200040F0B54F4680B4C2B001900D0094
:102E600003F042FD027A437A1B021343023BDA1756
:102E7000920F9B1803273B409B1A72B69A0724D0E7
:102E8000FC371F40BC460423DF1B002F1ADD002641
:102E9000FF240379427912021A4383791B041343F6
:102EA0001A00C3791B061343027A417A09021143BF
:102EB0004A1C92B20272120A42725C540136F6B295
:102EC000BE42E6DB04356346ED1A022D27D9022700
:102ED00000240226631C9C460379427912021A439D
:102EE00083791B0413431A00C3791B061343A20002
:102EF000DC19617809028946A17809044944DB5D3F
:102F0000CB18E17809065B1802A953500436B6B213
:102F1000370063466A4653805488B542DAD8FFF7D3
:102F20001BFF0423022809D1AA0802A90198FFF770
:102F30004DFF022801D0042300E0022362B61800EE
:102F400042B004BC9146F0BD10B5084C00220821E7
:102F5000200004F0FDFA00220721200004F0F8FA16
:102F600001220721200004F059FB10BD3000082089
:102F700010B5124C01220821200004F04FFB012261
:102F80000821200004F0D4FA01220721200004F0D7
:102F9000CFFA0420FEF772FF00220821200004F07F
:102FA000C7FA0420FEF76AFF00220721200004F080
:102FB000BFFA0420FEF762FF10BDC04630000820B3
:102FC00010B50E4C01220821200004F027FB00223E
:102FD0000821200004F0ACFA0420FEF74FFF012284
:102FE0000721200004F0A4FA0420FEF747FF012285
:102FF0000821200004F09CFA10BDC04630000820D3
:1030000070B5050001220821164804F007FB0824CA
:10301000144E6BB2002B05DA01220821300004F0B7
:1030200087FA04E000220821300004F081FA6D00E4
:10303000EDB20420FEF722FF01220721300004F048
:1030400077FA0420FEF71AFF00220721300004F06F
:103050006FFA0420FEF712FF013CE4B2002CD8D135
:1030600070BDC0463000082070B5184C0022082101
:10307000200004F0D3FA01220821200004F058FABD
:103080000420FEF7FBFE01220721200004F050FA85
:103090000420FEF7F3FEFB240C4D06E0013CE4B2F5
:1030A000002C02D1FFF78CFF0EE00821280004F06D
:1030B00049FA0028F2D100220721044804F038FA26
:1030C0000420FEF7DBFE0124200070BD3000082044
:1030D00010B5124C01220821200004F09FFA0022B2
:1030E0000821200004F024FA0420FEF7C7FE012284
:1030F0000721200004F01CFA0420FEF7BFFE002286
:103100000721200004F014FA0420FEF7B7FE012284
:103110000821200004F00CFA10BDC0463000082041
:1031200010B50F4C01220821200004F077FA01228B
:103130000821200004F0FCF90420FEF79FFE012284
:103140000721200004F0F4F90420FEF797FE002286
:103150000721200004F0ECF90420FEF78FFE10BDDB
:1031600030000820F8B507001A4C00220821200082
:1031700004F054FA01220821200004F0D9F90826AD
:103180000024144D01220721280004F0D1F9042065
:10319000FEF774FE6400E4B20821280004F0D2F9BE
:1031A000002801D00134E4B200220721280004F0F5
:1031B000BFF90420FEF762FE013EF6B2002EE1D117
:1031C000002F02D1FFF7ACFF01E0FFF781FF2000E5
:1031D000F8BDC0463000082070B504000E00150090
:1031E000821880235B0000209A4238DC002935D009
:1031F000FFF7BEFEA020FFF703FFFFF735FF002813
:1032000028D02000FFF7FCFEFFF72EFF002821D07A
:10321000FFF7AEFEA120FFF7F3FEFFF725FF002822
:1032200018D0AB1E9BB2012D0AD034000133F61822
:1032300035000120FFF796FF20700134AC42F8D131
:103240000020FFF78FFF3070FFF76AFFFFF7B8FE2F
:10325000012004E0FFF7B4FE002000E0002070BD74
:10326000F8B557464646C0B49246841880225200AC
:103270000023944247DC002944D086B25346002BF9
:1032800034D00F00002507239846002D02D0434676
:1032900033421DD1FFF794FEFA208000FEF7EEFDC9
:1032A0000024FFF765FEA020FFF7AAFEFFF7DCFE73
:1032B000002804D10134A4B2642CF2D11EE0642CA5
:1032C0001CD0F0B2FFF79CFEFFF7CEFE002815D011
:1032D0003878FFF795FEFFF7C7FE00280ED0701C68
:1032E00086B20135ADB20137AA45CED1FFF768FEEF
:1032F000FA208000FEF7C2FD012304E0FFF760FE24
:10330000012300E0002318000CBC90469A46F8BD4B
:10331000002103E00F4B5B58435004310E480F4B24
:1033200042189A42F6D30E4A03E0002313600423A6
:103330001A440C4B9A42F8D300F0B8F80A480B49EB
:1033400001800B48094901800A480B490180FEF7BA
:1033500009FD7047D4820008000000208804002086
:10336000880400207C32002014000820FFFF0000A9
:103370004400082074000820FF030000FEE700005E
:1033800082B00022019201380A4B58609A600532DF
:103390001A601900802252020B680193019B1342AC
:1033A000FAD0044B1A6801218A431A6000229A60FD
:1033B00002B0704710E000E000B583B000226B4619
:1033C000DA71002004F0CEF9012004F0D7F90128C9
:1033D00005D103F041FF01226B46DA7105E00020C0
:1033E00003F03AFF00226B46DA71002003F01EFF63
:1033F000012004F0F5F901280CD1002003F038FF7A
:10340000082003F041FF602003F04EFF012003F08D
:1034100005FF0BE06B4607331B78012B03D102201D
:1034200003F0FCFE02E0002003F0F8FE03B000BD54
:103430000B4B0C4A1A600C4A1A600C4B0C4A1A606F
:10344000802189020B4A11608022520019680A43C8
:103450001A60094A80231B0611680B4313607047EA
:10346000002000401178AC00674523011420004083
:10347000312000004020004004200040F8B50A4BF5
:103480001B6843431F001D0E08D0002480267604CD
:103490003000FFF775FF0134A542F9D13802000A68
:1034A000FFF76EFFF8BDC046E02D002010B5074BBA
:1034B000074A9A60074A084B1A60FFF7B9FFFFF7FF
:1034C0007BFF012003F0BCFE10BDC04600ED00E014
:1034D00000000008006CDC0208000020F0B5574630
:1034E0004E464546E0B4C0B005008A46140080222E
:1034F00052000021684604F013FC5346002B34D0E0
:10350000D146A84600270137FF37BA4525D24022C9
:103510006946404603F08EFF4B46002B13D04D46C4
:103520000026012014496B46F35C5C4008236208C6
:10353000044064420C405440013BDBB2002BF6D106
:103540000136AE42EFD380235B009C46E0440B4B38
:103550009C46E144BA45D6D807E040226946404639
:1035600003F068FF80256D00DAE7200040B01CBC46
:1035700090469946A246F0BD2083B8ED00FFFFFFBC
:1035800010B5002003F0A4F9002003F0A7F90023F0
:10359000114A1370114A1370114A13700121114A14
:1035A00011700331104A1170104A137066221049CD
:1035B0000020FFF711FE01220E49D720FFF70CFE75
:1035C00001220D49D520FFF707FE01220B49D62025
:1035D000FFF702FE10BDC046A931002015310020C2
:1035E000A831002042310020F8300020BD310020F9
:1035F000182E0020CF310020B531002014310020DA
:1036000070B503F071F9050003F072F929796B794F
:103610001B020B431A00AC79240423001343EC79FA
:1036200024061C43057943791B022B431A00817938
:1036300009040B001343C179090619438A7812065D
:10364000CB781B04D2184B79D21809790902521889
:10365000D30912041A435200264B534058011B0B46
:10366000A2781106E27812048A1861795218217939
:103670000902521803439A4206D109221E4B1A70BE
:1036800000221E4B1A7034E01D4B1B78022B27D9E9
:103690001A4B1B78002B09D10B22174B1A700A3AD0
:1036A000164B1A700332174B1A7022E0164B1B8808
:1036B000002B0ED10022124B1A7001320F4B1A70E0
:1036C000124A114B1A8004230B4A13700D4A1370CF
:1036D0000FE00C22084B1A70083A0A4B1A7008E0E7
:1036E0000133074A13700A22034B1A70063A054B3E
:1036F0001A7070BD82FD3E7DE62D0020BD31002098
:10370000F52D0020F83000201000002060EAFFFFB7
:10371000F8B5050003F0E8F8060003F0E9F80479CD
:1037200042791202224383791B0413431A00C3799E
:103730001B061343012202720022427240351D70A3
:10374000047942791202224383791B0413431A003D
:10375000C3791B061343027A477A3F0217437A1C48
:1037600092B20272120A42723579717909022943C2
:10377000B27912040A431100F27912060A43527810
:103780007F210A40DA559E4B1B78012B58D10479D2
:1037900042791202224383791B0413431A00C3792E
:1037A0001B061343027A417A090211434A1C92B262
:1037B0000272120A42722D225A540479427912027C
:1037C000224383791B0413431A00C3791B06134356
:1037D000027A417A090211434A1C92B20272120A19
:1037E0004272CF225A5404794279120222438379D9
:1037F0001B0413431A00C3791B061343027A417A50
:10380000090211434A1C92B20272120A4272462203
:103810005A54047942791202224383791B041343D8
:103820001A00C3791B061343027A417A0902114335
:103830004A1C92B20272120A427229225A54DCE0E5
:10384000704B1B78012B0ED134797279120222430E
:10385000B3791B0413431A00F3791B0613439B78B7
:10386000012B66D10FE0032B63D1347972791202F8
:103870002243B3791B0413431A00F3791B06134345
:103880009B78032B55D10479427912022243837924
:103890001B0413431A00C3791B061343027A417AAF
:1038A000090211434A1C92B200250272120A4272A6
:1038B0005D54047942791202224383791B04134335
:1038C0001A00C3791B061343027A417A0902114395
:1038D0004A1C92B20272120A42725D540479427911
:1038E0001202224383791B0413431A00C3791B0677
:1038F0001343027A417A090211434A1C92B20272BE
:10390000120A42725D540479427912022243837989
:103910001B0413431A00C3791B061343027A417A2E
:10392000090211434A1C92B20272120A42725D5499
:1039300063E0047942791202224383791B04134322
:103940001A00C3791B061343027A417A0902114314
:103950004A1C92B20272120A42722B4D1C2252422F
:103960002C6862405A5404794279120222438379C6
:103970001B0413431A00C3791B061343027A417ACE
:10398000090211434A1C92B20272120A4272732255
:1039900052422C6862405A540479427912022243FE
:1039A00083791B0413431A00C3791B061343027A5D
:1039B000417A090211434A1C92B20272120A4272FF
:1039C00019222C6862405A54047942791202224327
:1039D00083791B0413431A00C3791B061343027A2D
:1039E000417A090211434A1C92B20272120A4272CF
:1039F0002A681E20404242405A5403F0F1FAF8BDB2
:103A0000DC2D0020F8300020B831002072B6BFF362
:103A10004F8F034A034BDA60BFF34F8FC046FDE779
:103A20000400FA0500ED00E070B506003E284DD117
:103A300002F062FF040002F063FF0579427912028E
:103A40002A4383791B0413431A00C3791B061343CB
:103A500001220272002242727E321A700579427986
:103A600012022A4383791B0413431A00C3791B06ED
:103A70001343027A467A36021643721C92B20272DD
:103A8000120A42722579617909022943A279120446
:103A90000A431100E27912060A4352787F210A4054
:103AA0009A552079627912020243A3791B041343C9
:103AB0001A00E3791B0613435B787F2B02D803F0CF
:103AC0008FFA50E00022284B1A704CE002F00CFFF5
:103AD000040002F00DFF0579427912022A4383792E
:103AE0001B0413431A00C3791B06134301220272FD
:103AF0000022427240361E700579427912022A4332
:103B000083791B0413431A00C3791B061343027AFB
:103B1000467A36021643721C92B20272120A42723E
:103B20002579617909022943A27912040A43110017
:103B3000E27912060A4352787F210A409A55207989
:103B4000627912020243A3791B0413431A00E3793A
:103B50001B0613435B787F2B02D803F041FA02E087
:103B60000022014B1A7070BDE8310020F8B502F058
:103B7000BBFE040002F0BCFE0579427912022A4322
:103B800083791B0413431A00C3791B0613430122D4
:103B900002720022427250321A7005794279120282
:103BA0002A4383791B0413431A00C3791B0613436A
:103BB000027A477A3F0217437A1C92B20272120AC3
:103BC00042722679617909023143A27912040A43CB
:103BD0001100E27912060A4352787F210A40DA5531
:103BE0000579427912022A4383791B0413431A0090
:103BF000C3791B061343027A417A090211434A1C16
:103C000092B20272120A427200225A540579427923
:103C100012022A4383791B0413431A00C3791B063B
:103C20001343027A417A090211434A1C92B202728A
:103C3000120A427232225A540579427912022A43F8
:103C400083791B0413431A00C3791B061343027ABA
:103C5000417A090211434A1C92B20272120A42725C
:103C600002225A540579427912022A4383791B04AD
:103C700013431A00C3791B061343027A417A0902DF
:103C800011434A1C92B20272120A4272BC225A5466
:103C90002079627912020243A3791B0413431A00AC
:103CA000E3791B0613435B787F2B02D803F098F966
:103CB00002E00022014B1A70F8BDC046E831002036
:103CC000F8B505000E0017001C0002F00DFE02F012
:103CD0000FFE0379427912021A4383791B041343BE
:103CE0001A00C3791B06134301220272002242729A
:103CF00040351D700579427912022A4383791B04ED
:103D000013431A00C3791B061343027A417A09024E
:103D100011434A1C92B20272120A4272320A5A5477
:103D20000579427912022A4383791B0413431A004E
:103D3000C3791B061343027A417A090211434A1CD4
:103D400092B20272120A42725E541A235F43134BFC
:103D5000DF19FB7C002B1DD02600013BDBB20133B9
:103D6000E3180579417909022943827912040A434B
:103D70001100C27912060A43017A447A24020C43E4
:103D8000611C89B20172090A4172317811550136FC
:103D90009E42E6D103F024F9F8BDC046F481000844
:103DA000F8B5060002F0A0FD040002F0A1FD0579BF
:103DB000427912022A4383791B0413431A00C37900
:103DC0001B061343012202720022427240361E700B
:103DD0000579427912022A4383791B0413431A009E
:103DE000C3791B061343027A477A3F0217437A1CB2
:103DF00092B20272120A4272267961790902314343
:103E0000A27912040A431100E27912060A43527899
:103E1000DA550579427912022A4383791B04134348
:103E20001A00C3791B061343027A467A36021643F8
:103E3000721C92B20272120A4272257961790902E9
:103E40002943A27912040A431100E27912060A43B7
:103E500092789A5503F0C4F8F8BDC046F0B54746CD
:103E600080B40500884602F03FFD070002F040FDE7
:103E7000047942791202224383791B0413431A0006
:103E8000C3791B061343012202720022427240359D
:103E90001D70047942791202224383791B04134373
:103EA0001A00C3791B061343017A427A12020A43AD
:103EB0001600013292B20272120A42723D79797989
:103EC00009022943BA7912040A431100FA79120649
:103ED0000A4352787F210A409A5501235B429C464F
:103EE000E0444346002B29DD0021047943791B027D
:103EF00023431A008679360433001343C679360605
:103F00001E43027A437A1B0213439C4601339BB241
:103F100003721B0A43723D797A7912022A43BB79F4
:103F20001B0413431A00FB791B061343CB189B7821
:103F30006246B3540131C9B24145D6DB38797A794A
:103F400012020243BB791B0413431A00FB791B06C0
:103F500013435B787F2B01D803F042F804BC9046F2
:103F6000F0BDC046F0B557464E464546E0B40400A5
:103F70000D00924602F0B8FC060002F0B9FC03798D
:103F8000427912021A4383791B0413431A00C3793E
:103F90001B061343012202720022427240341C703D
:103FA000047942791202224383791B0413431A00D5
:103FB000C3791B061343017A427A12020A4317009F
:103FC000013292B20272120A427232797179090296
:103FD0001143B27912040A431100F27912060A431E
:103FE00052787F210A40DA556B1E9946002B29DD55
:103FF0000027047943791B0223431A0081790904BD
:104000000B001343C17909061943027A437A1B0254
:104010001343984601339BB203721B0A43723579EE
:10402000727912022A43B3791B0413431A00F379FD
:104030001B061343FB189B7842468B547B1CDFB254
:104040004F45D6DB047942791202224383791B045F
:1040500013431A00C3791B061343027A417A0902FB
:1040600011434A1C92B20272120A427252465A54C8
:104070003079727912020243B3791B0413431A0098
:10408000F3791B0613435B787F2B01D802F0A8FF5E
:104090001CBC90469946A246F0BDC04670B50600CD
:1040A00002F022FC02F024FC04794279120222433D
:1040B00083791B0413431A00C3791B06134300259D
:1040C000012202720022427240361E700479427947
:1040D0001202224383791B0413431A00C3791B067F
:1040E0001343027A417A090211434A1C92B20272C6
:1040F000120A427240225A5404794279120222432F
:1041000083791B0413431A00C3791B061343027AF5
:10411000417A090211434A1C92B20272120A427297
:104120005D54047942791202224383791B041343BC
:104130001A00C3791B061343027A417A090211431C
:104140004A1C92B20272120A42725D540479427998
:104150001202224383791B0413431A00C3791B06FE
:104160001343027A417A090211434A1C92B2027245
:10417000120A427201225A540479427912022243ED
:1041800083791B0413431A00C3791B061343027A75
:10419000417A090211434A1C92B20272120A427217
:1041A00002225A5402F01CFF70BDC04670B50600D2
:1041B00002F09AFB050002F09BFB0479427912029F
:1041C000224383791B0413431A00C3791B0613434C
:1041D000012202720022427240361E700479427936
:1041E0001202224383791B0413431A00C3791B066E
:1041F0001343027A467A36021643721C92B2027256
:10420000120A42722C79697909022143AA791204AF
:104210000A431100EA7912060A4352789A5502F0CD
:10422000DFFE70BD70B5050002F062FB04794279D3
:104230001202224383791B0413431A00C3791B061D
:104240001343012202720022427240351D7002F0B7
:10425000C7FE70BD70B506000D003E2842D102F0C9
:104260004BFB02F04DFB0479427912022243837921
:104270001B0413431A00C3791B0613430122027265
:10428000002242727F321A7004794279120222436C
:1042900083791B0413431A00C3791B061343027A64
:1042A000417A090211434A1C92B20272120A427206
:1042B0003E225A54047942791202224383791B0424
:1042C00013431A00C3791B061343027A417A090289
:1042D00011434A1C92B20272120A42725D5402F0F9
:1042E0007FFE3EE002F004FB047942791202224391
:1042F00083791B0413431A00C3791B06134301225D
:104300000272002242727F321A70047942791202DC
:10431000224383791B0413431A00C3791B061343FA
:10432000027A417A090211434A1C92B20272120ABD
:1043300042725E54047942791202224383791B044B
:1043400013431A00C3791B061343027A417A090208
:1043500011434A1C92B20272120A42725D5402F078
:104360003FFE70BD10B502F0BFFA040002F0C0FAC3
:10437000227A637A1B021343022B07D005224A4B91
:104380001A7013211020FFF765FF8CE02079627905
:1043900012020243A3791B0413431A00E3791B069C
:1043A00013435B787F221340022B30D0DAB2022A0B
:1043B00002D8012B05D061E0032B3FD0042B4DD058
:1043C0005CE0394B1B78022B12D1013B364A13704B
:1043D000364A13700422364B1A700022354B1A707D
:1043E0001020FFF7C3FB3448FDF748FDFFF70EFB35
:1043F00001232D4A13702D4A137004222C4B1A707E
:1044000000222C4B1A701020FFF7B0FB4BE0264B1C
:104410001B78032B05D1013B234A1370234A1370E9
:1044200037E0022B35D007221F4B1A70063A1F4B7C
:104430001A7022211020FFF70DFF34E003231A4ADF
:1044400013701A4A13701D4B1A781A4B1A701C4AB3
:104450001C4B1A801020FFF789FB24E00423124A2A
:104460001370124A1370154B1A78124B1A70144AB3
:10447000144B1A801020FFF779FB14E006220A4B38
:104480001A70053A094B1A7012211020FFF7E2FE4C
:1044900009E00A4B1A78074B1A70094A094B1A802F
:1044A0001020FFF763FB10BD002E002042310020DA
:1044B000F8300020B43100201027000040310020E7
:1044C00050C3FFFFE42D0020F8B502F00DFA040000
:1044D00002F00EFA6F4B1B88002B09D06E4A6D4B11
:1044E0001A80227A637A1B021343022B13D00DE049
:1044F00001236A4A13700421694A1170694A1370D2
:10450000227A637A1B021343022B09D01321112054
:10451000FFF7A0FEBCE0614B1B78023B012B04D9E6
:104520007E211120FFF796FEB2E05D4B1B78022240
:104530009343012B04D033211120FFF78BFEA7E01A
:104540002579627912022A43A3791B0413431A00C6
:10455000E3791B0613435B787F221340DAB2052A06
:1045600000D991E09B00504AD3589F464B4D0126FD
:104570002E700779427912023A4383791B04134360
:104580001A00C3791B0613430122027200224272F1
:1045900051321A700779427912023A4383791B0427
:1045A00013431A00C3791B061343017A427A12029D
:1045B0000A439446013292B20272120A4272277979
:1045C000617909023943A27912040A431100E279A0
:1045D00012060A4352787F210A4061465A5402F07B
:1045E000FFFC3248FDF74AFC2E70FFF70FFA01225C
:1045F0002A4B1A704CE0294D01262E70077942791A
:1046000012023A4383791B0413431A00C3791B0631
:104610001343012202720022427251321A7007794A
:10462000427912023A4383791B0413431A00C37977
:104630001B061343017A427A12020A43944601325E
:1046400092B20272120A42722779617909023943E1
:10465000A27912040A431100E27912060A43527841
:104660007F210A4061465A5402F0BAFC0F48FDF718
:1046700005FC2E70FFF7CAF90122084B1A7007E0FB
:104680000122064B1A7003E012211120FFF7E2FD10
:10469000F8BDC046E42D002050C3FFFF002E0020CF
:1046A000F830002042310020508000081027000020
:1046B000F8B502F019F9040002F01AF90122884B4A
:1046C0001A70884B1B88002B03D0874A854B1A80B1
:1046D00007E00123854A13700421854A1170854A39
:1046E0001370227A637A1B021343032B04D0132125
:1046F0002220FFF7AFFDF1E0207962791202024338
:10470000A3791B0413431A00E3791B06134359785A
:1047100009029B78591889B2774B1F78002F2AD04D
:10472000764B1A785B781B021343994200D1C6E09E
:104730000120724D1A239C4618E0060001306346A2
:1047400073435C5DEB185B781B02234399420DD1E8
:104750001A235E43694B9E19B378002B09D0022BB4
:1047600007D031212220FFF775FDB7E0C2B2BA426F
:10477000E3D3BA4205D131212220FFF76BFDADE032
:10478000002216001A2757435C4BDF19FD783B794E
:104790001B022B4318007C79240423000343BC79BB
:1047A00024061C4317D02378002B0FD051480578DE
:1047B000AB4209D0002301E0A84205D00133DBB2AF
:1047C000E05C0028F8D101E0002D04D13121222045
:1047D000FFF740FD82E01A277743484BDF19FD7948
:1047E0003B7A1B022B4318007C7A240423000343EA
:1047F000BC7A24061C4317D02378002B0FD03C48EA
:104800000578AB4209D0002301E0A84205D001336E
:10481000DBB2E05C0028F8D101E0002D04D13321A7
:104820002220FFF717FD59E0354B994223D11A2377
:1048300073433248C3189B78002B0ED11A335E4362
:104840008619B57DF07D00022843337E1B040343A7
:104850001800737E1B06034309E01A2046432748CD
:104860008619347D737D1B02234326481B180824B8
:104870001B48047029E01A2373432048C3189B780F
:10488000002B0ED11A335E438619B57DF07D0002F0
:104890002843337E1B0403431800737E1B06034327
:1048A00009E01A20464315488619347D737D1B02A2
:1048B000234314481B1808240948047005E00F4BD3
:1048C0009B78002B00D15BE703E02220FFF7F8F98B
:1048D00004E00022022B00D153E742E7F8BDC046B6
:1048E000E92D0020E42D002050C3FFFF002E002002
:1048F000F8300020423100201D000020F481000823
:10490000F0F00000182E002010B501F0EDFF0400BB
:1049100001F0EEFF614B1B88002B09D0604A5F4B12
:104920001A80227A637A1B021343022B10D118E0FB
:1049300001235C4A137004215B4A11705B4A1370B7
:10494000227A637A1B021343022B00D0A0E00DE011
:10495000062B06D01122564B1A700D3A524B1A7084
:1049600091E0504B1B78023B012B06D90E22504B95
:104970001A700A3A4C4B1A7062E02079627912027E
:104980000243A3791B0413431A00E3791B06134364
:104990005B787F221340012B02D0022B1DD040E018
:1049A000444B1B78012B0ED1434B1B78022B0AD9A9
:1049B000424B1B88002B06D00B223D4B1A70073A46
:1049C000394B1A7046E001223D4B1A700132384BC8
:1049D0001A700232344B1A702EE0394B1B78002BC0
:1049E00006D10D22324B1A70093A2F4B1A7040E053
:1049F0002F4C062323702720FEF702FE2378092B75
:104A000006D10122284B1A7000222D4B1A700FE09C
:104A100000212B4A1170112B3ED89B00294AD358F4
:104A20009F461022224B1A700C3A1F4B1A700CE052
:104A30002720FEF7F9FF2FE02720FEF769FE2BE085
:104A40007F212720FFF706FC26E012212720FFF711
:104A500001FC21E036212720FFF7FCFB1CE035217B
:104A60002720FFF7F7FB17E037212720FFF7F2FB9E
:104A700012E024212720FFF7EDFB0DE02221272063
:104A8000FFF7E8FB08E013212720FFF7E3FB03E033
:104A9000062B00D05EE769E710BDC046E42D00207C
:104AA00050C3FFFF002E0020F830002042310020CC
:104AB000E62D0020BD310020F52D00201000002043
:104AC000F82D00206880000810B582B001F00CFFBE
:104AD000040001F00DFF00226B46DA7101236A46E3
:104AE0009371614A1370614B1B88002B09D0604A97
:104AF0005E4B1A80227A637A1B021343022B0ED973
:104B000015E001235B4A137004215B4A11705B4A74
:104B10001370227A637A1B021343022B0BD80322F1
:104B2000514B1A7013212820FFF794FB9AE0514B48
:104B30001B78032B07D004224B4B1A707E212820B0
:104B4000FFF788FB8EE02079627912020243A37995
:104B50001B0413431A00E3791B0613435A787F2181
:104B60000A40012A1DD0002A04D0022A30D0032A8C
:104B700045D05BE09B78012B0FD106223A4B1A708F
:104B800001F032FD01F03CFD01226B46991DD92058
:104B9000FEF766FB012865D150E00222324B1A7005
:104BA0005CE09B78012B0FD107222F4B1A7001F08C
:104BB00027FD01F01FFD01226B46D91DD920FEF70C
:104BC0004FFB01284ED13DE00222274B1A7045E0F1
:104BD0009B78012B0FD10822234B1A7001F016FD90
:104BE00001F002FD01226B46991DD920FEF738FB2A
:104BF000012837D12AE002221B4B1A702EE09B7845
:104C0000012B0FD10922184B1A7001F0FFFC01F0A3
:104C1000F1FC01226B46D91DD920FEF721FB0128AA
:104C200020D117E00222104B1A7017E005220E4B1C
:104C30001A7012212820FFF70DFB13E02820FEF741
:104C4000F3FE0FE02820FEF7EFFE0BE02820FEF732
:104C5000EBFE07E02820FEF7E7FE03E031212820E5
:104C6000FFF7F8FA02B010BDF62D0020E42D002069
:104C700050C3FFFF002E0020F830002042310020FA
:104C8000F0B54F464646C0B483B001F02DFE040097
:104C900001F02EFE2079627912020243A3791B04EF
:104CA00013431A00E3791B061343587800029B78DC
:104CB000181880B200282ED100226B465A716B461C
:104CC000991DFF230B706A46D3710122D530FEF780
:104CD000C7FA012800D039E101226B46D91DD53031
:104CE000FEF7BEFA012800D030E101226B46591DC3
:104CF000D730FEF7B5FA012800D027E101226B4634
:104D0000591DD830FEF7ACFA002800D11EE12E2044
:104D1000FFF746F81AE101282FD101226B465A719C
:104D20006B46991DAA230B70CB326B46DA71CB3AD6
:104D3000D430FEF795FA012800D007E101226B4636
:104D4000D91DD530FEF78CFA012800D0FEE00122F3
:104D50006B46591DD730FEF783FA012800D0F5E0E5
:104D600001226B46591DD830FEF77AFA012800D08F
:104D7000ECE02D30FFF714F8E8E0774B1B88002BB0
:104D800003D0764A744B1A8007E00123744A1370EB
:104D90000421744A1170744A1370227A637A1B02D8
:104DA00013439946032B11D9704B1B789C46002B5B
:104DB0002ED06F4B1A785B781B021343984200D1B8
:104DC000BCE001226A4E1A2398461CE013212E20D3
:104DD000FFF740FABAE01700013243467B43995D82
:104DE000F3185B781B020B4398420CD11A235F43E4
:104DF0005F4BDF19BB78013B012B07D931212E20F6
:104E0000FFF728FAA2E0D5B26545E4D3654504D1A1
:104E100031212E20FFF71EFA98E02F001A236B4352
:104E2000534AD318DA7CD31C994504D013212E2081
:104E3000FFF710FA8AE01A235D434D4B5D19EE7AB5
:104E40002B7B1B0233431900687B000403000B43D8
:104E5000A87B0006184318D00378002B10D04249D5
:104E60000D78AB4209D0002301E0A94206D00133FE
:104E7000DBB2C15C0029F8D102E00023002D05D18E
:104E800031212E20FFF7E6F960E000231A257D434B
:104E900037494D19EE7B297C090231430800697CB2
:104EA000083509040143AD7A2D060D4317D0297842
:104EB00000290FD02B480678B14209D0002101E02B
:104EC000B04205D00131C9B2685C0028F8D101E0D8
:104ED000002E04D133212E20FFF7BCF936E01A2131
:104EE0004B432349CB18187D10335B791B020343D6
:104EF00020499C468C44002A13D0002126796079F1
:104F000000023043A3791B0403431800E3791B0616
:104F10000343CB18DB78604643540131CBB29A424D
:104F2000ECD892B21A235F43114BDF19387D6146EA
:104F3000FEF796F92E20FEF733FF07E00C4B9B7827
:104F4000013B0025012B00D867E757E703B00CBCF5
:104F500090469946F0BDC046E42D002050C3FFFFA7
:104F6000002E0020F8300020423100201D000020DB
:104F7000F4810008182E0020F8B501F0B5FC0400FB
:104F800001F0B6FC4F4B1B88002B03D04E4A4D4B13
:104F90001A8007E001234D4A137004214C4A117016
:104FA0004C4A137001224C4B1A70227A637A1B020E
:104FB0001343032B07D80222474B1A7013213420C6
:104FC000FFF748F97DE02079627912020243A37964
:104FD0001B0413431A00E3791B0613435A78520645
:104FE0006FD19A780F2515401409042D18D1042C7F
:104FF00016D1D81CD91D394E32681202326007789A
:10500000BA18326001308842F6D10B333448026856
:10501000120202600E78B218026001319942F6D194
:10502000304B1B78012B22D12F4B2C4A12689A420D
:1050300009D9B8235B022A4A12689A4203D8042D80
:1050400001D1042C07D00422234B1A7031213420C3
:10505000FFF700F935E009221F4B1A703420FFF7E3
:105060001DF81F4A13681278002A08D115E008229B
:10507000194B1A7070213420FFF7ECF821E01B0A5D
:1050800001331A490B800121194B1970134B196810
:10509000184B1960184B1A600BE01B0A134A138057
:1050A0000023134A13700D4A1168124A1160124A04
:1050B00013600123114A1380114A13800A22064B00
:1050C0001A70F8BDE42D002050C3FFFF002E002011
:1050D000F830002042310020E82D0020A4310020CB
:1050E00010310020F42D0020FF8F0008F22D002049
:1050F000E72D0020A0310020943100200E00002078
:105100000C00002070B501F0EFFB040001F0F0FB93
:10511000A54B1B88002B03D0A44AA34B1A8007E0A1
:105120000123A34A13700421A24A1170A24A1370EA
:10513000227A637A1B021343012B03D801229F4B6F
:105140001A7030E19E4A1278012A03D101329B4B3A
:105150001A7003E10A2A00D0F3E09A4A12889A49A9
:1051600009888A4207D90123944A1370954A13800B
:10517000964A1380EDE08A4247D281225200934240
:1051800008D0FF3A8D4B1A7001238E4A13808F4A44
:105190001380EDE08E4B186880214900FDF75AFE20
:1051A000022829D18A4A13680133FF331360854AE4
:1051B0001388013313802379627912021A43A37989
:1051C0001B0413431A00E3791B0613435B787F4AE1
:1051D00012889A4208D00922784B1A700123794A22
:1051E00013807A4A1380CDE00A21744A117001338A
:1051F000DBB2764A1380D3E00822704B1A70012389
:10520000704A1380714A1380B7E072490978002907
:1052100049D02679607900023043A179090401431D
:105220000800E179090601434878684909888842FD
:1052300008D00922614B1A700123624A1380634A25
:1052400013809FE0013A1202023BD318624A1268AF
:10525000934208D00522594B1A700123594A1380F2
:105260005A4A138093E05D4B1968594B1868FDF753
:10527000F1FD02280ED15A4A1369802149010B43DE
:10528000136106224D4B1A7001234E4A13804F4A78
:10529000138081E00822494B1A700123494A138088
:1052A0004A4A138069E02679607900023043A17987
:1052B000090401430800E17909060143487843499C
:1052C0000988884208D009223C4B1A7001233D4AC4
:1052D00013803E4A138055E012023F4909688A4212
:1052E00007D90123354A1370364A1380374A138091
:1052F0002FE09A18033AFF3A914208D005222F4B2B
:105300001A7001232F4A1380304A13803FE0802116
:1053100049002F4B1868FDF79DFD022808D1062291
:10532000264B1A700123274A1380284A138033E042
:105330000822224B1A700123224A1380234A138029
:105340001BE01E4B1A780A2A2DD89300254AD35801
:105350009F4613213620FEF77DFF24E024213620CE
:10536000FEF778FF1FE07F213620FEF773FF1AE07B
:1053700031213620FEF76EFF15E072213620FEF750
:1053800069FF10E073213620FEF764FF0BE0712106
:105390003620FEF75FFF06E03620FEF707FF02E04B
:1053A0003620FEF703FF70BDE42D002050C3FFFF41
:1053B000002E0020F830002042310020F02D002087
:1053C000E82D00200E000020F22D00200C0000200F
:1053D000A0310020E72D0020103100209431002062
:1053E00000200040B080000810B501F07DFA0400F4
:1053F00001F07EFA224B1B88002B09D0214A204B5A
:105400001A80227A637A1B021343012B0ED815E00F
:1054100001231D4A137004211C4A11701C4A137089
:10542000227A637A1B021343012B0BD90122194BF9
:105430001A7013213720FEF70DFF1FE0124B1B7867
:10544000022B07D00322134B1A707F213720FEF75F
:1054500001FF13E0104B1B7808229343012B07D167
:10546000063A0C4B1A7024213720FEF7F3FE05E0B4
:105470000422084B1A703720FEF7D4FE10BDC04638
:10548000E42D002050C3FFFF002E0020F830002044
:1054900042310020F92D0020E82D002010B501F048
:1054A0002BFA040001F02CFA254B1B88002B03D0AB
:1054B000244A234B1A8007E00123234A1370042156
:1054C000224A1170224A13700122224B1A70227A4A
:1054D000637A1B021343022B07D002221D4B1A7062
:1054E00013213E20FEF7B6FE29E0174B1B78012B57
:1054F00007D10422174B1A707F213E20FEF7AAFE27
:105500001DE02079627912020243A3791B04134340
:105510001A00E3791B0613435B78002B09D0802B1C
:105520000DD003220B4B1A7012213E20FEF792FE83
:1055300005E00522074B1A703E20FEF775FA10BDF4
:10554000E42D002050C3FFFF002E0020F830002083
:1055500042310020F72D002010B5104B1B78012B95
:105560001BD10F4B1B78012B17D101F0C5F9047922
:1055700042791202224383791B0413431A00C37930
:105580001B0613431B783E2B01D1FFF787FF00203A
:1055900001F0A4F90022024B1A7010BD98310020CE
:1055A0004131002070B5050001F0A2F9047942797B
:1055B0001202224383791B0413431A00C3791B068A
:1055C000134301220272002242727F321A70047960
:1055D00042791202224383791B0413431A00C379D0
:1055E0001B061343027A417A090211434A1C92B204
:1055F0000272120A42725D54047942791202224305
:1056000083791B0413431A00C3791B061343027AE0
:10561000417A090211434A1C92B20272120A427282
:1056200078225A5401F0DCFC70BDC04600280FD02F
:10563000084B1A78082109E00B00C046013BDBB299
:10564000002BFAD1013880B2002801D0072AF3D10B
:105650007047C046E831002030B583B00222D64BF7
:105660001A7001F041F9040001F042F900226B4682
:10567000DA71D24B1B88002B03D0D14ACF4B1A8052
:1056800007E00123CF4A13700421CF4A1170CF4A9B
:105690001370227A637A1B021343032B06D8082265
:1056A000C54B1A700022CA4B1A7056E3C84A1278CA
:1056B000012A5CD1C74B1B68002B4AD0C64B188807
:1056C0000F21FAF7B3FD89B2002914D1C34D052388
:1056D0002B703120FFF766FF0024C14B1C80BE4BAE
:1056E0001C80C048FFF7A2FF0722BF4B1A70BF4BB8
:1056F0001C8001232B70BE4B186880210901FDF727
:105700003FFB022817D10522B44B1A70B84A136820
:10571000802109018C4663441360AE4A1368B54981
:105720008C46634413600322A34B1A70AA4A138861
:10573000013313804CE30A229F4B1A700023A44AC2
:1057400013700521A54A1170A34A1380A44A13803F
:10575000F4E200239E4A13700121974A117004312C
:105760009E4A11709C4A13809D4A1380BEE225799F
:10577000617909022943A27912040A431100E279EE
:1057800012060A4351787F200140022900D18FE29E
:10579000032900D193E2012900D097E29178090210
:1057A000D078411889B29448814212D0022900D1A0
:1057B00033E1924A914200D1D3E1914B994200D119
:1057C00088E2FA3AFF3A7C4B1A700022804B1A703A
:1057D000BEE201217E4B19701379190653791B041F
:1057E000CB18D1795918907900020918804B1960AB
:1057F000137A1806537A1B04C318D07A1B18927AAE
:1058000012029B18734A1360B8225202934213D8B3
:105810005A0511D17B4A914200D0C1E29022520236
:10582000934205D10FE0A022D201934204D10AE0B5
:10583000B8225202934206D009225F4B1A7000220E
:10584000634B1A7084E20522644B1A700023624A8B
:105850001380634A13803120FFF7A4FE6148FFF7ED
:10586000E5FE614B1B78072B05D00023584A1370C7
:105870005D4A1370ACE25E4B1B68624A93426BD187
:10588000544B1B68B8225202934234D18021090143
:105890005C48FDF775FA022826D101226B46D91D16
:1058A000D330FDF7DDFC012800D013E201226B4666
:1058B000D91DD530FDF7D4FC012800D00AE24C4AAE
:1058C0001368802109018C4663441360414A1368C0
:1058D00048498C46634413600322374B1A703E4A92
:1058E00013880133138073E20A22334B1A700022AB
:1058F000374B1A7022E290225202934200D0E9E123
:10590000802109013F48FDF73BFA02281DD1012201
:105910006B46D91DD330FDF7A3FC012800D0D9E197
:10592000334A1368802109018C4663441360294A75
:10593000136830498C466344136003221E4B1A706F
:10594000254A13880133138042E20A221A4B1A7047
:1059500000221F4B1A70F1E12B4A934200D0B9E1AB
:10596000A023DB011B4A12689A4200D0B2E18021D9
:1059700009012548FDF704FA022847D101226B46A8
:10598000D91DD430FDF76CFC012800D0A2E1184AE3
:105990001368802109018C46634413600D4A136823
:1059A00014498C46634413600322034B1A700A4A5D
:1059B0001388013313800BE2F42D0020E42D002026
:1059C00050C3FFFF002E0020F8300020423100209D
:1059D000A9310020FC2D002084310020A8310020B6
:1059E000FA30002050C30000E8310020EA310020E6
:1059F000EC2D002000F8FFFF44FF00000202000031
:105A0000030200000090000800B001080A22D54BF4
:105A10001A700022D44B1A7090E11379190453794B
:105A20001B02CB1891795918D04B1960D3791804FF
:105A3000137A1B02C318527A9B18902212029142C9
:105A400000D0B2E1CA4A934214D1CA4AC74B1A6085
:105A500090225202C84B1A600124ACE1C74A93421B
:105A600014D1C74AC14B1A60A022D201C24B1A609E
:105A70000224A0E1C14A934208D1BE4ABB4B1A603E
:105A8000B8225202BC4B1A60032494E1BA4B196845
:105A9000B8235B02994202D800244B0506D00922A4
:105AA000B04B1A700022B04B1A7051E1AF4B18681E
:105AB000FDF766F902284DD1022C15D0032C25D014
:105AC000012C40D101226B46D91DD330FDF7C8FB14
:105AD000012800D0FEE00023AA4A13700121A14A48
