:020000040800F2
:209000001845002081D1000831300108EDD100080000000000000000000000000000000049
:20902000000000000000000000000000EDD10008000000000000000051C2000895C20008F0
:209040005D2401086D240108912B0108A12B0108B51001088534010895340108A53401080E
:20906000A13501088D2E0108B52E0108A9230108D5230108311C0108551C0108791C01081D
:209080009D1C0108A1310108B1310108C1310108D1310108B12B010805300108D92F01080E
:2090A0003D130108D1120108C11C0108911E0108B91E0108E11E0108091F01085D1F01082F
:2090C000002243088B4274D303098B425FD3030A8B4244D3030B8B4228D3030C8B420DD381
:2090E000FF22090212BA030C8B4202D31212090265D0030B8B4219D300E0090AC30B8B420E
:2091000001D3CB03C01A5241830B8B4201D38B03C01A5241430B8B4201D34B03C01A52416C
:20912000030B8B4201D30B03C01A5241C30A8B4201D3CB02C01A5241830A8B4201D38B02A2
:20914000C01A5241430A8B4201D34B02C01A5241030A8B4201D30B02C01A5241CDD2C30967
:209160008B4201D3CB01C01A524183098B4201D38B01C01A524143098B4201D34B01C01ADC
:20918000524103098B4201D30B01C01A5241C3088B4201D3CB00C01A524183088B4201D346
:2091A0008B00C01A524143088B4201D34B00C01A5241411A00D20146524110467047FFE719
:2091C00001B5002000F0F0F802BDC0460029F7D076E7704703460B437FD4002243088B42F4
:2091E00074D303098B425FD3030A8B4244D3030B8B4228D3030C8B420DD3FF22090212BAA2
:20920000030C8B4202D31212090265D0030B8B4219D300E0090AC30B8B4201D3CB03C01A68
:209220005241830B8B4201D38B03C01A5241430B8B4201D34B03C01A5241030B8B4201D318
:209240000B03C01A5241C30A8B4201D3CB02C01A5241830A8B4201D38B02C01A5241430A76
:209260008B4201D34B02C01A5241030A8B4201D30B02C01A5241CDD2C3098B4201D3CB0193
:20928000C01A524183098B4201D38B01C01A524143098B4201D34B01C01A524103098B42BC
:2092A00001D30B01C01A5241C3088B4201D3CB00C01A524183088B4201D38B00C01A524199
:2092C00043088B4201D34B00C01A5241411A00D201465241104670475DE0CA0F00D0494265
:2092E000031000D34042534000229C4603098B422DD3030A8B4212D3FC22890112BA030A56
:209300008B420CD3890192118B4208D3890192118B4204D389013AD0921100E08909C30986
:209320008B4201D3CB01C01A524183098B4201D38B01C01A524143098B4201D34B01C01A1A
:20934000524103098B4201D30B01C01A5241C3088B4201D3CB00C01A524183088B4201D384
:209360008B00C01A5241D9D243088B4201D34B00C01A5241411A00D20146634652415B108B
:20938000104601D34042002B00D54942704763465B1000D3404201B5002000F005F802BDF4
:2093A0000029F8D016E770477047C0469E2110B5C905041C01F0AAFB002803D1201C00F01B
:2093C000FFFB10BD9E21201CC90500F073FA00F0F7FB80231B069C466044F2E770B5002254
:2093E0000C4B04000D0001F057FB002804D12000290001F05BFA70BD064B0022200029004D
:2094000000F000FF01F052FA80231B069C466044F1E7C0460000E04170B501F0B5FA0022F0
:209420000B4B0D00040000F073FCFFF7D7FF060001F072FA0022074B00F06AFC02000B0060
:209440002000290000F0DEFEFFF7C8FF310070BD0000F03D0000F041F0B5564644465F460E
:209460004D46F0B444024600C70F83B08846650A360EBA463DD0FF2E22D00023EC008025BF
:2094800099469B46ED0425437F3E43465C025800DB0F640A000E984636D0FF2830D08023A3
:2094A0000021E400DB041C437F38301A0190484642460843724E800030587A401300874614
:2094C000002D44D108239946063B9B46DDE70122FF2000241A406402C305640AD2071C43C6
:2094E0001443200003B03CBC90469946A246AB46F0BD002D20D104239946033B9B46C4E721
:20950000002C17D1022102E0002C0AD10121321A01924A4643460A435A48920082587B40FB
:209520009746200001F0FCFA431F76309C4040420021BAE70321B8E7280001F0F1FA431FF6
:209540009D4000237630464299469B469DE70C239946093B9B4698E780240022E403FF201B
:20956000B9E70024C2468B465A465346022AAED0032A7DD0012A31D1012200201A40002403
:20958000A9E70122101A1B2856DD1A4000200024A1E78023DB031D424BD18023DB032B4367
:2095A0005C02640A3A00FF2095E76D016001854230D2019A0024013A01921B220127290057
:2095C00064006D00002901DBA84201D82D1A3C43013A002AF3D16A1E95412C4301987F30EE
:2095E0000028CEDD620704D00F222240042A00D00434220103D5244A019814408030FE2866
:2096000000DD64E70122A401640AC0B21A4062E72C00A9E72D1A1A220124CFE76B02BCD5BF
:2096200000248023DB031C436402640A4246FF2051E71C42B3D1F4E721002022C140101A28
:209640008440621E94410C43620704D00F222240042A00D00434620104D5012201201A40C2
:20966000002438E70122A401640A1A40002032E78023DB031C436402640A5246FF202AE762
:209680002843010868430108FFFFFFF7F0B557464E4645464300E0B446028846760A1F0EB3
:2096A000C40F002F47D0FF2F25D0002380259A469946F600ED042E437F3F434642465D0261
:2096C000D20F5B006D0A1B0E904640D0FF2B39D080220020ED00D20415437F3BFB18424663
:2096E0005746591C62408C4607430F2F5CD86F49BF00C9598F46002E45D108239A46063B2A
:209700009946DAE7424602282DD0032800D1C3E0012800D0A2E0002500260240D4B2760255
:20972000ED05760A2E43E407264330001CBC90469946A246F0BD002E1AD104239A46033B42
:209740009946BAE72A00511E8A41901CC6E70120002DC3D0280001F0E3F9431F76309D4011
:2097600043420020BAE70124FF2514400026D6E7300001F0D5F9431F9E40002376304742A2
:209780009A46994699E70C239A46093B994694E780260024F603FF25C1E735004846B2E7F2
:2097A000350022004846AEE72904090C0800370C3604360C2C0C7943704367437443060C0C
:2097C00064183619B14203D980214902884647440004000C310409188D01681E8541890ED3
:2097E0002943350CED19AD010D43290104D5012369081D4063460D4319007F31002925DDD6
:20980000680704D00F202840042800D00435280103D5274980330D401900FE29A3DC0124E4
:20982000AD016E0A1440CDB279E78020C003064207D0054205D128434602760A4446FF254F
:209840006DE706437602760AFF2568E70124611A1B2905DD14400025002660E76346CBE7F9
:209860002E002023CE40591A8D406B1E9D412E43730704D00F233340042B00D004367301B1
:2098800004D5012401251440002648E70124B601760A1440002542E780260124F6032E43C8
:2098A0007602760A1440FF2539E7C046A8430108FFFFFFF7F8B54A024E0043024400240E28
:2098C000C50F9B09360EC90F9209FF2E00D183E001204140A01BA9425CD0002800DC95E00B
:2098E000002E1CD1002A00D081E05A0704D00F221A40042A00D004335A013BD50134FF2C32
:2099000000D191E001209B015B0AE4B205405B02E4055B0AED0723432B431800F8BDFF2C9D
:20992000E3D08021C9040A431B2800DD90E016002021C640081A8240511E8A4132439B1A84
:209940005A0115D59B019E09300001F0E9F80538864084426CDC041B330020200134E34082
:20996000041BA640721E964100243343BDE70D005A07BCD1DF0801231D40FF2C33D1002F7C
:2099800000D190E08022D20313003B435B025B0AFF24BCE700284FDD002E2ED0FF2CA4D0D7
:2099A0008025ED042A431B2800DD97E016002025C640281A8240501E824132439B185A01F4
:2099C000D5D50134FF2C6DD001227B481A405B08034013430D0088E7002A00D07AE777E7CF
:2099E000031EC5D100257B025B0AE4B28FE701380028A4D0FF2C97D177E7002A00D174E781
:209A000001380028DAD0FF2CCDD16EE7002821D1601CC0B2012858DD80279E1AFF043740DE
:209A20002FD0D61A0D008FE701231D4000236EE7624B241A334058E7002851D1601CC6B2E0
:209A4000012E33DDFF282DD09B185B0804004CE7012274E7002C1AD0FF2E1FD08024E4041A
:209A6000404223431B2800DD96E01D002024C540201A8340581E83412B43D31A34000D002F
:209A80005EE7002E00D05FE700250024ABE7002B44D0C0430028F0D0FF2EE3D11300FF2421
:209AA0000D0022E70D00FF24002330E7002C5DD1002B7DD0002A00D117E79B185A0100D479
:209AC00056E73E4A040013400FE7002C1ED1002B2FD1002A65D013000D0006E701226DE74B
:209AE000002C1FD1002B59D0C04300280BD0FF2E4FD01B285EDC1D002024C540201A8340C4
:209B0000581E83412B439B18340058E7002B1CD1002A49D013000D00FF24E6E613003400C6
:209B20000D00E2E6FF2E34D08024E40440422343DFE7002A00D1D8E68027981AFF04074089
:209B400000D14DE7D31A0D00CFE6FF24002A00D1CBE68020DB08C003034204D0D208024205
:209B600001D113000D00DB00FF24BEE6002B10D0FF24002A00D1B8E68020DB08C0030342FF
:209B800003D0D208024200D11300DB000D00FF24ABE61300FF24A8E601236EE713003400D0
:209BA000A3E6002700251EE780270025FF03E9E613009AE60123A6E7FFFFFF7DFFFFFFFB78
:209BC0004302590A4300C20F1B0E00207E2B0EDD9D2B0DDC802000040143952B0BDC9620F6
:209BE000C31AD9400B005842002A00D118007047034BD018FBE7963B99400B00F3E7C04653
:209C0000FFFFFF7F70B5002830D0C317C5185D40C40F280000F084FF9E231B1A962B0DDC19
:209C20009622D21A95406A02520AD8B25202C005520AE40702432243100070BD992B19DC59
:209C40009922D21A9540124A2A40690704D00F210D40042D00D00432510103D50C4B1A40EF
:209C60009F231B1A9201520AD8B2DFE7002400200022DBE705222E00121AB921D6402A00EB
:209C8000C91A8A40551EAA4135001543DBE7C046FFFFFFFB70B5041E28D000F041FF9E233C
:209CA0001B1A962B0ADC9622D21A94406202520AD8B25202520AC005104370BD992B18DC59
:209CC0009922D21A9440114A2240610704D00F210C40042C00D00432510103D50B4B1A4084
:209CE0009F231B1A9201520AD8B2E2E700200022DFE705222500121AB921D5402200C91AB7
:209D00008A40541EA2412C001443DCE7FFFFFFFBF0B55F4656464D464446F0B40D03994650
:209D20004E002B0B87B00700924680469B46760DCC0F002E69D06D4B9E4235D05B4680223D
:209D4000DD001204430F13432B439B46C3009846674B00279C460023664401934A461503B4
:209D60005000D20F53462D0B400D914600D176E05E4A90426CD080225B0F120413435C4AC2
:209D8000ED0094461D4353460022DB00604449463618701C6140029017430F2F00D9AFE0C6
:209DA0005448BF00C759BF465B461F4300D088E000239B469846023308270193CEE74946CA
:209DC000022A6AD0032A00D109E2012A00D0BBE111400022002300259046CCB200212D033D
:209DE0000A0D12052D0B1543434A1B0515401D436D00E4076D0825434046290007B03CBCB0
:209E000090469946A246AB46F0BD034352D05B46002B00D18AE1584600F082FE03000B3B40
:209E20001C2B00DD7BE11D22D31A3A0001005D46DA4008398D4013008F402B439B46B84641
:209E40002E4B00279C46002360444642019385E752462A432CD100250023022297E75246AD
:209E60002A4321D0002D00D154E1280000F058FE03000B3B1C2B00DD46E11D21CB1A514695
:209E80000200D9405346083A954093400D431B4A944660444042002279E7012400220C405A
:209EA000124B0025904699E70025002301226EE703226CE700239B469846013304270193BD
:209EC0004CE703230C27019348E700238025984600242D03054B81E75D464346019A6FE764
:209EE0005D4643462100019A6AE7C046FF07000001FCFFFFE8430108FFFF0F80F30300006B
:209F00004246120C91461A0C9446424617044A461B041B0C5A43604690464A46424310000D
:209F2000039262461C003F0C7A437C4342440192220C9246019A5244904506D98246802095
:209F400040028046C24450460390100C049048462404240C1204121905922A0C2D042D0CBC
:209F600068432C00824648467C4350438146200C8046574357444744BA4503D9802040022C
:209F80008046C144380C3F04B84648442404240C01900498A044404404905846000C8146F3
:209FA00058460404200C8246070048465F434C464343604660436446834650464443380C9B
:209FC0008446E4186444A34203D980235B029C46E34448463F04230C3F0C2404E41957463C
:209FE00068436F4384464D46504655434243380C814662444A445B44944503D9802040027F
:20A000008446654403983F04834604983F0C8446E344C345804140428246100484460198C4
:20A02000674484466744A344BC46A345A4419946D44464428742BF41D4458041E144A046FF
:20A0400099459B417F424042C8440743120CBA18A045A4415F423B0064422343D718434693
:20A060007D19DB0D6D021D435B465A02059B1A43531E9A415B46DB0D1A4343465B0213432B
:20A08000EA0107D501225C0813402343EA07029E13436D08574AB218002A4BDD580709D068
:20A0A0000F201840042805D0181D98429B415B42ED180300E80104D54F4A15408022D20064
:20A0C000B2184E48824200DDE7E60124DB08680718436D02530580462D0B5B0D0C407DE604
:20A0E000802259461203114208D0154206D115432D0398462D0B4C46414B6FE65D461543A5
:20A100002D032D0B3E4B69E603005546283B9D400023BCE6504600F003FD2030A8E60300F5
:20A12000283B9F400023BB46984689E600F0F8FC203073E60124A61A382E07DD00220C4042
:20A1400000230025904649E6029EA3E71F2E20DC20222C001800921BF040944093400443EE
:20A16000581E83411C43F540630709D00F232340042B05D023001C1D9C4292415242AD18CF
:20A180002B021FD5012400220C4001230025904624E61F202C004042821AD440202E1CD00B
:20A1A0004022961BB5402B43581E83410720234318400025002809D00F2200251A401C0018
:20A1C000042AD8D1230068076D022D0B0124DB08034398460C40002300E60025E3E780225D
:20A1E0000124120315432D0398462D0B0C40044BF4E5C046FF030000FFFFFFFEFE0700000B
:20A20000FF070000F0B557464E464546E0B40E001100F20F9246C500420F1803370374006C
:20A22000400A4E0F7F0A3043CF4E17435A00640D520DDB0FC900B24200D1E5E001267340C3
:20A24000A61AB446534500D1AFE0002E00DC0DE1002A3AD103000B4300D0E4E06B0709D0EF
:20A260000F232B40042B05D02B1DAB42AD416D427F191D003B0200D488E0BB4B01349C4224
:20A2800000D110E13A00B94B51461A4001235007ED08520264050543120B640D0B4000215E
:20A2A000280012030D0D120B64052D0515436208AF4CDB072C401443640064081C432100DD
:20A2C0001CBC90469946A246F0BDA74B9C42C5D080231B0418436346382B00DDFDE01F2BCA
:20A2E00000DD30E1624620239B1A02009A40664690460A009940F24046464B1E9941324319
:20A30000114363460200DA40691A8D429B410D00BA1A5B42D71A3B0235D57A02530A984689
:20A320004346002B00D1C4E0404600F0F9FB0300083B1F2B00DDC5E020222900D21A474694
:20A34000D1409F400A009D403A439C4200DDC0E01C1B631C1F2B00DDE4E020211400280030
:20A36000C91AD8408C408D400443DA40681E854117002543002471E7424663461A4300D142
:20A380004CE2674645466B0700D069E7012351467807ED08FA080B40054373498C4238D06F
:20A3A00012036405120B640D79E7002E00DC9AE0002A47D06C4A944200D14FE78022120421
:20A3C00010436246382A00DC08E10143481E81410022C9B24919D219A942BF410D007F424C
:20A3E000BF183A0200D442E15F4A0134944200D14EE101205D4A69083A4028400843D5075D
:20A40000054357089A4629E706000E4300D017E714E72900114300D1F9E1802109030A4363
:20A420001203120B3BE701235B429846C4446346002B72D1691A8D429B413F1A5B42FF1ACD
:20A440000D0068E702000A4300D107E7012252429046C4446246002A00D0E6E06918A94229
:20A46000B6413F187642F7190D00BAE7002E00D080E0621C5205520D012A00DCF9E06A1A22
:20A4800091464D45B6413A1A7642921B9046120200D499E04D1BA9428941C71B49427A1A4E
:20A4A00090469A463CE752460123002513400022F5E6280000F034FB20300300083B1F2B6B
:20A4C00000DC39E72A002838824000259C4200DC3EE7264FE41A1740C0E60143481E814154
:20A4E0000022C9B210E7002E00D0F1E0621C94465205520D012A00DCA0E01B4A944500D155
:20A50000C5E06918A94292413F185242D2194908D5070D4357086446A0E6134B9C4200D069
:20A52000D9E69BE611001F3CE1400C00202B00D180E04021CB1A9A4015436A1E95410027C9
:20A54000254300241FE763460200203BDA406346202B71D0402366469B1B98400143481ECD
:20A56000814111430022CFE6FF070000FFFF7FFFFFFF0F80002C48D0CA4CA24200D1A2E04E
:20A580007442A1468024240427434C46382C00DDDBE01F2C00DD44E14E462024A41B3E0038
:20A5A000A640A246B0464C462E00E640B4464646644626435446A5406C1EA54134002C43C6
:20A5C0004D46EF400D1B28E04A4643464D461A4300D0A5E6002300240025DEE61F2A5ADC76
:20A5E00066462022921B060096409146B04662460E00D640424616434A4691404A1E9141CF
:20A60000020060463143C240E4E63C002C435AD0F443A146002C52D14D1BA9428941C71B11
:20A6200049427F1A14009A4675E69E4A944200D0C7E613E600227FE700208FE7002C00D059
:20A64000C8E03B002B4300D10FE103000B4300D104E66918A9429B413F185B42DF193B026B
:20A6600000D41AE1904B0D001F406446F6E59A4689E63A002A43002C5CD1002A75D102007E
:20A680000A4300D1CAE007000D009A46E6E564460022002581E662460600203AD640624615
:20A6A000B046202A00D1B7E040226646921B904001434246481E8141114300228AE6794CC8
:20A6C000A24200D061E707000D0014009A46C5E5002C41D13C002C4378D0F443A146002C51
:20A6E00020D0704CA24271D04C46382C00DDB2E01F2C00DDBCE02026341BA2463C0056460B
:20A70000B4404E46A0462C00F440A446444666463443A4465446A54064466E1EB5412543D7
:20A720004C46E7406D188D4289413F184942CF19140056E6002A2FD102000A4300D184E07A
:20A7400007000D009A46574C88E53D436F1EBD41ECB200270D1B60E7524CA24236D0744278
:20A7600080263604A1463743BEE702000A4300D174E56A1A90464545B6413A1A7642921BE6
:20A780009446120200D4F7E54D1BA9428941C71B49427F1A9A4661E502000A433AD0ED0884
:20A7A0007C072C438025FA082D032A4208D0C7082F4205D145072C003A009A46C9080C43C4
:20A7C000670FD200E5001743364C47E507000D00140043E53A002A4343D002000A4319D002
:20A7E000ED087C072C438025FA082D032A4207D0C6082E4204D147073C003200C9080C4369
:20A80000D700620FE50017439A46264C26E50022002544E5234C21E5002049E700230025D7
:20A82000BBE54C463E00203CE6404C46B446202C31D040244E46A61BB7403D436C1EA541AD
:20A8400064462C4300270D1BE7E6802200231203144C0025A1E53D436F1EBD410027EDB20D
:20A8600060E707000D000F4CF8E407000D00F5E44E463C00203EF440A0464C46202C0ED055
:20A8800040244E46A41BA7403D436F1EBD4144460027254346E70027CFE70D0073E5002760
:20A8A000F2E7C046FF070000FFFF7FFF0B0330B5134D1A0B4B005B0DC90F0024AB4211DD35
:20A8C000104CA34210DC8024640322430E4CE41A1F2C0CDD0D48C31ADA4013005C42002929
:20A8E00000D11C00200030BD094BCC18FAE7E040084CA44663449A4013000343EEE7C04632
:20A90000FE0300001D0400003304000013040000FFFFFF7FEDFBFFFF70B5051E28D000F035
:20A92000FFF8154B154A1B1AD21A1F2A16DD2C00134A0025D21A94405A052403240B520D82
:20A94000002124030B0D240B1B0523430D4C1205234013435B002800590870BD0B212C0050
:20A96000081AC440954024035A05240B520DE7E700220024E4E7C0461E040000330400008A
:20A9800013040000FFFF0F804200120E511C4302C9B270B55D0AC40F012915DDE02189007F
:20A9A0008C466D071B0B6244002128000D0D2D052B431C4D52052B40520813435B00E40761
:20A9C0005B082343190070BD002A15D1002D1FD0280000F0A5F80A281DDC0B232A001B1ACF
:20A9E000DA4013000200153295400F4A1B03121A52051B0B520DD7E7002D06D080221B0B04
:20AA0000120313436D07094ACEE7084A0023CBE700220023C8E703000B3B9D402B000025BE
:20AA2000E3E7C046FFFF0F8089030000FF0700008446101C62468C46191C634600E0C046F3
:20AA40001FB500F0DFF9002801D40021C8421FBD10B500F033F94042013010BD10B500F040
:20AA6000D1F9002801DB002010BD012010BDC04610B500F0C7F9002801DD002010BD01209E
:20AA800010BDC04610B500F059F9002801DC002010BD012010BDC04610B500F04FF90028D1
:20AAA00001DA002010BD012010BDC0468446081C6146FFE71FB500F0BDF8002801D40021C8
:20AAC000C8421FBD10B500F049F84042013010BD10B500F0AFF8002801DB002010BD0120AC
:20AAE00010BDC04610B500F0A5F8002801DD002010BD012010BDC04610B500F057F800281E
:20AB000001DC002010BD012010BDC04610B500F04DF8002801DA002010BD012010BDC04699
:20AB20001C2101231B04984201D3000C10391B0A984201D3000A08391B09984201D3000999
:20AB4000043902A2105C40187047C04604030202010101010000000000000000430270B51A
:20AB600042004C005D0AC30F4802120E460A240EC90FFF2A0FD0FF2C11D00120A24200D061
:20AB800070BDB542FCD18B420DD0002AF8D12800431E9841F4E70120002DF1D1EBE70120E7
:20ABA000002EEDD1E9E70020EAE7C0464302F0B542005D0AC30F4802440A4800120E000E6F
:20ABC000C90FFF2A1FD0FF2822D0002A09D16E426E4100280FD1002C0DD10020002D09D0D1
:20ABE00005E0002801D1002C01D08B4213D0584201231843F0BD002EF7D0484241410120E1
:20AC000049420843F6E7002DDDD002204042F1E7002CDAD0F9E78242E9DC04DBA542E6D868
:20AC20000020A542E6D25842434101205B421843E0E7C0464302F0B542004C005E0AC30F9F
:20AC40004802120E450A240EC90FFF2A17D0FF2C19D0002A0BD170427041002C17D0002869
:20AC600007D048424141012049420843F0BD002C13D08B4214D0584201231843F6E7022075
:20AC8000002EF3D1E3E70220002DEFD1E1E7002DE5D10020002EE9D0EDE7002DE9D1EAE7AB
:20ACA000A242E8DC04DBAE42E5D80020AE42DDD25842434101205B421843D7E7F0B55F4662
:20ACC00056464D464446F0B41F035C00DB0F9A46194B0E034D00C90F8046360B6D0D8B46E3
:20ACE00091463F0B640D9D4219D0134B9C421BD00123A54206D018003CBC90469946A24645
:20AD0000AB46F0BDBE42F6D1C845F4D1D34510D0002DF0D1304303005A1E9341EBE7310051
:20AD200001230143E7D1E0E73A430123002AE2D1DEE70023DFE7C046FF070000F0B55F46AA
:20AD4000444656464D46F0B41F033C0B2C4F0E034D00A3465C008446360B6D0DC90F9046DC
:20AD6000640DDB0FBD422BD0254FBC422ED0002D0ED130430700814678427841002C17D13A
:20AD80005F463A4314D14B460020002B0AD006E0002C02D15846024301D099421AD0012374
:20ADA000484218433CBC90469946A246AB46F0BD0028F2D058425841012240421043F1E78E
:20ADC00037000743D0D002204042EBE75F461743CDD0F8E7A542E2DC05DB5E45DFD808D0AA
:20ADE00000205E45DED248424841012340421843D8E7C445D3D80020C445F4D3D2E7C046AA
:20AE0000FF070000F0B55F464D4644465646F0B41C03240BA4462F4C0F034D005E00C90F3D
:20AE200080463F0B6D0D8B469146760DDB0FA54220D0284CA64222D0002D12D1384344423D
:20AE40004441002E20D0002C0DD05C42634101245B421C4320003CBC90469946A246AB463D
:20AE6000F0BD002E17D05B4519D05B465C4201231C43EFE7390002240143EBD1D9E7614629
:20AE800002241143E6D1D7E761460A43DBD100240028DFD0E9E761460A43E4D1E5E7B542EC
:20AEA00003DD01225C421443D4E7B542CDDB6745DBD809D000246745CCD259464C426141CB
:20AEC000012449420C43C5E7C845CED80024C845F3D3BFE7FF07000010B586B001AC142293
:20AEE0000021200009F0DAF90123A3726372034B0193200008F0DEFA06B010BDFF1B4E0E6C
:20AF000072B6034B034A9A60034A9A6062B6704700B0004015AD087979A8D55A00B587B0EF
:20AF200001A80023837208F0C5FA07B000BDC04600B589B020220021684609F0AFF90D4B27
:20AF40000093343301930C4B029301236A46D37603226946CA754B754B740222CA730B74E8
:20AF60000B338B8102338B73044806F0A9FD09B000BDC046DC0000204C3000404020014097
:20AF800010B588B0564C02220B21200006F006FF02220A21200006F001FF022209212000D4
:20AFA00006F0FCFE02220821200006F0F7FE02220721200006F0F2FE02220521200006F097
:20AFC000EDFE02220421200006F0E8FE02220321200006F0E3FE02220221200006F0DEFEC9
:20AFE000404C02220121200006F0D8FE02220021200006F0D3FE02220F213B4806F0CEFECE
:20B0000001A900230B7001224A708A70CB700B714A718B71CB710B724B728B72CA720B7376
:20B020004B730C208873CB730B740A762F4C200006F050F8002306220021200006F01AF980
:20B04000012306220121200006F014F9022306220221200006F00EF9032306220321200040
:20B0600006F008F9042306220421200006F002F9052306220521200006F0FCF80623062283
:20B080000621200006F0F6F8072306220721200006F0F0F8082306220821200006F0EAF899
:20B0A000092306220921200006F0E4F80A2306220A21200006F0DEF80B2306220B21200012
:20B0C00006F0D8F8FFF734FFA26802231343A3606368802212061343636008B010BDC046D0
:20B0E000000008206000082030000820003000408100064B064A8A589A4203D90B000349C5
:20B10000034A99508000024BC0587047FF0F0000DC00002010B5064C00220821200006F0DB
:20B120003DFE00220821200006F09EFE10BDC0463000082010B500F0D3F800F0EDF8FFF761
:20B140001FFFFFF7E7FF10BD10B50821014806F01FFE10BD3000082070B590B01B4C0122CA
:20B160000121200006F01AFE01220021200006F015FE0BAD14220021280009F08FF807ACA8
:20B1800010220021200009F089F801AE18220021300009F083F896235B006B802D33FF3383
:20B1A000AB800223AB71013BEB712B72A370A560637318222273A37374603372044BF381DF
:20B1C0003100044807F07AF910B070BD00000820AF0400000030014070B590B01C4C01225F
:20B1E0000C21200006F0DAFD01220B21200006F0D5FD0BAC14220021200009F04FF807ADDC
:20B2000010220021280009F049F801AE18220021300009F043F80223237096225200628067
:20B220002D32FF32A280A371013BE3712372AB70AC606B7318222A73AB7375603372054B5F
:20B24000F3813100044807F039F910B070BDC04630000820AF0400000030014070B590B000
:20B260001C4C01220321200006F098FD01220221200006F093FD0BAC14220021200009F061
:20B280000DF807AD10220021280009F007F801AE18220021300009F001F804232370293340
:20B2A000FF3363802D33FF33A3800223A371013BE3712372AB70AC606B7318222A73AB736C
:20B2C00075603372044BF3813100044807F0F6F810B070BD00000820AF0400000030014096
:20B2E00010B5FFF739FFFFF777FFFFF7B7FF10BDC000034B9C4660440023036181617047C2
:20B3000000300140C000034B9C466044806880B27047C046083001407047C04610B501F065
:20B32000FDFF024A024B9A6062B610BD0090000800ED00E010B5FFF7F1FF01F039FD04F06E
:20B3400023FE04F027FF02F0B5FB05F089FD00F0B9FD02F0E1F902F073FBFFF7BDFDFFF71D
:20B36000E9FE08F0E3FD00F027F9FEE730B583B000F044FF314B019301250095002330228E
:20B380002F49304801F000F92F4B019302240094002318222D492E4801F0F6F82D4B0193D7
:20B3A0000094002318222C492C4801F0EDF82C4B01930094002318222A492B4801F0E4F82E
:20B3C0002A4B01930094002318222949294801F0DBF8294B019300950023402227492848CA
:20B3E00001F0D2F8274B01930094002340222649264801F0C9F8264B019300940023802286
:20B4000052002449244801F0BFF8244B01930095002340222249234801F0B6F8224B0193C6
:20B420000094002340222149214801F0ADF8002001F0A0F900F0EEFE03B030BD1C01002027
:20B440002844010821B500082001002038440108B5B400082C01002048440108CDB40008F7
:20B460003401002058440108E9B40008100100206844010805B5000814010020784401088B
:20B4800059B50008180100209844010871B5000830010020B044010839B5000828010020BD
:20B4A000C444010889B5000824010020E0440108A1B5000800B583B001F0ECF9019000F026
:20B4C0000DFD012101A801F077FBF8E700B583B001F0E0F90190002000F00CF9052101A82E
:20B4E00001F06AFBF7E7C04600B583B001F0D2F90190012000F0FEF80A2101A801F05CFBBA
:20B50000F7E7C04600B583B001F0C4F90190022000F0F0F8322101A801F04EFBF7E7C0460C
:20B5200000B583B001F0B6F90190FFF7E9FC642101A801F041FBF8E700B583B001F0AAF961
:20B54000019008F047F808F00FFA08F057FC012101A801F031FBF4E700B583B001F09AF9A8
:20B56000019004F075FF052101A801F025FBF8E700B583B001F08EF9019004F00DFB052100
:20B5800001A801F019FBF8E700B583B001F082F9019002F093F90A2101A801F00DFBF8E70F
:20B5A00000B583B001F076F9019004F0BBF90A2101A801F001FBF8E700B583B000230193CB
:20B5C00001330093002330220449054800F0DCFF012801D101F024F9FEE7C046FC4401088D
:20B5E0006DB300083022002809D10AE0C046013BDBB2002BFAD1013880B2002801D01300A9
:20B60000F4E77047022819D80D4A8D23DB00584310180C4B9C466044002303706346D35C8D
:20B62000DB070BD4084BD35CDB0707D4074BD35CDB0703D4137A7F210B4013727047C04616
:20B64000EC2F002062060000CA0A0000320F0000064B002206495A5406495A5406495A54C8
:20B660001A7A7F210A401A727047C046EC2F002062060000CA0A0000320F000010B500F096
:20B68000CBFB094B5B7A70221A4204D001221343054A537205E0044810221343437200F00E
:20B6A000BFFB00F0BBFB10BDEC2F0020024B00221A755A757047C046EC2F002070B5040034
:20B6C0000B4B1D7D00203B2D10D81E00587D40193C21FDF765FE881CC000301806300822FE
:20B6E000210008F09DFD01353575012070BDC046EC2F0020F0B557464E464546E0B484B0FF
:20B700000190484B1B7A7F2B00D884E0464E0023984600254246B146B379DB076FD5337953
:20B7200001998B426BD17388013B9BB27380002B65D13388738000248D23DB0053431F007C
:20B74000B2462B1902AA137000F066FBE000001BC000C019F930FF30324B9C466044031D1E
:20B76000443083422ED2E200121BD200D2196244FD32FF321168002924D002AA01321E79B2
:20B78000042E0AD10E7816700E68360A56704E889670C978D17004320BE0022E06D10E88F8
:20B7A00016700988090A5170023202E0097811700132083304A98A4204D2984202D019689C
:20B7C0000029DCD1174B5B7A70221A4207D002A8FFF774FF002809D100F020FB08E020224D
:20B7E0001343104A537202A800F01AFB00F016FB0134E4B253465B79A342A2D24E461435B6
:20B80000EDB201239C46E0448D23DB009C4666443C2D00D07EE704B01CBC90469946A24681
:20B82000F0BDC046EC2F00204836002010B500F053FB154B154AD35A0020002B22D0FF2B26
:20B8400005D8DBB2104A11498852104906E0013BFF3B0D4A0D498B520023F6E70A691478B2
:20B8600088882018888001320A61013BDBB2002BF4D1054B054AD35A0120002B02D1FFF740
:20B88000FDFE002010BDC046360F0000EC2F0020F8B504000378012B00D15CE2052B28D1AA
:20B8A00054E2D54B1B7ADB0604D4FFF7D1FE0022D14B5A72D0490B7A1022934320221343D7
:20B8C0000B72CD4BFF221A7000225A7061789970FE21D9709A80DA8035E2C74B1B7A9A0620
:20B8E00000D43DE22022934310221343C24A137236E2C14B1A7A930600D431E2BE4BFF21C3
:20B90000197000215970417899700578232D00D916E2AB00B949CB589F46B94B1A780023E6
:20B92000002A0FD114E020239A43B34B1A728378002B04D110231A43AF4B1A7203E2FFF773
:20B9400087FE00E2AE490133DBB2CA5C002AFAD1A94AD370002313719371433353714B3314
:20B96000D371A74BD360EEE18378002B06D14168C07800F095FAA04BD860E4E132229E4B0D
:20B980005A70E0E18178C31C4A1ED2B2002900D1D9E10432841898491A78C8680270CA688B
:20B9A0000132CA600133A342F6D1CCE1831C083491491A78C8680270CA680132CA600133F1
:20B9C0009C42F6D1BFE18278531EDBB2002A00D1B9E1181D884BC01803338749CA681278F3
:20B9E0001A700133CA680132CA609842F6D1AAE1C078616800F054FA7F4B1861A278531EC1
:20BA0000DBB2002A00D19EE1181D7B4BC018033379490A6912781A7001330A6901320A6188
:20BA20008342F6D18FE18078FFF7ECFDA278022A19D88D23DB005A43F932FF326E4BD218D5
:20BA4000131D70498C466244934204D20021197001339342FBD1684A117A02230B43137226
:20BA6000FFF724FE00E00025634AD570A37814214B43137167E18378022B05D8C178132993
:20BA800002D80279072A07D95B4B31225A700021C832FF32995056E1574CC800411A8D209E
:20BAA0004343CB189B183F33DB001B190433FC225200A35047E183785A1E012A01D9042B80
:20BAC00005D1FC235B004C4AD558002D03D13122494B5A7037E1E1790906A3791B04C91804
:20BAE00063791B02CB1821795918E07800F0D8F92860FC235B00404AD358A2781A7122E1E7
:20BB0000930703D422223C4B5A701CE18378012B08D0002B02D0022B41D07DE0C078FFF75D
:20BB200071FD10E1C678022E00D90CE105794379C17909028079411889B28D20C000704346
:20BB40002D4F3818CC27FF00BC4660440370002900D101318D23DB0073432748C3182A48E5
:20BB6000181801802949591801200880284959180D7028498C46634404211970E07802280F
:20BB800000D9E0E01C498D23DB004343CB1863440120187080235B421A430A72D3E0C5785A
:20BBA000022D00D9CFE000796379E2791202A1798A1892B28D21C90069430F4C6118CC2423
:20BBC000E400A44661440B70002A00D101328D23DB006B430849CB180B4959180A800B4A38
:20BBE0009A18012111800A4A9A181070094A9446634404221A70A6E0EC2F002014450108B3
:20BC0000000000206C0400005C0600005E06000061060000620600003122524B5A7092E0D3
:20BC2000930703D422224F4B5A708CE08378002B02D0012B03D019E0FFF70AFD83E000230C
:20BC4000484D0126484C4949591849190878042800D10E708D21C9008C466344A342F2D19C
:20BC600080235B421A433F4B1A726CE031223D4B5A7068E03B4B0222DA7000225A60DA68C6
:20BC80001A6183881B0442881A43002B02D03221344B5970334B36495A525B78002B52D176
:20BCA0005EE04379190603791B04CB18C27812029B18817859182B4BD86800F0FFF842E0C3
:20BCC0008278284D0330E96800F0FAF8A378EA6894466344EB60022835D141E0214D023065
:20BCE0000622E96800F0ECF8EB680633EB60022829D135E01B4BD86800F0DAF823E0194C17
:20BD00000023E37000F0CEF860601CE044239A4314490A728378442003401A430A72A27889
:20BD2000144BCA540FE00F4B124A9A5CDA7000221A7108E00B4B0222DA70013A1A7102E0A0
:20BD40003022084B5A70FFF799FC09E04388002B00D1B6E5C1E54388002B00D0BDE5A0E50B
:20BD6000F8BDC046EC2F0020380D000062060000360F0000340F000010B51F4A537A70210C
:20BD800018008843507201241C4007D071229343194A5372FFF772FC01242AE0164B1B7A8C
:20BDA0007F2B26D900F038F8134B1C7D002C1ED01C005A7A202313436372607D0230C0007C
:20BDC0000019063000F02CF8637D0133DBB23B2B02D8094A537502E00022074B5A75064A8F
:20BDE000137D013B137500F019F8012401E000F015F8200010BDC046EC2F0020044B054A1F
:20BE0000991800221A7001338B42FBD17047C046EC2F0020380F000072B6704762B670470B
:20BE200010B5184B08225A7200225A7300231549C25C0C69E2540133082BF9D1114B1B699A
:20BE40001B78132B03D8104A0E4B1A6011E01A00143A132A03D80D4A0A4B1A6009E0283B26
:20BE6000132B03D80A4A074B1A6002E0094A054B1A6001220349084804F056F90122074B13
:20BE80001A7010BD902F0020D1070000D2070000D3070000D40700000078004039010020F4
:20BEA00008007047014B18787047C0463A010020014B18707047C0463A0100207047C04626
:20BEC0000020704710B5FFF799FF0022014B1A7010BDC0463A0100207047C04610B50C4B39
:20BEE0001B78012B06D10022094B1A70094B1869FFF7CEFC72B6A023074AD258C0239B0231
:20BF00001A4201D1FFF738FF62B6FFF78FFC10BD38010020DC2E00200078004010B5124B03
:20BF200000E013001A688242FBD359685C18A04203D14068411859601800446801198A42AB
:20BF40000CD10A4A1268914206D04A68141944601A681268026002E0016000E0026098424D
:20BF600000D0186010BDC046480100204401002070B5040000F086FC3C4B1B68002B20D117
:20BF80003B4A530708D0D11D07239943A0239B01D3185B1A0A0001E0A0239B01354802600E
:20BFA00000214160D318083B072083432F48036059601960991A516013602F4B19602F4B54
:20BFC0001960002C4CD0072323401A0010239B1ADA43944244D8E318002B3DDD274A1668D3
:20BFE000B34239D8234A146801E022000C0061688B4202D921680029F7D11C4909688C42B4
:20C000002AD01568216811606268D21A102A08D9E018410701D072B6FEE742606360FFF765
:20C020007DFF6268B31A15490B60134909688B4201D211490B60083580231B061A436260D2
:20C04000002323600E4A13680133136000F016FD6B0708D072B6FEE700F010FD002502E062
:20C0600000F00CFD0025280070BDC046440100205401002048010020542900204001002006
:20C080003C01002010B5002823D00300083B5B68002B01DB72B6FEE70200083A1268002A5E
:20C0A00001D072B6FEE7083804005B005B08436000F0E8FB074A636811688C4663441360A9
:20C0C0002000FFF72BFF044A13680133136000F0D5FC10BD40010020500100200300083312
:20C0E0004360012252428260C3600361002303607047C046002303617047C04643684B60A0
:20C100009A688A609A68516099600861036801330360704730B50C6802000832631C02D17E
:20C12000026904E01A0053681D68AC42FAD253684B6099608A605160086103680133036037
:20C1400030BDC04603694268816891608268416851605A68904201D182685A600022026129
:20C160001A68013A1A6018687047C04682B000230193064B1B68013301D072B6FEE772B654
:20C18000019B002BFCD002B07047C046100000200B4A13681868203080F30988022080F334
:20C1A0001488BFF36F8F3FBCAE4608BC04BC62B61847C046C046C046C046C046C046C0461F
:20C1C000082A002010B5031F802464041C60043B1960043B02491960143B1A60403810BDD5
:20C1E0006DC1000880225205034B1A60BFF34F8FBFF36F8F7047C04604ED00E072B6044A04
:20C20000136801331360BFF34F8FBFF36F8F704710000020064B1B68002B01D172B6FEE7F7
:20C22000013B034A1360002B00D162B67047C04610000020EFF3108072B6704780F31088A5
:20C240007047C046000000000000000000000000EFF309800E4B1A6820381060F0C04446D9
:20C260004D4656465F46F0C008B572B600F030FD62B60CBC116808681030F0C8A046A946A2
:20C28000B246BB4680F309882038F0C81847C046082A002010B5FFF7CDFF040000F032FB32
:20C2A000002803D080225205024B1A602000FFF7C5FF10BD04ED00E070B5144D2C68FA2116
:20C2C00089002000FCF7FCFE0100114B18601148FCF7F6FE104B186021002000FCF7F0FEBE
:20C2E00001005E20FCF7ECFE0C4B18600C4C002323600C4A13602868FA218900FCF7E0FE47
:20C300000138094B18600723236070BD2000002058290020FFFFFF00602900205C29002012
:20C3200010E000E018E000E014E000E010B50C4B1A68FF2109040A431A601A68FF2109063E
:20C340000A431A60FFF7B8FF0022064B1A60FFF71FFF00F0BDFCFFF709FF002010BDC046CE
:20C3600020ED00E01000002070B504003F4B1D6872B6BFF34F8FBFF36F8F00F0F7FC0028F5
:20C3800001D162B670E00622394B1A60394B1968002901D1384B19682B00A54200D923002B
:20C3A000581E354A12684243521834490968490106D58024A40431490C602F490968521A85
:20C3C0002F4909688A4200D9521A2E490A60002428490C60264C2568012129432160002B48
:20C3E00004D0BFF34F8F30BFBFF36F8F62B6BFF34F8FBFF36F8F72B6BFF34F8FBFF36F8F7A
:20C400001B4906240C600968C90310D51A4B1968184B1B68CB18013B9A1A194B1B689A429E
:20C4200001D9914200D24A1E164B1A600EE0114A1468114A15686B431C1B29002000FCF77C
:20C440003FFE431C5D432C1B0E4B1C600022094B1A600732064B1A60074B1B68013B094A2C
:20C46000136000F01DFA62B670BDC0466029002010E000E018E000E05829002004ED00E034
:20C480005C29002014E000E0094B1A68094B1B68DB6A0020002B0AD1074B1B68012B06D82C
:20C4A000002A04D1054B1B68054A1068181A7047602A0020082A00208C2900200C2A0020D3
:20C4C000142A0020084B1B681B68002B04D101225242064B1A6005E0034B1B68DB681A68A8
:20C4E000024B1A607047C046682900200C2A002070B504000D001E4B1E681E4B186804306F
:20C50000FFF720FE631C16D1002D14D01A4A5168184B1868816018688C68C4608C681868A3
:20C52000043060601868043088601B685A611368013313601AE034190E4B1B685C60A64244
:20C5400007D90E4B18680B4B19680431FFF7E2FD0CE00B4B1868074B19680431FFF7DAFDAA
:20C56000084B1B689C4201D2064B1C6070BDC046142A0020082A00204C2A0020182A00208C
:20C58000682900200C2A0020F0B5474680B482B000900E00019395002800FFF7E9FC041E10
:20C5A00000D1C7E05820FFF7E3FC071E0ED05822002107F073FE3C632A00A521200007F00A
:20C5C0006DFE3B6B9846002E04D11EE02000FFF759FDAFE00022B2563423FA540023F35635
:20C5E000002B0FD0731C3A00353239003E3100201856107000201856002803D0013301325B
:20C600008A42F4D100223D23FA54089B042B01D972B6FEE7089E042E00D90426FE62BE64A3
:20C620003C1D2000FFF766FD38001830FFF762FD3F6105239B1BBB617F62281F40440723E3
:20C640009843019A0099FFF7BDFD3860099B002B00D01F60FFF7D2FD394A136801331360FB
:20C66000384B1B68002B23D1364B1F601368012B2AD1354D2E0064362800FFF72FFD143516
:20C68000AE42F9D1314E3000FFF728FD304D2800FFF724FD2F48FFF721FD2F48FFF71EFD47
:20C6A0002E48FFF71BFD2E4B1E602E4B1D600BE02D4B1B68002B07D1224B1B68DB6AFA6A87
:20C6C000934201D81F4B1F60284A1368013313603B64FB6A264A1268934201D9244A1360B1
:20C6E00019499A00D3189B00CB185B68BB609A68FA609A6854609C60FB6A9800C218920080
:20C700008A187A61C218920052580132C3189B005A50FFF77FFD144B1B680120002B0BD0B8
:20C72000084B1B68DA6AFB6A9A4205D2FFF75AFD012001E00120404202B004BC9046F0BDE0
:20C74000342A0020082A00208C29002074290020382A00201C2A0020F02900204C2A0020C0
:20C7600068290020182A00206C290020302A0020602A002070B50400FFF740FD002C01D173
:20C78000204B1C68251D2800FFF7DCFCA36A002B03D020001830FFF7D5FC1B4A1368013324
:20C7A0001360184B1B689C4208D129001748FFF7A5FC174A13680133136005E0154A136808
:20C7C000013B1360FFF77EFEFFF724FD0D4B1B689C4205D0206BFFF755FC2000FFF752FC5D
:20C7E0000D4B1B68002B0BD0064B1B689C4207D10A4B1B68002B01D072B6FEE7FFF7F2FC09
:20C8000070BDC046082A0020302A0020F0290020042A0020342A00206C29002070290020A6
:20C8200000B583B0104B0193002300938022D2000E490F48FFF7A8FE01280DD172B601225B
:20C8400052420C4B1A6002320B4B1A6000220B4B1A60FFF76BFD03E0431C01D172B6FEE7FE
:20C86000074B1B6803B000BD102A0020A445010835CC00080C2A00206C290020142A0020B5
:20C8800014000020024A1368013313607047C04670290020014B18687047C046142A002099
:20C8A00010B50400134B1B68134A12681B18934201D972B6FEE70F4B1B680F4A1268C3187D
:20C8C000934212D10D4B1B68002B01D172B6FEE7002801D172B6FEE7FFF790FC084A136865
:20C8E00001331360FFF796FC013C024A1368E418146010BD142A00200C2A0020702900205B
:20C9000088290020F0B5474680B4514B1B68002B00D094E04F4B1C6801341C60002C12D174
:20C920004D4B1B681B68002B01D072B6FEE74A4A11684A4B186810601960494A1368013303
:20C940001360FFF7BFFD474B1B6800209C4265D30020414B9846002643461B681B68002BFD
:20C9600004D1012252423F4B1A6057E03A4B1B68DB68DB685A68944202D23A4B1A604DE0CA
:20C980005A699968DF688F60D9689F684F60191D57688F4201D1DF6857605E611768013F92
:20C9A00017609A6A002A10D0DF691D6ABD601F6ADD697D601F0018375568BD4201D11D6AD7
:20C9C00055609E621768013F1760DA6A264D2F68BA4200D92A609700BA189200234DAC4662
:20C9E000624452689A609568DD60976879609160DA6A9700B9188900654661445961B918CA
:20CA0000890049590131BA1892005151184A1168DA6ACB6A9A429FD901209DE7144B1B6884
:20CA2000DB6A9A00D3189B00104A9B58012B00D90120104B1B68002B06D0012004E00E4AE2
:20CA4000136801331360002004BC9046F0BDC04670290020142A002068290020182A002021
:20CA6000642900200C2A0020602A00208C290020082A0020642A002088290020F8B5464B25
:20CA80001B68002B01D172B6FEE7FFF7B7FB424B1A68013A1A601B680024002B77D13F4BF9
:20CAA0001A680023002A4ED171E0F368DB689C6ADA691D6A95601A6ADD6955601A001832F1
:20CAC0006568954201D11A6A626098622268013A22605D699A68DC689460DA689C6854605F
:20CAE0001C1D6A68A24201D1DA686A6058612A68013A2A60DA6A2A4D2D68AA4201D9284DCE
:20CB00002A609500AA1892008A1852689A609568DD6095686C609460DA6A9500AC18A40014
:20CB20000C195C61AC18A40064580134AA18920054501C4A1268D26ADC6A944207D301228D
:20CB4000194C226003E0194F3E00002018493A68002AAAD1002B01D0FFF7B4FC154B1C6817
:20CB6000002C0CD0104E0125FFF7CCFE002800D03560013C002CF7D100220E4B1A600A4B61
:20CB80001B680024002B02D0FFF72CFB0134FFF741FB2000F8BDC04670290020342A00205B
:20CBA000602A0020082A0020642A00201C2A00208C2900208829002070B505000C00002861
:20CBC00001D172B6FEE7002901D172B6FEE7174B1B68002B01D072B6FEE7FFF753FE144BDA
:20CBE00018682A68A318904208D29A4219D99842A44164422B60984209D204E09A420DD8A4
:20CC000098420BD30DE0181A0021FFF771FCFFF735FF002808D1FFF7E5FA05E02B60012424
:20CC2000F1E72B600024F2E7200070BD70290020142A0020F0B5474680B41F4B98461F4F14
:20CC40001F4E43461B68002B18D01B4DFFF7D6FAFB68DC68201DFFF775FA3368013B336067
:20CC60002B68013B2B60FFF7D5FA206BFFF70AFA2000FFF707FA2B68002BE7D1114B1B68A4
:20CC8000012B01D9FFF7AEFAFFF7FEFB0128D8D9FFF7F8FD0C4B1A680C4B1B689A4201D2DA
:20CCA00072B6FEE7FFF7F0FB012801D9FFF75CFBFFF7E4FEC5E7C046042A0020F029002025
:20CCC000342A00208C2900200C2A0020142A002010B5214B1B68002B03D001221F4B1A6094
:20CCE00038E000221D4B1A601D4B1B689A00D21892001C495258002A0DD1002B02D003E020
:20CD0000002B01D172B6FEE7013B9A00D21892005258002AF4D0134C9A00D118890061183B
:20CD2000486840684860D21892000832A218904205D141689A00D2189200A21851609A0017
:20CD4000D218920007498A185268D168064A1160034A136010BDC04670290020642A0020B7
:20CD6000602A00208C290020082A00200B4B1B680020002B11D10A4B1B68002B0DD1094BA7
:20CD80001B68002B09D1084B1B68084A10680138181A431E98410223181A70471C2A002052
:20CDA000642A0020882900204C2A0020342A002010B5084C00220821200004F0EFFF002258
:20CDC0000721200004F0EAFF01220721200005F04BF810BD3000082010B5124C01220821F7
:20CDE000200005F041F801220821200004F0C6FF01220721200004F0C1FF0420FEF7F2FB9B
:20CE000000220821200004F0B9FF0420FEF7EAFB00220721200004F0B1FF0420FEF7E2FBF9
:20CE200010BDC0463000082010B50E4C01220821200005F019F800220821200004F09EFF3A
:20CE40000420FEF7CFFB01220721200004F096FF0420FEF7C7FB01220821200004F08EFF33
:20CE600010BDC04630000820F8B5050001220821164804F0F9FF08248027144E2F4205D0C4
:20CE800001220821300004F079FF04E000220821300004F073FF6D00ADB20420FEF7A2FB63
:20CEA00001220721300004F069FF0420FEF79AFB00220721300004F061FF0420FEF792FB79
:20CEC000013CE4B2002CD9D1F8BDC0463000082070B5184C00220821200004F0C5FF0122C7
:20CEE0000821200004F04AFF0420FEF77BFB01220721200004F042FF0420FEF773FBFB24D7
:20CF00000C4D06E0013CE4B2002C02D1FFF78CFF0EE00821280004F03BFF0028F2D1002205
:20CF20000721044804F02AFF0420FEF75BFB0124200070BD3000082010B5124C01220821B8
:20CF4000200004F091FF00220821200004F016FF0420FEF747FB01220721200004F00EFFF2
:20CF60000420FEF73FFB00220721200004F006FF0420FEF737FB01220821200004F0FEFE54
:20CF800010BDC0463000082010B50F4C01220821200004F069FF01220821200004F0EEFE32
:20CFA0000420FEF71FFB01220721200004F0E6FE0420FEF717FB00220721200004F0DEFE96
:20CFC0000420FEF70FFB10BD30000820F8B507001A4C00220821200004F046FF01220821FF
:20CFE000200004F0CBFE08260024144D01220721280004F0C3FE0420FEF7F4FA6400E4B278
:20D000000821280004F0C4FE002801D00134E4B200220721280004F0B1FE0420FEF7E2FA3B
:20D02000013EF6B2002EE1D1002F02D1FFF7ACFF01E0FFF781FF2000F8BDC04630000820FC
:20D0400070B504000D001600821880235B0000209A4238DC002935D0FFF7BEFEA020FFF746
:20D0600003FFFFF735FF002828D0A0B2FFF7FCFEFFF72EFF002821D0FFF7AEFEA120FFF78D
:20D08000F3FEFFF725FF002818D0B31E9BB2012E0AD02C000133ED182E000120FFF796FF0F
:20D0A00020700134B442F8D10020FFF78FFF2870FFF76AFFFFF7B8FE012004E0FFF7B4FEF8
:20D0C000002000E0002070BDF0B557464E464546E0B492468418802252000023944249DC88
:20D0E000002946D083B299465346002B35D00F000025FF2398464B465E19B6B2002D01D072
:20D1000073071ED1FFF790FEFA208000FEF76AFA0024FFF761FEA020FFF7A6FEFFF7D8FE90
:20D12000002804D10134A4B2642CF2D11DE0642C1BD040463040FFF797FEFFF7C9FE002836
:20D1400013D03878FFF790FEFFF7C2FE00280CD00135ADB20137AA45CDD1FFF765FEFA2031
:20D160008000FEF73FFA012304E0FFF75DFE012300E0002318001CBC90469946A246F0BD47
:20D18000002103E00F4B5B58435004310E480F4B42189A42F6D30E4A03E00023136004230F
:20D1A0001A440C4B9A42F8D300F048F90A480B4901800B48094901800A480B490180FEF779
:20D1C000B9F870477047010800000020DC000020DC0000201841002014000820FFFF00005C
:20D1E0004400082074000820FF030000FEE7000082B00022019201380A4B58609A600532E2
:20D200001A601900802252020B680193019B1342FAD0044B1A6801218A431A6000229A606D
:20D2200002B0704710E000E000B583B000226B46DA71002005F052FE012005F05BFE0128B2
:20D2400005D104F0EDFB01226B46DA7105E0002004F0E6FB00226B46DA71002004F0CAFB2C
:20D26000012005F079FE01280CD1002004F0E4FB082004F0EDFB602004F0FAFB012004F0A6
:20D28000B1FB0BE06B4607331B78012B03D1022004F0A8FB02E0002004F0A4FB03B000BDBB
:20D2A0000B4B0C4A1A600C4A1A600C4B0C4A1A60802189020B4A11608022520019680A439D
:20D2C0001A60094A80231B0611680B4313607047002000401178AC006745230114200040F3
:20D2E000312000004020004004200040F8B50A4B1B6843431F001D0E08D000248026760468
:20D300003000FFF775FF0134A542F9D13802000AFFF76EFFF8BDC046682A002010B584B080
:20D320000F226A44002313700E2169440B700D2169440B7003A90B700B2169440B700A2115
:20D3400069440B70092169440B7001938020C005036803242340137003689B059B0F0133F9
:20D360000B701378DBB2012B08D0002B02D0022B4AD04CE02C4A2D4B1A6048E08021C905A7
:20D380000B68DB02DB0F0B226A4413700B689B069B0F013303A8037025480B589B0F254CFA
:20D3A000E35CDBB20A246C4423700B589B00DB0E5B000E246C4423700B58DB0BDBB20D2175
:20D3C00069440B701378002B03D0174A174B1A6002E0154A154B1A600D236B4418780A23A8
:20D3E0006B441978C9B2114C23685843FBF768FE019001980E236B44197803AB1B7859431F
:20D40000FBF75EFE206002E0074A084B1A6009236B441978C9B2054B1868FBF751FE064BF5
:20D42000186004B010BDC04600127A0020000020908800001C0000202400002010B5074B72
:20D44000074A9A60074A084B1A60FFF729FFFFF7EBFE012004F0D8FA10BDC04600ED00E0DF
:20D4600000900008006CDC022000002003789A07D20F50005A07D20F92008218D807C00F21
:20D4800010181A07D20FD2008018DA06D20F120180189A06D20F520180185A06D20F92014C
:20D4A0008018DB09DB01C018C0B27047F0B5474680B407000D0014001122002106F0EEFE4F
:20D4C0000022194B1A70012C02D0022C14D027E0164C26001036144B98462000FFF7C6FF3E
:20D4E0002840854204D143461B780133424613700134B442F1D113E00C4E01240A4B98463B
:20D500003000FFF7B3FF284205D043461B785A1C41460A70FC540134E4B20136112CEFD112
:20D52000380004BC9046F0BDD82E0020392F0020F8B5040000220F4B1A701132002106F0B1
:20D54000ADFE0123002000270B4E0125D9B29A00B218D278D20703D57A1CE155D7B22800CF
:20D560000133112BF2D1002801D0024B1F702000F8BDC046342F002000B001088000034BBE
:20D580001818C078C007C00FC0B2704700B0010870B583004F4CE318DB78DB0750D54E4B7A
:20D5A0001B78012B4CD1012A00D084E00C781C43E4B202232343DCB220232343EF2423407F
:20D5C000AF3CA343082423430B70444B1B78002B09D0984214D00123404D1E00DC002C5D55
:20D5E000002C08D100E00026F6003C4BF05401243B4B1C7004E0A04202D00133042BECD170
:20D60000384B187034E00124374B1C70374B1B5CDB070DD5324B1C700023304D0026EC5CE4
:20D62000844202D12D4C1C1926700833202BF6D12E4C235C0825AB43073DAB43235417E00C
:20D64000254B1B78002B13D10124274B1C70274D2B5C0826B343A3431F34A3431E3CA34317
:20D6600010242343DBB2402423437F2423402B548000184B1818C3789B07DB0F012B0FD14E
:20D68000154B1B78012B23D1012A1FD10B78813A13430B701CE00B787F2213400B7017E068
:20D6A000002B15D10C4B1B78012B11D10B787F2213400B700CE0002AA5D08000054B1818E4
:20D6C000C3789B07DB0F012BEAD1DDE7002AE2D070BDC04600B00108C42E00200C2E0020A4
:20D6E000E82F0020BC2E0020B82E0020382F0020037808229343043A9343033A93431F3269
:20D7000093431E3A934310221343DBB2402213437F2213400370704770B5154C250010352A
:20D720002000FFF7E5FF0134AC42F9D1AB22114B1A700023104A1370104A1370104A137095
:20D74000104A002050709070D3700F4A137001220E49D830FFF774FC20220D49DB20FFF7FF
:20D760006FFC04220B49FB20FFF76AFC70BDC046392F0020BA2E0020D82E0020E82F00202D
:20D78000B82E0020BC2E0020AC2E0020C42E00200C2E0020082E002010B5012811D00028C6
:20D7A00004D0022818D0032821D02AE008221549DB20FFF789FC01221349FB20FFF784FC4F
:20D7C0001FE008221149E320FFF77EFC01221049FC20FFF779FC14E008220E49EB20FFF7DA
:20D7E00073FC01220C49FD20FFF76EFC09E008220A49F320FFF768FC01220949FE20FFF769
:20D8000063FC10BD0C2E0020082E0020142E0020092E00201C2E00200A2E0020242E00203F
:20D820000B2E0020F0B5474680B41E4E0024B04600251D4FE200424455709570F5703570D6
:20D84000137908218B4304398B4303398B431F318B431E398B4310210B43DBB240210B4332
:20D860007F210B401371E3191D70E0B2FFF794FF01340836042CDDD10C4A002300205070EB
:20D880009070D3700A4A13700A4A13700A4C250010352000FFF72CFF0134AC42F9D104BCE9
:20D8A0009046F0BD0C2E0020082E0020BC2E0020AC2E0020F02E0020392F0020F8B55F4619
:20D8C00056464D464446F0B4534B1B78012B5CD1524B1B78012B72D100224F4B1A70504DDF
:20D8E00018260024A94619234B449A464D4B9846E7B2287800281DD0830042469A5C93468E
:20D9000043445A789446E100454A521859465170614691709A78EA70434A1055DB789B079F
:20D9200002D50122414B1A7001224049FF20FFF7CBFB21E0290008313200280006F070FC31
:20D940000023002251460A704A704A46D3761376137F08229343043A9343033A93431F324B
:20D9600093431E3A934310221343DBB2402213437F2213404A4613773800FFF70DFF013459
:20D980000835083E33000833B2D1294B1B78002B15D0224A1278012A11D122499A00545C44
:20D9A0008A18507822494C7088709078C87021490B70D3789B0702D501221C4B1A701E4B78
:20D9C0001B78012B21D100221B4B1A700121012314481A4C8A008218D278D20702D5625CA0
:20D9E000D20705D40133DBB20131112BF2D101E0112B0AD10E4A00231370002050709070AD
:20DA0000D3700C4A1370094A13703CBC90469946A246AB46F8BDC046E82F0020C42E00208A
:20DA20000C2E002000B00108082E0020F02E0020BC2E0020AC2E0020B82E0020382F0020AE
:20DA4000084A0023137013715370537193709371D370054A1370054A1370054A1370054AB4
:20DA600013707047B02E0020B92E0020D92E0020B72E0020D42F002010B502F0B1FE10BDE5
:20DA800000B585B010220021684606F007FC064B009301236A465371044B02936946044847
:20DAA00005F024FB05B000BD7FA9030079DA00080011014070B582B001266B46DE716B46D9
:20DAC0009D1D00249C71002002F058FB002002F05BFB1E4B1C701E4B1C701E4B1C70FFF7B9
:20DAE000CFFF03221C4B1A701C4B1E7001321C4B1A701C4B1C701C4B1C7067321B49002026
:20DB0000FFF79EFA01221A49D720FFF799FA01221849D520FFF794FA01221749D620FFF705
:20DB20008FFA01222900D820FFF78AFA01280AD16B4606331B78012B05D001226B46D91D52
:20DB4000D730FFF7C1FA02B070BDC0464C3F0020543F0020403F0020253F00204D3F0020FB
:20DB6000303F0020762A00202C3F0020782A00202F3F0020243F00202D3F002000B585B082
:20DB800010220021684606F089FB074B009301236A4653711373054B02936946044805F032
:20DBA000A5FA05B000BDC0467FA9030079DA00080011014000B585B010220021684606F095
:20DBC0006DFB064B009301236A465371044B02936946044805F08AFA05B000BD7FA903006C
:20DBE00079DA00080011014072B6BFF34F8F034A034BDA60BFF34F8FC046FDE70400FA056E
:20DC000000ED00E070B506003E2849D102F014FB040002F015FB0578427812022A438378D2
:20DC20001B0413431A00C3781B06134301220271002242717E321A700578427812022A4346
:20DC400083781B0413431A00C3781B0613430279467936021643721C92B20271120A4271A9
:20DC60002578617809022943A27812040A431100E27812060A4352787F210A409A5520782F
:20DC8000627812020243A3781B0413431A00E3781B0613435B787F2B4BD8FFF76FFF48E0A9
:20DCA00002F0C2FA040002F0C3FA0578427812022A4383781B0413431A00C3781B0613430F
:20DCC000012202710022427140361E700578427812022A4383781B0413431A00C3781B0637
:20DCE00013430279467936021643721C92B20271120A42712578617809022943A2781204D2
:20DD00000A431100E27812060A4352787F210A409A552078627812020243A3781B041343E8
:20DD20001A00E3781B0613435B787F2B01D8FFF725FF70BD70B506000D003E2851D102F0A8
:20DD40007BFA040002F07CFA067842781202324383781B0413431A00C3781B0613430122C2
:20DD60000271002242717F321A70067842781202324383781B0413431A00C3781B06134323
:20DD800002794179090211434A1C92B20271120A42713E225A540678427812023243837839
:20DDA0001B0413431A00C3781B06134302794179090211434A1C92B20271120A42715D54F1
:20DDC0002078627812020243A3781B0413431A00E3781B0613435B787F2B41D8FFF7CEFEA4
:20DDE0003EE002F025FA047842781202224383781B0413431A00C3781B0613430122027173
:20DE0000002242717F321A70047842781202224383781B0413431A00C3781B06134302798C
:20DE20004179090211434A1C92B20271120A42715E54047842781202224383781B0413430C
:20DE40001A00C3781B06134302794179090211434A1C92B20271120A42715D54FFF78EFE43
:20DE600070BDC046F8B502F0DFF9040002F0E0F90578427812022A4383781B0413431A00E7
:20DE8000C3781B061343012202710022427150321A700578427812022A4383781B04134331
:20DEA0001A00C3781B061343027947793F0217437A1C92B20271120A427126786178090222
:20DEC0003143A27812040A431100E27812060A4352787F210A40DA550578427812022A43E6
:20DEE00083781B0413431A00C3781B06134302794179090211434A1C92B20271120A427166
:20DF000000225A540578427812022A4383781B0413431A00C3781B061343027941790902FD
:20DF200011434A1C92B20271120A427132225A540578427812022A4383781B0413431A005D
:20DF4000C3781B06134302794179090211434A1C92B20271120A427102225A540578427886
:20DF600012022A4383781B0413431A00C3781B06134302794179090211434A1C92B2027133
:20DF8000120A4271BC225A542078627812020243A3781B0413431A00E3781B0613435B780C
:20DFA0007F2B01D8FFF7EAFDF8BDC046F8B505000E0017001C0002F037F902F039F9037892
:20DFC000427812021A4383781B0413431A00C3781B061343012202710022427140351D706D
:20DFE0000578427812022A4383781B0413431A00C3781B06134302794179090211434A1C33
:20E0000092B20271120A4271320A5A540578427812022A4383781B0413431A00C3781B06F2
:20E02000134302794179090211434A1C92B20271120A42715E541A235F43134BDF19FB7CAC
:20E04000002B1DD02600013BDBB20133E3180578417809022943827812040A431100C27835
:20E0600012060A430179447924020C43611C89B20171090A41713178115501369E42E6D1C3
:20E08000FFF77CFDF8BDC0460C460108F8B5060002F0CAF8040002F0CBF805784278120290
:20E0A0002A4383781B0413431A00C3781B061343012202710022427140361E700578427811
:20E0C00012022A4383781B0413431A00C3781B061343027947793F0217437A1C92B2027160
:20E0E000120A42712678617809023143A27812040A431100E27812060A435278DA55057898
:20E10000427812022A4383781B0413431A00C3781B0613430279467936021643721C92B2EB
:20E120000271120A42712578617809022943A27812040A431100E27812060A4392789A556A
:20E14000FFF71CFDF8BDC046F8B5050002F06CF8060002F06DF804784278120222438378E6
:20E160001B0413431A00C3781B061343012202710022427140351D70047842781202224342
:20E1800083781B0413431A00C3781B061343027947793F0217437A1C92B20271120A427151
:20E1A0003578717809022943B27812040A431100F27812060A4352787F210A40DA559E4B19
:20E1C0001B78012B58D1047842781202224383781B0413431A00C3781B0613430279417937
:20E1E000090211434A1C92B20271120A42712D225A54047842781202224383781B041343B8
:20E200001A00C3781B06134302794179090211434A1C92B20271120A4271CF225A54047897
:20E2200042781202224383781B0413431A00C3781B06134302794179090211434A1C92B231
:20E240000271120A427146225A54047842781202224383781B0413431A00C3781B0613437B
:20E2600002794179090211434A1C92B20271120A427129225A54DCE0704B1B78012B0ED110
:20E280003478727812022243B3781B0413431A00F3781B0613439B78012B66D10FE0032B40
:20E2A00063D13478727812022243B3781B0413431A00F3781B0613439B78032B55D104789C
:20E2C00042781202224383781B0413431A00C3781B06134302794179090211434A1C92B291
:20E2E00000250271120A42715D54047842781202224383781B0413431A00C3781B0613431B
:20E3000002794179090211434A1C92B20271120A42715D54047842781202224383781B0403
:20E3200013431A00C3781B06134302794179090211434A1C92B20271120A42715D5404780E
:20E3400042781202224383781B0413431A00C3781B06134302794179090211434A1C92B210
:20E360000271120A42715D5463E0047842781202224383781B0413431A00C3781B0613437C
:20E3800002794179090211434A1C92B20271120A42712B4D1C2252422C6862405A54047853
:20E3A00042781202224383781B0413431A00C3781B06134302794179090211434A1C92B2B0
:20E3C0000271120A4271732252422C6862405A54047842781202224383781B0413431A00B5
:20E3E000C3781B06134302794179090211434A1C92B20271120A427119222C6862405A54CC
:20E40000047842781202224383781B0413431A00C3781B06134302794179090211434A1C17
:20E4200092B20271120A42712A681E20404242405A54FFF7A3FBF8BD18000020303F0020C4
:20E44000A82F002070B501F0EFFE050001F0F0FE29786B781B020B431A00AC782404230066
:20E460001343EC7824061C43057843781B022B431A00817809040B001343C1780906194371
:20E480008A781206CB781B04D2184B79D218097909025218D30912041A435200264B5340CC
:20E4A00058011B0BA2781106E27812048A186179521821790902521803439A4206D1092223
:20E4C0001E4B1A7000221E4B1A7034E01D4B1B78022B27D91A4B1B78002B09D10B22174B6C
:20E4E0001A700A3A164B1A700332174B1A7022E0164B1B88002B0ED10022124B1A700132F6
:20E500000F4B1A70124A114B1A8004230B4A13700D4A13700FE00C22084B1A70083A0A4B5B
:20E520001A7008E00133074A13700A22034B1A70063A054B1A7070BD82FD3E7D6D2A002025
:20E540002C3F00206F2A0020303F00202800002060EAFFFFF0B583B001F066FE040001F036
:20E5600067FE6C4A6C4B1A80BB226B46DA71227963791B021343022B07D00522674B1A7005
:20E5800013211020FFF7D6FBC2E02578627812022A43A3781B0413431A00E3781B0613433A
:20E5A0005B787F221340022B19D0DAB2022A02D8012B05D044E0032B28D0042B33D03FE050
:20E5C0000123564A1370564A13700422554B1A700022554B1A701020FFF744FC98E04F4BBD
:20E5E0001B78032B05D1013B4C4A13704C4A137035E0022B33D00722484B1A70063A484BB8
:20E600001A7022211020FFF795FB81E00323434A1370434A1370454B1A78434B1A70102066
:20E62000FFF720FC74E004233C4A13703C4A13703E4B1A783C4B1A701020FFF713FC67E093
:20E640000622364B1A70053A354B1A7012211020FFF770FB5CE0FCF761FCFFF7C5FA334BBB
:20E660001A78314B1A700122314B1A700578427812022A4383781B0413431A00C3781B063B
:20E68000134301220271002242717F321A700578427812022A4383781B0413431A00C37801
:20E6A0001B061343027947793F0217437A1C92B20271120A42712678617809023143A278E1
:20E6C00012040A431100E27812060A431278DA55047842781202224383781B0413431A0015
:20E6E000C3781B06134302794179090211434A1C92B20271120A427178225A5402F070F846
:20E7000001226B46D91DD720FEF7DEFC0128A2D003B0F0BD10270000702A00206C2A0020C7
:20E720004D3F0020303F00204B3F00202E3F0020403F0020F8B501F077FD040001F078FD4C
:20E740006F4B1B88002B09D06E4A6D4B1A80227963791B021343022B13D00DE001236A4A8F
:20E7600013700421694A1170694A1370227963791B021343022B09D013211120FFF7DAFA68
:20E78000BCE0614B1B78023B012B04D97E211120FFF7D0FAB2E05D4B1B7802229343012BD5
:20E7A00004D033211120FFF7C5FAA7E02578627812022A43A3781B0413431A00E3781B06A6
:20E7C00013435B787F221340DAB2052A00D991E09B00504AD3589F464B4D01262E700778F6
:20E7E000427812023A4383781B0413431A00C3781B061343012202710022427151321A701A
:20E800000778427812023A4383781B0413431A00C3781B0613430179427912020A43944682
:20E82000013292B20271120A42712778617809023943A27812040A431100E27812060A43D3
:20E8400052787F210A4061465A54FFF797F92D48FCF7C8FE2E70FFF7C7F901222A4B1A7085
:20E860004CE0294D01262E700778427812023A4383781B0413431A00C3781B061343012208
:20E8800002710022427151321A700778427812023A4383781B0413431A00C3781B0613431D
:20E8A0000179427912020A439446013292B20271120A42712778617809023943A278120400
:20E8C0000A431100E27812060A4352787F210A4061465A54FFF752F90A48FCF783FE2E706D
:20E8E000FFF782F90122084B1A7007E00122064B1A7003E012211020FFF71CFAF8BDC046B5
:20E90000702A0020102700006C2A0020303F00204D3F0020AC45010870B501F085FC040080
:20E9200001F086FC05002F4B1B88002B09D02E4A2C4B1A80227963791B021343042B13D0B9
:20E940000DE00123294A13700421294A1170294A1370227963791B021343042B0FD0132175
:20E960001420FFF7E7F93CE0204B1B7802229343012B04D022211420FFF7DCF931E020788E
:20E98000627812020243A3781B0413431A00E3781B0613435A7811049A7812028A18DB78C6
:20E9A000D218154B9A4218D1FEF73CFF0122134B1A7028786A7812020243AB781B0413439A
:20E9C0001A00EB781B06134301222A7100226A7154321A70FFF7D2F803E031211420FFF759
:20E9E000A9F970BD702A0020102700006C2A0020303F00204D3F0020FFFFFF00762A0020A9
:20EA0000F0B55F4656464D464446F0B48DB001F00BFC050001F00CFC0400CF4B1B88002B30
:20EA200003D0CE4ACC4B1A8007E00123CC4A13700421CC4A1170CC4A13702A796B791B029D
:20EA40001343023B9BB2012B04D913211920FFF771F95DE228786A7812020243AB781B04A4
:20EA600013431A00EB781B06134399785B78022B00D191E00A2B00D180E1012B00D043E271
:20EA800001226846FEF712FD2078627812020243A3781B0413431A00E3781B061343012237
:20EAA00022710022627159321A702078627812020243A3781B0413431A00E3781B06134372
:20EAC000227967793F0217437A1C92B22271120A62712E78697809023143AA7812040A4339
:20EAE0001100EA7812060A435278DA552078627812020243A3781B0413431A00E3781B0654
:20EB0000134322796179090211434A1C92B22271120A6271954A12785A5420786278120202
:20EB20000243A3781B0413431A00E3781B06134322796179090211434A1C92B22271120AE7
:20EB4000627101225A542078627812020243A3781B0413431A00E3781B0613432279617955
:20EB6000090211434A1C92B22271120A6271804A12785A5428786A7812020243AB781B04EB
:20EB800013431A00EB781B0613435B787F2B00D9BEE1FEF7F3FFBBE1022207A8FEF786FC69
:20EBA0002078627812020243A3781B0413431A00E3781B06134301222271002262715932D8
:20EBC0001A702078627812020243A3781B0413431A00E3781B061343227967793F0217434E
:20EBE0007A1C92B22271120A62712E78697809023143AA7812040A431100EA7812060A4356
:20EC00005278DA552078627812020243A3781B0413431A00E3781B06134322796179090234
:20EC200011434A1C92B22271120A62714F4A12785A544F4B1B78002B7BD000264D4F4E4B85
:20EC400099464B4B98462078627812020243A3781B0413431A00E3781B06134321796279A5
:20EC600012020A439246013292B22271120A627107AA925D934692009446D25D6246B918D5
:20EC80004A7850461A542378627812021A43A3781B041A43E3781B06134322799246627911
:20ECA00012025046104382460200013292B22271120A62716246D25D487850461A5423785E
:20ECC000627812021A43A3781B041A43E3781B061343227994466279120260461043020021
:20ECE000013292B22271120A62718A781A542378627812021A43A3781B0413431A00E378C0
:20ED00001B06134322796179090211434A1C92B22271120A62719A468A4458464844FEF7AF
:20ED2000A5FB534618700136F6B243461B78B34289D828786A7812020243AB781B0413434E
:20ED40001A00EB781B0613435B787F2B00D9DFE0FEF714FFDCE0C046702A002010270000EF
:20ED60006C2A0020303F00204D3F0020BA2E0020D82E002000B00108382F002007A8FEF790
:20ED8000D7FB2078627812020243A3781B0413431A00E3781B0613430122227100226271AF
:20EDA00059321A702078627812020243A3781B0413431A00E3781B061343227967793F023B
:20EDC00017437A1C92B22271120A62712E78697809023143AA7812040A431100EA78120667
:20EDE0000A435278DA552078627812020243A3781B0413431A00E3781B0613432279617911
:20EE0000090211434A1C92B22271120A6271444A12785A54434B1B78002B72D00025424E5E
:20EE2000424B98463F4B9A462078627812020243A3781B0413431A00E3781B06134321791C
:20EE4000627912020A431700013292B22271120A627107AA505D82009446925D6246B1184C
:20EE60004A78DA552378627812021A43A3781B041A43E3781B0613439946277962791202E4
:20EE800017437A1C92B22271120A62716246925D4B784B46DA552378627812021A43A378A1
:20EEA0001B041A43E3781B061343227967793F0217437A1C92B22271120A62718A78DA5561
:20EEC0002378627812021A43A3781B0413431A00E3781B06134322796179090211434A1C96
:20EEE00092B22271120A6271994689444044FEF7BDFA4B4618700135EDB253461B78AB4269
:20EF000092D8FEF73BFE03E012211920FEF712FF0DB03CBC90469946A246AB46F0BDC0460E
:20EF2000BA2E0020342F002000B00108382F0020F8B501F079F9040001F07AF90122884B98
:20EF40001A70884B1B88002B03D0874A854B1A8007E00123854A13700421854A1170854AD7
:20EF60001370227963791B021343032B04D013212220FEF7DFFEF1E020786278120202433E
:20EF8000A3781B0413431A00E3781B061343597809029B78591889B2774B1F78002F2AD0D8
:20EFA000764B1A785B781B021343994200D1C6E00120724D1A239C4618E00600013063468F
:20EFC00073435C5DEB185B781B02234399420DD11A235E43694B9E19B378002B09D0022B0B
:20EFE00007D031212220FEF7A5FEB7E0C2B2BA42E3D3BA4205D131212220FEF79BFEADE0D0
:20F00000002216001A2757435C4BDF19FD783B791B022B4318007C79240423000343BC79B7
:20F0200024061C4317D02378002B0FD051480578AB4209D0002301E0A84205D00133DBB25B
:20F04000E05C0028F8D101E0002D04D131212220FEF770FE82E01A277743484BDF19FD794B
:20F060003B7A1B022B4318007C7A240423000343BC7A24061C4317D02378002B0FD03C48E2
:20F080000578AB4209D0002301E0A84205D00133DBB2E05C0028F8D101E0002D04D1332145
:20F0A0002220FEF747FE59E0354B994223D11A2373433248C3189B78002B0ED11A335E43F9
:20F0C0008619B57DF07D00022843337E1B0403431800737E1B06034309E01A2046432748E4
:20F0E0008619347D737D1B02234326481B1808241B48047029E01A2373432048C3189B7857
:20F10000002B0ED11A335E438619B57DF07D00022843337E1B0403431800737E1B060343C6
:20F1200009E01A20464315488619347D737D1B02234314481B1808240948047005E00F4B44
:20F140009B78002B00D15BE703E02220FEF72EFF04E00022022B00D153E742E7F8BDC046F5
:20F160006E2A0020702A0020102700006C2A0020303F00204D3F0020770000200C46010803
:20F1800087F10000782A002010B501F04DF8040001F04EF8614B1B88002B09D0604A5F4B58
:20F1A0001A80227963791B021343022B10D118E001235C4A137004215B4A11705B4A137005
:20F1C000227963791B021343022B00D0A0E00DE0062B06D01122564B1A700D3A524B1A7008
:20F1E00091E0504B1B78023B012B06D90E22504B1A700A3A4C4B1A7062E0207862781202A6
:20F200000243A3781B0413431A00E3781B0613435B787F221340012B02D0022B1DD040E02E
:20F22000444B1B78012B0ED1434B1B78022B0AD9424B1B88002B06D00B223D4B1A70073ABF
:20F24000394B1A7046E001223D4B1A700132384B1A700232344B1A702EE0394B1B78002B78
:20F2600006D10D22324B1A70093A2F4B1A7040E02F4C062323702720FFF7E4F82378092BFB
:20F2800006D10122284B1A7000222D4B1A700FE000212B4A1170112B3ED89B00294AD358C2
:20F2A0009F461022224B1A700C3A1F4B1A700CE02720FEF7A7FC2FE02720FEF745FF2BE0A1
:20F2C0007F212720FEF736FD26E012212720FEF731FD21E036212720FEF72CFD1CE035216D
:20F2E0002720FEF727FD17E037212720FEF722FD12E024212720FEF71DFD0DE02221272000
:20F30000FEF718FD08E013212720FEF713FD03E0062B00D05EE769E710BDC046702A002075
:20F32000102700006C2A0020303F00204D3F00206D2A00202C3F00206F2A00202800002062
:20F34000732A0020C445010810B582B000F06CFF040000F06DFF00226B46DA7101236A463A
:20F360009371614A1370614B1B88002B09D0604A5E4B1A80227963791B021343022B0ED91D
:20F3800015E001235B4A137004215B4A11705B4A1370227963791B021343022B0BD803229A
:20F3A000514B1A7013212820FEF7C4FC9AE0514B1B78032B07D004224B4B1A707E2128201B
:20F3C000FEF7B8FC8EE02078627812020243A3781B0413431A00E3781B0613435A787F215D
:20F3E0000A40012A1DD0002A04D0022A30D0032A45D05BE09B78012B0FD106223A4B1A70AE
:20F4000000F056FE00F078FE01226B46991DD920FDF75AFE012865D150E00222324B1A70B9
:20F420005CE09B78012B0FD107222F4B1A7000F063FE00F043FE01226B46D91DD920FDF70B
:20F4400043FE01284ED13DE00222274B1A7045E09B78012B0FD10822234B1A7000F034FE5E
:20F4600000F026FE01226B46991DD920FDF72CFE012837D12AE002221B4B1A702EE09B7867
:20F48000012B0FD10922184B1A7000F01DFE00F015FE01226B46D91DD920FDF715FE012847
:20F4A00020D117E00222104B1A7017E005220E4B1A7012212820FEF73DFC13E02820FEF781
:20F4C000A1FB0FE02820FEF79DFB0BE02820FEF799FB07E02820FEF795FB03E031212820DF
:20F4E000FEF728FC02B010BD742A0020702A0020102700006C2A0020303F00204D3F0020D4
:20F50000F0B54F464646C0B483B000F08DFE040000F08EFE2078627812020243A3781B047E
:20F5200013431A00E3781B061343587800029B78181880B200282ED100226B465A716B46CC
:20F54000991DFF230B706A46D3710122D530FDF7BBFD012800D06AE101226B46D91DD5307D
:20F56000FDF7B2FD012800D061E101226B46591DD730FDF7A9FD012800D058E101226B46BC
:20F58000591DD830FDF7A0FD002800D14FE12E20FEF77CFD4BE101282FD101226B465A7183
:20F5A0006B46991DAA230B70CB326B46DA71CB3AD430FDF789FD012800D038E101226B463A
:20F5C000D91DD530FDF780FD012800D02FE101226B46591DD730FDF777FD012800D026E1FD
:20F5E00001226B46591DD830FDF76EFD012800D01DE12D30FEF74AFD19E103282ED1002284
:20F600006B465A716B46991DFF230B706A46D3710122D230FDF758FD012800D007E1012204
:20F620006B46D91DD530FDF74FFD012800D0FEE001226B46591DD730FDF746FD012800D086
:20F64000F5E001226B46591DD830FDF73DFD002800D1ECE02E20FEF719FDE8E0764B1B880B
:20F66000002B03D0754A744B1A8007E00123744A13700421734A1170734A1370227963790E
:20F680001B0213439946032B11D9704B1B789C46002B2ED06E4B1A785B781B02134398423C
:20F6A00000D1BCE001226A4E1A2398461CE013212E20FEF73FFBBAE01700013243467B430F
:20F6C000995DF3185B781B020B4398420CD11A235F435F4BDF19BB78013B012B07D93121E6
:20F6E0002E20FEF727FBA2E0D5B26545E4D3654504D131212E20FEF71DFB98E02F001A232B
:20F700006B43534AD318DA7CD31C994504D013212E20FEF70FFB8AE01A235D434C4B5D19E7
:20F72000EE7A2B7B1B0233431900687B000403000B43A87B0006184318D00378002B10D0E5
:20F7400041490D78AB4209D0002301E0A94206D00133DBB2C15C0029F8D102E00023002D0D
:20F7600005D131212E20FEF7E5FA60E000231A257D4337494D19EE7B297C09023143080062
:20F78000697C083509040143AD7A2D060D4317D0297800290FD02B480678B14209D00021DE
:20F7A00001E0B04205D00131C9B2685C0028F8D101E0002E04D133212E20FEF7BBFA36E0F9
:20F7C0001A214B432249CB18187D10335B791B02034320499C468C44002A13D0002126781C
:20F7E000607800023043A3781B0403431800E3781B060343CB18DB78604643540131CBB240
:20F800009A42ECD892B21A235F43114BDF19387D6146FDF759FC2E20FEF738FC07E00C4B77
:20F820009B78013B0025012B00D867E757E703B00CBC90469946F0BD702A002010270000F6
:20F840006C2A0020303F00204D3F0020770000200C460108782A002010B500F0EDFC040061
:20F8600000F0EEFC294B1B88002B09D0284A274B1A80227963791B021343022B0ED115E02A
:20F880000123244A13700421234A1170234A1370227963791B021343022B0BD00222204BCF
:20F8A0001A7013213E20FEF745FA2DE0194B1B78012B07D106221A4B1A707E213E20FEF7E7
:20F8C00039FA21E02078627812020243A3781B0413431A00E3781B0613435B78002B09D0D6
:20F8E000802B0ED003220E4B1A7012213E20FEF721FA09E004220A4B1A703E20FEF782F91A
:20F9000002E00122064B1A7010BDC046702A0020102700006C2A0020303F00204D3F002052
