:100000002852FF1FED8A00003D8B00003D8B000051
:100010003D8B00003D8B00003D8B00000000000088
:10002000000000000000000000000000219200001D
:100030003D8B000000000000319300009993000008
:10004000A5400000B5400000C5400000D5400000BC
:10005000E5400000F54000000541000015410000AA
:100060002541000035410000454100005541000098
:100070006541000075410000854100009541000088
:10008000E5350000F53500000536000015360000A6
:10009000253600001914000035140000511400002A
:1000A0006D14000000000000000000003D21000071
:1000B0004D2100005D210000000000003D8B00008C
:1000C00000000000693E0000158A0000258A00003B
:1000D000358A0000458A0000558A0000658A0000C4
:1000E000758A0000858A0000000000000000000002
:1000F0000000000000000000293300003933000038
:100100003D8B00003D8B0000DD8A00002D080000C3
:10011000C93D00003D8B000005200000D91F0000F4
:100120003D8B00003D8B00003D8B00003D8B0000AF
:100130003D8B00003D8B00003D8B00003D8B00009F
:100140003D8B00003D8B00003D8B00003D8B00008F
:100150003D8B00003D8B00003D8B00003D8B00007F
:100160003D8B00003D8B00003D8B00000000000037
:10017000000000000000000000000000000000007F
:10018000000000003D2F00001D340000451C000051
:10019000551C0000651C0000751C00006543000034
:1001A0002D3D0000213D0000393D0000C51C000030
:0401B000D51C00005A
:1001C00053B94AB9002908BF00281CBF4FF0FF31BE
:1001D0004FF0FF3000F07EB9ADF1080C6DE904CEB0
:1001E00000F006F8DDF804E0DDE9022304B0704712
:1001F0002DE9F0478C460E460446089D002B50D151
:100200008A4217466CD9B2FA82FEBEF1000F0BD0BB
:10021000CEF1200420FA04F401FA0EF644EA060CAA
:1002200002FA0EF700FA0EF44FEA1749220CBCFB53
:10023000F9F01FFA87F809FB10C642EA064600FBF0
:1002400008F3B34209D9F61900F1FF3280F0228198
:10025000B34240F21F8102383E44F61AA2B2B6FB06
:10026000F9F309FB136642EA064403FB08F8A045CC
:1002700009D9E41903F1FF3280F00A81A04540F268
:100280000781023B3C44C8EB040443EA00400021E0
:10029000002D62D024FA0EF400232C606B60BDE8C0
:1002A000F0878B4207D9002D55D0002185E8410009
:1002B0000846BDE8F087B3FA83F1002940F090804A
:1002C000B34202D3824200F2F880841A66EB03063E
:1002D0000120B446002D40D085E81010BDE8F0871D
:1002E00012B90127B7FBF2F7B7FA87FEBEF1000F8C
:1002F00035D1F31B4FEA17481FFA87FC0121B3FBE6
:10030000F8F0220C08FB103642EA06460CFB00F31C
:10031000B34207D9F61900F1FF3202D2B34200F21C
:10032000CE801046F61AA2B2B6FBF8F308FB1366AD
:1003300042EA06440CFB03FCA44507D9E41903F187
:10034000FF3202D2A44500F2B5801346CCEB040480
:1003500043EA00409CE729462846BDE8F087CEF1F5
:10036000200106FA0EF307FA0EF720FA01F94FEA18
:100370001748CE4049EA0309B6FBF8FA4FEA194498
:1003800008FB1A661FFA87FC44EA06430AFB0CF2D4
:100390009A4200FA0EF40AD9DB190AF1FF3180F013
:1003A00087809A4240F28480AAF1020A3B449B1A59
:1003B0001FFA89F9B3FBF8F108FB113349EA03434B
:1003C00001FB0CF69E4207D9DB1901F1FF326BD21B
:1003D0009E4269D902393B449B1B41EA0A418EE7A0
:1003E000C1F1200E22FA0EF48B40234320FA0EF7BF
:1003F00006FA01F44FEA134C26FA0EF63C43B6FB1C
:10040000FCF9270C0CFB19661FFA83F847EA06462D
:1004100009FB08F7B74202FA01F200FA01FA08D91B
:10042000F61809F1FF3041D2B7423FD9A9F10209CC
:100430001E44F61BA0B2B6FBFCF40CFB146640EAAB
:10044000064704FB08F8B84507D9FF1804F1FF3048
:1004500028D2B84526D9023C1F4444EA0940C8EBDB
:100460000707A0FB02894F4544464E4614D329D0C6
:1004700065B3BAEB040367EB060707FA0EFECB4041
:10048000CF404EEA030385E888000021BDE8F087ED
:100490001346F8E61046E0E6B8EB020469EB030603
:1004A0000138E5E70446D8E7114695E78146C0E7FD
:1004B0008A467CE7023B3C4448E708460AE70238A4
:1004C0003E442FE7C245E7D33E46D1E72946BDE883
:1004D000F08700BF704700BF844641EA000313F075
:1004E00003036DD1403A41D351F8043B40F8043B3B
:1004F00051F8043B40F8043B51F8043B40F8043BFE
:1005000051F8043B40F8043B51F8043B40F8043BED
:1005100051F8043B40F8043B51F8043B40F8043BDD
:1005200051F8043B40F8043B51F8043B40F8043BCD
:1005300051F8043B40F8043B51F8043B40F8043BBD
:1005400051F8043B40F8043B51F8043B40F8043BAD
:1005500051F8043B40F8043B51F8043B40F8043B9D
:1005600051F8043B40F8043B403ABDD2303211D33D
:1005700051F8043B40F8043B51F8043B40F8043B7D
:1005800051F8043B40F8043B51F8043B40F8043B6D
:10059000103AEDD20C3205D351F8043B40F8043B3D
:1005A000043AF9D2043208D0D2071CBF11F8013B3B
:1005B00000F8013B01D30B8803806046704700BF01
:1005C000082A13D38B078DD010F003038AD0C3F110
:1005D0000403D21ADB071CBF11F8013B00F8013BF2
:1005E00080D331F8023B20F8023B7BE7043AD9D3B1
:1005F000013A11F8013B00F8013BF9D20B78037086
:100600004B7843708B7883706046704780B500AF3D
:1006100008F01EFB0AF0D4FD0AF06EFF0EF0B4FAEB
:100620000EF0E8FB0BF0B6F90FF078F908F070FB6C
:10063000FEE700BF80B483B000AF0023FB71084B1E
:100640005B68C3F308033B603B68002B01D00123C8
:10065000FB71FB7918460C37BD465DF8047B70478B
:1006600000ED00E02DE9B04F00AF09F0A3FE034616
:1006700018464FF0000102460B464FEA830B4BEA47
:10068000927B4FEA820A52465B465D0145EAD2659B
:100690005401A41A65EB0305241845EB01054FEA44
:1006A000C50949EA54794FEAC40844464D462046F4
:1006B000294642F210724FF00003FFF781FD034616
:1006C0000C461846BDE8B08F80B586B000AF7860A4
:1006D00000237B617B681B683B61FFF7ABFF034630
:1006E000FB73FB7B002B17D00023BB6007F10803D3
:1006F0001946386909F04EF878617B69012B12D1EF
:10070000BB68002B0FD00E4B4FF080521A60BFF326
:100710004F8FBFF36F8F06E000230022002138695E
:1007200008F072FF78617B69012B14BF012300235D
:10073000DBB2BB81BB8918461837BD4680BD00BF00
:1007400004ED00E080B584B000AF78600B46FB702C
:100750000023FB81FB781946FF2008F035FF024695
:100760007B681A607B681B68002B01D10123FB8129
:10077000FB8918461037BD4680BD00BF80B584B0E8
:1007800000AF78607B681B68FB60F86809F010F9BF
:10079000002318461037BD4680BD00BF80B483B02B
:1007A00000AF78607B685B6843F040027B685A600A
:1007B00000BF0C37BD465DF8047B704780B483B042
:1007C00000AF78607B68074A9A607B689B687B68AB
:1007D000054A9A607B689B6800BF0C37BD465DF890
:1007E000047B704787D964E078848A8680B584B0BA
:1007F00000AF0346FB710B4BFB60F868FFF7DEFFB1
:10080000F868FFF7CBFFFB79074A52F82330002B3B
:1008100004D0FB79044A52F82330984700BF1037C0
:10082000BD4680BD00B000401802FF1F80B500AF7C
:100830000020FFF7DBFF00BF80BD00BF80B483B0A6
:1008400000AF78600B46FB707B681B6923F00102E8
:10085000FB78002B01D0012300E000231A437B68C2
:100860001A6100BF7B681B6903F00103002B14BFF2
:1008700001230023DBB21A46FB789A42F2D100BF73
:100880000C37BD465DF8047B704700BF80B483B071
:1008900000AF78600B46FB707B681B6C23F0020294
:1008A000FB78002B01D0022300E000231A437B6871
:1008B0001A6400BF0C37BD465DF8047B704700BF6B
:1008C00080B483B000AF78600B46FB707B681B6C14
:1008D00023F00102FB78002B01D0012300E000236C
:1008E0001A437B681A6400BF0C37BD465DF8047B71
:1008F000704700BF80B483B000AF78600B46FB70D8
:10090000FA787B681A6000BF0C37BD465DF8047B3F
:10091000704700BF80B483B000AF786039607B68F7
:100920001B68DAB23B681A7000BF0C37BD465DF831
:10093000047B704780B485B000AF78609E23FB6075
:100940007B68FA681A6200BF1437BD465DF8047B05
:10095000704700BF80B584B000AF7860404A7B68C4
:1009600052F82330FB603F4A7B6852F82330BB606B
:10097000786800F061F94FF44031F86800F054FCF9
:100980000346002B0AD04FF48031F86800F0A2FC37
:100990000346002B02D0786800F074F83249F868FA
:1009A00000F042FC0346002B09D03049F86800F003
:1009B00091FC0346002B02D0786800F0AFF82C4978
:1009C000F86800F031FC0346002B09D02949F8688B
:1009D00000F080FC0346002B02D0786800F002F99A
:1009E0002549F86800F020FC0346002B15D0234968
:1009F000F86800F06FFC0346002B0ED01F49F86822
:100A000000F09AFCBB689B69002B06D0BB689B6911
:100A1000BA68D2690421B86898471949F86800F0A3
:100A200003FC0346002B17D04FF40031F86800F0A8
:100A300051FC0346002B0FD04FF40031F86800F052
:100A40007BFCBB689B69002B06D0BB689B69BA68BE
:100A5000D2690521B868984700BF1037BD4680BDF0
:100A600014FB00001C02FF1F010003000500010031
:100A7000020003000600010002000400080002005A
:100A80000400060080B584B000AF7860224A7B681D
:100A900052F82330FB60786800F062FAFB681B7D37
:100AA000022B0AD0FB685B685A1CFB685A60FB6823
:100AB000DB685A1EFB68DA6009E0FB685B689A1C19
:100AC000FB685A60FB68DB689A1EFB68DA60FB68AB
:100AD000DB68002B0AD1FB689B69002B06D0FB6802
:100AE0009B69FA68D2690021F8689847FB68DB685F
:100AF000002B0DD1786800F0B1F9FB689B69002BE1
:100B000006D0FB689B69FA68D2690221F8689847A9
:100B100000BF1037BD4680BD1C02FF1F80B584B0EA
:100B200000AF78602B4A7B6852F82330FB602A4A7A
:100B30007B6852F82330BB60FB689B68002B45D074
:100B4000786800F0CFF9FB681B7D022B13D0FB689F
:100B50009B68012B04D101222049B86800F0ECFA0F
:100B6000FB681B685A1CFB681A60FB689B685A1E6E
:100B7000FB689A6012E0FB689B68022B04D101229B
:100B80001649B86800F0D8FAFB681B689A1CFB6825
:100B90001A60FB689B689A1EFB689A60FB689B68FA
:100BA000002B13D1FB681B6A002B06D0FB681B6A65
:100BB000FA68526A0121F8689847FB689B68002B25
:100BC00004D100220649B86800F0B6FA00BF103719
:100BD000BD4680BD1C02FF1F14FB00000200030085
:100BE0000100030080B584B000AF7860114A7B68D3
:100BF00052F82330FB60FB689B68002B16D1FB6822
:100C000093F82830012B03D1786800F0EDF802E06A
:100C1000786800F0E1F9FB681B6A002B06D0FB68DE
:100C20001B6AFA68526A0221F868984700BF1037B9
:100C3000BD4680BD1C02FF1F80B584B000AF786048
:100C4000634A7B6852F82330FB60624A7B6852F843
:100C50002330BB604FF00111B86800F03BFB034646
:100C6000002B1DD0FB6840F20162DA86FB6893F826
:100C70002830012B03D1786800F0F0F802E07868A2
:100C800000F0E6F9FB689B69002B06D0FB689B69C6
:100C9000FA68D2690321F8689847B868FFF74AFEF6
:100CA0004D49B86800F016FB0346002B1DD0FB68C9
:100CB00040F20462DA86FB6893F82830012B03D1F6
:100CC000786800F0CBF802E0786800F0C1F9FB68C2
:100CD0009B69002B06D0FB689B69FA68D2690321E7
:100CE000F8689847B868FFF725FE3C49B86800F0F7
:100CF000F1FA0346002B1DD0FB6840F20362DA864E
:100D0000FB6893F82830012B03D1786800F0A6F82F
:100D100002E0786800F09CF9FB689B69002B06D024
:100D2000FB689B69FA68D2690321F8689847B8683C
:100D3000FFF700FE2A49B86800F0CCFA0346002B02
:100D40001DD0FB6840F20562DA86FB6893F8283014
:100D5000012B03D1786800F081F802E0786800F098
:100D600077F9FB689B69002B06D0FB689B69FA68E2
:100D7000D2690321F8689847B868FFF7DBFD194985
:100D8000B86800F0A7FA0346002B1DD0FB6840F2BC
:100D90000662DA86FB6893F82830012B03D1786865
:100DA00000F05CF802E0786800F052F9FB689B699B
:100DB000002B06D0FB689B69FA68D2690321F868AA
:100DC0009847B868FFF7B6FD00BF1037BD4680BD35
:100DD0001C02FF1F14FB00000200010003000100C1
:100DE000040001000700010080B584B000AF786006
:100DF000164A7B6852F82330FB60154A7B6852F82C
:100E00002330BB60BB689B8E9BB2022B03D1BB68B7
:100E100000229A8604E000220E49F86800F08CF95E
:100E200000220D49F86800F087F9BB6800221A74A7
:100E3000BB689B7CDBB2002B04D0BB683033184608
:100E4000FFF742FC00BF1037BD4680BD14FB000019
:100E50001C02FF1F010003000200030080B586B0E2
:100E600000AF78600023FB731C4A7B6852F8233084
:100E70007B611B4A7B6852F823303B610021386953
:100E8000FFF7DCFC0021386900F09CFA07F10F0342
:100E900019463869FFF73EFD00224FF440313869AA
:100EA00000F04AF97B69DB7CDBB2002B07D07B6961
:100EB0002C331846FFF708FC7B690022DA747B6943
:100EC00000225A747B69DB8E9BB2022B02D17B69B4
:100ED0000022DA8600BF1837BD4680BD1C02FF1F06
:100EE00014FB000080B586B000AF78601A4A7B68BA
:100EF00052F823307B61194A7B6852F823303B61FA
:100F00000023FB817B691B68BB607B691B7D002B19
:100F100003D07B691B7D012B06D1BB681B7819466A
:100F20003869FFF7E7FC12E0BB681B78FB81BB6800
:100F30000133BB60BB681B789BB21B029AB2FB8972
:100F40001343FB81FB891946386900F0CFF800BFD5
:100F50001837BD4680BD00BF1C02FF1F14FB0000F8
:100F600080B586B000AF7860194A7B6852F82330AC
:100F70007B61184A7B6852F823303B6100237B81F8
:100F80007B695B68FB607B691B7D002B03D07B6901
:100F90001B7D012B04D1F9683869FFF7BBFC12E017
:100FA00007F10A031946386900F0B2F87B89DAB212
:100FB000FB681A70FB680133FB607B891B0A9BB2DC
:100FC000DAB2FB681A7000BF1837BD4680BD00BF9B
:100FD0001C02FF1F14FB000080B584B000AF7860D6
:100FE000184A7B6852F82330FB60174A7B6852F836
:100FF0002330BB600021F868FFF748FCBB6893F81A
:101000002A30184603F024F800221049F86800F04E
:1010100093F8BB689B7CDBB2002B04D0BB683033F9
:101020001846FFF751FBBB689B8E9BB2022B02D187
:10103000BB6800229A86BB6800221A7400BF103772
:10104000BD4680BD14FB00001C02FF1F0200030010
:1010500080B586B000AF7860224A7B6852F82330B2
:101060007B61214A7B6852F823303B610023FB738C
:1010700000217869FFF7E2FB0021786900F0A2F90E
:1010800000217869FFF71CFC07F10F031946786906
:10109000FFF740FC07F10F0319467869FFF73AFCA8
:1010A0003B6993F82930184602F0D2FF3B69DB7C9C
:1010B000DBB2002B07D03B692C331846FFF704FB4B
:1010C0003B690022DA743B69DB8E9BB2022B02D1B2
:1010D0003B690022DA863B6900225A7400BF183748
:1010E000BD4680BD14FB00001C02FF1F80B483B00E
:1010F00000AF78600B467B807B88C3F308027B6877
:101100001A6000BF0C37BD465DF8047B704700BF16
:1011100080B483B000AF786039607B681B689BB295
:10112000C3F308039AB23B681A8000BF0C37BD4670
:101130005DF8047B704700BF80B487B000AFF860F3
:10114000B9601346FB71BB681B0C7B61BB689BB22B
:101150003B617B69033B032B5ED801A252F823F06D
:10116000711100009B110000C5110000EF1100007B
:10117000FB68DA6901213B6901FA03F3DB431A409A
:10118000FB79002B01D0012100E000213B6901FA2D
:1011900003F31A43FB68DA613FE0FB689A6C0121B4
:1011A0003B6901FA03F3DB431A40FB79002B01D0C2
:1011B000012100E000213B6901FA03F31A43FB68B7
:1011C0009A642AE0FB68DA6D01213B6901FA03F3B6
:1011D000DB431A40FB79002B01D0012100E0002104
:1011E0003B6901FA03F31A43FB68DA6515E0FB6813
:1011F0009A6D01213B6901FA03F3DB431A40FB7945
:10120000002B01D0012100E000213B6901FA03F32A
:101210001A43FB689A6500E000BF00BF1C37BD465B
:101220005DF8047B704700BF80B485B000AF786084
:1012300039603B681B0CBB600023FB73BB68033B3E
:10124000032B3FD801A252F823F000BF5D1200002B
:101250007712000091120000AB1200007B68DB697E
:101260003A6892B2D34003F00103002B14BF01236C
:101270000023FB7327E07B689B6C3A6892B2D340F3
:1012800003F00103002B14BF01230023FB731AE0BA
:101290007B68DB6D3A6892B2D34003F00103002B08
:1012A00014BF01230023FB730DE07B689B6D3A683C
:1012B00092B2D34003F00103002B14BF012300239B
:1012C000FB7300E000BFFB7B18461437BD465DF89A
:1012D000047B704780B485B000AF786039603B68AC
:1012E0001B0CBB600023FB73BB68012B02D0022BDD
:1012F0000DD019E07B681B6A3A6892B2D34003F0C4
:101300000103002B14BF01230023FB730CE07B6857
:101310005B6A3A6892B2D34003F00103002B14BF1A
:1013200001230023FB7300BFFB7B18461437BD4627
:101330005DF8047B704700BF80B485B000AF786073
:1013400039600023FB813B681B0CBB603B681A4A79
:10135000934206D8194A93420ED2B3F5803F0BD080
:101360000DE0174A934207D0154A934207D3A3F5DD
:101370000033053B022B02D80123FB8114E0BB683C
:10138000012B08D13B689BB21A46012303FA02F2F3
:101390007B681A6207E03B689BB21A46012303FA96
:1013A00002F27B685A6200BFFB8918461437BD46BB
:1013B0005DF8047B704700BF0600010005000100D6
:1013C0000800010080B582B000AF78600B46FB706A
:1013D000FB781A460D497868FFF7AEFEFB781A468F
:1013E0004FF003117868FFF7A7FEFB781A4608490B
:1013F0007868FFF7A1FEFB781A4606497868FFF780
:101400009BFE00BF0837BD4680BD00BF060003003D
:10141000050003000400030080B500AF044B1B6807
:10142000002B03D0024B1B680020984700BF80BDF3
:101430000000FF1F80B500AF044B5B68002B03D09A
:10144000024B5B680120984700BF80BD0000FF1F72
:1014500080B500AF044B9B68002B03D0024B9B6808
:101460000220984700BF80BD0000FF1F80B500AF7D
:10147000044BDB68002B03D0024BDB68032098474A
:1014800000BF80BD0000FF1F80B483B000AF0346E3
:10149000FB7197F90730002B0BDB094997F90730EF
:1014A0005B09FA7902F01F02012000FA02F241F80A
:1014B000232000BF0C37BD465DF8047B704700BF9A
:1014C00000E100E080B483B000AF0346FB7197F900
:1014D0000730002B10DB0B4997F907305B09FA79CD
:1014E00002F01F02012000FA02F2203341F823200B
:1014F000BFF34F8FBFF36F8F00BF0C37BD465DF852
:10150000047B704700E100E080B483B000AF7860F6
:101510007B681B6843F001027B681A6000BF0C37D0
:10152000BD465DF8047B704780B483B000AF78603F
:101530007B681B6823F001027B681A6000BF0C37D0
:10154000BD465DF8047B704780B483B000AF78601F
:1015500039607B68DA683B681A437B68DA6000BFF1
:101560000C37BD465DF8047B704700BF80B483B084
:1015700000AF786039607B68DA683B68DB431A400B
:101580007B68DA6000BF0C37BD465DF8047B7047AE
:1015900080B483B000AF786039607B683A681A60C5
:1015A00000BF0C37BD465DF8047B704780B483B044
:1015B00000AF786039607B683A685A6000BF0C37CA
:1015C000BD465DF8047B704780B483B000AF78609F
:1015D00039607B689A683B681A437B689A6000BFF1
:1015E0000C37BD465DF8047B704700BF80B483B004
:1015F00000AF786039607B689A683B68DB431A40CB
:101600007B689A6000BF0C37BD465DF8047B70476D
:1016100080B483B000AF786039607B685A683B68FB
:10162000134018460C37BD465DF8047B704700BF79
:1016300080B483B000AF786039607B683A685A60E4
:1016400000BF0C37BD465DF8047B704780B483B0A3
:1016500000AF78600B46FB707B689B6823F030021C
:10166000FB781B011A437B689A6000BF0C37BD46AC
:101670005DF8047B704700BF80B485B000AF786030
:101680007B689B6803F030031B09BB60BB68032BBE
:1016900016D801A252F823F0A9160000AF160000D8
:1016A000B5160000BB1600000023FB730BE00123FE
:1016B000FB7308E00223FB7305E00323FB7302E0E6
:1016C0000023FB7300BFFB7B18461437BD465DF853
:1016D000047B704780B483B000AF78600B46FB702A
:1016E0007B689B6823F00C02FB789B001A437B68A5
:1016F0009A6000BF0C37BD465DF8047B704700BFA1
:1017000080B483B000AF786039607B689B6823F455
:1017100070423B681B031A437B689A6000BF0C371A
:10172000BD465DF8047B704780B483B000AF78603D
:101730000B46FB707B689B6823F48032FB781B04AC
:101740001A437B689A6000BF0C37BD465DF8047B86
:10175000704700BF80B483B000AF78600B46FB7069
:101760007B689B6823F48062FB789B021A437B684A
:101770009A6000BF0C37BD465DF8047B704700BF20
:1017800080B483B000AF78600B46FB707B689B68C9
:1017900023F40072FB785B021A437B689A6000BFF7
:1017A0000C37BD465DF8047B704700BF80B483B042
:1017B00000AF78600B46FB707B689B6823F48072F7
:1017C000FB781B021A437B689A6000BF0C37BD464A
:1017D0005DF8047B704700BF80B483B000AF7860D1
:1017E0000B46FB707B689B6823F00102FB781A4371
:1017F0007B689A6000BF0C37BD465DF8047B70477C
:1018000080B483B000AF78600B46FB707B681B68C8
:1018100023F00202FB785B001A437B681A6000BF6A
:101820000C37BD465DF8047B704700BF80B584B0BF
:1018300000AF03460A46FB711346BB714FF481703B
:10184000FB799B000D4A1344194604F011FB034633
:10185000FB8101214D2003F059FD01214D2003F0B2
:10186000C7FD0748FFF750FEBB7919460448FFF74C
:10187000C7FF00BF1037BD4680BD00BF2C02FF1F51
:101880000010014080B582B000AF0346FB710748ED
:10189000FFF74AFE00214D2003F0AAFD00214D2054
:1018A00003F034FD00BF0837BD4680BD0010014085
:1018B00080B586B000AF0346B9607A60FB73494AD1
:1018C000BB6852F823303B610023FB82BB68002BCE
:1018D00006D17B68DB7C002B02D00123FB827BE0FE
:1018E0007B68DB7C19463869FFF776FF7B681B78DD
:1018F00019463869FFF7AAFE7B681B78022B04D1D2
:1019000000213869FFF7E6FE05E07B685B7A19463F
:101910003869FFF7DFFE7B685B78012B09D17B68B4
:101920005A68FB7BB968184600F086F80346FB82CC
:1019300006E07B685A68FB7BB968184600F00EF930
:10194000FB8A002B48D17B681B7A19463869FFF760
:10195000EBFE7B68DB6819463869FFF7D1FE7B68D0
:101960001B7C19463869FFF7F5FE7B685B7C1946DE
:101970003869FFF705FF7B689B7C19463869FFF7DC
:1019800015FF7B689B691946B86800F013F97B68FE
:101990001B7D002B10D00122BB6802FA03F319460D
:1019A0001148FFF711FE114ABB68134493F9003048
:1019B0001846FFF769FD0FE00122BB6802FA03F346
:1019C00019460948FFF712FE084ABB68134493F909
:1019D00000301846FFF776FDFB8A18461837BD46DB
:1019E00080BD00BF1000FF1F0010014024FB00005D
:1019F00080B584B000AF03463960FB71044BFB60D7
:101A00003968F868FFF7A0FD00BF1037BD4680BDFC
:101A10000010014080B584B000AF03463960FB710F
:101A2000044BFB603968F868FFF7A0FD00BF103772
:101A3000BD4680BD00100140F0B58BB000AF03463D
:101A4000B9607A60FB73414ABB6852F823307B610E
:101A50000023FB844FF48170FB7B9B003C4A1344C2
:101A6000194604F005FA03467B827B6818464FF05E
:101A70000001FB7B364A52F823301A464FF0000330
:101A800002FB01FE00FB03F67644A0FB0223F118E3
:101A90000B46C7E90623C7E90623D7E906012D4A05
:101AA0004FF00003FEF78CFB02460B4612F1FF32AB
:101AB00043F1FF33C7E906237869FFF7DDFD0346ED
:101AC0007B74D7E90623012B08BF002A2FD27B7C29
:101AD000012B2ED1D7E906231F484FF00001994270
:101AE00008BF904202D20123FB8422E0D7E90623FB
:101AF0004FF6FF704FF00001994208BF904218D294
:101B0000D7E90623B2F5803243F1FF331D0445EADD
:101B1000124514044FF6FF724FF0000344EA02002E
:101B200045EA030103460C46C7E9063401E00123F8
:101B3000FB84FB8C002B04D1BB6919467869FFF745
:101B400027FDFB8C18462C37BD46F0BD1000FF1F4B
:101B50002C02FF1F40420F00FEFF010080B586B03F
:101B600000AF0346B9607A60FB73064ABB6852F85F
:101B700023307B6179687869FFF70AFD00BF183769
:101B8000BD4680BD1000FF1F80B586B000AF034684
:101B9000B9607A60FB73064ABB6852F823307B61F8
:101BA00079687869FFF702FD00BF1837BD4680BD30
:101BB0001000FF1F80B483B000AF78603960054922
:101BC0007B683A6841F8232000BF0C37BD465DF8BA
:101BD000047B70473002FF1F80B584B000AF78608F
:101BE0000023FB6001227B6802FA03F319461248C6
:101BF000FFF70EFDF860FB68002B18D001227B6810
:101C000002FA03F319460C48FFF712FD0B4A7B68F2
:101C100052F82330002B0AD0084A7B6852F8233050
:101C200007497A6851F822000022F968984700BFF6
:101C30001037BD4680BD00BF001001403002FF1FBD
:101C40001000FF1F80B500AF0020FFF7C5FF00BFE9
:101C500080BD00BF80B500AF0120FFF7BDFF00BF12
:101C600080BD00BF80B500AF0220FFF7B5FF00BF09
:101C700080BD00BF80B500AF0320FFF7ADFF00BF00
:101C800080BD00BF80B584B000AF0346FB71002368
:101C9000FB60FB79013B094A52F82330002B08D046
:101CA000FB79013B054A52F823300022F9680448C9
:101CB000984700BF1037BD4680BD00BF4002FF1FE0
:101CC0000081084080B500AF0120FFF7DBFF00BFB7
:101CD00080BD00BF80B500AF0220FFF7D3FF00BF7B
:101CE00080BD00BF80B483B000AF0346FB710A49DA
:101CF000094B1B6823F4E062FB791B0213430B6062
:101D0000054A054B1B6843F00203136000BF0C3704
:101D1000BD465DF8047B70470080004080B400AF92
:101D2000054B5B69DBB203F00703DBB21846BD4627
:101D30005DF8047B704700BF0080004080B400AFB6
:101D4000054B1B6803F4E0631B0ADBB21846BD4673
:101D50005DF8047B704700BF0080004080B400AF96
:101D6000074B5B6803F080639B0E002B14BF0123BD
:101D70000023DBB21846BD465DF8047B704700BF08
:101D80000080004080B400AF074B5B6803F40003A1
:101D9000DB0D002B14BF01230023DBB21846BD4628
:101DA0005DF8047B704700BF0080004080B400AF46
:101DB000034B0022DA6200BFBD465DF8047B70472A
:101DC0000080004080B483B000AF78607B681B68FF
:101DD00003F480131B0D18460C37BD465DF8047BD9
:101DE000704700BF80B588B000AF0346FB714FF06D
:101DF00080439B693B6100237B83FB79052B0BD1DF
:101E00005B4B1B68DBB2082B06D0594B1B68DBB25F
:101E1000092B01D00423A7E0FB791846FFF762FFE6
:101E2000FB79042B02D0FB79002B05D14FF08042C7
:101E30003B6923F060039361FB79002B02D0FB79AF
:101E4000012B16D14FF47A73FB61FFF767FF03464E
:101E5000FB72FA7AFB799A4205D0FB69013BFB6180
:101E6000FB69002BF1D1FB69002B36D101237B8369
:101E700033E0FB79052B01D1FFF798FFFB79042BA9
:101E800014D1FFF77FFF0346002B0FD04FF08040A7
:101E9000FFF798FF0346012B08D1364B364A1A60EC
:101EA000364B374A1A60374B374A1A60374B1B6834
:101EB000FB60364AFB6823F001031360344A344B5D
:101EC0001B6943F00403136130BF304AFB681360A1
:101ED000FB79052B01D101237B83FB79042B02D0F5
:101EE000FB79002B1BD12B4B5B6803F00053002BBD
:101EF00011D04CF25033FB6100BFFFF72FFF0346B8
:101F000083F00103DBB2002B05D0FB69013BFB61D1
:101F1000FB69002BF1D14FF080423B699361FB7963
:101F2000012B20D0FFF72EFF0346002B1BD04FF0D4
:101F300080424FF080431B6B23F03F031363002369
:101F40007B6103E000BF7B6901337B617B69632BAD
:101F5000F8D94FF080424FF080431B6B23F03F03D2
:101F600043F0010313637B8B18462037BD4680BDC9
:101F70002418200030800040010040783C80004060
:101F800002420200488000400820120110E000E0F8
:101F900000ED00E00080004080B500AFFFF7BEFE1E
:101FA0000346184680BD00BF80B500AFFFF7C6FEF0
:101FB0000346184680BD00BF80B400AF054A054BFC
:101FC0005B6943F01003536100BFBD465DF8047BBD
:101FD000704700BF0080004080B500AFFFF7ECFF06
:101FE000064B1B68002B06D0044B1B68044AD168C3
:101FF00000220348984700BF80BD00BF4802FF1F72
:102000000080004080B500AF054B1B68002B05D059
:10201000034B1B68002200210248984700BF80BD87
:102020004C02FF1F0080004080B584B000AF786094
:102030000B46FB700023FB81FB78262B61D801A2A5
:1020400052F823F0E1200000E1200000EF20000022
:10205000EF200000E7200000EF2000000321000037
:10206000E1200000E1200000032100000321000026
:1020700003210000032100000321000003210000D0
:1020800003210000032100000321000003210000C0
:1020900003210000032100000321000003210000B0
:1020A00003210000032100000321000003210000A0
:1020B0000321000003210000032100000321000090
:1020C0000321000003210000032100000321000080
:1020D000032100000321000003210000FB20000079
:1020E0000123FB810EE0786800F012F80AE0FB782B
:1020F00001229A407B68DA6004E07B682622DA607D
:1021000000E000BFFB8918461037BD4680BD00BF08
:1021100080B483B000AF78607B689B6843F01002A6
:102120007B689A607B689B6823F010027B689A60EA
:1021300000BF0C37BD465DF8047B704780B500AF2B
:10214000002000F0D5FA00BF80BD00BF80B500AF11
:10215000012000F0CDFA00BF80BD00BF80B500AF08
:10216000022000F0C5FA00BF80BD00BF80B483B07C
:1021700000AF78607B685B6803F480531B0B002B17
:1021800014BF01230023DBB218460C37BD465DF8AF
:10219000047B704780B483B000AF78607B685B6875
:1021A00003F00073002B07D07B685B6803F080535B
:1021B000002B01D0012300E0002303F00103DBB278
:1021C00018460C37BD465DF8047B704780B483B079
:1021D00000AF78600B46FB707B68DA68FB7822FA08
:1021E00003F303F00103002B14BF01230023DBB230
:1021F00018460C37BD465DF8047B704780B483B049
:1022000000AF78600B46FB701346BB70BB78002BA9
:1022100009D07B685A68FB78012101FA03F31A435D
:102220007B685A6009E07B685A68FB78012101FAF3
:1022300003F3DB431A407B685A6000BF0C37BD468E
:102240005DF8047B704700BF80B483B000AF786056
:102250000B46FB707B685A68FB7822FA03F303F0A5
:102260000103002B14BF01230023DBB218460C37F7
:10227000BD465DF8047B704780B483B000AF7860E2
:102280000B46FB707B685B6823F48042FB789B0302
:102290001A437B685A6000BF0C37BD465DF8047B6B
:1022A000704700BF80B483B000AF78600B46FB700E
:1022B0007B685B6823F40042FB78DB031A437B688E
:1022C0005A6000BF0C37BD465DF8047B704700BF05
:1022D00080B483B000AF78607B689B6843F02002D5
:1022E0007B689A6000BF0C37BD465DF8047B704781
:1022F00080B483B000AF78607B681B6918460C37E8
:10230000BD465DF8047B704780B483B000AF786051
:102310007B685B699B0803F00103002B14BF01235A
:102320000023DBB218460C37BD465DF8047B7047CE
:1023300080B483B000AF78607B685B69DB0803F032
:102340000103002B14BF01230023DBB218460C3716
:10235000BD465DF8047B704780B582B000AF786001
:10236000786800F005F8002318460837BD4680BDA0
:1023700080B584B000AF7860294A7B6852F823307A
:10238000FB60284A7B6852F82330BB60FB68002260
:102390001A72FB689B78002B02D0786800F024F951
:1023A000FB68DB7E002B12D10021B868FFF77AFFB3
:1023B0000021B868FFF760FFFB685B7E184601F0FC
:1023C00047FEFB689B7E184601F042FE09E00022B2
:1023D0000921B868FFF712FF00220821B868FFF74B
:1023E0000DFF786800F062FAFB68DB78002B07D0FD
:1023F000FB681C331846FEF767F9FB680022DA70A9
:10240000FB685B6A002B06D0FB685B6AFA68926A1D
:102410000021F868984700BF1037BD4680BD00BF57
:102420005002FF1F2000FF1F80B586B000AF78600C
:102430006A4A7B6852F823303B61694A7B6852F8EC
:102440002330FB60674B7B610221F868FFF7BEFE1B
:102450000346002B0FD03B69DB68002B0BD078685C
:10246000FFF77AFF0221F868FFF7DEFD3B690122E2
:1024700083F82020AEE00321F868FFF7A7FE0346AB
:10248000002B0FD03B691B69002B0BD07868FFF73E
:1024900063FF0321F868FFF7C7FD3B69022283F859
:1024A000202097E0F868FFF743FF0346002B0DD08C
:1024B00002E07B69013B7B610721F868FFF786FE3C
:1024C0000346002B02D07B69002BF2D10121F86872
:1024D000FFF77CFE0346002B0BD03B69DB8A9BB2E7
:1024E000002B03D0786800F085F902E0F868FFF768
:1024F000FFFE0021F868FFF769FE0346002B07D0B6
:102500003B699B8A9BB2002B02D0786800F00CF9E3
:102510003B699B8A9BB2002B05D0F868FFF708FF48
:102520000346002B1CD03B69DB8A9BB2002B05D0F5
:10253000F868FFF7E9FE0346002B11D00721F86881
:10254000FFF744FE034683F00103DBB2002B07D004
:1025500000220821F868FFF751FE7868FFF708FFAE
:102560000521F868FFF732FE0346002B15D01F2126
:10257000F868FFF769FE0346002B0ED00521F868C6
:10258000FFF752FD3B695B6A002B06D03B695B6A33
:102590003A69926A0121386998470421F868FFF77F
:1025A00015FE0346002B15D00D21F868FFF74CFEF1
:1025B0000346002B0ED00421F868FFF735FD3B6978
:1025C0005B6A002B06D03B695B6A3A69926A02211A
:1025D000386998471837BD4680BD00BF5002FF1FBD
:1025E0002000FF1F40420F0080B584B000AF78602C
:1025F0004FF47A73FB60134A7B6852F82330BB6058
:10260000B868FFF7B3FD0346002B16D0B868FFF794
:10261000C1FD0346002B10D002E0FB68013BFB60CC
:102620000721B868FFF7D2FD0346002B02D0FB68F4
:10263000002BF2D1B868FFF74BFE00BF1037BD4644
:1026400080BD00BF2000FF1F80B483B000AF786062
:102650007B685B6803F480531B0B002B14BF0123C2
:102660000023DBB218460C37BD465DF8047B70478B
:1026700080B483B000AF78600B46FB701346BB702C
:10268000BB78002B09D07B685A68FB78012101FADE
:1026900003F31A437B685A6009E07B685A68FB7849
:1026A000012101FA03F3DB431A407B685A6000BF43
:1026B0000C37BD465DF8047B704700BF80B483B023
:1026C00000AF786039607B683A681A6100BF0C37E8
:1026D000BD465DF8047B704780B483B000AF78607E
:1026E0007B681B6918460C37BD465DF8047B704754
:1026F00080B584B000AF78600A4A7B6852F8233016
:10270000FB60F868FFF7A0FF0346002B03D0786852
:10271000FFF78AFE02E0786800F0A0F900BF1037EA
:10272000BD4680BD2000FF1F80B586B000AF786039
:102730002E4A7B6852F823303B612D4A7B6852F861
:102740002330FB6000237B613B699B78002B08D022
:102750003B699B8A9BB2012B03D13B6900229A8281
:1027600041E03B69DB68002B39D03B691B88082BB3
:1027700010D83B69DB681B787B613B69DB685A1CBE
:102780003B69DA603B699B8A9BB2013B9AB23B6929
:102790009A8224E03B691B88102B10D83B69DB68C8
:1027A0001B887B613B69DB689A1C3B69DA603B698B
:1027B0009B8A9BB2023B9AB23B699A820FE03B69CB
:1027C000DB681B687B613B69DB681A1D3B69DA606B
:1027D0003B699B8A9BB2043B9AB23B699A827969B6
:1027E000F868FFF76BFF1837BD4680BD5002FF1F2A
:1027F0002000FF1F80B586B000AF7860294A7B6853
:1028000052F823307B61284A7B6852F823303B61C1
:102810000023FB603869FFF75FFFF8607B691B6985
:10282000002B3BD07B691B88082B11D87B691B6967
:10283000FA68D2B21A707B691B695A1C7B691A61EB
:102840007B69DB8A9BB2013B9AB27B69DA8225E025
:102850007B691B88102B11D87B691B69FA6892B2BF
:102860001A807B691B699A1C7B691A617B69DB8A08
:102870009BB2023B9AB27B69DA820FE07B691B69EB
:10288000FA681A607B691B691A1D7B691A617B698A
:10289000DB8A9BB2043B9AB27B69DA8200BF1837AD
:1028A000BD4680BD5002FF1F2000FF1F80B584B0D1
:1028B00000AF78600D4A7B6852F82330FB6000223D
:1028C0000A21F868FFF7D4FE00220B21F868FFF711
:1028D000CFFE0221F868FFF7A7FB0321F868FFF796
:1028E000A3FB00BF1037BD4680BD00BF2000FF1F07
:1028F00080B483B000AF78600B46FB707B68DA6809
:10290000FB7822FA03F303F00103002B14BF012329
:102910000023DBB218460C37BD465DF8047B7047D8
:1029200080B483B000AF78600B46FB701346BB7079
:10293000BB78002B09D07B685A68FB78012101FA2B
:1029400003F31A437B685A6009E07B685A68FB7896
:10295000012101FA03F3DB431A407B685A6000BF90
:102960000C37BD465DF8047B704700BF80B483B070
:1029700000AF78600B46FB707B685A68FB7822FAE0
:1029800003F303F00103002B14BF01230023DBB288
:1029900018460C37BD465DF8047B704780B483B0A1
:1029A00000AF78600B46FB707B685B6823F4804265
:1029B000FB789B031A437B685A6000BF0C37BD4607
:1029C0005DF8047B704700BF80B483B000AF7860CF
:1029D0000B46FB707B685B6823F40042FB78DB03EB
:1029E0001A437B685A6000BF0C37BD465DF8047B14
:1029F000704700BF80B483B000AF78607B681B690C
:102A000018460C37BD465DF8047B704780B483B030
:102A100000AF78607B685B699B0803F00103002BC3
:102A200014BF01230023DBB218460C37BD465DF806
:102A3000047B704780B483B000AF78607B685B69CB
:102A4000DB0803F00103002B14BF01230023DBB2DA
:102A500018460C37BD465DF8047B704780B584B0DE
:102A600000AF7860654A7B6852F82330FB60644AA7
:102A70007B6852F82330BB600221F868FFF738FF0B
:102A80000346002B0BD0BB68DB68002B07D07868AF
:102A900000F0B8F8BB68012283F82020ABE00321E6
:102AA000F868FFF725FF0346002B0BD0BB681B69B6
:102AB000002B07D0786800F0A5F8BB68022283F8E5
:102AC000202098E00121F868FFF712FF0346002B51
:102AD00017D0BB68DB8A9BB2002B0FD0FFF764FADC
:102AE0000346032B06D1F868FFF784FF0020FFF7A9
:102AF00079F906E07868FFF77DFE02E0F868FFF7F5
:102B000079FF0021F868FFF7F3FE0346002B07D09A
:102B1000BB689B8A9BB2002B02D07868FFF704FE4B
:102B2000BB689B8A9BB2002B04D100220821F86865
:102B3000FFF7F6FEBB68DB8A9BB2002B04D10022B4
:102B40000921F868FFF7ECFEBB68DB8A9BB2002B1B
:102B500005D0F868FFF75AFF0346002B2ED0BB685C
:102B60009B8A9BB2002B05D0F868FFF763FF0346F2
:102B7000002B23D000220A21F868FFF7D1FE0022A3
:102B80000B21F868FFF7CCFEBB685B6A002B06D010
:102B9000BB685B6ABA68926A0021B8689847BB68EC
:102BA000DB78002B07D0BB681C331846FDF78CFD83
:102BB000BB680022DA70BB6800221A720521F8682F
:102BC000FFF796FE0346002B15D01F21F868FFF78C
:102BD000CDFE0346002B0ED00521F868FFF724FA3E
:102BE000BB685B6A002B06D0BB685B6ABA68926AF6
:102BF0000121B86898471037BD4680BD2000FF1FEF
:102C00005002FF1F80B584B000AF7860204A7B6817
:102C100052F82330FB601F4A7B6852F82330BB60B8
:102C2000BB68DB7E012B0AD100220821F868FFF780
:102C300077FE00220921F868FFF772FE11E00021FB
:102C4000F868FFF7C1FE0021F868FFF7A7FEBB6830
:102C50005B7E184601F0FCF9BB689B7E184601F0CC
:102C6000F7F97868FFF722FEBB6800221A72BB688A
:102C7000DB78002B07D0BB681C331846FDF724FD1A
:102C8000BB680022DA70002318461037BD4680BDAD
:102C90002000FF1F5002FF1F80B483B000AF786098
:102CA00039607B683A685A6000BF0C37BD465DF8F2
:102CB000047B704780B483B000AF78607B689B680A
:102CC00018460C37BD465DF8047B704780B483B06E
:102CD00000AF78607B685B6903F00803DB08002BBA
:102CE00014BF01230023DBB218460C37BD465DF844
:102CF000047B704780B483B000AF78607B685B6909
:102D000003F004039B08002B14BF01230023DBB254
:102D100018460C37BD465DF8047B704780B485B01B
:102D200000AF78607B685B69FB60FB6843F002037F
:102D3000FB607B68FA685A6100BF1437BD465DF8D6
:102D4000047B704780B586B000AF0346FB71434BF0
:102D50007B61FA79424913465B0013449B000B44A4
:102D60001B683B61FA793E4913465B0013449B00A4
:102D70000B4408331B68FB607869FFF7CFFF786965
:102D8000FFF7A4FF0346002B4AD03B69002B54D029
:102D90003B699B68002B03D13B691B7B002B26D032
:102DA0007869FFF787FFB8603B695A68BB681344CE
:102DB000013BBB60B9687869FFF76EFFFA79284973
:102DC00013465B0013449B000B44043301221A702A
:102DD0003B691B7B83F00103DBB2002B03D03B6913
:102DE0009B68013B00E000233A6993600DE00021FD
:102DF0007869FFF751FFFA79194913465B001344CC
:102E00009B000B44043300221A703B691B69002BA2
:102E100013D03B691B693A695269104698470CE028
:102E2000FB68002B09D0FB685B68002B05D0FB68B2
:102E30005B68FA689268104698477869FFF75AFF0E
:102E40000346002B06D0786900F040F8012178692C
:102E500000F058F800BF1837BD4680BD009800400C
:102E60005C02FF1F80B485B000AF78600B46FB703A
:102E70007B685B6923F00203FB60FB6823F01003AF
:102E8000FB60FB78002B03D0FB6843F01003FB6072
:102E90007B68FA685A6100BF1437BD465DF8047B51
:102EA000704700BF80B483B000AF78607B685B6917
:102EB00003F010031B09002B14BF01230023DBB216
:102EC00018460C37BD465DF8047B704780B582B06C
:102ED00000AF78607868FFF7E5FF0346002B03D06A
:102EE00000217868FFF7BEFF7868FFF7DBFF034635
:102EF000002B01D0012300E0002318460837BD460F
:102F000080BD00BF80B584B000AF78603960002319
:102F1000FB817868FFF7C6FF0346002B02D0012330
:102F2000FB8104E0044A3B6893600023FB81FB893A
:102F300018461037BD4680BD0098004080B500AFF0
:102F40000020FFF7FFFE00BF80BD00BF80B483B04C
:102F500000AF0346FB714FF080414FF080435B6947
:102F600023F40002FB79DB0513434B6100BF0C37F0
:102F7000BD465DF8047B704780B483B000AF034664
:102F80000A46FB711346BB71FB79092B00F2848062
:102F900001A252F823F000BFC12F0000D92F00007A
:102FA000F12F00000930000021300000393000000E
:102FB000513000009930000069300000813000007D
:102FC0004FF080414FF080435B6923F48062BB790E
:102FD0009B0213434B6160E04FF080414FF0804310
:102FE0005B6923F40062BB79DB0213434B6154E05D
:102FF0004FF080414FF080435B6923F48052BB79EE
:103000001B0313434B6148E04FF080414FF0804376
:103010005B6923F40052BB795B0313434B613CE0D3
:103020004FF080414FF080435B6923F40042BB794D
:10303000DB0313434B6130E04FF080414FF080439E
:103040005B6923F48032BB791B0413434B6124E09A
:103050004FF080414FF080435B6923F40032BB792D
:103060005B0413434B6118E04FF080414FF0804305
:103070005B6923F40022BB79DB0413434B610CE052
:103080004FF080414FF080435B6923F48012BB799D
:103090001B0513434B6100E000BF00BF0C37BD466A
:1030A0005DF8047B704700BF80B483B000AF034677
:1030B000FB714FF080414FF080435B6923F4407215
:1030C000FB791B0213434B6100BF0C37BD465DF813
:1030D000047B704780B483B000AF03460A46FB719F
:1030E0001346BB71FB79092B00F28F8001A252F8C5
:1030F00023F000BF1D310000333100004B310000D0
:10310000633100007B31000093310000AB310000DF
:10311000C3310000DB310000F33100004FF080418B
:103120004FF080439B6923F00102BB7913438B610D
:103130006CE04FF080414FF080439B6923F0020226
:10314000BB795B0013438B6160E04FF080414FF02F
:1031500080439B6923F00402BB799B0013438B617E
:1031600054E04FF080414FF080439B6923F0080208
:10317000BB79DB0013438B6148E04FF080414FF097
:1031800080439B6923F02002BB795B0113438B6171
:103190003CE04FF080414FF080439B6923F04002B8
:1031A000BB799B0113438B6130E04FF080414FF0BE
:1031B00080439B6923F08002BB79DB0113438B6161
:1031C00024E04FF080414FF080439B6923F48072EC
:1031D000BB791B0213438B6118E04FF080414FF025
:1031E00080439B6923F40072BB795B0213438B61BC
:1031F0000CE04FF080414FF080439B6923F48062E4
:10320000BB799B0213438B6100E000BF00BF0C370A
:10321000BD465DF8047B704780B582B000AF0346C1
:10322000FB710B46BB7113467B710120FFF78EFECD
:10323000BA79FB7911461846FFF79EFE7B7918464E
:10324000FFF732FF00BF0837BD4680BD80B582B0B2
:1032500000AF03460A46FB711346BB71BA79FB798E
:1032600011461846FFF736FF00BF0837BD4680BD40
:1032700080B485B000AF0346FB71FB79094A52F870
:103280002330FB60FB681B6803F480639B0A002B00
:1032900014BF01230023DBB218461437BD465DF886
:1032A000047B70472C00FF1F80B485B000AF03463D
:1032B000FB71FB79074A52F82330FB60FB681B68FF
:1032C00023F48062FB681A6000BF1437BD465DF8C6
:1032D000047B70472C00FF1F80B584B000AF03460D
:1032E000FB710123FB73FB791846FFF7C1FF03460F
:1032F000FB73FB7B002B11D0FB791846FFF7D4FF43
:10330000FB79084A52F82330002B07D0FB79054A95
:1033100052F82330F879F97B0022984700BF103724
:10332000BD4680BD6802FF1F80B500AF0020FFF7DB
:10333000D3FF00BF80BD00BF80B500AF0120FFF705
:10334000CBFF00BF80BD00BF80B483B000AF78600A
:103350007B681B6803F480731B0A002B14BF0123D6
:103360000023DBB218460C37BD465DF8047B70477E
:1033700080B483B000AF78607B681B6843F48072D0
:103380007B681A6000BF0C37BD465DF8047B704750
:1033900080B584B000AF0346FB71064BFB60F86854
:1033A000FFF7D2FF0346FB72FB7A18461037BD4683
:1033B00080BD00BF0090014080B584B000AF0346DF
:1033C000FB71044BFB60F868FFF7D2FF00BF1037BA
:1033D000BD4680BD0090014080B582B000AF0023A3
:1033E0007B600020FFF7D4FF03467B607B68002BE7
:1033F0000CD00020FFF7E0FF064B1B68002B05D028
:10340000044B1B68002279680348984700BF0837BF
:10341000BD4680BD7002FF1F0090014080B500AF27
:10342000FFF7DAFF00BF80BD80B485B000AF7860E1
:103430007B68D3F8A030FB60FB6818461437BD46A4
:103440005DF8047B704700BF80B483B000AF786044
:103450007B684FF0FF32C3F8A02000BF0C37BD4699
:103460005DF8047B704700BF80B487B000AFF860A0
:10347000B9601346FB71FB685B697B610122BB6825
:1034800002FA03F3DB437A6913407B61FA79BB6884
:1034900002FA03F37A6913437B61FB687A695A6124
:1034A00000BF1C37BD465DF8047B704780B487B011
:1034B00000AFF860B9601346FB71FB681B687B6165
:1034C0000122BB6802FA03F3DB437A6913407B6194
:1034D000FA79BB6802FA03F37A6913437B61FB68EC
:1034E0007A691A6000BF1C37BD465DF8047B7047DF
:1034F00080B485B000AF78600023FB607B681B69F7
:10350000FB60FB6818461437BD465DF8047B7047C6
:1035100080B584B000AFF860B9601346FB71FB79E9
:103520001A46B968F86800F085F800BF1037BD4644
:1035300080BD00BF80B584B000AFF860B9601346AD
:10354000FB71FB791A46B968F868FFF78DFF00BF79
:103550001037BD4680BD00BF80B584B000AFF860B5
:10356000B9601346FB71FB791A46B968F868FFF732
:103570009DFF00BF1037BD4680BD00BF80B582B043
:1035800000AF78607868FFF7B3FF03461846083746
:10359000BD4680BD80B586B000AF78600F4A7B68BD
:1035A00052F823307B617B68DB000D4A13443B619A
:1035B0007869FFF739FFF8607869FFF745FF3B69E5
:1035C0001B68002B06D03B691B683A695268F96892
:1035D0007868984700BF1837BD4680BD28FB0000BB
:1035E0007402FF1F80B500AF0020FFF7D3FF00BFBC
:1035F00080BD00BF80B500AF0120FFF7CBFF00BF4B
:1036000080BD00BF80B500AF0220FFF7C3FF00BF41
:1036100080BD00BF80B500AF0320FFF7BBFF00BF38
:1036200080BD00BF80B500AF0420FFF7B3FF00BF2F
:1036300080BD00BF80B487B000AFF860B9601346AA
:10364000FB71FB68BA6853F822307B61FB79FB742D
:103650007B6923F4E0637B61FB7C1B027A69134383
:103660007B61FB68BA68796943F8221000BF1C3798
:10367000BD465DF8047B704780B483B000AF7860CE
:10368000044A7B68D36000BF0C37BD465DF8047BFD
:10369000704700BF0020004080B400AF054B1B689E
:1036A00003F480439B0BDBB21846BD465DF8047BF8
:1036B000704700BF0020004080B400AF054B1B687E
:1036C00003F400535B0BDBB21846BD465DF8047B88
:1036D000704700BF0020004080B483B000AF0346B5
:1036E000FB710749064B1B6923F02002FB795B0144
:1036F00013430B6100BF0C37BD465DF8047B704778
:103700000020004080B483B000AF0346FB71044A40
:10371000FB79536100BF0C37BD465DF8047B7047F1
:103720000020004080B483B000AF7860044A7B681A
:10373000D36100BF0C37BD465DF8047B704700BF06
:103740000020004080B483B000AF7860044A7B68FA
:10375000136200BF0C37BD465DF8047B704700BFA5
:103760000020004080B483B000AF7860044A7B68DA
:10377000936100BF0C37BD465DF8047B704700BF06
:103780000020004080B400AF034B01221A6300BF49
:10379000BD465DF8047B70470020004080B400AF58
:1037A000044B1B6803F4FE531846BD465DF8047BCA
:1037B000704700BF0020004080B400AF054B9B6CF9
:1037C000DBB203F00F03DBB21846BD465DF8047BA5
:1037D000704700BF0020004080B400AF054B1B685D
:1037E00003F480731B0ADBB21846BD465DF8047B08
:1037F000704700BF0020004080B400AF054A054B71
:103800001B6843F48073136000BFBD465DF8047B02
:10381000704700BF0020004080B400AF054B1B681C
:1038200003F480531B0BDBB21846BD465DF8047BE6
:10383000704700BF0020004080B400AF054A054B30
:103840001B6843F48053136000BFBD465DF8047BE2
:10385000704700BF0020004080B582B000AF002359
:10386000FB80FFF719FF03467B7100233B6012E0EA
:103870000D48FFF701FF0D48FFF7FEFE3B68642B84
:1038800002D90323FB8009E0FFF706FF03467B71A3
:103890003B6801333B607B79012BE9D0FB881846FC
:1038A0000837BD4680BD00BF4078AC0067452301A6
:1038B00080B500AF0348FFF7DFFE0348FFF7DCFEEB
:1038C00000BF80BDBF8753FF98BADCFE80B483B0D1
:1038D00000AF78600B46FB70FB78082B0AD8FB78AA
:1038E00003F00103DBB2002B04D1FB785A037B68A1
:1038F000DA6003E07B684FF40032DA6000BF0C3717
:10390000BD465DF8047B704780B584B000AF786039
:1039100039600023FB73FFF7BFFE0346012B05D17F
:103920001B48FFF7A9FE1B48FFF7A6FE0120FFF783
:10393000D3FE7B681A683B681A607B685A683B68EC
:103940005A607B689A683B689A607B68DA683B6873
:103950001A617B681A693B689A61FFF72DFF03467D
:10396000FB73FB7B19463868FFF7B0FF3B68DB68E9
:10397000B3F5003F04D23B684FF480525A6102E035
:103980003B6800225A6100BF1037BD4680BD00BFB2
:103990004078AC006745230180B586B000AF786001
:1039A0000B46FB700023FB820A233B612523FB604F
:1039B000FB78002B07D0204A1F4BD3F80C3443F080
:1039C0000103C2F80C34FFF7DDFE1B4BD3F80C34B7
:1039D00003F00103002B10D000BFFB685A1EFA60F1
:1039E000002BFAD1154B1B68134A134BD3F80C3438
:1039F00023F00103C2F80C340DE000BF3B695A1EEE
:103A00003A61002BFAD106E07B689B69002B02D05B
:103A10007B689B699847FFF74FFE0346002BF3D066
:103A2000FFF7BCFE0346002B01D00123FB82FB8A7B
:103A300018461837BD4680BD0C0008E00808200075
:103A400080B588B000AFF860B9607A600023FB836E
:103A50000023BB6100233B617B687B61FB689B6843
:103A60003B61BA683B699A420AD3FB68DA683B69F2
:103A70001A44BB689A4203D94FF40063BB6117E054
:103A8000FB681B683B61BA683B699A420AD3FB68D2
:103A90005A683B691A44BB689A4203D94FF40063E1
:103AA000BB6105E00123FB8300237B610023BB6135
:103AB000BB695A1E7B691340002B24D00423FB836F
:103AC00021E0FFF7F9FD0346002B02D10223FB831F
:103AD00019E0124A114B1B6843F4FE531360012096
:103AE000FFF710FEB868FFF73DFE0121F868FFF709
:103AF00053FF0346FB837A69BB69D31A7B61BA68BB
:103B0000BB691344BB607B69002B02D0FB8B002B8D
:103B1000D7D0FB8B18462037BD4680BD0020004023
:103B200080B586B000AFF860B9607A603B60002372
:103B3000FB827B6803F00703002B02D00423FB8287
:103B40006BE0FB681A68FB685B681A44BB689A42C2
:103B50005DD8FB689A68BB689A4207D8FB689A6888
:103B6000FB68DB681A44BB689A4250D80123FB8289
:103B70004DE0FFF7A1FD0346002B02D10223FB829B
:103B800045E0284A274B1B6843F4FE53136010207E
:103B9000FFF7B8FDB868FFF7E5FD3B681B781A46EC
:103BA0003B6801331B781B021A433B6802331B78C6
:103BB0001B041A433B6803331B781B061343184648
:103BC000FFF7B0FD3B6804331B781A463B680533AA
:103BD0001B781B021A433B6806331B781B041A43ED
:103BE0003B6807331B781B0613431846FFF7AAFDF3
:103BF0000121F868FFF7D0FE0346FB82BB6808335B
:103C0000BB607B68083B7B603B6808333B607B683C
:103C1000002B02D0FB8A002BABD0FB8A184618374A
:103C2000BD4680BD0020004080B487B000AFF86082
:103C3000B9607A603B600023FB8200233B61FB6834
:103C40001A68FB685B681A44BB689A420ED8FB6826
:103C50009A68BB689A4207D8FB689A68FB68DB6879
:103C60001A44BB689A4201D80123FB82FB8A002BCD
:103C700011D100233B610AE07A683B691344B968BB
:103C80003A690A4412781A703B6901333B613A6918
:103C90003B689A42F0D3FB8A18461C37BD465DF854
:103CA000047B704780B500AF044B1B68002B02D02B
:103CB000024B1B68984700BF80BD00BF9C02FF1FDE
:103CC00080B500AFFFF788FD03461A46064B1A7011
:103CD000FFF792FD054B1B68002B02D0034B1B68BE
:103CE000984700BF80BD00BFA802FF1FA002FF1FB2
:103CF00080B500AFFFF790FD03461A46064B1A70D9
:103D0000FFF79AFD054B1B68002B02D0034B1B6885
:103D1000984700BF80BD00BFA902FF1FA402FF1F7C
:103D200080B500AFFFF7BEFF00BF80BD80B500AF1C
:103D3000FFF7C6FF00BF80BD80B500AFFFF7D8FF1B
:103D400000BF80BD80B483B000AF78600B46FB70CD
:103D5000FA787B681A6000BF0C37BD465DF8047BBB
:103D6000704700BF80B483B000AF78607B681B6889
:103D7000DBB218460C37BD465DF8047B704700BFC8
:103D800080B584B000AF78600D4BFB60F868FFF73A
:103D9000E9FF034623F00803DBB21946F868FFF792
:103DA000D1FF084A7B6852F82330002B04D0054A23
:103DB0007B6852F82330984700BF1037BD4680BD5E
:103DC00000B40040AC02FF1F80B500AF0020FFF739
:103DD000D7FF00BF80BD00BF80B483B000AF786064
:103DE0007B689B6818460C37BD465DF8047B7047BE
:103DF00080B483B000AF78607B68DB6818460C370E
:103E0000BD465DF8047B704780B483B000AF786036
:103E10007B681B6918460C37BD465DF8047B70470C
:103E200080B483B000AF78607B685B6918460C375C
:103E3000BD465DF8047B704780B483B000AF786006
:103E40007B689B6918460C37BD465DF8047B70475C
:103E500080B483B000AF78607B68DB6918460C37AC
:103E6000BD465DF8047B704780B58AB000AF002383
:103E70003B62304BFB61F869FFF7D2FFB861F8692C
:103E8000FFF7AAFF0246BB6913407B61F869FFF7A1
:103E9000D3FFB861F869FFF7ABFF0246BB69134077
:103EA0003B61F869FFF7D4FFB861F869FFF7ACFF31
:103EB0000246BB691340FB601F4A3B6A52F823303D
:103EC0000833BB600023FB842CE0FB8C9B00BA68AA
:103ED00013441B687B607B68002B20D07B681B68C9
:103EE000002B1CD07B681B7A1A4601239340013BB0
:103EF0007A68527A93403B607A693B681340002BA2
:103F000009D13A693B681340002B04D1FA683B6839
:103F10001340002B03D07B681B6878689847FB8CA4
:103F20000133FB84FB8C032BCFD900BF2837BD4660
:103F300080BD00BF00A00040B002FF1F80B483B06E
:103F400000AF78600B46FB707B685B6A23F0010270
:103F5000FB781A437B685A6200BF0C37BD465DF898
:103F6000047B704780B483B000AF78607B689B6847
:103F700043F002027B689A607B689B6823F0020230
:103F80007B689A6000BF0C37BD465DF8047B7047C4
:103F900080B586B000AF0346FB71FB79FB7500234B
:103FA0003B61FB7D064A52F82330FB60F86800F065
:103FB00067F838613B6918461837BD4680BD00BFB9
:103FC0003CFB000080B586B000AF0346FB710023C8
:103FD0007B611D4B1B68FA7953F822303B61FB79FA
:103FE000FB73FB7B194A52F82330BB60FB79184600
:103FF000FFF7CEFF78617B6903F0FC03002B0FD045
:104000007B6903F00803002B04D17B6903F00403F0
:10401000002B02D0B868FFF7A5FF3B6901221A7395
:104020003B69002B0CD03B695B68002B08D03B69D7
:104030005B683A6990683A69127BD2B21146984738
:1040400000BF1837BD4680BDB402FF1F3CFB000017
:1040500080B584B000AF0346FB71FB79FB73FB7B3B
:10406000064A52F82330BB600021B868FFF766FFAC
:10407000002318461037BD4680BD00BF3CFB000042
:1040800080B485B000AF78607B681B68FB60FB681C
:10409000DA437B681A60FB6818461437BD465DF842
:1040A000047B704780B500AF0020FFF78BFF00BF97
:1040B00080BD00BF80B500AF0120FFF783FF00BFC8
:1040C00080BD00BF80B500AF0220FFF77BFF00BFBF
:1040D00080BD00BF80B500AF0320FFF773FF00BFB6
:1040E00080BD00BF80B500AF0420FFF76BFF00BFAD
:1040F00080BD00BF80B500AF0520FFF763FF00BFA4
:1041000080BD00BF80B500AF0620FFF75BFF00BF9A
:1041100080BD00BF80B500AF0720FFF753FF00BF91
:1041200080BD00BF80B500AF0820FFF74BFF00BF88
:1041300080BD00BF80B500AF0920FFF743FF00BF7F
:1041400080BD00BF80B500AF0A20FFF73BFF00BF76
:1041500080BD00BF80B500AF0B20FFF733FF00BF6D
:1041600080BD00BF80B500AF0C20FFF72BFF00BF64
:1041700080BD00BF80B500AF0D20FFF723FF00BF5B
:1041800080BD00BF80B500AF0E20FFF71BFF00BF52
:1041900080BD00BF80B500AF0F20FFF713FF00BF49
:1041A00080BD00BF80B483B000AF0346FB710749F8
:1041B000064B1B6923F00802FB79DB0013430B61FC
:1041C00000BF0C37BD465DF8047B704700200040FF
:1041D00090B482B000AF0446084611461A46234602
:1041E000FB710346BB710B467B7113463B710A4959
:1041F0003B791A067B791B0403F47F031A43BB79CE
:104200001B029BB21A43FB7913430B6000BF0837B4
:10421000BD4690BC704700BF0010001480B582B04E
:1042200000AF042000F0C6FC0346BB800123FB80E6
:10423000BB88202B40D0202B0FDC022B2CD0022B54
:1042400004DC002B1CD0012B23D04DE0082B2BD0FD
:10425000102B2DD0042B23D046E0802B34D0802B84
:1042600004DC212B15D0402B2AD03DE0B3F5007F94
:1042700032D0B3F5806F33D0B3F5807F28D033E0F0
:104280001E4B9B6C03F44033002B30D00023FB808B
:104290002DE00023FB802BE040F20243FB8027E06F
:1042A00040F20343FB8023E040F20443FB801FE025
:1042B00040F20543FB801BE040F20643FB8017E021
:1042C00040F20743FB8013E04FF48163FB800FE073
:1042D00040F20943FB800BE040F20A43FB8007E019
:1042E00040F20C43FB8003E00123FB8000E000BFB1
:1042F000FB8818460837BD4680BD00BF002000403F
:1043000080B400AF054B9B6803F480731B0ADBB2DB
:104310001846BD465DF8047B704700BF0020004092
:1043200080B400AF054A054B9B6843F480739360EB
:1043300000BFBD465DF8047B704700BF0020004011
:1043400080B483B000AF786039603A687B6813440A
:104350005A1E3B685B42134018460C37BD465DF859
:10436000047B704780B582B000AFFFF7C9FF0346FA
:10437000FB71FFF7D5FFFB79002B42D0234B1B6865
:104380001B78002B3DD0214B1B685B78013B052B34
:104390001AD801A252F823F0B1430000B74300003D
:1043A000B1430000B7430000BD430000C343000019
:1043B00000F084F909E000F0BFF906E000F016FA19
:1043C00003E000F055FA00E000BF104B1B681B78BB
:1043D00083F00103DBB2002B13D00020FFF7E2FED5
:1043E0000A4B1B689B6B002B0BD0084B1B689B6B0D
:1043F000064A126852781046044A1268D26B114677
:10440000984700BF0837BD4680BD00BFB802FF1FF8
:1044100080B582B000AF1D4B1B681A691B4B1B682F
:10442000DB68D31A1B097B607B68072B02D87B688B
:104430009BB200E007237B807B88DBB21B017B7093
:10444000124B1B685A68114B1B68DB6813447A785F
:104450001946102000F062FA7B8819460E2000F001
:10446000ADFA0A4B1B687A785A61084B1B6858787A
:10447000064B1B6893F82020044B1B681B7E002111
:10448000FFF7A6FE00BF0837BD4680BDB802FF1F7C
:1044900080B584B000AF334B1B681A69314B1B6881
:1044A000DB68D31A1B09BB60BB68072B02D8BB684B
:1044B0009BB200E00723FB80FB88DBB21B01FB7390
:1044C000284B1B6893F82030002B20D1BB68062BAB
:1044D00002D8BB689BB200E00623FB80FB88DBB2FE
:1044E0001B01FB731F4B1B68DB6910221946102050
:1044F00000F014FA1B4B1B685A681A4B1B68DB68E8
:104500001344FA7B1946202000F008FA0BE0154B03
:104510001B685A68134B1B68DB681344FA7B194607
:10452000102000F0FBF90F4B1B681B691B099BB2A5
:1045300019460E2000F042FA0A4B1B68FA7B5A61BA
:10454000084B1B685878074B1B6893F82020054BD5
:104550001B681B7E0021FFF73BFE00BF1037BD46E6
:1045600080BD00BFB802FF1F80B582B000AF1F4BF7
:104570001B681A691D4B1B68DB68D31A702B0AD89D
:104580001A4B1B681B69DAB2184B1B68DB68DBB27D
:10459000D31ADBB200E07023FB71144B1B685A681E
:1045A000124B1B68DB681344FA791946102000F09F
:1045B000B5F90E4B1B682433012219460C2000F07C
:1045C0007BFA0A4B1B68FA795A61084B1B685878CA
:1045D000064B1B6893F82020044B1B681B7E0021B0
:1045E000FFF7F6FD00BF0837BD4680BDB802FF1FCC
:1045F00080B582B000AF304B1B681A692E4B1B6828
:10460000DB68D31A702B0AD82B4B1B681B69DAB2F4
:10461000294B1B68DB68DBB2D31ADBB200E07023E6
:10462000FB71FB7910211846FFF78AFE0346BB7128
:10463000214B1B685A68204B1B68DB681344FA79CE
:104640001946102000F06AF91B4B1B682433012225
:1046500019460C2000F030FA174B1B685B6B9BB2BD
:104660001946082000F0AAF9BB7910336F2B0ED839
:10467000BB791033D8B2104B1B681B6B1022194644
:1046800000F04CF90C4B1B68012283F82C200A4BDC
:104690001B68FA795A61084B1B685878064B1B68EF
:1046A00093F82020044B1B681B7E0021FFF790FD30
:1046B00000BF0837BD4680BDB802FF1F98B500AFE8
:1046C0001C4B1C68FFF7AAFD03466383194B1B684C
:1046D0005B8B002B04D0174B1B6800221A7028E05C
:1046E000144B1B689A68134B1B68DB68D118114B7D
:1046F0001B685B69DBB21A46102000F005FA0D4B0F
:104700001B680C4A1268D2680A4909684969C9B22B
:104710000A44DA60074B1B68DA68064B1B681B69A2
:104720009A4204D3034B1B6800221A7001E0FFF782
:104730006FFE98BDB802FF1F98B500AF2A4B1C68EA
:10474000FFF76CFD03466383274B1B685B8B002BD5
:1047500004D0254B1B6800221A7043E0224B1B68D3
:1047600093F82030002B14D11F4B1B689A681E4B06
:104770001B68DB68D1181C4B1B685B69DBB21A46EF
:10478000202000F0C1F9184B1B68012283F820207B
:104790000EE0154B1B689A68134B1B68DB68D11839
:1047A000114B1B685B69DBB21A46102000F0ACF9B4
:1047B0000D4B1B680C4A1268D2680B49096849699D
:1047C000C9B20A44DA60084B1B68DA68064B1B68FA
:1047D0001B699A4204D3044B1B6800221A7001E043
:1047E000FFF756FE98BD00BFB802FF1F98B500AF97
:1047F0001E4B1C68FFF712FD034663831B4B1B68AF
:104800005B8B002B04D0194B1B6800221A702CE024
:10481000164B1B6893F82030002B04D1134B1B68F8
:10482000012283F82020114B1B68104A1268D268BD
:104830000E4909684969C9B20A44DA600B4B1B6822
:10484000DA680A4B1B681B699A420CD3074B1B683A
:1048500000221A70054B1B689B6810221946202005
:1048600000F052F901E0FFF77FFE98BDB802FF1F8C
:1048700098B500AF284B1C68FFF7D0FC0346638354
:10488000254B1B685B8B002B04D0234B1B6800223D
:104890001A703FE0204B1B6893F82030002B04D1A6
:1048A0001D4B1B68012283F820201B4B1B681A4AF2
:1048B0001268D268184909684969C9B20A44DA60BD
:1048C000154B1B68144A126892F82C20002A14BF5A
:1048D00001220022D2B282F00102D2B202F0010221
:1048E000D2B21A700C4B1B681B7883F00103DBB249
:1048F000002B0DD0084B1B689C6A142000F05AF95D
:104900000346002B0CBF01230023DBB2237001E020
:10491000FFF76EFE98BD00BFB802FF1F90B585B0CF
:1049200000AF03463960FB711346BB710023FB7374
:1049300025E0214CFA79FB7B13449B10FA7B033270
:1049400039680A4412781106FA7B02323868024448
:104950001278120402F47F021143FA7B01323868A4
:1049600002441278120292B20A43F97B3868014479
:1049700009780A4344F82320FB7B0433FB73FB7B59
:10498000DA1CBB799A42D4D30DE0FA79FB7B13444D
:10499000D8B2FB7B3A6813441B78194600F046F8FE
:1049A000FB7B0133FB73FA7BBB799A42EDD300BFEB
:1049B0001437BD4690BD00BF0010001480B485B010
:1049C00000AF03460A46FB711346BB800023FB6021
:1049D000154AFB799B08DBB252F82330FB60FB7968
:1049E00003F00203002B08D0FB681B0C1B04FB60C8
:1049F000BB88FA681343FB6007E0FB689BB2FB606F
:104A0000BB881B04FA681343FB60074AFB799B08C9
:104A1000DBB21946FB6842F8213000BF1437BD46AF
:104A20005DF8047B704700BF0010001480B483B0B1
:104A300000AF03460A46FB711346BB71FB7903F0D6
:104A40000303032B2ED801A252F823F0934A00004F
:104A5000814A00006F4A00005D4A0000154AFB7958
:104A60009B08DBB29B001344BA79DA701BE0114A51
:104A7000FB799B08DBB29B001344BA799A7012E071
:104A80000C4AFB799B08DBB29B001344BA795A703D
:104A900009E0084AFB799B08DBB21946BB7902F8AA
:104AA000213000E000BF00BF0C37BD465DF8047B3D
:104AB000704700BF0010001480B485B000AF0346FB
:104AC0003960FB711346BB710023FB73FB799B08B4
:104AD000BB730DE00B48BA7BFB7B1344FA7B92005F
:104AE00039680A44126840F82320FB7B0133FB73CA
:104AF000FA7BBB799A42EDD300BF1437BD465DF80F
:104B0000047B70470010001490B585B000AF0346D9
:104B10003960FB711346BB710023FB730023BB603C
:104B200028E02349FA79FB7B13449B1051F823308A
:104B3000BB60FB7B03333A681344BA68120ED2B2EF
:104B40001A70FB7B02333A681344BA68120CD2B273
:104B50001A70FB7B01333A681344BA68120AD2B266
:104B60001A70FB7B3A681344BA68D2B21A70FB7BA6
:104B70000433FB73FB7BDA1CBB799A42D1D30EE082
:104B8000FB7B3A68D418FA79FB7B1344DBB21846F6
:104B900000F038F803462370FB7B0133FB73FA7B8C
:104BA000BB799A42ECD300BF1437BD4690BD00BF1D
:104BB0000010001480B485B000AF0346FB710023E1
:104BC000FB81FB7903F00203002B0AD00C4AFB792E
:104BD0009B08DBB252F823301B0C1B041B0CFB811F
:104BE00006E0074AFB799B08DBB252F82330FB81D1
:104BF000FB8918461437BD465DF8047B704700BF3B
:104C00000010001480B485B000AF0346FB71002390
:104C1000FB73FB7903F00303032B2ED801A252F898
:104C200023F000BF354C0000474C0000594C0000F9
:104C30006B4C0000154AFB799B08DBB29B001344C8
:104C4000DB78FB731AE0114AFB799B08DBB29B000F
:104C500013449B78FB7311E00C4AFB799B08DBB291
:104C60009B0013445B78FB7308E0084AFB799B08C0
:104C7000DBB212F82330FB7300E000BFFB7B184669
:104C80001437BD465DF8047B704700BF0010001468
:104C900080B483B000AF0346FB7197F90730002B57
:104CA0000BDB094997F907305B09FA7902F01F021B
:104CB000012000FA02F241F8232000BF0C37BD4664
:104CC0005DF8047B704700BF00E100E080B485B070
:104CD00000AFF860B9607A603B60FB681B6823F046
:104CE0007072BB689B051A43FB681A60FB681B68FF
:104CF00023F470227B681B041A43FB681A60FB686C
:104D00001B6823F0F0023B681B011A43FB681A6022
:104D100000BF1437BD465DF8047B704780B485B092
:104D200000AFF860B9607A603B60FB681B6823F0F5
:104D30007052BB689B061A43FB681A60FB681B68CD
:104D400023F470427B681B031A43FB681A60FB68FC
:104D50001B6823F00F023B681A43FB681A6000BF10
:104D60001437BD465DF8047B704700BF80B483B044
:104D700000AF78607B681B6803F470231B0C184637
:104D80000C37BD465DF8047B704700BF80B485B02A
:104D900000AFF860B9607A60FB68DB6A23F47C627C
:104DA000BB689B011A43FB68DA62FB681B6B23F448
:104DB0007C627B689B011A43FB681A6300BF14374F
:104DC000BD465DF8047B704780B483B000AF786067
:104DD0007B68DB6A03F47C639B0918460C37BD468D
:104DE0005DF8047B704700BF80B483B000AF78608B
:104DF0007B681B6B03F47C639B0918460C37BD462C
:104E00005DF8047B704700BF80B485B000AFF860E8
:104E1000B9607A60FB68DB6A23F47C32BB681B03F1
:104E20001A43FB68DA62FB681B6B23F47C327B68F5
:104E30001B031A43FB681A6300BF1437BD465DF8B5
:104E4000047B704780B483B000AF78607B68DB6A16
:104E500003F47C331B0B18460C37BD465DF8047B0E
:104E6000704700BF80B483B000AF78607B681B6B75
:104E700003F47C331B0B18460C37BD465DF8047BEE
:104E8000704700BF80B483B000AF78600B46FB7002
:104E90007B681B6823F40012FB785B051A437B6870
:104EA0001A6000BF0C37BD465DF8047B704700BF39
:104EB00080B485B000AFF860B9607A60FB68DB6AE7
:104EC00023F47C02BB689B041A43FB68DA62FB682C
:104ED0001B6B23F47C027B689B041A43FB681A63F8
:104EE00000BF1437BD465DF8047B704780B483B0C3
:104EF00000AF78607B68DB6A03F47C039B0C184688
:104F00000C37BD465DF8047B704700BF80B483B0AA
:104F100000AF78607B681B6B03F47C039B0C184626
:104F20000C37BD465DF8047B704700BF80B485B088
:104F300000AFF860B9607A60FB68DB6A23F03F027B
:104F4000BB681A43FB68DA62FB681B6B23F03F0205
:104F50007B681A43FB681A6300BF1437BD465DF8CF
:104F6000047B704780B483B000AF78607B68DB6AF5
:104F700003F03F0318460C37BD465DF8047B7047CD
:104F800080B483B000AF78607B681B6B03F03F0395
:104F900018460C37BD465DF8047B704780B483B07B
:104FA00000AF786039607B681B6823F480123B682F
:104FB0001B051A437B681A6000BF0C37BD465DF8BD
:104FC000047B704780B483B000AF78607B681B6857
:104FD00003F480131B0D18460C37BD465DF8047BA7
:104FE000704700BF80B483B000AF0346FB714FF041
:104FF00080414FF080431B6823F00042FB79DB07C0
:1050000013430B6000BF0C37BD465DF8047B70474F
:1050100080B483B000AF7860084611461A46034654
:10502000FB700B46BB7013467B707B68D3F8C030B7
:1050300023F07852FB785B061A437B68C3F8C020E4
:105040007B68D3F8C03023F4FF02BB78DB031A433C
:105050007B68C3F8C0207B68D3F8C03023F040429F
:105060007B789B071A437B68C3F8C0200B4A0B4B25
:10507000D3F8C43043F4E073C2F8C430074A074B96
:10508000D3F8C43023F00E0343F00603C2F8C43053
:1050900000BF0C37BD465DF8047B704700880040B8
:1050A00080B485B000AFF860B9607A603B60FB689F
:1050B000D3F8C03003F078535B0EDAB2BB681A70D5
:1050C000FB68D3F8C03003F4FF03DB0BDAB27B6874
:1050D0001A70FB68D3F8C03003F040439B0FDAB27C
:1050E0003B681A7000BF1437BD465DF8047B7047FB
:1050F00080B483B000AF786039607B689B6C23F428
:10510000E0623B681B021A437B689A6400BF0C375D
:10511000BD465DF8047B704780B483B000AF786013
:105120007B689B6C03F4E0631B0A18460C37BD4692
:105130005DF8047B704700BF80B483B000AF786037
:105140000B46FB707B689B6C23F40062FB78DB02F0
:105150001A437B689A6400BF0C37BD465DF8047B38
:10516000704700BF80B483B000AF0346FB710749AE
:10517000064B5B6823F08052FB791B0713434B609F
:1051800000BF0C37BD465DF8047B704700800040CF
:1051900080B483B000AF0346FB710749064B5B68E0
:1051A00023F40072FB795B0213434B6000BF0C37A2
:1051B000BD465DF8047B70470080004080B483B03A
:1051C00000AF0346FB710749064B5B6823F480720E
:1051D000FB791B0213434B6000BF0C37BD465DF8E3
:1051E000047B70470080004080B400AF074B5B68D1
:1051F00003F080731B0E002B14BF01230023DBB2CE
:105200001846BD465DF8047B704700BF0080004033
:1052100080B483B000AF0346FB710749064B5B685F
:1052200023F48062FB799B0213434B6000BF0C3771
:10523000BD465DF8047B70470080004080B400AF3D
:10524000074B5B6803F000735B0E002B14BF012358
:105250000023DBB21846BD465DF8047B704700BFF3
:105260000080004080B483B000AF0346FB71074963
:10527000064B5B6823F00052FB795B0713434B60DE
:1052800000BF0C37BD465DF8047B704700800040CE
:1052900080B400AF074B5B6803F080639B0E002B6C
:1052A00014BF01230023DBB21846BD465DF8047B22
:1052B000704700BF0080004080B483B000AF034659
:1052C000FB710749064B5B6823F00062FB79DB0644
:1052D00013434B6000BF0C37BD465DF8047B70473D
:1052E0000080004080B400AF074B5B6803F400030C
:1052F000DB0D002B14BF01230023DBB21846BD4693
:105300005DF8047B704700BF0080004080B485B02A
:1053100000AF03460A46FB711346BB71FB79FB6085
:10532000FB681F2B1BD8BB79002B0BD04FF08041A3
:105330004FF080439A680120FB6800FA03F313439F
:105340008B604FE04FF080414FF080439A6801201E
:10535000FB6800FA03F3DB4313408B6042E0FB6819
:105360003F2B1ED8FB68203BFB60BB79002B0BD08A
:105370004FF080414FF08043DA680120FB6800FA6B
:1053800003F31343CB602DE04FF080414FF0804397
:10539000DA680120FB6800FA03F3DB431340CB60BB
:1053A00020E0FB68532B1DD8FB68403BFB60BB79BA
:1053B000002B0BD04FF080414FF080431A69012041
:1053C000FB6800FA03F313430B610BE04FF08041DD
:1053D0004FF080431A690120FB6800FA03F3DB43B6
:1053E00013400B6100BF1437BD465DF8047B704766
:1053F00080B485B000AF03460A46FB711346BB710B
:10540000FB79FB60FB681F2B1BD8BB79002B0BD0F3
:105410004FF080414FF080431A6A0120FB6800FA88
:1054200003F313430B624FE04FF080414FF0804392
:105430001A6A0120FB6800FA03F3DB4313400B6296
:1054400042E0FB683F2B1ED8FB68203BFB60BB792A
:10545000002B0BD04FF080414FF080435A6A01205F
:10546000FB6800FA03F313434B622DE04FF08041D9
:105470004FF080435A6A0120FB6800FA03F3DB43D4
:1054800013404B6220E0FB684E2B1DD8FB68403B6D
:10549000FB60BB79002B0BD04FF080414FF0804375
:1054A0009A6A0120FB6800FA03F313438B620BE056
:1054B0004FF080414FF080439A6A0120FB6800FA68
:1054C00003F3DB4313408B6200BF1437BD465DF826
:1054D000047B704780B586B000AF64233B6101F068
:1054E00013FB03465B08FB606C4B01221A604FF014
:1054F00080431B6BBB604FF080424FF080431B6BBF
:1055000023F03F0343F0010313634FF080424FF059
:1055100080431B6B23F47C3313634FF08043DB6BBE
:105520007B604FF080424FF08043DB6B23F0FF0342
:1055300043F05703D3634FF080439B683B604FF0C9
:1055400080424FF080439B6843F0030393604FF029
:1055500080424FF080431B6A23F0030313624FF035
:1055600080424FF080431B6A43F00303136200BF85
:105570004B4AFB685B0A4B49A1FB0313DB08136032
:10558000494AFB685B094949A1FB0313DB0903F0A6
:105590000F035B001360464B01221A60454B01224A
:1055A0001A60454B03221A60444B05221A60444B93
:1055B00001221A60434B01221A60434B03221A60F6
:1055C00000BF00BF414B1B6803F02003002B05D137
:1055D0003B69013B3B613B69002BF3D13C4BAA2269
:1055E0001A6041F288333B6100BF3A4B1B6803F0FD
:1055F0000103002B05D13B69013B3B613B69002B5B
:10560000F3D1354B1B68DBB2AA2B07D03349334BA0
:105610001B6803F4E062324B13430B604FF080428F
:105620004FF080431B6A23F0030313624FF0804264
:105630004FF080431B6A43F0030313624FF0804234
:105640003B6893604FF080427B68D3634FF08042A9
:10565000BB681363114B00221A604FF080424FF079
:1056600080431B6B23F03F03136300237B6103E044
:1056700000BF7B6901337B617B69632BF8D94FF0F5
:1056800080424FF080431B6B23F03F0343F0010344
:10569000136300BF1837BD4680BD00BF48510840A6
:1056A00004800140ADC5A70044800140C55A7C0A72
:1056B0000C800140148001401080014004820140B0
:1056C0000C8201401482014010820140208201407E
:1056D0000082014020800140008001400CED00E08C
:1056E0000400FA0580B598B000AF78607B68FB6570
:1056F0007B68002B07D107F10803184600F0FAF881
:1057000007F10803FB65FB6D184600F01FF8034620
:10571000A7F85A30B7F85A30002B10D1FFF7E2FD46
:105720000346002B01D0FFF7D5FEFB6D2C33184646
:1057300000F090F8FB6D4833184600F04BF8B7F8CE
:105740005A3018466037BD4680BD00BF80B584B072
:1057500000AF78600023FB817B68002B32D000F023
:10576000F1FD0346FB81FB89002B04D1786800F032
:1057700019FE0346FB81FB89002B23D1144B002229
:105780001A607B6893F82030002B03D07B68DB69BC
:105790000F4A13607B6893F82A30002B12D07B6885
:1057A00024331946012000F043FF0346FB81FB89A7
:1057B000002B07D17B6827331946022000F038FF01
:1057C0000346FB81FB8918461037BD4680BD00BFEC
:1057D000F849FF1F80B584B000AF78607B68002B6C
:1057E00033D07B685B68002B2FD00023FB6027E061
:1057F0007B685968FA6813465B0013445B000B44EE
:105800005B883B817B685968FA6813465B001344E8
:105810005B000B441B790133DBB2BB727B685968B8
:10582000FA6813465B0013445B000B441B8807F1C6
:1058300008021146184601F0D5F9FB680133FB60F8
:105840007B681A68FB689A42D2D800BF1037BD4601
:1058500080BD00BF80B584B000AF78607B681B78E6
:10586000002B14D07B689B7819464FF0804001F0E4
:1058700011FB7B68DB7819464FF08040FFF738FC5E
:105880007B685B7819464FF08040FFF755FC7B68DA
:105890001B79002B07D07B685A797B689B79194666
:1058A000104601F0CBFC7B681B7A002B12D0002342
:1058B000FB730CE0FA7BFB7B796802339B000B44A3
:1058C0005B680B4941F82230FB7B0133FB73FB7BA8
:1058D000022BEFD97B681B7E002B04D07B685B7E9C
:1058E000184601F087FD00BF1037BD4680BD00BFE0
:1058F000FC49FF1F80B483B000AF78607B68012251
:105900009A707B680122DA707B6800221A707B68CB
:1059100000225A707B6801229A717B6800221A71FA
:105920007B6800225A717B68012283F820207B6803
:105930000022DA617B6801221A747B683C4A9A6013
:105940007B6800225A737B6800229A737B6800226E
:10595000DA737B680122DA767B6800221A757B682D
:1059600060225A757B6808229A757B680022DA7576
:105970007B6801225A767B6801229A767B68012235
:1059800083F82A207B68002283F826207B68002287
:1059900083F825207B68012283F824207B6802227B
:1059A00083F829207B68002283F828207B68012265
:1059B00083F827207B681F4ADA647B680D229A648B
:1059C0007B68012283F82C207B68002283F82D203D
:1059D0007B68022283F82E207B68002283F82F2028
:1059E0007B68012283F830207B68002283F8322014
:1059F0007B68022283F831207B68012283F83420FF
:105A00007B6800229A637B680022DA637B6800224D
:105A10001A647B68012283F844207B68002283F8A3
:105A2000452000BF0C37BD465DF8047B704700BFC2
:105A300000127A003800FF1F80B584B000AF034623
:105A40003960FB800023FB810023BB60FB88102BA7
:105A50007AD801A252F823F09D5A0000A75A0000FC
:105A6000B15A0000B95A0000C15A0000C95A0000DA
:105A7000D15A0000D95A0000E15A0000195B000019
:105A8000E95A0000015B0000315B0000255B00006B
:105A9000F55A00000D5B00003D5B0000002000F0A7
:105AA00053FDB86053E0012000F04EFDB8604EE0B9
:105AB00000F002FFB8604AE000F0FEFFB86046E088
:105AC00001F00EF8B86042E000F0E2FFB8603EE09E
:105AD00001F01AF8B8603AE0224B1B68BB6036E070
:105AE00000F074FFB86032E00021032000F056FEA1
