:020000021000EC
:100000001072FF1F0108020051080200510802008F
:1000100051080200510802005108020000000000CF
:100020000000000000000000000000005125020058
:10003000510802000000000061260200C9260200EB
:10004000A9A50100B9A50100C9A50100D9A5010014
:10005000E9A50100F9A5010009A6010019A6010002
:1000600029A6010039A6010049A6010059A60100F0
:1000700069A6010079A6010089A6010099A60100E0
:10008000299301003993010049930100599301001C
:100090006993010091350100AD350100C9350100BA
:1000A000E535010000000000000000006942010089
:1000B000794201008942010000000000B99001006E
:1000C00000000000AD9B0100C1EE0100D1EE010077
:1000D000E1EE0100F1EE010001EF010011EF01007E
:1000E00021EF010031EF01000000000000000000DE
:1000F0000000000000000000D1710100E17101006A
:100100008907020099070200F1070200991E010009
:100110000D9B010051080200314101000541010021
:1001200051080200C56401002565010085650100D4
:10013000D56401003565010095650100E5640100A5
:1001400045650100A5650100F564010055650100E4
:10015000B56501000565010065650100C565010023
:100160001565010075650100D565010000000000FE
:10017000000000000000000000000000000000007F
:100180000000000069500100C5720100713D0100CE
:10019000813D0100913D0100A13D010069A80100E0
:1001A000719A0100659A01007D9A0100F13D0100FC
:1001B000013E0100FFFFFFFFFFFFFFFFFFFFFFFF0B
:1001C00081F0004102E000BF83F0004330B54FEA08
:1001D00041044FEA430594EA050F08BF90EA020F75
:1001E0001FBF54EA000C55EA020C7FEA645C7FEA08
:1001F000655C00F0E2804FEA5454D4EB5555B8BF2B
:100200006D420CDD2C4480EA020281EA030382EA9B
:10021000000083EA010180EA020281EA0303362D2D
:1002200088BF30BD11F0004F4FEA01314FF4801C00
:100230004CEA113102D0404261EB410113F0004F12
:100240004FEA03334CEA133302D0524263EB4303C9
:1002500094EA050F00F0A780A4F10104D5F1200E67
:100260000DDB02FA0EFC22FA05F2801841F10001C2
:1002700003FA0EF2801843FA05F359410EE0A5F196
:1002800020050EF1200E012A03FA0EFC28BF4CF0C7
:10029000020C43FA05F3C01851EBE37101F000457D
:1002A00007D54FF0000EDCF1000C7EEB00006EEB8A
:1002B0000101B1F5801F1BD3B1F5001F0CD3490814
:1002C0005FEA30004FEA3C0C04F101044FEA44526B
:1002D00012F5800F80F09A80BCF1004F08BF5FEAF2
:1002E000500C50F1000041EB045141EA050130BDD2
:1002F0005FEA4C0C404141EB010111F4801FA4F175
:100300000104E9D191F0000F04BF01460020B1FAC9
:1003100081F308BF2033A3F10B03B3F120020CDA01
:100320000C3208DD02F1140CC2F10C0201FA0CF0DF
:1003300021FA02F10CE002F11402D8BFC2F1200C44
:1003400001FA02F120FA0CFCDCBF41EA0C019040FA
:10035000E41AA2BF01EB0451294330BD6FEA040443
:100360001F3C1CDA0C340EDC04F11404C4F120022E
:1003700020FA04F001FA02F340EA030021FA04F340
:1003800045EA030130BDC4F10C04C4F1200220FA97
:1003900002F001FA04F340EA0300294630BD21FAD5
:1003A00004F0294630BD94F0000F83F4801306BF9B
:1003B00081F480110134013D4EE77FEA645C18BF8F
:1003C0007FEA655C29D094EA050F08BF90EA020F26
:1003D00005D054EA000C04BF1946104630BD91EA1E
:1003E000030F1EBF0021002030BD5FEA545C05D121
:1003F0004000494128BF41F0004130BD14F5800460
:100400003CBF01F5801130BD01F0004545F0FE41D3
:1004100041F470014FF0000030BD7FEA645C1ABF08
:10042000194610467FEA655C1CBF0B46024650EA3F
:10043000013406BF52EA033591EA030F41F400216B
:1004400030BD00BF90F0000F04BF0021704730B5F1
:100450004FF4806404F132044FF000054FF00001C6
:1004600050E700BF90F0000F04BF0021704730B587
:100470004FF4806404F1320410F0004548BF40425C
:100480004FF000013EE700BF42004FEAE2014FEAB1
:1004900031014FEA02701FBF12F07F4393F07F4F8C
:1004A00081F06051704792F0000F14BF93F07F4FBE
:1004B000704730B54FF4607401F0004521F0004101
:1004C00020E700BF50EA010208BF704730B54FF087
:1004D00000050AE050EA010208BF704730B511F08C
:1004E000004502D5404261EB41014FF4806404F1C4
:1004F00032045FEA915C3FF4DCAE4FF003025FEA46
:10050000DC0C18BF03325FEADC0C18BF033202EBCD
:10051000DC02C2F1200300FA03FC20FA02F001FA27
:1005200003FE40EA0E0021FA02F11444C1E600BFC6
:100530004FEA410212F5001215D211D56FF478730B
:10054000B3EB625212D94FEAC12343F0004343EAAE
:10055000505311F0004F23FA02F018BF4042704789
:100560004FF00000704750EA013005D111F0004013
:1005700008BF6FF0004070474FF00000704700BFA9
:1005800053B94AB9002908BF00281CBF4FF0FF31FA
:100590004FF0FF3000F07EB9ADF1080C6DE904CEEC
:1005A00000F006F8DDF804E0DDE9022304B070474E
:1005B0002DE9F0478C460E460446089D002B50D18D
:1005C0008A4217466CD9B2FA82FEBEF1000F0BD0F8
:1005D000CEF1200420FA04F401FA0EF644EA060CE7
:1005E00002FA0EF700FA0EF44FEA1749220CBCFB90
:1005F000F9F01FFA87F809FB10C642EA064600FB2D
:1006000008F3B34209D9F61900F1FF3280F02281D4
:10061000B34240F21F8102383E44F61AA2B2B6FB42
:10062000F9F309FB136642EA064403FB08F8A04508
:1006300009D9E41903F1FF3280F00A81A04540F2A4
:100640000781023B3C44C8EB040443EA004000211C
:10065000002D62D024FA0EF400232C606B60BDE8FC
:10066000F0878B4207D9002D55D0002185E8410045
:100670000846BDE8F087B3FA83F1002940F0908086
:10068000B34202D3824200F2F880841A66EB03067A
:100690000120B446002D40D085E81010BDE8F08759
:1006A00012B90127B7FBF2F7B7FA87FEBEF1000FC8
:1006B00035D1F31B4FEA17481FFA87FC0121B3FB22
:1006C000F8F0220C08FB103642EA06460CFB00F359
:1006D000B34207D9F61900F1FF3202D2B34200F259
:1006E000CE801046F61AA2B2B6FBF8F308FB1366EA
:1006F00042EA06440CFB03FCA44507D9E41903F1C4
:10070000FF3202D2A44500F2B5801346CCEB0404BC
:1007100043EA00409CE729462846BDE8F087CEF131
:10072000200106FA0EF307FA0EF720FA01F94FEA54
:100730001748CE4049EA0309B6FBF8FA4FEA1944D4
:1007400008FB1A661FFA87FC44EA06430AFB0CF210
:100750009A4200FA0EF40AD9DB190AF1FF3180F04F
:1007600087809A4240F28480AAF1020A3B449B1A95
:100770001FFA89F9B3FBF8F108FB113349EA034387
:1007800001FB0CF69E4207D9DB1901F1FF326BD257
:100790009E4269D902393B449B1B41EA0A418EE7DC
:1007A000C1F1200E22FA0EF48B40234320FA0EF7FB
:1007B00006FA01F44FEA134C26FA0EF63C43B6FB58
:1007C000FCF9270C0CFB19661FFA83F847EA06466A
:1007D00009FB08F7B74202FA01F200FA01FA08D958
:1007E000F61809F1FF3041D2B7423FD9A9F1020909
:1007F0001E44F61BA0B2B6FBFCF40CFB146640EAE8
:10080000064704FB08F8B84507D9FF1804F1FF3084
:1008100028D2B84526D9023C1F4444EA0940C8EB17
:100820000707A0FB02894F4544464E4614D329D002
:1008300065B3BAEB040367EB060707FA0EFECB407D
:10084000CF404EEA030385E888000021BDE8F08729
:100850001346F8E61046E0E6B8EB020469EB03063F
:100860000138E5E70446D8E7114695E78146C0E739
:100870008A467CE7023B3C4448E708460AE70238E0
:100880003E442FE7C245E7D33E46D1E72946BDE8BF
:10089000F08700BF704700BF844641EA000313F0B1
:1008A00003036DD1403A41D351F8043B40F8043B77
:1008B00051F8043B40F8043B51F8043B40F8043B3A
:1008C00051F8043B40F8043B51F8043B40F8043B2A
:1008D00051F8043B40F8043B51F8043B40F8043B1A
:1008E00051F8043B40F8043B51F8043B40F8043B0A
:1008F00051F8043B40F8043B51F8043B40F8043BFA
:1009000051F8043B40F8043B51F8043B40F8043BE9
:1009100051F8043B40F8043B51F8043B40F8043BD9
:1009200051F8043B40F8043B403ABDD2303211D379
:1009300051F8043B40F8043B51F8043B40F8043BB9
:1009400051F8043B40F8043B51F8043B40F8043BA9
:10095000103AEDD20C3205D351F8043B40F8043B79
:10096000043AF9D2043208D0D2071CBF11F8013B77
:1009700000F8013B01D30B8803806046704700BF3D
:10098000082A13D38B078DD010F003038AD0C3F14C
:100990000403D21ADB071CBF11F8013B00F8013B2E
:1009A00080D331F8023B20F8023B7BE7043AD9D3ED
:1009B000013A11F8013B00F8013BF9D20B780370C2
:1009C0004B7843708B7883706046704780B483B0F7
:1009D00000AF0346FB71FB79072B02D99FED147A18
:1009E0001CE0FB79134A32F81330B3F5805F05D36E
:1009F000FB79104A40F6FF7122F81310FB790D4A7B
:100A000032F8133007EE903AF8EEE77A9FED0A7A63
:100A100067EE877ADFED096A87EEA67AF0EE477A0D
:100A2000B0EE670A0C37BD465DF8047B704700BF27
:100A300000000000000000203333534000F07F45E9
:100A400080B500AF00220221134808F003FC002209
:100A50000321114808F0FEFB002200210F4808F096
:100A6000F9FB002201210D4808F0F4FB00220021CF
:100A7000094808F0EFFB00220121074808F0EAFBD3
:100A800000220221054808F0E5FB0022032103486B
:100A900008F0E0FB00BF80BD005408400053084050
:100AA00080B582B002AF0123114A1249124809F001
:100AB00063FA124A10230193012300931346104A4C
:100AC0000021002009F088FB0E4A0D49002009F0A2
:100AD000EFFC0421002009F007FD0121002009F0AE
:100AE00061FC002009F078FC00BFBD4680BD00BF5E
:100AF00020B102001CB102000000FF1F0000002016
:100B0000E83000400831004080B584B000AF786024
:100B10000B46FB701346BB7007F10C0318460FF031
:100B2000FFFABB783B7300237B730023BB7307F191
:100B30000C02FB78194678680FF008FB00BF1037ED
:100B4000BD4680BD80B588B000AF1022002132487C
:100B50001AF0E2F9FFF774FF00200EF0B1FF3B1D21
:100B600018460FF067F905233B7100237B710023C2
:100B7000FB7100233B7201237B720023BB720123B4
:100B8000FB7201233B7300237B730023BB730023A1
:100B9000FB7300233B7400237B740823BB74002386
:100BA000FB7401233B773B1D194600200FF086F9AB
:100BB00000200FF0A5F80A2200210020FFF7A4FF73
:100BC0000B2201210020FFF79FFF042202210020B9
:100BD000FFF79AFF052203210020FFF795FF082267
:100BE00004210020FFF790FF092205210020FFF7D4
:100BF0008BFF062206210020FFF786FF0722072130
:100C00000020FFF781FFFFF74BFF00200FF0AAFB4A
:100C100000BF2037BD4680BD0000002090B583B0E6
:100C200000AF0023FB7184E0FA79464913465B006C
:100C300013449B000B441868FA79424913465B0041
:100C400013449B000B4408331B780122194608F01B
:100C500001FBFA793B4913465B0013449B000B44AC
:100C600009331B78012B36D1FA79364913465B00DC
:100C700013449B000B4404331868FA793149134636
:100C80005B0013449B000B4408331B780122194678
:100C900008F0F2FAFA792B4913465B0013449B00E3
:100CA0000B4404331868FA79264913465B00134451
:100CB0009B000B4408331B781C46FA7921491346E4
:100CC0005B0013449B000B440A331B781A462146F1
:100CD00008F0E4FA2AE0FA791A4913465B00134453
:100CE0009B000B4404331868FA79164913465B00DD
:100CF00013449B000B4408331B780022194608F06C
:100D0000BBFAFA790F4913465B0013449B000B446E
:100D10001868FA790B4913465B0013449B000B4497
:100D200008331B780222194608F082FAFB79013356
:100D3000FB71FB790E2B7FF677AF00BF0C37BD46FA
:100D400090BD00BF5000FF1F80B582B000AF0346CA
:100D5000FB71FB790E2B01D900231AE0FA790F49B8
:100D600013465B0013449B000B4404331B68184676
:100D700008F0A6FAFA79094913465B0013449B0070
:100D80000B4408331B7820FA03F3DBB203F00103B2
:100D9000DBB218460837BD4680BD00BF5000FF1FBC
:100DA00080B582B000AF03460A46FB711346BB71A3
:100DB000FB790E2B27D8FA79154913465B001344AB
:100DC0009B000B4409331B78012B1CD1FA79104985
:100DD00013465B0013449B000B4404331868FA79F4
:100DE0000B4913465B0013449B000B4408331B78EC
:100DF0001946BB79002B14BF01230023DBB21A462E
:100E000008F04CFA00E000BF0837BD4680BD00BFC7
:100E10005000FF1F80B500AF02220C21044808F0EB
:100E200019FA02220D21024808F014FA00BF80BD11
:100E30000053084080B594B000AFFFF7EBFF07F117
:100E400038031822002118461AF066F807F1280323
:100E50001022002118461AF05FF83B1D24220021C1
:100E600018461AF059F8002387F8383000237B879A
:100E7000002387F83C30022387F83D30002387F8B1
:100E80003E30002387F83F30002387F840300023AE
:100E900087F84130002387F84230012387F8443037
:100EA0000023A7F84630002387F84830022387F84C
:100EB0004930002387F84A30002387F84B3000235D
:100EC00087F84C30002387F84D30002387F84E30E8
:100ED000002387F82830022387F82930002387F879
:100EE0002A30002387F82B3007F13803FB620023F8
:100EF0003B63012387F83430002387F83530002323
:100F000087F83630002387F8373000233B7107F12C
:100F10002803BB6001233B73C723FB8101233B8272
:100F200041F270737B8200233B7501237B750023A4
:100F3000BB750023FB7500233B7600237B760023E3
:100F4000BB760023FB7600233B7700233B62002324
:100F50007B623B1D1946002004F03EFB00BF50376A
:100F6000BD4680BD80B582B000AF0346FB80FB88E4
:100F7000002B09D0FB88064AB2FBF3F39BB219465B
:100F8000002004F04BFC00E000BF0837BD4680BDE8
:100F9000C027090080B582B000AF002004F056FCE5
:100FA0000346FB80FB88044AB2FBF3F39BB218466E
:100FB0000837BD4680BD00BFC027090080B584B09A
:100FC00000AF03460A46FB711346BB71002004F0D4
:100FD0003DFC0346FB81FB89BA7902FB03F3084A17
:100FE00082FB03125211DB17D31A9AB2FB7919460E
:100FF000002004F0D9FB00BF1037BD4680BD00BF04
:101000001F85EB5180B584B000AF0346FB71002013
:1010100004F01CFC0346FB81FB791946002004F018
:10102000E1FB0346BB81FB89002B08D0BB8964220E
:1010300002FB03F2FB8992FBF3F3DBB200E0002337
:1010400018461037BD4680BD80B400AF0D4B4FF43D
:1010500080329A600C4B1B78DBB2002B06D00A4B17
:101060001B78DBB2013BDAB2074B1A70064B1B78D8
:10107000DBB2002B00D162B600BFBD465DF8047B39
:10108000704700BF00ED00E07007FF1F80B500AFA4
:101090000FF068FCFFF7D8FF0FF064FDFEE700BF1C
:1010A00080B483B000AF03460A46FB711346BB71A0
:1010B000104B00221A700F4B5A680E4B1B78591CAC
:1010C000C8B20C4908701344FA79803AD2B21A7047
:1010D000084B5A68074B1B78591CC8B20549087061
:1010E0001344BA791A7000BF0C37BD465DF8047B13
:1010F000704700BF1C01FF1F80B485B000AF0346DE
:101100003A60FB800B467B710123FB730023BB73AA
:101110004BE0BB7B5B001A463B6813441B789BB2D9
:101120001B029AB2BB7B5B00013339680B441B780E
:101130009BB213447B8100237B730FE0FA88BB7B57
:10114000D1187A7B1E4813465B0013449B0003446E
:101150001B88994206D07B7B01337B737B7B1A2BE8
:10116000ECD900E000BF7B7B1B2B1AD07A7B1449A3
:1011700013465B0013449B000B4402331B887A899F
:101180009A420BD37A7B0E4913465B0013449B00B3
:101190000B4404331B887A899A4203D90023FB73DA
:1011A00007E000BFBB7B0133BB73BA7B7B799A42FC
:1011B000AFD3FB7B18461437BD465DF8047B704700
:1011C00024B1020080B485B000AF03463960FB80D3
:1011D0000023FB7309E0FB7B104A32F83330FA88B6
:1011E0009A4206D0FB7B0133FB73FB7B092BF2D9C0
:1011F00000E000BFFB7B0A2B03D13B6800221A6092
:1012000007E0FB7B054ADB0013445A683B681A6021
:1012100000BF1437BD465DF8047B704768B202001A
:1012200080B586B000AF78600B46FB70464A07F188
:101230000803083292E8030083E80300FB78042BDC
:1012400004D003210320FFF72BFF79E07B681B7894
:101250009BB21B029AB27B6801331B789BB213448A
:10126000BB827B6802331B789BB21B029AB27B68FD
:1012700003331B789BB213447B823B89BA8A9A4220
:1012800008D3BA8A7B8A1A443B891946BB7A0B4435
:101290009A4204DD02210320FFF702FF50E02B4BAE
:1012A00000221A70294B5A68284B1B78591CC8B267
:1012B00026490870134403221A70244B5A68234BA2
:1012C0001B78591CC8B22149087013447A8AD2B2DB
:1012D0005200D2B21A70BB8ADAB23B89DBB2D31A9F
:1012E000FB7524E0194B5A68184B1B78591CC8B27F
:1012F000164908701344F968FA7D52000A441288AE
:10130000120A92B2D2B21A70104B5A680F4B1B7865
:10131000591CC8B20D4908701344F968FA7D52008F
:101320000A441288D2B21A70FB7D0133FB75FA7D34
:10133000BB8A3989591A7B8A0B449A42D2DB00BF97
:101340001837BD4680BD00BF0401FF1F1C01FF1FF1
:1013500080B586B000AF78600B46FB70454A07F158
:10136000080392E8030083E80300FB78042B04D011
:1013700003210420FFF794FE79E07B681B789BB281
:101380001B029AB27B6801331B789BB21344BB8269
:101390007B6802331B789BB21B029AB27B680333D3
:1013A0001B789BB213447B823B89BA8A9A4208D34A
:1013B000BA8A7B8A1A443B891946BB7A0B449A4203
:1013C00004DD02210420FFF76BFE50E02A4B0022CF
:1013D0001A70294B5A68284B1B78591CC8B22649E9
:1013E0000870134404221A70234B5A68224B1B784E
:1013F000591CC8B22049087013447A8AD2B25200EC
:10140000D2B21A70BB8ADAB23B89DBB2D31AFB754F
:1014100024E0194B5A68184B1B78591CC8B216495E
:1014200008701344F968FA7D52000A441288120ABF
:1014300092B2D2B21A70104B5A680F4B1B78591CDB
:10144000C8B20D4908701344F968FA7D52000A4485
:101450001288D2B21A70FB7D0133FB75FA7DBB8A0C
:101460003989591A7B8A0B449A42D2DB00BF18375C
:10147000BD4680BD0401FF1F1C01FF1F80B586B063
:1014800000AF78600B46FB700023BB60FB78042B39
:1014900004D003210620FFF703FEBAE07B681B7827
:1014A0009BB21B029AB27B6801331B789BB2134438
:1014B000FB827B6802331B789BB21B029AB27B686B
:1014C00003331B789BB21344BB82534B1B89FA8AAC
:1014D0009A4211D3FA8A504B1B8919464E4B9B7A7C
:1014E0000B449A4208DA4C4A07F10C03083292E89E
:1014F000030083E803001BE0474B1B8AFA8A9A42E9
:1015000011D3FA8A444B1B8A1946434B9B7C0B44EC
:101510009A4208DA404A07F10C03103292E80300BD
:1015200083E8030004E002210620FFF7B9FD70E024
:101530007B689A1CFB8A01211846FFF7DDFD0346F4
:10154000002B04D103210620FFF7AAFD61E03A69D0
:10155000FB8AB9895B1A5B0013441B88BA8A9A42DA
:1015600014D03A69FB8AB9895B1A5B001344BA8AC2
:101570001A8007F10802FB8A11461846FFF722FE7F
:10158000BB68002B02D0BB68BA8A1A80234B0022AA
:101590001A70224B5A68214B1B78591CC8B21F493C
:1015A0000870134406221A701C4B5A681B4B1B7898
:1015B000591CC8B2194908701344FA8A120A92B227
:1015C000D2B21A70154B5A68144B1B78591CC8B20A
:1015D000124908701344FA8AD2B21A700F4B5A6833
:1015E0000E4B1B78591CC8B20C4908701344BA8AB8
:1015F000120A92B2D2B21A70084B5A68074B1B7883
:10160000591CC8B2054908701344BA8AD2B21A707C
:1016100000BF1837BD4680BD0401FF1F1C01FF1F1E
:1016200080B58AB000AF78600B46FB706F4A07F157
:101630001003083292E8030083E80300FB78032BD1
:1016400004D803211020FFF72BFDCBE07B681B782B
:101650009BB21B029AB27B6801331B789BB2134486
:10166000BB847B6802331B789BB21B029AB27B68F7
:1016700003331B789BB213447B84FA787B8C5B002A
:1016800005339A4204D003211020FFF709FDA9E099
:101690003B8ABA8C9A4208D3BA8C7B8C1A443B8A18
:1016A0001946BB7C0B449A4204DD02211020FFF74F
:1016B000F7FC97E07B8CD9B27B685A1DBB8C18462F
:1016C000FFF71AFD0346002B04D103211020FFF77A
:1016D000E7FC87E0002387F827303AE07A69BB8C83
:1016E000398A591A97F827300B445B001344FB6181
:1016F00097F827305B0005337A6813441B789BB258
:101700001B029AB297F827305B00063379680B44C6
:101710001B789BB213447B830023FB60FB691B880F
:101720007A8B9A4210D0FB697A8B1A80FB691B88EE
:1017300007F10C0211461846FFF744FDFB68002B29
:1017400002D0FB687A8B1A8097F82730013387F82C
:10175000273097F827309BB27A8C9A42BED8244B18
:1017600000221A70224B5A68214B1B78591CC8B2B0
:101770001F490870134410221A701D4B5A681C4BE5
:101780001B78591CC8B21A4908701344BA8C120A43
:1017900092B2D2B21A70164B5A68154B1B78591C6C
:1017A000C8B2134908701344BA8CD2B21A70104BE5
:1017B0005A680F4B1B78591CC8B20D490870134466
:1017C0007A8C120A92B2D2B21A70094B5A68084B3C
:1017D0001B78591CC8B20649087013447A8CD2B2DF
:1017E0001A7000BF2837BD4680BD00BF0401FF1F2F
:1017F0001C01FF1F80B582B000AF78600B46FB7004
:101800007B68002B5ED0FB78002B5BD07B681B785D
:10181000033B0D2B46D801A252F823F055180100C6
:1018200069180100A51801007D180100A518010024
:10183000A5180100A5180100A5180100A5180100B0
:10184000A5180100A5180100A5180100A5180100A0
:10185000911801007B685A1CFB78013BDBB21946EA
:101860001046FFF7DDFC24E07B685A1CFB78013B47
:10187000DBB219461046FFF76BFD1AE07B685A1C75
:10188000FB78013BDBB219461046FFF7F7FD10E08D
:101890007B685A1CFB78013BDBB219461046FFF708
:1018A000BFFE06E07B681B7801211846FFF7F8FBB6
:1018B00000BF064B5A68054B1B781946104618F0B6
:1018C000EBFB00E000BF0837BD4680BD1C01FF1FD9
:1018D00090B587B000AF0446084611461A46234625
:1018E000FB800346BB800B46FB701346BB70002396
:1018F000BB605B4B1B88FA889A4210D3FA88584B1E
:101900001B881946564B9B780B449A4207DA544A77
:1019100007F1100392E8030083E803002CE0504B2A
:101920001B89FA889A4211D3FA884D4B1B891946B4
:101930004B4B9B7A0B449A4208DA494A07F1100351
:10194000083292E8030083E8030015E0444B1B8A49
:10195000FA889A427DD3FA88414B1B8A1946404B3C
:101960009B7C0B449A4274DA3D4A07F11003103213
:1019700092E8030083E80300FB78002B31D1BB8899
:101980001B0A9BB2DBB23B73BB88DBB27B7307F1F4
:101990000C02FB8801211846FFF7AEFB0346012B22
:1019A00059D17A69FB88398A5B1A5B0013441B881A
:1019B000BA889A424FD07A69FB88398A5B1A5B00F1
:1019C0001344BA881A8007F10802FB8811461846AA
:1019D000FFF7F8FBBB68002B3DD0BB68BA881A80C4
:1019E00039E0BB8803F00103002B19D17A69FB8829
:1019F000398A5B1A5B0013447969FA88388A121AAB
:101A000052000A44128811B2BA78012000FA02F298
:101A100012B2D24312B20A4012B292B21A801AE043
:101A20007A69FB88398A5B1A5B0013447969FA8802
:101A3000388A121A52000A44128811B2BA78012068
:101A400000FA02F212B20A4312B292B21A8000BF36
:101A500001E000BF00E000BF1C37BD4690BD00BFE5
:101A60000401FF1F80B487B000AF0346FB800B4624
:101A70007B7113463B710023FB82344B1B88FA8831
:101A80009A4210D3FA88314B1B8819462F4B9B780A
:101A90000B449A4207DA2D4A07F10C0392E803003F
:101AA00083E803002FE0294B1B89FA889A4211D35F
:101AB000FA88264B1B891946244B9B7A0B449A4281
:101AC00008DA224A07F10C03083292E8030083E89F
:101AD000030018E01D4B1B8AFA889A4211D3FA883A
:101AE0001A4B1B8A1946194B9B7C0B449A4208DA05
:101AF000164A07F10C03103292E8030083E8030052
:101B000001E0FB8A1BE07B79002B08D13A69FB8856
:101B1000B9895B1A5B0013441B88FB820EE03A69AB
:101B2000FB88B9895B1A5B0013441B881A463B7912
:101B300042FA03F39BB203F00103FB82FB8A1846CF
:101B40001C37BD465DF8047B704700BF0401FF1FD2
:101B500080B582B000AF14223549402013F04AF816
:101B60000023FB715DE00023BB7110E0FB79314A7B
:101B700032F83310BA79304813465B0013449B00A7
:101B800003441B88994206D0BB790133BB71BB79F2
:101B90001A2BEBD900E000BFBB791A2B30D8FB79A8
:101BA000244ADB0013445B681988BA79224813463B
:101BB0005B0013449B00034402331B88994210D3FB
:101BC000FB791C4ADB0013445B681988BA791A4810
:101BD00013465B0013449B00034404331B88994263
:101BE0000ED9FB79134ADB0013445968BA791248BD
:101BF00013465B0013449B00034402331B880B8095
:101C0000FB790C4A32F83300FB790A4ADB001344B3
:101C10005B68198800230022FFF75AFEFB79013325
:101C2000FB71FB79092B9ED900BF0837BD4680BDEB
:101C3000BC51FF1F68B2020024B1020080B400AFA3
:101C4000044B1B889BB2DBB21846BD465DF8047B93
:101C5000704700BFBC51FF1F80B483B000AF0023AA
:101C6000FB800E4B5B889BB2012B08D0022B0AD065
:101C7000002B00D00BE04FF41653FB8007E04FF42D
:101C80009653FB8003E04FF49643FB8000BFFB8834
:101C900018460C37BD465DF8047B7047BC51FF1FEA
:101CA00080B483B000AF0023FB71084B5B68C3F3C3
:101CB00008033B603B68002B01D00123FB71FB79DB
:101CC00018460C37BD465DF8047B704700ED00E018
:101CD0002DE9B04F00AF11F009FD034618464FF053
:101CE000000102460B464FEA830B4BEA927B4FEA18
:101CF000820A52465B465D0145EAD2655401A41A48
:101D000065EB0305241845EB01054FEAC50949EACF
:101D100054794FEAC40844464D462046294642F2CB
:101D200010724FF00003FEF72BFC03460C461846DA
:101D3000BDE8B08F80B586B000AF786000237B61CE
:101D40007B681B683B61FFF7ABFF0346FB73FB7BC4
:101D5000002B17D00023BB6007F108031946386930
:101D600010F0B0FE78617B69012B12D1BB68002BAB
:101D70000FD00E4B4FF080521A60BFF34F8FBFF35E
:101D80006F8F06E0002300220021386910F0D4FD97
:101D900078617B69012B14BF01230023DBB2BB8177
:101DA000BB8918461837BD4680BD00BF04ED00E072
:101DB00080B584B000AF78600B46FB700023FB81D8
:101DC000FB781946FF2010F097FD02467B681A60E9
:101DD0007B681B68002B01D10123FB81FB8918461E
:101DE0001037BD4680BD00BF80B584B000AF7860BD
:101DF0007B681B68FB60F86810F072FF00231846D0
:101E00001037BD4680BD00BF80B483B000AF78609E
:101E10007B685B6843F040027B685A6000BF0C3708
:101E2000BD465DF8047B704780B483B000AF786036
:101E30007B68074A9A607B689B687B68054A9A6062
:101E40007B689B6800BF0C37BD465DF8047B70471C
:101E500087D964E078848A8680B584B000AF034671
:101E6000FB710B4BFB60F868FFF7DEFFF868FFF7CC
:101E7000CBFFFB79074A52F82330002B04D0FB79C3
:101E8000044A52F82330984700BF1037BD4680BD42
:101E900000B00040B405FF1F80B500AF0020FFF781
:101EA000DBFF00BF80BD00BF80B483B000AF03463E
:101EB000FB7197F90730002B0BDB094997F90730C5
:101EC0005B09FA7902F01F02012000FA02F241F8E0
:101ED000232000BF0C37BD465DF8047B704700BF70
:101EE00000E100E080B483B000AF78600B46FB7087
:101EF0007B681B6923F00202FB78002B01D00223D0
:101F000000E000231A437B681A6100BF7B681B69ED
:101F100003F00203002B14BF01230023DBB21A4697
:101F2000FB789A42F2D100BF0C37BD465DF8047BC6
:101F3000704700BF80B483B000AF78600B46FB7081
:101F40007B681B6923F00102FB78002B01D0012381
:101F500000E000231A437B681A6100BF7B681B699D
:101F600003F00103002B14BF01230023DBB21A4648
:101F7000FB789A42F2D100BF0C37BD465DF8047B76
:101F8000704700BF80B483B000AF78600B46FB7031
:101F9000FB7803F003027B689A6200BF0C37BD46F2
:101FA0005DF8047B704700BF80B483B000AF7860F9
:101FB0000B46FB707B68DB6823F00402FB789B0018
:101FC0001A437B68DA6000BF0C37BD465DF8047BBE
:101FD000704700BF80B483B000AF78600B46FB70E1
:101FE0007B681B6C23F00202FB78002B01D00223DC
:101FF00000E000231A437B681A6400BF0C37BD461B
:102000005DF8047B704700BF80B483B000AF786098
:102010000B46FB707B681B6C23F00102FB78002BE6
:1020200001D0012300E000231A437B681A6400BF3B
:102030000C37BD465DF8047B704700BF80B483B0A9
:1020400000AF78600B46FB70FA787B681A6000BFBF
:102050000C37BD465DF8047B704700BF80B483B089
:1020600000AF786039607B681B68DAB23B681A7031
:1020700000BF0C37BD465DF8047B704780B483B069
:1020800000AF78600B46FB707B685B6923F0010250
:10209000FB781A437B685A6100BF0C37BD465DF878
:1020A000047B704780B485B000AF78609E23FB60EE
:1020B0007B68FA681A6200BF1437BD465DF8047B7E
:1020C000704700BF80B483B000AF7860044A7B687B
:1020D00052F8233018460C37BD465DF8047B704734
:1020E000B8B2020080B58CB000AFF860B9607A6019
:1020F00000237B8500233B855A4AFB6852F8233036
:102100007B620023FB620023BB61574AFB6832F805
:1021100013307B840023FB6107F11403194601206F
:102120000AF028F907F118027B8C114618460AF0CC
:1021300021F9BB68FB610023FB6207E0FA69FB6AD7
:10214000134400221A70FB6A0133FB62FB6A3B2BCB
:10215000F4D94649FB68BA6841F823207B68DB79EB
:10216000002B05D1BA697B699A4201D0042375E03E
:102170007B68DA79BB6883F828207B689A79BB682A
:102180001A757B681A7ABB6883F829207B685A7AAB
:10219000BB6883F82A20364AFB68364942F8231088
:1021A000F86800F0B3FF7B681B681946F86800F018
:1021B00021F97B689B791946786A00F0C7FF7B6834
:1021C0001B791946786A00F0D5FF7B685B79194660
:1021D000786AFFF7E9FE0121786AFFF74FFFBB68D5
:1021E00000229A86BB680022DA86BB682C33002165
:1021F0001846FFF7DDFD03467B85BB6830330021C1
:102200001846FFF7D5FD03463B857B8D012B02D099
:102210003B8D012B01D1012320E07B68DA68BB688C
:102220009A617B681A69BB68DA617B685A69BB6826
:102230001A627B689A69BB685A620F4AFB6813444A
:1022400093F900301846FFF72FFE0121786AFFF757
:1022500049FE0121786AFFF76DFE002318463037EA
:10226000BD4680BDB8B20200CCB20200B805FF1F67
:102270002401FF1F29250100C8B2020080B586B0E5
:1022800000AFF860B9607A600023FB82144AFB68F3
:1022900052F823303B61BB68002B02D07B68002BD7
:1022A00001D1042317E03B6900229A743B6993F83B
:1022B0002830012B07D17A68B968F86800F07EFBF6
:1022C0000346FB8206E07A68B968F86800F0AAFB6A
:1022D0000346FB82FB8A18461837BD4680BD00BF07
:1022E000B805FF1F80B584B000AF7860114A7B68E5
:1022F00052F82330FB60FB681B7CDBB283F00103E8
:10230000DBB2002B01D0002310E0FB6840F2026238
:102310009A86FB6893F82830012B03D1786800F087
:10232000E7FB02E0786800F067FE002318461037EC
:10233000BD4680BDB805FF1F80B586B000AFF86010
:10234000B9607A600023FB82144AFB6852F823309C
:102350003B61BB68002B02D07B68002B01D10423BA
:1023600017E03B690022DA743B6993F82830012BAF
:1023700007D17A68B968F86800F050FC0346FB8220
:1023800006E07A68B968F86800F082FC0346FB82D0
:10239000FB8A18461837BD4680BD00BFB805FF1F31
:1023A00080B584B000AF7860114A7B6852F8233062
:1023B000FB60FB685B7CDBB283F00103DBB2002BCC
:1023C00001D0002310E0FB6840F20262DA86FB686D
:1023D00093F82830012B03D1786800F0D5FC02E097
:1023E000786800F045FE002318461037BD4680BDD2
:1023F000B805FF1F80B588B000AF78603960002352
:10240000BB601023FB610023FB76334A7B6832F804
:1024100013303B83314A7B6852F823307B61304A6A
:102420007B6852F823303B614FF00003FB603B694F
:10243000002B0BD03B691B7CDBB2002B04D13B692A
:102440005B7CDBB2002B01D0022340E007F10802E5
:102450003B8B1146184609F08DFF3B689A00BB681C
:102460009A4216D20223FB760423FB613B68DA0012
:10247000BB689A420FD20123FB760823FB613B68BD
:102480001A01BB689A4206D20023FB761023FB6137
:1024900001E001231BE0BB6807EE903AF8EE676AA3
:1024A0003B68FA6902FB03F307EE903AB8EE677AED
:1024B000C6EE877AC7ED037AFB7E19467869FFF787
:1024C00061FD97ED030A786900F0BEFE002318460F
:1024D0002037BD4680BD00BFCCB20200B8B20200BA
:1024E000B805FF1F80B487B000AFF860B9607A60AC
:1024F000BB68002B02D07B68002B01D104230BE0CA
:10250000084AFB6852F823307B617B69BA685A60DD
:102510007B697A68DA60002318461C37BD465DF88F
:10252000047B7047B805FF1F80B584B000AF7860AA
:10253000404A7B6852F82330FB603F4A7B6852F880
:102540002330BB60786800F061F94FF44031F868DF
:1025500000F026FF0346002B0AD04FF48031F868C4
:1025600000F074FF0346002B02D0786800F074F886
:102570003249F86800F014FF0346002B09D03049B7
:10258000F86800F063FF0346002B02D0786800F083
:10259000AFF82C49F86800F003FF0346002B09D080
:1025A0002949F86800F052FF0346002B02D07868F2
:1025B00000F002F92549F86800F0F2FE0346002B0E
:1025C00015D02349F86800F041FF0346002B0ED0D8
:1025D0001F49F86800F06CFFBB689B69002B06D0B0
:1025E000BB689B69BA68D2690421B86898471949E1
:1025F000F86800F0D5FE0346002B17D04FF40031E9
:10260000F86800F023FF0346002B0FD04FF4003191
:10261000F86800F04DFFBB689B69002B06D0BB68D3
:102620009B69BA68D2690521B868984700BF10371E
:10263000BD4680BDB8B20200B805FF1F010003000F
:102640000500010002000300060001000200040072
:10265000080002000400060080B584B000AF786076
:10266000224A7B6852F82330FB60786800F088FCCF
:10267000FB681B7D022B0AD0FB685B685A1CFB6859
:102680005A60FB68DB685A1EFB68DA6009E0FB6889
:102690005B689A1CFB685A60FB68DB689A1EFB68E3
:1026A000DA60FB68DB68002B0AD1FB689B69002BB2
:1026B00006D0FB689B69FA68D2690021F8689847E0
:1026C000FB68DB68002B0DD1786800F05DFBFB68D0
:1026D0009B69002B06D0FB689B69FA68D2690221CE
:1026E000F868984700BF1037BD4680BDB805FF1F8A
:1026F00080B584B000AF78602B4A7B6852F82330F5
:10270000FB602A4A7B6852F82330BB60FB689B68F9
:10271000002B45D0786800F0F5FBFB681B7D022B91
:1027200013D0FB689B68012B04D101222049B868B3
:1027300000F0BEFDFB681B685A1CFB681A60FB6852
:102740009B685A1EFB689A6012E0FB689B68022B2C
:1027500004D101221649B86800F0AAFDFB681B6885
:102760009A1CFB681A60FB689B689A1EFB689A605B
:10277000FB689B68002B13D1FB681B6A002B06D0FB
:10278000FB681B6AFA68526A0121F8689847FB687F
:102790009B68002B04D100220649B86800F088FD30
:1027A00000BF1037BD4680BDB805FF1FB8B202009C
:1027B000020003000100030080B584B000AF786020
:1027C000114A7B6852F82330FB60FB689B68002B42
:1027D00016D1FB6893F82830012B03D1786800F0FC
:1027E00087F902E0786800F007FCFB681B6A002BA1
:1027F00006D0FB681B6AFA68526A0221F86898479B
:1028000000BF1037BD4680BDB805FF1F80B584B03E
:1028100000AF7860634A7B6852F82330FB60624AFD
:102820007B6852F82330BB604FF00111B86800F0AC
:102830000DFE0346002B1DD0FB6840F20162DA86D4
:10284000FB6893F82830012B03D1786800F09CFADC
:1028500002E0786800F00CFCFB689B69002B06D056
:10286000FB689B69FA68D2690321F8689847B868E1
:10287000FFF718FC4D49B86800F0E8FD0346002B4F
:102880001DD0FB6840F20462DA86FB6893F82830BA
:10289000012B03D1786800F077FA02E0786800F045
:1028A000E7FBFB689B69002B06D0FB689B69FA6815
:1028B000D2690321F8689847B868FFF7F3FB3C49F1
:1028C000B86800F0C3FD0346002B1DD0FB6840F242
:1028D0000362DA86FB6893F82830012B03D178680D
:1028E00000F052FA02E0786800F0C2FBFB689B69D6
:1028F000002B06D0FB689B69FA68D2690321F8684F
:102900009847B868FFF7CEFB2A49B86800F09EFDEB
:102910000346002B1DD0FB6840F20562DA86FB6897
:1029200093F82830012B03D1786800F02DFA02E0EB
:10293000786800F09DFBFB689B69002B06D0FB6864
:102940009B69FA68D2690321F8689847B868FFF76D
:10295000A9FB1949B86800F079FD0346002B1DD08A
:10296000FB6840F20662DA86FB6893F82830012B98
:1029700003D1786800F008FA02E0786800F078FB8C
:10298000FB689B69002B06D0FB689B69FA68D269DB
:102990000321F8689847B868FFF784FB00BF103739
:1029A000BD4680BDB805FF1FB8B20200020001009D
:1029B00003000100040001000700010080B586B09B
:1029C00000AFF860B9607A60134AFB6852F82330B0
:1029D0007B61124AFB6852F823303B613B691B7CE8
:1029E000DBB2002B01D0022311E03B69BA681A6008
:1029F0003B697A689A603B6901221A743B6902223A
:102A00009A8601220649786900F052FC0023184694
:102A10001837BD4680BD00BFB8B20200B805FF1F21
:102A20000100030080B58AB002AFF860B9607A6037
:102A30002C4AFB6852F82330BB612B4AFB6852F8E2
:102A400023307B610023FB777B691B7CDBB2002B8F
:102A500001D0022342E00121B869FFF7BBFA7B698C
:102A6000BA681A607B6900229A607B6901221A7435
:102A70007B6902229A8600237B827B691B7D022B65
:102A800002D10123FB7701E00023FB777B6993F8F8
:102A90002A00BA68BB6919467B680193FB7F0093E3
:102AA0000B46012107F098FB03467B827B8A002BB3
:102AB00001D07B8A12E07B6993F82A30FA680B49CF
:102AC000184607F00BFB7B6993F82A30184607F08D
:102AD00083FC0121B869FFF705FA00231846203767
:102AE000BD4680BDB8B20200B805FF1F652B0100CE
:102AF00080B584B000AF7860164A7B6852F8233006
:102B0000FB60154A7B6852F82330BB60BB689B8E24
:102B10009BB2022B03D1BB6800229A8604E00022FC
:102B20000E49F86800F0C4FB00220D49F86800F077
:102B3000BFFBBB6800221A74BB689B7CDBB2002B16
:102B400004D0BB6830331846FFF7F4F800BF1037E5
:102B5000BD4680BDB8B20200B805FF1F01000300EA
:102B60000200030080B584B000AF78600B46FB70B4
:102B70007B68FB60284AFB6852F82330BB60FB7817
:102B8000012B11D1BB6801229A86F86800F034FA53
:102B9000BB681B6A002B3BD0BB681B6ABA68526AD1
:102BA0000321B868984733E0BB681B6A002B06D046
:102BB000BB681B6ABA68526A0121B8689847BB684B
:102BC0009B68002B21D0BB6893F82A00BB681B6868
:102BD0001946BB681A68BB689B6813441A4607F01D
:102BE00067FCBB6893F82A20BB689B689BB21946B8
:102BF000104607F021FCBB6800229A60BB6893F87E
:102C00002A30184607F0E8FB02E0F868FFF7D4FD29
:102C100000BF1037BD4680BDB805FF1F80B586B028
:102C200000AFF860B9607A60174AFB6852F8233049
:102C30007B61164AFB6852F823303B617B695B7C01
:102C4000DBB2002B01D002231AE07B6901225A7407
:102C50007B69BA685A607B697A68DA607B690222AC
:102C6000DA8601213869FFF765F90121386900F03A
:102C700065FC01224FF44031386900F019FB002354
:102C800018461837BD4680BDB805FF1FB8B2020010
:102C900080B58AB002AFF860B9607A60374AFB68E5
:102CA00052F82330BB61364AFB6852F823307B610F
:102CB0000023FB7700237B7400237B827B695B7C92
:102CC000DBB2002B01D0022354E00121B869FFF7E9
:102CD0009BF907F111031946B869FFF7BFF907F12E
:102CE00011031946B869FFF7B9F9B869FFF7DAF9BE
:102CF0007B691B7D022B02D10123FB7701E00023BE
:102D0000FB777B6993F82900BB691946BA687B6831
:102D10000193FB7F009313460A46002107F05CFAFB
:102D200003467B827B8A002B01D07B8A22E07B6971
:102D300093F82930FA681349184607F0CFF97B69F0
:102D400093F82930184607F047FB7B69BA685A6048
:102D50007B690022DA607B6901225A747B69022256
:102D6000DA860121B86900F0E9FB0121B869FFF7B3
:102D7000E1F8002318462037BD4680BDB8B20200F6
:102D8000B805FF1F112E010080B586B000AF786036
:102D90000023FB731C4A7B6852F823307B611B4A7B
:102DA0007B6852F823303B6100213869FFF7C2F895
:102DB0000021386900F0C2FB07F10F03194638699A
:102DC000FFF74CF900224FF44031386900F070FAF7
:102DD0007B69DB7CDBB2002B07D07B692C33184688
:102DE000FEF7A8FF7B690022DA747B6900225A741F
:102DF0007B69DB8E9BB2022B02D17B690022DA86D3
:102E000000BF1837BD4680BDB805FF1FB8B202002D
:102E100080B586B000AF78600B46FB707B687B6145
:102E2000364A7B6952F823303B61354A7B6952F858
:102E30002330FB60FB78012B13D13B690122DA863A
:102E4000786900F015F93B699B69002B06D03B6956
:102E50009B693A69D269032138699847F868FFF796
:102E600021F93B69DB8E9BB2022B42D13B699B6906
:102E7000002B06D03B699B693A69D2690021386909
:102E800098473B69DB68002B21D03B6993F8290008
:102E90003B695B6819463B695A683B69DB681344C8
:102EA0001A4607F03BFB3B6993F829203B69DB6836
:102EB0009BB21946104607F0BFFA3B690022DA6060
:102EC0003B6993F82930184607F086FA12E07869D2
:102ED00000F0CEF83B699B69002B06D03B699B69EB
:102EE0003A69D269022138699847F868FFF7DAF839
:102EF00000E000BF1837BD4680BD00BFB805FF1F0A
:102F0000B8B2020080B586B000AF78601A4A7B681C
:102F100052F823307B61194A7B6852F823303B61B9
:102F20000023FB817B691B68BB607B691B7D002BD9
:102F300003D07B691B7D012B06D1BB681B7819462A
:102F40003869FFF77BF812E0BB681B78FB81BB6830
:102F50000133BB60BB681B789BB21B029AB2FB8932
:102F60001343FB81FB891946386900F047F900BF1C
:102F70001837BD4680BD00BFB805FF1FB8B20200BC
:102F800080B586B000AF7860194A7B6852F823306C
:102F90007B61184A7B6852F823303B6100237B81B8
:102FA0007B695B68FB607B691B7D002B03D07B69C1
:102FB0001B7D012B04D1F9683869FFF74FF812E047
:102FC00007F10A031946386900F02AF97B89DAB259
:102FD000FB681A70FB680133FB607B891B0A9BB29C
:102FE000DAB2FB681A7000BF1837BD4680BD00BF5B
:102FF000B805FF1FB8B2020080B584B000AF78609A
:10300000184A7B6852F82330FB60174A7B6852F8F5
:103010002330BB600021F868FEF7DCFFBB6893F843
:103020002A30184607F0F0F900221049F86800F03D
:103030003FF9BB689B7CDBB2002B04D0BB6830330C
:103040001846FEF777FEBB689B8E9BB2022B02D11F
:10305000BB6800229A86BB6800221A7400BF103732
:10306000BD4680BDB8B20200B805FF1F02000300D4
:1030700080B586B000AF7860224A7B6852F8233072
:103080007B61214A7B6852F823303B610023FB734C
:1030900000217869FEF74EFF0021786900F04EFAB2
:1030A00000217869FEF7B0FF07F10F031946786930
:1030B000FEF7D4FF07F10F0319467869FEF7CEFF3C
:1030C0003B6993F82930184607F09EF93B69DB7C91
:1030D000DBB2002B07D03B692C331846FEF72AFEE3
:1030E0003B690022DA743B69DB8E9BB2022B02D172
:1030F0003B690022DA863B6900225A7400BF183708
:10310000BD4680BDB8B20200B805FF1F80B582B0D1
:1031100000AF78607B68032B0FD80A4A7B681344A2
:103120001B780121184608F073FB074A7B6813449B
:103130001B780121184608F0DDFB00BF0837BD46AB
:1031400080BD00BFD4B20200D8B2020080B483B008
:1031500000AF78600B46FB707B68DB6823F00302EE
:10316000FB781A437B68DA6000BF0C37BD465DF818
:10317000047B704780B485B000AF78600B46FB706D
:103180007B68DB68FB607B68DB6823F020027B6880
:10319000DA60FB78012B0DD0022B02D0002B12D06D
:1031A0001AE0FB6843F00803FB60FB6823F01003A0
:1031B000FB601AE0FB6843F00803FB60FB6843F028
:1031C0001003FB6011E0FB6823F00803FB60FB6861
:1031D00023F01003FB6008E0FB6823F00803FB60AA
:1031E000FB6823F01003FB6000BF7B68FA68DA60BD
:1031F00000BF1437BD465DF8047B704780B483B0D0
:1032000000AF78600B467B807B88C3F308027B6845
:103210001A6000BF0C37BD465DF8047B704700BFE5
:1032200080B483B000AF786039607B681B689BB264
:10323000C3F308039AB23B681A8000BF0C37BD463F
:103240005DF8047B704700BF80B485B000AF786044
:1032500087ED000AD7ED007AFCEEE77A17EE903A98
:10326000FB60FB6807EE903AF8EE677A97ED007A1C
:1032700077EE677A9FED0D7A67EE877AFCEEE77A54
:1032800017EE903ABB60FB68DAB27B685A60FB6865
:103290001B0ADAB27B689A607B68BA685A6400BF1E
:1032A0001437BD465DF8047B704700BF0000004244
:1032B00080B487B000AFF860B9601346FB71BB689B
:1032C0001B0C7B61BB689BB23B617B69033B032B9F
:1032D0005ED801A252F823F0E93201001333010055
:1032E0003D33010067330100FB68DA6901213B6966
:1032F00001FA03F3DB431A40FB79002B01D00121D3
:1033000000E000213B6901FA03F31A43FB68DA612C
:103310003FE0FB689A6C01213B6901FA03F3DB4350
:103320001A40FB79002B01D0012100E000213B690C
:1033300001FA03F31A43FB689A642AE0FB68DA6D2A
:1033400001213B6901FA03F3DB431A40FB79002BAF
:1033500001D0012100E000213B6901FA03F31A4387
:10336000FB68DA6515E0FB689A6D01213B6901FA9B
:1033700003F3DB431A40FB79002B01D0012100E06D
:1033800000213B6901FA03F31A43FB689A6500E0E8
:1033900000BF00BF1C37BD465DF8047B704700BF0F
:1033A00080B485B000AF786039603B681B0CBB60AF
:1033B0000023FB73BB68033B032B3FD801A252F8E9
:1033C00023F000BFD5330100EF33010009340100C1
:1033D000233401007B68DB693A6892B2D34003F082
:1033E0000103002B14BF01230023FB7327E07B683C
:1033F0009B6C3A6892B2D34003F00103002B14BFD8
:1034000001230023FB731AE07B68DB6D3A6892B2FC
:10341000D34003F00103002B14BF01230023FB73EF
:103420000DE07B689B6D3A6892B2D34003F00103D4
:10343000002B14BF01230023FB7300E000BFFB7BC4
:1034400018461437BD465DF8047B704780B485B0DC
:1034500000AF786039603B681B0CBB600023FB73D6
:10346000BB68012B02D0022B0DD019E07B681B6AD0
:103470003A6892B2D34003F00103002B14BF01233A
:103480000023FB730CE07B685B6A3A6892B2D3401E
:1034900003F00103002B14BF01230023FB7300BFC3
:1034A000FB7B18461437BD465DF8047B704700BFB0
:1034B00080B485B000AF786039600023FB813B6841
:1034C0001B0CBB603B681A4A934206D8194A9342C8
:1034D0000ED2B3F5803F0BD00DE0174A934207D0D0
:1034E000154A934207D3A3F50033053B022B02D8BC
:1034F0000123FB8114E0BB68012B08D13B689BB220
:103500001A46012303FA02F27B681A6207E03B685D
:103510009BB21A46012303FA02F27B685A6200BF8B
:10352000FB8918461437BD465DF8047B704700BF21
:1035300006000100050001000800010080B582B00E
:1035400000AF78600B46FB70FB781A460D4978682F
:10355000FFF7AEFEFB781A464FF003117868FFF7CD
:10356000A7FEFB781A4608497868FFF7A1FEFB78AA
:103570001A4606497868FFF79BFE00BF0837BD462C
:1035800080BD00BF06000300050003000400030027
:1035900080B500AF044B1B68002B03D0024B1B68A7
:1035A0000020984700BF80BD2401FF1F80B500AFF9
:1035B000044B5B68002B03D0024B5B6801209847EB
:1035C00000BF80BD2401FF1F80B500AF044B9B6886
:1035D000002B03D0024B9B680220984700BF80BDA0
:1035E0002401FF1F80B500AF044BDB68002B03D024
:1035F000024BDB680320984700BF80BD2401FF1FFA
:1036000080B483B000AF0346FB7197F90730002BFD
:103610000BDB094997F907305B09FA7902F01F02C1
:10362000012000FA02F241F8232000BF0C37BD460A
:103630005DF8047B704700BF00E100E080B483B018
:1036400000AF0346FB7197F90730002B10DB0B49E5
:1036500097F907305B09FA7902F01F02012000FA9E
:1036600002F2203341F82320BFF34F8FBFF36F8F57
:1036700000BF0C37BD465DF8047B704700E100E0F9
:1036800080B483B000AF78607B681B6843F00102B0
:103690007B681A6000BF0C37BD465DF8047B70473D
:1036A00080B483B000AF786039607B68DA683B68CB
:1036B0001A437B68DA6000BF0C37BD465DF8047BB7
:1036C000704700BF80B483B000AF786039607B681A
:1036D000DA683B68DB431A407B68DA6000BF0C376E
:1036E000BD465DF8047B704780B483B000AF78605E
:1036F00039607B683A681A6000BF0C37BD465DF8D8
:10370000047B704780B483B000AF786039607B6819
:103710003A685A6000BF0C37BD465DF8047B7047BD
:1037200080B483B000AF786039607B689A683B688A
:103730001A437B689A6000BF0C37BD465DF8047B76
:10374000704700BF80B483B000AF786039607B6899
:103750009A683B68DB431A407B689A6000BF0C376D
:10376000BD465DF8047B704780B483B000AF7860DD
:1037700039607B685A683B68134018460C37BD4671
:103780005DF8047B704700BF80B483B000AF786001
:1037900039607B683A685A6000BF0C37BD465DF8F7
:1037A000047B704780B483B000AF78600B46FB7039
:1037B0007B689B6823F03002FB781B011A437B680F
:1037C0009A6000BF0C37BD465DF8047B704700BFB0
:1037D00080B485B000AF78607B689B6803F03003ED
:1037E0001B09BB60BB68032B16D801A252F823F05B
:1037F00001380100073801000D38010013380100BD
:103800000023FB730BE00123FB7308E00223FB732F
:1038100005E00323FB7302E00023FB7300BFFB7B87
:1038200018461437BD465DF8047B704780B483B0FA
:1038300000AF78600B46FB707B689B6823F00C023E
:10384000FB789B001A437B689A6000BF0C37BD462B
:103850005DF8047B704700BF80B483B000AF786030
:1038600039607B689B6823F470423B681B031A43F2
:103870007B689A6000BF0C37BD465DF8047B7047DB
:1038800080B483B000AF78600B46FB707B689B68A8
:1038900023F48032FB781B041A437B689A6000BFD4
:1038A0000C37BD465DF8047B704700BF80B483B021
:1038B00000AF78600B46FB707B689B6823F48062E6
:1038C000FB789B021A437B689A6000BF0C37BD46A9
:1038D0005DF8047B704700BF80B483B000AF7860B0
:1038E0000B46FB707B689B6823F40072FB785B02DD
:1038F0001A437B689A6000BF0C37BD465DF8047BB5
:10390000704700BF80B483B000AF78600B46FB7097
:103910007B689B6823F48072FB781B021A437B68E8
:103920009A6000BF0C37BD465DF8047B704700BF4E
:1039300080B483B000AF78600B46FB707B689B68F7
:1039400023F00102FB781A437B689A6000BF0C37B2
:10395000BD465DF8047B704780B483B000AF7860EB
:103960000B46FB707B681B6823F00202FB785B0050
:103970001A437B681A6000BF0C37BD465DF8047BB4
:10398000704700BF80B584B000AF03460A46FB71A4
:103990001346BB714FF48170FB799B000D4A1344B1
:1039A000194608F0E7FC0346FB8101214D2007F092
:1039B0002FFF01214D2007F09DFF0748FFF760FE14
:1039C000BB7919460448FFF7C7FF00BF1037BD4653
:1039D00080BD00BFC805FF1F0010014080B586B044
:1039E00000AF0346B9607A60FB73494ABB6852F87E
:1039F00023303B610023FB82BB68002B06D17B6830
:103A0000DB7C002B02D00123FB827BE07B68DB7C2C
:103A100019463869FFF78CFF7B681B7819463869AF
:103A2000FFF7C0FE7B681B78022B04D100213869A8
:103A3000FFF7FCFE05E07B685B7A19463869FFF703
:103A4000F5FE7B685B78012B09D17B685A68FB7BAC
:103A5000B968184600F086F80346FB8206E07B68EA
:103A60005A68FB7BB968184600F00EF9FB8A002BF8
:103A700048D17B681B7A19463869FFF701FF7B68DC
:103A8000DB6819463869FFF7E7FE7B681B7C19463F
:103A90003869FFF70BFF7B685B7C19463869FFF7D5
:103AA0001BFF7B689B7C19463869FFF72BFF7B68FF
:103AB0009B691946B86800F013F97B681B7D002BE1
:103AC00010D00122BB6802FA03F319461148FFF730
:103AD00027FE114ABB68134493F900301846FFF7DC
:103AE0008FFD0FE00122BB6802FA03F31946094873
:103AF000FFF728FE084ABB68134493F900301846C4
:103B0000FFF79CFDFB8A18461837BD4680BD00BFF5
:103B10003401FF1F00100140DCB2020080B584B008
:103B200000AF03463960FB71044BFB603968F868ED
:103B3000FFF7B6FD00BF1037BD4680BD0010014045
:103B400080B584B000AF03463960FB71044BFB6065
:103B50003968F868FFF7B6FD00BF1037BD4680BD75
:103B600000100140F0B58BB000AF0346B9607A6039
:103B7000FB73414ABB6852F823307B610023FB840E
:103B80004FF48170FB7B9B003C4A1344194608F0BC
:103B9000F1FB03467B827B6818464FF00001FB7BFC
:103BA000364A52F823301A464FF0000302FB01FE5A
:103BB00000FB03F67644A0FB0223F1180B46C7E98D
:103BC0000623C7E90623D7E906012D4A4FF0000373
:103BD000FCF7D6FC02460B4612F1FF3243F1FF33ED
:103BE000C7E906237869FFF7F3FD03467B74D7E93D
:103BF0000623012B08BF002A2FD27B7C012B2ED15C
:103C0000D7E906231F484FF00001994208BF9042B0
:103C100002D20123FB8422E0D7E906234FF6FF708E
:103C20004FF00001994208BF904218D2D7E906230D
:103C3000B2F5803243F1FF331D0445EA1245140406
:103C40004FF6FF724FF0000344EA020045EA030119
:103C500003460C46C7E9063401E00123FB84FB8CD4
:103C6000002B04D1BB6919467869FFF73DFDFB8C39
:103C700018462C37BD46F0BD3401FF1FC805FF1F95
:103C800040420F00FEFF010080B586B000AF034642
:103C9000B9607A60FB73064ABB6852F823307B61D7
:103CA00079687869FFF720FD00BF1837BD4680BDF1
:103CB0003401FF1F80B586B000AF0346B9607A605B
:103CC000FB73064ABB6852F823307B6179687869D8
:103CD000FFF718FD00BF1837BD4680BD3401FF1F38
:103CE00080B483B000AF7860396005497B683A687A
:103CF00041F8232000BF0C37BD465DF8047B7047B8
:103D0000CC05FF1F80B584B000AF78600023FB6056
:103D100001227B6802FA03F319461248FFF724FDDB
:103D2000F860FB68002B18D001227B6802FA03F3CD
:103D300019460C48FFF728FD0B4A7B6852F82330E0
:103D4000002B0AD0084A7B6852F8233007497A686A
:103D500051F822000022F968984700BF1037BD468D
:103D600080BD00BF00100140CC05FF1F3401FF1FC4
:103D700080B500AF0020FFF7C5FF00BF80BD00BFCA
:103D800080B500AF0120FFF7BDFF00BF80BD00BFC1
:103D900080B500AF0220FFF7B5FF00BF80BD00BFB8
:103DA00080B500AF0320FFF7ADFF00BF80BD00BFAF
:103DB00080B584B000AF0346FB710023FB60FB7944
:103DC000013B094A52F82330002B08D0FB79013B14
:103DD000054A52F823300022F9680448984700BF8A
:103DE0001037BD4680BD00BFDC05FF1F00810840C5
:103DF00080B500AF0120FFF7DBFF00BF80BD00BF33
:103E000080B500AF0220FFF7D3FF00BF80BD00BF29
:103E100080B483B000AF0346FB710A49094B1B68AD
:103E200023F4E062FB791B0213430B60054A054B48
:103E30001B6843F00203136000BF0C37BD465DF8FA
:103E4000047B70470080004080B400AF054B5B6985
:103E5000DBB203F00703DBB21846BD465DF8047B16
:103E6000704700BF0080004080B400AF054B1B6866
:103E700003F4E0631B0ADBB21846BD465DF8047B21
:103E8000704700BF0080004080B400AF074B5B6804
:103E900003F080639B0E002B14BF01230023DBB2D1
:103EA0001846BD465DF8047B704700BF00800040A7
:103EB00080B400AF074B5B6803F40003DB0D002BFD
:103EC00014BF01230023DBB21846BD465DF8047B16
:103ED000704700BF0080004080B400AF034B002259
:103EE000DA6200BFBD465DF8047B70470080004089
:103EF00080B483B000AF78607B681B6803F48013E4
:103F00001B0D18460C37BD465DF8047B704700BF9B
:103F100080B588B000AF0346FB714FF080439B69CA
:103F20003B6100237B83FB79052B0BD15B4B1B682B
:103F3000DBB2082B06D0594B1B68DBB2092B01D032
:103F40000423A7E0FB791846FFF762FFFB79042BF7
:103F500002D0FB79002B05D14FF080423B6923F062
:103F600060039361FB79002B02D0FB79012B16D102
:103F70004FF47A73FB61FFF767FF0346FB72FA7A2F
:103F8000FB799A4205D0FB69013BFB61FB69002B81
:103F9000F1D1FB69002B36D101237B8333E0FB7920
:103FA000052B01D1FFF798FFFB79042B14D1FFF704
:103FB0007FFF0346002B0FD04FF08040FFF798FFA4
:103FC0000346012B08D1364B364A1A60364B374A26
:103FD0001A60374B374A1A60374B1B68FB60364A0A
:103FE000FB6823F001031360344A344B1B6943F030
:103FF0000403136130BF304AFB681360FB79052B63
:1040000001D101237B83FB79042B02D0FB79002BA8
:104010001BD12B4B5B6803F00053002B11D04CF2EB
:104020005033FB6100BFFFF72FFF034683F001030E
:10403000DBB2002B05D0FB69013BFB61FB69002B68
:10404000F1D14FF080423B699361FB79012B20D085
:10405000FFF72EFF0346002B1BD04FF080424FF09E
:1040600080431B6B23F03F03136300237B6103E05A
:1040700000BF7B6901337B617B69632BF8D94FF00B
:1040800080424FF080431B6B23F03F0343F001035A
:1040900013637B8B18462037BD4680BD2418200053
:1040A00030800040010040783C8000400242020025
:1040B000488000400820120110E000E000ED00E020
:1040C0000080004080B500AFFFF7BEFE03461846F3
:1040D00080BD00BF80B500AFFFF7C6FE034618469F
:1040E00080BD00BF80B400AF054A054B5B6943F05B
:1040F0001003536100BFBD465DF8047B704700BFED
:104100000080004080B500AFFFF7ECFF064B1B6856
:10411000002B06D0044B1B68044AD16800220348D8
:10412000984700BF80BD00BFE405FF1F008000402E
:1041300080B500AF054B1B68002B05D0034B1B68F7
:10414000002200210248984700BF80BDE805FF1FFC
:104150000080004080B584B000AF78600B46FB70F3
:104160000023FB81FB78262B61D801A252F823F0B3
:104170000D4201000D4201001B4201001B420100E3
:10418000134201001B4201002F4201000D420100B9
:104190000D4201002F4201002F4201002F42010079
:1041A0002F4201002F4201002F4201002F42010047
:1041B0002F4201002F4201002F4201002F42010037
:1041C0002F4201002F4201002F4201002F42010027
:1041D0002F4201002F4201002F4201002F42010017
:1041E0002F4201002F4201002F4201002F42010007
:1041F0002F4201002F4201002F4201002F420100F7
:104200002F4201002F420100274201000123FB81C0
:104210000EE0786800F012F80AE0FB7801229A407C
:104220007B68DA6004E07B682622DA6000E000BF89
:10423000FB8918461037BD4680BD00BF80B483B0EF
:1042400000AF78607B689B6843F010027B689A60DF
:104250007B689B6823F010027B689A6000BF0C3774
:10426000BD465DF8047B704780B500AF002000F0CC
:10427000D5FA00BF80BD00BF80B500AF012000F0BF
:10428000CDFA00BF80BD00BF80B500AF022000F0B6
:10429000C5FA00BF80BD00BF80B483B000AF7860B6
:1042A0007B685B6803F480531B0B002B14BF012356
:1042B0000023DBB218460C37BD465DF8047B70471F
:1042C00080B483B000AF78607B685B6803F00073F4
:1042D000002B07D07B685B6803F08053002B01D074
:1042E000012300E0002303F00103DBB218460C3782
:1042F000BD465DF8047B704780B483B000AF786042
:104300000B46FB707B68DA68FB7822FA03F303F054
:104310000103002B14BF01230023DBB218460C3726
:10432000BD465DF8047B704780B483B000AF786011
:104330000B46FB701346BB70BB78002B09D07B6823
:104340005A68FB78012101FA03F31A437B685A602B
:1043500009E07B685A68FB78012101FA03F3DB432B
:104360001A407B685A6000BF0C37BD465DF8047B7D
:10437000704700BF80B483B000AF78600B46FB701D
:104380007B685A68FB7822FA03F303F00103002BE1
:1043900014BF01230023DBB218460C37BD465DF87D
:1043A000047B704780B483B000AF78600B46FB702D
:1043B0007B685B6823F48042FB789B031A437B682D
:1043C0005A6000BF0C37BD465DF8047B704700BFE4
:1043D00080B483B000AF78600B46FB707B685B688D
:1043E00023F40042FB78DB031A437B685A6000BF6A
:1043F0000C37BD465DF8047B704700BF80B483B0C6
:1044000000AF78607B689B6843F020027B689A600D
:1044100000BF0C37BD465DF8047B704780B483B0A5
:1044200000AF78607B681B6918460C37BD465DF8A5
:10443000047B704780B483B000AF78607B685B69B1
:104440009B0803F00103002B14BF01230023DBB200
:1044500018460C37BD465DF8047B704780B483B0C6
:1044600000AF78607B685B69DB0803F00103002B19
:1044700014BF01230023DBB218460C37BD465DF89C
:10448000047B704780B582B000AF7860786800F038
:1044900005F8002318460837BD4680BD80B584B0B6
:1044A00000AF7860294A7B6852F82330FB60284AC5
:1044B0007B6852F82330BB60FB6800221A72FB68ED
:1044C0009B78002B02D0786800F024F9FB68DB7E33
:1044D000002B12D10021B868FFF77AFF0021B868DD
:1044E000FFF760FFFB685B7E184605F08DFFFB68F9
:1044F0009B7E184605F088FF09E000220921B86874
:10450000FFF712FF00220821B868FFF70DFF786857
:1045100000F062FAFB68DB78002B07D0FB681C33E5
:104520001846FDF707FCFB680022DA70FB685B6A3F
:10453000002B06D0FB685B6AFA68926A0021F86873
:10454000984700BF1037BD4680BD00BFEC05FF1F78
:104550004401FF1F80B586B000AF78606A4A7B686F
:1045600052F823303B61694A7B6852F82330FB6084
:10457000674B7B610221F868FFF7BEFE0346002B04
:104580000FD03B69DB68002B0BD07868FFF77AFF10
:104590000221F868FFF7DEFD3B69012283F8202045
:1045A000AEE00321F868FFF7A7FE0346002B0FD00B
:1045B0003B691B69002B0BD07868FFF763FF032171
:1045C000F868FFF7C7FD3B69022283F8202097E0D7
:1045D000F868FFF743FF0346002B0DD002E07B692C
:1045E000013B7B610721F868FFF786FE0346002B3D
:1045F00002D07B69002BF2D10121F868FFF77CFE25
:104600000346002B0BD03B69DB8A9BB2002B03D007
:10461000786800F085F902E0F868FFF7FFFE0021F6
:10462000F868FFF769FE0346002B07D03B699B8AB9
:104630009BB2002B02D0786800F00CF93B699B8A92
:104640009BB2002B05D0F868FFF708FF0346002B4C
:104650001CD03B69DB8A9BB2002B05D0F868FFF7C2
:10466000E9FE0346002B11D00721F868FFF744FE4E
:10467000034683F00103DBB2002B07D000220821A0
:10468000F868FFF751FE7868FFF708FF0521F86822
:10469000FFF732FE0346002B15D01F21F868FFF705
:1046A00069FE0346002B0ED00521F868FFF752FD86
:1046B0003B695B6A002B06D03B695B6A3A69926A88
:1046C0000121386998470421F868FFF715FE034671
:1046D000002B15D00D21F868FFF74CFE0346002B88
:1046E0000ED00421F868FFF735FD3B695B6A002BAB
:1046F00006D03B695B6A3A69926A02213869984739
:104700001837BD4680BD00BFEC05FF1F4401FF1FE9
:1047100040420F0080B584B000AF78604FF47A73E8
:10472000FB60134A7B6852F82330BB60B868FFF720
:10473000B3FD0346002B16D0B868FFF7C1FD034652
:10474000002B10D002E0FB68013BFB600721B8683A
:10475000FFF7D2FD0346002B02D0FB68002BF2D1FD
:10476000B868FFF74BFE00BF1037BD4680BD00BFE5
:104770004401FF1F80B483B000AF78607B685B6842
:1047800003F480531B0B002B14BF01230023DBB267
:1047900018460C37BD465DF8047B704780B483B083
:1047A00000AF78600B46FB701346BB70BB78002BE4
:1047B00009D07B685A68FB78012101FA03F31A4398
:1047C0007B685A6009E07B685A68FB78012101FA2E
:1047D00003F3DB431A407B685A6000BF0C37BD46C9
:1047E0005DF8047B704700BF80B483B000AF786091
:1047F00039607B683A681A6100BF0C37BD465DF8C6
:10480000047B704780B483B000AF78607B681B691D
:1048100018460C37BD465DF8047B704780B584B000
:1048200000AF78600A4A7B6852F82330FB60F86872
:10483000FFF7A0FF0346002B03D07868FFF78AFE3E
:1048400002E0786800F0A0F900BF1037BD4680BDD7
:104850004401FF1F80B586B000AF78602E4A7B68A8
:1048600052F823303B612D4A7B6852F82330FB60BD
:1048700000237B613B699B78002B08D03B699B8AB6
:104880009BB2012B03D13B6900229A8241E03B6934
:10489000DB68002B39D03B691B88082B10D83B699B
:1048A000DB681B787B613B69DB685A1C3B69DA601B
:1048B0003B699B8A9BB2013B9AB23B699A8224E096
:1048C0003B691B88102B10D83B69DB681B887B6118
:1048D0003B69DB689A1C3B69DA603B699B8A9BB247
:1048E000023B9AB23B699A820FE03B69DB681B6826
:1048F0007B613B69DB681A1D3B69DA603B699B8A17
:104900009BB2043B9AB23B699A827969F868FFF7D7
:104910006BFF1837BD4680BDEC05FF1F4401FF1F2C
:1049200080B586B000AF7860294A7B6852F82330A2
:104930007B61284A7B6852F823303B610023FB608F
:104940003869FFF75FFFF8607B691B69002B3BD07C
:104950007B691B88082B11D87B691B69FA68D2B266
:104960001A707B691B695A1C7B691A617B69DB8A37
:104970009BB2013B9AB27B69DA8225E07B691B8896
:10498000102B11D87B691B69FA6892B21A807B6977
:104990001B699A1C7B691A617B69DB8A9BB2023BAB
:1049A0009AB27B69DA820FE07B691B69FA681A6048
:1049B0007B691B691A1D7B691A617B69DB8A9BB263
:1049C000043B9AB27B69DA8200BF1837BD4680BDCE
:1049D000EC05FF1F4401FF1F80B584B000AF786075
:1049E0000D4A7B6852F82330FB6000220A21F868E8
:1049F000FFF7D4FE00220B21F868FFF7CFFE02215B
:104A0000F868FFF7A7FB0321F868FFF7A3FB00BFD7
:104A10001037BD4680BD00BF4401FF1F80B483B086
:104A200000AF78600B46FB707B68DA68FB7822FA8F
:104A300003F303F00103002B14BF01230023DBB2B7
:104A400018460C37BD465DF8047B704780B483B0D0
:104A500000AF78600B46FB701346BB70BB78002B31
:104A600009D07B685A68FB78012101FA03F31A43E5
:104A70007B685A6009E07B685A68FB78012101FA7B
:104A800003F3DB431A407B685A6000BF0C37BD4616
:104A90005DF8047B704700BF80B483B000AF7860DE
:104AA0000B46FB707B685A68FB7822FA03F303F02D
:104AB0000103002B14BF01230023DBB218460C377F
:104AC000BD465DF8047B704780B483B000AF78606A
:104AD0000B46FB707B685B6823F48042FB789B038A
:104AE0001A437B685A6000BF0C37BD465DF8047BF3
:104AF000704700BF80B483B000AF78600B46FB7096
:104B00007B685B6823F40042FB78DB031A437B6815
:104B10005A6000BF0C37BD465DF8047B704700BF8C
:104B200080B483B000AF78607B681B6918460C378F
:104B3000BD465DF8047B704780B483B000AF7860F9
:104B40007B685B699B0803F00103002B14BF012302
:104B50000023DBB218460C37BD465DF8047B704776
:104B600080B483B000AF78607B685B69DB0803F0DA
:104B70000103002B14BF01230023DBB218460C37BE
:104B8000BD465DF8047B704780B584B000AF7860A7
:104B9000654A7B6852F82330FB60644A7B6852F8B0
:104BA0002330BB600221F868FFF738FF0346002B73
:104BB0000BD0BB68DB68002B07D0786800F0B8F832
:104BC000BB68012283F82020ABE00321F868FFF7DF
:104BD00025FF0346002B0BD0BB681B69002B07D0B9
:104BE000786800F0A5F8BB68022283F8202098E0DE
:104BF0000121F868FFF712FF0346002B17D0BB68AE
:104C0000DB8A9BB2002B0FD0FFF764FA0346032B1D
:104C100006D1F868FFF784FF0020FFF779F906E076
:104C20007868FFF77DFE02E0F868FFF779FF002162
:104C3000F868FFF7F3FE0346002B07D0BB689B8A9A
:104C40009BB2002B02D07868FFF704FEBB689B8AFA
:104C50009BB2002B04D100220821F868FFF7F6FE72
:104C6000BB68DB8A9BB2002B04D100220921F868C3
:104C7000FFF7ECFEBB68DB8A9BB2002B05D0F8681F
:104C8000FFF75AFF0346002B2ED0BB689B8A9BB2CE
:104C9000002B05D0F868FFF763FF0346002B23D0F5
:104CA00000220A21F868FFF7D1FE00220B21F868E4
:104CB000FFF7CCFEBB685B6A002B06D0BB685B6A63
:104CC000BA68926A0021B8689847BB68DB78002B05
:104CD00007D0BB681C331846FDF72CF8BB680022D0
:104CE000DA70BB6800221A720521F868FFF796FE99
:104CF0000346002B15D01F21F868FFF7CDFE0346B1
:104D0000002B0ED00521F868FFF724FABB685B6A18
:104D1000002B06D0BB685B6ABA68926A0121B8684A
:104D200098471037BD4680BD4401FF1FEC05FF1FAB
:104D300080B584B000AF7860204A7B6852F8233099
:104D4000FB601F4A7B6852F82330BB60BB68DB7E88
:104D5000012B0AD100220821F868FFF777FE002214
:104D60000921F868FFF772FE11E00021F868FFF7EB
:104D7000C1FE0021F868FFF7A7FEBB685B7E1846FE
:104D800005F042FBBB689B7E184605F03DFB78684A
:104D9000FFF722FEBB6800221A72BB68DB78002B8B
:104DA00007D0BB681C331846FCF7C4FFBB68002261
:104DB000DA70002318461037BD4680BD4401FF1F3E
:104DC000EC05FF1F80B483B000AF786039607B686A
:104DD0003A685A6000BF0C37BD465DF8047B7047E7
:104DE00080B483B000AF78607B689B6818460C374E
:104DF000BD465DF8047B704780B483B000AF786037
:104E00007B685B6903F00803DB08002B14BF0123F8
:104E10000023DBB218460C37BD465DF8047B7047B3
:104E200080B483B000AF78607B685B6903F00403F3
:104E30009B08002B14BF01230023DBB218460C375C
:104E4000BD465DF8047B704780B485B000AF7860E4
:104E50007B685B69FB60FB6843F00203FB607B6877
:104E6000FA685A6100BF1437BD465DF8047B70478D
:104E700080B586B000AF0346FB71434B7B61FA7986
:104E8000424913465B0013449B000B441B683B6183
:104E9000FA793E4913465B0013449B000B440833E8
:104EA0001B68FB607869FFF7CFFF7869FFF7A4FF05
:104EB0000346002B4AD03B69002B54D03B699B68CA
:104EC000002B03D13B691B7B002B26D07869FFF7B1
:104ED00087FFB8603B695A68BB681344013BBB60FD
:104EE000B9687869FFF76EFFFA79284913465B00C5
:104EF00013449B000B44043301221A703B691B7B53
:104F000083F00103DBB2002B03D03B699B68013BBC
:104F100000E000233A6993600DE000217869FFF713
:104F200051FFFA79194913465B0013449B000B4467
:104F3000043300221A703B691B69002B13D03B69B4
:104F40001B693A695269104698470CE0FB68002BD0
:104F500009D0FB685B68002B05D0FB685B68FA68CA
:104F60009268104698477869FFF75AFF0346002B6E
:104F700006D0786900F040F80121786900F058F80F
:104F800000BF1837BD4680BD00980040F805FF1FE0
:104F900080B485B000AF78600B46FB707B685B69BE
:104FA00023F00203FB60FB6823F01003FB60FB7837
:104FB000002B03D0FB6843F01003FB607B68FA68AA
:104FC0005A6100BF1437BD465DF8047B704700BFCF
:104FD00080B483B000AF78607B685B6903F0100336
:104FE0001B09002B14BF01230023DBB218460C372A
:104FF000BD465DF8047B704780B582B000AF786035
:105000007868FFF7E5FF0346002B03D0002178689E
:10501000FFF7BEFF7868FFF7DBFF0346002B01D0E8
:10502000012300E0002318460837BD4680BD00BFBD
:1050300080B584B000AF786039600023FB81786868
:10504000FFF7C6FF0346002B02D00123FB8104E0DB
:10505000044A3B6893600023FB81FB8918461037A4
:10506000BD4680BD0098004080B500AF0020FFF72E
:10507000FFFE00BF80BD00BF80B483B000AF034619
:10508000FB714FF080414FF080435B6923F40002D5
:10509000FB79DB0513434B6100BF0C37BD465DF860
:1050A000047B704780B483B000AF03460A46FB71AF
:1050B0001346BB71FB79092B00F2848001A252F8E0
:1050C00023F000BFED500100055101001D5101000A
:1050D000355101004D510100655101007D51010024
:1050E000C551010095510100AD5101004FF08041C3
:1050F0004FF080435B6923F48062BB799B021343CA
:105100004B6160E04FF080414FF080435B6923F4D6
:105110000062BB79DB0213434B6154E04FF08041E6
:105120004FF080435B6923F48052BB791B03134328
:105130004B6148E04FF080414FF080435B6923F4BE
:105140000052BB795B0313434B613CE04FF080415D
:105150004FF080435B6923F40042BB79DB031343C8
:105160004B6130E04FF080414FF080435B6923F4A6
:105170008032BB791B0413434B6124E04FF0804124
:105180004FF080435B6923F40032BB795B04134327
:105190004B6118E04FF080414FF080435B6923F48E
:1051A0000022BB79DB0413434B610CE04FF08041DC
:1051B0004FF080435B6923F48012BB791B051343D6
:1051C0004B6100E000BF00BF0C37BD465DF8047BBB
:1051D000704700BF80B483B000AF0346FB714FF04F
:1051E00080414FF080435B6923F44072FB791B02DE
:1051F00013434B6100BF0C37BD465DF8047B70471D
:1052000080B483B000AF03460A46FB711346BB71FE
:10521000FB79092B00F28F8001A252F823F000BF26
:10522000495201005F520100775201008F52010084
:10523000A7520100BF520100D7520100EF520100F6
:10524000075301001F5301004FF080414FF080438E
:105250009B6923F00102BB7913438B616CE04FF033
:1052600080414FF080439B6923F00202BB795B00D1
:1052700013438B6160E04FF080414FF080439B69A6
:1052800023F00402BB799B0013438B6154E04FF081
:1052900080414FF080439B6923F00802BB79DB001B
:1052A00013438B6148E04FF080414FF080439B698E
:1052B00023F02002BB795B0113438B613CE04FF08C
:1052C00080414FF080439B6923F04002BB799B01F2
:1052D00013438B6130E04FF080414FF080439B6976
:1052E00023F08002BB79DB0113438B6124E04FF094
:1052F00080414FF080439B6923F48072BB791B028D
:1053000013438B6118E04FF080414FF080439B695D
:1053100023F40072BB795B0213438B610CE04FF006
:1053200080414FF080439B6923F48062BB799B02EC
:1053300013438B6100E000BF00BF0C37BD465DF832
:10534000047B704780B582B000AF0346FB710B460B
:10535000BB7113467B710120FFF78EFEBA79FB7992
:1053600011461846FFF79EFE7B791846FFF732FF7D
:1053700000BF0837BD4680BD80B582B000AF034690
:105380000A46FB711346BB71BA79FB791146184680
:10539000FFF736FF00BF0837BD4680BD80B483B03D
:1053A00000AF0346FB7197F90730002B0BDB09496F
:1053B00097F907305B09FA7902F01F02012000FA21
:1053C00002F241F8232000BF0C37BD465DF8047B94
:1053D000704700BF00E100E080B483B000AF034637
:1053E000FB7197F90730002B10DB0B4997F9073059
:1053F0005B09FA7902F01F02012000FA02F2203361
:1054000041F82320BFF34F8FBFF36F8F00BF0C37DE
:10541000BD465DF8047B704700E100E080B483B0D6
:1054200000AF78600B46FB707B681B6823F00102BD
:10543000FB781A437B681A6000BF0C37BD465DF8E5
:10544000047B704780B483B000AF78600B46FB707C
:105450007B681B6823F00202FB785B001A437B68C1
:105460001A6000BF0C37BD465DF8047B704700BF73
:1054700080B483B000AF78600B46FB707B681B681C
:1054800023F01802FB78DB001A437B681A6000BF28
:105490000C37BD465DF8047B704700BF80B483B015
:1054A00000AF78600B467B807B681B6823F47F032A
:1054B00023F47F437A8812021A437B681A6000BF84
:1054C0000C37BD465DF8047B704700BF80B483B0E5
:1054D00000AF78600B46FB707B681B6823F04002CE
:1054E000FB789B011A437B681A6000BF0C37BD46EE
:1054F0005DF8047B704700BF80B483B000AF786074
:105500000B46FB707B681B6823F08052FB781B07FF
:105510001A437B681A6000BF0C37BD465DF8047BF8
:10552000704700BF80B483B000AF78600B46FB705B
:105530007B68D3F8883023F01F02FB781A437B681E
:10554000C3F8882000BF0C37BD465DF8047B704768
:1055500080B483B000AF78600B46FB707B68D3F8F3
:10556000A43023F01F02FB781A437B68C3F8A42001
:1055700000BF0C37BD465DF8047B704780B483B034
:1055800000AF78600B46FB707B68D3F8A83023F03F
:105590001F02FB781A437B68C3F8A82000BF0C37B2
:1055A000BD465DF8047B704780B483B000AF78607F
:1055B0000B46FB707B68D3F8A83023F08002FB78A1
:1055C000DB011A437B68C3F8A82000BF0C37BD4637
:1055D0005DF8047B704700BF80B584B000AF034620
:1055E0003960FB71FB79694A52F82330FB60FB7923
:1055F000674AD35C0121184606F00AF9FB79654A2F
:10560000D35C0121184606F075F9FB7903F001031C
:10561000DBB2002B0FD0FB79013B5D4AD35C01214B
:10562000184606F0F5F8FB79013B5A4AD35C012194
:10563000184606F05FF93B685B891946F868FFF782
:105640002DFF3B689B891A46FB68DA643B689B899F
:105650001A46FB685A603B68DB891A46FB689A6009
:105660003B681B7C1946F868FFF772FFFB793A68C4
:10567000D269494941F82320FB793A68126A4749BF
:1056800041F823203B68DB7D1946F868FFF74AFFA5
:105690003B681B7D1946F868FFF72EFF3B685B7D72
:1056A0001946F868FFF780FF3B689B7D1946F8684C
:1056B000FFF764FF3B68DB7C1946F868FFF706FFDD
:1056C0003B685B7C1946F868FFF7A8FE3B689B7C4B
:1056D0001946F868FFF7B6FE3B681B7E002B0CD01E
:1056E000FB792F4AD3561846FFF758FEFB792D4A0F
:1056F000D3561846FFF752FE0BE0FB79284AD356E3
:105700001846FFF769FEFB79264AD3561846FFF77D
:1057100063FE3B681B78042B2CD801A252F823F0BF
:1057200035570100455701005557010065570100E5
:10573000755701003B685A68FB791146184601F01D
:105740006DF918E03B685A68FB791146184600F07D
:10575000FDFB10E03B685A68FB791146184601F0E2
:1057600017FC08E03B685A68FB791146184600F0C0
:10577000B7FD00E000BF3B681B7A1946F868FFF7E9
:1057800077FE00BF1037BD4680BD00BF00B30200EA
:10579000F0B20200F8B202000406FF1F1C06FF1F51
:1057A000E0B20200E8B2020080B485B000AF034668
:1057B000FB710B46BB711346BB80FB79084A52F85C
:1057C0002330FB60BB79BA88F9680133DB000B44F6
:1057D0009A6000BF1437BD465DF8047B704700BF78
:1057E00000B3020080B485B000AF03460A46FB71E7
:1057F0001346BB71FB79084A52F82330FB60BB7932
:10580000FA680133DB0013449B689BB218461437D7
:10581000BD465DF8047B704700B3020080B485B0DC
:1058200000AF03460A46FB711346BB80FB79064A6C
:1058300052F82330FB60BA88FB689A6000BF1437C7
:10584000BD465DF8047B704700B3020080B485B0AC
:1058500000AF0346FB71FB79064A52F82330FB6028
:10586000FB689B689BB218461437BD465DF8047B05
:10587000704700BF00B3020080B485B000AF03469C
:10588000FB71FB79064A52F82330FB60FB681B6D05
:10589000DBB218461437BD465DF8047B704700BF85
:1058A00000B3020080B485B000AF03463960FB71DD
:1058B000FB79084A52F82330FB60FB681A6D3B689D
:1058C000DB431A40FB681A6500BF1437BD465DF81C
:1058D000047B704700B3020080B485B000AF03467C
:1058E000FB71FB79064A52F82330FB60FB681B6DA5
:1058F00003F47F0318461437BD465DF8047B7047F8
:1059000000B3020080B485B000AF0346FB71FB79A1
:10591000064A52F82330FB60FB681B6803F08003E3
:1059200018461437BD465DF8047B704700B302008B
:1059300080B485B000AF0346FB71FB79064A52F88C
:105940002330FB60FB681B6803F004031846143720
:10595000BD465DF8047B704700B3020080B485B09B
:1059600000AF0346FB71FB79074A52F82330FB6016
:10597000FB681B6823F08002FB681A6000BF1437C5
:10598000BD465DF8047B704700B3020080B584B06B
:1059900000AF0346FB710023FB600023BB60FB7973
:1059A0001846FFF7AFFFF860FB68002B03D0FB79C8
:1059B0001846FFF7D3FFFB791846FFF7B9FF0346F8
:1059C000BB60FB79084A52F82330002B08D0FB79E2
:1059D000054A52F8233007F10802F879F968984728
:1059E00000BF1037BD4680BD0406FF1F80B584B0E0
:1059F00000AF0346FB710023FB600023BB60FB7913
:105A00001846FFF739FFF860FB68DBB2002B04D0C3
:105A1000FB79F9681846FFF745FFFB791846FFF751
:105A20005BFF0346BB60FB79084A52F82330002B2A
:105A300008D0FB79054A52F8233007F10802F879BB
:105A4000F968984700BF1037BD4680BD1C06FF1F90
:105A500080B483B000AF7860084611461A4603460A
:105A6000FB700B46BB7013463B80FB78012B25D89F
:105A70007B689A6EFB781B014FF4406101FA03F3D7
:105A8000DB431A40B978FB781B010A3301FA03F3B0
:105A90001A437B689A667B689A6EFB781B0140F21A
:105AA000FF3101FA03F3DB431A403988FB781B010D
:105AB00001FA03F31A437B689A6627E0FB78023BFE
:105AC000FB707B68DA6EFB781B014FF4406101FAD2
:105AD00003F3DB431A40B978FB781B010A3301FA60
