:020000022000DC
:10000000F886FF1F957B0200E57B0200E57B02007E
:10001000E57B0200E57B0200E57B020000000000BA
:10002000000000000000000000000000818D0200C0
:10003000E57B020000000000E18D0200458E020019
:10004000D94F0200E54F0200F14F0200FD4F0200C0
:100050000950020015500200215002002D500200EC
:100060003950020045500200515002005D5002001C
:100070006950020075500200815002008D5002004C
:10008000814802008D48020099480200A5480200FC
:10009000B1480200811D0200951D0200A91D020049
:1000A000BD1D02000000000000000000F52202005B
:1000B000012302000D23020000000000CD470200D2
:1000C00000000000414C0200157702002177020079
:1000D0002D77020039770200457702005177020040
:1000E0005D77020069770200000000000000000058
:1000F00000000000000000006939020075390200AC
:10010000557B0200617B0200897B0200CD15020055
:10011000354C0200E57B02006D22020049220200FC
:10012000E57B02004933020091330200D93302001B
:10013000553302009D330200E533020061330200B3
:10014000A9330200F13302006D330200B53302001F
:10015000FD33020079330200C1330200093402008A
:1001600085330200CD330200153402000000000088
:10017000000000000000000000000000000000007F
:10018000000000006D280200C9390200552002005D
:10019000612002006D200200792002002156020039
:1001A000054C0200FD4B02000D4C0200A520020090
:1001B000B1200200FFFFFFFFFFFFFFFFFFFFFFFF78
:1001C00081F0004102E000BF83F0004330B54FEA08
:1001D00041044FEA430594EA050F08BF90EA020F75
:1001E0001FBF54EA000C55EA020C7FEA645C7FEA08
:1001F000655C00F0E2804FEA5454D4EB5555B8BF2B
:100200006D420CDD2C4480EA020281EA030382EA9B
:10021000000083EA010180EA020281EA0303362D2D
:1002200088BF30BD11F0004F4FEA01314FF4801C00
:100230004CEA113102D0404261EB410113F0004F12
:100240004FEA03334CEA133302D0524263EB4303C9
:1002500094EA050F00F0A780A4F10104D5F1200E67
:100260000DDB02FA0EFC22FA05F2801841F10001C2
:1002700003FA0EF2801843FA05F359410EE0A5F196
:1002800020050EF1200E012A03FA0EFC28BF4CF0C7
:10029000020C43FA05F3C01851EBE37101F000457D
:1002A00007D54FF0000EDCF1000C7EEB00006EEB8A
:1002B0000101B1F5801F1BD3B1F5001F0CD3490814
:1002C0005FEA30004FEA3C0C04F101044FEA44526B
:1002D00012F5800F80F09A80BCF1004F08BF5FEAF2
:1002E000500C50F1000041EB045141EA050130BDD2
:1002F0005FEA4C0C404141EB010111F4801FA4F175
:100300000104E9D191F0000F04BF01460020B1FAC9
:1003100081F308BF2033A3F10B03B3F120020CDA01
:100320000C3208DD02F1140CC2F10C0201FA0CF0DF
:1003300021FA02F10CE002F11402D8BFC2F1200C44
:1003400001FA02F120FA0CFCDCBF41EA0C019040FA
:10035000E41AA2BF01EB0451294330BD6FEA040443
:100360001F3C1CDA0C340EDC04F11404C4F120022E
:1003700020FA04F001FA02F340EA030021FA04F340
:1003800045EA030130BDC4F10C04C4F1200220FA97
:1003900002F001FA04F340EA0300294630BD21FAD5
:1003A00004F0294630BD94F0000F83F4801306BF9B
:1003B00081F480110134013D4EE77FEA645C18BF8F
:1003C0007FEA655C29D094EA050F08BF90EA020F26
:1003D00005D054EA000C04BF1946104630BD91EA1E
:1003E000030F1EBF0021002030BD5FEA545C05D121
:1003F0004000494128BF41F0004130BD14F5800460
:100400003CBF01F5801130BD01F0004545F0FE41D3
:1004100041F470014FF0000030BD7FEA645C1ABF08
:10042000194610467FEA655C1CBF0B46024650EA3F
:10043000013406BF52EA033591EA030F41F400216B
:1004400030BD00BF90F0000F04BF0021704730B5F1
:100450004FF4806404F132044FF000054FF00001C6
:1004600050E700BF90F0000F04BF0021704730B587
:100470004FF4806404F1320410F0004548BF40425C
:100480004FF000013EE700BF42004FEAE2014FEAB1
:1004900031014FEA02701FBF12F07F4393F07F4F8C
:1004A00081F06051704792F0000F14BF93F07F4FBE
:1004B000704730B54FF4607401F0004521F0004101
:1004C00020E700BF50EA010208BF704730B54FF087
:1004D00000050AE050EA010208BF704730B511F08C
:1004E000004502D5404261EB41014FF4806404F1C4
:1004F00032045FEA915C3FF4DCAE4FF003025FEA46
:10050000DC0C18BF03325FEADC0C18BF033202EBCD
:10051000DC02C2F1200300FA03FC20FA02F001FA27
:1005200003FE40EA0E0021FA02F11444C1E600BFC6
:100530004FF0FF3C06E000BF4FF0010C02E000BFAF
:100540004FF0010C4DF804CD4FEA410C7FEA6C5C92
:100550004FEA430C18BF7FEA6C5C1BD001B050EA35
:10056000410C0CBF52EA430C91EA030F02BF90EA20
:10057000020F0020704710F1000F91EA030F58BFDF
:10058000994208BF90422CBFD8176FEAE37040F041
:10059000010070474FEA410C7FEA6C5C02D150EADF
:1005A000013C07D14FEA430C7FEA6C5CD6D152EA9A
:1005B000033CD3D05DF8040B704700BF844610465F
:1005C00062468C461946634600E000BF01B5FFF75E
:1005D000B7FF002848BF10F1000F01BD4DF808ED2E
:1005E000FFF7F4FF0CBF012000205DF808FB00BFFF
:1005F0004DF808EDFFF7EAFF34BF012000205DF859
:1006000008FB00BF4DF808EDFFF7E0FF94BF0120A5
:1006100000205DF808FB00BF4DF808EDFFF7CEFFA6
:1006200094BF012000205DF808FB00BF4DF808EDE5
:10063000FFF7C4FF34BF012000205DF808FB00BFB6
:100640004FEA410212F5001215D211D56FF47873FA
:10065000B3EB625212D94FEAC12343F0004343EA9D
:10066000505311F0004F23FA02F018BF4042704778
:100670004FF00000704750EA013005D111F0004002
:1006800008BF6FF0004070474FF00000704700BF98
:1006900053B94AB9002908BF00281CBF4FF0FF31E9
:1006A0004FF0FF3000F07EB9ADF1080C6DE904CEDB
:1006B00000F006F8DDF804E0DDE9022304B070473D
:1006C0002DE9F0478C460E460446089D002B50D17C
:1006D0008A4217466CD9B2FA82FEBEF1000F0BD0E7
:1006E000CEF1200420FA04F401FA0EF644EA060CD6
:1006F00002FA0EF700FA0EF44FEA1749220CBCFB7F
:10070000F9F01FFA87F809FB10C642EA064600FB1B
:1007100008F3B34209D9F61900F1FF3280F02281C3
:10072000B34240F21F8102383E44F61AA2B2B6FB31
:10073000F9F309FB136642EA064403FB08F8A045F7
:1007400009D9E41903F1FF3280F00A81A04540F293
:100750000781023B3C44C8EB040443EA004000210B
:10076000002D62D024FA0EF400232C606B60BDE8EB
:10077000F0878B4207D9002D55D0002185E8410034
:100780000846BDE8F087B3FA83F1002940F0908075
:10079000B34202D3824200F2F880841A66EB030669
:1007A0000120B446002D40D085E81010BDE8F08748
:1007B00012B90127B7FBF2F7B7FA87FEBEF1000FB7
:1007C00035D1F31B4FEA17481FFA87FC0121B3FB11
:1007D000F8F0220C08FB103642EA06460CFB00F348
:1007E000B34207D9F61900F1FF3202D2B34200F248
:1007F000CE801046F61AA2B2B6FBF8F308FB1366D9
:1008000042EA06440CFB03FCA44507D9E41903F1B2
:10081000FF3202D2A44500F2B5801346CCEB0404AB
:1008200043EA00409CE729462846BDE8F087CEF120
:10083000200106FA0EF307FA0EF720FA01F94FEA43
:100840001748CE4049EA0309B6FBF8FA4FEA1944C3
:1008500008FB1A661FFA87FC44EA06430AFB0CF2FF
:100860009A4200FA0EF40AD9DB190AF1FF3180F03E
:1008700087809A4240F28480AAF1020A3B449B1A84
:100880001FFA89F9B3FBF8F108FB113349EA034376
:1008900001FB0CF69E4207D9DB1901F1FF326BD246
:1008A0009E4269D902393B449B1B41EA0A418EE7CB
:1008B000C1F1200E22FA0EF48B40234320FA0EF7EA
:1008C00006FA01F44FEA134C26FA0EF63C43B6FB47
:1008D000FCF9270C0CFB19661FFA83F847EA064659
:1008E00009FB08F7B74202FA01F200FA01FA08D947
:1008F000F61809F1FF3041D2B7423FD9A9F10209F8
:100900001E44F61BA0B2B6FBFCF40CFB146640EAD6
:10091000064704FB08F8B84507D9FF1804F1FF3073
:1009200028D2B84526D9023C1F4444EA0940C8EB06
:100930000707A0FB02894F4544464E4614D329D0F1
:1009400065B3BAEB040367EB060707FA0EFECB406C
:10095000CF404EEA030385E888000021BDE8F08718
:100960001346F8E61046E0E6B8EB020469EB03062E
:100970000138E5E70446D8E7114695E78146C0E728
:100980008A467CE7023B3C4448E708460AE70238CF
:100990003E442FE7C245E7D33E46D1E72946BDE8AE
:1009A000F08700BF704700BF844641EA000313F0A0
:1009B00003036DD1403A41D351F8043B40F8043B66
:1009C00051F8043B40F8043B51F8043B40F8043B29
:1009D00051F8043B40F8043B51F8043B40F8043B19
:1009E00051F8043B40F8043B51F8043B40F8043B09
:1009F00051F8043B40F8043B51F8043B40F8043BF9
:100A000051F8043B40F8043B51F8043B40F8043BE8
:100A100051F8043B40F8043B51F8043B40F8043BD8
:100A200051F8043B40F8043B51F8043B40F8043BC8
:100A300051F8043B40F8043B403ABDD2303211D368
:100A400051F8043B40F8043B51F8043B40F8043BA8
:100A500051F8043B40F8043B51F8043B40F8043B98
:100A6000103AEDD20C3205D351F8043B40F8043B68
:100A7000043AF9D2043208D0D2071CBF11F8013B66
:100A800000F8013B01D30B8803806046704700BF2C
:100A9000082A13D38B078DD010F003038AD0C3F13B
:100AA0000403D21ADB071CBF11F8013B00F8013B1D
:100AB00080D331F8023B20F8023B7BE7043AD9D3DC
:100AC000013A11F8013B00F8013BF9D20B780370B1
:100AD0004B7843708B7883706046704700B585B063
:100AE000002001900290039001238DF80E308DF8C4
:100AF0000D308DF80A3040F6C312ADF806208DF89F
:100B0000093001A900F06AFC05B05DF804FB00BFE4
:100B100008B5044B1B6813F0800F02D0002000F0D2
:100B2000A9FC08BD00B00040284B1B7813F0FF0F54
:100B300000D172B6254A13780133DBB21370244B0F
:100B4000244A9A609A68244A9A609B68204A1368EB
:100B500013F0040FFBD01E4A136823F080031360C8
:100B6000136813F0040FFBD1184B1B7813F0FF0F21
:100B700004D0164A1378013BDBB21370134B1B7879
:100B800013F0FF0F00D162B6104B1B7813F0FF0F6C
:100B900000D172B60D4A13780133DBB213700C4BDF
:100BA0000E49996099680E4999609B68137813F013
:100BB000FF0F03D01378013BDBB21370034B1B789C
:100BC00013F0FF0F00D162B6704700BF4C05FF1F46
:100BD00000B0004087D964E078848A8615AD087932
:100BE00079A8D55A08B50DF0A5FE0DF0ABFE08BDED
:100BF00008B50DF0A1FE0DF0A1FE0DF0A1FE08BD9F
:100C0000704700BF704700BF70B582B004460D4604
:100C1000164601A806F0ACFE8DF8046007238DF897
:100C2000053000238DF8063001AA2946204606F03B
:100C3000A7FE02B070BD00BF58B9074B1B88B3F5C3
:100C4000805F03D340F6FF72034B1A80024B188873
:100C500070470020704700BF00E00020012811D835
:100C6000094B03EB40039B88B3F5805F05D3064B2C
:100C700003EB400340F6FF729A80034B03EB400006
:100C8000808870470020704700E0002010B588B0D1
:100C9000002006F06FFD01A806F07EFD05238DF80B
:100CA000043000248DF805408DF807408DF8084089
:100CB00001238DF809308DF80A408DF80B308DF83E
:100CC0000C308DF80D408DF80E408DF80F408DF8EA
:100CD00010408DF811408DF812308DF813408DF8CA
:100CE0001C3001A9204606F06DFD03222146204656
:100CF000FFF78AFF08B010BD30B589B0012006F0BB
:100D000039FD01A806F048FD05238DF804300024C4
:100D10008DF805408DF807408DF8084001258DF8C5
:100D200009508DF80A408DF80B508DF80C508DF855
:100D30000D408DF80E408DF80F408DF810408DF865
:100D4000114002238DF812308DF813408DF81C509D
:100D500001A9284606F036FD0C2221462846FFF759
:100D600053FF092229462846FFF74EFF09B030BD40
:100D70002DE9F04182B0304F00243E4626F8044B66
:100D80007C602E4D22460721284603F041FD224675
:100D90000F21284603F03CFD22460E21284803F08F
:100DA00037FDFFF773FFFFF7A7FF0223254A264908
:100DB000264804F0C7F8DFF8A0800223019301253C
:100DC00000953B4642462146204603F089FF204AD3
:100DD0004146204604F0E6F80421204604F0EAF8F3
:100DE0002946204604F030F8204604F039F808F58A
:100DF00080580427019700953346424621462846ED
:100E000003F06EFF134A4146284604F0CBF83946FA
:100E1000284604F0CFF82946284604F015F828465D
:100E200004F01EF8204606F005FE284606F002FEF5
:100E300002B0BDE8F08100BF00E000200052084091
:100E400000530840A0160300981603002000FF1F5F
:100E5000EC300040F0400040E830004008B501218F
:100E6000052000F04BF90121062000F047F90DF0B4
:100E700097FC052107200DF0EFFCFF211F200DF04E
:100E8000EBFCFF210C200DF0E7FC124B1B78DBB2D2
:100E9000012B03D1FF210D200DF0DEFC02211320D8
:100EA0000DF0DAFC0C4B1B78C3EB03230B4981FBE1
:100EB0000321DB17C3EB6111C9B215200DF0CCFC87
:100EC00003210B200DF0C8FCFE210C200DF0C4FC0A
:100ED00008BD00BF02000E0001000E001F85EB518F
:100EE00030B583B0019010F0030006D0012806D081
:100EF00002280CBF0924002402E0002400E006249C
:100F00009DF8053013F0030308D0012B02D144F003
:100F1000600403E0022B08BF44F090049DF8063003
:100F200013F0030306D0012B06D0022B0CBF0925BA
:100F3000002502E0002500E006259DF8073013F0AB
:100F4000030308D0012B02D145F0600503E0022B1A
:100F500008BF45F090050B4B1B78A34205D02146F6
:100F600008200DF079FC074B1C70064B5B78AB42F8
:100F700005D0294609200DF06FFC024B5D7003B0CF
:100F800030BD00BF8003FF1F012805D108B5052132
:100F900007200DF061FC08BD704700BF014BD879F8
:100FA000704700BF8003FF1F034B587A1B7A03EB87
:100FB000002080B2704700BF8003FF1F034BD87A28
:100FC0009B7A03EB002080B2704700BF8003FF1FB5
:100FD000134B1B880A339BB2B3F5FA7F02D2104A37
:100FE0001380704710B500220D4B1A800D4CE11D87
:100FF00040200DF01FFC04F1080141200DF01AFC07
:1010000004F1090142200DF015FC04F10A0144200D
:101010000DF010FC04F10B0145200DF00BFC10BD90
:101020008C03FF1F8003FF1F2DE9F0471A4B03F1CC
:10103000090403F15D0800274FF0010925462378D4
:10104000012B0ED154F8056C14F801AC4A465146F8
:10105000304603F0E1FB62785146304603F0E8FB8E
:101060000DE014F8016C3A46314654F8050C03F0D3
:10107000D3FB3A46314654F8090C03F0ADFB4A461F
:1010800015F8011C55F8090C03F0C2FB0C3444455B
:10109000D4D1BDE8F08700BFA8160300062829D8E0
:1010A00070B5044600EB4002134B03EB82035B7AFE
:1010B000012B0FD1104D4600331805EB8303586800
:1010C00003F0C2FB344405EB84052B7AD84000F0D2
:1010D000010070BD084D4600331805EB83035868C6
:1010E00003F0B4FB344405EB8404237AD84000F0C9
:1010F000010070BD00207047A8160300062815D80F
:1011000010B500EB40030A4C04EB83035B7A012B20
:101110000BD123464200141803EB84040A1C18BFA9
:101120000122217A606803F083FB10BD704700BF85
:10113000A81603002DE9F04196B00DF14C080024EB
:101140001394149415940FAF0F94119412942422B5
:10115000214606A810F052FA0194029403940494D4
:10116000ADF8144004238DF84C3002268DF8516000
:1011700001258DF83D50CDF840808DF848500797F7
:101180001323ADF822304FF4BB73ADF826308DF841
:10119000295006A9304601F03DFC8DF804408DF839
:1011A00005408DF806408DF807408DF808408DF811
:1011B00009508DF80A408DF80B408DF80C408DF8E1
:1011C0000D408DF80E508DF80F508DF810508DF8A1
:1011D00011508DF812408DF813508DF8155001A95B
:1011E000304601F0FBFC32460D21064803F010FBAF
:1011F000054A136823F0180343F00803136016B080
:10120000BDE8F081005508400010084008B5FFF720
:1012100091FF08BDF9B10B46022803D0032805D081
:1012200060B907E00C49B1FBF3F308E00B49B1FBEF
:10123000F3F304E00949B1FBF3F300E0002353B1F9
:1012400010B50446591E89B201F0C2FD01212046A5
:1012500001F0E2FD10BD7047808D5B00C0270900E2
:1012600070B505460E46144601F0BAFD013000FB8C
:1012700004F40B4BA3FB04235B0904D00246984201
:1012800028BF1A4600E00122013A92B231462846B0
:1012900001F094FD0121284601F0BEFD70BD00BFA4
:1012A0001F85EB514FF40032094B9A60094B1B78B4
:1012B00013F0FF0F04D0074A1378013BDBB2137021
:1012C000044B1B7813F0FF0F00D162B6704700BFCC
:1012D00000ED00E04C05FF1F08B506F07BFEFFF7B0
:1012E000E1FF06F097FEFEE770B508F021FB8400F1
:1012F000850F6B0143EAD4636201121B63EB0503A4
:10130000101843F10001CB0043EA5073C2001046AD
:10131000194642F210720023FFF7BAF970BD00BF00
:1013200000B583B00068124B5B68C3F3080393B148
:1013300002A9002341F8043D07F0D4FF01280FD192
:10134000019B6BB14FF080520A4B1A60BFF34F8F75
:10135000BFF36F8F04E000231A46194607F012FF0F
:1013600010F1FF3018BF012003B05DF804FB00BF8F
:1013700000ED00E004ED00E010B50446FF2007F0AA
:10138000EDFE2060B0FA80F0400910BD08B500689D
:1013900008F06EF8002008BD00B583B0002301936B
:1013A000032816D8DFE800F002070C1101A91E205F
:1013B00004F084FF0DE001A9012004F07FFF08E0A4
:1013C00001A9032004F07AFF03E001A9052004F03D
:1013D00075FF019803B05DF804FB00BF38B50C46FB
:1013E000224B586800F00300022806D0032806D0DC
:1013F000012814BF0020012002E0022000E00320A9
:10140000FFF7CAFF05462079FFF7C6FF15B318B3EB
:1014100028E0228863889A4220D2638803B3E37964
:1014200023B14FF40022124B5A600AE0104B4FF4E4
:101430000022C3F88420BFF34F8FBFF36F8FC3F830
:1014400084210121262004F00FFE2146074800F0E8
:1014500055F838BD012038BD012038BD012038BD08
:10146000012038BD237A002BD3D1D6E700B000404D
:1014700000E100E0104B1B7813F0FF0F00D172B6B3
:101480000D4A13780133DBB213700C4B0C49996091
:1014900099680C4999609B68137813F0FF0F03D08B
:1014A0001378013BDBB21370034B1B7813F0FF0F73
:1014B00000D162B6704700BF4C05FF1F00B000406E
:1014C00015AD087979A8D55A08B5084B084A9A602D
:1014D0009A68084A9A609A685A6842F040025A60CC
:1014E000054B53F8203003B1984708BD00B00040C9
:1014F00087D964E078848A869003FF1F30B402683D
:101500004468036813F0200F55D024F0D3040B79FE
:1015100003F003031C438B790BB144F010040B7AE6
:101520000BB144F0800422F0E3024B790BB142F09E
:101530002002CB7913B942F0800201E042F0C002F0
:101540008B7A0BB142F002024B7A0BB142F00102EE
:101550001B4B1B7813F0FF0F00D172B6184D2B7880
:101560000133DBB22B70174B83608368164B8360AB
:101570008368036813F0040FFBD04B88C3600B7AB9
:101580000BB10B88036144600260036813F0040F21
:10159000FBD10B4B1B7813F0FF0F04D0084A1378D4
:1015A000013BDBB21370064B1B7813F0FF0F04D125
:1015B00062B6002002E0012000E0002030BC70474D
:1015C0004C05FF1F87D964E078848A8608B500201F
:1015D000FFF77AFF08BD00BF38B5114B53F8205014
:1015E000104B53F82040A38E9BB2022B02D1002354
:1015F000A38604E000220C49284600F009FB0022E3
:101600000A49284600F004FB00232374A37C13F04E
:10161000FF0F03D004F13000FFF782FE38BD00BF9A
:10162000041703009403FF1F0100030002000300DE
:1016300038B5124B53F82050114B53F820402B6C07
:1016400023F002032B6494F82A0003F015FC002217
:101650000C49284600F0DCFAA37C13F0FF0F03D0FE
:1016600004F13000FFF75CFEA38E9BB2022B04BF97
:101670000023A3860023237438BD00BF0417030092
:101680009403FF1F0200030010B50A4B53F82040DB
:10169000A36873B994F82830012B02D1FFF79CFF9F
:1016A00001E0FFF7C5FF236A1BB1626A02212046F1
:1016B000984710BD9403FF1F08B50A4B53F820301C
:1016C000094A52F820001A681B7D012B02D81378B2
:1016D000036008BD1378517843EA012100F076FADF
:1016E00008BD00BF9403FF1F0417030038B5164B55
:1016F00053F82050154B53F82040236923F0010381
:101700002361236913F0010FFBD10021204600F073
:1017100019FB236800224FF44031204600F078FA8C
:10172000EB7C13F0FF0F05D005F12C00FFF7F8FD5F
:101730000023EB7400236B74EB8E9BB2022B04BF6F
:101740000023EB8638BD00BF9403FF1F041703007E
:1017500038B5174B53F82040164B53F820502369E7
:1017600023F001032361236913F0010FFBD1002152
:10177000204600F0E7FA236C23F00103236423687A
:10178000236895F8290003F077FBEB7C13F0FF0F3B
:1017900005D005F12C00FFF7C3FD0023EB74EB8EA1
:1017A0009BB2022B04BF0023EB8600236B7438BD71
:1017B000041703009403FF1F10B582B00E4B53F8BB
:1017C00020300E4A52F820000022ADF806205C6856
:1017D0001B7D012B02D8036823700AE00DF106017E
:1017E00000F0F8F9BDF806302370BDF806301B0A8A
:1017F000637002B010BD00BF9403FF1F0417030005
:101800002DE9F0410646774B53F82040764B53F8CC
:1018100020504FF00111204600F054FAA8B140F2D8
:101820000163EB8695F82830012B03D13046FFF792
:101830005DFF02E03046FFF78BFFAB691BB1EA6941
:101840000321284698479E2323626849204600F0DA
:1018500039FAA8B140F20463EB8695F82830012BE1
:1018600003D13046FFF742FF02E03046FFF770FF3A
:10187000AB691BB1EA690321284698479E2323627E
:101880005B49204600F01EFAA8B140F20363EB86E4
:1018900095F82830012B03D13046FFF727FF02E0EF
:1018A0003046FFF755FFAB691BB1EA6903212846B3
:1018B00098479E2323624F49204600F003FAA8B1BF
:1018C00040F20563EB8695F82830012B03D13046B2
:1018D000FFF70CFF02E03046FFF73AFFAB691BB1A0
:1018E000EA690321284698479E23236242492046FD
:1018F00000F0E8F9A8B140F20663EB8695F82830CD
:10190000012B03D13046FFF7F1FE02E03046FFF72E
:101910001FFFAB691BB1EA690321284698479E2344
:1019200023624FF44031204600F0A6F900282ED063
:101930004FF48031204600F0C5F940B32A4B53F8EC
:1019400026703046FFF738FF3B7D022B06D07B68C0
:1019500001337B60FB68013BFB6005E07B68023381
:101960007B60FB68023BFB60FB682BB9BB691BB16A
:10197000FA69002138469847FB6843B93046FFF7BB
:10198000B5FEBB691BB1FA690221384698471B496D
:10199000204600F071F9002853D01949204600F084
:1019A00091F900284DD0104B53F82670BB68002BDE
:1019B00047D00C4B53F826803046FFF77DFE3B7D29
:1019C000022B21D0BB68012B04D101220D494046D6
:1019D00000F01EF93B6801333B60BB68013BBB6014
:1019E00020E000BF041703009403FF1F0200010062
:1019F00003000100040001000700010001000300D2
:101A00000500010002000300BB68022B04D1012283
:101A10002849404600F0FCF83B6802333B60BB6855
:101A2000023BBB60BB6863B93B6A1BB17A6A0121A8
:101A300038469847BB6823B900221F49404600F04A
:101A4000E7F81C49204600F017F938B11B49204639
:101A500000F038F910B13046FFF716FE184920465D
:101A600000F00AF970B11749204600F02BF948B18F
:101A70001449204600F03CF9AB691BB1EA69042126
:101A8000284698471049204600F0F6F880B14FF4F8
:101A90000031204600F016F950B14FF400312046D5
:101AA00000F026F9AB691BB1EA6905212846984781
:101AB000BDE8F08102000300010003000600010000
:101AC00002000400080002000400060030B583B0E4
:101AD00000230193204B53F820303BB11A7C12F0C5
:101AE000FF0F32D15B7C13F0FF0F30D10C461B4B44
:101AF00053F8205001A91A4B33F8100004F0DEFB14
:101B0000019BB3EB840F24D9B3EBC40F09D9210196
:101B10008B4294BF012200228B4294BF08211021E6
:101B200001E002220421AA6207EE903AB8EE670AA9
:101B300004FB01F107EE901AF8EE677A80EE270AAF
:101B4000284600F04DF8002004E0022002E00220C8
:101B500000E0012003B030BD9403FF1F0417030011
:101B6000FC16030003280CD810B504460121054BD0
:101B7000185C04F079FA0121034B185D04F0B8FAFF
:101B800010BD70471417030018170300C36823F033
:101B900003031943C1607047C368C26822F0200282
:101BA000C260012907D049B102290AD123F01003EC
:101BB00043F0080307E043F0180304E023F01803A0
:101BC00001E023F01803C360704700BFC1F30801B0
:101BD000016070470368C3F308030B80704700BFC0
:101BE000FCEEC07A17EE903AF8EE677A30EE670AAC
:101BF000DFED067A20EE270ABCEEC00ADAB24260B8
:101C0000C3F30723836080ED110A70470000004290
:101C100010B48BB2090C033903292AD8DFE801F08C
:101C2000020C1620C4690121994024EA010102FA3C
:101C300003F30B43C3611CE0846C0121994024EA47
:101C4000010102FA03F30B43836412E0C46D012126
:101C5000994024EA010102FA03F30B43C36508E04B
:101C6000846D0121994024EA010102FA03F30B4338
:101C700083655DF8044B70470B0C033B032B1FD8A7
:101C8000DFE803F002091017C36988B223FA00F0F5
:101C900000F001007047836C88B223FA00F000F076
:101CA00001007047C36D88B223FA00F000F0010014
:101CB0007047836D88B223FA00F000F0010070478E
:101CC000002070470B0C012B02D0022B07D00DE037
:101CD000036A88B223FA00F000F001007047436AFB
:101CE00088B223FA00F000F001007047002070472E
:101CF000124B994206D8013B99421CD2B1F5803F64
:101D000009D118E00E4B994215D004D3A1F5003348
:101D1000053B022B0FD90B0C012B05D189B203FA1D
:101D200001F101620020704789B2012303FA01F139
:101D30004162002070470120704700BF060001008B
:101D40000800010038B505460C460A460949FFF768
:101D50005FFF22464FF003112846FFF759FF224646
:101D600005492846FFF754FF224604492846FFF755
:101D70004FFF38BD06000300050003000400030008
:101D800008B5034B1B680BB10020984708BD00BF86
:101D90006000FF1F08B5034B5B680BB1012098473B
:101DA00008BD00BF6000FF1F08B5034B9B680BB167
:101DB0000220984708BD00BF6000FF1F08B5034B15
:101DC000DB680BB10320984708BD00BF6000FF1F10
:101DD00010B50C460D4901EB80014FF4817004F001
:101DE0006DFA01214D2004F03FF901214D2004F04E
:101DF0007FF9074B1A6842F001021A60196821F056
:101E0000020141EA4401196010BD00BFA403FF1F95
:101E100000100140024AD3681943D160704700BFE7
:101E200000100140024AD36823EA0101D1607047E3
:101E300000100140F8B505461746234B53F82160C2
:101E4000224C04EB80014FF4817004F037FA54F80F
:101E500025001F4A0023A0FB0701FEF719FC10F123
:101E6000FF3441F1FF35B368C3F30113012B1BD0DD
:101E7000022B22D1012D08BF002C1BD30120F8BD5D
:101E8000144A0023AB4208BFA2420BD3002D08BF67
:101E9000B4F5803F0ED3B0F1011002044FF6FF7489
:101EA000144307E00120F8BD012D08BF002CE7D343
:101EB0000120F8BD34600020F8BD012D08BF002CC2
:101EC000F8D30120F8BD00BF1C170300A403FF1FB7
:101ED00040420F00FEFF010070B50C4619B9D37CDB
:101EE000002B40F08480454B53F82450AB6823F01E
:101EF0000101D37C0B43AB60AB68117823F0300356
:101F000043EA0113AB601378022BAB680FBF23F0D9
:101F10000C03517A23F00C0343EA8103AB6026469D
:101F200014465378012B07D152683146FFF782FFE0
:101F30000346002860D101E053682B60AB68227A29
:101F400023F4803343EA0243AB60AB68E26823F4D6
:101F5000704343EA0233AB60AB68227C23F48063B6
:101F600043EA8223AB60AB68627C23F4007343EAEC
:101F70004223AB60AB68A27C23F4807343EA022364
:101F8000AB60A2691E4B43F82620237DA3B11D49F7
:101F90008A680123B34013438B601B4B9B57002B74
:101FA00027DB590903F01F03012202FA03F3174A42
:101FB00042F8213000231FE012498A680123B34010
:101FC00022EA03038B60104B9B57002B13DB5A094B
:101FD00003F01F03012101FA03F320320B4941F8FA
:101FE0002230BFF34F8FBFF36F8F002304E0012334
:101FF00002E0002300E00023184670BD1C17030018
:10200000A803FF1F001001402C17030000E100E0AF
:10201000024B53F821305A60704700BF1C17030071
:1020200001238340084A516819400BD05360074B85
:1020300053F8203033B110B50022054C54F820007D
:10204000984710BD704700BF00100140A803FF1F54
:102050001C17030008B50020FFF7E2FF08BD00BF12
:1020600008B50120FFF7DCFF08BD00BF08B502205E
:10207000FFF7D6FF08BD00BF08B50320FFF7D0FF6C
:1020800008BD00BF08B50138044B53F820301BB120
:10209000002211460248984708BD00BFB803FF1F41
:1020A0000081084008B50120FFF7ECFF08BD00BF24
:1020B00008B50220FFF7E6FF08BD00BF30B44FF0BF
:1020C00080439D6905280BD14F4B1B68DBB2082B61
:1020D00000F086804C4B1B68DBB2092B7AD17FE085
:1020E0004A4A136823F4E06343EA00231360136849
:1020F00043F00203136010F0FB0F7FD125F0600363
:102100004FF08042936179E04FF47A723F494B6916
:1021100003F00703984201D0013AF8D1B2FA82F2F3
:10212000520910F0FB0F3AD128E0042813D1374BA5
:102130005B6813F4000F0ED04FF080431B6813F45C
:10214000801F08D0324A334B1A60334A0C331A606E
:10215000324A0C331A60324B196821F001021A60BE
:10216000304C226942F00402226130BF1960052818
:1021700014BF0022012210F0FB0F12D1234B5B6829
:1021800013F0005F08D04CF25033204C616811F01E
:10219000806F01D1013BF9D14FF080439D6101284F
:1021A0001AD01A4B5B6813F4000F17D04FF0804120
:1021B0000B6B23F03F030B63642300BF013BFCD197
:1021C0004FF080410B6B23F03F0343F001030B639F
:1021D000104616E0042014E0104612E0104610E00D
:1021E0000A4B1A6822F4E06242F4A0621A601A688C
:1021F00042F002021A600022DA62ACE7012894D8A9
:1022000082E730BC704700BF2418200000800040E7
:102210000100407830800040024202000820120194
:1022200010E000E000ED00E0024B586900F007000C
:10223000704700BF00800040024B1868C0F30220C6
:10224000704700BF0080004008B5064A536943F05C
:1022500010035361044B1B681BB11046D168002268
:10226000984708BD00800040C003FF1F08B5044B1D
:102270001B681BB1002211460248984708BD00BFE9
:10228000C403FF1F00800040836843F01003836095
:10229000836823F010038360704700BF08B52629C8
:1022A00025D8DFE801F014141A1A161A241414247D
:1022B00024242424242424242424242424242424DE
:1022C000242424242424242424242424200001201D
:1022D00008BDFFF7D9FF002008BD012303FA01F173
:1022E000C160002008BD2623C360002008BD002077
:1022F00008BD00BF08B5002000F004F908BD00BF0C
:1023000008B5012000F0FEF808BD00BF08B50220A6
:1023100000F0F8F808BD00BF114B53F820104B68CF
:1023200013F4805F1BD04B6813F0007F17D04B680D
:1023300013F0805F0BD17047CA6812F0800F01D094
:10234000013BF9D18B6843F020038B607047CB6869
:1023500013F0800F18BF4FF47A73EDD1F2E7704796
:102360007000FF1F70B506461B4B53F820401B4BF7
:1023700053F8205000232372A3780BB1FFF7CCFF52
:10238000E37E73B96B6823F400436B606B6823F4DE
:1023900080436B60607E02F06FFDA07E02F06CFDFA
:1023A00007E06B6823F400736B606B6823F4807341
:1023B0006B60304600F01AF9E3782BB104F11C0091
:1023C000FEF7AEFF0023E370636A1BB1A26A00212F
:1023D0002046984770BD00BFC803FF1F7000FF1F55
:1023E00070B50646444B53F82050444B53F82040F8
:1023F000E36813F0040F0BD0EB684BB1FFF7B2FFAB
:1024000002212046FFF74AFF012385F8203070BDE6
:10241000E36813F0080F0CD02B6953B13046FFF777
:10242000A1FF03212046FFF739FF022385F8203062
:1024300070BD636913F0080F0AD0E36813F0800FD2
:1024400006D02F4BE26812F0800F01D0013BF9D18A
:10245000E36813F0020F07D0EB8A9BB21BB1304642
:1024600000F096F800E02369E36813F0010F05D04F
:10247000AB8A9BB213B1304600F054F8AB8A9BB2E2
:102480001BB1636913F0080F11D0EB8A9BB21BB12B
:10249000636913F0040F0AD0E36813F0800F06D1CC
:1024A000636823F4807363603046FFF75BFFE36883
:1024B00013F0200F0CD06368002B09DA05212046A9
:1024C000FFF7ECFE6B6A1BB1AA6A01212846984708
:1024D000E36813F0100F0DD0636813F4005F09D0A8
:1024E00004212046FFF7DAFE6B6A1BB1AA6A0221BB
:1024F0002846984770BD00BFC803FF1F7000FF1F2C
:1025000040420F0008B5064B53F820305B6813F4C7
:10251000805F02D0FFF764FF08BD00F0B5F808BD8A
:102520007000FF1F184B53F82030184A52F8200053
:102530009A7832B19A8A92B2012A02D100229A8202
:102540007047DA68E2B11988082907D812F8011B28
:10255000DA609A8A013A92B29A8212E0102907D878
:1025600032F8021BDA609A8A023A92B29A8208E042
:1025700052F8041BDA609A8A043A92B29A8200E016
:1025800000210161704700BFC803FF1F7000FF1FDB
:10259000144B53F82030144A52F8202010691A695D
:1025A000F2B11988082908D810701A6901321A6125
:1025B000DA8A013A92B2DA827047102908D810807C
:1025C0001A6902321A61DA8A023A92B2DA827047E2
:1025D00010601A6904321A61DA8A043A92B2DA8215
:1025E000704700BFC803FF1F7000FF1F10B50A4BE4
:1025F00053F82040636823F480636360636823F4C6
:102600000063636002212046FFF748FE0321204655
:10261000FFF744FE10BD00BF7000FF1F38B5054630
:10262000174B53F82030174A52F82040E27E012A17
:1026300008D15A6822F480725A605A6822F40072F3
:102640005A600DE05A6822F400425A605A6822F437
:1026500080425A60607E02F00FFCA07E02F00CFC0B
:102660002846FFF7C3FF00232372E3782BB104F160
:102670001C00FEF755FE0023E370002038BD00BFAC
:102680007000FF1FC803FF1F70B50646414B53F88B
:102690002040414B53F82050E36813F0040F07D05B
:1026A000EB682BB1FFF7BAFF012385F8203070BD2E
:1026B000E36813F0080F08D02B6933B13046FFF7F9
:1026C000ADFF022385F8203070BDE36813F0020FE0
:1026D00010D0EB8A9BB263B1FFF7AEFD032804D1A3
:1026E00023690020FFF7EAFC04E03046FFF750FFC3
:1026F00000E02369E36813F0010F05D0AB8A9BB2B9
:1027000013B13046FFF70EFFAB8A9BB21BB963686B
:1027100023F480736360EB8A9BB21BB9636823F474
:1027200000736360EB8A9BB21BB1636913F0040F03
:102730001ED0AB8A9BB21BB1636913F0080F17D090
:10274000636823F480636360636823F400636360F9
:102750006B6A1BB1AA6A002128469847EB782BB117
:1027600005F11C00FEF7DCFD0023EB7000232B724B
:10277000E36813F0200F0CD06368002B09DA052101
:102780002046FFF78BFD6B6A1BB1AA6A0121284620
:10279000984770BD7000FF1FC803FF1F10B5254A82
:1027A00000EB40039B00D418D158A468224B5A690F
:1027B00042F002025A615B6913F0080F27D059B347
:1027C0008B680BB90B7BA3B11B4A94684B682344FD
:1027D000013B536000EB4000164B03EB80000123EC
:1027E00003710B7B13B98B68013B00E000238B6006
:1027F00008E00022104B5A6000EB40000D4B03EB49
:10280000800002710B693BB14869984704E01CB134
:1028100063680BB1A0689847074B5B6913F0040F1E
:1028200007D0054C204600F009F80121204600F0B1
:1028300011F810BDD403FF1F00980040436913F046
:10284000100F03D0436923F0120343614069C0F3C2
:1028500000107047436913F0100F03BF024B9960DB
:1028600000200120704700BF0098004008B50020FC
:10287000FFF794FF08BD00BF10B44FF080446369B8
:1028800043F400036361092856D8DFE800F0050E21
:10289000172029323B55444D4FF08040436923F4C3
:1028A000806343EA8121416146E04FF08040436903
:1028B00023F4006343EAC12141613DE04FF08040D1
:1028C000436923F4805343EA0131416134E04FF01E
:1028D0008040436923F4005343EA413141612BE0D6
:1028E0004FF08040436923F4004343EAC131416122
:1028F00022E04FF08040436923F4803343EA0141F2
:10290000416119E04FF08040436923F4003343EA0A
:102910004141416110E04FF08040436923F40023BE
:1029200043EAC141416107E04FF08040436923F42D
:10293000801343EA015141614FF080414B6923F418
:10294000407343EA02224A615DF8044B704700BFBE
:1029500009285ED8DFE800F0050D161F28313A433C
:102960004C554FF08042936923F001031943916164
:1029700070474FF08042936923F0020343EA41011C
:10298000916170474FF08042936923F0040343EA5A
:102990008101916170474FF08042936923F00803F1
:1029A00043EAC101916170474FF08042936923F07F
:1029B000200343EA4111916170474FF080429369CF
:1029C00023F0400343EA8111916170474FF0804248
:1029D000936923F0800343EAC111916170474FF07E
:1029E0008042936923F4807343EA01219161704727
:1029F0004FF08042936923F4007343EA41219161CF
:102A000070474FF08042936923F4806343EA812149
:102A100091617047F8B506460D46684B53F8204063
:102A20000121674B185C03F01FFB0121654B985D8A
:102A300003F05EFB16F0010F0AD0771E0121604BF8
:102A4000D85D03F011FB01215E4BD85D03F050FB14
:102A50002268698922F47F0323F47F4343EA012338
:102A60002360AB89E364AB896360EB89A360D4F82E
:102A7000A43023F01F022B7C1343C4F8A430EA696E
:102A8000514B43F826202A6A504B43F82620D4F8AD
:102A9000883023F01F02EB7D1343C4F8883023688D
:102AA0002A7D23F0805343EA02732360D4F8A830D0
:102AB0006A7D23F0800343EAC213C4F8A830D4F837
:102AC000A83023F01F02AB7D1343C4F8A83023685D
:102AD000EA7C23F0400343EA82132360236823F057
:102AE00001026B7C134323602368AA7C23F002035A
:102AF00043EA420323602B7ED3B1354B9B57002B17
:102B000008DB590903F01F03012202FA03F3314ADB
:102B100042F82130304B9B57002B2DDB590903F035
:102B20001F03012202FA03F32A4A42F8213023E06C
:102B3000274B9B57002B0DDB5A0903F01F03012184
:102B400001FA03F32032234941F82230BFF34F8FBB
:102B5000BFF36F8F204B9B57002B0DDB5A0903F0FF
:102B60001F03012101FA03F320321A4941F82230F0
:102B7000BFF34F8FBFF36F8F2B78032B16D8DFE88F
:102B800003F002070C116968304600F049FC0DE0C3
:102B90006968304600F0C2F908E06968304600F024
:102BA00023FE03E06968304600F02CFB23682A7A94
:102BB00023F0180343EAC2032360F8BD4017030063
:102BC0005817030060170300F803FF1FE003FF1FFF
:102BD0003017030000E100E038170300F0B4764B33
:102BE00053F820300A78F2B9D3F8902042F40072FA
:102BF000C3F89020D3F8902042F48062C3F890206C
:102C0000D3F8902042F40062C3F89020D3F89020CB
:102C100042F48052C3F89020D3F8902042F400127E
:102C2000C3F890201DE0D3F8902042F40032C3F89E
:102C30009020D3F8902042F48022C3F89020D3F85B
:102C4000902042F40022C3F89020D3F8902042F460
:102C50008012C3F89020D3F8902042F48002C3F889
:102C60009020D3F89020487922F0040242EA8002B2
:102C7000C3F89020D3F89020887922F0200242EA0D
:102C80004012C3F89020D3F89020C87922F01002A7
:102C900042EA0012C3F890209A6D487A22F400624A
:102CA00042EAC0229A659A6D087A22F0080242EA46
:102CB000C0029A6501F10906052020275D6E421FBA
:102CC00007FA02F225EA020416F8012F8240224395
:102CD0005A6608302528F1D18A7BCAB9CA7BBAB9AD
:102CE0000A7832B9D3F8902042F48072C3F8902069
:102CF00005E0D3F8902042F48032C3F890209A6D1A
:102D000022F002029A659A6D22F001029A651BE098
:102D10000A7832B9D3F8902022F48072C3F8902058
:102D200005E0D3F8902022F48032C3F890209A6D09
:102D3000887B22F0020242EA40029A659A6D22F0F4
:102D40000100CA7B02439A659A6D487822F010020E
:102D500042EA00129A659A6D887822F0200242EACF
:102D600040129A659A6DC87822F0400242EA8012B9
:102D70009A65D3F89020087980F0010022F00102D2
:102D80000243C3F890205A6D22F008025A655A6D2A
:102D900022F001004A7C02435A659A6D097C22F4B4
:102DA000803242EA01429A65D3F8902042F08002D4
:102DB000C3F89020F0BC704740170300034B53F852
:102DC0002030013103EBC1039A60704740170300C4
:102DD000024B53F820309960704700BF4017030042
:102DE000024B53F82030986880B2704740170300B8
:102DF000034B53F82020136D23EA0101116570473E
:102E000040170300034B53F82020136823F080037E
:102E10001360704740170300044B53F82020936D54
:102E200023F0800343EAC111916570474017030006
:102E300070B582B00546002301930B4B53F8206018
:102E4000316811F0800401D0FFF7DCFF336803F034
:102E500004030193054B53F825301BB101AA214609
:102E60002846984702B070BD40170300F803FF1FC3
:102E700070B582B00546002301930C4B53F82060D7
:102E8000316D11F0FF0402D02146FFF7B1FF336D21
:102E900003F47F030193064B53F825301BB101AABD
:102EA00021462846984702B070BD00BF4017030076
:102EB000E003FF1F30B4012916D8846E09014FF4D6
:102EC00040658D4024EA050501F10A04A2402A4329
:102ED0008266846E40F2FF328A4024EA020203FADC
:102EE00001F11143816617E0C56E0239C9B20901CB
:102EF0004FF440648C4025EA040401F10A05AA401D
:102F00002243C266C46E40F2FF328A4024EA0202C3
:102F100003FA01F11143C16630BC70472DE9F04F4F
:102F200083B0B74B53F82040236823F0200323607D
:102F3000E36F4A7823F0706343EA0263E3670B7838
:102F4000002B00F05A8100254FF0010C4FF440385F
:102F50004FF00F0B05EB450083004A68D61812F8B6
:102F60002020707800283ED104EBC200C66826F00D
:102F70003006C660C6684F681F44BF78BF0007F0C0
:102F80000C0726F00C063E43C660D4F888704FEA62
:102F9000420E4E681E44F6780EF1100906FA09F941
:102FA00008FA0EF627EA060649EA0606C4F888601B
:102FB000C6684F681F443F7A26F0400646EA8716E7
:102FC000C660C6684F681F44FF7A26F001063E437C
:102FD000C660C6684F681F44BF7A26F4807646EA0A
:102FE0000726C660EAE04FEA5209666E4FEAC9005A
:102FF0000427874026EA0707861C0CFA06F63E439C
:103000006666666E0827874026EA070603300CFAD4
:1030100000F03043606604EBC206F0684F681F445E
:103020007F793F0107F0300720F030003843F0602F
:10303000501CC0B2019004EBC000D0F80CE04F6807
:103040001F447F793F0107F0300A2EF030074AEA2B
:103050000707C760D4F854E04F681F4497F809A0E9
:1030600009F10C070AFA07F74FF4805A0AFA09F92E
:103070002EEA090E47EA0E0767654F681F443F793D
:10308000032F36D8DFE807F0020F1C29F76827F076
:103090000C0747F00407F760C76827F00C0747F0F4
:1030A0000807C76025E0F76827F00C0747F0080716
:1030B000F760C76827F00C0747F00407C76018E0FF
:1030C000F76827F00C0747F00407F760C76827F098
:1030D0000C0747F00407C7600BE0F76827F00C0700
:1030E00047F00807F760C76827F00C0747F00807A4
:1030F000C760676D91F802E027F4007747EA4E2732
:1031000067658F78EFB1D6F80CE04F681F4497F8E9
:1031100008902EF0400747EA8917F760676E47F47A
:1031200080676766676E47F400676766D6F80CE0ED
:103130004F681F4497F80B902EF0010749EA0707E4
:10314000F7604F681F4497F809E0BEF1000F07D001
:10315000D6F80CE02EF0010EFF7A4EEA0707F76072
:10316000C6684F681F443F7A26F0400646EA871635
:10317000C660D4F88870019E4FEA460E4E681E4421
:10318000F6780EF1100906FA09F908FA0EF627EAA0
:10319000060649EA0606C4F88860C6684F681F44F8
:1031A000FF7A26F001063E43C660C6684F681F449A
:1031B000BF7A26F4807646EA0726C660486803444C
:1031C000987960B1E06F02EB82020BFA02F620EA16
:1031D0000600DB7903FA02F20243E26707E0E36FDD
:1031E00002EB82020BFA02F223EA0202E2670135E5
:1031F000EDB20B78AB423FF6ADAE03B0BDE8F08F59
:1032000040170300344B53F82030D3F8842008785B
:1032100022F0080242EAC002C3F88420DA6FC87ABA
:1032200022F0706242EA0062DA67D3F884204878BC
:1032300022F0200242EA4012C3F88420D3F884200E
:10324000087922F0100242EA0012C3F88420D3F871
:103250008420C87922F4007242EA4022C3F8842014
:10326000D3F88420087B22F4807242EA0022C3F85B
:1032700084208A7832B1DA6F22F00F00CA780243D4
:10328000DA6703E0DA6F22F00F02DA674A793AB1BF
:10329000DA6F887922F4F07242EA4012DA6703E0CA
:1032A000DA6F22F4F072DA670A7A3AB1DA6F487AA2
:1032B00022F4705242EA8022DA6703E0DA6F22F4E5
:1032C0007052DA67D3F8842022F001008A7A024330
:1032D000C3F88420704700BF4017030000B583B0D7
:1032E00000230193164B53F820309A6F12F0010F10
:1032F0001CBF012201929A6F12F0020F03D0019AB3
:1033000042F0020201929A6F12F0040F03D0019A68
:1033100042F0040201929A6F12F0080F03D0019A52
:1033200042F008020192996F01F08001054B53F8B9
:1033300020300BB101AA984703B05DF804FB00BF31
:10334000401703001004FF1F08B50020FFF770FDB1
:1033500008BD00BF08B50120FFF76AFD08BD00BF2A
:1033600008B50220FFF764FD08BD00BF08B50320C3
:10337000FFF75EFD08BD00BF08B50420FFF758FD4C
:1033800008BD00BF08B50520FFF752FD08BD00BF0E
:1033900008B50020FFF76CFD08BD00BF08B501208F
:1033A000FFF766FD08BD00BF08B50220FFF760FD0E
:1033B00008BD00BF08B50320FFF75AFD08BD00BFD8
:1033C00008B50420FFF754FD08BD00BF08B505206F
:1033D000FFF74EFD08BD00BF08B50020FFF77EFFD8
:1033E00008BD00BF08B50120FFF778FF08BD00BF8A
:1033F00008B50220FFF772FF08BD00BF08B5032023
:10340000FFF76CFF08BD00BF08B50420FFF766FF9B
:1034100008BD00BF08B50520FFF760FF08BD00BF6D
:103420002DE9F04F83B00C465C4B53F8205000233D
:10343000009301932B680A7823F0200343EA421398
:103440002B604B78BBB10020012600EB4001636884
:1034500003EB8107EA6D13F8213006FA03F122EA43
:1034600001013A7A02FA03F30B43EB650130C0B273
:1034700063788342E9D8A3782BB300200126C0EB00
:10348000C0029100A36803EB010E13F82230EA6D2D
:1034900006FA03F722EA07079EF812209A403A43F9
:1034A000EA65EA6D0133DBB2A7683944C97C99400B
:1034B00006FA03F322EA03030B43EB650130C0B2C3
:1034C000A3788342DBD86B6D227B23F0020343EAAF
:1034D00042036B656378002B62D04FF0000E4FF013
:1034E000010C0EEB4E039A00616811F8230005EB06
:1034F000C003D96821F0300141F02001D960D968BA
:10350000666816447679B60006F00C0621F00C01C8
:103510003143D9606168114449881961676817446B
:1035200000F0FC0802A98844397901F01F0600F078
:103530000301C90006FA01F158F8086C314348F854
:10354000081C6E6F0CFA00F1C943BF7987400E402A
:103550003E436E67DE6867681744FF7926F04006D1
:1035600046EA8716DE602F6F66681644767A06FA9A
:1035700000F0394001432967D96860680244907AB5
:1035800021F4807242EA0022DA600EF1010E5FFA45
:103590008EFE63787345A4D802E000BF4017030095
:1035A000A378002B00F0FB804FF000084FF00109DA
:1035B000C8EBC8039E00A26812F8237079086A6EEF
:1035C000CB0009FA03F002436A66686EA2683244CF
:1035D000527A03F1040E02FA0EFE10229A4020EAFB
:1035E00002024EEA02026A66686EA2683244927A69
:1035F00003F1010E02FA0EFE02229A4020EA0202B4
:103600004EEA02026A666A6EA0683044C07A03F12C
:10361000070E00FA0EF04FF0800E0EFA03F322EAC6
:10362000030303436B66A2683244138B927E2846E1
:10363000FFF740FC05EBC703DA68A1683144097A5B
:10364000890001F00C0122F00C020A43DA60A26842
:10365000324452881A61791CC9B2A26832449088F7
:1036600005EBC1021061A06800EB060E07F0030B2A
:103670004FEACB0B07F0FC0C02A884449EF806002E
:1036800000F01F0000FA0BFA5CF8080C4AEA000A86
:103690009EF8070000F01F000BF1080B00FA0BF07A
:1036A0004AEA00004CF8080CD8689EF80CE020F0BC
:1036B000020040EA4E00D860D2F80CC0A06800EBCF
:1036C000060E9EF80DE02CF0020040EA4E00D0609D
:1036D000D5F874C009FA07FE6FEA0E0EA0683044F0
:1036E000807B00FA07FA0CEA0E004AEA00006867DD
:1036F000D5F874A009FA01FC6FEA0C0CA0683044FC
:10370000C07B00FA01FB0AEA0C004BEA0000686784
:10371000D3F80CA0A068304490F810B02AF0400014
:1037200040EA8B10D860D2F80CA0A068304490F822
:1037300011B02AF0400040EA8B10D060D5F870A09C
:10374000A0683044007D00FA07F70AEA0E0E47EA47
:103750000E072F672F6FA0683044407D00FA01F1FB
:1037600007EA0C0C41EA0C012967D968A0683044CB
:10377000807D21F4807141EA0021D960D368A1687D
:103780000E44F17D23F4807343EA0123D36008F1F2
:1037900001085FFA88F8A37843453FF609AF009B1C
:1037A000C5F89C30019BC5F8A0302B6FE27823F45C
:1037B000E04343EA02332B672B6FA27B23F4806341
:1037C00043EA82232B672B6F627B23F4807343EAE7
:1037D00002232B676B6DE27B23F0807343EA026365
:1037E0006B6503B0BDE8F08F2DE9F041494B53F80C
:1037F0002040236823F0200323600B78BBB1002313
:10380000012603EB83054A6802EB4507E06D12F8D9
:10381000152006FA02F520EA0505F87900FA02F209
:103820002A43E2650133DBB20A789A42E9D8636D34
:103830000A7A23F0020343EA420363650B78002B04
:1038400051D000254FF0010805EB85035A00486868
:1038500010F813E004EBCE03D86820F0300040F0FD
:103860001000D860D8684E6816443679B60006F065
:103870000C0620F00C003043D860486810444088A3
:103880001861D8684E681644767920F0400040EA06
:103890008616DE60666F08FA0EF0C0434F6807EBCD
:1038A000020C9CF806C00CFA0EFC06404CEA060618
:1038B0006667D4F870C04E681644367A06FA0EFE73
:1038C0000CEA00004EEA00002067D8684E683244D7
:1038D000567A20F4807242EA0622DA600135EDB2AF
:1038E0000B78AB42B0D8236F4A7823F4E04343EA25
:1038F00002332367236F8A7A23F4806343EA8223A7
:103900002367236F4A7A23F4807343EA02232367F1
:10391000BDE8F08140170300034B53F820301868CE
:10392000C0F38020704700BF68170300034B53F8B3
:103930002020136823F48063136070476817030026
:1039400010B50446FFF7E8FF50B12046FFF7EEFF41
:10395000044B53F824301BB1002201212046984724
:1039600010BD00BF2804FF1F08B50020FFF7E8FFC7
:1039700008BD00BF08B50120FFF7E2FF08BD00BF8A
:10398000024B1868C0F30020704700BF0090014050
:10399000024A136843F4807313607047009001403B
:1039A00008B50020FFF7ECFF48B10020FFF7F0FF5B
:1039B000034B1B681BB1002201210248984708BD38
:1039C0003004FF1F0090014008B5FFF7E9FF08BD74
:1039D000074B1B56002B08DB590903F01F0301227C
:1039E00002FA03F3034A42F821300020704700BF77
:1039F0008817030000E100E02DE9F04383B005469D
:103A00000F4616464FF0000802A941F8048D4F4BAF
:103A100053F820404E4B33F8100002F04FFC4D4B52
:103A200043F825704C4B43F82560019B7362284690
:103A3000FEF798F806F1280941464846FDF79CFC38
:103A400000287FD1414606F12C00FDF795FC20B1FE
:103A50004846FDF79BFC012075E039682846FEF7D3
:103A600035F801212046FEF791F800212046FEF7A7
:103A700093F8E36823F00403E360636943F0010310
:103A80006361236943F002032361236913F0020F8A
:103A9000FBD0236943F001032361236913F0010F75
:103AA000FBD03B793BB1236E23F00F027B7C1343A9
:103AB0002366A02208E0BB7C012B14BF8022A02239
:103AC000FB7C0BB142F00802E36D23F0FF031343CC
:103AD000E3650223F376002333737373B373337494
:103AE000F37386F82030F3613A6842F210739A4219
:103AF0008CBF8022F822194B5A55FB7C23B101223E
:103B000017492046FEF784F8012216492046FEF7A1
:103B10007FF801224FF440312046FEF779F8012268
:103B200011492046FEF774F8012210492046FEF79D
:103B30006FF80F4A0F4B43F825202846FFF748FF40
:103B4000002000E0012003B0BDE8F08378170300F7
:103B5000701703003404FF1F4804FF1F4404FF1FB5
:103B60000200050006000500040003000600030033
:103B70007D3D02006000FF1F531EDBB2072B18D8EB
:103B80000F4B53F82030D87EC0B2012813D0987B59
:103B900010F0FF0F11D159600132D2B29A72002099
:103BA00018720722DA76987601229A735A7318747B
:103BB000704701207047012070470220704700BF06
:103BC0004804FF1F0A4B53F820300A4A52F82020BD
:103BD000002199760220D8769973D36D13F0010FE6
:103BE00003D0D36D23F00103D3650020704700BFDD
:103BF0004804FF1F7817030010B5044B53F820400A
:103C0000FFF7E0FF00202073607310BD4804FF1F22
:103C1000044B53F8203013B1D87EC0B27047002057
:103C2000704700BF4804FF1F30B400F03F04450850
:103C3000030985EAD0025A4082EA5012D2436B400F
:103C4000434083EA90039B0103F0400343EAC2131D
:103C50002343DBB2012903D198420CBF2346FF2343
:103C6000184630BC704700BF38B5184B53F82030A9
:103C70001B7913B33F2922D8154B53F82050EB7E04
:103C8000DBB2012B1DD0AB7B13F0FF0F1BD10B461A
:103C90000446297600211846FFF7C6FF68760323FD
:103CA000EB760020A8760123AB730A4B53F824204F
:103CB000D36D43F01003D36538BD012038BD01201A
:103CC00038BD012038BD022038BD00BF3404FF1FBD
:103CD0004804FF1F781703003C2A07D07D2A07D02D
:103CE000FE2A07D0BF2A07D093B206E0002304E0E3
:103CF000002302E0002300E0002399B110B4441E29
:103D0000013950FA81F014F8012F13449BB2FF2BB4
:103D100084BFFF3B9BB28442F5D1D843C0B25DF86B
:103D2000044B7047D843C0B2704700BF70B50E4611
:103D30001146114A52F82020147CFF2C11D0D5686E
:103D4000A5B19CB12A789A420DD02846013C55FA7B
:103D500084F503E010F8014F9C4206D0A842F9D147
:103D600004E0002302E0002300E000231A4630466E
:103D7000FFF7B2FF70BD00BF3404FF1F2DE9F04113
:103D80000646B34B53F82040B24B53F82050D5F8B9
:103D900020806F6A17F0100F10D0AF492846FDF74A
:103DA000A7FFE37EDBB2012B08D1A376636913B1D1
:103DB0002146304698473046FFF704FF18F0080FB9
:103DC00016D0A6492846FDF793FF0823A376E37E85
:103DD000DBB2092B03D0E37EDBB2072B04D163698E
:103DE00013B12146304698473046FFF7EBFE20E0FE
:103DF00018F0020F0CD04FF001112846FDF778FFA4
:103E00000D23A3766369A3B121463046984710E09D
:103E100017F0020F0DD092492846FDF769FF0523E0
:103E2000A376636913B12146304698473046FFF7C1
:103E3000C9FE17F0040F29D04FF002112846FDF7F4
:103E400057FF884B53F826703B7963B1E37EDBB2B2
:103E5000032B40F06F810123A3730523E3765523E1
:103E60002B60BDE8F0810123A3730323A37663696C
:103E700013B1214630469847FB7C1BB10623E376FD
:103E8000BDE8F0810423E376BDE8F08118F0010F6E
:103E900000F050812B68DDB2E37E043B052B00F27D
:103EA0004981DFE813F0060006000600970047018D
:103EB000F500E37EDBB2052B17D0062B2FD0042BA9
:103EC00040F03881552D04D1A3760623E376BDE872
:103ED000F0810523A376636913B1214630469847E4
:103EE0003046FFF76FFEBDE8F081552D08D106235F
:103EF000E376584B53F82630627E1A60BDE8F081B5
:103F00000523A3760023A3730223E3766369002BC2
:103F100000F01081214630469847BDE8F081514BB2
:103F200053F826301B794BB3637EAB4217D106237F
:103F3000A376237C13F0FF0F06D00723E37601233B
:103F4000A3736373BDE8F0810023A3736369002B3F
:103F500000F0F080214630469847BDE8F081072305
:103F6000A3760023A3730223E3766369002B00F09A
:103F7000E180214630469847BDE8F081012128467E
:103F8000FFF752FE20766576FF2817D00623A3762A
:103F9000237C13F0FF0F06D00723E3760123A373DE
:103FA0006373BDE8F0810023A3736369002B00F005
:103FB000C180214630469847BDE8F0810723A376AB
:103FC000636913B12146304698473046FFF7FAFD42
:103FD000BDE8F081A27AD2B2237A01339A4205D9A0
:103FE00063681D7063680133636000E0E572237AE3
:103FF0000133DBB22372A27AD2B2934240F09A80AC
:10400000A17A01396368591A6160A27A013A637E24
:10401000D2B23046FFF78AFEE37A83422AD10C23DC
:10402000A3760823E376636913B1214630469847A7
:10403000237C13F0FF0F17D10023A3736373E37E78
:10404000DBB2012B76D03046FFF7BCFDBDE8F08136
:104050004804FF1F7817030004000200030001005A
:10406000010002003404FF1F04F12C00FDF758F991
:10407000BDE8F0810A23A376636913B12146304677
:104080009847002363733046FFF79CFDBDE8F0813D
:10409000637A227A9B1ADBB2012B03D1E37AAB421B
:1040A00004D115E023681B78AB4211D00923A37615
:1040B000636913B1214630469847E37B13F0FF0F45
:1040C00038D1002323733046FFF77CFDBDE8F08133
:1040D00021684B1C23600132D2B22272637ADBB2B8
:1040E0009A420BD2637A9A1A012A134B53F826305C
:1040F0000CBFE27A4A781A60BDE8F0810B23A37600
:104100000A23E376636913B1214630469847E37B7F
:1041100013F0FF0F0AD100232373E37EDBB2012BE0
:1041200008D03046FFF74EFDBDE8F08104F12800CD
:10413000FDF7F6F8BDE8F08178170300F8B5531ED7
:10414000DBB2072B23D8154B53F82050EB7EDBB2A4
:10415000012B1ED0AB7B13F0FF0F1CD114460F4672
:1041600006466B7EFFF7E2FDE8722F60621CD2B25A
:104170006A72002028720923EB76A8760123AB73BC
:104180002B73074B53F826303A781A60F8BD01209C
:10419000F8BD0120F8BD0220F8BD00BF4804FF1F94
:1041A0007817030030B583B00E4B53F820400E4B08
:1041B000012119629A6942F002029A61DA690A439E
:1041C000DA612269207D6368019300230093074B25
:1041D00000F086FD054610B9207D00F041FE28461E
:1041E00003B030BD5804FF1F00E000402CE0004049
:1041F00030B583B00C4B53F820400C4AD36943F0E0
:104200000203D361E368207D2268019200210091BE
:10421000074A00F065FD054610B9207D00F020FE3C
:10422000284603B030BD00BF5804FF1F00E0004027
:104230002CE0004070B505460C461646036923F095
:10424000400303618B7E6BB9087E00F015FE236886
:1042500023B1EB6923F00203EB6103E0EB6923F088
:104260000103EB611EB12B6B43F002032B630023B0
:1042700063616360A360236123600123A37770BD42
:1042800038B50C46036923F0400303614B7D73B9D5
:104290000546087D00F0F0FD236823B1EB6923F0AB
:1042A0000203EB6103E0EB6923F00103EB61002300
:1042B000237623616360E3602360A36038BD00BFA1
:1042C00070B59C4B53F820409B4B1D6A9B6A13F0C2
:1042D000100F0CD0984B9B6A13F0200F07D0964A12
:1042E000936A23F0400343F01003936210E0924B73
:1042F0009B6A13F0400F0BD08F4B9B6A13F0200F7B
:1043000006D08D4A936A23F0100343F04003936272
:1043100015F0010F22D0A37ED3B9637E6BB9864B13
:10432000DB6913F0010F13D0834AD36923F0010333
:10433000D361207E00F0A0FD0AE0012B08D17E4869
:10434000C36923F00203C36100222146FFF772FF15
:104350004FF40073A3830122774B1A6215F0800F8C
:1043600000F0FF80A37E012B40F0E880A38B9BB27E
:10437000B3F5007F16D1704EE27F21463046FFF73D
:1043800059FF8023336294F828301BB104F12400D4
:10439000FCF7C6FFE36A002B00F0E380216B0520E9
:1043A0009847DEE0637E43BB6369002B00F0D98051
:1043B0006268C2B9604EE27F21463046FFF73AFF9D
:1043C0008023336294F828301BB104F12400FCF7F9
:1043D000A7FF0023A383E36A002B00F0C280216BB8
:1043E00005209847BDE01A78534BDA6263690133C0
:1043F00063616368013B6360B3E04F4B1B6913F07B
:10440000100F2FD02368C3B94B4EE27F21463046B0
:10441000FFF710FF8023336294F828301BB104F1BA
:104420002400FCF77DFF0023A383E36A002B00F048
:104430009880216B0520984793E03F4A136923F049
:10444000100313612368012B04D1136943F008039F
:10445000136104E0384A136923F008031361364BF3
:10446000DB6A7EE02368012B20D1334E336923F0D1
:10447000080333612169304600F09EF9A3680133D7
:10448000A360E27F21463046FFF7D4FE94F828303F
:104490001BB104F12400FCF743FF0023A383E36A6C
:1044A000002B5ED0216B052098475AE0023BA268A2
:1044B00093420ED9204B1A6922F008021A61226930
:1044C000DB6A1370236901332361A3680133A3609E
:1044D00047E093420ED1184B1A6942F008021A6164
:1044E0002269DB6A1370236901332361A3680133F6
:1044F000A36036E0104E336923F00803336121696D
:10450000304600F059F9A3680133A360E27F2146E9
:104510003046FFF78FFE94F828301BB104F12400D9
:10452000FCF7FEFE0023A383E36AD3B1216B0520D1
:10453000984716E05C04FF1F00E000401448802309
:104540000362E27F2146FFF775FE94F828301BB125
:1045500004F12400FCF7E4FEE36A13B1216B0520AB
:10456000984715F0100F11D01022094B1A6294F8D9
:1045700028301BB104F12400FCF7D2FE40F20323E3
:10458000A383E36A13B1216B0520984770BD00BF78
:1045900000E0004070B57C4B53F820407B4B1D6A17
:1045A0005E6A9B6A13F0100F1DD0784B9B6A13F064
:1045B000200F18D0754A936A23F0400343F010038C
:1045C000936294F82230002B3FD0637D002B3CD1C6
:1045D00001226E4B1A62636813B1FFF7E3FD34E00A
:1045E000FFF706FE31E0694B9B6A13F0400F2CD0B9
:1045F000664B9B6A13F0200F27D0644A936A23F01E
:10460000100343F040039362E38A9BB2022B04BF82
:104610000023E382637D2BB901225C4B1A62207D6B
:1046200000F02AFC94F8223053B921465748FFF78E
:1046300027FE94F820301BB104F11C00FCF770FE3B
:10464000636A13B1A16A04209847637D012B76D178
:1046500015F0400F25D04D4B1A6A4021196212F017
:10466000040F0AD023691A78484BDA6223690133B0
:1046700023616368013B63600CE023682BB1434A0C
:10468000136923F00803136104E0404A136943F0FF
:1046900008031361636A13B1A16A052098470223D6
:1046A000E38215F0800F63D015F0040F22D0636809
:1046B00043B98022354B1A62636A6BB1A16A01204B
:1046C000984709E023691A78304BDA62236901338D
:1046D00023616368013B63602C4B5B6A13F0040F3A
:1046E00046D040F20123E382284B04225A62FF2283
:1046F000DA623DE0254B5B6A13F0080F04D12368B2
:1047000013B1A26893420BD840F20223E3821F4BFD
:1047100008225A62DA6A1A6942F008021A6127E02E
:104720001A4B1A6922F008021A61E268DB6A1370F8
:10473000E3680133E360A3680133A36018E015F078
:10474000400F07D04022114B1A62636A13B1A16A6D
:104750000520984715F0010F04D00C4A936923F007
:104760000203936115F0800F02D08022074B1A627A
:1047700016F0020F07D00222044B5A62636A13B18B
:10478000A16A0020984770BD5804FF1F00E0004058
:1047900008B5084B1B6913F0200F04D1054B1B6AA9
:1047A00013F0100F02D0FFF78BFD08BDFFF7F2FEEC
:1047B00008BD00BF00E00040036943F0100303613F
:1047C000C36A0B7080230362704700BF08B50020E6
:1047D000FFF7DEFF08BD00BF50F82130012A08D0E6
:1047E00012B1022A0CD0704723F0030340F82130A5
:1047F000704723F0010343F0020340F82130704773
:1048000023F0020343F0010340F82130704700BF5A
:1048100008B500F053F808BD10B4446901238B407B
:1048200024EA03038A40134343615DF8044B704755
:1048300010B4046801238B4024EA03038A40134325
:1048400003605DF8044B704700687047006970476B
:1048500010B5094B53F82030D3F8A0104FF0FF32B9
:10486000C3F8A020054B53F830401CB103EBC00344
:104870005A68A04710BD00BF8C1703006004FF1FDB
:1048800008B50020FFF7E4FF08BD00BF08B5012010
:10489000FFF7DEFF08BD00BF08B50220FFF7D8FF15
:1048A00008BD00BF08B50320FFF7D2FF08BD00BF59
:1048B00008B50420FFF7CCFF08BD00BF50F8213039
:1048C00023F4E06343EA022240F82120704700BF4E
:1048D00038B5054631B1164AD2F80C3443F001031D
:1048E000C2F80C340122134B1A63114BD3F80C3469
:1048F00013F0010F0BD02623013BFDD10E4B1B689B
:104900000B4AD2F80C3423F00103C2F80C34094CE2
:1049100002E0AB6903B19847236813F4005FF8D055
:10492000044B1B6813F4FE5F14BF0120002038BD48
:104930000C0008E000200040080820000F4B1B6816
:1049400013F4804F13D010B40C4B0D4ADA600D4AAB
:10495000DA6065220A4C0B4803E0DC60D860013A5B
:1049600007D0196811F4804FF7D1002002E0002031
:10497000704703205DF8044B704700BF00200040E3
:104980004078AC0067452301024B034ADA60034AD2
:10499000DA60704700200040BF8753FF98BADCFE02
:1049A000164B1B6813F4804F04D0144B144ADA6082
:1049B000144ADA60114B1A6942F020021A61026847
:1049C0000A6042684A6082688A60C2680A61026955
:1049D0008A619B6CDBB203F00F02082A08D813F03F
:1049E000010F05D15203CA604FF480534B617047E9
:1049F0004FF40033CB6000234B6170470020004030
:104A00004078AC00674523012DE9F04105460C468E
:104A1000164683688B4203D8C2681344994206D372
:104A20002B689C421FD36A6813449C421ED2C6F373
:104A30000A03002B0CBF00200420124F4FF0010886
:104A40000EE03B6843F4FE533B60C7F81480BC6142
:104A500041462846FFF73CFFA6F5006604F50064D2
:104A60003EB9BDE8F0810120BDE8F0810120BDE83C
:104A7000F08120B93B6813F4005FE2D10220BDE869
:104A8000F08100BF0020004012F0070F57D12DE940
:104A9000F8430746154600687A6802448A4209D8F6
:104AA000B868814208D3FA680244914234BF0020BA
:104AB000012002E0002000E001201C46CE1ADFF8B1
:104AC00088804FF010092EE0D8F8003043F4FE53F0
:104AD000C8F80030C8F81490C8F8182014F8071C5B
:104AE00014F8062C130443EA012214F8083C13437B
:104AF00014F8052C43EA0263C8F81C3014F8031CB0
:104B000014F8022C130443EA012214F8043C134362
:104B100014F8012C43EA0263C8F82030012138461A
:104B2000FFF7D6FE083D32195DB150B9D8F8003014
:104B3000083413F4005FC7D10220BDE8F8830420D5
:104B40007047BDE8F88300BF0020004030B405681E
:104B500044682C448C4215D88468A1420CD3C068A8
:104B60000444A1420AD20DE011F8014F00F8014BB4
:104B70009842F9D100200BE0012009E0012007E074
:104B8000002005E0002BFBD0013910461344EBE771
:104B900030BC704708B5024B1B6803B1984708BD8D
:104BA0009404FF1F08B5074B1A68C2F30022064998
:104BB0000A701A6842F480721A60044B1B6803B1D1
:104BC000984708BD002000408C04FF1F8804FF1F89
:104BD00008B5074B1A68C2F3003206490A701A6812
:104BE00042F480521A60044B1B6803B1984708BD19
:104BF000002000408D04FF1F9004FF1F08B5FFF741
:104C0000C9FF08BD08B5FFF7CDFF08BD08B5FFF720
:104C1000DFFF08BD08B5054A136803F0F70313600A
:104C2000034B53F8203003B1984708BD00B400404F
:104C30009804FF1F08B50020FFF7ECFF08BD00BF78
:104C4000F8B5124B58699A6810409E69DA6832408C
:104C5000DE69196931400E4B1D682C1D1435012782
:104C600040EA020343EA010654F8040F50B1026817
:104C700042B1037A07FA03F3013B417A8B40334296
:104C800000D09047AC42EFD1F8BD00BF00A000407B
:104C90009C04FF1F38B5104B1B6853F820400F4B86
:104CA00053F82050284600F091F910F0FC0F0CD07A
:104CB00010F00C0F07D0AB6843F00203AB60AB6899
:104CC00023F00203AB600123237324B1636813B1A3
:104CD000217BA068984738BDA004FF1FA0170300E0
:104CE0002DE9F04305469DF81C70089C0E4641B91D
:104CF00003F1604101F58031B1F5803FC0F094804F
:104D00001BE0012908D102F1604101F58031B1F5C4
:104D1000803FC0F08C8010E002290ED102F160418A
:104D200001F58031B1F5803FC0F0848003F160412E
:104D300001F58031B1F5803F7FD34FF0010E0EFABF
:104D400007FE1FFA8EFCB4FBFCF00CFB1040003099
:104D500018BF0120002871D1394951F8251004EB02
:104D6000020904EB03088A61C1F81C900B62C1F8C8
:104D700030800A6922F00C0242EA87020A610B695C
:104D800023F0300343EA07130B61032E3AD8DFE820
:104D900006F002101E2E4B6B1B0C1B044B634B6B5F
:104DA0009BB243EA0E434B630B6923F080030B6114
:104DB00028E04B6B1B0C1B0443EA0C034B634B6B4F
:104DC0009BB24B630B6923F080030B611AE04B6BC2
:104DD0001B0C1B0443EA0C034B634B6B9BB243EA73
:104DE0000E434B630B6943F080030B610AE04B6B8E
:104DF0001B0C1B044B634B6B9BB24B630B6923F087
:104E000080030B614B69A4B21B0C1B041C434C6157
:104E10004B6843F001034B600A4B1B6853F8253085
:104E200000221A73BDE8F0830420BDE8F08304205B
:104E3000BDE8F0830420BDE8F0830420BDE8F083E2
:104E4000A0170300A004FF1F044B53F82020136990
:104E500023F0400343EA811111617047A01703005A
:104E6000044B53F82020536A43F00103536200209F
:104E7000704700BFA0170300044B53F82020536A6B
:104E800023F0010353620020704700BFA017030006
:104E9000074B53F82000836B23F07F031943816392
:104EA000836B23F0800343EAC212826300207047C1
:104EB000A0170300F8B506460D464C781E4B53F874
:104EC000247000F110010346002203F8012B8B42ED
:104ED000FBD12A7BA9782046FFF7DAFF024640BBC8
:104EE000164B1B6843F8246053F824100C7053F8D9
:104EF00024100873796841F004017960396921F060
:104F0000030029780143396169786E68A86853F80D
:104F100021506E6053F82130986063B2002B08DB9B
:104F20005B0904F01F04012101FA04F4044941F86B
:104F300023401046F8BD00BFA0170300A004FF1FC8
:104F400000E100E02DE9F0410D4616469846144B6D
:104F500018600121222001F087F80121222001F0B0
:104F6000C7F8A5B1AEB1B8F1000F14D0043D043EAE
:104F700000273C4656F8041F55F8040FFFF79AFF28
:104F8000002818BF07460134A045F3D104E00027EC
:104F900002E0002700E000273846BDE8F08100BFAE
:104FA000A004FF1F024B53F820309961DA6170476B
:104FB000A0170300044B53F82020536B1B0C1B0459
:104FC00019435163704700BFA01703000368DA4319
:104FD00002601846704700BF08B50020FFF75AFE70
:104FE00008BD00BF08B50120FFF754FE08BD00BF93
:104FF00008B50220FFF74EFE08BD00BF08B503202C
:10500000FFF748FE08BD00BF08B50420FFF742FEC9
:1050100008BD00BF08B50520FFF73CFE08BD00BF76
:1050200008B50620FFF736FE08BD00BF08B507200B
:10503000FFF730FE08BD00BF08B50820FFF72AFEC5
:1050400008BD00BF08B50920FFF724FE08BD00BF5A
:1050500008B50A20FFF71EFE08BD00BF08B50B20EB
:10506000FFF718FE08BD00BF08B50C20FFF712FEC1
:1050700008BD00BF08B50D20FFF70CFE08BD00BF3E
:1050800008B50E20FFF706FE08BD00BF08B50F20CB
:10509000FFF700FE08BD00BF38B5124B1B68D9688A
:1050A0001C69641A2409072C94BFA4B207242501A3
:1050B000EDB25B682A461944102000F023FB21461C
:1050C0000E2000F0E3FA074B1A685561117E537801
:1050D00043EA016392F8202043EA0243024A136044
:1050E00038BD00BFA404FF1F0010001438B51F4BCB
:1050F0001868C16803695B1A1B09072B94BF9CB22F
:10510000072490F82020A2B9062B94BF9CB2062455
:105110002401E4B21022C169104600F0F3FA134BE7
:105120001B685968DB6822461944202000F0EAFA1F
:1051300007E02401E4B2436822461944102000F03D
:10514000E1FA0A4D2B681969C1F30F110E2000F026
:105150009DFA2A685461117E537843EA016392F8FC
:10516000202043EA0243024A136038BDA404FF1F13
:105170000010001438B5124B1B681C69D968621AFC
:10518000702A9ABF1446E4B270245B682246194420
:10519000102000F0B7FA0A4D2968012224310C20B2
:1051A00000F0E4FA2A685461117E537843EA0163FF
:1051B00092F8202043EA0243024A136038BD00BF40
:1051C000A404FF1F0010001470B51F4B1B681A6960
:1051D000D968501A70289ABF0246D2B2702215467A
:1051E00002F10F045B681944102000F08BFA164E90
:1051F0003168012224310C2000F0B8FA3368998E0E
:10520000082000F043FA04F0F00310336F2B0DD8A0
:10521000336824F00F0010301022196B00F0F000FA
:1052200000F070FA3368012283F82C20064B1A68CC
:105230005561117E537843EA016392F8202043EAD6
:105240000243024A136070BDA404FF1F0010001443
:1052500010B5374B1C68042000F09EFA202834D08B
:105260000DD802281DD003D8F0B1012841D03EE06E
:10527000082824D0102825D0042838D11CE0802804
:1052800029D004D8212834D0402821D02FE0B0F5EF
:10529000007F26D0B0F5806F26D0B0F5807F26D174
:1052A0001CE040F2024325E0224B9B6C13F4403F8C
:1052B0000CBF012300231DE040F203431AE040F23B
:1052C000044317E040F2054314E040F2064311E0C6
:1052D00040F207430EE04FF481630BE040F20943D4
:1052E00008E040F20A4305E040F20C4302E00123EB
:1052F00000E0002363830E4B1B685A8B12B100221F
:105300001A7010BD9868D9681A7D0144102000F009
:105310007FFA074B1B68197DDA680A44DA6019695D
:105320008A4202D300221A7010BDFFF7B5FE10BDED
:10533000A404FF1F0020004010B5384B1C68042057
:1053400000F02AFA202834D00DD802281DD003D826
:10535000F0B1012841D03EE0082824D0102825D003
:10536000042838D11CE0802829D004D8212834D042
:10537000402821D02FE0B0F5007F26D0B0F5806F17
:1053800026D0B0F5807F26D11CE040F2024325E014
:10539000234B9B6C13F4403F0CBF012300231DE003
:1053A00040F203431AE040F2044317E040F20543A1
:1053B00014E040F2064311E040F207430EE04FF4E0
:1053C00081630BE040F2094308E040F20A4305E044
:1053D00040F20C4302E0012300E0002363830F4B03
:1053E0001B685A8B12B100221A7010BD93F820204E
:1053F00012B9012283F82020197DDA680A44DA60A4
:1054000019698A4207D300221A7010229968202055
:1054100000F0FEF910BDFFF7ADFE10BDA404FF1FA4
:105420000020004010B53A4B1C68042000F0B4F98D
:10543000202834D00DD802281DD003D8F0B101287F
:1054400041D03EE0082824D0102825D0042838D1A7
:105450001CE0802829D004D8212834D0402821D02D
:105460002FE0B0F5007F26D0B0F5806F26D0B0F5E4
:10547000807F26D11CE040F2024325E0254B9B6C47
:1054800013F4403F0CBF012300231DE040F203430F
:105490001AE040F2044317E040F2054314E040F202
:1054A000064311E040F207430EE04FF481630BE046
:1054B00040F2094308E040F20A4305E040F20C43A1
:1054C00002E0012300E000236383114B1B685A8B29
:1054D00012B100221A7010BD93F8202012B90122D7
:1054E00083F820201A7DD9680A44DA6093F82C20CA
:1054F00082F001021A7042B99C6A142000F04CF943
:10550000B0FA80F04009207010BDFFF75DFE10BDBD
:10551000A404FF1F0020004010B53F4B1C6804206E
:1055200000F03AF9202834D00DD802281DD003D835
:10553000F0B1012841D03EE0082824D0102825D021
:10554000042838D11CE0802829D004D8212834D060
:10555000402821D02FE0B0F5007F26D0B0F5806F35
:1055600026D0B0F5807F26D11CE040F2024325E032
:105570002A4B9B6C13F4403F0CBF012300231DE01A
:1055800040F203431AE040F2044317E040F20543BF
:1055900014E040F2064311E040F207430EE04FF4FE
:1055A00081630BE040F2094308E040F20A4305E062
:1055B00040F20C4302E0012300E000236383164B1A
:1055C0001B685A8B12B100221A7010BD93F820206C
:1055D00062B99868D9681A7D0144202000F018F952
:1055E0000D4B1B68012283F8202006E09868D968DB
:1055F0001A7D0144102000F00BF9074B1B68197D40
:10560000DA680A44DA6019698A4202D300221A7001
:1056100010BDFFF76BFD10BDA404FF1F002000406C
:1056200008B5184B99689A6842F480729A6011F430
:10563000807F25D0144B1B681A780AB35B78013B36
:10564000052B0FD8DFE803F003060306090CFFF76C
:10565000FFFD07E0FFF760FF04E0FFF76DFE01E0EC
:10566000FFF7E0FE084B1B681A784AB905490A693A
:1056700022F008020A619A6B12B1D96B58789047F0
:1056800008BD00BF00200040A404FF1F00F0FC0381
:1056900003F1A05303F580531A6810F0020F03D0F2
:1056A000120C12040A4302E092B242EA01421A606A
:1056B000704700BF00F00303032B1FD8DFE803F09F
:1056C0001A120A0200F0FC0000F1A05000F5805010
:1056D000C170704700F0FC0000F1A05000F5805050
:1056E0008170704700F0FC0000F1A05000F5805080
:1056F000417070478008024B03F82010704700BFCC
:1057000000100014F8B506460D461746032A1DD9A9
:105710001046032300221446DFF84CE031198910AB
:1057200015F803C0AB5C43EA0C632A4492F802C04C
:1057300043EA0C43527843EA02234EF82130043402
:10574000E4B22246E31C8342E8D300E00024A742EF
:1057500008D93019295DC0B2FFF7ACFF0134E4B2BB
:10576000A742F6D8F8BD00BF0010001482B170B493
:1057700080080439551EEDB201350023054EC218CC
:1057800051F8044F46F822400133AB42F7D170BCC8
:10579000704700BF0010001410F0020F4FEA900095
:1057A000034B53F8200014BF000C80B2704700BFB9
:1057B0000010001400F00303032B24D8DFE803F0EB
:1057C000020B141D00F0FC0000F1A05000F5805009
:1057D000C078C0B2704700F0FC0000F1A05000F5A6
:1057E00080508078C0B2704700F0FC0000F1A050FB
:1057F00000F580504078C0B270478008034B13F822
:105800002000C0B270470020704700BF0010001495
:10581000F8B506460D461746032A18D996460321C1
:1058200000221446DFF840C033199B105CF8233087
:10583000180E6854A918180C8870180A4870AB54D0
:105840000434E4B22246E11C7145EDD300E00024AB
:10585000A74208D93019C0B2FFF7ACFF2855013470
:10586000E4B2A742F6D8F8BD00100014044B5B6800
:1058700013F0806F1ABF034B18680020704700BFF9
:10588000008000407C00FF1F044B5B68C3F3006393
:10589000002B034808BF0020704700BF0080004075
:1058A00000127A00044B5B68C3F34063002B03488B
:1058B00008BF0020704700BF00800040006CDC0281
:1058C00008B5144B5B6813F4000F20D04FF08043F1
:1058D0001B6813F4801F02D1FFF7D6FF01E0FFF72A
:1058E000C5FFA8B10C4BD3F8C020D3F8C010D3F833
:1058F000C0309B0F0133B0FBF3F0C1F3C73300FBA3
:1059000003F3C2F344604000B3FBF0F008BD002095
:1059100008BD00BF008000400088004070B505460B
:105920000C468B78032B0FD8DFE803F00802050B39
:10593000FFF79CFF09E0FFF7A7FF06E0FFF7B2FFC4
:1059400003E0FFF7BDFF00E0002063780133B0FB08
:10595000F3F023780133B0FBF3F3012D02D0022DD5
:105960005FD085E0A278484951F83210884200F2B1
:105970008180454901EBC202526893427CD84FF0C6
:105980008042136823F000431360404B404ADA60C2
:10599000404ADA6002F18442A2F5EC22A2F2E4620B
:1059A000A2FB0020800C1B69C3F30723984206D991
:1059B000364A136923F47F4343EA00231361627874
:1059C00026784FF080431D68A17825F0707444EA72
:1059D00081541C60196821F4702141EA0241196068
:1059E0001A6822F0F00242EA06121A6003F5005328
:1059F0001B69C3F30723984206D2244A136923F490
:105A00007F4343EA002010614FF08042136843F067
:105A1000004313601D4B204ADA60204ADA60002000
:105A200070BD1F4A904229D8934229D8A378022BEF
:105A300028D14FF080431A6822F000421A6065783E
:105A40002078196821F0705141F0006119601A68DE
:105A500022F4704242EA05321A601A6822F00F02FC
:105A600002431A601A6842F000421A60002070BDBA
:105A7000002070BD012070BD012070BD012070BDEF
:105A8000012070BD012070BDE01703000020004020
:105A90004078AC0067452301BF8753FF98BADCFE0E
:105AA00000127A0030B583B005460C4629B90023B0
:105AB0008DF804308DF8053001AC4FF0804001F0D6
:105AC00057F858B31DB360784FF08041CA6A237805
:105AD00022F47C6242EA8312CA620B6B23F47C6379
