:020000040800F2
:20900000E03C002029D90008353D010895D900080000000000000000000000000000000019
:2090200000000000000000000000000095D90008000000000000000061CC0008A5CC00080C
:20904000613101087131010895380108A5380108291C0108554101086541010875410108B3
:2090600085410108913B0108B93B0108AD300108D9300108A5270108C9270108ED2701086C
:2090800011280108A53E0108B53E0108C53E0108D53E0108B5380108093D0108DD3C010817
:2090A000B11E0108451E010835280108952B0108BD2B0108E52B01080D2C0108612C01085B
:2090C000002243088B4274D303098B425FD3030A8B4244D3030B8B4228D3030C8B420DD381
:2090E000FF22090212BA030C8B4202D31212090265D0030B8B4219D300E0090AC30B8B420E
:2091000001D3CB03C01A5241830B8B4201D38B03C01A5241430B8B4201D34B03C01A52416C
:20912000030B8B4201D30B03C01A5241C30A8B4201D3CB02C01A5241830A8B4201D38B02A2
:20914000C01A5241430A8B4201D34B02C01A5241030A8B4201D30B02C01A5241CDD2C30967
:209160008B4201D3CB01C01A524183098B4201D38B01C01A524143098B4201D34B01C01ADC
:20918000524103098B4201D30B01C01A5241C3088B4201D3CB00C01A524183088B4201D346
:2091A0008B00C01A524143088B4201D34B00C01A5241411A00D20146524110467047FFE719
:2091C00001B5002000F0F0F802BDC0460029F7D076E7704703460B437FD4002243088B42F4
:2091E00074D303098B425FD3030A8B4244D3030B8B4228D3030C8B420DD3FF22090212BAA2
:20920000030C8B4202D31212090265D0030B8B4219D300E0090AC30B8B4201D3CB03C01A68
:209220005241830B8B4201D38B03C01A5241430B8B4201D34B03C01A5241030B8B4201D318
:209240000B03C01A5241C30A8B4201D3CB02C01A5241830A8B4201D38B02C01A5241430A76
:209260008B4201D34B02C01A5241030A8B4201D30B02C01A5241CDD2C3098B4201D3CB0193
:20928000C01A524183098B4201D38B01C01A524143098B4201D34B01C01A524103098B42BC
:2092A00001D30B01C01A5241C3088B4201D3CB00C01A524183088B4201D38B00C01A524199
:2092C00043088B4201D34B00C01A5241411A00D201465241104670475DE0CA0F00D0494265
:2092E000031000D34042534000229C4603098B422DD3030A8B4212D3FC22890112BA030A56
:209300008B420CD3890192118B4208D3890192118B4204D389013AD0921100E08909C30986
:209320008B4201D3CB01C01A524183098B4201D38B01C01A524143098B4201D34B01C01A1A
:20934000524103098B4201D30B01C01A5241C3088B4201D3CB00C01A524183088B4201D384
:209360008B00C01A5241D9D243088B4201D34B00C01A5241411A00D20146634652415B108B
:20938000104601D34042002B00D54942704763465B1000D3404201B5002000F005F802BDF4
:2093A0000029F8D016E770477047C0468446101C62468C46191C634600E0C0461FB501F052
:2093C00097F8002801D40021C8421FBD10B500F0EBFF4042013010BD10B501F089F800287C
:2093E00001DB002010BD012010BDC04610B501F07FF8002801DD002010BD012010BDC0469C
:2094000010B501F011F8002801DC002010BD012010BDC04610B501F007F8002801DA0020CF
:2094200010BD012010BDC0469E2110B5C905041C01F094FF002803D1201C00F0E1FB10BDA4
:209440009E21201CC90500F055FA00F0D9FB80231B069C466044F2E770B501F0FBFE0022EC
:209460000B4B0D00040001F0ADF801F09FFF060001F0B8FE0022074B01F0A4F802000B00A5
:209480002000290001F018FB01F090FF310070BD0000F03D0000F041F0B5564644465F46D3
:2094A0004D46F0B444024600C70F83B08846650A360EBA463DD0FF2E22D00023EC0080257F
:2094C00099469B46ED0425437F3E43465C025800DB0F640A000E984636D0FF2830D0802363
:2094E0000021E400DB041C437F38301A0190484642460843724E800030587A4013008746D4
:20950000002D44D108239946063B9B46DDE70122FF2000241A406402C305640AD2071C4385
:209520001443200003B03CBC90469946A246AB46F0BD002D20D104239946033B9B46C4E7E0
:20954000002C17D1022102E0002C0AD10121321A01924A4643460A435A48920082587B40BB
:209560009746200001F004FF431F76309C4040420021BAE70321B8E7280001F0F9FE431F9D
:209580009D4000237630464299469B469DE70C239946093B9B4698E780240022E403FF20DB
:2095A000B9E70024C2468B465A465346022AAED0032A7DD0012A31D1012200201A400024C3
:2095C000A9E70122101A1B2856DD1A4000200024A1E78023DB031D424BD18023DB032B4327
:2095E0005C02640A3A00FF2095E76D016001854230D2019A0024013A01921B220127290017
:2096000064006D00002901DBA84201D82D1A3C43013A002AF3D16A1E95412C4301987F30AD
:209620000028CEDD620704D00F222240042A00D00434220103D5244A019814408030FE2825
:2096400000DD64E70122A401640AC0B21A4062E72C00A9E72D1A1A220124CFE76B02BCD57F
:2096600000248023DB031C436402640A4246FF2051E71C42B3D1F4E721002022C140101AE8
:209680008440621E94410C43620704D00F222240042A00D00434620104D5012201201A4082
:2096A000002438E70122A401640A1A40002032E78023DB031C436402640A5246FF202AE722
:2096C000387E0108787E0108FFFFFFF7F0B557464E4645464300E0B446028846760A1F0EDD
:2096E000C40F002F47D0FF2F25D0002380259A469946F600ED042E437F3F434642465D0221
:20970000D20F5B006D0A1B0E904640D0FF2B39D080220020ED00D20415437F3BFB18424622
:209720005746591C62408C4607430F2F5CD86F49BF00C9598F46002E45D108239A46063BE9
:209740009946DAE7424602282DD0032800D1C3E0012800D0A2E0002500260240D4B2760215
:20976000ED05760A2E43E407264330001CBC90469946A246F0BD002E1AD104239A46033B02
:209780009946BAE72A00511E8A41901CC6E70120002DC3D0280001F0EBFD431F76309D40C5
:2097A00043420020BAE70124FF2514400026D6E7300001F0DDFD431F9E4000237630474256
:2097C0009A46994699E70C239A46093B994694E780260024F603FF25C1E735004846B2E7B2
:2097E000350022004846AEE72904090C0800370C3604360C2C0C7943704367437443060CCC
:2098000064183619B14203D980214902884647440004000C310409188D01681E8541890E92
:209820002943350CED19AD010D43290104D5012369081D4063460D4319007F31002925DD95
:20984000680704D00F202840042800D00435280103D5274980330D401900FE29A3DC0124A4
:20986000AD016E0A1440CDB279E78020C003064207D0054205D128434602760A4446FF250F
:209880006DE706437602760AFF2568E70124611A1B2905DD14400025002660E76346CBE7B9
:2098A0002E002023CE40591A8D406B1E9D412E43730704D00F233340042B00D00436730171
:2098C00004D5012401251440002648E70124B601760A1440002542E780260124F6032E4388
:2098E0007602760A1440FF2539E7C046B87E0108FFFFFFF7F8B54A024E0043024400240E9D
:20990000C50F9B09360EC90F9209FF2E00D183E001204140A01BA9425CD0002800DC95E0CA
:20992000002E1CD1002A00D081E05A0704D00F221A40042A00D004335A013BD50134FF2CF1
:2099400000D191E001209B015B0AE4B205405B02E4055B0AED0723432B431800F8BDFF2C5D
:20996000E3D08021C9040A431B2800DD90E016002021C640081A8240511E8A4132439B1A44
:209980005A0115D59B019E09300001F0F1FC0538864084426CDC041B330020200134E34036
:2099A000041BA640721E964100243343BDE70D005A07BCD1DF0801231D40FF2C33D1002F3C
:2099C00000D190E08022D20313003B435B025B0AFF24BCE700284FDD002E2ED0FF2CA4D097
:2099E0008025ED042A431B2800DD97E016002025C640281A8240501E824132439B185A01B4
:209A0000D5D50134FF2C6DD001227B481A405B08034013430D0088E7002A00D07AE777E78E
:209A2000031EC5D100257B025B0AE4B28FE701380028A4D0FF2C97D177E7002A00D174E740
:209A400001380028DAD0FF2CCDD16EE7002821D1601CC0B2012858DD80279E1AFF0437409E
:209A60002FD0D61A0D008FE701231D4000236EE7624B241A334058E7002851D1601CC6B2A0
:209A8000012E33DDFF282DD09B185B0804004CE7012274E7002C1AD0FF2E1FD08024E404DA
:209AA000404223431B2800DD96E01D002024C540201A8340581E83412B43D31A34000D00EF
:209AC0005EE7002E00D05FE700250024ABE7002B44D0C0430028F0D0FF2EE3D11300FF24E1
:209AE0000D0022E70D00FF24002330E7002C5DD1002B7DD0002A00D117E79B185A0100D439
:209B000056E73E4A040013400FE7002C1ED1002B2FD1002A65D013000D0006E701226DE70A
:209B2000002C1FD1002B59D0C04300280BD0FF2E4FD01B285EDC1D002024C540201A834083
:209B4000581E83412B439B18340058E7002B1CD1002A49D013000D00FF24E6E61300340086
:209B60000D00E2E6FF2E34D08024E40440422343DFE7002A00D1D8E68027981AFF04074049
:209B800000D14DE7D31A0D00CFE6FF24002A00D1CBE68020DB08C003034204D0D2080242C5
:209BA00001D113000D00DB00FF24BEE6002B10D0FF24002A00D1B8E68020DB08C0030342BF
:209BC00003D0D208024200D11300DB000D00FF24ABE61300FF24A8E601236EE71300340090
:209BE000A3E6002700251EE780270025FF03E9E613009AE60123A6E7FFFFFF7DFFFFFFFB38
:209C00004302590A4300C20F1B0E00207E2B0EDD9D2B0DDC802000040143952B0BDC9620B5
:209C2000C31AD9400B005842002A00D118007047034BD018FBE7963B99400B00F3E7C04612
:209C4000FFFFFF7F70B5002830D0C317C5185D40C40F280001F08CFB9E231B1A962B0DDCD4
:209C60009622D21A95406A02520AD8B25202C005520AE40702432243100070BD992B19DC19
:209C80009922D21A9540124A2A40690704D00F210D40042D00D00432510103D50C4B1A40AF
:209CA0009F231B1A9201520AD8B2DFE7002400200022DBE705222E00121AB921D6402A00AB
:209CC000C91A8A40551EAA4135001543DBE7C046FFFFFFFB70B5041E28D001F049FB9E23F7
:209CE0001B1A962B0ADC9622D21A94406202520AD8B25202520AC005104370BD992B18DC19
:209D00009922D21A9440114A2240610704D00F210C40042C00D00432510103D50B4B1A4043
:209D20009F231B1A9201520AD8B2E2E700200022DFE705222500121AB921D5402200C91A76
:209D40008A40541EA2412C001443DCE7FFFFFFFBF8B556465F464D464446F0B40F00FD0FDC
:209D6000AA4609037C002E005F00450F490A7F0D2943C5001803BC46400A570F640DDB0F52
:209D80003843D2009A4500D1AAE06646A61B002E00DCFFE06346002B39D10300134300D0DF
:209DA000D9E06B0709D00F232B40042B05D02B1DAB42AD416D4249191D000B0200D482E06A
:209DC000CA4B01349C4200D1FEE00A005646C84BED081A405007640552020543120B640DBA
:209DE000002112030B0D1B056405120B1A436308C04CF60714401C4364006408344328007C
:209E000021003CBC90469946A246AB46F8BDB74B9C42C6D080231B041843382E00DDEBE045
:209E20001F2E00DD1EE120239B1B9C4603006746BB40984613004746F3403B436746BA409D
:209E4000571EBA4113430200F240EB1A9D42B6411D008A1A7642911B0B0231D54A02560A49
:209E6000002E00D1B4E0300001F082FA0300083B1F2B00DDB5E020222900D21AD1409E406A
:209E80000A009D4032439C4200DDB1E01C1B631C1F2B00DDD5E0202114002800C91A8C405C
:209EA000D8408D400443DA40681E854111002543002476E74146314300D134E23100454678
:209EC0006B0700D06FE756464807ED08C9080543864B9C4235D00A036405120B640D7FE7D3
:209EE0006346E31A9B46002B00DC8BE06746002F3CD07E4FBC4200D153E780273F04384346
:209F00005B46382B00DCF7E00243501E82410020D2B253194218AB4289411D0049428918AA
:209F20000B02CDD5714B01349C4200D13DE101206F4A6B080A4028401843D50705435108DD
:209F40002FE72B000B4300D1CBE180231B030B431A03120B44E7013E002E6DD1AE1AB54217
:209F60009B41091A5B42C91A350075E70700174300D116E701235B429C46E3445B46002B0C
:209F800000D0E0E0AA18AA429B4109185B4259181500C5E7002E75D1661C7605760D012E94
:209FA00000DCF3E0AE1AB0464545BF410E1A7F42F61B370200D48FE0551BAA42B641411A86
:209FC00076428E1B9A464BE756460022002507E7280001F0CDF920300300083B1F2B00DCA2
:209FE00049E72A002838824000259C4200DC4DE73F49E41A1140D4E60243501E8241D3B246
:20A00000002222E7002B00D0F3E0631C9C465B055B0D012B00DC9FE0344B9C4500D1C3E0C3
:20A02000AA180918AA42804140424118CD075208154349086446B4E62C4B9C4200D0ECE6A3
:20A04000AFE611001F3CE1400C00202B00D17FE04021CB1A9A4015436A1E954100212543F8
:20A0600000242DE733000700203BDF403B00202E70D04027BE1BB0400243501E824113432F
:20A080000022E2E6002C4FD0184CA44500D1ABE08024240476422143382E00DDDFE01F2EAB
:20A0A00000DD43E12027BC1BA1460C004F46BC40A0462C004746F4403C434F46BD406F1E8C
:20A0C000BD41F1402C43151BAA429241411A5242891A64469A46BFE641464546314300D0DC
:20A0E000BEE6002600240025F2E6C046FF070000FFFF7FFFFFFF0F801F2B59DC2027FF1A81
:20A10000BC46070063469F405B46B9461700DF40B8464F4643461F4363469A40531E9A418B
:20A120005B463A43D840F4E60C002C435CD0F643002E55D1551BAA42A441411A6442091B75
:20A140009A46644688E6964FBC4200D0D8E628E6002280E700208FE70B002B43002C00D0F4
:20A16000C2E0002B00D101E10300134300D118E6AB18AB42B6410918764271180A0200D44E
:20A1800009E1884A1D00114064460AE6002C5BD10E002E4300D08AE00100114300D1C2E022
:20A1A000010015009A46FCE56446002100258FE620235B429C46DC4463460700DF405B4611
:20A1C000BC46202B00D1ACE040235F46DB1B98400243501E8241634613431A00002098E6D2
:20A1E0006F4CA44500D057E70100150064469A46D7E5002C39D10C002C436ED0DB43002B19
:20A200001AD0674CA44568D0382B00DDA4E01F2B00DDAEE020240F00E41AA740B9462F00A1
:20A22000DF40B846A3464F46444627435C46A5406C1EA541D9403D43AD1895429B41091866
:20A240005B42591864466BE60C002C4315D1010011437BD0010015009A46514CA1E50D438B
:20A26000691E8D410021ECB22DE74D4CA44534D0802424045B422143C6E7040014434ED03D
:20A28000ED084C072C438025C9082D03294208D0C6082E4205D1D208410711430C009A46A8
:20A2A0003100620FC900E50011433D4C79E50600164300D175E5AE1AB0464545BF410E1A19
:20A2C0007F42F61B370200D4F4E5551BAA42B641411A7642891B9A4663E5010015006446D4
:20A2E0005FE5002200257BE5002B3BD00300134315D0ED084B072B438025C9082D03294239
:20A3000007D0C4082C4204D141070B002100D2081343C9005A0F1143DD00214C41E5204C51
:20A320003FE5002054E700260025D1E534000F00203CE7403C00202E2BD04027BE1BB14021
:20A340000D43691E8D4100212C43BCE6802100260903134C0025BBE50D43691E8D41002169
:20A36000EDB269E7010015000D4C1AE50100150017E51C000F00203CE7403C00202B0CD05D
:20A380004027FB1A99400D43691E8D410021254352E70021D4E71D0092E50021F3E7C04690
:20A3A000FF070000FFFF7FFFF0B55F4656464D464446F0B41F035C00DB0F9A46194B0E03B7
:20A3C0004D00C90F8046360B6D0D8B4691463F0B640D9D4219D0134B9C421BD00123A5427A
:20A3E00006D018003CBC90469946A246AB46F0BDBE42F6D1C845F4D1D34510D0002DF0D1BD
:20A40000304303005A1E9341EBE7310001230143E7D1E0E73A430123002AE2D1DEE700232A
:20A42000DFE7C046FF070000F0B55F46444656464D46F0B41F033C0B2C4F0E034D00A34678
:20A440005C008446360B6D0DC90F9046640DDB0FBD422BD0254FBC422ED0002D0ED1304329
:20A460000700814678427841002C17D15F463A4314D14B460020002B0AD006E0002C02D1E5
:20A480005846024301D099421AD00123484218433CBC90469946A246AB46F0BD0028F2D01D
:20A4A00058425841012240421043F1E737000743D0D002204042EBE75F461743CDD0F8E787
:20A4C000A542E2DC05DB5E45DFD808D000205E45DED248424841012340421843D8E7C44576
:20A4E000D3D80020C445F4D3D2E7C046FF070000F0B55F464D4644465646F0B41C03240B07
:20A50000A4462F4C0F034D005E00C90F80463F0B6D0D8B469146760DDB0FA54220D0284C57
:20A52000A64222D0002D12D1384344424441002E20D0002C0DD05C42634101245B421C4321
:20A5400020003CBC90469946A246AB46F0BD002E17D05B4519D05B465C4201231C43EFE772
:20A56000390002240143EBD1D9E7614602241143E6D1D7E761460A43DBD100240028DFD08B
:20A58000E9E761460A43E4D1E5E7B54203DD01225C421443D4E7B542CDDB6745DBD809D0F5
:20A5A00000246745CCD259464C426141012449420C43C5E7C845CED80024C845F3D3BFE763
:20A5C000FF070000F0B55F4656464D464446F0B40D0399464E002B0B87B00700924680467F
:20A5E0009B46760DCC0F002E69D06D4B9E4235D05B468022DD001204430F13432B439B46EB
:20A60000C3009846674B00279C460023664401934A4615035000D20F53462D0B400D9146AF
:20A6200000D176E05E4A90426CD080225B0F120413435C4AED0094461D4353460022DB0062
:20A64000604449463618701C6140029017430F2F00D9AFE05448BF00C759BF465B461F4337
:20A6600000D088E000239B469846023308270193CEE74946022A6AD0032A00D109E2012A0A
:20A6800000D0BBE111400022002300259046CCB200212D030A0D12052D0B1543434A1B0583
:20A6A00015401D436D00E4076D0825434046290007B03CBC90469946A246AB46F0BD0343D1
:20A6C00052D05B46002B00D18AE1584600F050FE03000B3B1C2B00DD7BE11D22D31A3A0045
:20A6E00001005D46DA4008398D4013008F402B439B46B8462E4B00279C460023604446428E
:20A70000019385E752462A432CD100250023022297E752462A4321D0002D00D154E12800FC
:20A7200000F026FE03000B3B1C2B00DD46E11D21CB1A51460200D9405346083A9540934019
:20A740000D431B4A944660444042002279E7012400220C40124B0025904699E7002500230F
:20A7600001226EE703226CE700239B4698460133042701934CE703230C27019348E70023A2
:20A780008025984600242D03054B81E75D464346019A6FE75D4643462100019A6AE7C046CE
:20A7A000FF07000001FCFFFFF87E0108FFFF0F80F30300004246120C91461A0C9446424691
:20A7C00017044A461B041B0C5A43604690464A4642431000039262461C003F0C7A437C432A
:20A7E00042440192220C9246019A5244904506D98246802040028046C24450460390100C9A
:20A80000049048462404240C1204121905922A0C2D042D0C68432C00824648467C435043C7
:20A820008146200C8046574357444744BA4503D9802040028046C144380C3F04B846484406
:20A840002404240C01900498A044404404905846000C814658460404200C824607004846D7
:20A860005F434C464343604660436446834650464443380C8446E4186444A34203D980232F
:20A880005B029C46E34448463F04230C3F0C2404E419574668436F4384464D46504655435D
:20A8A0004243380C814662444A445B44944503D9802040028446654403983F0483460498E8
:20A8C0003F0C8446E344C345804140428246100484460198674484466744A344BC46A345C1
:20A8E000A4419946D44464428742BF41D4458041E144A04699459B417F424042C8440743D5
:20A90000120CBA18A045A4415F423B0064422343D71843467D19DB0D6D021D435B465A02D3
:20A92000059B1A43531E9A415B46DB0D1A4343465B021343EA0107D501225C0813402343A5
:20A94000EA07029E13436D08574AB218002A4BDD580709D00F201840042805D0181D98420F
:20A960009B415B42ED180300E80104D54F4A15408022D200B2184E48824200DDE7E601243F
:20A98000DB08680718436D02530580462D0B5B0D0C407DE6802259461203114208D0154256
:20A9A00006D115432D0398462D0B4C46414B6FE65D4615432D032D0B3E4B69E603005546D6
:20A9C000283B9D400023BCE6504600F0D1FC2030A8E60300283B9F400023BB46984689E68B
:20A9E00000F0C6FC203073E60124A61A382E07DD00220C4000230025904649E6029EA3E7E8
:20AA00001F2E20DC20222C001800921BF040944093400443581E83411C43F540630709D08B
:20AA20000F232340042B05D023001C1D9C4292415242AD182B021FD5012400220C4001233F
:20AA40000025904624E61F202C004042821AD440202E1CD04022961BB5402B43581E83416A
:20AA60000720234318400025002809D00F2200251A401C00042AD8D1230068076D022D0BEF
:20AA80000124DB08034398460C40002300E60025E3E780220124120315432D0398462D0BCC
:20AAA0000C40044BF4E5C046FF030000FFFFFFFEFE070000FF070000F0B557464E464546B3
:20AAC000E0B40E001100F20F9246C500420F180337037400400A4E0F7F0A3043CF4E1743F1
:20AAE0005A00640D520DDB0FC900B24200D1E5E001267340A61AB446534500D1AFE0002E35
:20AB000000DC0DE1002A3AD103000B4300D0E4E06B0709D00F232B40042B05D02B1DAB4230
:20AB2000AD416D427F191D003B0200D488E0BB4B01349C4200D110E13A00B94B51461A4040
:20AB400001235007ED08520264050543120B640D0B400021280012030D0D120B64052D0577
:20AB600015436208AF4CDB072C401443640064081C4321001CBC90469946A246F0BDA74B0F
:20AB80009C42C5D080231B0418436346382B00DDFDE01F2B00DD30E1624620239B1A020085
:20ABA0009A40664690460A009940F24046464B1E99413243114363460200DA40691A8D4275
:20ABC0009B410D00BA1A5B42D71A3B0235D57A02530A98464346002B00D1C4E0404600F08D
:20ABE000C7FB0300083B1F2B00DDC5E020222900D21A4746D1409F400A009D403A439C426B
:20AC000000DDC0E01C1B631C1F2B00DDE4E0202114002800C91AD8408C408D400443DA40A4
:20AC2000681E854117002543002471E7424663461A4300D14CE2674645466B0700D069E776
:20AC4000012351467807ED08FA080B40054373498C4238D012036405120B640D79E7002E04
:20AC600000DC9AE0002A47D06C4A944200D14FE78022120410436246382A00DC08E101438C
:20AC8000481E81410022C9B24919D219A942BF410D007F42BF183A0200D442E15F4A013401
:20ACA000944200D14EE101205D4A69083A4028400843D507054357089A4629E706000E438E
:20ACC00000D017E714E72900114300D1F9E1802109030A431203120B3BE701235B42984696
:20ACE000C4446346002B72D1691A8D429B413F1A5B42FF1A0D0068E702000A4300D107E78E
:20AD0000012252429046C4446246002A00D0E6E06918A942B6413F187642F7190D00BAE706
:20AD2000002E00D080E0621C5205520D012A00DCF9E06A1A91464D45B6413A1A7642921B04
:20AD40009046120200D499E04D1BA9428941C71B49427A1A90469A463CE7524601230025E4
:20AD600013400022F5E6280000F002FB20300300083B1F2B00DC39E72A0028388240002521
:20AD80009C4200DC3EE7264FE41A1740C0E60143481E81410022C9B210E7002E00D0F1E095
:20ADA000621C94465205520D012A00DCA0E01B4A944500D1C5E06918A94292413F18524220
:20ADC000D2194908D5070D4357086446A0E6134B9C4200D0D9E69BE611001F3CE1400C0097
:20ADE000202B00D180E04021CB1A9A4015436A1E95410027254300241FE763460200203B42
:20AE0000DA406346202B71D0402366469B1B98400143481E814111430022CFE6FF070000A9
:20AE2000FFFF7FFFFFFF0F80002C48D0CA4CA24200D1A2E07442A1468024240427434C4613
:20AE4000382C00DDDBE01F2C00DD44E14E462024A41B3E00A640A246B0464C462E00E6402A
:20AE6000B4464646644626435446A5406C1EA54134002C434D46EF400D1B28E04A4643469C
:20AE80004D461A4300D0A5E6002300240025DEE61F2A5ADC66462022921B0600964091466A
:20AEA000B04662460E00D640424616434A4691404A1E9141020060463143C240E4E63C0030
:20AEC0002C435AD0F443A146002C52D14D1BA9428941C71B49427F1A14009A4675E69E4A12
:20AEE000944200D0C7E613E600227FE700208FE7002C00D0C8E03B002B4300D10FE10300D7
:20AF00000B4300D104E66918A9429B413F185B42DF193B0200D41AE1904B0D001F406446F7
:20AF2000F6E59A4689E63A002A43002C5CD1002A75D102000A4300D1CAE007000D009A46B9
:20AF4000E6E564460022002581E662460600203AD6406246B046202A00D1B7E04022664652
:20AF6000921B904001434246481E8141114300228AE6794CA24200D061E707000D00140091
:20AF80009A46C5E5002C41D13C002C4378D0F443A146002C20D0704CA24271D04C46382CE5
:20AFA00000DDB2E01F2C00DDBCE02026341BA2463C005646B4404E46A0462C00F440A44651
:20AFC000444666463443A4465446A54064466E1EB54125434C46E7406D188D4289413F1899
:20AFE0004942CF19140056E6002A2FD102000A4300D184E007000D009A46574C88E53D435C
:20B000006F1EBD41ECB200270D1B60E7524CA24236D0744280263604A1463743BEE702004B
:20B020000A4300D174E56A1A90464545B6413A1A7642921B9446120200D4F7E54D1BA94214
:20B040008941C71B49427F1A9A4661E502000A433AD0ED087C072C438025FA082D032A4277
:20B0600008D0C7082F4205D145072C003A009A46C9080C43670FD200E5001743364C47E5FB
:20B0800007000D00140043E53A002A4343D002000A4319D0ED087C072C438025FA082D03B0
:20B0A0002A4207D0C6082E4204D147073C003200C9080C43D700620FE50017439A46264C85
:20B0C00026E50022002544E5234C21E5002049E700230025BBE54C463E00203CE6404C4664
:20B0E000B446202C31D040244E46A61BB7403D436C1EA54164462C4300270D1BE7E6802292
:20B1000000231203144C0025A1E53D436F1EBD410027EDB260E707000D000F4CF8E4070082
:20B120000D00F5E44E463C00203EF440A0464C46202C0ED040244E46A41BA7403D436F1E7A
:20B14000BD4144460027254346E70027CFE70D0073E50027F2E7C046FF070000FFFF7FFFE1
:20B1600070B5002830D0C317C4185C40C50F200000F0FEF8174B184A1B1AD21A1F2A18DD33
:20B18000164AD21A9440002224035B05240B5B0D0021100024030A0D1205240B1443104AE9
:20B1A0001B0514401C436400ED0764082C43210070BD210091400A000B21081AC4405B058D
:20B1C0002403240B5B0DE3E70025002300240022DEE7C0461E04000033040000130400001E
:20B1E000FFFF0F8070B5051E28D000F0C1F8154B154A1B1AD21A1F2A16DD2C00134A00250F
:20B20000D21A94405A052403240B520D002124030B0D240B1B0523430D4C1205234013431C
:20B220005B002800590870BD0B212C00081AC440954024035A05240B520DE7E70022002482
:20B24000E4E7C0461E0400003304000013040000FFFF0F804200120E511C4302C9B270B56C
:20B260005D0AC40F012915DDE02189008C466D071B0B6244002128000D0D2D052B431C4D70
:20B2800052052B40520813435B00E4075B082343190070BD002A15D1002D1FD0280000F0A3
:20B2A00067F80A281DDC0B232A001B1ADA4013000200153295400F4A1B03121A52051B0B0C
:20B2C000520DD7E7002D06D080221B0B120313436D07094ACEE7084A0023CBE70022002333
:20B2E000C8E703000B3B9D402B000025E3E7C046FFFF0F8089030000FF0700008446081C4C
:20B300006146FFE71FB500F0DBF8002801D40021C8421FBD10B500F067F84042013010BD71
:20B3200010B500F0CDF8002801DB002010BD012010BDC04610B500F0C3F8002801DD002018
:20B3400010BD012010BDC04610B500F075F8002801DC002010BD012010BDC04610B500F06F
:20B360006BF8002801DA002010BD012010BDC0461C2101231B04984201D3000C10391B0ADE
:20B38000984201D3000A08391B09984201D30009043902A2105C40187047C046040302026C
:20B3A00001010101000000000000000070B500220C4B04000D00FEF72DF8002804D12000A3
:20B3C000290000F0C1F870BD064B002220002900FFF772FB00F0B8F880231B069C46604465
:20B3E000F1E7C0460000E041430270B542004C005D0AC30F4802120E460A240EC90FFF2A30
:20B400000FD0FF2C11D00120A24200D070BDB542FCD18B420DD0002AF8D12800431E98417C
:20B42000F4E70120002DF1D1EBE70120002EEDD1E9E70020EAE7C0464302F0B542005D0AE8
:20B44000C30F4802440A4800120E000EC90FFF2A1FD0FF2822D0002A09D16E426E41002878
:20B460000FD1002C0DD10020002D09D005E0002801D1002C01D08B4213D058420123184317
:20B48000F0BD002EF7D048424141012049420843F6E7002DDDD002204042F1E7002CDAD0FE
:20B4A000F9E78242E9DC04DBA542E6D80020A542E6D25842434101205B421843E0E7C046DC
:20B4C0004302F0B542004C005E0AC30F4802120E450A240EC90FFF2A17D0FF2C19D0002AA9
:20B4E0000BD170427041002C17D0002807D048424141012049420843F0BD002C13D08B426F
:20B5000014D0584201231843F6E70220002EF3D1E3E70220002DEFD1E1E7002DE5D1002099
:20B52000002EE9D0EDE7002DE9D1EAE7A242E8DC04DBAE42E5D80020AE42DDD25842434187
:20B5400001205B421843D7E70B0330B5134D1A0B4B005B0DC90F0024AB4211DD104CA342D1
:20B5600010DC8024640322430E4CE41A1F2C0CDD0D48C31ADA4013005C42002900D11C00D0
:20B58000200030BD094BCC18FAE7E040084CA44663449A4013000343EEE7C046FE03000071
:20B5A0001D0400003304000013040000FFFFFF7FEDFBFFFF00B589B02022002168460CF0BF
:20B5C000F5FB0D4B0093183301930C4B029301236A46D37603226946CA754B754B740222F2
:20B5E000CA730B7404338B8109338B73044807F021F809B000BDC046400100204C3000401D
:20B600004020014000B585B01022002168460CF0CDFB064B009301236A465371044B02937A
:20B620006946044808F0E4FB05B000BDDF2E0000B1B800082011014000B585B01022002199
:20B6400068460CF0B3FB074B009301236A4653711373054B02936946044808F0C9FB05B03E
:20B6600000BDC046DF2E0000B1B8000820110140F0B55F4656464D46E0B41D4B198889B2C6
:20B68000FA200001FDF7A6FD00281CDD194B1E69370000250024184B9B46154B9A4600E008
:20B6A0004F46AD005B46EE500134E4B225005346198889B2F3199946FA200001FDF78AFD83
:20B6C0008442EDDB00E00027094B198889B2FA200001FDF77FFD01003800FDF7F1FC074BAE
:20B6E0001860FFF7A9FF1CBC91469A46A346F0BD0E48002040010020E41D0020E01D0020FA
:20B7000030B589B0384C02220A21200007F01CF902220721200007F017F902220421200030
:20B7200007F012F9314C02220121200007F00CF902220021200007F007F901A900240C7082
:20B7400001234B708B70CC700C714C718C71CC710C724C728C72CB720C734C7305228A7386
:20B76000CC730C740B764C61214D280006F06CFA002306220121280006F036FB01230622E2
:20B780000421280006F030FB022306220621280006F02AFB032306220921280006F024FBCF
:20B7A000042306220A21280006F01EFB6A68114B13406B60FFF7FEFEAA6802231343AB6002
:20B7C0006B688022120613436B600B4B1C60C8229200002109480CF0E9FAFFF713FFFFF71E
:20B7E00047FF09B030BDC046000008206000082000300040FFFFEFFFE01D0020E41D00200D
:20B80000F0B5474680B4264B198889B2FA200001FDF7E0FC0138002819DD002500270024C3
:20B82000204B98461E4E6B1C9B0042469B58AD00AB50FF180134E4B22500318889B2FA20F9
:20B840000001FDF7C7FC01388442ECDB00E00027134D298889B2134CFA200001FDF7BAFCF3
:20B8600001388000104B1B690351298889B22D88ADB2FA200001FDF7ADFC0138800003590F
:20B88000FF182900FA200001FDF7A4FC01003800FDF716FC054B186004BC9046F0BDC04669
:20B8A0000E480020E41D002040010020E01D002010B5FFF7A5FF10BD042802D1054B186878
:20B8C00002E08000044BC058044B984200D918007047C046E01D002040010020FF0F00003C
:20B8E00010B5254C00220321200007F02DF801220321200007F08EF801220321200007F04E
:20B9000013F800220521200007F01EF801220521200007F07FF801220521200007F004F874
:20B92000164C00220821200007F00EF801220821200007F06FF801220821200006F0F4FF1E
:20B940000F4C00220321200006F0FEFF00220321200007F05FF802220321200007F064F8C4
:20B960000849032007F008F90023074A1370074A1370074A138010BD30000820000008205F
:20B9800060000820BDB9000804210020082100200621002010B5FFF7A3FFFFF7B1FE00F0DA
:20B9A000EBF810BD10B50321034806F0C7FF431E9841C0B210BDC0466000082010B5144BBC
:20B9C0001B78092B22D8FFF7EDFF012810D10122104B1A70104B196E03320A431A66196E47
:20B9E00008220A431A660A4A1378013313700DE001220321094806F097FF074B1A6E0421AA
:20BA00008A431A661A6E04318A431A6610BDC0460821002004210020004001403000082095
:20BA200010B50B4B1B78012B11D10A4A138801339BB21380084A934209D1002203210748B1
:20BA400006F072FF0022034B1A80014B1A7010BD0421002006210020983A0000300008201C
:20BA600010B502000521024806F05EFF10BDC0463000082070B58EB001220821194806F00B
:20BA800063FF0BAE0A22002130000CF08FF907AD1022002128000CF089F901AC18220021D5
:20BAA00020000CF083F9022333703371013B6B706E606B73AB73656023729033FF3363816E
:20BAC000094B198889B20948FDF7FAFA9221FF31FDF7F6FA0138E0812100054807F070FBCC
:20BAE0000EB070BD300008200E48002000366E010040014070B58EB0012207211A4806F061
:20BB000023FF0BAE0A22002130000CF04FF907AD1022002128000CF049F901AC1822002114
:20BB200020000CF043F903233370013B3371013B6B706E606B73AB73656023729033FF33D4
:20BB400063810A4B198889B20948FDF7B9FA9221FF31FDF7B5FA0138E0812100054807F053
:20BB60002FFB0EB070BDC046300008200E48002000366E010040014010B5FFF77BFFFFF78B
:20BB8000B9FF10BD012809D10A4B196E04220A431A66196E08220A431A660AE0002808D1E5
:20BBA000044B1A6E04218A431A661A6E04318A431A66704700400140C000024B9C46604467
:20BBC0008160704708400140C000034B9C466044806880B27047C0460840014010B501F09A
:20BBE00071FF024A024B9A6062B610BD0090000800ED00E010B5FFF7F1FF01F0A5FC04F0C7
:20BC000025FF05F075FA02F0C9FD05F051FF00F00FF800F05DFE02F07DF902F051FBFFF7C1
:20BC2000B9FE08F097FE08F081FE00F0B3F9FEE70022054B1A800023044A00211170044A5B
:20BC40001370044A1370704736260020282600203026002034260020F0B5124BDD792D0278
:20BC60001B7A5D19ADB24B1EDBB200290FD001000133C018FF24FF220B4F0C4E0B78534041
:20BC8000FA5C6240F45C01318142F7D101E0FF24FF2212022243954201D0092000E001202F
:20BCA000F0BDC0463826002038800108387F010810B5124B1B780024022B17D107210F4865
:20BCC000FFF7CAFF012811D10C4B5B78102B0CD10A4B9B78062B09D1084B5979084A1170ED
:20BCE0009A79084B1A70013400E000240922002102480CF05BF8200010BDC04638260020C5
:20BD0000282600203026002010B5204A13880A3313801F4B1B78002B13D01E4B1B78002B73
:20BD200013D11D4A13780A33DBB21370142B17D90022174B1A700932002118480CF036F8BD
:20BD40000EE0144B1B78002B0AD00022114B1A70FFF7AEFF012803D100220C4B1A8011E052
:20BD6000C823DB00094A12889A420BD91A00074B1A8001220A4B1A7000230A4A13700A4AFA
:20BD8000137002E00022064B1A7010BD36260020322600203326002029260020382600201A
:20BDA000342600202826002030260020034B18780002034B1B78181880B2704728260020DD
:20BDC0003026002010B582B000F020FF264B1B68012B24D1254B0193012400940023402290
:20BDE0002349244801F03EF8234B01930094002320222249224801F035F8224B01930094C1
:20BE0000002320222049214801F02CF8204B01930094002320221F491F4801F023F81F4B99
:20BE2000019301240094002340221D491D4801F019F81D4B01930223009300238022920058
:20BE40001A491B4801F00EF81A4B01930094002340221949194801F005F8002001F0F8F861
:20BE600000F0E0FE02B010BD00B001086001002038810108C1BE0008680100204881010897
:20BE8000D9BE00087001002058810108F5BE0008580100206881010811BF00085C01002015
:20BEA0007881010855BF00086C010020988101082DBF000864010020AC81010871BF0008CE
:20BEC00000B583B001F054F9019000F00FFD012101A801F0ADFAF8E700B583B001F048F953
:20BEE0000190002000F0F4F8052101A801F0A0FAF7E7C04600B583B001F03AF901900120B9
:20BF000000F0E6F80A2101A801F092FAF7E7C04600B583B001F02CF90190022000F0D8F8AD
:20BF2000322101A801F084FAF7E7C04600B583B001F01EF9019008F0FDFC08F0FFFC08F055
:20BF400001FD08F003FDFFF76BFD012101A801F06FFAF0E700B583B001F00AF9019005F02F
:20BF600053FA04F085FC0A2101A801F061FAF6E700B583B001F0FCF8019002F083F802F045
:20BF800065FA04F031FBFFF7BFFE0A2101A801F04FFAF2E700B583B0002301930133009322
:20BFA000002330220449054800F05CFF012801D101F0A4F8FEE7C046C8810108C5BD0008D8
:20BFC0000822002809D10AE0C046013BDBB2002BFAD1013880B2002801D01300F4E770477D
:20BFE000022819D80D4A8D23DB00584310180C4B9C466044002303706346D35CDB070BD475
:20C00000084BD35CDB0707D4074BD35CDB0703D4137A7F210B4013727047C0464426002063
:20C0200062060000CA0A0000320F0000064B002206495A5406495A5406495A541A7A7F21E5
:20C040000A401A727047C0464426002062060000CA0A0000320F000010B500F0D3FB094B6F
:20C060005B7A70221A4204D001221343054A537205E0044810221343437200F0C7FB00F08C
:20C08000C3FB10BD44260020024B00221A755A757047C0464426002070B504000B4B1D7D5E
:20C0A00000203B2D10D81E00587D40193C21FDF777F9881CC00030180630082221000BF0DB
:20C0C00037FE01353575012070BDC04644260020F0B557464E464546E0B484B00190484B20
:20C0E0001B7A7F2B00D884E0464E0023984600254246B146B379DB076FD5337901998B4227
:20C100006BD17388013B9BB27380002B65D13388738000248D23DB0053431F00B2462B19BD
:20C1200002AA137000F06EFBE000001BC000C019F930FF30324B9C466044031D443083422F
:20C140002ED2E200121BD200D2196244FD32FF321168002924D002AA01321E79042E0AD1F4
:20C160000E7816700E68360A56704E889670C978D17004320BE0022E06D10E881670098804
:20C18000090A5170023202E0097811700132083304A98A4204D2984202D019680029DCD1F3
:20C1A000174B5B7A70221A4207D002A8FFF774FF002809D100F028FB08E020221343104A81
:20C1C000537202A800F022FB00F01EFB0134E4B253465B79A342A2D24E461435EDB20123A9
:20C1E0009C46E0448D23DB009C4666443C2D00D07EE704B01CBC90469946A246F0BDC046A8
:20C2000044260020A02C002010B500F06DFB154B154AD35A0020002B22D0FF2B05D8DBB2CE
:20C22000104A11498852104906E0013BFF3B0D4A0D498B520023F6E70A69147888882018EA
:20C24000888001320A61013BDBB2002BF4D1054B054AD35A0120002B02D1FFF7FDFE002083
:20C2600010BDC046360F000044260020F8B504000378012B00D15FE2052B28D157E2C04B45
:20C280001B7ADB0604D4FFF7D1FE0022BC4B5A72BB490B7A10229343202213430B72B84BED
:20C2A000FF221A7000225A7061789970FE21D9709A80DA8038E2B24B1B7A9A0600D440E2E7
:20C2C0002022934310221343AD4A137239E2AC4B1A7A930600D434E2A94BFF21197000215B
:20C2E0005970417899700578232D00D919E2AB00A449CB589F46A44B1A780023002A0FD1C4
:20C3000014E020239A439E4B1A728378002B04D110231A439A4B1A7206E2FFF787FE03E250
:20C3200099490133DBB2CA5C002AFAD1944AD370002313719371433353714B33D371924B9A
:20C34000D360F1E18578012D09D84168C07800F09DFA0235AD008A4B5B195860E4E1322266
:20C36000874B5A70E0E18178C31C4A1ED2B2002900D1D9E10432841881491A78C868027018
:20C38000CA680132CA6001339C42F6D1CCE1831C08347B491A78C8680270CA680132CA6026
:20C3A0000133A342F6D1BFE18278531EDBB2002A00D1B9E1181D724BC01803337049CA6885
:20C3C00012781A700133CA680132CA608342F6D1AAE1C078616800F059FA694B1861A278E4
:20C3E000531EDBB2002A00D19EE1181D644BC018033363490A6912781A7001330A690132C6
:20C400000A618342F6D18FE18078FFF7E9FDA278022A19D88D23DB005A43F932FF32584B83
:20C42000D218131D59498C466244934204D20021197001339A42FBD1514A117A02230B43FE
:20C440001372FFF721FE00E000254D4AD570A37814214B43137167E18378022B05D8C17879
:20C46000132902D80279072A07D9454B31225A700021C832FF32995056E1414CC800411A51
:20C480008D204343CB189B183F33DB001B190433FC225200A35047E183785A1E012A01D918
:20C4A000042B05D1FC235B00354AD558002D03D13122334B5A7037E1E1790906A3791B04F9
:20C4C000C91863791B02CB1821795918E07800F0DDF92860FC235B00294AD358A2781A7131
:20C4E00022E1930703D42222254B5A701CE18378012B08D0002B02D0022B51D07DE0C0786E
:20C50000FFF76EFD10E1C678022E00D90CE105794379C17909028079411889B28D20C0001C
:20C520007043174F3818CC27FF00BC4660440370002900D101318D23DB0073431048C318E7
:20C540001348181801801349591801200880124959180D7011498C46634404211970E07837
:20C56000022800D9E0E006498D23DB004343CB1863440120187080235B421A430A72D3E099
:20C5800044260020E0810108000000206C0400005C0600005E060000610600006206000082
:20C5A000C578022D00D9BFE000796379E2791202A1798A1892B28D21C9006943614C61188A
:20C5C000CC24E400A44661440B70002A00D101328D23DB006B435B49CB185B4959180A80F0
:20C5E0005A4A9A1801211180594A9A181070594A9446634404221A7096E03122514B5A705A
:20C6000092E0930703D422224E4B5A708CE08378002B02D0012B03D019E0FFF707FD83E0D7
:20C620000023484D01264C4C4A49591849190878042800D10E708D21C9008C466344A3424D
:20C64000F2D180235B421A433E4B1A726CE031223C4B5A7068E03B4B0222DA7000225A605D
:20C66000DA681A6183881B0442881A43002B02D03221344B5970334B38495A525B78002B6B
:20C6800052D15EE04379190603791B04CB18C27812029B18817859182A4BD86800F014F9C3
:20C6A00042E08278274D0330E96800F00FF9A378EA6894466344EB60022835D141E0214D76
:20C6C00002300622E96800F001F9EB680633EB60022829D135E01B4BD86800F0DFF823E045
:20C6E000184C0023E37000F0D3F860601CE044239A4314490A728378442003401A430A7251
:20C70000A278174BCA540FE00E4B154A9A5CDA7000221A7108E00B4B0222DA70013A1A7179
:20C7200002E03022074B5A70FFF796FC09E04388002B00D1B3E5BEE54388002B00D0BAE5D1
:20C740009DE5F8BD442600205C0600005E0600006106000062060000380D0000360F0000F9
:20C76000340F000010B51F4A537A702118008843507201241C4007D071229343194A53725C
:20C78000FFF76AFC01242AE0164B1B7A7F2B26D900F038F8134B1C7D002C1ED01C005A7A4E
:20C7A000202313436372607D0230C0000019063000F02CF8637D0133DBB23B2B02D8094AA5
:20C7C000537502E00022074B5A75064A137D013B137500F019F8012401E000F015F82000A4
:20C7E00010BDC04644260020044B054A991800221A7001338B42FBD17047C04644260020CD
:20C80000380F000072B6704762B6704710B5184B08225A7200225A7300231549C25C0C6902
:20C82000E2540133082BF9D1114B1B691B78132B03D8104A0E4B1A6011E01A00143A132A42
:20C8400003D80D4A0A4B1A6009E0283B132B03D80A4A074B1A6002E0094A054B1A60012230
:20C860000349084804F00EFC0122074B1A7010BDEC220020D1070000D2070000D307000099
:20C88000D4070000007800407501002008007047014B18787047C04676010020014B1870AC
:20C8A0007047C04676010020044B05481978054A9A18117001338342F8D1704700F80108FB
:20C8C000000002080050FE177047C0460020704710B5FFF7E9FFFFF787FF0022014B1A703E
:20C8E00010BDC046760100207047C04610B50C4B1B78012B06D10022094B1A70094B18698A
:20C90000FFF7B4FC72B6A023074AD258C0239B021A4201D1FFF726FF62B6FFF775FC10BDF6
:20C9200074010020A02300200078004010B5124B00E013001A688242FBD359685C18A04287
:20C9400003D14068411859601800446801198A420CD10A4A1268914206D04A6814194460C8
:20C960001A681268026002E0016000E00260984200D0186010BDC046840100208001002099
:20C9800070B5040000F0ECFB3C4B1B68002B20D13B4A530708D0D11D07239943C0235B0187
:20C9A000D3185B1A0A0001E0C0235B013548026000214160D318083B072083432F48036057
:20C9C00059601960991A516013602F4B19602F4B1960002C4CD0072323401A0010239B1A91
:20C9E000DA43944244D8E318002B3DDD274A1668B34239D8234A146801E022000C00616832
:20CA00008B4202D921680029F7D11C4909688C422AD01568216811606268D21A102A08D90E
:20CA2000E018410701D072B6FEE742606360FFF77DFF6268B31A15490B60134909688B4207
:20CA400001D211490B60083580231B061A436260002323600E4A13680133136000F04AFCC8
:20CA60006B0708D072B6FEE700F044FC002502E000F040FC0025280070BDC04680010020DB
:20CA80009001002084010020901900207C0100207801002010B5002823D00300083B5B6858
:20CAA000002B01DB72B6FEE70200083A1268002A01D072B6FEE7083804005B005B084360F7
:20CAC00000F04EFB074A636811688C46634413602000FFF72BFF044A13680133136000F0FC
:20CAE00009FC10BD7C0100208C010020030008334360012252428260C36003610023036093
:20CB00007047C046002303617047C04643684B609A688A609A68516099600861036801331E
:20CB20000360704730B50C6802000832631C02D1026904E01A0053681D68AC42FAD25368D6
:20CB40004B6099608A605160086103680133036030BDC046036942688168916082684168B5
:20CB600051605A68904201D182685A60002202611A68013A1A6018687047C04682B00023AC
:20CB80000193064B1B68013301D072B6FEE772B6019B002BFCD002B07047C04610000020C1
:20CBA0000B4A13681868203080F30988022080F31488BFF36F8F3FBCAE4608BC04BC62B665
:20CBC0001847C046C046C046C046C046C046C046341A002010B5031F802464041C60043BB0
:20CBE0001960043B02491960143B1A60403810BD7DCB000880225205034B1A60BFF34F8F0A
:20CC0000BFF36F8F7047C04604ED00E072B6044A136801331360BFF34F8FBFF36F8F704747
:20CC200010000020064B1B68002B01D172B6FEE7013B034A1360002B00D162B67047C04619
:20CC400010000020EFF3108072B6704780F310887047C0460000000000000000000000008B
:20CC6000EFF309800E4B1A6820381060F0C044464D4656465F46F0C008B572B600F016FC01
:20CC800062B60CBC116808681030F0C8A046A946B246BB4680F309882038F0C81847C0468C
:20CCA000341A002010B5FFF7CDFF040000F066FA002803D080225205024B1A602000FFF75A
:20CCC000C5FF10BD04ED00E010B5084C00232360074A1360074B1868FA218900FCF7F0F91D
:20CCE0000138054B18600723236010BD10E000E018E000E02000002014E000E010B50C4BE1
:20CD00001A68FF2109040A431A601A68FF2109060A431A60FFF7D8FF0022064B1A60FFF775
:20CD20003FFF00F0C3FBFFF729FF002010BDC04620ED00E010000020084B1B681B68002B55
:20CD400004D101225242064B1A6005E0034B1B68DB681A68024B1A607047C04698190020AC
:20CD6000381A0020F0B5474680B4144B9846144F144E43461B68002B18D0104DFFF746FF22
:20CD8000FB68DC68201DFFF7E5FE3368013B33602B68013B2B60FFF745FF206BFFF77AFEDF
:20CDA0002000FFF777FE2B68002BE7D1064B1B68012BDED9FFF71EFFDBE7C046741A002032
:20CDC000A01900208C1A0020CC19002070B504000D001E4B1E681E4B18680430FFF7BAFEBF
:20CDE000631C16D1002D14D01A4A5168184B1868816018688C68C4608C68186804306060DB
:20CE00001868043088601B685A611368013313601AE034190E4B1B685C60A64207D90E4B16
:20CE200018680B4B19680431FFF77CFE0CE00B4B1868074B19680431FFF774FE084B1B68EE
:20CE40009C4201D2064B1C6070BDC046401A0020341A0020B4190020441A002098190020FD
:20CE6000381A0020F0B5474680B482B000900E00019395002800FFF783FD041E00D1C7E0A9
:20CE80005820FFF77DFD071E0ED0582200210AF08DFF3C632A00A52120000AF087FF3B6BB1
:20CEA0009846002E04D11EE02000FFF7F3FDAFE00022B2563423FA540023F356002B0FD0B9
:20CEC000731C3A00353239003E3100201856107000201856002803D0013301328A42F4D1EB
:20CEE00000223D23FA54089B042B01D972B6FEE7089E042E00D90426FE62BE643C1D2000D3
:20CF0000FFF700FE38001830FFF7FCFD3F6105239B1BBB617F62281F404407239843019AC8
:20CF20000099FFF757FE3860099B002B00D01F60FFF76CFE394A136801331360384B1B684C
:20CF4000002B23D1364B1F601368012B2AD1354D2E0064362800FFF7C9FD1435AE42F9D1DF
:20CF6000314E3000FFF7C2FD304D2800FFF7BEFD2F48FFF7BBFD2F48FFF7B8FD2E48FFF744
:20CF8000B5FD2E4B1E602E4B1D600BE02D4B1B68002B07D1224B1B68DB6AFA6A934201D8C2
:20CFA0001F4B1F60284A1368013313603B64FB6A264A1268934201D9244A136019499A007A
:20CFC000D3189B00CB185B68BB609A68FA609A6854609C60FB6A9800C21892008A187A6116
:20CFE000C218920052580132C3189B005A50FFF719FE144B1B680120002B0BD0084B1B68DC
:20D00000DA6AFB6A9A4205D2FFF7F4FD012001E00120404202B004BC9046F0BD8C1A00206D
:20D02000341A0020CC190020601A0020481A0020781A0020A0190020B41900209819002018
:20D04000441A00209C1900205C1A0020901A002070B50400FFF7DAFD002C01D1204B1C683A
:20D06000251D2800FFF776FDA36A002B03D020001830FFF76FFD1B4A136801331360184B1E
:20D080001B689C4208D129001748FFF73FFD174A13680133136005E0154A1368013B1360AB
:20D0A000FFF74AFEFFF7BEFD0D4B1B689C4205D0206BFFF7EFFC2000FFF7ECFC0D4B1B68AE
:20D0C000002B0BD0064B1B689C4207D10A4B1B68002B01D072B6FEE7FFF78CFD70BDC0462D
:20D0E000341A00205C1A0020A0190020741A00208C1A00209C190020301A002000B583B0B8
:20D10000104B019300230093802252000E490F48FFF7A8FE01280DD172B6012252420C4BEF
:20D120001A6002320B4B1A6000220B4B1A60FFF7E5FD03E0431C01D172B6FEE7074B1B68B1
:20D1400003B000BD3C1A00207082010865CD0008381A00209C190020401A002014000020BF
:20D16000024A1368013313607047C046301A0020014B18687047C046401A0020F0B54746E5
:20D1800080B4514B1B68002B00D094E04F4B1C6801341C60002C12D14D4B1B681B68002B26
:20D1A00001D072B6FEE74A4A11684A4B186810601960494A136801331360FFF7BDFD474B8F
:20D1C0001B6800209C4265D30020414B9846002643461B681B68002B04D1012252423F4B16
:20D1E0001A6057E03A4B1B68DB68DB685A68944202D23A4B1A604DE05A699968DF688F605E
:20D20000D9689F684F60191D57688F4201D1DF6857605E611768013F17609A6A002A10D07E
:20D22000DF691D6ABD601F6ADD697D601F0018375568BD4201D11D6A55609E621768013F5F
:20D240001760DA6A264D2F68BA4200D92A609700BA189200234DAC46624452689A609568F6
:20D26000DD60976879609160DA6A9700B9188900654661445961B918890049590131BA1869
:20D2800092005151184A1168DA6ACB6A9A429FD901209DE7144B1B68DB6A9A00D3189B00C6
:20D2A000104A9B58012B00D90120104B1B68002B06D0012004E00E4A13680133136000207D
:20D2C00004BC9046F0BDC046301A0020401A002098190020441A002094190020381A002093
:20D2E000901A0020CC190020341A0020941A0020C8190020F8B5464B1B68002B01D172B63C
:20D30000FEE7FFF783FC424B1A68013A1A601B680024002B77D13F4B1A680023002A4ED15D
:20D3200071E0F368DB689C6ADA691D6A95601A6ADD6955601A0018326568954201D11A6A5C
:20D34000626098622268013A22605D699A68DC689460DA689C6854601C1D6A68A24201D10F
:20D36000DA686A6058612A68013A2A60DA6A2A4D2D68AA4201D9284D2A609500AA18920093
:20D380008A1852689A609568DD6095686C609460DA6A9500AC18A4000C195C61AC18A400B5
:20D3A00064580134AA18920054501C4A1268D26ADC6A944207D30122194C226003E0194F1D
:20D3C0003E00002018493A68002AAAD1002B01D0FFF7B2FC154B1C68002C0CD0104E012537
:20D3E000FFF7CCFE002800D03560013C002CF7D100220E4B1A600A4B1B680024002B02D0C1
:20D40000FFF7F8FB0134FFF70DFC2000F8BDC046301A00208C1A0020901A0020341A0020AC
:20D42000941A0020781A0020CC190020C819002070B505000C00002801D172B6FEE7002900
:20D4400001D172B6FEE7174B1B68002B01D072B6FEE7FFF785FE144B18682A68A318904288
:20D4600008D29A4219D99842A44164422B60984209D204E09A420DD898420BD30DE0181AE3
:20D480000021FFF7A3FCFFF735FF002808D1FFF7B1FB05E02B600124F1E72B600024F2E714
:20D4A000200070BD301A0020401A002010B5214B1B68002B03D001221F4B1A6038E0002248
:20D4C0001D4B1A601D4B1B689A00D21892001C495258002A0DD1002B02D003E0002B01D175
:20D4E00072B6FEE7013B9A00D21892005258002AF4D0134C9A00D1188900611848684068F9
:20D500004860D21892000832A218904205D141689A00D2189200A21851609A00D21892000B
:20D5200007498A185268D168064A1160034A136010BDC046301A0020941A0020901A0020B0
:20D54000CC190020341A002010B5084C00220121200005F0F9F900220021200005F0F4F9AF
:20D5600001220021200005F055FA10BD0000082010B5124C01220121200005F04BFA012229
:20D580000121200005F0D0F901220021200005F0CBF90420FEF714FD00220121200005F0EB
:20D5A000C3F90420FEF70CFD00220021200005F0BBF90420FEF704FD10BDC046000008206C
:20D5C00010B50E4C01220121200005F023FA00220121200005F0A8F90420FEF7F1FC012292
:20D5E0000021200005F0A0F90420FEF7E9FC01220121200005F098F910BDC0460000082078
:20D6000070B5050001220121164805F003FA0824144E6BB2002B05DA01220121300005F02C
:20D6200083F904E000220121300005F07DF96D00EDB20420FEF7C4FC01220021300005F05D
:20D6400073F90420FEF7BCFC00220021300005F06BF90420FEF7B4FC013CE4B2002CD8D150
:20D6600070BDC0460000082070B5184C00220121200005F0CFF901220121200005F054F9FE
:20D680000420FEF79DFC01220021200005F04CF90420FEF795FCFB240C4D06E0013CE4B25F
:20D6A000002C02D1FFF78CFF0EE00121280005F045F90028F2D100220021044805F034F9E3
:20D6C0000420FEF77DFC0124200070BD0000082010B5124C01220121200005F09BF90022EB
:20D6E0000121200005F020F90420FEF769FC01220021200005F018F90420FEF761FC00225A
:20D700000021200005F010F90420FEF759FC01220121200005F008F910BDC0460000082006
:20D7200010B50F4C01220121200005F073F901220121200005F0F8F80420FEF741FC012240
:20D740000021200005F0F0F80420FEF739FC00220021200005F0E8F80420FEF731FC10BD12
:20D7600000000820F8B507001A4C00220121200005F050F901220121200005F0D5F8082670
:20D780000024144D01220021280005F0CDF80420FEF716FC6400E4B20121280005F0CEF8B4
:20D7A000002801D00134E4B200220021280005F0BBF80420FEF704FC013EF6B2002EE1D1B2
:20D7C000002F02D1FFF7ACFF01E0FFF781FF2000F8BDC0460000082070B504000D00160000
:20D7E000821880239B0100209A423DDC00293AD0FFF7BEFEA020FFF703FFFFF735FF00284C
:20D800002DD0200AFFF7FCFEFFF72EFF002826D0E0B2FFF7F5FEFFF727FF00281FD0FFF70C
:20D82000A7FEA120FFF7ECFEFFF71EFF002816D0B31E9BB2012E0AD02C000133ED182E00C7
:20D840000120FFF78FFF20700134B442F8D10020FFF788FF2870FFF7B3FE012004E0FFF7C8
:20D86000AFFE002000E0002070BDC046F8B557464E46C0B405008A46811880239B01002089
:20D8800099424CDC5346002B48D0002A3AD08BB2994600271F26BBB2002B01D02E4224D11F
:20D8A000FFF78EFEFA208000FEF78AFB0024FFF75FFEA020FFF7A4FEFFF7D6FE002804D13C
:20D8C0000134A4B2642CF2D124E0642C22D0280AFFF796FEFFF7C8FE00281BD0E8B2FFF7C9
:20D8E0008FFEFFF7C1FE002814D05346D85DFFF787FEFFF7B9FE00280CD00135ADB2013713
:20D90000A945C8D1FFF75CFEFA208000FEF758FB012004E0FFF754FE012000E000200CBC18
:20D9200091469A46F8BDC046002103E00F4B5B58435004310E480F4B42189A42F6D30E4A95
:20D9400003E00023136004231A440C4B9A42F8D300F048F90A480B4901800B48094901804D
:20D960000A480B490180FEF745F9704724840108000000203C01002040010020E0380020CF
:20D9800014000820FFFF00004400082074000820FF030000FEE7000082B00022019201383E
:20D9A0000A4B58609A6005321A601900802252020B680193019B1342FAD0044B1A680121EB
:20D9C0008A431A6000229A6002B0704710E000E000B583B000226B46DA71002006F000F996
:20D9E000012006F009F9012805D104F0D3FD01226B46DA7105E0002004F0CCFD00226B4697
:20DA0000DA71002004F0B0FD012006F027F901280CD1002004F0CAFD082004F0D3FD602076
:20DA200004F0E0FD012004F097FD0BE06B4607331B78012B03D1022004F08EFD02E0002060
:20DA400004F08AFD03B000BD0B4B0C4A1A600C4A1A600C4B0C4A1A60802189020B4A1160CC
:20DA60008022520019680A431A60094A80231B0611680B4313607047002000401178AC00CD
:20DA80006745230114200040312000004020004004200040F8B50A4B1B6843431F001D0E98
:20DAA00008D00024802676043000FFF775FF0134A542F9D13802000AFFF76EFFF8BDC04668
:20DAC000981A002010B584B00F226A44002313700E2169440B700D2169440B7003A90B7022
:20DAE0000B2169440B700A2169440B70092169440B7001938020C0050368032423401370BC
:20DB000003689B059B0F01330B701378DBB2012B08D0002B02D0022B4AD04CE02C4A2D4B27
:20DB20001A6048E08021C9050B68DB02DB0F0B226A4413700B689B069B0F013303A803702C
:20DB400025480B589B0F254CE35CDBB20A246C4423700B589B00DB0E5B000E246C442370E6
:20DB60000B58DB0BDBB20D2169440B701378002B03D0174A174B1A6002E0154A154B1A6098
:20DB80000D236B4418780A236B441978C9B2114C23685843FBF794FA019001980E236B4421
:20DBA000197803AB1B785943FBF78AFA206002E0074A084B1A6009236B441978C9B2054BCA
:20DBC0001868FBF77DFA064B186004B010BDC04600127A0020000020908800001C000020EC
:20DBE0002400002010B5074B074A9A60074A084B1A60FFF729FFFFF7EBFE012004F0BEFC95
:20DC000010BDC04600ED00E000900008006CDC022000002003789A07D20F50005A07D20FB3
:20DC200092008218D807C00F10181A07D20FD2008018DA06D20F120180189A06D20F520136
:20DC400080185A06D20F92018018DB09DB01C018C0B27047F0B5474680B407000D00140071
:20DC60001C2200210AF0A2F80022194B1A70012C02D0022C14D027E0164C26001B36144B51
:20DC800098462000FFF7C6FF2840854204D143461B780133424613700134B442F1D113E08C
:20DCA0000C4E01240A4B98463000FFF7B3FF284205D043461B785A1C41460A70FC54013483
:20DCC000E4B201361C2CEFD1380004BC9046F0BD9D23002051240020F8B5040000220F4B52
:20DCE0001A701C3200210AF061F80123002000270B4E0125D9B29A00B218D278D20703D504
:20DD00007A1CE155D7B2280001331C2BF2D1002801D0024B1F702000F8BDC0464C24002008
:20DD200004B001088000034B1818C078C007C00FC0B2704704B00108C007C00FC0B27047B5
:20DD400070B51B2800D9B7E05C4A821883005C4CE318DB78DB0760D55A4B1B78012B5CD18A
:20DD6000012900D098E011781943C9B202230B43D9B220230B43EF210B40AF398B43082108
:20DD80000B431370504B1E78B0421ED01C0031000025002303E008342178884215D000297C
:20DDA00000D01D000133DBB2042BF4D171E0002D04D1002E02D1444B187003E00135ED0050
:20DDC000414BE8540121414B1970414B187080003B4B1818C3789B07DB0F012B6AD142E0AA
:20DDE00001243C4B1C70354B1B5CDB070DD5374B1C700023344D0026EC5C844202D1324CF9
:20DE00001C1926700833202BF6D12C4C235C0825AB43073DAB43235417E02A4B1B78002B05
:20DE200013D101242B4B1C70244D2B5C0826B343A3431F34A3431E3CA34310242343DBB235
:20DE4000402423437F2423402B5480001C4B1818C3789B07DB0F012B10D11A4B1B78012B64
:20DE60002AD1012923D11378802149420B43137022E013787F210B4013701DE0002B1BD1F2
:20DE8000104B1B78012B17D113787F210B40137012E0022D8BD998E70029A1D08000084B16
:20DEA0001818C3789B07DB0F012BE7D1D9E7002902D1DEE7002BE7D070BDC046502400205D
:20DEC00004B001089C23002014210020202600209423002092230020037801229343013298
:20DEE00093437D32134003707047C046037808229343043A9343033A93431F3293431E3AF9
:20DF0000934310221343DBB2402213437F2213400370704770B5154C25001B352000FFF72F
:20DF2000E5FF0134AC42F9D1AB22114B1A700023104A1370104A1370104A1370104A002029
:20DF400050709070D3700F4A137001220E490430FFF742FC20220D490720FFF73DFC0422EC
:20DF60000B492720FFF738FC70BDC04651240020932300209D230020202600209223002023
:20DF800094230020842300209C230020142100200C210020F8B55F4656464D464446F0B4B3
:20DFA000244C0020A246002108239946043B9846033B9C4620270226C200524451709170F8
:20DFC000E170217013794D46AB434546AB436546AB43BB43B3431025AB465D462B43DBB288
:20DFE0009B4640235D462B437F252B401371124BC3181970013008340428DDD10F4A0023B5
:20E00000002050709070D3700D4A13700D4A13700D4C25001B352000FFF768FF0134AC42BB
:20E02000F9D10122094B1A703CBC90469946A246AB46F8BD142100200C2100209423002061
:20E0400084230020CA230020512400209C1A002070B5040003280FD885B2C100074BC9181B
:20E06000E80007300822FFF701FC05496118280027300122FFF7FAFB70BDC0461421002088
:20E080000C210020F8B55F4656464D464446F0B4804B1B78012B13D100227E4B1A70002081
:20E0A000FFF7D6FF0120FFF7D3FF0220FFF7D0FF0320FFF7CDFF012277492B20FFF7D6FBEB
:20E0C000764B1B78012B7BD1754B1B78012B00D090E00022714B1A70724C01239946002666
:20E0E000F5B237002000217800291AD06E4A8B00985CD3185A7892466A4AF700BC46624457
:20E100005070504690709A78E270684A9155DB789B0702D50122604B1A702800FFF798FFD4
:20E1200041E04B46032B00D98BE0237A002B00D08AE04B465B4A04E0D900895C002900D0E8
:20E1400083E00133DBB2042BF6D17AE0554F0024564EEA00BB185C709C70DC70D45574550C
:20E160002800FFF775FF6B1CDDB2042DF1D122E00122494B1A704B4B98466346D800434643
:20E180001A18531C9A4600230027BB465770574659467970D37042468354444A6146535449
:20E1A0002800FFF755FF01364F4601370834FBB29946042E94D1012237492B20FFF756FB55
:20E1C0003B4B1B78002B15D0354A1278012A11D135499A00545C8A18507835494C7088709C
:20E1E0009078C87033490B70D3789B0702D50122294B1A70304B1B78012B45D100222E4B18
:20E200001A700121012328482C4C8A008218D278D20702D5625CD20705D40133DBB20131C5
:20E220001C2BF2D101E01C2B2ED1214A00231370002050709070D3701E4A1370164A1370AB
:20E2400022E0032D82D9B6E74B469C46DB00154A995C01708B00144A9A5C9346124A924695
:20E2600053445A789246FA000E4FB84642445F465770574697709A78C2700C4A9155DB789F
:20E280009B0700D574E776E73CBC90469946A246AB46F8BD9C1A0020CA23002020260020CB
:20E2A0009C2300201421002004B001080C2100209423002084230020922300205024002019
:20E2C000094A0023137013715370537193709371D370064A1380064A1380064A1380064AF7
:20E2E0001380064A1360704788230020242600201021002090230020C82500204023002028
:20E300000349A0228B58802083438B507047C0460078004030B5104B1D78002D1AD00F4B10
:20E320001B68984210D106E01C00116801330C3281420CD100E0002463001C19A400074B80
:20E340001C190023E38005E0044A0C320123D9B28D42E9D830BDC046201B0020A81A002022
:20E3600010B5304BDB7ADB0754D52F4A13680A3313602E4A12882E4909688A4203D300219C
:20E380002A4A118002E00A3228490A80294A1278022A10D1284A1268934242D90023224AEA
:20E3A0001360264A1380234B00221A7000210220FFF7C6FC35E0012A33D1214A12689342D4
:20E3C00011D31E4A12881F4909688A420BD20021154B19600132194B1A800222154B1A709C
:20E3E000FFF78EFF1DE0184A1268934219D3154B1B68124A12889A4213D300220A4B1A6074
:20E4000002320C4B1A70FFF77BFF01210220FFF797FC06E00023054A1380084A1380024A8E
:20E42000136010BD04B00108402300209023002090B001088823002084B00108C82500202B
:20E440008CB0010894B0010888B00108F0B54F4680B482B0774B1B88774A126893423AD2C8
:20E46000764AD279D20736D50A33724A1380744B1B79002B13D1724B5B78002B0FD1704B69
:20E480005B79002B0BD16E4B9B78002B07D16C4B9B79002B03D16A4BDB78002B10D0694A42
:20E4A00013880A339BB21380674A1268934217D30022644B1A8001210120FFF741FC0FE0EA
:20E4C0000022604B1A806148FFF706FD00210120FFF736FC04E00023564A1380594A138059
:20E4E000FFF73EFF5A4B1B78012B00D09DE0544B1B78002B03D1574B1B78002B05D1564B30
:20E500001B780024002B75D18FE0544A013BDBB201335900C91889005118484E1000D37AAA
:20E520009B00F318DB78DB0760D5D3880A339FB2D78094884A4B1B6863439BB20193494D3A
:20E540002D68AB4203D2474B1B689BB208E0464D2D68A946019D4D4502D9434B1B689BB29A
:20E560009F4207D3C380837A0F27BB4301273B4383721CE0837A0F273B40012B52D10023B5
:20E580000381837ABB431F0002233B4383720EE003890A339BB20381344D2F686743BB42FE
:20E5A00024D300230381837A0F27BB438372837A0F273B40012B0CD1C37A033B5B00807A10
:20E5C00000090E3F87402A48185AB843284C18530CE0002B0AD1C37A033B5B00877A3F094F
:20E5E0000120B840224C1F5B384318530C328A4294D184E7114E184DE31C9B00F318DB789E
:20E60000DB0709D563001A4A995A4B425941C9B2E01CC0B2FFF794FB0134E4B22B78A34298
:20E62000EAD802E0022BD4D1B2E702B004BC9146F0BDC046242600209CB0010804B0010853
:20E64000882300201021002098B001085124002022260020201B0020211B0020A81A0020B7
:20E6600080B001087CB0010878B0010874B00108A01A0020F0B5474680B40023022A62D904
:20E68000D71E022F5FDC324B1E78002E1BD0314B1B68984254D02F4B98460C33751EEDB227
:20E6A00001356C00A4466544AD002C00444405E00C331D000C3D2D68854243D09C42F7D125
:20E6C0000023092E3FD8234B7400A519AD00E8505B199980DA72997A0F20814399727B00DF
:20E6E0001D495C5AE3070CD501210123012528008840204206D00133DBB20131102BF6D1AA
:20E7000000E000237800012199400C43124944527000801980000F4908181901837A0F24F8
:20E7200023400B4383720136094B1E700B4B197801238F4207DB023A084B1A70012302E03D
:20E74000012300E00123180004BC9046F0BDC046201B0020A81A0020A01A0020211B0020BD
:20E7600010B503F099F810BD00B585B010220021684609F01BFB064B009301236A4653710D
:20E78000044B02936946044805F032FB05B000BD7FA9030061E700080011014070B582B0E2
:20E7A00001266B46DE716B469D1D00249C71002002F092FC002002F095FC1E4B1C701E4BF5
:20E7C0001C701E4B1C70FFF7CFFF03221C4B1A701C4B1E7001321C4B1A701C4B1C701C4B6B
:20E7E0001C7067321B493020FEF7F6FF01221A490320FEF7F1FF012218490120FEF7ECFF43
:20E80000012217490220FEF7E7FF012229000420FEF7E2FF01280AD16B4606331B78012B85
:20E8200005D001226B46D91D0330FFF71FF802B070BDC046A7350020B03500209835002026
:20E840007D350020A8350020893500202B1B0020843500202C1B0020883500207C350020B7
:20E860008635002000B585B010220021684609F09DFA074B009301236A4653711373054BEF
:20E8800002936946044805F0B3FA05B000BDC0467FA9030061E700080011014000B585B017
:20E8A00010220021684609F081FA064B009301236A465371044B02936946044805F098FA01
:20E8C00005B000BD7FA9030061E7000800110140044B1878012802D100221A7000E0002072
:20E8E0007047C0462B1B002072B6BFF34F8F034A034BDA60BFF34F8FC046FDE70400FA05EB
:20E9000000ED00E070B506003E284DD102F04EFC040002F04FFC0578427812022A4383784B
:20E920001B0413431A00C3781B06134301220271002242717E321A700578427812022A4339
:20E9400083781B0413431A00C3781B0613430279467936021643721C92B20271120A42719C
:20E960002578617809022943A27812040A431100E27812060A4352787F210A409A55207822
:20E98000627812020243A3781B0413431A00E3781B0613435B787F2B02D8FFF763FF50E0E9
:20E9A0000022284B1A704CE002F0F8FB040002F0F9FB0578427812022A4383781B04134315
:20E9C0001A00C3781B061343012202710022427140361E700578427812022A4383781B042A
:20E9E00013431A00C3781B0613430279467936021643721C92B20271120A427125786178A0
:20EA000009022943A27812040A431100E27812060A4352787F210A409A5520786278120209
:20EA20000243A3781B0413431A00E3781B0613435B787F2B02D8FFF715FF02E00022014B64
:20EA40001A7070BD8535002070B506000D003E2842D102F0ABFB02F0ADFB047842781202F8
:20EA6000224383781B0413431A00C3781B06134301220271002242717F321A700478427819
:20EA80001202224383781B0413431A00C3781B06134302794179090211434A1C92B2027110
:20EAA000120A42713E225A54047842781202224383781B0413431A00C3781B061343027913
:20EAC0004179090211434A1C92B20271120A42715D54FFF7C7FE3EE002F064FB0478427820
:20EAE0001202224383781B0413431A00C3781B06134301220271002242717F321A7004783F
:20EB000042781202224383781B0413431A00C3781B06134302794179090211434A1C92B248
:20EB20000271120A42715E54047842781202224383781B0413431A00C3781B06134302797B
:20EB40004179090211434A1C92B20271120A42715D54FFF787FE70BDF8B502F01FFB04009A
:20EB600002F020FB0578427812022A4383781B0413431A00C3781B061343012202710022DC
:20EB8000427150321A700578427812022A4383781B0413431A00C3781B0613430279477987
:20EBA0003F0217437A1C92B20271120A42712678617809023143A27812040A431100E278C0
:20EBC00012060A4352787F210A40DA550578427812022A4383781B0413431A00C3781B064F
:20EBE000134302794179090211434A1C92B20271120A427100225A540578427812022A43B7
:20EC000083781B0413431A00C3781B06134302794179090211434A1C92B20271120A427138
:20EC200032225A540578427812022A4383781B0413431A00C3781B0613430279417909029E
:20EC400011434A1C92B20271120A427102225A540578427812022A4383781B0413431A0060
:20EC6000C3781B06134302794179090211434A1C92B20271120A4271BC225A542078627864
:20EC800012020243A3781B0413431A00E3781B0613435B787F2B02D8FFF7E4FD02E000226D
:20ECA000014B1A70F8BDC04685350020F8B505000E0017001C0002F071FA02F073FA0378BF
:20ECC000427812021A4383781B0413431A00C3781B061343012202710022427140351D7060
:20ECE0000578427812022A4383781B0413431A00C3781B06134302794179090211434A1C26
:20ED000092B20271120A4271320A5A540578427812022A4383781B0413431A00C3781B06E5
:20ED2000134302794179090211434A1C92B20271120A42715E541A235F43134BDF19FB7C9F
:20ED4000002B1DD02600013BDBB20133E3180578417809022943827812040A431100C27828
:20ED600012060A430179447924020C43611C89B20171090A41713178115501369E42E6D1B6
:20ED8000FFF770FDF8BDC046D8820108F8B5060002F004FA040002F005FA0578427812020F
:20EDA0002A4383781B0413431A00C3781B061343012202710022427140361E700578427804
:20EDC00012022A4383781B0413431A00C3781B061343027947793F0217437A1C92B2027153
:20EDE000120A42712678617809023143A27812040A431100E27812060A435278DA5505788B
:20EE0000427812022A4383781B0413431A00C3781B0613430279467936021643721C92B2DE
:20EE20000271120A42712578617809022943A27812040A431100E27812060A4392789A555D
:20EE4000FFF710FDF8BDC046F8B5050002F0A6F9060002F0A7F9047842781202224383786F
:20EE60001B0413431A00C3781B061343012202710022427140351D70047842781202224335
:20EE800083781B0413431A00C3781B061343027947793F0217437A1C92B20271120A427144
:20EEA0003578717809022943B27812040A431100F27812060A4352787F210A40DA559E4B0C
:20EEC0001B78012B58D1047842781202224383781B0413431A00C3781B061343027941792A
:20EEE000090211434A1C92B20271120A42712D225A54047842781202224383781B041343AB
:20EF00001A00C3781B06134302794179090211434A1C92B20271120A4271CF225A5404788A
:20EF200042781202224383781B0413431A00C3781B06134302794179090211434A1C92B224
:20EF40000271120A427146225A54047842781202224383781B0413431A00C3781B0613436E
:20EF600002794179090211434A1C92B20271120A427129225A54DCE0704B1B78012B0ED103
:20EF80003478727812022243B3781B0413431A00F3781B0613435B78012B66D10FE0032B73
:20EFA00063D13478727812022243B3781B0413431A00F3781B0613435B78032B55D10478CF
:20EFC00042781202224383781B0413431A00C3781B06134302794179090211434A1C92B284
:20EFE00000250271120A42715D54047842781202224383781B0413431A00C3781B0613430E
:20F0000002794179090211434A1C92B20271120A42715D54047842781202224383781B04F6
:20F0200013431A00C3781B06134302794179090211434A1C92B20271120A42715D54047801
:20F0400042781202224383781B0413431A00C3781B06134302794179090211434A1C92B203
:20F060000271120A42715D5463E0047842781202224383781B0413431A00C3781B0613436F
:20F0800002794179090211434A1C92B20271120A42712B4D1C2252422C6862405A54047846
:20F0A00042781202224383781B0413431A00C3781B06134302794179090211434A1C92B2A3
:20F0C0000271120A4271732252422C6862405A54047842781202224383781B0413431A00A8
:20F0E000C3781B06134302794179090211434A1C92B20271120A427119222C6862405A54BF
:20F10000047842781202224383781B0413431A00C3781B06134302794179090211434A1C0A
:20F1200092B20271120A42712A681E20404242405A54FFF797FBF8BD180000208935002074
:20F14000CC25002070B502F029F8050002F02AF829786B781B020B431A00AC7824042300D5
:20F160001343EC7824061C43057843781B022B431A00817809040B001343C1780906194364
:20F180008A781206CB781B04D2184B79D218097909025218D30912041A4352002A4B5340BB
:20F1A00058011B0BA2781106E27812048A186179521821790902521803439A4208D1092214
:20F1C000224B1A700023224A1370224A137039E0204B1B785A1C022A2BDD1D4A1278002A5B
:20F1E0000FD101331B4A13700B22184B1A700A3A174B1A70184A194B1A800422184B1A7056
:20F2000020E0164B1B88002B0CD10122104B1A70114A124B1A800B220C4B1A70073A104BDE
:20F220001A700FE00C22094B1A70083A0C4B1A7008E00133074A13700A22044B1A70063AF1
:20F24000074B1A7070BDC04682FD3E7D231B002084350020251B002060EAFFFF280000203E
:20F2600089350020F0B583B001F098FF040001F099FF6D4A6D4B1A80BB226B46DA71227946
:20F2800063791B021343022B07D00522684B1A7013211020FFF7D8FBC3E02578627812025C
:20F2A0002A43A3781B0413431A00E3781B0613435B787F221340022B19D0DAB2022A02D8F6
:20F2C000012B05D044E0032B28D0042B33D03FE00123574A1370574A13700422564B1A70D5
:20F2E0000022564B1A701020FFF736FC99E0504B1B78032B05D1013B4D4A13704D4A13704E
:20F3000033E0022B31D00722494B1A70063A494B1A7022211020FFF797FB82E00323444AF6
:20F320001370444A1370464B1A78444B1A701020FFF712FC75E004233D4A13703D4A137039
:20F340003F4B1A783D4B1A701020FFF705FC68E00622374B1A70053A364B1A70122110202F
:20F36000FFF772FB5DE0FFF7BFFA354B1A78334B1A700122334B1A700578427812022A4341
:20F3800083781B0413431A00C3781B06134301220271002242717F321A7005784278120240
:20F3A0002A4383781B0413431A00C3781B061343027947793F0217437A1C92B20271120A65
:20F3C00042712678617809023143A27812040A431100E27812060A431278DA550478427848
:20F3E0001202224383781B0413431A00C3781B06134302794179090211434A1C92B20271A7
:20F40000120A427178225A5402F046FA0E48FCF7D7FD01226B46D91D0320FEF727FA01285A
:20F42000A1D003B0F0BDC04610270000261B0020221B0020A835002089350020A63500202A
:20F4400087350020983500204C1D0000F8B501F0A5FE040001F0A6FE6F4B1B88002B09D03F
:20F460006E4A6D4B1A80227963791B021343022B13D00DE001236A4A13700421694A1170E7
:20F48000694A1370227963791B021343022B09D013211120FFF7D8FABCE0614B1B78023B01
:20F4A000012B04D97E211120FFF7CEFAB2E05D4B1B7802229343012B04D033211120FFF773
:20F4C000C3FAA7E02578627812022A43A3781B0413431A00E3781B0613435B787F221340AD
:20F4E000DAB2052A00D991E09B00504AD3589F464B4D01262E700778427812023A438378A0
:20F500001B0413431A00C3781B061343012202710022427151321A700778427812023A4368
:20F5200083781B0413431A00C3781B0613430179427912020A439446013292B20271120A19
:20F5400042712778617809023943A27812040A431100E27812060A4352787F210A40614651
:20F560005A54FFF77FF92D48FCF72AFD2E70FFF7BBF901222A4B1A704CE0294D01262E700F
:20F580000778427812023A4383781B0413431A00C3781B0613430122027100224271513277
:20F5A0001A700778427812023A4383781B0413431A00C3781B0613430179427912020A4325
:20F5C0009446013292B20271120A42712778617809023943A27812040A431100E278120699
:20F5E0000A4352787F210A4061465A54FFF73AF90A48FCF7E5FC2E70FFF776F90122084BED
:20F600001A7007E00122064B1A7003E012211120FFF71AFAF8BDC046261B002010270000D7
:20F62000221B002089350020A83500207882010870B501F0B3FD040001F0B4FD05002F4BA4
:20F640001B88002B09D02E4A2C4B1A80227963791B021343042B13D00DE00123294A137077
:20F660000421294A1170294A1370227963791B021343042B0FD013211420FFF7E5F93CE02B
:20F68000204B1B7802229343012B04D022211420FFF7DAF931E02078627812020243A3783B
:20F6A0001B0413431A00E3781B0613435A7811049A7812028A18DB78D218154B9A4218D1D8
:20F6C000FEF768FC0122134B1A7028786A7812020243AB781B0413431A00EB781B0613435F
:20F6E00001222A7100226A7154321A70FFF7BAF803E031211420FFF7A7F970BD261B00200A
:20F7000010270000221B002089350020A8350020FFFFFF002B1B0020F0B55F4656464D469E
:20F720004446F0B491B001F039FD050001F03AFD0400D24B1B88002B03D0D14ACF4B1A8075
:20F7400007E00123CF4A13700421CF4A1170CF4A13702A796B791B021343023B9BB2012BF7
:20F7600004D913211920FFF76FF965E228786A7812020243AB781B0413431A00EB781B0689
:20F78000134399785B78022B00D194E00A2B00D188E1012B00D04BE201226846FEF75AFA0B
:20F7A0002078627812020243A3781B0413431A00E3781B06134301222271002262715932CC
:20F7C0001A702078627812020243A3781B0413431A00E3781B061343227967793F02174342
:20F7E0007A1C92B22271120A62712E78697809023143AA7812040A431100EA7812060A434A
:20F800005278DA552078627812020243A3781B0413431A00E3781B06134322796179090228
:20F8200011434A1C92B22271120A6271984A12785A542078627812020243A3781B041343D3
:20F840001A00E3781B06134322796179090211434A1C92B22271120A627101225A54207853
:20F86000627812020243A3781B0413431A00E3781B06134322796179090211434A1C92B25B
:20F880002271120A6271834A12785A5428786A7812020243AB781B0413431A00EB781B06D0
:20F8A00013435B787F2B02D8FEF7DCFFC4E10022794B1A70C0E1022209A8FEF7CBF92078EF
:20F8C000627812020243A3781B0413431A00E3781B061343012222710022627159321A70B9
:20F8E0002078627812020243A3781B0413431A00E3781B061343227967793F0217437A1C15
:20F9000092B22271120A62712E78697809023143AA7812040A431100EA7812060A435278F4
