:020000040000FA
:1000000028090020D9010000E1010000BD280000FE
:1000100000000000000000000000000000000000E0
:100020000000000000000000000000007729000030
:10003000000000000000000075290000AD2900004C
:10004000000000007929000000000000000000000E
:10005000BF280000EB010000EB010000EB010000F5
:10006000EB010000EB010000EB010000EB010000E0
:100070000000000000000000000000000000000080
:10008000EB010000EB010000EB010000EB010000C0
:10009000EB010000EB010000EB010000EB010000B0
:1000A00000000000EB010000BD0500001D05000080
:1000B000750500009D050000152A00003D2A00007E
:1000C00000F002F800F040F80CA030C808382418FE
:1000D0002D18A246671EAB4654465D46AC4201D180
:1000E00000F032F87E460F3E0FCCB6460126334272
:1000F00000D0FB1AA246AB46334318473038000005
:1001000050380000103A02D378C878C1FAD85207A4
:1001100001D330C830C101D504680C6070470000BD
:100120000023002400250026103A01D378C1FBD813
:10013000520700D330C100D50B6070471FB500F0E7
:100140007DF81FBD10B510BD00F069F91146FFF72D
:10015000F5FF03F017FA00F081F903B4FFF7F2FF9F
:1001600003BC00F085F9000030B40C490C684A6803
:1001700023681068C0181060241D121D8C4207D21D
:100180008A4208D20C604A6030BC40004008704788
:100190000C00DC3CF6E70A00DC3AF3E7BC04002084
:1001A00070B505460C46164602E00FCC0FC5103E52
:1001B000102EFAD2082E02D303CC03C5083E042E1B
:1001C00007D301CC01C5361F03E021782970641CD8
:1001D0006D1C761EF9D270BD07488047074800475E
:1001E000FEE7FEE7FEE7FEE7FEE7FEE70448054917
:1001F000054A064B70470000112A0000C1000000AC
:1002000028050020280900202807002028070020B2
:100210000B4A30B511460B4C60310B46DC3B0CC130
:10022000372106E0020C8D0012185A51064A50433D
:1002300000190A46491E002AF4DC30BD0120E7E718
:100240005C040020E119D666CD0D010001E004C078
:10025000091F0429FBD28B0701D50280801CC90726
:1002600000D00270704700290BD0C30702D0027083
:10027000401C491E022904D3830702D50280801C3A
:10028000891EE3E70022EEE70022DFE70378C27869
:100290001946437812061B0219438378C0781B0461
:1002A000194311430902090A000608437047020A6C
:1002B00008704A70020C8A70020ECA7070470022E1
:1002C00003098B422CD3030A8B4211D300239C4693
:1002D0004EE003460B433CD4002243088B4231D30B
:1002E00003098B421CD3030A8B4201D394463FE09F
:1002F000C3098B4201D3CB01C01A524183098B42FF
:1003000001D38B01C01A524143098B4201D34B01E7
:10031000C01A524103098B4201D30B01C01A52414A
:10032000C3088B4201D3CB00C01A524183088B42D1
:1003300001D38B00C01A524143088B4201D34B00BA
:10034000C01A5241411A00D201465241104670472C
:100350005DE0CA0F00D04942031000D34042534031
:1003600000229C4603098B422DD3030A8B4212D3F1
:10037000FC22890112BA030A8B420CD38901921123
:100380008B4208D3890192118B4204D389013AD060
:10039000921100E08909C3098B4201D3CB01C01A35
:1003A000524183098B4201D38B01C01A5241430948
:1003B0008B4201D34B01C01A524103098B4201D336
:1003C0000B01C01A5241C3088B4201D3CB00C01AA3
:1003D000524183088B4201D38B00C01A5241D9D2BB
:1003E00043088B4201D34B00C01A5241411A00D23C
:1003F0000146634652415B10104601D34042002B38
:1004000000D54942704763465B1000D3404201B5B6
:100410000020C046C04602BD704770477047754611
:1004200000F022F8AE46050069465346C008C000F9
:10043000854618B020B5FFF7D9FE60BC00274908F3
:10044000B6460026C0C5C0C5C0C5C0C5C0C5C0C56C
:10045000C0C5C0C5403D49008D4670470446C046F2
:10046000C0462046FFF779FE00487047C4040020CC
:1004700001491820ABBEFEE72600020070470000CD
:1004800070B505201F49000303F004F81D4C1E49F8
:10049000241F6068012640181C49B6071C4D88427D
:1004A0001AD20021304602F01FF9AA2814D10021E7
:1004B000284602F019F9BB280ED072B6114915482A
:1004C000091F02F0E7FF606880F3088880F309885D
:1004D0002068A060804770BD0021284602F004F922
:1004E000BB2804D00021304602F0FEF870BD0A4956
:1004F0000420087000F088FC0022FF21284602F04A
:100500005AF970BD04000020FFFFFFDFFF0F00005D
:1005100040000040045000001500002010B502F01B
:100520005BFD044602F06CFD200602D5802002F03F
:1005300049FD600604D502F05DFD402002F042FD59
:10054000A00602D5202002F03DFD200702D508209C
:1005500002F038FD600709D502F0A4FDC00902D001
:10056000034901200870042002F02CFD10BD00009A
:10057000A800002010B502F02FFD054802F04AFD4A
:1005800004490120087004490020087010BD0000D3
:10059000CC0000200C000020A900002010B502F0C3
:1005A0001BFD022002F00EFD03480178002901D056
:1005B0000021017010BD0000A900002010B502F05C
:1005C0000BFD102002F0FEFC10BDF8B50646407A87
:1005D0000024082811D0082730460E30009007E08C
:1005E0000098FFF753FE411955206054641CE4B293
:1005F000757A781BA042F3DC7772F8BD004870472B
:100600009201002000487047AE010020004870476A
:100610008401002000487047A001002070B52549E2
:1006200000200A46883204460C541454401C80B200
:100630008828F9D3204900200A4608320C54145463
:10064000401C80B20828F9D31A4D1A482A3D291DAA
:10065000FFF72DFE2C72200A6872AC72200AE87235
:100660000E3D2846291DC030FFF721FE2C72200ABE
:100670006872AC72200AE8722A35291D0E48FFF70D
:1006800016FE2C72200A6872AC72200AE8720A48C0
:100690000E3D291D0830FFF70AFE2C72200A6872F1
:1006A000AC72200AE8720448103884600121C460EA
:1006B000C17070BDBC01002024000020FEB50921DE
:1006C0000091264E04682648F4600190FFF7DEFD95
:1006D0000078A17A0507E07A2D0F00020843072170
:1006E000FFF7EDFD401C0007000FA84233D10125A4
:1006F00013E00198FFF7CAFD475D201DFFF7C6FD17
:100700008755E07AA17A00020843401CA072000AD3
:100710006D1CEDB2E072082D0ED211480E38407AF1
:10072000A84209D9E07AA17A06020E43607A217ABA
:10073000000208438642DCD3E17AA27A090211431F
:10074000627A237A120205481A43914203D30121A7
:100750000091C17001710098FEBD000014000020DE
:1007600080010020F8B5054612480746FFF78EFDC8
:10077000017840780907090D081829680872000AED
:1007800048720D4928680224C8603846FFF77EFD8C
:10079000065D2868001DFFF779FDA11E641CE4B208
:1007A0004654082CF1D32968062088720020C872AC
:1007B000F8BD00008001002014000020FEB529488B
:1007C00000901C300190284801780125274C2848CA
:1007D0000290012903D02748007801280AD1029805
:1007E000FFF754FD0078000904D1A57001A800F0BE
:1007F00047F86571204E3078204F012802D03878B4
:10080000012810D10298FFF741FD027811090BD0A1
:1008100001291AD0022920D0032904D102206070B6
:10082000002030703870FEBD1107FCD040783E28A3
:1008300005D06570684600F023F82571FEBDA570EF
:1008400001A800F01DF86571FEBD032060706846C8
:10085000FFF788FF0020E070E3E765706846FFF768
:100860002DFFFEBD9201002010000020140000208A
:1008700080010020110000200E0000200F00002049
:10088000F8B506460E4800240090FFF7FFFC0078FC
:1008900031680007000F0872000A487207E0651C03
:1008A000475D3068001DFFF7F1FC0755ECB200987A
:1008B000FFF7ECFC01780907090FA142EFD8F8BD5A
:1008C0008001002001494871704700001400002099
:1008D00001490871704700001400002010B50B4C4E
:1008E0000948A178012907D1417A027A0902114306
:1008F000072901D800F03EF900200549A0700870D2
:100900000449087010BD0000A00100201400002060
:100910001000002011000020F8B527480025846849
:100920002F46002C45D0E07AA17A00020843072127
:10093000FFF7C5FC401C0607360F20482036009004
:10094000FFF7A4FC067013E0201DFFF79FFC865DF7
:100950000098FFF79BFC6D1C4655E07AA17A0002D7
:100960000843401CA072000AEDB2E072072D09D2C4
:10097000E07AA17A06020E43607A217A00020843E7
:100980008642E1D30D486D1C0E38457200F022F905
:10099000E07AA17A00020843617A227A09021143BF
:1009A000884207D3044900208860A072E072207258
:1009B000607201273846F8BD140000206E01002047
:1009C000F8B50546154800240746FFF75FFC1021DF
:1009D00001703846FFF75AFC0146687A2A7A00020D
:1009E00010434870281DFFF751FC065D3846FFF79D
:1009F0004DFCA11C641CE4B24654062CF2D3062024
:100A0000A87200200549E87208200E39487208468D
:100A100000F0E0F802488560F8BD00006E0100209B
:100A200014000020F8B50A251B48FFF72FFC0278B8
:100A30001A4913090978012B07D112074078120FC0
:100A400010183A2801D9322402E0002922D030249B
:100A50000826134837460090FFF718FC04700098EA
:100A6000FFF714FC47700098FFF710FC85700C4DE1
:100A700003200E3D68720020687329460948FFF77D
:100A800016FC2846FFF7A1FD6E72284600F01EF9FD
:100A90002046F8BD3124DBE7800100200D00002056
:100AA0006E010020A9070000F8B52F4D2D482A78C7
:100AB00029462E4E2E4F00244978012A0FD1EA886C
:100AC0000A3292B2EA80962A09D9022919D0AC607A
:100AD0008472220AC2720472220A42722C700129A4
:100AE0000FD003290DD002290BD0042906D0427A59
:100AF000037A12021A432DD005292BD100F03AF8BF
:100B00001EE0427A037A12021A43531E062B01D8C2
:100B1000012902D0032911D002E0EB78012BEDD09E
:100B2000072A04D9C27A837A12021A430AD0022908
:100B300010D1FFF7F1FE01280DD00FE0FFF772FF93
:100B40006C700BE0FFF73CFF6C7034703C70EC8015
:100B500001202870F8BD6C70EC802C7034703C70F3
:100B6000F8BD000084010020140000200E000020C9
:100B70000F000020F8B50546154800240746FFF78A
:100B800085FB0146687A2A7A00021043087009E062
:100B9000281DFFF77BFB065D3846FFF777FB641CDB
:100BA0000655E4B2687A297A00020843A042EFD2DF
:100BB000687AC9B2000208430549401C0E394872E0
:100BC000002028726872084600F016F8F8BD000090
:100BD0006E01002010B5044601460648FFF767FB8A
:100BE000002060732046FFF7F0FC204600F06EF80E
:100BF00010BD0000A907000010B508490848FFF71C
:100C000056FB064C00206073E0722046FFF7DDFCC7
:100C100008206072204600F059F810BD60010020E5
:100C2000A9070000F8B5264D2878012847D1254EA0
:100C30003146B07AA63148723068FFF738FB00249D
:100C40003746B43707E03846FFF720FB3119C97A39
:100C50000155641CE4B2B07AA042F4D81948A63019
:100C6000FFF714FB18490126002488420DD13846AD
:100C7000FFF70CFB0178022902D140783E2802D010
:100C8000AE70EC7018E02E7115E00F49B631884255
:100C90000ED13846FFF7FAFA0178022902D14078DE
:100CA0003E2802D0AC70EE7006E02C716E7103E04D
:100CB000AC70EC702C716C712C70FFF77FFDF8BD7F
:100CC0000C000020CC00002029070000F0B585B002
:100CD000002569460D7207464D72407A8872384683
:100CE000FFF7D4FA00246E460E37009007E038462E
:100CF000FFF7CCFA005D3119641CC872E4B2684693
:100D0000807AA042F3D8084C6078012807D165703A
:100D1000684602F0CDF902F017FA02F021FA01203C
:100D2000607005B0F0BD00000C0000200A4910B54D
:100D300008468E38FFF7BBFA07491231084660387B
:100D4000FFF7B5FA054800218170C170017141714A
:100D500001700121417010BD6E0100200C000020C7
:100D6000F7B590B00D46144638216846FFF78CFA67
:100D7000002023E0014638310E91A94201D92E1AF4
:100D800000E03826109938220818694601F03EFD27
:100D90006B4600210C4F0EE0585C44400820E207EF
:100DA00001D00022D24364083A40401E544000065D
:100DB000000EF4D1491CB142EED30E98A842D9D30B
:100DC000204613B0F0BD00002083B8ED10B50B48ED
:100DD0000078012811D1FFF715FC001DFFF756FA26
:100DE00000783E2801D101F0CFF80020FFF76AFD1E
:100DF0000349002008700349087010BD1900002045
:100E00001000002011000020F8B5FFF7F7FB8B4C15
:100E10000025A179C91DA171A278032A04D3218AD2
:100E2000002906D00A39218285490978012904D090
:100E300008E0521EA2706570F6E7618A002908D0AA
:100E40000A3961827F49012609787F4F012905D03F
:100E50005BE004212170E5706570F3E73A787B4927
:100E6000012A02D10A78002A04D0794A1278012A8C
:100E700048D04AE02672001DFFF708FA00782E28B5
:100E800028D00CDC222822D004DC102819D011280C
:100E900011D119E0272820D028280CD120E03628AD
:100EA00027D004DC31281ED0342804D11EE0372896
:100EB00022D0852823D0112100F0F8F803202072D9
:100EC0005BE000F04DFAF9E700F0AEFAF6E700F06B
:100ED0000BFBF3E700F082FCF0E700F08DFBEDE7A1
:100EE00000F00CFCEAE700F03FFDE7E700F08EFEC3
:100EF000E4E700F02DFFE1E700F0F6FFDEE701F0A8
:100F00008FF8DBE70978002906D00021514801F06D
:100F1000EBFBBB2828D02BE02672001DFFF7B6F9AB
:100F2000007822280DD004DC102807D0112813D116
:100F30000AE028280BD085280ED10BE000F010FA2B
:100F40000AE000F0D1FA07E000F06EFA04E000F0E9
:100F5000D5FB01E001F064F8032020720020FFF7C8
:100F6000B7FC3B480570F8BD3B480078042809D021
:100F7000E0790128F7D100F0F7FC0020FFF7A8FC8A
:100F80003D70F8BD0520207034486082FFF73EFBBD
:100F90000446001DFFF77AF92672310A617250216A
:100FA0000170201DFFF772F90146607A227A000273
:100FB0001043421C2272120A627202220A54201D3D
:100FC000FFF764F90146607A227A00021043421C5E
:100FD0002272120A62720D54201DFFF757F9014662
:100FE000607A227A00021043421C2272120A627254
:100FF00032220A54201DFFF749F90146607A227A0D
:1010000000021043421C2272120A62720E54201D0A
:10101000FFF73CF90146607A227A00021043421C35
:101020002272120A6272F4220A54FFF73DFD002078
:10103000FFF74EFC3D7002480670F8BD78000020B6
:1010400034000020180000200E00002014000020B2
:101050000F00002040000040150000208813000011
:1010600070B50546FFF7CAFA0646FFF7CFFA044601
:10107000001DFFF70BF9014601202072002060726D
:1010800040350D70301DFFF701F94578201DFFF741
:10109000FDF80246607A217A00020843411C217261
:1010A000090A61721554FFF7FFFC70BDF8B50127FE
:1010B0000E4605463E2827D0FFF7A8FA0446001D35
:1010C000FFF7E4F82772390A61727F210170201D51
:1010D000FFF7DCF80246607A237A01021943481CC4
:1010E0002072000A60725554201DFFF7CFF80246A7
:1010F000607A237A01021943481C2072000A607248
:101100005654FFF7D1FCF8BDFFF784FA0446001DE2
:10111000FFF7BCF82772390A61727F210170201D28
:10112000FFF7B4F80246607A237A01021943481C9B
:101130002072000A60725554201DFFF7A7F802467E
:10114000607A217A00020843411C2172090A617207
:101150001654FFF7C3FBF8BDF8B5012506463E2837
:1011600029D0FFF74BFA0746FFF750FA0446381D1F
:10117000FFF78CF84078C0091CD1201DFFF786F8D6
:101180002572290A617240360670381DFFF77EF815
:10119000407845066D0E201DFFF778F80246607A0C
:1011A000217A00020843411C2172090A6172155418
:1011B000FFF77AFCF8BDFFF725FA0646FFF72AFA93
:1011C0000446001DFFF762F82572290A61727E212C
:1011D0000170301DFFF75AF8407845066D0E201D4E
:1011E000FFF754F80246607A217A00020843411C56
:1011F0002172090A61721554301DFFF747F84078D3
:10120000C009D7D1FFF76AFBF8BD000010B5002078
:10121000FFF75EFB0020FFF755FB05480021C17179
:101220000321017240220349034801F0EAFA10BD8C
:10123000780000208C030020C000004070B50546F7
:10124000FFF7E4F90446001DFFF720F80126267297
:10125000002161727F210170201DFFF717F80246FF
:10126000607A217A00020843411C2172090A6172E6
:101270001554201DFFF70AF80246607A217A000211
:101280000843411C2172090A6172782111547D20A2
:10129000C00001F01AFBFFF707FC2E2D01D0312D05
:1012A00001D10148067070BD1500002070B5FFF730
:1012B000A5F922490A7A012A3ED1214A1278012A47
:1012C0003AD1497B062937D00A2935D0001DFEF7CF
:1012D000DDFF007831282FD1FFF790F90546FFF7A1
:1012E00095F90446001DFEF7D1FF0121217200216E
:1012F00061727F210170281DFEF7C8FF0578201D4F
:10130000FEF7C4FF0246607A217A00020843411CBE
:101310002172090A61721554201DFEF7B7FF0246BB
:10132000607A217A00020843411C2172090A617225
:1013300078211154FFF7B8FB70BD00007800002041
:101340001800002072B6BFF34F8F04490248C860EE
:10135000BFF34F8F00BFFDE70400FA0500ED00E08A
:1013600070B50424FFF74AF90646FFF74FF9717A82
:10137000327A08021043284D022801D001240CE0E3
:10138000301DFEF783FF40784006400E012804D050
:1013900002280ED0032813D0022420482049214AD5
:1013A0000026230001F052FB08291113151A1C1CFA
:1013B00023292878042801D00524EEE70324ECE74C
:1013C00028780528FAD00624E7E7132102E0122145
:1013D00000E022211020FFF769FE70BD067002E0D8
:1013E000097801706A82102000F064FE0BE0097831
:1013F0000170102000F05EFE70BD042C03D0052C9F
:1014000001D0062CF8D12C70EE706878062801D037
:101410000728F1D16E7070BD7800002034000020E4
:101420001800002088130000F8B5FFF7E7F805461C
:10143000FFF7ECF8294E0446708A042700210028A3
:1014400002D02748708207E03770F1707078062864
:1014500001D0072800D17170687A297A0002084308
:10146000022802D0132111200DE0281DFEF70EFFE7
:1014700040784006400E01280AD0022806D00328F2
:1014800006D012211020FFF711FEF8BD3770F8BD0D
:101490003770201DFEF7FAFE014601202072002061
:1014A000607251200870281DFEF7F0FE4078450656
:1014B0006D0E201DFEF7EAFE0246607A217A0002D8
:1014C0000843411C2172090A61721554FFF7ECFAB6
:1014D000044801F0FAF93770FFF734FF7800002074
:1014E000881300001027000070B50124FFF786F86C
:1014F0000546FFF78BF83A48418A002902D039495E
:10150000418209E0042101700022C270417806295D
:1015100001D0072900D14270697A2A7A0902114361
:10152000032901D0022424E00178042903D00629EC
:1015300001D003241DE0281DFEF7A8FE4178807825
:1015400009020818284A80B2811A904236D009DC74
:101550002649401837D02C2818D02F2819D03128E8
:1015600006D127E003291DD005291FD0072915D052
:101570000424022C2ED0032C2ED0042C2ED0052C8B
:1015800003D133212220FFF791FD70BD0C221849B1
:1015900002E017490A220C31222018E014490A22DD
:1015A0001631F9E712490222091FF5E71049022214
:1015B000891EF1E70E220F49222008E00D49112271
:1015C0000E31222003E00B490A222831222000F0AC
:1015D000D4FDCEE71321D5E72221D3E73121D1E78E
:1015E000780000208813000090F10000A50EFFFF96
:1015F000D83800008C03002070B5FEF7FFFF0646C8
:10160000FFF704F83B4C0025608A002802D03A48D6
:10161000608208E004202070E5706078062801D020
:10162000072800D16570707A317A000208430228D9
:1016300003D0062801D00F2015E02078052803D01C
:10164000062801D00D200EE0301DFEF71FFE407869
:101650004006400E012812D0022818D0092820D0B8
:101660000A2825D00E20030001F0F0F9102A2B2BB8
:101670002A2A2A26263734393B303D323F2A6078E1
:10168000092802D00120E070EDE70A20EBE7E178BD
:10169000012901D00B2002E0272000F073FEE57045
:1016A000E1E760780928F0D00920E0700220DAE74D
:1016B000E1780929F0D0EDE760702720FFF74CFDB5
:1016C00070BDE178272000F0A7FD70BD7F210DE0FF
:1016D00012210BE06070362108E0352106E0372149
:1016E00004E0242102E0222100E013212720FFF75B
:1016F000DDFC70BD780000208813000070B5FEF797
:101700007DFF0546FEF782FF324C01206072618A40
:101710000420002902D03049618208E020700022B4
:10172000E2706178062901D0072900D16270697AD8
:101730002A7A09021143032901D0032019E02178F4
:10174000062916D1281DFEF7A1FD4178022249067F
:10175000490E002907D0012918D002291DD00329DC
:1017600022D0052005E08078012801D0032802D18D
:101770000620607200E06272607A801E030001F051
:1017800065F908201A1C1E252525252480780128A6
:1017900001D00328EFD10720EBE78078012801D0A2
:1017A0000328E8D10820E4E78078012801D0032845
:1017B000E1D10920DDE7132104E07F2102E01221BD
:1017C00000E031212820FFF771FC70BD2820FFF7D1
:1017D000C3FC70BD7800002088130000F8B5012418
:1017E000FEF70CFF0546FEF711FF5A4F788A0028D6
:1017F00002D05948788209E0042038700021F9703D
:101800007878062801D0072800D17970687A297A7B
:1018100006020E43032E3ED93878052803D0062849
:1018200001D003241AE0281DFEF730FD41788078AE
:101830000902081881B249480246C03200928C2938
:1018400061D005DC4648002910D0012905D119E0F6
:10185000444A891843D036291BD00424230001F0C0
:10186000F5F8077475686A6C6E7074000022BB210D
:101870000AE02E2000F012FEF0E722212E20FFF7D2
:1018800015FCEBE70022AA2100F095FF0128F4D116
:10189000EFE7142E01D00224E0E77978062903D07F
:1018A000072901D00524D9E700260746281DFEF7A1
:1018B000EDFCF11C415CB819C030761CF6B28173A6
:1018C000112EF3D32E20FFF7B9FC2548402280309B
:1018D000009900F0A0FF0028C0D10624BEE70C2E1E
:1018E000D9D179780729DDD100260746281DFEF7D2
:1018F000CDFCF11C415CB819C030761CF6B2C17742
:10190000092EF3D3DEE7112EC5D17978062901D04F
:101910000729C7D100260746281DFEF7B7FCF11C92
:10192000415CB819C030761CF6B201700E2EF3D3AC
:10193000C8E7132106E0222104E0312102E033212F
:1019400000E072212E20FFF7B1FBF8BD2E2000F041
:10195000A5FDF8BD7800002088130000CC0200200F
:1019600040000040A60EFFFFFEB5A14D0220A87268
:1019700000200090FEF742FE0746FEF747FE688A09
:101980000024002802D09B48688203E004202870CD
:10199000EC706C70381DFEF779FC84468178C07855
:1019A0000902081881B2787A3A7A030213430822AE
:1019B000042B01D2AA72F2E02878052803D08E48C1
:1019C000007801281CD0E879012601281AD0604649
:1019D00040784006400E01283AD002287ED00328E5
:1019E000FCD012213120FFF761FBA87A030001F03F
:1019F0002DF80CECE4ECECECECF2ECF8F6F4FAEC90
:101A00000620CBE0E86A00281AD00921A86A490319
:101A1000884202D13120FFF711FC012636033146FE
:101A2000A86A00F034FE012806D00A20A872734884
:101A3000EC7105210170D8E7704905200870B0E00D
:101A4000EC716E49AE720520087000F029FFCCE7FA
:101A5000C81FFF38FC380AD0401E08D0FF20000203
:101A6000814204D0401C814201D0092096E0FF3918
:101A7000FF39091F07D0012948D06148081849D00B
:101A80000128B2D142E0082B01D0AA72ADE76878F4
:101A900007283DD13120FFF7D1FB0022D243E9696D
:101AA000A869FFF75DF9C043019001200090381D3F
:101AB000FEF7ECFB0279C179120689184279807928
:101AC0001204000210180918019881421ED1AA219F
:101AD0000022480700F06FFE012800E06AE015D1FF
:101AE0004848484B04720020E03B1918DF22525C42
:101AF000E031401CC0B24A720928F6D34149402265
:101B00002039414800F087FE00200090AE7246E088
:101B10000B204DE0EE7160460779017A40790006AE
:101B200009186046807903046046C07900021818DD
:101B30000E186046AE62017B407A000609186046C6
:101B4000807A03046046C07A00021818081813212E
:101B50000903E862884288D8052109038E4284D1AE
:101B6000000582D1442F00D024E768780728CFD120
:101B70002249052008703120FFF760FB0022FF2179
:101B8000B00400F018FE00F08FFE01263603314647
:101B9000A86A00F07CFD012803D00A20A872EC712D
:101BA00023E7A86A8019A862E86A801BE86203201C
:101BB000A8721AE7EC71AE7217E7E879002804D131
:101BC00003213120009A00F0A0FCFEBD0BE004E0F0
:101BD00005E006E0FFE77F2106E0722104E0312105
:101BE00002E0132100E033213120FFF75FFAECE738
:101BF00078000020881300000E000020150000204F
:101C00000203FFFFAC030020C0000040F8B5002431
:101C1000FEF7F4FC0646FEF7F9FC4B4D688A0028F7
:101C200002D04A48688209E0042028700021E97047
:101C30006878062801D0072800D169700120E87271
:101C4000707A317A00020843042801D2022035E07C
:101C50006878072801D0062030E02878052801D0D0
:101C600007202BE0301DFEF711FB41784906490E95
:101C700025D181780A07120F0B09042A1AD1042BE7
:101C800018D1A969E61C0902A961865D641C711856
:101C9000E4B2A9619442F4D30021D61C08E0EC69B7
:101CA00047182402EC61BF5D3C19491CC9B2EC61C4
:101CB0009942F4D3A87A01280BD00820E872E87A78
:101CC000801E030000F0C2FE0817231B23191D1FEE
:101CD00024230521A8690903884208D31321E86950
:101CE0000903884203D8042A01D1042B01D004201F
:101CF000E4E70920E2E7132106E0332104E0312183
:101D000002E07F2100E070213420FFF7CFF9F8BD19
:101D1000342000F054FC3821E869FEF7D0FA00299D
:101D200004D0401CA8820120687102E0A882002132
:101D30006971A869696228620120E88228710A2015
:101D4000E87200F0B1FDF8BD7800002088130000B3
:101D5000F8B5FEF753FC0646FEF758FC6048408A8B
:101D6000002803D05E485F4941820AE05C490420B4
:101D700008700022CA704878062801D0072800D1D0
:101D80004A70707A317A07020F430124022F02D27F
:101D90005348447370E0524A02215078072807D113
:101DA000D07A012804D01178052903D007200EE04D
:101DB000517361E00A285FD1D58A908A854201D9A2
:101DC000547305E085422CD23A2F04D90320507376
:101DD000D482147150E038211546106A00F094FC4A
:101DE000012801D008200DE0286A38302862E88AEE
:101DF000401CE882301DFEF749FA4178287981427B
:101E000004D009206873EC822C7135E00A216973D3
:101E1000FF2804D0401CC0B2287128712CE000209B
:101E2000FBE72F484079002813D0301DFEF72EFA2B
:101E30002B4E40783179884213D138206D1E4543AE
:101E4000AD1EF1697819884229D1716A2AE0707350
:101E500010E0301DFEF71AFA214E407831798842A1
:101E600001D00920F3E7382029464143F069814237
:101E70000ED97473F48234711948407B030000F06A
:101E8000E5FD0B2A1A1C202A262B1E22242B2A00B1
:101E900038216D1E4D43AD1E7919814201D00520B8
:101EA000D5E73821306A00F02FFC012801D0082046
:101EB000CDE70620CBE713210AE0242108E07F21AB
:101EC00006E0312104E0722102E0732100E071217B
:101ED0003620FFF7EBF8F8BD3620FFF7C1F8F8BD64
:101EE000780000208813000010B5FEF787FB044639
:101EF000FEF78CFB22490423488A002802D021489F
:101F0000488208E00B700020C8704A78062A01D089
:101F1000072A00D14870607A227A00021043012813
:101F200001D9012003E00878052802D003200873B6
:101F30000BE048780222072801D04A7305E0C87AEE
:101F400001280CD009280AD00B73087B012808D07F
:101F500002280DD0032806D004280ED10AE00A7307
:101F6000F3E7132100E07F213720FFF79FF804E01B
:101F70002421F9E7372000F079FB00F091FC10BD37
:101F8000780000208813000070B5FEF73BFB044684
:101F9000FEF740FB204D0420698A002902D01F492A
:101FA000698208E028700022EA706978062901D069
:101FB000072900D16A700121A973617A227A090286
:101FC0001143022901D002200FE0297804290CD006
:101FD000201DFEF75BF94078002803D0802801D04F
:101FE000032002E0002801D10520A873A87B03008C
:101FF00000F02CFD060C0C0806040D0C7F2102E0FD
:10200000122100E013213E20FFF750F870BD3E2062
:10201000FFF7A2F870BD00007800002088130000D0
:1020200070B50124FEF7EAFA0546FEF7EFFA1F4AFB
:10203000508A002802D01E48508209E00420107007
:102040000020D0705178062901D0072900D15070A6
:10205000687A297A00020843022801D002240FE09E
:102060001078062801D003240AE0281DFEF70EF997
:1020700040784006400E012802D0022800D00424F7
:10208000012C0ED0022C08D0032C08D0042C03D134
:1020900012218520FFF70AF870BD1321F9E72221EC
:1020A000F7E78520FFF758F870BD000078000020A2
:1020B00088130000F8B5FEF7A1FA0546FEF7A6FA68
:1020C0000446281DFEF7E2F84078C00954D10027E5
:1020D000201DFEF7DBF801262672002161725021D7
:1020E0000170281DFEF7D2F8407845066D0E201DC0
:1020F000FEF7CCF80246607A217A00020843411CC0
:102100002172090A61721554201DFEF7BFF80246BC
:10211000607A217A00020843411C2172090A617227
:102120001754201DFEF7B2F80246607A217A0002A9
:102130000843411C2172090A617232211154201D89
:10214000FEF7A4F80246607A217A00020843411C97
:102150002172090A61721654201DFEF797F8024693
:10216000607A217A00020843411C2172090A6172D7
:10217000F4211154FEF798FCF8BDF8B515460E464B
:102180000746FEF73BFA0090FEF740FA0446001DB2
:10219000FEF77CF801460120207200206072403773
:1021A0000F700098001DFEF771F84778201DFEF7AC
:1021B0006DF80146607A237A02021A43501C20729D
:1021C000000A60728F540098001DFEF75FF8877850
:1021D000201DFEF75BF80146607A237A02021A435B
:1021E000501C2072000A60728F5410E0201DFEF710
:1021F0004DF80246607A217A00020843411C2172A0
:10220000090A617231786D1E1154EDB2761C002DF1
:10221000ECD1FEF749FCF8BDF3B583B00E46FEF7EE
:10222000EDF90190FEF7F2F9044600256F46FDF73F
:102230009BFF78556D1CEDB2042DF8D30027201DAF
:10224000FEF724F8014601202072002060720398F6
:10225000403008700198001DFEF718F840784506D8
:102260006D0E201DFEF712F80246607A217A0002F8
:102270000843411C2172090A61721554404D687867
:10228000062802D0072803D004E0012E42D001E046
:10229000092E3FD06F70201DFDF7F8FF0246607ACF
:1022A000217A00020843411C2172090A61726946C1
:1022B00009781154201DFDF7E9FF0246607A217A62
:1022C00000020843411C2172090A6172694649787B
:1022D0001154201DFDF7DAFF0246607A217A0002D0
:1022E0000843411C2172090A6172A9791154201D09
:1022F000FDF7CCFF0246607A217A00020843411CB8
:102300002172090A61726946C9781154FEF7CCFB43
:1023100005B0F0BD201DFDF7B9FF0246607A217AB5
:1023200000020843411C2172090A61721754201DE2
:10233000FDF7ACFF0246607A217A00020843411C97
:102340002172090A61721754201DFDF79FFF024692
:10235000607A217A00020843411C2172090A6172E5
:102360001754201DFDF792FF0246607A217A000281
:102370000843411C2172090A61721754C6E7000024
:1023800078000020F0B587B00D46FEF737F9074614
:10239000FEF73CF906460024381DFDF777FF8178EB
:1023A0006F4639730491C178797302910179B973D9
:1023B00000914079F8730690301DFDF767FF827831
:1023C000E4214A403A73C6782F214E407E7301794A
:1023D00045235940B973437992204340FB73012D43
:1023E00002D0092D18D02CE000201F0900013F0168
:1023F00038436F4638712F2003409800B3079B0F76
:10240000184378719309B0089B011843B871100103
:102410000907090F084313E0080137073F0F384346
:102420006F4638711F0710013F0F38436F467871B0
:1024300090088008800009090843B87133431809DF
:10244000F87139790498884214D1797902988842D0
:1024500010D1B979009888420CD1F9790698884250
:1024600008D1012D02D0092D02D00FE006240DE085
:1024700007240BE007498878401CC0B28870032805
:1024800003D305480924088200E00824204607B049
:10249000F0BD0000780000201027000070B506464F
:1024A000FEF7ACF80546FEF7B1F80446001DFDF74F
:1024B000EDFE0146012020720020607240360E7051
:1024C000281DFDF7E3FE4678201DFDF7DFFE0246DE
:1024D000607A217A00020843411C2172090A617264
:1024E0001654281DFDF7D2FE8578201DFDF7CEFE7F
:1024F0000246607A217A00020843411C2172090ACF
:1025000061721554FEF7D0FA70BDF7B582B0074678
:102510000025FEF773F80646FEF778F80446001D1E
:10252000FDF7B4FE014601202072002060724037A2
:102530000F70301DFDF7AAFE407847067F0E201D64
:10254000FDF7A4FE0146607A227A00021043421C85
:102550002272120A62720F540398401E009014E017
:10256000301DFDF793FEA91C475C201DFDF78EFE74
:102570000246607A217A00020843411C2172090A4E
:10258000617217546D1C0098EDB28542E8DB201D86
:10259000FDF77CFE0246607A217A00020843411C66
:1025A0002172090A617204991154301DFDF76EFE03
:1025B0004078C00901D1FEF777FA05B0F0BD70B5DB
:1025C0000646FEF71BF8FEF721F804460025001D1D
:1025D000FDF75CFE0146012020720020607240364B
:1025E0000E70201DFDF752FE0246607A237A01022A
:1025F0001943481C2072000A607240205054201D6C
:10260000FDF744FE0246607A217A00020843411C2D
:102610002172090A61721554201DFDF737FE02462A
:10262000607A237A01021943481C2072000A607202
:102630005554201DFDF72AFE0246607A237A0102D6
:102640001943481C2072000A60725554201DFDF782
:102650001DFE617A227A090211434A1C2272120A73
:1026600062723A224254FEF71FFA70BD70B50546F9
:10267000FDF7CCFF0446001DFDF708FE0121217285
:102680000021617240350570FEF70EFA70BDF8B595
:1026900000260D460746344600F018F8012811D1EF
:1026A000A805AD0A002800D06D1CBF0A08E0E9B2F9
:1026B000F8B200F03BFE012806D00026641CE4B20C
:1026C000AC42F4D33046F8BD0126F7E710B500243C
:1026D00000F006FF002805D000F0FAFE002801D027
:1026E000012010BD204610BD1CB50C4601A900F00C
:1026F000E9FD01986A461070010A5170010C917051
:10270000000ED070105D1CBDF3B500268FB00F46D3
:102710003446FDF773FF0546407A297A00020843E4
:10272000801EC117890F091889088900401A000600
:10273000000E17D00421081A0E9010E0281DFDF796
:10274000A5FD0246687A297A00020843411C2972D5
:10275000090A6972FF211154641C0E98E4B2A04268
:10276000ECDCC719022416E0281DFDF78FFD621C62
:10277000825C015D12028918A21C825CE31CC05CB1
:10278000120400061018B2000918761C6846241DB1
:102790008150F6B2E4B2BC42E6D3FFF797FF0128BE
:1027A00006D1BA0869460F9800F0EEFD012800D066
:1027B000002011B0F0BDF0B591B017460D460646A9
:1027C00000241022694600F0E1FCB80069460D5073
:1027D000FFF77CFF012811D1032080073018800407
:1027E000000E012100F044FD012807D110226946A6
:1027F000304600F0E9FC012800D10124204611B048
:10280000F0BD10B5920800F0C1FC10BD10B59208E3
:1028100000F0A0FD10BDF7B592B0149900248A060F
:10282000054689092046002A00D0491C109133E052
:102830001498A601871B402F13D210226946284600
:1028400000F0A4FC1399002076186B46BF0804E042
:1028500081007258401C5A50C0B28742F8D81E46B8
:1028600001E013983618FFF731FF012810D103203B
:10287000800728188004000E012100F0F9FC0128CF
:1028800006D110223146284600F09EFC012800D0D7
:102890000020641C109940358C42C9D315B0F0BD9E
:1028A00010B500F023FD10BD10B500F029FD00F0BB
:1028B00031FD10BD10B500F019FD10BDFEE710B5DB
:1028C00000F05AFE00F052FE10BD07E0002100BFEC
:1028D000491CC9B22029FAD3401E80B20028F5D184
:1028E0007047000010B509480749416108490722AF
:1028F000CB691B021B0A44042343CB610021816185
:10290000026100F059F810BDFF7C000000E000E01B
:1029100004ED00E070B50024084D264620460C2149
:102920004843295C002903D02E5440198068804711
:10293000641CE4B2052CF1D370BD00003800002007
:1029400030B500200A4C01250C2141430B460919E2
:102950004A88002A07D0521E1204120C4A8002D163
:10296000E5548A884A80401CC0B20528ECD330BDAB
:10297000380000207047704709498868C20702D0B4
:10298000084A01231370820707D5CA68920704D446
:10299000054A53685B085B0053608860704700001D
:1029A00000010150C50000200000015010B5FFF7E4
:1029B000C7FF00F021F910BD10B50C49CB680C4CD5
:1029C0000C4A0D48A34201D1026010BDC9680B4BEF
:1029D000C918F9D00A4BC91805D00A4BD942F3D10E
:1029E0000949016010BD0949FBE7000000000150E2
:1029F0006B7C00000024F400C80000205EC3FFFFD1
:102A0000E5A1FFFF31B3FFFF00127A000048E801A3
:102A10007047000010B5074800F074FE064C012016
:102A20000022207011461046FEF740FC0020207066
:102A300010BD000000000B507400002010B50248CB
:102A400000F060FE10BD000000400B5030B4744632
:102A5000641E2578641CAB4200D21D46635D5B009A
:102A6000E31830BC18470000002809DBC106C90E76
:102A70000120884003490860BFF34F8FBFF36F8F79
:102A80007047000080E100E0002809DBC106C90EA4
:102A90000120884003490860BFF34F8FBFF36F8F59
:102AA0007047000080E100E0002805DBC106C90E88
:102AB00001208840014908607047000000E100E003
:102AC000002805DBC106C90E0120884001490860C5
:102AD0007047000000E100E0002805DBC106C90ED8
:102AE00001208840014908607047000000E100E0D3
:102AF00010B50B00FFF7AAFF0906161F36424E5D00
:102B00006A737700022804D0012804D0002804D07A
:102B10002EE0032130E007212EE00F212CE00D23D1
:102B2000042217E0022804D00128F2D00028F2D0B5
:102B30001EE0012120E0022804D0012804D0002852
:102B400004D021E0012123E0032121E007211FE03F
:102B50000A230322002804D0264CA1611101194345
:102B6000E16110BD022806D00128E2D00028D0D0B3
:102B700000210846D3E700210120D0E7022806D033
:102B80000128DFD00028DFD000210846E0E700213F
:102B90000120DDE702281ED0012802D0002804D041
:102BA00021E0002102E00120D6E701210D230422CB
:102BB000F9E7022819D0012802D0002802D012E03B
:102BC000002100E001210A230322ECE7012802D0C2
:102BD0000028E6D007E0002105230222E3E70128D0
:102BE00003D00028ECD0002010BD002104230122D6
:102BF000D9E700000000055070B51C4C0025207876
:102C0000002809D0257000F047F801206070A580E9
:102C1000A078401CA07002E06078002824D0A08832
:102C2000401C80B2A080A17805290DD232280AD399
:102C30003020A08000F042FC002804D00C4800F0B6
:102C400037FA00F081FA70BDC8280AD3C620A080E8
:102C500000F034FC002804D0054800F029FA00F008
:102C600073FA0520A07070BDA57070BDA80000208B
:102C7000CC03002010B5040007D1064840680007C7
:102C800003D400F075FD002803D0024840300460F2
:102C9000012010BD0000015030B595B00020FFF7B5
:102CA000E9FF09492C2230C909A8FDF779FA242245
:102CB0000BA96846FDF774FA294620460A9B099A33
:102CC00000F0F8F815B030BDF83800000FB4FCB5CE
:102CD0000020009075A0006801906846067FC17FC3
:102CE000457F734C807FEF221023012E18D0002DDA
:102CF00072D00C986946400D08700C98400B4870D3
:102D00000D98400D88700D98400BC8700F98000A00
:102D100008710F9848711098000A88711098A0E007
:102D2000002D13D0089A6B46520D1A70089AFB2595
:102D3000520B5A70089A52099A70089AD206120ECB
:102D4000DA700423002829D01A4328E0089D6E4633
:102D5000ED083570089D6D072D0E7570002801D0A7
:102D60001D4300E01540757008AD2879B070687992
:102D7000F0700A983546C00830710A9840011F303B
:102D8000C0B27071002901D0104000E01843687192
:102D900008A9087BA871487B294617E02A406846A5
:102DA000C2700A986A46400D10710A98400B507123
:102DB0000A98400990710A98C006000EC01DD07193
:102DC000002901D0284000E018431146C87121684D
:102DD0000820014349E0FFE70C9D6F46ED083D7078
:102DE00008AF0C9D3E7E6D0137093D43EDB26F4645
:102DF0007D70002801D01D4300E015407D700D9DC1
:102E00003607ED08BD700D9D360F6D013543EDB2EF
:102E1000FD70002801D01D4300E01540FD700F98A3
:102E200010AEC00838710F98450130790609354356
:102E3000EDB27D71109E0007F7086E46B771109EC7
:102E4000000F76010643F0B26E46F071002904D0FF
:102E5000154031467571104003E01D4331467571D0
:102E60001843C871216808208143216010486946D1
:102E7000097840300160694649784160694689783F
:102E800081606946C978C16069460979016169460E
:102E9000497941616946897981616946C979C16128
:102EA000FCBC08BC012004B018470000FFFFFFFF76
:102EB000000005500FB410B53B483C4A007888B07C
:102EC000012816D000F08EF83948042181610120D4
:102ED0009063364C403C22680243226008A8007A86
:102EE000002818D001280BD002280CD0032812D1BA
:102EF0000DE00020906308B010BC08BC04B0184777
:102F00002068022100E020680843206003E0606838
:102F100010210843606008AAD17A907AFFF7E8FD93
:102F2000A06908AA517A0843A061E069117B0843AF
:102F3000E061507B60631C2210A96846FDF730F900
:102F40000CA80FC8FFF7C2FE2068400840002060B0
:102F500008AA907B00F02EF808AAD47B200703D59E
:102F60001A20FFF7A1FD02E01A20FFF77DFD6007A0
:102F700003D51B20FFF798FD02E01B20FFF774FD2F
:102F8000A00703D51C20FFF78FFD02E01C20FFF7F0
:102F90006BFDE00703D01D20FFF786FD02E01D203A
:102FA000FFF762FD0120A6E7C400002040000550A5
:102FB0000000015002490A6902430A61704700009B
:102FC00000000550024908600249012088607047EE
:102FD00080000550400001500148C068C0B27047F1
:102FE0000000055002480021416001214160704706
:102FF000400001500148C06AC0B27047000005504F
:103000000348006B024A012180325160C0B2704710
:1030100000000550F0B52249C968C9073DD02049D4
:1030200040314A688B68CC680D6909680126090639
:103030000027002909DA51055A031143620111439F
:10304000EA0806721143416004E0D1005A09077290
:1030500011430160124940310A68520601D5467297
:1030600000E0477209680907090F8172082901D930
:103070000821817200210A4B06E08A00D218526DA5
:103080004418491CE272C9B2827A8A42F5D858685B
:103090000421084358600120F0BD0020F0BD00006D
:1030A0000000055001488068C0B27047000005501C
:1030B00018B500210091002806D022498968090727
:1030C000890F032901D0002018BD037A002B32D0CC
:1030D00041686C464A0D22704A0B62704A09A27020
:1030E000C900E170817A0A07120F002B01D08021FC
:1030F0000A43417A002901D040210A431149403155
:103100000A6022784A6062788A60A278CA60E278AF
:103110000A61C27A4A61027B8A61427BCA61827B10
:103120000A62C27B4A62027C8A62427CCA62807CFA
:103130000863012018BD01886C46CA082270490145
:103140006170CFE70000055000B50220FFF73AFF9D
:103150000248416801221143416000BD0000055052
:1031600000B50949491EFFF737FF800704D5022043
:10317000FFF728FF012000BD0029F3D10220FFF74F
:1031800021FF002000BD00003075000078B50C461E
:10319000154691000B4A09180646914202D8D104FF
:1031A0008E420BD2002078BD6946304600F08AF886
:1031B0000028F8D000986D1E01C4361D002DF3D1F3
:1031C000012078BD00080040F8B515460F460646B8
:1031D00000240BE0A0003958304600F00BF800281E
:1031E00007D0641C6D1E361D00F0BAFA002DF1D117
:1031F0000120F8BD0246104800B50B46824218D2A5
:1032000000F066F9002814D000F06AF9002810D008
:103210009208920005200949000701603C214160A5
:1032200033218160136000F073FA002800D0012080
:1032300000BD002000BD0000FF07004078CD000069
:1032400010B50949074A4A60242800D92420C860DB
:10325000064841681022114341600120FFF730FC0D
:1032600010BD000054DC23AB0002005000010150EF
:1032700000B50B46024620281FD200F029F900288D
:103280001BD000F02DF9002817D0900101218907EB
:10329000401805220A49120711603C21516055214E
:1032A0009160002801D000210160002B03D000F0C4
:1032B0002FFA002800D0012000BD002000BD000032
:1032C00078CD000000B50A46034600F001F9002859
:1032D00009D000F005F9002805D0980880000068A2
:1032E0001060012000BD0020106000BD03490846A9
:1032F00041608160C160016170470000B000002042
:103300000021052000070160014948607047000066
:10331000B0000020044803498160091DC160091DF7
:103320000161704704000050B000002070B50C46E9
:1033300005460BE00121284600F07EF8002808D061
:10334000641E6D1CE4B2EDB200F00AFA002CF1D15B
:10335000012070BD78B50C460646910088190321FE
:10336000C903154688420BD9002078BD694630460E
:1033700000F090F80028F8D000986D1E01C4361DAA
:10338000002DF3D1012078BDF8B515460F4606464D
:1033900000240BE0A0003958304600F00BF800285C
:1033A00007D0641C6D1E361D00F0DAF9002DF1D136
:1033B0000120F8BD0246114810B50B4682421AD8CA
:1033C00000F08EF8002816D000F082F8002812D005
:1033D0000C48920844680A49920021608468A5213B
:1033E0002160C06833210160136000F0A5F9002856
:1033F00000D0012010BD002010BD0000FF7F0100A3
:1034000055AA0000B000002010B50949074A4A60DB
:10341000302800D9302088600648416808221143CE
:1034200041600120FFF74CFB10BD000054DC23ABD2
:10343000000200500001015010B50B460246602802
:1034400022D200F04DF800281ED000F041F80028EC
:103450001AD090020E4A0D4954682160002B01D009
:10346000A52100E05A2194682160D268552111609D
:10347000002801D000210160002B03D000F05CF98E
:10348000002800D0012010BD002010BD55AA00006A
:10349000B000002000B50A46034600F021F80028DD
:1034A00009D000F015F8002805D0980880000068C1
:1034B0001060012000BD0020106000BD034880683E
:1034C000400701D5012070470020704700000550DB
:1034D000052000070069C00700D0012070470000E8
:1034E000044805490069884202D10068C00700D03D
:1034F00001207047B00000200C00005002484169D4
:1035000004221143416170470000015002484169A3
:1035100004229143416170470000015010B51446E8
:103520000B46012802D0FFF7E9FF10BD032BFCD8A2
:10353000FFF7ECFF0B48416A890889004162416A44
:10354000194341620848012C05D000218161042003
:10355000FFF79AFA10BD012181610420FFF7BCFA40
:1035600010BD000000000150000101500149C86178
:1035700070470000000101500148C069C0B27047A7
:103580000001015000F09CF872B600F010F8FFF74F
:10359000A9F9FDF7CBFBFDF741F8FDF737FEFFF783
:1035A00089F9FCF76DFF62B6FFF7B4F9FCE7F8B5EF
:1035B0000024012769460094032625464F70FFF733
:1035C0006BFB694608708F7068460178401C0029C3
:1035D00000D16D1C641CB442F7D3002D03D0002031
:1035E0006946C87001E06846C7700098F8BD0000E1
:1035F000044901228A62012802D00020C862704773
:10360000CA62704700000150F8B506462048214FB5
:1036100015460C46864202D11F48844212D1786872
:1036200000070FD400F0A4F800280BD11A48184E58
:10363000844207D1194C012D04D0022D02D0032D54
:1036400011D0174CBE60FC60FC68164B124916483E
:103650005A108C420DD1012D07D0022D07D0032D19
:1036600000D10260F8BD114CECE70360F8BD1049D1
:103670000CE0F968094C64420919F6D00D4BC918E1
:1036800003D00D4BD942F1D1EBE70C490160F8BDF5
:10369000B3AC0000000001506B7C0000A23C0000B5
:1036A000BD9A00000024F400C80000208CE7000050
:1036B000001BB700E5A1FFFF31B3FFFF0048E801A1
:1036C00010B5002000F018F8012209490948FFF759
:1036D0009BFF012200211046FFF720FF0120FFF78A
:1036E00087FF0020FFF790FE0020FFF7A9FD10BD27
:1036F000BD9A0000D2CC000001490861704700006B
:103700000000015001684022114301607047000031
:1037100000B5084A521EFFF7DBFE002805D0FFF770
:10372000DFFE002801D0012000BD002AF2D10020D8
:1037300000BD0000E093040000B5084A521EFFF7E8
:10374000CFFE002805D0FFF7C3FE002801D00120DE
:1037500000BD002AF2D1002000BD0000307500003D
:103760000249014848607047AA550000000008500F
:1037700070B54E4C002500264D4840680121084395
:103780004B4948604B48406801210843494948601B
:103790000120FFF7A1F94749002048610846406928
:1037A0000221884343494861084640690121084392
:1037B00040494861404900200870FFF7FDF83F4844
:1037C0003F490068884203D160002018450819E08D
:1037D0003A483C490068884201D1254612E0374802
:1037E00039490068884205D160000321FCF767FD74
:1037F000054607E0314835490068884201D165082F
:1038000000E0254641E02A48406808210840002899
:103810002BD028490020C8600846C0680121084311
:103820002449C8600846C068022108432149C8608D
:1038300008464068022108431E494860084640691E
:10384000022108431B494861084640690121084399
:1038500018494861084640680121084315494860F5
:103860001B4902200870012611E013480078002847
:103870000AD00F4840680E4940084000486014498B
:1038800001200870002602E06D1E002DBBD100BF94
:10389000012E08D0064840680549400840004860AD
:1038A0000B4901200870304670BD0000E022020084
:1038B0000000015000010150C5000020C800002098
:1038C0000048E8010024F400001BB70000127A0051
:1038D000C4000020FFFFFFFFFFFFFFFFFFFFFFFF10
:1038E000FFFFFFFFFFFFFFFFFFFFFFFFFFFFFFFFE8
:1038F000FFFFFFFFFFFFFFFF000001068064150FC1
:1039000001000000FFFF0000FFFF0000FFFF0000BC
:10391000FFFF0000FFFF0000FFFF0000FF000000AE
:10392000FFFF0000FFFF0000FF0000004C39000017
:1039300000000020CC00000004010000183A000044
:10394000CC0000205C080000200100000000000006
:103950000000000000000000000100000000000066
:103960000000000000000000000000000000000057
:103970000000000000000000000000000000000047
:1039800000000000000064006400000061370000D7
:1039900000000A000A000000250C000000000A00D8
:1039A0000A000000090E000000000A000A000000E2
:1039B000A90A00000000140014000000CD0D000052
:1039C00000000000040000000100000000000000F2
:1039D0000000000010278813000001000000000014
:1039E00000000000000000000000000000000000D7
:1039F00000000000000000000000000000000000C7
:103A000000000000000000000000000000000000B6
:083A1000000000000024F40096
:04000005000000C136
:00000001FF
