:020000040000FA
:10500000A80F0020BD510000D5A30000B19B0000F7
:105010000000000000000000000000000000000090
:10502000000000000000000000000000CDAF000004
:105030000000000000000000C5AB000039B1000016
:1050400000000000D1AF00000000000000000000E0
:10505000C5A300008DAB000095AB00009DAB000028
:10506000A5AB0000ADAB0000B5AB0000BDAB0000D0
:105070000000000000000000000000000000000030
:10508000B9AE0000C9AE000039AF000065AF000046
:1050900075AF0000BDAF0000C99A00003D5500008B
:1050A00000000000D5AD0000E15B00002D5A0000BB
:1050B000A15A0000C15B0000C1B10000E9B10000CD
:1050C00000F002F800F032F80CA030C808382418BC
:1050D0002D18A246671EAB4654465D46AC4201D130
:1050E00000F024F87E460F3E0FCCB6460126334230
:1050F00000D0FB1AA246AB4633431847788900001C
:10510000988900000023002400250026103A01D3CE
:1051100078C1FBD8520700D330C100D50B6070476F
:105120001FB500F07DF81FBD10B510BD00F0AAF945
:105130001146FFF7F5FF07F07DFD00F0C2F903B45B
:10514000FFF7F2FF03BC00F0C7F9000030B40C49D0
:105150000C684A6823681068C0181060241D121D6E
:105160008C4207D28A4208D20C604A6030BC4000B0
:10517000400870470C00DC3CF6E70A00DC3AF3E735
:10518000400B002070B505460C46164602E00FCCD9
:105190000FC5103E102EFAD2082E02D303CC03C541
:1051A000083E042E07D301CC01C5361F03E0217849
:1051B0002970641C6D1C761EF9D270BD07488047AB
:1051C00007480047FEE7FEE7FEE7FEE7FEE7FEE7EB
:1051D00004480549054A064B70470000BDB1000070
:1051E000C1500000A80B0020A80F0020A80D00202F
:1051F000A80D00200B4A30B511460B4C60310B4610
:10520000DC3B0CC1372106E0020C8D0012185A510C
:10521000064A504300190A46491E002AF4DC30BDF4
:105220000120E7E7E00A0020E119D666CD0D010074
:10523000F8B5042A2CD3830712D00B78491C0370CD
:10524000401C521E83070BD00B78491C0370401C76
:10525000521E830704D00B78491C0370401C521E59
:105260008B079B0F05D0C91ADF002023DE1B08C95E
:105270000AE0FFF787FFF8BD1D4608C9FD401C4640
:10528000B4402C4310C0121F042AF5D2F308C91AE7
:10529000521EF0D40B78491C0370401C521EEAD4F5
:1052A0000B78491C0370401C012AE4D40978017072
:1052B000F8BD01E004C0091F0429FBD28B0701D50A
:1052C0000280801CC90700D00270704700290BD0F3
:1052D000C30702D00270401C491E022904D3830771
:1052E00002D50280801C891EE3E70022EEE700223F
:1052F000DFE70378C2781946437812061B02194388
:105300008378C0781B04194311430902090A000677
:1053100008437047020A08704A70020C8A70020E35
:10532000CA707047002203098B422CD3030A8B42B8
:1053300011D300239C464EE003460B433CD400228D
:1053400043088B4231D303098B421CD3030A8B429F
:1053500001D394463FE0C3098B4201D3CB01C01A6D
:10536000524183098B4201D38B01C01A5241430938
:105370008B4201D34B01C01A524103098B4201D326
:105380000B01C01A5241C3088B4201D3CB00C01A93
:10539000524183088B4201D38B00C01A524143080B
:1053A0008B4201D34B00C01A5241411A00D2014630
:1053B0005241104670475DE0CA0F00D049420310C9
:1053C00000D34042534000229C4603098B422DD318
:1053D000030A8B4212D3FC22890112BA030A8B42C0
:1053E0000CD3890192118B4208D3890192118B420F
:1053F00004D389013AD0921100E08909C3098B4294
:1054000001D3CB01C01A524183098B4201D38B01D6
:10541000C01A524143098B4201D34B01C01A524179
:1054200003098B4201D30B01C01A5241C3088B42BE
:1054300001D3CB00C01A524183088B4201D38B00A9
:10544000C01A5241D9D243088B4201D34B00C01A33
:105450005241411A00D20146634652415B10104648
:1054600001D34042002B00D54942704763465B1090
:1054700000D3404201B50020C046C04602BD70477F
:1054800070477047754600F023F8AE460500694640
:105490005346C008C000854618B020B5FFF798FEF7
:1054A00060BC00274908B6460026C0C5C0C5C0C5B7
:1054B000C0C5C0C5C0C5C0C5C0C5403D49008D46BA
:1054C00070470446C046C0462046FFF738FE00003D
:1054D00000487047480B002001491820ABBEFEE78A
:1054E00026000200704770B58C180578401C6B07C9
:1054F0005B0F01D10378401C2A1106D10278401CB1
:1055000003E00678401C0E70491C5B1EF9D12B0786
:1055100005D40023521E0DD40B70491CFAE7037802
:10552000401CCB1A921C03E01D780D70491C5B1CBB
:10553000521EF9D5A142D8D3002070BD10B506F097
:1055400017FB0446F0480460F0480078092870D042
:1055500006DC00280BD0072850D008286AD198E034
:105560000A2868D00E2867D00F28F7D1ADE1E648A9
:105570000068E74988423BD2E3480068E549086093
:10558000E5480078052804DAE3480078401CE24941
:105590000870E1480078012804D1DE480068DF493E
:1055A000086025E0DC480078022804D1D94800686A
:1055B000DB4908601CE0D8480078032804D1D548AE
:1055C0000068D849086013E0D3480078042804D163
:1055D000D0480068D44908600AE0CF480078052820
:1055E00006D1CC480068D14908600020CA4908703B
:1055F0000720C649087006F07BFB83E1C2480068BB
:10560000C34988423FD2C0480068C2490860C848C0
:105610000078052804DAC6480078401CC4490870A0
:10562000C3480078012808D1BA480068C149086019
:1056300029E075E065E1BAE000E1BD4800780228A4
:1056400004D1B4480068BC4908601CE0B848007840
:10565000032804D1AF480068B849086013E0B44893
:105660000078042804D1AB480068B54908600AE016
:10567000AF480078052806D1A6480068B1490860FF
:105680000020AB4908700820A049087006F030FBE4
:1056900038E19D4800689E4988423BD29A4800689C
:1056A0009C490860A8480078052804DAA6480078D4
:1056B000401CA5490870A4480078012804D19548E9
:1056C0000068A249086025E09F480078022804D1BC
:1056D000904800689E4908601CE09B4800780328B9
:1056E00004D18C4800689B49086013E09648007814
:1056F000042804D187480068974908600AE0924866
:105700000078052806D18348006894490860002085
:105710008D49087009207D49087006F0E9FAF1E02A
:10572000794800687A4988423BD2774800687949CD
:1057300008608B480078052804DA89480078401C06
:105740008749087086480078012804D171480068AC
:105750008449086025E082480078022804D16D4819
:105760000068814908601CE07D480078032804D166
:10577000684800687D49086013E07948007804288B
:1057800004D1644800687A4908600AE074480078E7
:10579000052806D15F4800687649086000207049F6
:1057A00008700A205949087006F0A2FAAAE0564883
:1057B0000068574988423BD2534800685549086001
:1057C0006D480078052804DA6B480078401C6A4967
:1057D000087069480078012804D14E48006867497C
:1057E000086025E064480078022804D14948006830
:1057F000634908601CE060480078032804D14548EC
:1058000000686049086013E05B480078042804D110
:10581000404800685C4908600AE05748007805285D
:1058200006D13C4800685949086000205249087078
:105830000E203649087006F05BFA63E032480068D3
:10584000334988423BD230480068324908605048AA
:105850000078052804DA4E480078401C4C4908704E
:105860004B480078012804D12A480068494908605B
:1058700025E047480078022804D1264800684649B8
:1058800008601CE042480078032804D121480068E1
:105890004249086013E03E480078042804D11D48BE
:1058A00000683F4908600AE039480078052806D1B9
:1058B000184800683B4908600020354908700F20EF
:1058C0001249087006F014FA1CE00F4800681049ED
:1058D000884215D20C4800680E49086008460068E6
:1058E000314909788900314A50502F480078401CCE
:1058F0002D49087008460078782801DB00200870E0
:1059000000E000BF00BF10BD1C000020DB00002035
:1059100088130000E8000020DF000020F4000020D1
:10592000F8000020FC0000200001002004010020FD
:10593000E4000020E4010020E8010020EC01002048
:10594000F0010020F4010020DD0000208C01002087
:105950009001002094010020980100209C0100206B
:10596000DE0000207001002074010020780100207A
:105970007C01002080010020E3000020A80100201D
:10598000AC010020B0010020B4010020B8010020CB
:10599000E000002014010020180100201C0100205C
:1059A0002001002024010020E1000020F00300205D
:1059B00010B507F0B5FB04F08DFA00F089F810BDC2
:1059C00010B51948006863282DD305F095FC00F048
:1059D0008BFE04F0EFF804F01BFB04F075FC05F0FF
:1059E000F3F805F075F904F0E9FD05F007FC04F0A3
:1059F0006BFD04F075FB04F0EDFB04F05DFE04F0BC
:105A0000D5FE04F0CFFF05F047F804F049FF04F09D
:105A10007DFA05F02BFE00F00BFE05F0FBFA03F01B
:105A2000DBFE03F019FE10BD8400002010B506F067
:105A30003BFD044606F0B0FD80202040002802D047
:105A4000802006F027FD40202040002804D006F0EA
:105A50009DFD402006F01EFD20202040002804D09F
:105A600006F018FE202006F015FD08202040002832
:105A700002D0082006F00EFD0420204000280BD0A4
:105A800006F002FE80210840802802D1012003494F
:105A90000870042006F0FEFC10BD00002C0300205E
:105AA00010B506F001FD064806F080FD012005490D
:105AB00008700549087000200449087010BD0000F6
:105AC00098030020A00200201A0000202D030020CF
:105AD0002F48007801285AD100202D4908702D4800
:105AE00000682D49884210D12A48807A04280CD1B8
:105AF0002848C07A0A2808D12648007B022804D109
:105B00002448407B552800D100BF22480068234923
:105B100088423CD11F48807A082838D1002020498B
:105B20000870204908701B48007B232148431E4908
:105B300008601848C07A1D49087008460078800738
:105B4000800F022802D10120194908601748007807
:105B50008007800F012802D10020154908600D48F8
:105B6000407B64214843134908600F48006812498C
:105B7000884202D311480C4908600B4800680D495F
:105B80000968884203D90B480068074908607047D4
:105B90001A0000209803002029070000510200008D
:105BA000DA000020180200201C0200208C000020D7
:105BB0008800002068000020FD0C0000581B000039
:105BC00010B506F071FC022006F064FC0348007872
:105BD000002802D000200149087010BD2D030020CC
:105BE00010B506F061FC102006F054FC10BD70B535
:105BF00004460025607A082800D170BD002509E020
:105C000020460E30FFF775FB617A49195522425440
:105C1000681CC5B2607A0821081AA842F0DC082086
:105C2000607200BFE9E7000000487047FA060020F4
:105C3000004870471607002000487047EC06002017
:105C4000004870470807002070B50025002400BFF9
:105C500006E000202449485524494855681C85B26F
:105C6000882DF6DB002406E0002021490855214953
:105C70000855601C84B2082CF6DB1F491A48FFF750
:105C800049FB00201C49091F087248728872C872BB
:105C90001A491648FFF73EFB00201849091F0872F1
:105CA00048728872C87216491148FFF733FB002109
:105CB0001348001F0172417200201149091F8872A8
:105CC000C87210490B48FFF725FB00200D49091F3A
:105CD000087248728872C8720B4908600B490860E4
:105CE00001200B49087070BD24070020AC0700207C
:105CF000AF020020B7020020FE060020F0060020C0
:105D00001A0700200C070020A4020020A80200208F
:105D1000C1020020F8B50546002409200090324950
:105D2000286808603148FFF7E4FA00780607360F64
:105D30002D490A68D17A927A09021143084607214F
:105D4000FFF7FAFA401C0007000FB04249D10124C6
:105D50001EE02648FFF7CDFA075D23480068001DC6
:105D6000FFF7C7FA20490A68D17A927A09021143EB
:105D700047541D480168C87A897A00020843401CCC
:105D800080B2194909688872000AC872601CC4B2DE
:105D9000082C12DA15480E38407AA0420DDD124860
:105DA0000168C87A897A000208430F490A68517A63
:105DB000127A090211438842CBDB0B480168C87A8A
:105DC000897A0002084308490A68517A127A09025E
:105DD0001143884205DB012000900549087000F05E
:105DE000F5F80098F8BD0000A8020020E8060020A1
:105DF000C102002070B5044600BF1448FFF779FACD
:105E000000780007060D1148FFF773FA4078301844
:105E100021680872000A48720D492068086002254E
:105E20000BE00A48FFF765FA465D2168081DFFF799
:105E300060FAA91E4654681CC5B2082DF1DB062085
:105E4000216888720020C87270BD0000E80600203A
:105E5000A8020020704700001CB5FFF7E5FE019086
:105E6000FFF7E6FE00903B480078012803D03A484F
:105E70000078012812D13948FFF73BFA0078041165
:105E8000002C09D1012036490870684600F072F8EC
:105E9000012000F095F800E000BF00BF3148007815
:105EA000012803D030480078012851D12B48FFF752
:105EB00020FA00780411002C06D0012C26D0022CE8
:105EC0003DD0032C42D12FE02448FFF712FA00788E
:105ED0000007000F002818D02048FFF70AFA407882
:105EE0003E2809D101201E490870684600F042F89A
:105EF000012000F065F808E001201C49087001A8A5
:105F000000F038F8012000F061F820E00320174984
:105F1000087001A8FFF76EFF0020154908701149AD
:105F200008701149087012E0FFF794FF02200F4932
:105F3000087000200B4908700B49087007E0012029
:105F40000A49087001A8FFF7E5FE00E000BF00BFA6
:105F50001CBD00009E0200209F020020E8060020D9
:105F6000C00200209C0200209D020020BF020020F1
:105F7000C102002070B5054600BF1048FFF7B9F90F
:105F800000780007000F29680872000A4872002490
:105F90000BE00A48FFF7ADF9611C465C2968081D53
:105FA000FFF7A7F90655601CC4B20448FFF7A1F932
:105FB00000780007000FA042EBDC70BDE80600206F
:105FC0000149087070470000C302002001490870B1
:105FD00070470000C202002010B50024FFF730FE19
:105FE00004460A480078012808D1607A217A000224
:105FF0000843072802DC204600F0D0F900200349BE
:106000000870034908700349087010BDC0020020E1
:106010009E0200209F020020F8B5044600250026BD
:106020002B480468002C4FD0E17AA27A0902114370
:1060300008460721FFF780F9401C07073F0F20376C
:106040002448FFF756F9077000BF17E0201DFFF73F
:1060500050F9E17AA27A09021143475C1D48FFF723
:1060600048F9691C4754E07AA17A00020843401CB1
:1060700080B2A072000AE072681CC5B2072D09DA6E
:10608000E07AA17A00020843617A227A0902114378
:106090008842DBDB681C0F490E394872084600F065
:1060A000ADF9E07AA17A00020843617A227A090206
:1060B0001143884209DB002005490860A072E072A4
:1060C00020726072012600E001263046F8BD000013
:1060D000A4020020D606002070B5044600BF19486F
:1060E000FFF707F90146607A227A000210430F2277
:1060F000120210400014103008701248FFF7F9F82F
:10610000617A227A09021143417000250AE0201DBC
:10611000FFF7EFF8465D0B48FFF7EBF8A91C465474
:10612000681CC5B2062DF2DB0620A0720020E072CA
:10613000082004490E394872084600F05FF9024809
:10614000046070BDD6060020A4020020F8B50A2025
:1061500000903A252F48FFF7CCF80078F02108404E
:106160000011012816D12B48FFF7C3F80078070764
:106170003F0F2848FFF7BDF840783818A84201DDE6
:1061800032240EE024480078002801D1312408E0B0
:10619000302406E020480078002801D1312400E0B6
:1061A0003024A91F88B20721FFF7C6F8002906D1BD
:1061B000A91FC8B20721FFF7BFF8C6B206E0A91FA2
:1061C000C8B20721FFF7B8F8401CC6B21348FFF762
:1061D00090F804701148FFF78CF846700F48FFF7ED
:1061E00088F80099817003200C490E39487200200C
:1061F00048730B48FFF78EF808480E38FFF7F7FC96
:10620000082006490E394872084600F0A3F92046D6
:10621000F8BD0000E8060020A1020020D6060020FC
:10622000A907000010B50024FFF706FD04465448F6
:106230000078012815D1534800880A305149088058
:106240000846008896280CDD4F480078022808D0C0
:1062500000204E490860A072E072207260724849C6
:10626000087049480078012807D04748007803287B
:1062700003D04548007802285ED1607A217A000276
:106280000843002818DD607A217A000208430728B5
:1062900012DC3D48007801280ED13D4800780128E5
:1062A0000AD1204600F07AF80020374908703949B1
:1062B00008703949087062E033480078032809D132
:1062C000FFF744FF00203049087032490870324916
:1062D000087054E0607A217A00020843072815DD2F
:1062E000E07AA17A0002084300280FD12046FFF788
:1062F000F3FE0020244908702649087026490870DA
:106300002049088001201E49087038E01E480078A6
:10631000022834D12046FFF77FFE012806D1002055
:106320001949087017490880154908700020194953
:1063300008701949087022E01348007804280AD12F
:10634000204600F02BF800200F4908701149087012
:106350001149087013E0607A217A0002084300288E
:106360000DDD09480078052809D1204600F016F80F
:10637000002005490870074908700749087010BDDA
:10638000AE020020AC020020BF020020A4020020C8
:10639000C10200209C0200209D02002070B504462E
:1063A00000BF1548FEF7A5FF617A227A0902114362
:1063B000017000250AE0201DFEF79BFF465D0E4898
:1063C000FEF797FF691C4654681CC5B2607A217AB3
:1063D00000020843A842EEDA607A217A00020843FC
:1063E000401C05490E394872002020726072084630
:1063F00000F016F870BD0000D606002010B5044667
:1064000021460648FEF786FF002060732046FFF70E
:10641000EEFB204600F09EF810BD0000A90700002A
:1064200010B5044608490948FEF774FF00200649E4
:106430004873C8720846FFF7DAFB08200249487221
:10644000084600F087F810BDC8060020A907000024
:1064500010B53848007801286BD13748807A374921
:106460004872354908683549FEF754FF002409E0B1
:1064700032480E30FEF73DFF2F490B31095D0155C3
:10648000601CC4B22C48807AA042F1DC2B48FEF795
:1064900030FF2B4988421BD128480E30FEF729FFD8
:1064A000007802280DD125480E30FEF722FF4078F3
:1064B0003E2806D101202349087000202249087097
:1064C00032E00120214908700020214908702BE0AA
:1064D0001A48FEF70EFF1A49B63188421BD11748F9
:1064E0000E30FEF706FF007802280DD113480E305B
:1064F000FEF7FFFE40783E2806D1002011490870C3
:106500000120114908700FE0002010490870012097
:106510000F49087008E000200C4908700C49087009
:106520000849087008490870002002490870FFF700
:1065300093FC10BDA002002098030020DA06002082
:10654000290700009E0200209F0200209C020020DC
:106550009D02002030B585B00546002168460172D5
:106560004172697A81722846FEF7C3FE00900024CA
:1065700009E028460E30FEF7BCFE015D02A803309C
:106580000155601CC4B26846807AA042F1DC09481B
:106590000078012809D1002006490870684606F0F5
:1065A00083F806F0E5F806F0F1F8012001490870DB
:1065B00005B030BDA102002010B50B490B48FEF715
:1065C000A9FE0B490B48FEF7A5FE00200A490870FA
:1065D0000A4908700A4908700A4908700A4908708F
:1065E00001200A49087010BDD60600204806002088
:1065F000E8060020880600209C0200209D02002062
:106600009E0200209F020020A0020020A102002084
:1066100018B5FF242402044024122402E2B2C3B2BB
:106620000024009469460A70491C0B70491C18BD6F
:1066300010B528480078C82804DA26480078401C9D
:1066400024490870234800780A282EDB2248007865
:106650008021084320490870204801780078401CB8
:106660001E4A1070052933DD10460078401E114681
:1066700008701B48007802F0C3FA012219494C2027
:1066800002F0DCFA1348047829462046FFF7C0FFE1
:106690002946144802F030FB10480378104802786D
:1066A0004C21104802F044FC12E00B480078802195
:1066B000884309490870094801780078401E074A54
:1066C0001070002904D1002206494C2002F0B6FACD
:1066D00010BD0000180200200D020020170000204D
:1066E00049000020F9D2000010B549480078494916
:1066F0000870002048490860484908701BE0454878
:106700000078002805DD43480078401E41490870A4
:1067100002E077203F4908703E48007880004049F9
:1067200008583D49096840183B4908603B480078D3
:10673000401C3A490870394800786428DFDBFF21A3
:106740002D3135480068FEF7EDFD364908600968CF
:10675000FF22D432514308463349FEF7E3FD334963
:10676000086008460068324908603248006800281E
:1067700005D108460068012801D8002008600A21D8
:106780002B480068FEF7CEFD2B4801600068052805
:1067900008D30A2126480068FEF7C4FD401C27499B
:1067A000086006E00A2122480068FEF7BBFD234985
:1067B00008601F490968224A1268514308460A21A5
:1067C000FEF7B0FD14490860084600681D490860DE
:1067D00023211C480068FEF7A5FD1B4908600846F8
:1067E0000068642801D964200860184800781428DB
:1067F00004DA16480078401C1449087013480078E1
:10680000052803D12021124806F020F910BD000010
:10681000E1000020E500002050010020E6000020FB
:10682000F0030020540100204C0400004C01002023
:106830004C00002074000020500000205400002074
:10684000E001002060000020640000204A000020D9
:1068500000000A5010B50E480078012816D1FFF745
:10686000E7F90446201DFEF744FD00783E2802D1DA
:1068700001F0CEFD00E000BF00BF0020FFF7A0FB4D
:106880000020044908700449087000BF10BD0000D2
:10689000C30200209E0200209F02002070B5FFF777
:1068A000C3F9044662480078C01D61490870614818
:1068B0000078032814DB6048008800280BDC0020E7
:1068C0005D4908805B480078401E5A4908700020E6
:1068D0005A49087004E0584800880A385649088028
:1068E00057480078012811D156480088002808DC54
:1068F0000420554908700020544908704F49087019
:1069000004E0504800880A384E4908805048007812
:10691000012852D14F48007801284ED14E480078C6
:1069200000284AD101204D490870201DFEF7E1FCE6
:10693000007822281ED008DC10280FD0112810D093
:10694000142811D0192824D111E0272818D028287C
:1069500019D02E2811D085281BD117E000F0B8FAE5
:1069600020E000F07BFB1DE000F03EFC1AE000F0B0
:10697000CBFC17E001F0B6F914E001F03DFC11E0AA
:1069800001F06EFA0EE001F03FFB0BE001F0BCFD00
:1069900008E0201DFEF7ADFC05781121284600F027
:1069A00061F800BF00BF03202C4908700020FFF7EA
:1069B0000DFB00202749087039E0254800780128A0
:1069C00035D127480078012831D1234800780028A4
:1069D0002DD1012021490870201DFEF78AFC007886
:1069E00022280DD004DC102807D0112814D10AE089
:1069F00028280BD085280FD10BE000F069FA0CE0B5
:106A000001F070F909E000F029FB06E001F0FCFA62
:106A100003E001F079FD00E000BF00BF03200F4953
:106A200008700020FFF7D2FA00200D49087070BDF1
:106A3000FD020020F5020020F6020020F3020020F3
:106A4000C4020020F8020020F2020020FA02002016
:106A5000C20200209C020020AE020020F1020020B1
:106A60009D02002070B505460E463E2D39D1FFF738
:106A7000E7F80446002020726072201DFEF739FC02
:106A80000146607A237A02021A4300021843401C2E
:106A900080B22072000A60727F208854201DFEF7A9
:106AA00028FC0146607A237A02021A430002184346
:106AB000401C80B22072000A60728D54201DFEF7C7
:106AC00018FC0146607A237A02021A430002184336
:106AD000401C80B22072000A60728E54FFF77CFA6C
:106AE00039E0FFF7A9F80446002020726072201DEB
:106AF000FEF7FFFB0246607A237A01021943000287
:106B00001843401C80B22072000A60727F205054EB
:106B1000201DFEF7EEFB0146607A237A02021A433B
:106B200000021843401C80B22072000A60728D542B
:106B3000201DFEF7DEFB0146607A237A02021A432B
:106B400000021843401C80B22072000A60728E540A
:106B5000FFF768FB00BF70BDF8B505463E2D3BD181
:106B6000FFF766F80646FFF76BF804460020207230
:106B70006072201DFEF7BDFB0146607A237A020297
:106B80001A4300021843401C80B22072000A60724F
:106B9000284640308854301DFEF7ABFB407847064E
:106BA0007F0E201DFEF7A5FB0146607A237A0202C4
:106BB0001A4300021843401C80B22072000A60721F
:106BC0008F54301DFEF795FB4078802108408028C7
:106BD00001D0FFF701FA3BE0FFF726F80646FFF782
:106BE0002BF80446301DFEF784FB407880210840D6
:106BF00080282CD0002020726072201DFEF779FBC7
:106C00000146607A237A02021A4300021843401CAC
:106C100080B22072000A6072284640308854301DCD
:106C2000FEF767FB407847067F0E201DFEF761FBED
:106C30000246607A237A0102194300021843401C7D
:106C400080B22072000A60725754FFF7EBFA00BF5F
:106C5000F8BD000010B50020FFF7B8F90020FFF7DD
:106C6000AFF9002022490870032022490870012052
:106C70002149087000202149087010212048FEF7A2
:106C800034FB20491E48FEF745FB00201E490870D2
:106C900040211E48FEF729FB1D491C48FEF73AFB20
:106CA00000201B490871FF211948417100218171A1
:106CB000C17100201749087060211748FEF715FBC5
:106CC00016491548FEF726FB0020144908710021DB
:106CD00012484171817158211148FEF706FB104896
:106CE0001049086010221049104802F011FD10BD33
:106CF000DF020020F1020020F00200200A03002041
:106D000048090020390900200B0300205809002001
:106D10003D0900200C0300209809002003030020F7
:106D2000F809002010030020F4080020C0000040F3
:106D300070B50546FEF780FF0446002020726072A1
:106D4000201DFEF7D6FA0146607A237A02021A4322
:106D500000021843401C80B22072000A60727F203B
:106D60008854201DFEF7C5FA0146607A237A020294
:106D70001A4300021843401C80B22072000A60725D
:106D80008D54201DFEF7B5FA0146607A237A02027F
:106D90001A4300021843401C80B22072000A60723D
:106DA000782088547D20C00003F018FBFFF73AFAE2
:106DB0002E2D01D0312D02D101200149087070BD66
:106DC000BF020020F8B5FEF72FFF05462C480078DB
:106DD000012853D12B48007801284FD12A48007848
:106DE00006284BD0284800780A2847D0281DFEF7EF
:106DF00080FA0078312841D1FEF716FF0646FEF7EB
:106E00001BFF0446002020726072201DFEF771FAFD
:106E10000246607A237A0102194300021843401C9B
:106E200080B22072000A60727F205054301DFEF73D
:106E300060FA0778201DFEF75CFA0146607A237A33
:106E400002021A4300021843401C80B22072000A5A
:106E500060728F54201DFEF74CFA0146607A237A47
:106E600002021A4300021843401C80B22072000A3A
:106E7000607278208854FFF7D5F900BFF8BD000094
:106E8000F1020020C2020020FB02002000BF72B607
:106E900000BF00BF00BF00BF00BF00BF00BF00BFFA
:106EA000BFF34F8F00BF00BF00BF07480749C8604E
:106EB00000BF00BF00BFBFF34F8F00BF00BF00BFC8
:106EC00000BF00BFFDE700000400FA0500ED00E090
:106ED000F8B50425FEF7A8FE0646FEF7ADFE04460B
:106EE000707A317A00020843022801D0012552E06D
:106EF000301DFEF7FEF940784006400E012804D010
:106F0000022807D0032843D13AE0042501204B4949
:106F100008703FE04A480078042801D103252EE09C
:106F200000BF002020726072201DFEF7E2F90146CA
:106F3000607A237A02021A4300021843401C80B28E
:106F40002072000A607250208854301DFEF7D1F97B
:106F5000407847067F0E201DFEF7CBF90146607A88
:106F6000237A02021A4300021843401C80B22072A6
:106F7000000A60728F54FFF755F903F015FA09E023
:106F80002F480078052801D1032500E0062501E0FF
:106F9000022500BF00BF2B0004F0EAFB0839050AF8
:106FA0000F141B26313913211020FFF75BFD2FE052
:106FB00012211020FFF756FD2AE022211020FFF7B2
:106FC00051FD25E000201F490870102001F016FB3C
:106FD0001EE01D4800781B4908701C481C490880A9
:106FE000102001F00BFB13E01748007815490870DA
:106FF000164817490880102001F000FB08E01248ED
:10700000007810490870102001F0F8FA00E000BF85
:1070100000BF042D01D0062D0FD1094805700020B6
:107020000C4908700C480078062803D00A480078FC
:10703000072802D1002008490870F8BD1403002079
:10704000F2020020C4020020C202002088130000C7
:10705000F8020020FA020020F302002070B5FEF7CB
:10706000E3FD0546FEF7E8FD044658480088002881
:1070700003DD57485549088010E004205549087041
:1070800000205549087055480078062803D0534819
:107090000078072802D1002050490870687A297AC0
:1070A00000020843022804D013211120FFF7DAFC64
:1070B0008AE0281DFEF71DF940784006400E0128A1
:1070C00004D002283CD0032878D13DE00420414977
:1070D0000870002020726072201DFEF70AF9014638
:1070E000607A237A02021A4300021843401C80B2DD
:1070F0002072000A607251208854281DFEF7F9F8AA
:1071000040784606760E201DFEF7F3F80146607AB9
:10711000237A02021A4300021843401C80B22072F4
:10712000000A60728E54FFF77DF82D4803F056F97F
:1071300004202849087001202A490870FFF7A6FE9C
:107140000420244908703EE00420224908700020F1
:1071500020726072201DFEF7CCF80146607A237A17
:1071600002021A4300021843401C80B22072000A37
:10717000607251208854281DFEF7BBF840784606FF
:10718000760E201DFEF7B5F80146607A237A0202DA
:107190001A4300021843401C80B22072000A607239
:1071A0008E54FFF73FF80E4803F018F90420094900
:1071B000087001200B490870FFF768FE12211120AA
:1071C000FFF750FC00BF00BF70BD0000F8020020B8
:1071D00088130000F2020020FA020020F3020020CF
:1071E0001027000014030020F8B5FEF71DFD05462A
:1071F000FEF722FD0646281DFEF77BF8417868461B
:107200000170281DFEF775F8817868464170281DC9
:10721000FEF76FF8C17868468170687A297A0002B3
:107220000843042803D002203349087042E068462E
:107230000078FF280BD068464078FF2807D06846C2
:107240008078FF2803D003202B49087032E0002407
:1072500018E02A48FEF74DF8FF2101552748FEF7B0
:1072600048F8611CFF2242542448FEF742F8A11C52
:10727000FF2242542148FEF73CF8E11CFF22425411
:10728000201DC4B2602CE4DB1C48FEF732F8044633
:107290006023002221461A4802F0FAF8002806D19D
:1072A0001849087072211420FFF7DCFB02E001206E
:1072B0001149087010480078012815D0022804D020
:1072C000032807D0052813D109E013211420FFF764
:1072D000C9FB0EE022211420FFF7C4FB09E0312195
:1072E0001420FFF7BFFB04E0142001F008FA00E0CF
:1072F00000BF00BFF8BD0000FE02002039090020D9
:10730000000100400A030020FEB500200290002684
:10731000FEF78AFC0546FEF78FFC0446687A297A58
:1073200000020843022803DA0220FE490870FCE349
:10733000281DFDF7DEFF40780290029804287BD0DC
:1073400004DC012807D0022877D178E0062875D020
:107350000A28F9D1EAE3281DFDF7CBFF8078FF2842
:1073600003D00520EF490870BEE2EF4800780128FD
:1073700061D10422ED49EE4802F0CAF900202072E2
:107380006072201DFDF7B5FF0246607A237A010284
:10739000194300021843401C80B22072000A607238
:1073A00059205054201DFDF7A4FF0146607A237A2E
:1073B00002021A4300021843401C80B22072000AE5
:1073C000607201208854201DFDF793FF0146607A0A
:1073D000237A02021A4300021843401C80B2207232
:1073E000000A6072FF208854201DFDF782FF0146CD
:1073F000607A237A02021A4300021843401C80B2CA
:107400002072000A6072C94800788854201DFDF778
:1074100070FF0146607A237A02021A430002184381
:10742000401C80B22072000A6072C04840788854C4
:107430000120BC49087097E776E0FDE355E2281D7E
:10744000FDF757FF8078FF2803D00520B549087065
:107450008AE7B648401DFDF74CFF074660223946D3
:10746000B348803002F054F9002020726072201D71
:10747000FDF73FFF0146607A237A02021A430002B9
:107480001843401C80B22072000A60725920885450
:10749000201DFDF72EFF0146607A237A02021A436F
:1074A00000021843401C80B22072000A6072022061
:1074B0008854201DFDF71DFF0246607A237A0102E1
:1074C000194300021843401C80B22072000A607207
:1074D000FF205054602621E09448401DFDF709FF2D
:1074E00007469248401DFDF704FF401C8F49491D87
:1074F0000090FDF70FFF3F78201DFDF7FAFE0146D3
:10750000607A237A02021A4300021843401C80B2B8
:107510002072000A60728F54701EC6B2002EDBD13A
:10752000012080490870B4E3687A297A0002084390
:10753000062803DA02207B490870AAE3281DFDF71C
:10754000D8FE8079FF2803D0052076490870A0E393
:1075500075480078012878D1281DFDF7CAFEC1784A
:1075600068460171281DFDF7C4FE01796846417126
:10757000281DFDF7BEFE4179684681716D48FDF713
:10758000B8FE0746602239466948E03002F0C0F88C
:10759000002020726072201DFDF7ABFE0246607A6B
:1075A000237A0102194300021843401C80B2207262
:1075B000000A607259205054201DFDF79AFE0246C1
:1075C000607A237A0102194300021843401C80B2FA
:1075D0002072000A607204205054201DFDF789FEBD
:1075E0000146607A237A02021A4300021843401CC3
:1075F00080B22072000A6072684600798854201DAB
:10760000FDF777FE0146607A237A02021A430002F0
:107610001843401C80B22072000A607268464079AC
:107620008854201DFDF765FE0146607A237A020228
:107630001A4300021843401C80B22072000A607294
:10764000684680798854602647E14DE13948FDF766
:1076500050FE07783748FDF74CFE401C3549009036
:10766000FDF758FE6846007987427DD13148FDF725
:1076700040FE07782F48FDF73CFE401C2D49009046
:10768000FDF748FE684640798742EED12948FDF76C
:1076900030FE07782748FDF72CFE401C2549009056
:1076A000FDF738FE684680798742DED12148FDF734
:1076B00020FE0778201DFDF71CFE0146607A237A24
:1076C00002021A4300021843401C80B22072000AD2
:1076D00060728F541748FDF70CFE471C1549384659
:1076E000FDF718FE1348FDF704FE0778201DFDF78F
:1076F00000FE0146607A237A02021A430002184310
:10770000401C80B22072000A60728F540948FDF755
:10771000F0FD471C07493846FDF7FCFD0548FDF71D
:10772000E8FD09E0FE0200201403002034090020D7
:10773000800000403D0900200778201DFDF7D9FD9D
:107740000246607A237A0102194300021843401C62
:1077500080B22072000A60725754FE48FDF7C9FDDE
:10776000471CFC49384600E0ADE0FDF7D3FDF94881
:10777000FDF7BFFD0778201DFDF7BBFD0146607AD0
:10778000237A02021A4300021843401C80B220727E
:10779000000A60728F54EF48FDF7ABFD471CED49BE
:1077A0003846FDF7B7FDEB48FDF7A3FD0778201D30
:1077B000FDF79FFD0246607A237A01021943000219
:1077C0001843401C80B22072000A60725754E1488E
:1077D000FDF78FFD471CDF493846FDF79BFDDD486F
:1077E000FDF787FD0778201DFDF783FD0146607AD0
:1077F000237A02021A4300021843401C80B220720E
:10780000000A60728F54D348FDF773FD471CD149BD
:107810003846FDF77FFDCF48FDF76BFD0778201D4B
:10782000FDF767FD0146607A237A02021A430002DF
:107830001843401C80B22072000A60728F54C54801
:10784000FDF757FD471CC3493846FDF763FDC148A6
:10785000FDF74FFD0778201DFDF74BFD0246607ACE
:10786000237A0102194300021843401C80B220729F
:10787000000A60725754B748FDF73BFD471CB549F5
:107880003846FDF747FDB348FDF733FD0778201D67
:10789000FDF72FFD0146607A237A02021A430002A7
:1078A0001843401C80B22072000A60728F54A948AD
:1078B000FDF71FFD471CA7493846FDF72BFD304655
:1078C0000C38C6B20CE0A348FDF713FD471CA149D4
:1078D0003846FDF71FFD301FC6B2002E00D0B5E6BA
:1078E00000BF01209C490870D3E1687A297A000220
:1078F0000843062803DA022097490870C9E1281DC9
:10790000FDF7F7FC4079FF2803D005209249087065
:10791000BFE192480078012877D1281DFDF7E9FCE6
:10792000817868460171281DFDF7E3FCC17868463F
:107930004171281DFDF7DDFC017968468171884899
:10794000FDF7D7FC074660223946864801F0E0FE85
:10795000002020726072201DFDF7CBFC0246607A89
:10796000237A0102194300021843401C80B220729E
:10797000000A607259205054201DFDF7BAFC0146E0
:10798000607A237A02021A4300021843401C80B234
:107990002072000A607206208854201DFDF7A9FCA1
:1079A0000146607A237A02021A4300021843401CFF
:1079B00080B22072000A6072684600798854201DE7
:1079C000FDF797FC0146607A237A02021A4300020F
:1079D0001843401C80B22072000A607268464079E9
:1079E0008854201DFDF785FC0246607A237A010247
:1079F000194300021843401C80B22072000A6072D2
:107A00006846807950546026C6E0CCE05448FDF7C3
:107A100070FC07785248FDF76CFC401C5049009000
:107A2000FDF778FC6846007987427DD14C48FDF728
:107A300060FC07784A48FDF75CFC401C4849009010
:107A4000FDF768FC6846407987426DD14448FDF7F0
:107A500050FC07784248FDF74CFC401C4049009020
:107A6000FDF758FC6846807987425DD13C48FDF7B8
:107A700040FC0778201DFDF73CFC0146607A237A24
:107A800002021A4300021843401C80B22072000A0E
:107A900060728F543248FDF72CFC471C3049384641
:107AA000FDF738FC2E48FDF724FC0778201DFDF774
:107AB00020FC0246607A237A01021943000218432F
:107AC000401C80B22072000A607257542448FDF7AF
:107AD00010FC471C22493846FDF71CFC2048FDF7E6
:107AE00008FC0778201DFDF704FC0146607A237A24
:107AF00002021A4300021843401C80B22072000A9E
:107B000060728F541648FDF7F4FB471C1449384641
:107B1000FDF700FC1248FDF7ECFB0778201DFDF790
:107B2000E8FB0246607A02E02CE0B9E03CE0237A10
:107B30000102194300021843401C80B22072000A5F
:107B4000607257540648FDF7D4FB471C0449384679
:107B50000AE000003D090020FE020020140300207E
:107B60000303002040020040FDF7D4FB5A48FDF714
:107B7000C0FB471C58493846FDF7CCFB3046083857
:107B8000C6B20CE05448FDF7B4FB471C52493846D6
:107B9000FDF7C0FB301FC6B2002E00D036E700BF95
:107BA00001204E49087074E0687A297A000208437F
:107BB000022803D00220494908706AE0281DFDF719
:107BC00098FB40780A2803D005204449087060E0FB
:107BD000002020726072201DFDF78BFB0146607A49
:107BE000237A02021A4300021843401C80B220721A
:107BF000000A607259208854201DFDF77AFB024666
:107C0000607A237A0102194300021843401C80B2B3
:107C10002072000A60720A205054201DFDF769FB93
:107C20000146607A237A02021A4300021843401C7C
:107C300080B22072000A00E027E0607216208854AB
:107C4000582601F0E1F917E0201DFDF752FB02462E
:107C5000607A237A0102194300021843401C80B263
:107C60002072000A60721E480068007850541C4858
:107C70000068401C1A4908603046711ECEB20028C8
:107C8000E2D101201549087003E00420134908706F
:107C900000BF00BF11480078012801D1FEF7C2FAE9
:107CA0000E480078022804D0042807D005280FD1F8
:107CB00009E013211920FEF7D5FE0AE01221192050
:107CC000FEF7D0FE05E031211920FEF7CBFE00E0E3
:107CD00000BF00BFFEBD000003030020FE02002025
:107CE00010030020F8B500250126FDF79DFF04468E
:107CF000FDF7A2FF00904D480088002803DD4C48A6
:107D00004A49088010E004204A49087000204A4986
:107D100008704A480078062803D0484800780728A9
:107D200002D1002045490870607A217A0002084398
:107D3000032801D0022660E03E480078042805D0E0
:107D40003C480078062801D0032656E0201DFDF7A8
:107D5000D0FA40780702201DFDF7CBFA807838185A
:107D600085B23749681A8D4236D00ADC3548281862
:107D7000002838D02C280BD02F280FD0312839D10B
:107D800024E0032816D005281AD0072832D10BE0AA
:107D90000C222D49222000F0D1FC2DE00A222B4993
:107DA000222000F0CBFC27E00A222949222000F003
:107DB000C5FC21E002222749222000F0BFFC1BE085
:107DC00002222549222000F0B9FC15E00E222349A9
:107DD000222000F0B3FC0FE0112220490E312220B6
:107DE00000F0ACFC08E00A221C492831222000F0F7
:107DF000A5FC01E0042600BF00BF022E04D0032E24
:107E000007D0042E0FD109E013212220FEF72AFE0D
:107E10000AE022210846FEF725FE05E03121222056
:107E2000FEF720FE00E000BF00BFF8BDF802002012
:107E300088130000F2020020FA020020F302002062
:107E400090F10000A50EFFFFB6D90000C2D90000D6
:107E5000CCD90000D6D90000D8D90000F408002001
:107E600070B5FDF7E1FE0546FDF7E6FE0646002487
:107E700060480088002803DD5F485E49088010E004
:107E800004205E49087000205D4908705D48007854
:107E9000062803D05B480078072802D10020594902
:107EA0000870687A297A00020843022807D0687AA5
:107EB000297A00020843062801D00F2452E04F48D7
:107EC0000078052805D04D480078062801D00D24FB
:107ED00048E0281DFDF70DFA40784006400E0128C5
:107EE00006D002280FD009281DD00A2837D125E056
:107EF00044480078092801D10A2403E001204049C0
:107F0000087001242DE03E480078012801D00B24A0
:107F100005E03B480178272000F058FD044600208A
:107F2000374908701DE037480078092801D10A2434
:107F300003E0092032490870022412E0304800783A
:107F4000092801D00B2406E003242D4801782720BE
:107F500000F03CFD044600202949087001E00E2491
:107F600000BF00BF230003F003FC1041101141418A
:107F700041090A28212D3217371C3C4100BF2148F6
:107F800004702720FEF7E8FD31E000BF1C480178AF
:107F9000272000F037FC2AE07F212720FEF762FD32
:107FA00025E012212720FEF75DFD20E01548047032
:107FB00036212720FEF756FD19E035212720FEF750
:107FC00051FD14E037212720FEF74CFD0FE024215E
:107FD0002720FEF747FD0AE022212720FEF742FD79
:107FE00005E013212720FEF73DFD00E000BF00BFA4
:107FF00070BD0000F802002088130000F20200208B
:10800000FA020020F302002070B5FDF70DFE0446D1
:10801000FDF712FE0546012070490870704800887F
:10802000002803DD6F486E49088010E004206E4987
:10803000087000206D4908706D480078062803D04C
:108040006B480078072802D1002069490870607ADF
:10805000217A00020843032803D003205F490870F7
:108060006BE061480078062803D004205B49087063
:1080700063E0201DFDF73DF940784006400E0028E2
:1080800006D0012818D002282AD0032850D13BE07E
:10809000201DFDF72EF98078012802D0032805D194
:1080A00000E000BF06204D49087003E002204B4964
:1080B000087000BF00BF3FE0201DFDF71AF980786F
:1080C000012802D0032805D100E000BF0720434962
:1080D000087003E002204149087000BF00BF2BE098
:1080E000201DFDF706F98078012802D0032805D16C
:1080F00000E000BF08203949087003E0022037493A
:10810000087000BF00BF17E0201DFDF7F2F880786F
:10811000012802D0032805D100E000BF09202F4923
:10812000087003E002202D49087000BF00BF03E083
:1081300005202A49087000BF00BF28480078801E2B
:10814000030003F015FB081D050D15252C333A41DE
:1081500003202849087013212820FEF783FC3AE009
:108160000420244908707F212820FEF77BFC32E0A0
:1081700005202049087012212820FEF773FC2AE010
:1081800002201C49087031212820FEF76BFC22E0F8
:108190000620184908702820FEF7DEFC1BE00720A7
:1081A000144908702820FEF7D7FC14E00820114974
:1081B00008702820FEF7D0FC0DE009200D4908705A
:1081C0002820FEF7C9FC06E001200A490870282093
:1081D000FEF7C2FC00BF00BF70BD0000F40200202B
:1081E000F802002088130000F2020020FA020020AA
:1081F000F3020020F0020020FEB5002001900126CD
:10820000FDF712FD0546FDF717FD00907848008840
:10821000002803DD77487649088010E0042076497D
:10822000087000207549087075480078062803D04A
:1082300073480078072802D1002071490870687AD5
:10824000297A00020843032801DC0226A8E06A48D4
:108250000078052805D068480078062801D0032654
:108260009EE0281DFDF745F840780702281DFDF720
:1082700040F88078381880B2019001988C285CD042
:108280006049401800282ED036287DD1687A297A96
:1082900000020843C01E112801D0022622E05848DF
:1082A0000078062805D056480078072801D0052612
:1082B00018E0002408E0281DFDF71BF8E11C415CD4
:1082C00051480155601CC4B2112CF4D32E20FEF786
:1082D0002FFD40224C490E394C4801F023FA00286A
:1082E00000D106265BE0687A297A00020843C01EA6
:1082F000092801D002261FE041480078072801D054
:10830000052619E0002409E0281DFCF7F2FFE11C16
:10831000415C3D4811300155601CC4B2092CF3D3B7
:108320002E20FEF705FD402237490E39374801F06F
:10833000F9F9002800D1062631E0687A297A00028E
:108340000843C01E0E2801D0022625E02C480078E4
:10835000062805D02A480078072801D005261BE00A
:10836000002409E0281DFCF7C4FFE11C415C2648FD
:108370000E380155601CC4B20E2CF3D32E20FEF72C
:10838000D7FC4022204900E007E00E391F4801F0E9
:10839000C9F9002800D1062601E0042600BF00BF6D
:1083A000330003F0E5F907221E050A0F1419220015
:1083B00013212E20FEF756FB18E022212E20FEF777
:1083C00051FB13E031212E20FEF74CFB0EE0332150
:1083D0002E20FEF747FB09E072212E20FEF742FB1C
:1083E00004E02E2000F0C4FB00E000BF00BFFEBD93
:1083F000F802002088130000F2020020FA02002098
:10840000F3020020A60EFFFF02090020C00000407A
:1084100070B5FDF70DFC0446FDF712FC0546344827
:108420000088002802DD3348314908803048008840
:10843000002810DC04203049087000202F49087003
:108440002F480078062803D02D480078072802D14D
:1084500000202B49087001202A490870607A217A8F
:1084600000020843022803D00220264908701EE0BB
:10847000201DFCF73EFF4078002809D0201DFCF7A6
:1084800038FF4078802803D003201E4908700EE092
:10849000201DFCF72EFF4078002803D10520194944
:1084A000087003E001201749087000BF00BF15489D
:1084B0000078030003F05CF90618040F0A0514188D
:1084C00013E07F213E20FEF7CDFA0EE012213E2080
:1084D000FEF7C8FA09E013213E20FEF7C3FA04E0D4
:1084E0003E20FEF739FB00E000BF00BF70BD00007A
:1084F000F802002088130000F2020020FA02002097
:10850000F3020020FC02002070B5012035490870FC
:10851000FDF78AFB0446FDF78FFB054632480088CD
:10852000002803DD31483049088010E0042030493C
:10853000087000202F4908702F480078062803D0C3
:108540002D480078072802D100202B490870607A56
:10855000217A00020843022803D003202149087031
:108560001FE023480078062803D004201D49087026
:1085700017E0201DFCF7BDFE40784006400E0128A4
:1085800002D0022808D103E001201649087007E054
:1085900002201449087003E005201249087000BF4A
:1085A00000BF10480078030003F0E2F80618141327
:1085B00004090E1813218520FEF754FA0FE022213A
:1085C0008520FEF74FFA0AE012218520FEF74AFACD
:1085D00005E000BF8520FEF7BFFA00E000BF00BF46
:1085E00070BD000014030020F80200208813000072
:1085F000F2020020FA020020F3020020F8B506463D
:10860000FDF712FB0546FDF717FB0446281DFCF796
:1086100070FE40788021084080286FD000202072B2
:108620006072201DFCF765FE0246607A237A010223
:10863000194300021843401C80B22072000A607285
:1086400050205054281DFCF754FE407847067F0EFA
:10865000201DFCF74EFE0146607A237A02021A437F
:1086600000021843401C80B22072000A60728F54CE
:10867000201DFCF73EFE0146607A237A02021A436F
:1086800000021843401C80B22072000A6072002071
:108690008854201DFCF72DFE0246607A237A0102E1
:1086A000194300021843401C80B22072000A607215
:1086B00032205054201DFCF71CFE0146607A237ABC
:1086C00002021A4300021843401C80B22072000AC2
:1086D000607201208854201DFCF70BFE0146607A71
:1086E000237A02021A4300021843401C80B220720F
:1086F000000A6072F4208854FDF794FDF8BD70B54F
:108700000546FDF791FAFDF797FA0446002020721E
:108710006072201DFCF7EDFD0146607A237A0202AB
:108720001A4300021843401C80B22072000A607293
:10873000284640308854FDF775FD70BDF7B582B00E
:108740000D461646FDF770FA0190FDF775FA0446DE
:10875000002020726072201DFCF7CBFD0146607A7C
:10876000237A02021A4300021843401C80B220728E
:10877000000A60720298403088540198001DFCF78E
:10878000B8FD4778201DFCF7B4FD0146607A237AD6
:1087900002021A4300021843401C80B22072000AF1
:1087A00060728F540198001DFCF7A3FD8778201D8F
:1087B000FCF79FFD0146607A237A02021A43000209
:1087C0001843401C80B22072000A60728F5413E07C
:1087D000201DFCF78EFD0146607A237A02021A43BF
:1087E00000021843401C80B22072000A6072287890
:1087F00088546D1C701EC6B2002EE9D1FDF712FD23
:1088000005B0F0BDF3B583B00D46FDF70DFA02904B
:10881000FDF712FA0446002600BF05E0FCF796FCBF
:1088200001A98855701CC6B2042EF7DB0020207207
:108830006072201DFCF75DFD0146607A237A02021A
:108840001A4300021843401C80B22072000A607272
:108850000398403088540298001DFCF74AFD407888
:1088600047067F0E201DFCF744FD0146607A237AFF
:1088700002021A4300021843401C80B22072000A10
:1088800060728F544F480078062801D1012D05D021
:108890004C480078072846D1092D44D1201DFCF70B
:1088A00028FD0246607A237A010219430002184328
:1088B000401C80B22072000A607200205054201DBB
:1088C000FCF717FD0146607A237A02021A43000280
:1088D0001843401C80B22072000A60720020885445
:1088E000201DFCF706FD0146607A237A02021A4336
:1088F00000021843401C80B22072000A60720020FF
:108900008854201DFCF7F5FC0146607A237A0202A8
:108910001A4300021843401C80B22072000A6072A1
:10892000002088544AE0002026490870201DFCF7EA
:10893000E0FC0146607A237A02021A4300021843DF
:10894000401C80B22072000A607268460079885428
:10895000201DFCF7CEFC0146607A237A02021A43FE
:1089600000021843401C80B22072000A6072684600
:1089700040798854201DFCF7BCFC0246607A237ABB
:108980000102194300021843401C80B22072000A01
:1089900060720D4800785054201DFCF7AAFC014677
:1089A000607A237A02021A4300021843401C80B204
:1089B0002072000A60726846C0798854FDF732FC64
:1089C00005B0F0BDF3020020FD020020FEB50C460C
:1089D000FDF72AF90546FDF72FF906460027281D61
:1089E000FCF787FC817868460170281DFCF781FC44
:1089F000C17868464170281DFCF77BFC0179684608
:108A00008170281DFCF775FC41796846C170301DE6
:108A1000FCF76FFC8178E420414068460172301D0C
:108A2000FCF767FCC1782F20414068464172301D39
:108A3000FCF75FFC01794520414068468172301D9A
:108A4000FCF757FC4079922148406946C872012CD6
:108A50002CD16846807AF021084001016846C07A2E
:108A6000F0221040014368460171C07A2F2108406E
:108A700081006846407A8007800F01436846417153
:108A8000407AFC21084081106846007AC0221040DC
:108A9000014368468171007A0007010E6846807ABA
:108AA0000007000F01436846C1712DE0092C2BD14E
:108AB0006846807A0007010E6846407A0007000F7A
:108AC000014368460171007A0007010E6846C07ACA
:108AD0000007000F014368464171007AF021084009
:108AE00081106846807AF0221040001101436846E8
:108AF0008171C07AF021084001116846407A104027
:108B0000001101436846C1716846017800798142CD
:108B100016D1684641784079814211D16846817802
:108B2000807981420CD16846C178C079814207D1F1
:108B3000012C01D1062712E0092C10D107270EE0E5
:108B400008480078401C0749087008460078032848
:108B500004DB092704480549088000E00827384657
:108B6000FEBD0000F502002010270000F6020020E4
:108B7000F8B50546FDF758F80646FDF75DF80446DA
:108B8000002020726072201DFCF7B3FB0146607A62
:108B9000237A02021A4300021843401C80B220725A
:108BA000000A6072284640308854301DFCF7A1FB53
:108BB0004778201DFCF79DFB0146607A237A02026C
:108BC0001A4300021843401C80B22072000A6072EF
:108BD0008F54301DFCF78DFB8778201DFCF789FB37
:108BE0000146607A237A02021A4300021843401CAD
:108BF00080B22072000A60728F54FDF713FBF8BD3B
:108C000010B5044601200B49087008464470FF2047
:108C10008870FF210748C1700423002201460648DE
:108C200000F036FC002803D172211920FDF71AFF4D
:108C300010BD00003409002080000040F8B5064651
:108C40000C46174600200090002F23D000251EE080
:108C5000AE421AD12648FCF74CFB21784155641CE2
:108C60002348FCF746FB691C22784254641C2048C8
:108C7000FCF73FFBA91C22784254641C1C48FCF7FB
:108C800038FBE91CCC22425403E0681CC5B2602DBD
:108C9000DEDB1FE000251AE0AE4216D11448FCF7D7
:108CA00028FBFF2141551248FCF723FB691CFF22DA
:108CB00042540F48FCF71DFBA91CFF2242540C48EC
:108CC000FCF717FBE91C465403E0681CC5B2602D95
:108CD000E2DB00BF0648FCF70CFB054604233246E6
:108CE0002946044800F0FEFB00900098F8BD000003
:108CF0003909002000010040F8B505460E46002461
:108D000000278748007801287ED18648C4793178C9
:108D1000017271784172542C66D2FCF7EAFA21464E
:108D2000621C94B22A7842547E48FCF7E2FA21464B
:108D3000621C94B26A7842547A48FCF7DAFA214607
:108D4000621C94B2AA7842547648FCF7D2FA2146C3
:108D5000621C94B244547348FCF7CBFA2146621C5F
:108D600094B2704A127942546E48FCF7C2FA214616
:108D7000621C94B26B4A527942546A48FCF7B9FAC1
:108D80002146621C94B2674A927942546548FCF7C6
:108D9000B0FA2146621C94B2624AD27942546148C8
:108DA000FCF7A7FA01462046621C94B25D4A127A8B
:108DB0000A545C48FCF79DFA01462046621C94B2B6
:108DC000584A527A0A545748FCF793FA2146621CD3
:108DD00094B2FF2242545348FCF78BFA2146621C9E
:108DE00094B2FF2242548DE000204F4908704D4854
:108DF00001790079401C4B4A1071FE2902DD0020E8
:108E000011460871474800E088E04079401CC1B233
:108E1000444841718079401CC1B2424881710021AF
:108E2000C17100248079FE2801DD3E4881713D48F2
:108E3000FCF75FFA01462046621C94B22A780A5475
:108E40003848FCF756FA01462046621C94B26A780C
:108E50000A543448FCF74DFA2146621C94B2AA78B1
:108E600042543048FCF745FA01462046621C94B251
:108E70000C542C48FCF73DFA2146621C94B2294A56
:108E8000127942542748FCF734FA2146621C94B206
:108E9000244A527942542348FCF72BFA01462046D3
:108EA000621C94B21F4A92790A541E48FCF721FAB8
:108EB00001462046621C94B21A4AD2790A541948D3
:108EC000FCF717FA2146621C94B2164A127A4254F1
:108ED0001448FCF70EFA01462046621C94B2114A6F
:108EE000527A0A540F48FCF704FA2146621C94B2E5
:108EF000FF2242540B48FCF7FCF92146621C94B255
:108F0000FF2242540748C471FCF7F3F90C232246B0
:108F100001460090054800F023FB07463846F8BD9F
:108F2000140300203D0900200B03002060010040D5
:108F3000FFB583B005460E46174600240020029078
:108F40002D480078012854D12C480479602C05DB89
:108F5000002400202A490870284908712748FCF796
:108F6000C8F92146621C94B22A7842542348FCF77F
:108F7000C0F92146621C94B26A7842541F48FCF73B
:108F8000B8F92146621C94B2AA7842541B48FCF7F7
:108F9000B0F92146621C94B2FF2242541748FCF7F4
:108FA000A8F92146621C94B246541448FCF7A1F972
:108FB0002146621C94B247541048FCF79AF92146A6
:108FC000621C94B2069A42540C48FCF792F921466E
:108FD000621C94B2FF22425408490C710846FCF707
:108FE00088F90823224601460190064800F0F6FA67
:108FF0000290029807B0F0BD140300200303002084
:109000000C0300204002004010B50020002113E0B6
:10901000032908DAFA4A545C0246431CD8B2F94BD9
:109020001B689C5406E0FF240246431CD8B2F54B53
:109030001B689C544A1CD1B20429E9DB002113E0CF
:10904000032908DAF04A545C0246431CD8B2ED4BBF
:109050001B689C5406E0FF240246431CD8B2E94B2F
:109060001B689C544A1CD1B20429E9DB002113E09F
:10907000032908DAE54A545C0246431CD8B2E14BA6
:109080001B689C5406E0FF240246431CD8B2DD4B0B
:109090001B689C544A1CD1B20429E9DB002113E06F
:1090A000032908DADA4A545C0246431CD8B2D54B8D
:1090B0001B689C5406E0FF240246431CD8B2D14BE7
:1090C0001B689C544A1CD1B20429E9DB002113E03F
:1090D000032908DACF4A545C0246431CD8B2C94B74
:1090E0001B689C5406E0FF240246431CD8B2C54BC3
:1090F0001B689C544A1CD1B20429E9DB002113E00F
:10910000032908DAC44A545C0246431CD8B2BD4B5A
:109110001B689C5406E0FF240246431CD8B2B94B9E
:109120001B689C544A1CD1B20429E9DB002113E0DE
:10913000032908DAB94A545C0246431CD8B2B14B41
:109140001B689C5406E0FF240246431CD8B2AD4B7A
:109150001B689C544A1CD1B20429E9DB002113E0AE
:10916000032908DAAE4A545C0246431CD8B2A54B28
:109170001B689C5406E0FF240246431CD8B2A14B56
:109180001B689C544A1CD1B20429E9DB002113E07E
:10919000032908DAA34A545C0246431CD8B2994B0F
:1091A0001B689C5406E0FF240246431CD8B2954B32
:1091B0001B689C544A1CD1B20429E9DB002113E04E
:1091C000032908DA984A545C0246431CD8B28D4BF6
:1091D0001B689C5406E0FF240246431CD8B2894B0E
:1091E0001B689C544A1CD1B20429E9DB002113E01E
:1091F000032908DA8D4A545C0246431CD8B2814BDD
:109200001B689C5406E0FF240246431CD8B27D4BE9
:109210001B689C544A1CD1B20429E9DB002113E0ED
:10922000032908DA824A545C0246431CD8B2754BC3
:109230001B689C5406E0FF240246431CD8B2714BC5
:109240001B689C544A1CD1B20429E9DB002113E0BD
:10925000032908DA774A545C0246431CD8B2694BAA
:109260001B689C5406E0FF240246431CD8B2654BA1
:109270001B689C544A1CD1B20429E9DB002113E08D
:10928000032908DA6C4A545C0246431CD8B25D4B91
:109290001B689C5406E0FF240246431CD8B2594B7D
:1092A0001B689C544A1CD1B20429E9DB002113E05D
:1092B000032908DA614A545C0246431CD8B2514B78
:1092C0001B689C5406E0FF240246431CD8B24D4B59
:1092D0001B689C544A1CD1B20429E9DB002113E02D
:1092E000032908DA564A545C0246431CD8B2454B5F
:1092F0001B689C5406E0FF240246431CD8B2414B35
:109300001B689C544A1CD1B20429E9DB002113E0FC
:10931000032908DA4B4A545C0246431CD8B2394B45
:109320001B689C5406E0FF240246431CD8B2354B10
:109330001B689C544A1CD1B20429E9DB002113E0CC
:10934000032908DA404A545C0246431CD8B22D4B2C
:109350001B689C5406E0FF240246431CD8B2294BEC
:109360001B689C544A1CD1B20429E9DB002113E09C
:10937000032908DA354A545C0246431CD8B2214B13
:109380001B689C5406E0FF240246431CD8B21D4BC8
:109390001B689C544A1CD1B20429E9DB002113E06C
:1093A000032908DA2A4A545C0246431CD8B2154BFA
:1093B0001B689C5406E0FF240246431CD8B2114BA4
:1093C0001B689C544A1CD1B20429E9DB002113E03C
:1093D000032908DA1F4A545C0246431CD8B2094BE1
:1093E0001B689C5406E0FF240246431CD8B2054B80
:1093F0001B689C544A1CD1B20429E9DB00213FE0E0
:1094000074D900001003002077D900007AD9000039
:109410007DD9000080D9000083D9000086D90000E2
:1094200089D900008CD900008FD9000092D90000A2
:1094300095D9000098D900009BD900009ED9000062
:10944000A1D90000A4D90000A7D90000AAD9000022
:10945000ADD90000B0D90000032908DA0A4A545CEB
:109460000246431CD8B2094B1B689C5406E0FF24FB
:109470000246431CD8B2054B1B689C544A1CD1B20F
:109480000429E9DB10BD0000B3D90000100300205F
:10949000FEB504460E4615461F4600200090701982
:1094A000019000F0FBF8012817D18107611A8904A7
:1094B000080E012103F046FA01280BD160193A4643
:1094C000019903F0E5F9012801D1009007E000209F
:1094D000009004E00020009001E00020009000983F
:1094E000FEBD0000FEB505460E4614461F46002090
:1094F000009000F0D3F8012829D1174800780028FF
:1095000011D101218907691A8904080E012103F08C
:1095100019FA012803D110490870009003E00020D7
:1095200000900098FEBD0D480079A04211D030197E
:10953000019028193A46019903F0AAF9012803D1AC
:1095400006490C71009004E00020009001E000202A
:1095500000900098E6E700000A030020340900208C
:10956000FEB505460E4614461F460020009000F04A
:1095700095F8012829D117480078002811D1012138
:109580008907691A8904080E012103F0DBF9012813
:1095900003D110490870009003E00020009000986B
:1095A000FEBD0D48807AA04211D0019628193A4696
:1095B000019903F06DF9012804D107488472012054
:1095C000009004E00020009001E00020009000984E
:1095D000E6E700000B0300203D090020FEB505462C
:1095E0000E4614461F460020009000F057F8012850
:1095F00029D117480078002811D101218907691A5B
:109600008904080E012103F09DF9012803D11049B6
:109610000870009003E0002000900098FEBD0D4807
:109620004079A04211D0019628193A46019903F0D9
:109630002FF9012804D1074844710120009004E06B
:109640000020009001E0002000900098E6E7000074
:109650000C030020030300200C4800680C4908613B
:109660000A4800680B49884205D208480068081A71
:109670000749886102E000200549886103480068C5
:10968000002802D104480249886170477400002014
:109690000000065050C3000038C7000010B5002479
:1096A00003F038FA002805D003F02AFA002801D088
:1096B000012010BD2046FCE7F0B591B004460D46F0
:1096C00016460027102201A9204603F0BDF8B0007D
:1096D00001A90D50FFF7E2FF012815D18107611A9A
:1096E0008904080E012103F02DF901280AD1102266
:1096F00001A9204603F0CCF8012801D1012704E09C
:10970000002702E0002700E00027384611B0F0BD36
:1097100070B505460E461446A2083146284603F0A9
:1097200093F870BDF7B594B0074614460020139027
:1097300000250190A006800E002802D1A0091390F8
:1097400002E0A009401C139040E0A801201A402824
:1097500018D2102203A9384603F076F8002609E053
:10976000A90115980818B1004058B10003AA50503B
:10977000701CC6B2A801201A8008B042F0D803A815
:10978000029003E0A901159808180290FFF786FFE0
:10979000012817D18107791A8904080E012103F0E5
:1097A000D1F801280BD110223846029903F070F845
:1097B000012801D1019007E00020019004E0002081
:1097C000019001E00020019040376D1C1398854204
:1097D000BBD3019817B0F0BD002099490968002952
:1097E00002D1984A117002E00121964A11709649FF
:1097F000097800290BD195490978002907D19449A6
:109800000978002903D193490978002902D002215F
:109810008C4A11708C4909780C221140002902D120
:109820008D4A117012E088490978042211400029FC
:1098300003D00421884A117008E08349097808227E
:109840001140002902D00821834A11708349097808
:109850000907090E824A11707A4909787E4A1278FE
:1098600011437F4A127811437E4A11707E4909687C
:1098700045297DD37D490978012902DD01217B4AF3
:1098800011707B490978012902DD0121784A1170A4
:1098900078490978012902DD0121764A117076495B
:1098A0000978012902DD0121734A11707349097891
:1098B000012902DD0121714A1170714909780129DC
:1098C00002DD01216E4A11706E490978012902DD1D
:1098D00001216C4A11706C490978012902DD0121CE
:1098E000694A117069490978012902DD0121674A35
:1098F000117067490978012902DD0121644A11705C
:1099000064490978012902DD0121624A1170624926
:109910000978012902DD01215F4A11705F49097848
:10992000012902DD01215D4A11705D490978012993
:1099300002DD01215A4A11705A490978012902DDD4
:109940000121584A117058490978012902DD012185
:10995000554A117055490978012902DD0121534A00
:10996000117053490978012904DD0121504A00E0B2
:1099700064E011704F490978012902DD01214D4A47
:1099800011704D490978012902DD01214A4A1170FF
:109990004A490978012902DD0121484A11704849E4
:1099A0000978012902DD0121454A11702F49097802
:1099B0002F4A127889182F4A127889182E4A12785D
:1099C00089182E4A127889182D4A12788918091890
:1099D000C8B22C4909782C4A127889182B4A127877
:1099E00089182B4A127889182A4A127889182A4A23
:1099F000127889180918C8B228490978284A1278B3
:109A00008918284A12788918274A12788918274A0B
:109A100012788918264A127889180918C8B2254977
:109A20000978254A12788918244A12788918244A14
:109A3000127889180918C8B22249087070470000C6
:109A40007400002008020020100200200D020020F7
:109A50000E0200200F0200200B020020B0000020A8
:109A60000A020020090200208400002004000020D7
:109A7000050000200600002007000020080000204C
:109A8000090000200A0000200B0000200C0000202C
:109A90000D0000200E0000200F000020100000200C
:109AA00011000020120000201300002014000020EC
:109AB00015000020160000201700002018000020CC
:109AC000190000204900002070B50E4802F096FFF2
:109AD00004460C481C3002F091FF05460948483006
:109AE00002F08CFF06462146064802F067FE294632
:109AF00004481C3002F062FE31460248483002F051
:109B00005DFE70BD00000A5001460020114A106041
:109B100018E011480068884200D217E00D4800683C
:109B200080000D4A1058884207D90A480068401C36
:109B300080001058884200D808E006480068401CA1
:109B4000044A106003480068BF28E2D300BF014800
:109B5000006870473002002004D300000146002056
:109B6000114A106018E011480068884200D217E0DE
:109B70000D48006880000D4A1058884207D90A48ED
:109B80000068401C80001058884200D808E0064851
:109B90000068401C044A106003480068DD28E2D3D6
:109BA00000BF0148006870473402002000D6000062
:109BB00000BFFEE710B5BA4800780A2872DBB94842
:109BC000006800286ED0B848007800286AD1B748ED
:109BD00000780028FAD1B64800780028F6D1B548B8
:109BE00000780028F2D1B44800780128EED1B348BB
:109BF0000068B3490968884275D9B14800684100D6
:109C000040184008AD490968884215D8AD48006839
:109C1000FF219131884205D3AA480068401AA9491A
:109C2000086037E1A74800680028FAD0A548006816
:109C30000A38A44908602DE1A14909680D22514361
:109C400008460A21FBF76EFB9C490968884213D835
:109C50009C480068C82805D39A480068C8389949C4
:109C6000086017E1974800680028DAD09548006836
:109C70000A38944908600DE1914909680622514368
:109C800008460521FBF74EFB8C490968884214D829
:109C90008C480068962806D38A4800689638894917
:109CA0000860F7E0F0E0874800680028B9D08548F0
:109CB00000680A3883490860ECE0814909680B2292
:109CC000514308460A21FBF72DFB7C49096888426D
:109CD00014D87C480068502806D37A480068503869
:109CE00078490860D6E049E076480068002898D0B6
:109CF000744800680A3873490860CBE07049096805
:109D00001522514308461421FBF70CFB6B490968E7
:109D1000884213D86B480068282805D36948006832
:109D2000283868490860B5E066480068002898D07F
:109D3000644800680A3863490860ABE06049096814
:109D40006522514308466421FBF7ECFA5B49096838
:109D5000884286D85B480068142805D359480068B3
:109D600014385849086095E056480068002804D027
:109D7000544800680A38534908608BE04F4800682F
:109D80004F490968884215D24E4800684E498842BA
:109D900010D24B4909684A0088180521FBF7C2FA1E
:109DA00046490968884206D346480068FF30F530C6
:109DB000444908606EE042490968CA00501A0A2105
:109DC000FBF7B0FA3D490968884206D33D48006870
:109DD000FF302D303B4908605CE039490968880054
:109DE0000521FBF79FFA35490968884205D33548B4
:109DF0000068C830334908604CE031490968CA003E
:109E000088180A21FBF78EFA2C490968884205D385
:109E10002C48006864302B4908603BE028490968F9
:109E20001322514308461421FBF77CFA23490968A1
:109E3000884205D32348006832302249086029E06F
:109E40001F4909683122514308463221FBF76AFA5B
:109E50001A490968884205D31A480068143019491C
:109E6000086017E0164909686322514308466421D7
:109E7000FBF758FA1149096888420BD3114800686A
:109E80000A301049086005E00120104908700020E0
:109E90000C4908600E4800680949086010BD0000C0
:109EA0004A00002088000020100200200D0200203F
:109EB0000E0200200F020020B000002060000020F1
:109EC000200200207400002050C300002502002062
:109ED0001C020020094880682021084008490860C9
:109EE00008460068002802D000200649086004489F
:109EF0000068002801D104490860704740000A50FA
:109F0000A4000020AC000020A800002010B53848B4
:109F10000068962844D3374800781E2804DA35486C
:109F20000078401C33490870324800780A285EDB0C
:109F3000002031490860314908702D480068DD284B
:109F400055D02F480078022108432D4908702D482C
:109F500001780078401C2B4A1070052947DD104617
:109F60000078401E1146087027480078FEF748FE2A
:109F7000012226494420FEF761FE1D49098888B266
:109F80002146FCF745FB21462048FEF7B5FE1D485B
:109F900003781D48027844211C48FEF7C9FF26E0DB
:109FA000134800688C2822D2144800781E2804DA4E
:109FB00012480078401C11490870104800780A289F
:109FC00015DB00200B4908700D48007802218843FA
:109FD0000B4908700B4801780078401E094A107040
:109FE000002904D1002209494420FEF727FE10BDB4
:109FF000EC000020C800002074000020C9000020F0
:10A000000F0200201500002049000020F3D20000BC
:10A0100010B52C480068002842D12B48006805285C
:10A020003ED32A4800780C2804DA28480078401CDF
:10A0300026490870254800780A2841DB2448007822
:10A04000042108432249087000201E490860214865
:10A0500001780078401C1F4A1070052930DD104639
:10A060000078401E114608701B480078FEF7C8FDB6
:10A0700001221A490020FEF7E1FD1349098888B240
:10A080002146FCF7C5FA21461448FEF735FE114873
:10A0900003781148027800211048FEF749FF0FE0CD
:10A0A00000200A4908700B4801780078401E094AD0
:10A0B0001070002904D1002208491046FEF7BEFDA9
:10A0C00010BD0000740000204C000020B3000020F0
:10A0D000100200200400002049000020C0D200002F
:10A0E00008B534480068002840D1334800781E285D
:10A0F00004DA31480078401C2F4908702E48007857
:10A100000A2856DB00202D4908602D4908702D488B
:10A110000078012108432B4908702B48017800780A
:10A12000401C294A1070052943DD10460078401E66
:10A130001146087025480078FEF762FD0122244987
:10A140001C20FEF77BFD1B49098888B20099FCF7AB
:10A150005FFA69461E48FEF7CFFD1B4803781B488F
:10A1600002781C211A48FEF7E3FE22E0144800782A
:10A170001E2804DA12480078401C11490870104863
:10A1800000780A2815DB00200B4908700D4800787C
:10A19000400840000B4908700B4801780078401EC9
:10A1A000094A1070002904D1002209491C20FEF739
:10A1B00045FD08BDEC000020B80000207400002020
:10A1C000CA0000200E0200200B00002049000020E1
:10A1D000D5D2000008B534480068DD2840D13348A6
:10A1E00000781E2804DA31480078401C2F49087096
:10A1F0002E4800780A2856DB00202D4908702D498A
:10A2000008602D480078022108432B4908702B482C
:10A2100001780078401C294A1070052943DD10465A
:10A220000078401E1146087025480078FEF7E8FCCB
:10A23000012224492020FEF701FD1B49098888B22C
:10A240000099FCF7E5F969461E48FEF755FD1B48E5
:10A2500003781B48027820211A48FEF769FE22E0A5
:10A26000134800781E2804DA11480078401C104971
:10A2700008700F4800780A2815DB00200B49087089
:10A280000D480078022188430B4908700B4801787B
:10A290000078401E094A1070002904D100220949A3
:10A2A0002020FEF7CBFC08BDEC000020B900002008
:10A2B000CB000020740000200E0200200C000020C3
:10A2C00049000020D8D2000010B52E4800682E4961
:10A2D000884245D32D480068052841D22C48007893
:10A2E0001E2804DA2A480078401C294908702848AA
:10A2F00000780A2844DB00202649087026480078A8
:10A30000082108432449087000201E49086023489A
:10A3100001780078401C214A1070052930DD104674
:10A320000078401E114608701D480078FEF768FC52
:10A3300001221C490420FEF781FC1249098888B2D9
:10A340002146FCF765F921461648FEF7D5FC13486F
:10A3500003781348027804211248FEF7E9FD0FE064
:10A3600000200B4908700D4801780078401E0B4A08
:10A370001070002904D100220A490420FEF75EFC77
:10A3800010BD000074000020C8AF00004C00002089
:10A39000B2000020B10000201002002005000020C3
:10A3A00049000020C3D200000022BB210348FFF770
:10A3B00083F9034800F012F8FCF768FD4000004004
:10A3C0001027000010B502F02FFC0446204602F0D2
:10A3D00025FC10BD10B502F02DFA10BD08E00021DB
:10A3E00002E000BF4A1CD1B22029FADB421E90B223
:10A3F0000028F4DC7047000010B57D242402601EA4
:10A400000949884200D90CE0601E084948610321CF
:10A41000081F01F067FA00200449886107200861DD
:10A4200000BF00F08FFE10BDFFFFFF0000E000E066
:10A4300010B5002400BF11E00C2060430949085CFE
:10A44000002809D000210C206043064A11540C2139
:10A450006143891888688047601CC4B2062CEBD31E
:10A4600010BD000054020020002000BF27E00C2196
:10A470004143144A8918498800291ED00C214143C0
:10A4800089184988491E8AB20C2141430D4BC918CD
:10A490004A800C2141431A468918498800290CD169
:10A4A00001220C2141435A540C2141431A46891878
:10A4B0008A880C214143C9184A80411CC8B2062829
:10A4C000D5D370475402002010B534480068C8281E
:10A4D00040D9334800781E2804DA31480078401CFF
:10A4E0002F4908702E4800780A2856DB00202D4995
:10A4F00008602D4908702D480078402108432B49F9
:10A5000008702B4801780078401C294A10700529F2
:10A5100043DD10460078401E11460870254800783B
:10A52000FEF76EFB012224491820FEF787FB1B492A
:10A53000098888B22146FCF76BF821461E48FEF7D1
:10A54000DBFB1B4803781B48027818211A48FEF7EA
:10A55000EFFC22E014480078642804DA12480078FE
:10A56000401C1149087010480078322815DB002083
:10A570000B4908700D480078402188430B4908704A
:10A580000B4801780078401E094A1070002904D158
:10A59000002209491820FEF751FB10BD4C00002095
:10A5A000C200002074000020C30000200D02002023
:10A5B0000A00002049000020D2D2000010B5364821
:10A5C0000068B42840D3354800781E2804DA3348A0
:10A5D0000078401C31490870304800780A285ADB5E
:10A5E00000202F4908602F4908702F48007810215B
:10A5F00008432D4908702D4801780078401C2B4AEB
:10A600001070052947DD10460078401E114608707D
:10A6100027480078FEF7F4FA012226491020FEF7B9
:10A620000DFB1D49098888B22146FBF7F1FF214641
:10A630002048FEF761FB1D4803781D480278102171
:10A640001C48FEF775FC26E013480068A02822D8B5
:10A65000144800781E2804DA12480078401C11497A
:10A660000870104800780A2815DB00200B49087094
:10A670000D480078102188430B4908700B48017879
:10A680000078401E094A1070002904D100220949AF
:10A690001020FEF7D3FA10BD00020020BE000020FB
:10A6A00074000020BF0000200D02002008000020E0
:10A6B00049000020CCD2000008B5344800680028CA
:10A6C00040D1334800781E2804DA31480078401C15
:10A6D0002F4908702E4800780A2856DB00202D49A3
:10A6E00008602D4908702D480078102108432B4937
:10A6F00008702B4801780078401C294A1070052901
:10A7000043DD10460078401E114608702548007849
:10A71000FEF776FA012224492420FEF78FFA1B491E
:10A72000098888B20099FBF773FF69461E48FEF757
:10A73000E3FA1B4803781B48027824211A48FEF7E5
:10A74000F7FB22E0144800781E2804DA124800784B
:10A75000401C11490870104800780A2815DB0020B9
:10A760000B4908700D480078102188430B49087088
:10A770000B4801780078401E094A1070002904D166
:10A78000002209492420FEF759FA08BD14020020CE
:10A79000CE00002074000020CF0000200E02002018
:10A7A0000D00002049000020DBD2000008B534482D
:10A7B0000068BF2840D1334800781E2804DA3148A9
:10A7C0000078401C2F4908702E4800780A2856DB74
:10A7D00000202D4908702D4908602D48007820215F
:10A7E00008432B4908702B4801780078401C294AFF
:10A7F0001070052943DD10460078401E1146087090
:10A8000025480078FEF7FCF9012224492820FEF7AC
:10A8100015FA1B49098888B20099FBF7F9FE6946C9
:10A820001E48FEF769FA1B4803781B480278282166
:10A830001A48FEF77DFB22E0134800781E2804DA50
:10A8400011480078401C104908700F4800780A2809
:10A8500015DB00200B4908700D4800782021884343
:10A860000B4908700B4801780078401E094A1070A7
:10A87000002904D1002209492820FEF7DFF908BD8C
:10A8800014020020D0000020D1000020740000201D
:10A890000E0200200E00002049000020DED2000041
:10A8A00010B538480068962844D3374800781E28E9
:10A8B00004DA35480078401C334908703248007883
:10A8C0000A285EDB002031490860314908702D48B4
:10A8D0000068DD2855D02F480078012108432D4914
:10A8E00008702D4801780078401C2B4A107005290B
:10A8F00047DD10460078401E114608702748007852
:10A90000FEF77EF9012226493C20FEF797F91D4902
:10A91000098888B22146FBF77BFE21462048FEF7D6
:10A92000EBF91D4803781D4802783C211C48FEF7CE
:10A93000FFFA26E0134800688C2822D214480078D9
:10A940001E2804DA12480078401C1149087010488B
:10A9500000780A2815DB00200B4908700D480078A4
:10A96000400840000B4908700B4801780078401EF1
:10A97000094A1070002904D1002209493C20FEF741
:10A980005DF910BD58010020C600002074000020B1
:10A99000C70000200F020020130000204900002003
:10A9A000EDD2000008B534480068002840D1334893
:10A9B00000781E2804DA31480078401C2F490870BE
:10A9C0002E4800780A2856DB00202D4908702D49B2
:10A9D00008602D480078042108432B4908702B4853
:10A9E00001780078401C294A1070052943DD104683
:10A9F0000078401E1146087025480078FEF700F9DF
:10AA0000012224492C20FEF719F91B49098888B234
:10AA10000099FBF7FDFD69461E48FEF76DF91B48DE
:10AA200003781B4802782C211A48FEF781FA22E0AD
:10AA3000134800781E2804DA11480078401C104999
:10AA400008700F4800780A2815DB00200B490870B1
:10AA50000D480078042188430B4908700B480178A1
:10AA60000078401E094A1070002904D100220949CB
:10AA70002C20FEF7E3F808BD58010020BA000020A2
:10AA8000CC000020740000200E0200200F000020E7
:10AA900049000020E1D2000008B534480068DD28F4
:10AAA00040D1334800781E2804DA31480078401C31
:10AAB0002F4908702E480078142856DB00202D49B5
:10AAC00008702D4908602D480078082108432B495B
:10AAD00008702B4801780078401C294A107005291D
