:020000040000FA
:10500000A80F0020BD510000EDA30000C99B0000C7
:105010000000000000000000000000000000000090
:10502000000000000000000000000000E5AF0000EC
:105030000000000000000000DDAB000051B10000E6
:1050400000000000E9AF00000000000000000000C8
:10505000DDA30000A5AB0000ADAB0000B5AB0000C8
:10506000BDAB0000C5AB0000CDAB0000D5AB000070
:105070000000000000000000000000000000000030
:10508000D1AE0000E1AE000051AF00007DAF0000E6
:105090008DAF0000D5AF0000E19A00003D55000043
:1050A00000000000EDAD0000E15B00002D5A0000A3
:1050B000A15A0000C15B0000D9B1000001B200009C
:1050C00000F002F800F032F80CA030C808382418BC
:1050D0002D18A246671EAB4654465D46AC4201D130
:1050E00000F024F87E460F3E0FCCB6460126334230
:1050F00000D0FB1AA246AB46334318479089000004
:10510000B08900000023002400250026103A01D3B6
:1051100078C1FBD8520700D330C100D50B6070476F
:105120001FB500F07DF81FBD10B510BD00F0AAF945
:105130001146FFF7F5FF07F089FD00F0C2F903B44F
:10514000FFF7F2FF03BC00F0C7F9000030B40C49D0
:105150000C684A6823681068C0181060241D121D6E
:105160008C4207D28A4208D20C604A6030BC4000B0
:10517000400870470C00DC3CF6E70A00DC3AF3E735
:10518000400B002070B505460C46164602E00FCCD9
:105190000FC5103E102EFAD2082E02D303CC03C541
:1051A000083E042E07D301CC01C5361F03E0217849
:1051B0002970641C6D1C761EF9D270BD07488047AB
:1051C00007480047FEE7FEE7FEE7FEE7FEE7FEE7EB
:1051D00004480549054A064B70470000D5B1000058
:1051E000C1500000A80B0020A80F0020A80D00202F
:1051F000A80D00200B4A30B511460B4C60310B4610
:10520000DC3B0CC1372106E0020C8D0012185A510C
:10521000064A504300190A46491E002AF4DC30BDF4
:105220000120E7E7E00A0020E119D666CD0D010074
:10523000F8B5042A2CD3830712D00B78491C0370CD
:10524000401C521E83070BD00B78491C0370401C76
:10525000521E830704D00B78491C0370401C521E59
:105260008B079B0F05D0C91ADF002023DE1B08C95E
:105270000AE0FFF787FFF8BD1D4608C9FD401C4640
:10528000B4402C4310C0121F042AF5D2F308C91AE7
:10529000521EF0D40B78491C0370401C521EEAD4F5
:1052A0000B78491C0370401C012AE4D40978017072
:1052B000F8BD01E004C0091F0429FBD28B0701D50A
:1052C0000280801CC90700D00270704700290BD0F3
:1052D000C30702D00270401C491E022904D3830771
:1052E00002D50280801C891EE3E70022EEE700223F
:1052F000DFE70378C2781946437812061B02194388
:105300008378C0781B04194311430902090A000677
:1053100008437047020A08704A70020C8A70020E35
:10532000CA707047002203098B422CD3030A8B42B8
:1053300011D300239C464EE003460B433CD400228D
:1053400043088B4231D303098B421CD3030A8B429F
:1053500001D394463FE0C3098B4201D3CB01C01A6D
:10536000524183098B4201D38B01C01A5241430938
:105370008B4201D34B01C01A524103098B4201D326
:105380000B01C01A5241C3088B4201D3CB00C01A93
:10539000524183088B4201D38B00C01A524143080B
:1053A0008B4201D34B00C01A5241411A00D2014630
:1053B0005241104670475DE0CA0F00D049420310C9
:1053C00000D34042534000229C4603098B422DD318
:1053D000030A8B4212D3FC22890112BA030A8B42C0
:1053E0000CD3890192118B4208D3890192118B420F
:1053F00004D389013AD0921100E08909C3098B4294
:1054000001D3CB01C01A524183098B4201D38B01D6
:10541000C01A524143098B4201D34B01C01A524179
:1054200003098B4201D30B01C01A5241C3088B42BE
:1054300001D3CB00C01A524183088B4201D38B00A9
:10544000C01A5241D9D243088B4201D34B00C01A33
:105450005241411A00D20146634652415B10104648
:1054600001D34042002B00D54942704763465B1090
:1054700000D3404201B50020C046C04602BD70477F
:1054800070477047754600F023F8AE460500694640
:105490005346C008C000854618B020B5FFF798FEF7
:1054A00060BC00274908B6460026C0C5C0C5C0C5B7
:1054B000C0C5C0C5C0C5C0C5C0C5403D49008D46BA
:1054C00070470446C046C0462046FFF738FE00003D
:1054D00000487047480B002001491820ABBEFEE78A
:1054E00026000200704770B58C180578401C6B07C9
:1054F0005B0F01D10378401C2A1106D10278401CB1
:1055000003E00678401C0E70491C5B1EF9D12B0786
:1055100005D40023521E0DD40B70491CFAE7037802
:10552000401CCB1A921C03E01D780D70491C5B1CBB
:10553000521EF9D5A142D8D3002070BD10B506F097
:1055400023FB0446F0480460F0480078092870D036
:1055500006DC00280BD0072850D008286AD198E034
:105560000A2868D00E2867D00F28F7D1ADE1E648A9
:105570000068E74988423BD2E3480068E549086093
:10558000E5480078052804DAE3480078401CE24941
:105590000870E1480078012804D1DE480068DF493E
:1055A000086025E0DC480078022804D1D94800686A
:1055B000DB4908601CE0D8480078032804D1D548AE
:1055C0000068D849086013E0D3480078042804D163
:1055D000D0480068D44908600AE0CF480078052820
:1055E00006D1CC480068D14908600020CA4908703B
:1055F0000720C649087006F087FB83E1C2480068AF
:10560000C34988423FD2C0480068C2490860C848C0
:105610000078052804DAC6480078401CC4490870A0
:10562000C3480078012808D1BA480068C149086019
:1056300029E075E065E1BAE000E1BD4800780228A4
:1056400004D1B4480068BC4908601CE0B848007840
:10565000032804D1AF480068B849086013E0B44893
:105660000078042804D1AB480068B54908600AE016
:10567000AF480078052806D1A6480068B1490860FF
:105680000020AB4908700820A049087006F03CFBD8
:1056900038E19D4800689E4988423BD29A4800689C
:1056A0009C490860A8480078052804DAA6480078D4
:1056B000401CA5490870A4480078012804D19548E9
:1056C0000068A249086025E09F480078022804D1BC
:1056D000904800689E4908601CE09B4800780328B9
:1056E00004D18C4800689B49086013E09648007814
:1056F000042804D187480068974908600AE0924866
:105700000078052806D18348006894490860002085
:105710008D49087009207D49087006F0F5FAF1E01E
:10572000794800687A4988423BD2774800687949CD
:1057300008608B480078052804DA89480078401C06
:105740008749087086480078012804D171480068AC
:105750008449086025E082480078022804D16D4819
:105760000068814908601CE07D480078032804D166
:10577000684800687D49086013E07948007804288B
:1057800004D1644800687A4908600AE074480078E7
:10579000052806D15F4800687649086000207049F6
:1057A00008700A205949087006F0AEFAAAE0564877
:1057B0000068574988423BD2534800685549086001
:1057C0006D480078052804DA6B480078401C6A4967
:1057D000087069480078012804D14E48006867497C
:1057E000086025E064480078022804D14948006830
:1057F000634908601CE060480078032804D14548EC
:1058000000686049086013E05B480078042804D110
:10581000404800685C4908600AE05748007805285D
:1058200006D13C4800685949086000205249087078
:105830000E203649087006F067FA63E032480068C7
:10584000334988423BD230480068324908605048AA
:105850000078052804DA4E480078401C4C4908704E
:105860004B480078012804D12A480068494908605B
:1058700025E047480078022804D1264800684649B8
:1058800008601CE042480078032804D121480068E1
:105890004249086013E03E480078042804D11D48BE
:1058A00000683F4908600AE039480078052806D1B9
:1058B000184800683B4908600020354908700F20EF
:1058C0001249087006F020FA1CE00F4800681049E1
:1058D000884215D20C4800680E49086008460068E6
:1058E000314909788900314A50502F480078401CCE
:1058F0002D49087008460078782801DB00200870E0
:1059000000E000BF00BF10BD1C000020DB00002035
:1059100088130000E8000020DF000020F4000020D1
:10592000F8000020FC0000200001002004010020FD
:10593000E4000020E4010020E8010020EC01002048
:10594000F0010020F4010020DD0000208C01002087
:105950009001002094010020980100209C0100206B
:10596000DE0000207001002074010020780100207A
:105970007C01002080010020E3000020A80100201D
:10598000AC010020B0010020B4010020B8010020CB
:10599000E000002014010020180100201C0100205C
:1059A0002001002024010020E1000020F00300205D
:1059B00010B507F0C1FB04F099FA00F089F810BDAA
:1059C00010B51948006863282DD305F0A1FC00F03C
:1059D0008BFE04F0FBF804F027FB04F081FC05F0DB
:1059E000FFF805F081F904F0F5FD05F013FC04F073
:1059F00077FD04F081FB04F0F9FB04F069FE04F08C
:105A0000E1FE04F0DBFF05F053F804F055FF04F06D
:105A100089FA05F037FE00F00BFE05F007FB03F0F6
:105A2000E7FE03F025FE10BD8400002010B506F04F
:105A300047FD044606F0BCFD80202040002802D02F
:105A4000802006F033FD40202040002804D006F0DE
:105A5000A9FD402006F02AFD20202040002804D087
:105A600006F024FE202006F021FD0820204000281A
:105A700002D0082006F01AFD0420204000280BD098
:105A800006F00EFE80210840802802D10120034943
:105A90000870042006F00AFD10BD00002C03002051
:105AA00010B506F00DFD064806F08CFD01200549F5
:105AB00008700549087000200449087010BD0000F6
:105AC00098030020A00200201A0000202D030020CF
:105AD0002F48007801285AD100202D4908702D4800
:105AE00000682D49884210D12A48807A04280CD1B8
:105AF0002848C07A0A2808D12648007B022804D109
:105B00002448407B552800D100BF22480068234923
:105B100088423CD11F48807A082838D1002020498B
:105B20000870204908701B48007B232148431E4908
:105B300008601848C07A1D49087008460078800738
:105B4000800F022802D10120194908601748007807
:105B50008007800F012802D10020154908600D48F8
:105B6000407B64214843134908600F48006812498C
:105B7000884202D311480C4908600B4800680D495F
:105B80000968884203D90B480068074908607047D4
:105B90001A0000209803002029070000510200008D
:105BA000DA000020180200201C0200208C000020D7
:105BB0008800002068000020FD0C0000581B000039
:105BC00010B506F07DFC022006F070FC034800785A
:105BD000002802D000200149087010BD2D030020CC
:105BE00010B506F06DFC102006F060FC10BD70B51D
:105BF00004460025607A082800D170BD002509E020
:105C000020460E30FFF775FB617A49195522425440
:105C1000681CC5B2607A0821081AA842F0DC082086
:105C2000607200BFE9E7000000487047FA060020F4
:105C3000004870471607002000487047EC06002017
:105C4000004870470807002070B50025002400BFF9
:105C500006E000202449485524494855681C85B26F
:105C6000882DF6DB002406E0002021490855214953
:105C70000855601C84B2082CF6DB1F491A48FFF750
:105C800049FB00201C49091F087248728872C872BB
:105C90001A491648FFF73EFB00201849091F0872F1
:105CA00048728872C87216491148FFF733FB002109
:105CB0001348001F0172417200201149091F8872A8
:105CC000C87210490B48FFF725FB00200D49091F3A
:105CD000087248728872C8720B4908600B490860E4
:105CE00001200B49087070BD24070020AC0700207C
:105CF000AF020020B7020020FE060020F0060020C0
:105D00001A0700200C070020A4020020A80200208F
:105D1000C1020020F8B50546002409200090324950
:105D2000286808603148FFF7E4FA00780607360F64
:105D30002D490A68D17A927A09021143084607214F
:105D4000FFF7FAFA401C0007000FB04249D10124C6
:105D50001EE02648FFF7CDFA075D23480068001DC6
:105D6000FFF7C7FA20490A68D17A927A09021143EB
:105D700047541D480168C87A897A00020843401CCC
:105D800080B2194909688872000AC872601CC4B2DE
:105D9000082C12DA15480E38407AA0420DDD124860
:105DA0000168C87A897A000208430F490A68517A63
:105DB000127A090211438842CBDB0B480168C87A8A
:105DC000897A0002084308490A68517A127A09025E
:105DD0001143884205DB012000900549087000F05E
:105DE000F5F80098F8BD0000A8020020E8060020A1
:105DF000C102002070B5044600BF1448FFF779FACD
:105E000000780007060D1148FFF773FA4078301844
:105E100021680872000A48720D492068086002254E
:105E20000BE00A48FFF765FA465D2168081DFFF799
:105E300060FAA91E4654681CC5B2082DF1DB062085
:105E4000216888720020C87270BD0000E80600203A
:105E5000A8020020704700001CB5FFF7E5FE019086
:105E6000FFF7E6FE00903B480078012803D03A484F
:105E70000078012812D13948FFF73BFA0078041165
:105E8000002C09D1012036490870684600F072F8EC
:105E9000012000F095F800E000BF00BF3148007815
:105EA000012803D030480078012851D12B48FFF752
:105EB00020FA00780411002C06D0012C26D0022CE8
:105EC0003DD0032C42D12FE02448FFF712FA00788E
:105ED0000007000F002818D02048FFF70AFA407882
:105EE0003E2809D101201E490870684600F042F89A
:105EF000012000F065F808E001201C49087001A8A5
:105F000000F038F8012000F061F820E00320174984
:105F1000087001A8FFF76EFF0020154908701149AD
:105F200008701149087012E0FFF794FF02200F4932
:105F3000087000200B4908700B49087007E0012029
:105F40000A49087001A8FFF7E5FE00E000BF00BFA6
:105F50001CBD00009E0200209F020020E8060020D9
:105F6000C00200209C0200209D020020BF020020F1
:105F7000C102002070B5054600BF1048FFF7B9F90F
:105F800000780007000F29680872000A4872002490
:105F90000BE00A48FFF7ADF9611C465C2968081D53
:105FA000FFF7A7F90655601CC4B20448FFF7A1F932
:105FB00000780007000FA042EBDC70BDE80600206F
:105FC0000149087070470000C302002001490870B1
:105FD00070470000C202002010B50024FFF730FE19
:105FE00004460A480078012808D1607A217A000224
:105FF0000843072802DC204600F0D0F900200349BE
:106000000870034908700349087010BDC0020020E1
:106010009E0200209F020020F8B5044600250026BD
:106020002B480468002C4FD0E17AA27A0902114370
:1060300008460721FFF780F9401C07073F0F20376C
:106040002448FFF756F9077000BF17E0201DFFF73F
:1060500050F9E17AA27A09021143475C1D48FFF723
:1060600048F9691C4754E07AA17A00020843401CB1
:1060700080B2A072000AE072681CC5B2072D09DA6E
:10608000E07AA17A00020843617A227A0902114378
:106090008842DBDB681C0F490E394872084600F065
:1060A000ADF9E07AA17A00020843617A227A090206
:1060B0001143884209DB002005490860A072E072A4
:1060C00020726072012600E001263046F8BD000013
:1060D000A4020020D606002070B5044600BF19486F
:1060E000FFF707F90146607A227A000210430F2277
:1060F000120210400014103008701248FFF7F9F82F
:10610000617A227A09021143417000250AE0201DBC
:10611000FFF7EFF8465D0B48FFF7EBF8A91C465474
:10612000681CC5B2062DF2DB0620A0720020E072CA
:10613000082004490E394872084600F05FF9024809
:10614000046070BDD6060020A4020020F8B50A2025
:1061500000903A252F48FFF7CCF80078F02108404E
:106160000011012816D12B48FFF7C3F80078070764
:106170003F0F2848FFF7BDF840783818A84201DDE6
:1061800032240EE024480078002801D1312408E0B0
:10619000302406E020480078002801D1312400E0B6
:1061A0003024A91F88B20721FFF7C6F8002906D1BD
:1061B000A91FC8B20721FFF7BFF8C6B206E0A91FA2
:1061C000C8B20721FFF7B8F8401CC6B21348FFF762
:1061D00090F804701148FFF78CF846700F48FFF7ED
:1061E00088F80099817003200C490E39487200200C
:1061F00048730B48FFF78EF808480E38FFF7F7FC96
:10620000082006490E394872084600F0A3F92046D6
:10621000F8BD0000E8060020A1020020D6060020FC
:10622000A907000010B50024FFF706FD04465448F6
:106230000078012815D1534800880A305149088058
:106240000846008896280CDD4F480078022808D0C0
:1062500000204E490860A072E072207260724849C6
:10626000087049480078012807D04748007803287B
:1062700003D04548007802285ED1607A217A000276
:106280000843002818DD607A217A000208430728B5
:1062900012DC3D48007801280ED13D4800780128E5
:1062A0000AD1204600F07AF80020374908703949B1
:1062B00008703949087062E033480078032809D132
:1062C000FFF744FF00203049087032490870324916
:1062D000087054E0607A217A00020843072815DD2F
:1062E000E07AA17A0002084300280FD12046FFF788
:1062F000F3FE0020244908702649087026490870DA
:106300002049088001201E49087038E01E480078A6
:10631000022834D12046FFF77FFE012806D1002055
:106320001949087017490880154908700020194953
:1063300008701949087022E01348007804280AD12F
:10634000204600F02BF800200F4908701149087012
:106350001149087013E0607A217A0002084300288E
:106360000DDD09480078052809D1204600F016F80F
:10637000002005490870074908700749087010BDDA
:10638000AE020020AC020020BF020020A4020020C8
:10639000C10200209C0200209D02002070B504462E
:1063A00000BF1548FEF7A5FF617A227A0902114362
:1063B000017000250AE0201DFEF79BFF465D0E4898
:1063C000FEF797FF691C4654681CC5B2607A217AB3
:1063D00000020843A842EEDA607A217A00020843FC
:1063E000401C05490E394872002020726072084630
:1063F00000F016F870BD0000D606002010B5044667
:1064000021460648FEF786FF002060732046FFF70E
:10641000EEFB204600F09EF810BD0000A90700002A
:1064200010B5044608490948FEF774FF00200649E4
:106430004873C8720846FFF7DAFB08200249487221
:10644000084600F087F810BDC8060020A907000024
:1064500010B53848007801286BD13748807A374921
:106460004872354908683549FEF754FF002409E0B1
:1064700032480E30FEF73DFF2F490B31095D0155C3
:10648000601CC4B22C48807AA042F1DC2B48FEF795
:1064900030FF2B4988421BD128480E30FEF729FFD8
:1064A000007802280DD125480E30FEF722FF4078F3
:1064B0003E2806D101202349087000202249087097
:1064C00032E00120214908700020214908702BE0AA
:1064D0001A48FEF70EFF1A49B63188421BD11748F9
:1064E0000E30FEF706FF007802280DD113480E305B
:1064F000FEF7FFFE40783E2806D1002011490870C3
:106500000120114908700FE0002010490870012097
:106510000F49087008E000200C4908700C49087009
:106520000849087008490870002002490870FFF700
:1065300093FC10BDA002002098030020DA06002082
:10654000290700009E0200209F0200209C020020DC
:106550009D02002030B585B00546002168460172D5
:106560004172697A81722846FEF7C3FE00900024CA
:1065700009E028460E30FEF7BCFE015D02A803309C
:106580000155601CC4B26846807AA042F1DC09481B
:106590000078012809D1002006490870684606F0F5
:1065A0008FF806F0F1F806F0FDF8012001490870B7
:1065B00005B030BDA102002010B50B490B48FEF715
:1065C000A9FE0B490B48FEF7A5FE00200A490870FA
:1065D0000A4908700A4908700A4908700A4908708F
:1065E00001200A49087010BDD60600204806002088
:1065F000E8060020880600209C0200209D02002062
:106600009E0200209F020020A0020020A102002084
:1066100018B5FF242402044024122402E2B2C3B2BB
:106620000024009469460A70491C0B70491C18BD6F
:1066300010B528480078C82804DA26480078401C9D
:1066400024490870234800780A282EDB2248007865
:106650008021084320490870204801780078401CB8
:106660001E4A1070052933DD10460078401E114681
:1066700008701B48007802F0C3FA012219494C2027
:1066800002F0E2FA1348047829462046FFF7C0FFDB
:106690002946144802F03CFB104803781048027861
:1066A0004C21104802F050FC12E00B480078802189
:1066B000884309490870094801780078401E074A54
:1066C0001070002904D1002206494C2002F0BCFAC7
:1066D00010BD0000180200200D020020170000204D
:1066E0004900002011D3000010B5494800784949FD
:1066F0000870002048490860484908701BE0454878
:106700000078002805DD43480078401E41490870A4
:1067100002E077203F4908703E48007880004049F9
:1067200008583D49096840183B4908603B480078D3
:10673000401C3A490870394800786428DFDBFF21A3
:106740002D3135480068FEF7EDFD364908600968CF
:10675000FF22D432514308463349FEF7E3FD334963
:10676000086008460068324908603248006800281E
:1067700005D108460068012801D8002008600A21D8
:106780002B480068FEF7CEFD2B4801600068052805
:1067900008D30A2126480068FEF7C4FD401C27499B
:1067A000086006E00A2122480068FEF7BBFD234985
:1067B00008601F490968224A1268514308460A21A5
:1067C000FEF7B0FD14490860084600681D490860DE
:1067D00023211C480068FEF7A5FD1B4908600846F8
:1067E0000068642801D964200860184800781428DB
:1067F00004DA16480078401C1449087013480078E1
:10680000052803D12021124806F02CF910BD000004
:10681000E1000020E500002050010020E6000020FB
:10682000F0030020540100204C0400004C01002023
:106830004C00002074000020500000205400002074
:10684000E001002060000020640000204A000020D9
:1068500000000A5010B50E480078012816D1FFF745
:10686000E7F90446201DFEF744FD00783E2802D1DA
:1068700001F0CEFD00E000BF00BF0020FFF7A0FB4D
:106880000020044908700449087000BF10BD0000D2
:10689000C30200209E0200209F02002070B5FFF777
:1068A000C3F9044662480078C01D61490870614818
:1068B00000780A2814DB6048008800280BDC0020E0
:1068C0005D4908805B480078401E5A4908700020E6
:1068D0005A49087004E0584800880A385649088028
:1068E00057480078012811D156480088002808DC54
:1068F0000420554908700020544908704F49087019
:1069000004E0504800880A384E4908805048007812
:10691000012852D14F48007801284ED14E480078C6
:1069200000284AD101204D490870201DFEF7E1FCE6
:10693000007822281ED008DC10280FD0112810D093
:10694000142811D0192824D111E0272818D028287C
:1069500019D02E2811D085281BD117E000F0B8FAE5
:1069600020E000F07BFB1DE000F03EFC1AE000F0B0
:10697000CBFC17E001F0B6F914E001F03DFC11E0AA
:1069800001F06EFA0EE001F03FFB0BE001F0BCFD00
:1069900008E0201DFEF7ADFC05781121284600F027
:1069A00061F800BF00BF03202C4908700020FFF7EA
:1069B0000DFB00202749087039E0254800780128A0
:1069C00035D127480078012831D1234800780028A4
:1069D0002DD1012021490870201DFEF78AFC007886
:1069E00022280DD004DC102807D0112814D10AE089
:1069F00028280BD085280FD10BE000F069FA0CE0B5
:106A000001F070F909E000F029FB06E001F0FCFA62
:106A100003E001F079FD00E000BF00BF03200F4953
:106A200008700020FFF7D2FA00200D49087070BDF1
:106A3000FD020020F5020020F6020020F3020020F3
:106A4000C4020020F8020020F2020020FA02002016
:106A5000C20200209C020020AE020020F1020020B1
:106A60009D02002070B505460E463E2D39D1FFF738
:106A7000E7F80446002020726072201DFEF739FC02
:106A80000146607A237A02021A4300021843401C2E
:106A900080B22072000A60727F208854201DFEF7A9
:106AA00028FC0146607A237A02021A430002184346
:106AB000401C80B22072000A60728D54201DFEF7C7
:106AC00018FC0146607A237A02021A430002184336
:106AD000401C80B22072000A60728E54FFF77CFA6C
:106AE00039E0FFF7A9F80446002020726072201DEB
:106AF000FEF7FFFB0246607A237A01021943000287
:106B00001843401C80B22072000A60727F205054EB
:106B1000201DFEF7EEFB0146607A237A02021A433B
:106B200000021843401C80B22072000A60728D542B
:106B3000201DFEF7DEFB0146607A237A02021A432B
:106B400000021843401C80B22072000A60728E540A
:106B5000FFF768FB00BF70BDF8B505463E2D3BD181
:106B6000FFF766F80646FFF76BF804460020207230
:106B70006072201DFEF7BDFB0146607A237A020297
:106B80001A4300021843401C80B22072000A60724F
:106B9000284640308854301DFEF7ABFB407847064E
:106BA0007F0E201DFEF7A5FB0146607A237A0202C4
:106BB0001A4300021843401C80B22072000A60721F
:106BC0008F54301DFEF795FB4078802108408028C7
:106BD00001D0FFF701FA3BE0FFF726F80646FFF782
:106BE0002BF80446301DFEF784FB407880210840D6
:106BF00080282CD0002020726072201DFEF779FBC7
:106C00000146607A237A02021A4300021843401CAC
:106C100080B22072000A6072284640308854301DCD
:106C2000FEF767FB407847067F0E201DFEF761FBED
:106C30000246607A237A0102194300021843401C7D
:106C400080B22072000A60725754FFF7EBFA00BF5F
:106C5000F8BD000010B50020FFF7B8F90020FFF7DD
:106C6000AFF9002022490870032022490870012052
:106C70002149087000202149087010212048FEF7A2
:106C800034FB20491E48FEF745FB00201E490870D2
:106C900040211E48FEF729FB1D491C48FEF73AFB20
:106CA00000201B490871FF211948417100218171A1
:106CB000C17100201749087060211748FEF715FBC5
:106CC00016491548FEF726FB0020144908710021DB
:106CD00012484171817158211148FEF706FB104896
:106CE0001049086010221049104802F01DFD10BD27
:106CF000DF020020F1020020F00200200A03002041
:106D000048090020390900200B0300205809002001
:106D10003D0900200C0300209809002003030020F7
:106D2000F809002010030020F4080020C0000040F3
:106D300070B50546FEF780FF0446002020726072A1
:106D4000201DFEF7D6FA0146607A237A02021A4322
:106D500000021843401C80B22072000A60727F203B
:106D60008854201DFEF7C5FA0146607A237A020294
:106D70001A4300021843401C80B22072000A60725D
:106D80008D54201DFEF7B5FA0146607A237A02027F
:106D90001A4300021843401C80B22072000A60723D
:106DA000782088547D20C00003F024FBFFF73AFAD6
:106DB0002E2D01D0312D02D101200149087070BD66
:106DC000BF020020F8B5FEF72FFF05462C480078DB
:106DD000012853D12B48007801284FD12A48007848
:106DE00006284BD0284800780A2847D0281DFEF7EF
:106DF00080FA0078312841D1FEF716FF0646FEF7EB
:106E00001BFF0446002020726072201DFEF771FAFD
:106E10000246607A237A0102194300021843401C9B
:106E200080B22072000A60727F205054301DFEF73D
:106E300060FA0778201DFEF75CFA0146607A237A33
:106E400002021A4300021843401C80B22072000A5A
:106E500060728F54201DFEF74CFA0146607A237A47
:106E600002021A4300021843401C80B22072000A3A
:106E7000607278208854FFF7D5F900BFF8BD000094
:106E8000F1020020C2020020FB02002000BF72B607
:106E900000BF00BF00BF00BF00BF00BF00BF00BFFA
:106EA000BFF34F8F00BF00BF00BF07480749C8604E
:106EB00000BF00BF00BFBFF34F8F00BF00BF00BFC8
:106EC00000BF00BFFDE700000400FA0500ED00E090
:106ED000F8B50425FEF7A8FE0646FEF7ADFE04460B
:106EE000707A317A00020843022801D0012552E06D
:106EF000301DFEF7FEF940784006400E012804D010
:106F0000022807D0032843D13AE0042501204B4949
:106F100008703FE04A480078042801D103252EE09C
:106F200000BF002020726072201DFEF7E2F90146CA
:106F3000607A237A02021A4300021843401C80B28E
:106F40002072000A607250208854301DFEF7D1F97B
:106F5000407847067F0E201DFEF7CBF90146607A88
:106F6000237A02021A4300021843401C80B22072A6
:106F7000000A60728F54FFF755F903F021FA09E017
:106F80002F480078052801D1032500E0062501E0FF
:106F9000022500BF00BF2B0004F0F6FB0839050AEC
:106FA0000F141B26313913211020FFF75BFD2FE052
:106FB00012211020FFF756FD2AE022211020FFF7B2
:106FC00051FD25E000201F490870102001F016FB3C
:106FD0001EE01D4800781B4908701C481C490880A9
:106FE000102001F00BFB13E01748007815490870DA
:106FF000164817490880102001F000FB08E01248ED
:10700000007810490870102001F0F8FA00E000BF85
:1070100000BF042D01D0062D0FD1094805700020B6
:107020000C4908700C480078062803D00A480078FC
:10703000072802D1002008490870F8BD1403002079
:10704000F2020020C4020020C202002088130000C7
:10705000F8020020FA020020F302002070B5FEF7CB
:10706000E3FD0546FEF7E8FD044658480088002881
:1070700003DD57485549088010E004205549087041
:1070800000205549087055480078062803D0534819
:107090000078072802D1002050490870687A297AC0
:1070A00000020843022804D013211120FFF7DAFC64
:1070B0008AE0281DFEF71DF940784006400E0128A1
:1070C00004D002283CD0032878D13DE00420414977
:1070D0000870002020726072201DFEF70AF9014638
:1070E000607A237A02021A4300021843401C80B2DD
:1070F0002072000A607251208854281DFEF7F9F8AA
:1071000040784606760E201DFEF7F3F80146607AB9
:10711000237A02021A4300021843401C80B22072F4
:10712000000A60728E54FFF77DF82D4803F062F973
:1071300004202849087001202A490870FFF7A6FE9C
:107140000420244908703EE00420224908700020F1
:1071500020726072201DFEF7CCF80146607A237A17
:1071600002021A4300021843401C80B22072000A37
:10717000607251208854281DFEF7BBF840784606FF
:10718000760E201DFEF7B5F80146607A237A0202DA
:107190001A4300021843401C80B22072000A607239
:1071A0008E54FFF73FF80E4803F024F904200949F4
:1071B000087001200B490870FFF768FE12211120AA
:1071C000FFF750FC00BF00BF70BD0000F8020020B8
:1071D00088130000F2020020FA020020F3020020CF
:1071E0001027000014030020F8B5FEF71DFD05462A
:1071F000FEF722FD0646281DFEF77BF8417868461B
:107200000170281DFEF775F8817868464170281DC9
:10721000FEF76FF8C17868468170687A297A0002B3
:107220000843042803D002203349087042E068462E
:107230000078FF280BD068464078FF2807D06846C2
:107240008078FF2803D003202B49087032E0002407
:1072500018E02A48FEF74DF8FF2101552748FEF7B0
:1072600048F8611CFF2242542448FEF742F8A11C52
:10727000FF2242542148FEF73CF8E11CFF22425411
:10728000201DC4B2602CE4DB1C48FEF732F8044633
:107290006023002221461A4802F006F9002806D190
:1072A0001849087072211420FFF7DCFB02E001206E
:1072B0001149087010480078012815D0022804D020
:1072C000032807D0052813D109E013211420FFF764
:1072D000C9FB0EE022211420FFF7C4FB09E0312195
:1072E0001420FFF7BFFB04E0142001F008FA00E0CF
:1072F00000BF00BFF8BD0000FE02002039090020D9
:10730000000100400A030020FEB500200290002684
:10731000FEF78AFC0546FEF78FFC0446687A297A58
:1073200000020843022803DA0220FE490870FDE348
:10733000FD4800780128FAD1281DFDF7DAFF4078D2
:107340000290029804287BD004DC012807D0022890
:1073500077D178E0062875D00A28F9D1F2E3281D04
:10736000FDF7C7FF8078FF2803D00520ED4908709E
:10737000BDE2ED480078012861D10422EB49EC48D8
:1073800002F0D2F9002020726072201DFDF7B1FFDB
:107390000246607A237A0102194300021843401C16
:1073A00080B22072000A607259205054201DFDF7EF
:1073B000A0FF0246607A237A0102194300021843B3
:1073C000401C80B22072000A607201205054201DBF
:1073D000FDF78FFF0246607A237A0102194300020B
:1073E0001843401C80B22072000A6072FF20505483
:1073F000201DFDF77EFF0146607A237A02021A43C0
:1074000000021843401C80B22072000A6072C74814
:1074100000788854201DFDF76CFF0146607A237ABE
:1074200002021A4300021843401C80B22072000A74
:107430006072BE48407888540120BA49087097E7C6
:1074400076E0FDE354E2281DFDF753FF8078FF2826
:1074500003D00520B34908708AE7B448401DFDF702
:1074600048FF074660223946B148803002F05CF997
:10747000002020726072201DFDF73BFF0146607AFC
:10748000237A02021A4300021843401C80B2207281
:10749000000A607259208854201DFDF72AFF01461A
:1074A000607A237A02021A4300021843401C80B219
:1074B0002072000A607202208854201DFDF719FF17
:1074C0000246607A237A0102194300021843401CE5
:1074D00080B22072000A6072FF205054602621E0C2
:1074E0009248401DFDF705FF07469048401DFDF7F7
:1074F00000FF401C8D49491D0090FDF70BFF3F78B0
:10750000201DFDF7F6FE0146607A237A02021A4337
:1075100000021843401C80B22072000A60728F542F
:10752000701EC6B2002EDBD101207E490870B1E387
:10753000687A297A00020843062803DA022079498A
:107540000870A7E3281DFDF7D4FE8079FF2803D03B
:107550000520744908709DE373480078012878D1AC
:10756000281DFDF7C6FEC17868460171281DFDF78C
:10757000C0FE017968464171281DFDF7BAFE4179C8
:10758000684681716B48FDF7B4FE074660223946B4
:107590006748E03002F0C8F8002020726072201DB9
:1075A000FDF7A7FE0146607A237A02021A43000221
:1075B0001843401C80B22072000A6072592088541F
:1075C000201DFDF796FE0246607A237A01021943D8
:1075D00000021843401C80B22072000A607204202E
:1075E0005054201DFDF785FE0246607A237A010281
:1075F000194300021843401C80B22072000A6072D6
:10760000684600795054201DFDF773FE0146607AEC
:10761000237A02021A4300021843401C80B22072EF
:10762000000A6072684640798854201DFDF761FEAB
:107630000146607A237A02021A4300021843401C72
:1076400080B22072000A6072684680798854602691
:1076500046E14CE13748FDF74CFE07783548FDF729
:1076600048FE401C33490090FDF754FE68460079FF
:10767000874256D12F48FDF73CFE07782D48FDF78D
:1076800038FE401C2B490090FDF744FE68464079C7
:107690008742EED12748FDF72CFE07782548FDF7F5
:1076A00028FE401C23490090FDF734FE684680798F
:1076B0008742DED11F48FDF71CFE0778201DFDF72D
:1076C00018FE0146607A237A02021A430002184328
:1076D000401C80B22072000A60728F541548FDF77A
:1076E00008FE471C13493846FDF714FE1148FDF704
:1076F00000FE0778201DFDF7FCFD0246607A237A24
:107700000102194300021843401C80B22072000A93
:10771000607257540748FDF7ECFD471C0549384691
:107720000AE0D3E0FE020020140300203409002008
:10773000800000403D090020FDF7ECFDFC48FDF70E
:10774000D8FD0778201DFDF7D4FD0246607A237A24
:107750000102194300021843401C80B22072000A43
:1077600060725754F248FDF7C4FD471CF049384693
:10777000FDF7D0FDEE48FDF7BCFD0778201DFDF7B5
:10778000B8FD0246607A237A0102194300021843C9
:10779000401C80B22072000A60725754E448FDF722
:1077A000A8FD471CE2493846FDF7B4FDE048FDF767
:1077B000A0FD0778201DFDF79CFD0246607A237A24
:1077C0000102194300021843401C80B22072000AD3
:1077D00060725754D648FDF78CFD471CD449384693
:1077E000FDF798FDD248FDF784FD0778201DFDF7D1
:1077F00080FD0146607A237A02021A430002184390
:10780000401C80B22072000A60728F54C848FDF795
:1078100070FD471CC6493846FDF77CFDC448FDF79E
:1078200068FD0778201DFDF764FD0246607A237A23
:107830000102194300021843401C80B22072000A62
:1078400060725754BA48FDF754FD471CB849384692
:10785000FDF760FDB648FDF74CFD0778201DFDF7EC
:1078600048FD0146607A237A02021A430002184357
:10787000401C80B22072000A60728F54AC48FDF741
:1078800038FD471CAA493846FDF744FDA848FDF7D6
:1078900030FD0778201DFDF72CFD0146607A237A24
:1078A00002021A4300021843401C80B22072000AF0
:1078B00060728F549E48FDF71CFD471C9C4938465A
:1078C000FDF728FD30460C38C6B20CE09848FDF7AD
:1078D00010FD471C96493846FDF71CFD301FC6B207
:1078E000002E00D0B6E600BF012092490870D1E119
:1078F000687A297A00020843062803DA02208D49B3
:107900000870C7E1281DFDF7F4FC4079FF2803D07B
:10791000052088490870BDE187480078012877D1A3
:10792000281DFDF7E6FC817868460171281DFDF7EA
:10793000E0FCC17868464171281DFDF7DAFC017949
:10794000684681717D48FDF7D4FC074660223946C0
:107950007B4801F0E9FE002020726072201DFDF7D7
:10796000C8FC0146607A237A02021A4300021843D7
:10797000401C80B22072000A607259208854201D79
:10798000FDF7B7FC0246607A237A01021943000230
:107990001843401C80B22072000A607206205054C6
:1079A000201DFDF7A6FC0146607A237A02021A43E5
:1079B00000021843401C80B22072000A60726846C0
:1079C00000798854201DFDF794FC0146607A237AE3
:1079D00002021A4300021843401C80B22072000ABF
:1079E0006072684640798854201DFDF782FC02468B
:1079F000607A237A0102194300021843401C80B2C6
:107A00002072000A60726846807950546026C4E093
:107A1000CAE04A48FDF76DFC07784848FDF769FC65
:107A2000401C46490090FDF775FC68460079874286
:107A30007DD14248FDF75DFC07784048FDF759FCD1
:107A4000401C3E490090FDF765FC6846407987423E
:107A50006DD13A48FDF74DFC07783848FDF749FCF1
:107A6000401C36490090FDF755FC684680798742F6
:107A70005DD13248FDF73DFC0778201DFDF739FC4C
:107A80000146607A237A02021A4300021843401C1E
:107A900080B22072000A60728F542848FDF729FCDA
:107AA000471C26493846FDF735FC2448FDF721FCE4
:107AB0000778201DFDF71DFC0246607A237A01023B
:107AC000194300021843401C80B22072000A607201
:107AD00057541A48FDF70DFC471C18493846FDF766
:107AE00019FC1648FDF705FC0778201DFDF701FC81
:107AF0000146607A237A02021A4300021843401CAE
:107B000080B22072000A60728F540C48FDF7F1FBBE
:107B1000471C0A493846FDF7FDFB0848FDF7E9FB1D
:107B20000778201DFDF7E5FB01460CE0B9E02AE0EF
:107B30003D090020FE020020140300200303002062
:107B40004002004031E0607A237A02021A430002C8
:107B50001843401C80B22072000A60728F545E4845
:107B6000FDF7C7FB471C5C493846FDF7D3FB5A4875
:107B7000FDF7BFFB471C58493846FDF7CBFB3046A5
:107B80000838C6B20CE05448FDF7B3FB471C524915
:107B90003846FDF7BFFB301FC6B2002E00D038E7D5
:107BA00000BF01204D49087074E0687A297A00020C
:107BB0000843022803D00220484908706AE0281DC3
:107BC000FDF797FB40780A2803D005204349087049
:107BD00060E0002020726072201DFDF78AFB0246E3
:107BE000607A237A0102194300021843401C80B2D4
:107BF0002072000A607259205054201DFDF779FB55
:107C00000246607A237A0102194300021843401C9D
:107C100080B22072000A60720A205054201DFDF7C5
:107C200068FB0146607A237A02021A430002184375
:107C3000401C80B22072000A60721620885400E056
:107C400024E0582601F0ECF917E0201DFDF751FB68
:107C50000146607A237A02021A4300021843401C4C
:107C600080B22072000A60721D4800680078885453
:107C70001B480068401C1A4908603046711ECEB28D
:107C80000028E2D101201549087003E004201349BF
:107C9000087000BF00BF11480078012801D1FEF72D
:107CA000C1FA0E480078022804D0042807D005281D
:107CB0000FD109E013211920FEF7D4FE0AE01221AA
:107CC0001920FEF7CFFE05E031211920FEF7CAFE8C
:107CD00000E000BF00BFFEBD03030020FE02002045
:107CE00010030020F8B500250126FDF79DFF04468E
:107CF000FDF7A2FF00904D480088002803DD4C48A6
:107D00004A49088010E004204A49087000204A4986
:107D100008704A480078062803D0484800780728A9
:107D200002D1002045490870607A217A0002084398
:107D3000032801D0022660E03E480078042805D0E0
:107D40003C480078062801D0032656E0201DFDF7A8
:107D5000D0FA40780702201DFDF7CBFA807838185A
:107D600085B23749681A8D4236D00ADC3548281862
:107D7000002838D02C280BD02F280FD0312839D10B
:107D800024E0032816D005281AD0072832D10BE0AA
:107D90000C222D49222000F0D1FC2DE00A222B4993
:107DA000222000F0CBFC27E00A222949222000F003
:107DB000C5FC21E002222749222000F0BFFC1BE085
:107DC00002222549222000F0B9FC15E00E222349A9
:107DD000222000F0B3FC0FE0112220490E312220B6
:107DE00000F0ACFC08E00A221C492831222000F0F7
:107DF000A5FC01E0042600BF00BF022E04D0032E24
:107E000007D0042E0FD109E013212220FEF72AFE0D
:107E10000AE022210846FEF725FE05E03121222056
:107E2000FEF720FE00E000BF00BFF8BDF802002012
:107E300088130000F2020020FA020020F302002062
:107E400090F10000A50EFFFFCED90000DAD90000A6
:107E5000E4D90000EED90000F0D90000F4080020B9
:107E600070B5FDF7E1FE0546FDF7E6FE0646002487
:107E700060480088002803DD5F485E49088010E004
:107E800004205E49087000205D4908705D48007854
:107E9000062803D05B480078072802D10020594902
:107EA0000870687A297A00020843022807D0687AA5
:107EB000297A00020843062801D00F2452E04F48D7
:107EC0000078052805D04D480078062801D00D24FB
:107ED00048E0281DFDF70DFA40784006400E0128C5
:107EE00006D002280FD009281DD00A2837D125E056
:107EF00044480078092801D10A2403E001204049C0
:107F0000087001242DE03E480078012801D00B24A0
:107F100005E03B480178272000F058FD044600208A
:107F2000374908701DE037480078092801D10A2434
:107F300003E0092032490870022412E0304800783A
:107F4000092801D00B2406E003242D4801782720BE
:107F500000F03CFD044600202949087001E00E2491
:107F600000BF00BF230003F00FFC1041101141417E
:107F700041090A28212D3217371C3C4100BF2148F6
:107F800004702720FEF7E8FD31E000BF1C480178AF
:107F9000272000F037FC2AE07F212720FEF762FD32
:107FA00025E012212720FEF75DFD20E01548047032
:107FB00036212720FEF756FD19E035212720FEF750
:107FC00051FD14E037212720FEF74CFD0FE024215E
:107FD0002720FEF747FD0AE022212720FEF742FD79
:107FE00005E013212720FEF73DFD00E000BF00BFA4
:107FF00070BD0000F802002088130000F20200208B
:10800000FA020020F302002070B5FDF70DFE0446D1
:10801000FDF712FE0546012070490870704800887F
:10802000002803DD6F486E49088010E004206E4987
:10803000087000206D4908706D480078062803D04C
:108040006B480078072802D1002069490870607ADF
:10805000217A00020843032803D003205F490870F7
:108060006BE061480078062803D004205B49087063
:1080700063E0201DFDF73DF940784006400E0028E2
:1080800006D0012818D002282AD0032850D13BE07E
:10809000201DFDF72EF98078012802D0032805D194
:1080A00000E000BF06204D49087003E002204B4964
:1080B000087000BF00BF3FE0201DFDF71AF980786F
:1080C000012802D0032805D100E000BF0720434962
:1080D000087003E002204149087000BF00BF2BE098
:1080E000201DFDF706F98078012802D0032805D16C
:1080F00000E000BF08203949087003E0022037493A
:10810000087000BF00BF17E0201DFDF7F2F880786F
:10811000012802D0032805D100E000BF09202F4923
:10812000087003E002202D49087000BF00BF03E083
:1081300005202A49087000BF00BF28480078801E2B
:10814000030003F021FB081D050D15252C333A41D2
:1081500003202849087013212820FEF783FC3AE009
:108160000420244908707F212820FEF77BFC32E0A0
:1081700005202049087012212820FEF773FC2AE010
:1081800002201C49087031212820FEF76BFC22E0F8
:108190000620184908702820FEF7DEFC1BE00720A7
:1081A000144908702820FEF7D7FC14E00820114974
:1081B00008702820FEF7D0FC0DE009200D4908705A
:1081C0002820FEF7C9FC06E001200A490870282093
:1081D000FEF7C2FC00BF00BF70BD0000F40200202B
:1081E000F802002088130000F2020020FA020020AA
:1081F000F3020020F0020020FEB5002001900126CD
:10820000FDF712FD0546FDF717FD00907848008840
:10821000002803DD77487649088010E0042076497D
:10822000087000207549087075480078062803D04A
:1082300073480078072802D1002071490870687AD5
:10824000297A00020843032801DC0226A8E06A48D4
:108250000078052805D068480078062801D0032654
:108260009EE0281DFDF745F840780702281DFDF720
:1082700040F88078381880B2019001988C285CD042
:108280006049401800282ED036287DD1687A297A96
:1082900000020843C01E112801D0022622E05848DF
:1082A0000078062805D056480078072801D0052612
:1082B00018E0002408E0281DFDF71BF8E11C415CD4
:1082C00051480155601CC4B2112CF4D32E20FEF786
:1082D0002FFD40224C490E394C4801F02FFA00285E
:1082E00000D106265BE0687A297A00020843C01EA6
:1082F000092801D002261FE041480078072801D054
:10830000052619E0002409E0281DFCF7F2FFE11C16
:10831000415C3D4811300155601CC4B2092CF3D3B7
:108320002E20FEF705FD402237490E39374801F06F
:1083300005FA002800D1062631E0687A297A000281
:108340000843C01E0E2801D0022625E02C480078E4
:10835000062805D02A480078072801D005261BE00A
:10836000002409E0281DFCF7C4FFE11C415C2648FD
:108370000E380155601CC4B20E2CF3D32E20FEF72C
:10838000D7FC4022204900E007E00E391F4801F0E9
:10839000D5F9002800D1062601E0042600BF00BF61
:1083A000330003F0F1F907221E050A0F1419220009
:1083B00013212E20FEF756FB18E022212E20FEF777
:1083C00051FB13E031212E20FEF74CFB0EE0332150
:1083D0002E20FEF747FB09E072212E20FEF742FB1C
:1083E00004E02E2000F0C4FB00E000BF00BFFEBD93
:1083F000F802002088130000F2020020FA02002098
:10840000F3020020A60EFFFF02090020C00000407A
:1084100070B5FDF70DFC0446FDF712FC0546344827
:108420000088002802DD3348314908803048008840
:10843000002810DC04203049087000202F49087003
:108440002F480078062803D02D480078072802D14D
:1084500000202B49087001202A490870607A217A8F
:1084600000020843022803D00220264908701EE0BB
:10847000201DFCF73EFF4078002809D0201DFCF7A6
:1084800038FF4078802803D003201E4908700EE092
:10849000201DFCF72EFF4078002803D10520194944
:1084A000087003E001201749087000BF00BF15489D
:1084B0000078030003F068F90618040F0A05141881
:1084C00013E07F213E20FEF7CDFA0EE012213E2080
:1084D000FEF7C8FA09E013213E20FEF7C3FA04E0D4
:1084E0003E20FEF739FB00E000BF00BF70BD00007A
:1084F000F802002088130000F2020020FA02002097
:10850000F3020020FC02002070B5012035490870FC
:10851000FDF78AFB0446FDF78FFB054632480088CD
:10852000002803DD31483049088010E0042030493C
:10853000087000202F4908702F480078062803D0C3
:108540002D480078072802D100202B490870607A56
:10855000217A00020843022803D003202149087031
:108560001FE023480078062803D004201D49087026
:1085700017E0201DFCF7BDFE40784006400E0128A4
:1085800002D0022808D103E001201649087007E054
:1085900002201449087003E005201249087000BF4A
:1085A00000BF10480078030003F0EEF8061814131B
:1085B00004090E1813218520FEF754FA0FE022213A
:1085C0008520FEF74FFA0AE012218520FEF74AFACD
:1085D00005E000BF8520FEF7BFFA00E000BF00BF46
:1085E00070BD000014030020F80200208813000072
:1085F000F2020020FA020020F3020020F8B506463D
:10860000FDF712FB0546FDF717FB0446281DFCF796
:1086100070FE40788021084080286FD000202072B2
:108620006072201DFCF765FE0246607A237A010223
:10863000194300021843401C80B22072000A607285
:1086400050205054281DFCF754FE407847067F0EFA
:10865000201DFCF74EFE0146607A237A02021A437F
:1086600000021843401C80B22072000A60728F54CE
:10867000201DFCF73EFE0146607A237A02021A436F
:1086800000021843401C80B22072000A6072002071
:108690008854201DFCF72DFE0246607A237A0102E1
:1086A000194300021843401C80B22072000A607215
:1086B00032205054201DFCF71CFE0146607A237ABC
:1086C00002021A4300021843401C80B22072000AC2
:1086D000607201208854201DFCF70BFE0146607A71
:1086E000237A02021A4300021843401C80B220720F
:1086F000000A6072F4208854FDF794FDF8BD70B54F
:108700000546FDF791FAFDF797FA0446002020721E
:108710006072201DFCF7EDFD0146607A237A0202AB
:108720001A4300021843401C80B22072000A607293
:10873000284640308854FDF775FD70BDF7B582B00E
:108740000D461646FDF770FA0190FDF775FA0446DE
:10875000002020726072201DFCF7CBFD0146607A7C
:10876000237A02021A4300021843401C80B220728E
:10877000000A60720298403088540198001DFCF78E
:10878000B8FD4778201DFCF7B4FD0146607A237AD6
:1087900002021A4300021843401C80B22072000AF1
:1087A00060728F540198001DFCF7A3FD8778201D8F
:1087B000FCF79FFD0146607A237A02021A43000209
:1087C0001843401C80B22072000A60728F5413E07C
:1087D000201DFCF78EFD0146607A237A02021A43BF
:1087E00000021843401C80B22072000A6072287890
:1087F00088546D1C701EC6B2002EE9D1FDF712FD23
:1088000005B0F0BDF3B583B00D46FDF70DFA02904B
:10881000FDF712FA0446002600BF05E0FCF796FCBF
:1088200001A98855701CC6B2042EF7DB0020207207
:108830006072201DFCF75DFD0146607A237A02021A
:108840001A4300021843401C80B22072000A607272
:108850000398403088540298001DFCF74AFD407888
:1088600047067F0E201DFCF744FD0146607A237AFF
:1088700002021A4300021843401C80B22072000A10
:1088800060728F544F480078062801D1012D05D021
:108890004C480078072846D1092D44D1201DFCF70B
:1088A00028FD0246607A237A010219430002184328
:1088B000401C80B22072000A607200205054201DBB
:1088C000FCF717FD0146607A237A02021A43000280
:1088D0001843401C80B22072000A60720020885445
:1088E000201DFCF706FD0146607A237A02021A4336
:1088F00000021843401C80B22072000A60720020FF
:108900008854201DFCF7F5FC0146607A237A0202A8
:108910001A4300021843401C80B22072000A6072A1
:10892000002088544AE0002026490870201DFCF7EA
:10893000E0FC0146607A237A02021A4300021843DF
:10894000401C80B22072000A607268460079885428
:10895000201DFCF7CEFC0146607A237A02021A43FE
:1089600000021843401C80B22072000A6072684600
:1089700040798854201DFCF7BCFC0246607A237ABB
:108980000102194300021843401C80B22072000A01
:1089900060720D4800785054201DFCF7AAFC014677
:1089A000607A237A02021A4300021843401C80B204
:1089B0002072000A60726846C0798854FDF732FC64
:1089C00005B0F0BDF3020020FD020020FEB50C460C
:1089D000FDF72AF90546FDF72FF906460027281D61
:1089E000FCF787FC817868460170281DFCF781FC44
:1089F000C17868464170281DFCF77BFC0179684608
:108A00008170281DFCF775FC41796846C170301DE6
:108A1000FCF76FFC8178E420414068460172301D0C
:108A2000FCF767FCC1782F20414068464172301D39
:108A3000FCF75FFC01794520414068468172301D9A
:108A4000FCF757FC4079922148406946C872012CD6
:108A50002CD16846807AF021084001016846C07A2E
:108A6000F0221040014368460171C07A2F2108406E
:108A700081006846407A8007800F01436846417153
:108A8000407AFC21084081106846007AC0221040DC
:108A9000014368468171007A0007010E6846807ABA
:108AA0000007000F01436846C1712DE0092C2BD14E
:108AB0006846807A0007010E6846407A0007000F7A
:108AC000014368460171007A0007010E6846C07ACA
:108AD0000007000F014368464171007AF021084009
:108AE00081106846807AF0221040001101436846E8
:108AF0008171C07AF021084001116846407A104027
:108B0000001101436846C1716846017800798142CD
:108B100016D1684641784079814211D16846817802
:108B2000807981420CD16846C178C079814207D1F1
:108B3000012C01D1062712E0092C10D107270EE0E5
:108B400008480078401C07490870084600780A2841
:108B500004DB092704480549088000E00827384657
:108B6000FEBD0000F502002010270000F6020020E4
:108B7000F8B50546FDF758F80646FDF75DF80446DA
:108B8000002020726072201DFCF7B3FB0146607A62
:108B9000237A02021A4300021843401C80B220725A
:108BA000000A6072284640308854301DFCF7A1FB53
:108BB0004778201DFCF79DFB0146607A237A02026C
:108BC0001A4300021843401C80B22072000A6072EF
:108BD0008F54301DFCF78DFB8778201DFCF789FB37
:108BE0000146607A237A02021A4300021843401CAD
:108BF00080B22072000A60728F54FDF713FBF8BD3B
:108C000010B5044601200D49087008464470FF2045
:108C10008870FF210948C1700948007801280BD1EC
:108C2000042300220549074800F03EFC002803D138
:108C300072211920FDF716FF10BD00003409002035
:108C40001403002080000040F8B506460C46174685
:108C5000002000902B480078012850D1002F23D00D
:108C600000251EE0AE421AD12748FCF742FB2178CE
:108C70004155641C2448FCF73CFB691C2278425493
:108C8000641C2148FCF735FBA91C22784254641C63
:108C90001D48FCF72EFBE91CCC22425403E0681C63
:108CA000C5B2602DDEDB1FE000251AE0AE4216D112
:108CB0001548FCF71EFBFF2141551348FCF719FB33
:108CC000691CFF2242541048FCF713FBA91CFF2229
:108CD00042540D48FCF70DFBE91C465403E0681CA8
:108CE000C5B2602DE2DB00BF0748FCF702FB05467A
:108CF000042332462946054800F000FC0090009805
:108D0000F8BD0000140300203909002000010040D4
:108D1000F8B505460E46002400278748007801284C
:108D20007ED18648C4793178017271784172542CB1
:108D300066D2FCF7DEFA2146621C94B22A784254CD
:108D40007E48FCF7D6FA2146621C94B26A784254F7
:108D50007A48FCF7CEFA2146621C94B2AA784254B3
:108D60007648FCF7C6FA2146621C94B24454734814
:108D7000FCF7BFFA2146621C94B2704A1279425441
:108D80006E48FCF7B6FA2146621C94B26B4A5279DF
:108D900042546A48FCF7ADFA2146621C94B2674A15
:108DA000927942546548FCF7A4FA2146621C94B2B9
:108DB000624AD27942546148FCF79BFA0146204648
:108DC000621C94B25D4A127A0A545C48FCF791FA2C
:108DD00001462046621C94B2584A527A0A545748B7
:108DE000FCF787FA2146621C94B2FF224254534892
:108DF000FCF77FFA2146621C94B2FF2242548DE0B8
:108E000000204F4908704D4801790079401C4B4AB9
:108E10001071FE2902DD002011460871474800E06C
:108E200088E04079401CC1B2444841718079401CBF
:108E3000C1B2424881710021C17100248079FE28AD
:108E400001DD3E4881713D48FCF753FA014620465A
:108E5000621C94B22A780A543848FCF74AFA014650
:108E60002046621C94B26A780A543448FCF741FAEE
:108E70002146621C94B2AA7842543048FCF739FA71
:108E800001462046621C94B20C542C48FCF731FA7F
:108E90002146621C94B2294A127942542748FCF7B1
:108EA00028FA2146621C94B2244A5279425423483B
:108EB000FCF71FFA01462046621C94B21F4A9279C1
:108EC0000A541E48FCF715FA01462046621C94B26B
:108ED0001A4AD2790A541948FCF70BFA2146621C47
:108EE00094B2164A127A42541448FCF702FA014628
:108EF0002046621C94B2114A527A0A540F48FCF779
:108F0000F8F92146621C94B2FF2242540B48FCF748
:108F1000F0F92146621C94B2FF2242540748C47102
:108F2000FCF7E7F90C23224601460090054800F0C3
:108F300023FB07463846F8BD140300203D090020F6
:108F40000B03002060010040FFB583B005460E46CC
:108F500017460024002002902D480078012854D1A3
:108F60002C480479602C05DB002400202A49087075
:108F7000284908712748FCF7BCF92146621C94B2C5
:108F80002A7842542348FCF7B4F92146621C94B273
:108F90006A7842541F48FCF7ACF92146621C94B22F
:108FA000AA7842541B48FCF7A4F92146621C94B2EB
:108FB000FF2242541748FCF79CF92146621C94B2E8
:108FC00046541448FCF795F92146621C94B2475464
:108FD0001048FCF78EF92146621C94B2069A42545E
:108FE0000C48FCF786F92146621C94B2FF224254D9
:108FF00008490C710846FCF77CF908232246014613
:109000000190064800F0F6FA0290029807B0F0BD11
:1090100014030020030300200C0300204002004042
:1090200010B50020002113E0032908DAFA4A545C45
:109030000246431CD8B2F94B1B689C5406E0FF243F
:109040000246431CD8B2F54B1B689C544A1CD1B253
:109050000429E9DB002113E0032908DAF04A545C13
:109060000246431CD8B2ED4B1B689C5406E0FF241B
:109070000246431CD8B2E94B1B689C544A1CD1B22F
:109080000429E9DB002113E0032908DAE54A545CEE
:109090000246431CD8B2E14B1B689C5406E0FF24F7
:1090A0000246431CD8B2DD4B1B689C544A1CD1B20B
:1090B0000429E9DB002113E0032908DADA4A545CC9
:1090C0000246431CD8B2D54B1B689C5406E0FF24D3
:1090D0000246431CD8B2D14B1B689C544A1CD1B2E7
:1090E0000429E9DB002113E0032908DACF4A545CA4
:1090F0000246431CD8B2C94B1B689C5406E0FF24AF
:109100000246431CD8B2C54B1B689C544A1CD1B2C2
:109110000429E9DB002113E0032908DAC44A545C7E
:109120000246431CD8B2BD4B1B689C5406E0FF248A
:109130000246431CD8B2B94B1B689C544A1CD1B29E
:109140000429E9DB002113E0032908DAB94A545C59
:109150000246431CD8B2B14B1B689C5406E0FF2466
:109160000246431CD8B2AD4B1B689C544A1CD1B27A
:109170000429E9DB002113E0032908DAAE4A545C34
:109180000246431CD8B2A54B1B689C5406E0FF2442
:109190000246431CD8B2A14B1B689C544A1CD1B256
:1091A0000429E9DB002113E0032908DAA34A545C0F
:1091B0000246431CD8B2994B1B689C5406E0FF241E
:1091C0000246431CD8B2954B1B689C544A1CD1B232
:1091D0000429E9DB002113E0032908DA984A545CEA
:1091E0000246431CD8B28D4B1B689C5406E0FF24FA
:1091F0000246431CD8B2894B1B689C544A1CD1B20E
:109200000429E9DB002113E0032908DA8D4A545CC4
:109210000246431CD8B2814B1B689C5406E0FF24D5
:109220000246431CD8B27D4B1B689C544A1CD1B2E9
:109230000429E9DB002113E0032908DA824A545C9F
:109240000246431CD8B2754B1B689C5406E0FF24B1
:109250000246431CD8B2714B1B689C544A1CD1B2C5
:109260000429E9DB002113E0032908DA774A545C7A
:109270000246431CD8B2694B1B689C5406E0FF248D
:109280000246431CD8B2654B1B689C544A1CD1B2A1
:109290000429E9DB002113E0032908DA6C4A545C55
:1092A0000246431CD8B25D4B1B689C5406E0FF2469
:1092B0000246431CD8B2594B1B689C544A1CD1B27D
:1092C0000429E9DB002113E0032908DA614A545C30
:1092D0000246431CD8B2514B1B689C5406E0FF2445
:1092E0000246431CD8B24D4B1B689C544A1CD1B259
:1092F0000429E9DB002113E0032908DA564A545C0B
:109300000246431CD8B2454B1B689C5406E0FF2420
:109310000246431CD8B2414B1B689C544A1CD1B234
:109320000429E9DB002113E0032908DA4B4A545CE5
:109330000246431CD8B2394B1B689C5406E0FF24FC
:109340000246431CD8B2354B1B689C544A1CD1B210
:109350000429E9DB002113E0032908DA404A545CC0
:109360000246431CD8B22D4B1B689C5406E0FF24D8
:109370000246431CD8B2294B1B689C544A1CD1B2EC
:109380000429E9DB002113E0032908DA354A545C9B
:109390000246431CD8B2214B1B689C5406E0FF24B4
:1093A0000246431CD8B21D4B1B689C544A1CD1B2C8
:1093B0000429E9DB002113E0032908DA2A4A545C76
:1093C0000246431CD8B2154B1B689C5406E0FF2490
:1093D0000246431CD8B2114B1B689C544A1CD1B2A4
:1093E0000429E9DB002113E0032908DA1F4A545C51
:1093F0000246431CD8B2094B1B689C5406E0FF246C
:109400000246431CD8B2054B1B689C544A1CD1B27F
:109410000429E9DB00213FE08CD900001003002083
:109420008FD9000092D9000095D9000098D900008A
:109430009BD900009ED90000A1D90000A4D900004A
:10944000A7D90000AAD90000ADD90000B0D900000A
:10945000B3D90000B6D90000B9D90000BCD90000CA
:10946000BFD90000C2D90000C5D90000C8D900008A
:10947000032908DA0A4A545C0246431CD8B2094B55
:109480001B689C5406E0FF240246431CD8B2054BDF
:109490001B689C544A1CD1B20429E9DB10BD0000B2
:1094A000CBD9000010030020FEB504460E46154639
:1094B0001F46002000907019019000F0FBF8012871
:1094C00017D18107611A8904080E012103F046FAB9
:1094D00001280BD160193A46019903F0E5F90128FA
:1094E00001D1009007E00020009004E000200090EF
:1094F00001E0002000900098FEBD0000FEB505468A
:109500000E4614461F460020009000F0D3F80128B4
:1095100029D117480078002811D101218907691A3B
:109520008904080E012103F019FA012803D110491A
:109530000870009003E0002000900098FEBD0D48E8
:109540000079A04211D03019019028193A460199AA
:1095500003F0AAF9012803D106490C71009004E038
:109560000020009001E0002000900098E6E7000055
:109570000A03002034090020FEB505460E461446B5
:109580001F460020009000F095F8012829D11748C7
:109590000078002811D101218907691A8904080E71
:1095A000012103F0DBF9012803D110490870009074
:1095B00003E0002000900098FEBD0D48807AA04294
:1095C00011D0019628193A46019903F06DF9012846
:1095D00004D1074884720120009004E0002000902C
:1095E00001E0002000900098E6E700000B03002057
:1095F0003D090020FEB505460E4614461F460020D4
:10960000009000F057F8012829D117480078002869
:1096100011D101218907691A8904080E012103F07B
:109620009DF9012803D110490870009003E0002043
:1096300000900098FEBD0D484079A04211D00196DF
:1096400028193A46019903F02FF9012804D1074857
:1096500044710120009004E00020009001E000200F
:1096600000900098E6E700000C03002003030020B0
:109670000C4800680C4908610A4800680B49884298
:1096800005D208480068081A0749886102E00020EE
:109690000549886103480068002802D1044802494E
:1096A00088617047740000200000065050C300001D
:1096B00038C7000010B5002403F038FA002805D0A0
:1096C00003F02AFA002801D0012010BD2046FCE753
:1096D000F0B591B004460D4616460027102201A9A8
:1096E000204603F0BDF8B00001A90D50FFF7E2FFDE
:1096F000012815D18107611A8904080E012103F0A0
:109700002DF901280AD1102201A9204603F0CCF836
:10971000012801D1012704E0002702E0002700E032
:109720000027384611B0F0BD70B505460E46144608
:10973000A2083146284603F093F870BDF7B594B0FF
:10974000074614460020139000250190A006800EC5
:10975000002802D1A009139002E0A009401C139038
:1097600040E0A801201A402818D2102203A9384648
:1097700003F076F8002609E0A90115980818B10051
:109780004058B10003AA5050701CC6B2A801201A5C
:109790008008B042F0D803A8029003E0A901159810
:1097A00008180290FFF786FF012817D18107791A60
:1097B0008904080E012103F0D1F801280BD11022F1
:1097C0003846029903F070F8012801D1019007E0B2
:1097D0000020019004E00020019001E000200190B1
:1097E00040376D1C13988542BBD3019817B0F0BD6C
:1097F000002099490968002902D1984A117002E0B5
:109800000121964A11709649097800290BD1954992
:109810000978002907D194490978002903D193498F
:109820000978002902D002218C4A11708C490978EC
:109830000C221140002902D18D4A117012E0884992
:10984000097804221140002903D00421884A1170AC
:1098500008E08349097808221140002902D0082134
:10986000834A1170834909780907090E824A1170E9
:109870007A4909787E4A127811437F4A1278114357
:109880007E4A11707E49096845297DD37D49097852
:10989000012902DD01217B4A11707B4909780129E8
:1098A00002DD0121784A117078490978012902DD29
:1098B0000121764A117076490978012902DD0121DA
:1098C000734A117073490978012902DD0121714A37
:1098D000117071490978012902DD01216E4A117068
:1098E0006E490978012902DD01216C4A11706C4929
:1098F0000978012902DD0121694A11706949097855
:10990000012902DD0121674A11706749097801299F
:1099100002DD0121644A117064490978012902DDE0
:109920000121624A117062490978012902DD012191
:109930005F4A11705F490978012902DD01215D4A02
:1099400011705D490978012902DD01215A4A11701F
:109950005A490978012902DD0121584A11705849F4
:109960000978012902DD0121554A1170554909780C
:10997000012902DD0121534A117053490978012957
:1099800004DD0121504A00E064E011704F4909787C
:10999000012902DD01214D4A11704D490978012943
:1099A00002DD01214A4A11704A490978012902DD84
:1099B0000121484A117048490978012902DD012135
:1099C000454A11702F4909782F4A127889182F4A71
:1099D000127889182E4A127889182E4A1278891816
:1099E0002D4A127889180918C8B22C4909782C4ACE
:1099F000127889182B4A127889182B4A12788918FC
:109A00002A4A127889182A4A127889180918C8B27D
:109A100028490978284A12788918284A127889181A
:109A2000274A12788918274A12788918264A127804
:109A300089180918C8B225490978254A1278891861
:109A4000244A12788918244A127889180918C8B249
:109A500022490870704700007400002008020020AE
:109A6000100200200D0200200E0200200F02002034
:109A70000B020020B00000200A0200200902002092
:109A800084000020040000200500002006000020C3
:109A90000700002008000020090000200A00002024
:109AA0000B0000200C0000200D0000200E00002004
:109AB0000F000020100000201100002012000020E4
:109AC00013000020140000201500002016000020C4
:109AD0001700002018000020190000204900002075
:109AE00070B50E4802F096FF04460C481C3002F098
:109AF00091FF05460948483002F08CFF0646214692
:109B0000064802F067FE294604481C3002F062FE57
:109B100031460248483002F05DFE70BD00000A5038
:109B200001460020114A106018E011480068884280
:109B300000D217E00D48006880000D4A1058884296
:109B400007D90A480068401C80001058884200D895
:109B500008E006480068401C044A1060034800689A
:109B6000BF28E2D300BF01480068704730020020E0
:109B70001CD3000001460020114A106018E0114873
:109B80000068884200D217E00D48006880000D4A46
:109B90001058884207D90A480068401C80001058B5
:109BA000884200D808E006480068401C044A10605B
:109BB00003480068DD28E2D300BF01480068704711
:109BC0003402002018D6000000BFFEE710B5BA48E6
:109BD00000780A2872DBB948006800286ED0B848BF
:109BE000007800286AD1B74800780028FAD1B64832
:109BF00000780028F6D1B54800780028F2D1B448A2
:109C000000780128EED1B3480068B349096888425A
:109C100075D9B1480068410040184008AD4909684D
:109C2000884215D8AD480068FF219131884205D39C
:109C3000AA480068401AA949086037E1A7480068A7
:109C40000028FAD0A54800680A38A44908602DE128
:109C5000A14909680D22514308460A21FBF762FB1E
:109C60009C490968884213D89C480068C82805D3D5
:109C70009A480068C8389949086017E19748006811
:109C80000028DAD0954800680A38944908600DE148
:109C9000914909680622514308460521FBF742FB1A
:109CA0008C490968884214D88C480068962806D3E5
:109CB0008A480068963889490860F7E0F0E08748EC
:109CC00000680028B9D0854800680A3883490860D0
:109CD000ECE0814909680B22514308460A21FBF751
:109CE00021FB7C490968884214D87C4800685028C8
:109CF00006D37A480068503878490860D6E049E0D1
:109D000076480068002898D0744800680A3873497B
:109D10000860CBE0704909681522514308461421B8
:109D2000FBF700FB6B490968884213D86B48006851
:109D3000282805D369480068283868490860B5E0D4
:109D400066480068002898D0644800680A3863496B
:109D50000860ABE060490968652251430846642108
:109D6000FBF7E0FA5B490968884286D85B480068DF
:109D7000142805D35948006814385849086095E0FC
:109D800056480068002804D0544800680A385349EF
:109D900008608BE04F4800684F490968884215D237
:109DA0004E4800684E49884210D24B4909684A0023
:109DB00088180521FBF7B6FA46490968884206D398
:109DC00046480068FF30F530444908606EE042497B
:109DD0000968CA00501A0A21FBF7A4FA3D4909682C
:109DE000884206D33D480068FF302D303B4908606B
:109DF0005CE03949096888000521FBF793FA354989
:109E00000968884205D335480068C830334908607E
:109E10004CE031490968CA0088180A21FBF782FA28
:109E20002C490968884205D32C48006864302B49C6
:109E300008603BE028490968132251430846142171
:109E4000FBF770FA23490968884205D32348006864
:109E500032302249086029E01F4909683122514304
:109E600008463221FBF75EFA1A490968884205D391
:109E70001A48006814301949086017E01649096843
:109E80006322514308466421FBF74CFA11490968E3
:109E900088420BD3114800680A301049086005E079
:109EA00001201049087000200C4908600E48006825
:109EB0000949086010BD00004A0000208800002009
:109EC000100200200D0200200E0200200F020020D0
:109ED000B00000206000002020020020740000205C
:109EE00050C30000250200201C02002009488068A1
:109EF000202108400849086008460068002802D070
:109F000000200649086004480068002801D104497F
:109F10000860704740000A50A4000020AC000020F8
:109F2000A800002010B538480068962844D3374868
:109F300000781E2804DA35480078401C3349087040
:109F4000324800780A285EDB002031490860314938
:109F500008702D480068DD2855D02F480078022170
:109F600008432D4908702D4801780078401C2B4A81
:109F70001070052947DD10460078401E1146087014
:109F800027480078FEF73CFE012226494420FEF7D0
:109F90005BFE1D49098888B22146FCF739FB214642
:109FA0002048FEF7B5FE1D4803781D48027844217D
:109FB0001C48FEF7C9FF26E0134800688C2822D20F
:109FC000144800781E2804DA12480078401C114911
:109FD0000870104800780A2815DB00200B4908702B
:109FE0000D480078022188430B4908700B4801781E
:109FF0000078401E094A1070002904D10022094946
:10A000004420FEF721FE10BDEC000020C800002017
:10A0100074000020C90000200F020020150000205D
:10A02000490000200BD3000010B52C480068002820
:10A0300042D12B48006805283ED32A4800780C28D6
:10A0400004DA28480078401C264908702548007822
:10A050000A2841DB2448007804210843224908707B
:10A0600000201E490860214801780078401C1F4AE2
:10A070001070052930DD10460078401E114608702A
:10A080001B480078FEF7BCFD01221A490020FEF7AC
:10A09000DBFD1349098888B22146FCF7B9FA21464D
:10A0A0001448FEF735FE1148037811480278002164
:10A0B0001048FEF749FF0FE000200A4908700B48DE
:10A0C00001780078401E094A1070002904D100224E
:10A0D00008491046FEF7B8FD10BD000074000020CE
:10A0E0004C000020B30000201002002004000020DB
:10A0F00049000020D8D2000008B534480068002884
:10A1000040D1334800781E2804DA31480078401CDA
:10A110002F4908702E4800780A2856DB00202D4968
:10A1200008602D4908702D480078012108432B490B
:10A1300008702B4801780078401C294A10700529C6
:10A1400043DD10460078401E11460870254800780F
:10A15000FEF756FD012224491C20FEF775FD1B4920
:10A16000098888B20099FCF753FA69461E48FEF741
:10A17000CFFD1B4803781B4802781C211A48FEF7C4
:10A18000E3FE22E0144800781E2804DA1248007822
:10A19000401C11490870104800780A2815DB00207F
:10A1A0000B4908700D480078400840000B490870C2
:10A1B0000B4801780078401E094A1070002904D12C
:10A1C000002209491C20FEF73FFD08BDEC000020DD
:10A1D000B800002074000020CA0000200E020020F9
:10A1E0000B00002049000020EDD2000008B53448E3
:10A1F0000068DD2840D1334800781E2804DA314851
:10A200000078401C2F4908702E4800780A2856DB39
:10A2100000202D4908702D4908602D480078022142
:10A2200008432B4908702B4801780078401C294AC4
:10A230001070052943DD10460078401E1146087055
:10A2400025480078FEF7DCFC012224492020FEF797
:10A25000FBFC1B49098888B20099FCF7D9F96946CB
:10A260001E48FEF755FD1B4803781B480278202145
:10A270001A48FEF769FE22E0134800781E2804DA27
:10A2800011480078401C104908700F4800780A28CF
:10A2900015DB00200B4908700D4800780221884327
:10A2A0000B4908700B4801780078401E094A10706D
:10A2B000002904D1002209492020FEF7C5FC08BD71
:10A2C000EC000020B9000020CB000020740000202A
:10A2D0000E0200200C00002049000020F0D20000F7
:10A2E00010B52E4800682E49884245D32D48006895
:10A2F000052841D22C4800781E2804DA2A48007824
:10A30000401C29490870284800780A2844DB0020AE
:10A310002649087026480078082108432449087017
:10A3200000201E490860234801780078401C214A1B
:10A330001070052930DD10460078401E1146087067
:10A340001D480078FEF75CFC01221C490420FEF742
:10A350007BFC1249098888B22146FCF759F921464D
:10A360001648FEF7D5FC13480378134802780421F9
:10A370001248FEF7E9FD0FE000200B4908700D4878
:10A3800001780078401E0B4A1070002904D1002289
:10A390000A490420FEF758FC10BD0000740000209C
:10A3A000C8AF00004C000020B2000020B100002027
:10A3B000100200200500002049000020DBD2000030
:10A3C0000022BB210348FFF783F9034800F012F88D
:10A3D000FCF75CFD400000401027000010B502F0C3
:10A3E0002FFC0446204602F025FC10BD10B502F0FB
:10A3F0002DFA10BD08E0002102E000BF4A1CD1B2D6
:10A400002029FADB421E90B20028F4DC70470000DD
:10A4100010B57D242402601E0949884200D90CE051
:10A42000601E084948610321081F01F067FA0020F7
:10A43000044988610720086100BF00F08FFE10BD4D
:10A44000FFFFFF0000E000E010B5002400BF11E0B6
:10A450000C2060430949085C002809D000210C2029
:10A460006043064A11540C2161438918886880476B
:10A47000601CC4B2062CEBD310BD000054020020B7
:10A48000002000BF27E00C214143144A8918498865
:10A4900000291ED00C21414389184988491E8AB2DF
:10A4A0000C2141430D4BC9184A800C2141431A46E7
:10A4B0008918498800290CD101220C2141435A54A2
:10A4C0000C2141431A4689188A880C214143C91836
:10A4D0004A80411CC8B20628D5D3704754020020D8
:10A4E00010B534480068C82840D9334800781E2881
:10A4F00004DA31480078401C2F4908702E48007853
:10A500000A2856DB00202D4908602D4908702D4887
:10A510000078402108432B4908702B4801780078C7
:10A52000401C294A1070052943DD10460078401E62
:10A530001146087025480078FEF762FB0122244985
:10A540001820FEF781FB1B49098888B22146FCF7D9
:10A550005FF821461E48FEF7DBFB1B4803781B48CB
:10A56000027818211A48FEF7EFFC22E01448007820
:10A57000642804DA12480078401C11490870104819
:10A580000078322815DB00200B4908700D48007850
:10A59000402188430B4908700B4801780078401E21
:10A5A000094A1070002904D1002209491820FEF739
:10A5B0004BFB10BD4C000020C200002074000020A6
:10A5C000C30000200D0200200A00002049000020E6
:10A5D000EAD2000010B536480068B42840D33548A8
:10A5E00000781E2804DA33480078401C314908708E
:10A5F000304800780A285ADB00202F4908602F498C
:10A6000008702F480078102108432D4908702D4804
:10A6100001780078401C2B4A1070052947DD104650
:10A620000078401E1146087027480078FEF7E8FAC7
:10A63000012226491020FEF707FB1D49098888B230
:10A640002146FBF7E5FF21462048FEF761FB1D4848
:10A6500003781D48027810211C48FEF775FC26E09F
:10A6600013480068A02822D8144800781E2804DA6D
:10A6700012480078401C11490870104800780A28D8
:10A6800015DB00200B4908700D4800781021884325
:10A690000B4908700B4801780078401E094A107079
:10A6A000002904D1002209491020FEF7CDFA10BD7F
:10A6B00000020020BE00002074000020BF00002027
:10A6C0000D0200200800002049000020E4D2000014
:10A6D00008B534480068002840D1334800781E2867
:10A6E00004DA31480078401C2F4908702E48007861
:10A6F0000A2856DB00202D4908602D4908702D4896
:10A700000078102108432B4908702B480178007805
:10A71000401C294A1070052943DD10460078401E70
:10A720001146087025480078FEF76AFA012224498C
:10A730002420FEF789FA1B49098888B20099FBF7A3
:10A7400067FF69461E48FEF7E3FA1B4803781B487B
:10A75000027824211A48FEF7F7FB22E0144800781B
:10A760001E2804DA12480078401C1149087010486D
:10A7700000780A2815DB00200B4908700D48007886
:10A78000102188430B4908700B4801780078401E5F
:10A79000094A1070002904D1002209492420FEF73B
:10A7A00053FA08BD14020020CE00002074000020DF
:10A7B000CF0000200E0200200D00002049000020E4
:10A7C000F3D2000008B534480068BF2840D13348B0
:10A7D00000781E2804DA31480078401C2F490870A0
:10A7E0002E4800780A2856DB00202D4908702D4994
:10A7F00008602D480078202108432B4908702B4819
:10A8000001780078401C294A1070052943DD104664
:10A810000078401E1146087025480078FEF7F0F9D0
:10A82000012224492820FEF70FFA1B49098888B223
:10A830000099FBF7EDFE69461E48FEF769FA1B48D2
:10A8400003781B48027828211A48FEF77DFB22E096
:10A85000134800781E2804DA11480078401C10497B
:10A8600008700F4800780A2815DB00200B49087093
:10A870000D480078202188430B4908700B48017867
:10A880000078401E094A1070002904D100220949AD
:10A890002820FEF7D9F908BD14020020D0000020BE
:10A8A000D1000020740000200E0200200E000020C5
:10A8B00049000020F6D2000010B5384800689628FC
:10A8C00044D3374800781E2804DA35480078401C05
:10A8D00033490870324800780A285EDB002031498D
:10A8E0000860314908702D480068DD2855D02F4890
:10A8F0000078012108432D4908702D48017800781F
:10A90000401C2B4A1070052947DD10460078401E78
:10A910001146087027480078FEF772F9012226498F
:10A920003C20FEF791F91D49098888B22146FBF7C2
:10A930006FFE21462048FEF7EBF91D4803781D48BD
:10A9400002783C211C48FEF7FFFA26E01348006815
:10A950008C2822D2144800781E2804DA1248007885
:10A96000401C11490870104800780A2815DB0020A7
:10A970000B4908700D480078400840000B490870EA
:10A980000B4801780078401E094A1070002904D154
:10A99000002209493C20FEF757F910BD580100205C
:10A9A000C600002074000020C70000200F02002015
:10A9B000130000204900002005D3000008B53448EA
:10A9C0000068002840D1334800781E2804DA314856
:10A9D0000078401C2F4908702E4800780A2856DB62
:10A9E00000202D4908702D4908602D480078042169
:10A9F00008432B4908702B4801780078401C294AED
:10AA00001070052943DD10460078401E114608707D
:10AA100025480078FEF7F4F8012224492C20FEF79F
:10AA200013F91B49098888B20099FBF7F1FD6946C3
:10AA30001E48FEF76DF91B4803781B4802782C214D
:10AA40001A48FEF781FA22E0134800781E2804DA3B
:10AA500011480078401C104908700F4800780A28F7
:10AA600015DB00200B4908700D480078042188434D
:10AA70000B4908700B4801780078401E094A107095
:10AA8000002904D1002209492C20FEF7DDF808BD79
:10AA900058010020BA000020CC00002074000020E3
:10AAA0000E0200200F00002049000020F9D2000013
:10AAB00008B534480068DD2840D1334800781E28A6
:10AAC00004DA31480078401C2F4908702E4800787D
:10AAD000142856DB00202D4908702D4908602D48A8
