:020000040800F2
:10900000503B0020E1C50008392F01084DC600087B
:109010000000000000000000000000000000000050
:109020000000000000000000000000004DC6000825
:109030000000000000000000D1B8000815B90008C9
:10904000B9200108C9200108992A0108A92A0108A4
:10905000110D01082531010835310108453101089C
:1090600041320108952D0108BD2D01080520010898
:10907000312001088D180108B1180108D518010820
:10908000F9180108A9300108B9300108C9300108F0
:10909000D9300108B92A01080D2F0108E12E010875
:1090A000990F01082D0F01081D190108ED1A01087B
:1090B000151B01083D1B0108651B0108B91B0108B0
:1090C000002243088B4274D303098B425FD3030A07
:1090D0008B4244D3030B8B4228D3030C8B420DD31A
:1090E000FF22090212BA030C8B4202D312120902A8
:1090F00065D0030B8B4219D300E0090AC30B8B42E6
:1091000001D3CB03C01A5241830B8B4201D38B0393
:10911000C01A5241430B8B4201D34B03C01A524138
:10912000030B8B4201D30B03C01A5241C30A8B427B
:1091300001D3CB02C01A5241830A8B4201D38B0266
:10914000C01A5241430A8B4201D34B02C01A52410A
:10915000030A8B4201D30B02C01A5241CDD2C3097C
:109160008B4201D3CB01C01A524183098B4201D3F8
:109170008B01C01A524143098B4201D34B01C01AE3
:10918000524103098B4201D30B01C01A5241C3085B
:109190008B4201D3CB00C01A524183088B4201D3CA
:1091A0008B00C01A524143088B4201D34B00C01AB6
:1091B0005241411A00D20146524110467047FFE722
:1091C00001B5002000F0F0F802BDC0460029F7D03C
:1091D00076E7704703460B437FD4002243088B4257
:1091E00074D303098B425FD3030A8B4244D3030B2E
:1091F0008B4228D3030C8B420DD3FF22090212BAF3
:10920000030C8B4202D31212090265D0030B8B426E
:1092100019D300E0090AC30B8B4201D3CB03C01A58
:109220005241830B8B4201D38B03C01A5241430B33
:109230008B4201D34B03C01A5241030B8B4201D323
:109240000B03C01A5241C30A8B4201D3CB02C01A8E
:109250005241830A8B4201D38B02C01A5241430A06
:109260008B4201D34B02C01A5241030A8B4201D3F5
:109270000B02C01A5241CDD2C3098B4201D3CB019C
:10928000C01A524183098B4201D38B01C01A52414B
:1092900043098B4201D34B01C01A524103098B424F
:1092A00001D30B01C01A5241C3088B4201D3CB003A
:1092B000C01A524183088B4201D38B00C01A52411D
:1092C00043088B4201D34B00C01A5241411A00D2CD
:1092D00001465241104670475DE0CA0F00D0494236
:1092E000031000D34042534000229C4603098B42A6
:1092F0002DD3030A8B4212D3FC22890112BA030A2E
:109300008B420CD3890192118B4208D389019211AF
:109310008B4204D389013AD0921100E08909C30934
:109320008B4201D3CB01C01A524183098B4201D336
:109330008B01C01A524143098B4201D34B01C01A21
:10934000524103098B4201D30B01C01A5241C30899
:109350008B4201D3CB00C01A524183088B4201D308
:109360008B00C01A5241D9D243088B4201D34B0023
:10937000C01A5241411A00D20146634652415B1065
:10938000104601D34042002B00D549427047634646
:109390005B1000D3404201B5002000F005F802BD8B
:1093A0000029F8D016E770477047C0468446101C65
:1093B00062468C46191C634600E0C0461FB500F0AB
:1093C0004BFC002801D40021C8421FBD10B500F09D
:1093D0009FFB4042013010BD10B500F03DFC00285D
:1093E00001DB002010BD012010BDC04610B500F00B
:1093F00033FC002801DD002010BD012010BDC04657
:1094000010B500F0C5FB002801DC002010BD0120D4
:1094100010BDC04610B500F0BBFB002801DA0020EB
:1094200010BD012010BDC0469E2110B5C905041C09
:1094300000F0E4FC002803D1201C00F009FB10BD63
:109440009E21201CC90500F07DF900F001FB80235E
:109450001B069C466044F2E7F8B54A02430244000A
:109460004E00C50F240E28009B09360EC90F920925
:109470008D4259D0A01B002800DC8DE0002E1AD1AF
:10948000002A00D079E05A0704D00F221A40042A9B
:1094900000D004335A0138D50134FF2C00D189E0C3
:1094A00028009B015B0AE4B25B02E4055B0A2343EC
:1094B000C0071843F8BDFF2CE5D08021C9040A433A
:1094C0001B2800DD89E016002021C640081A8240D2
:1094D000511E8A4132439B1A5A0114D59B019E09A1
:1094E000300000F095FC05388640844265DC041BA2
:1094F000330020200134E340041BA640721E964135
:1095000000243343BFE75A07BFD1DF082800FF2CF0
:109510002FD1002F00D187E08022D20313003B43DC
:109520005B025B0AFF24BFE7A11B002949DD002E77
:1095300029D0FF2CA7D08026F60432431B2900DD5A
:109540008DE017002026CF40711A8A40511E8A41B3
:109550003A439B185A01D6D50134FF2C64D001221E
:1095600076491A405B080B4013438CE7031ECAD1AF
:1095700000207B025B0AE4B296E701380028AAD0FB
:10958000FF2C9DD17FE7002A00D17CE7013900291B
:10959000DFD0FF2CD2D176E7002820D1601CC0B2EA
:1095A000012853DD80279E1AFF0437402FD0D61A9A
:1095B0000D0095E72800002376E7614B241A33401D
:1095C00061E700294DD1611CCEB2012E2FDDFF29AC
:1095D0002AD09B185B080C0055E701227BE7002C82
:1095E0001BD1002B5BD0C04300280CD0FF2E7ED0B7
:1095F0001B2800DD92E01D002024C540201A834076
:10960000581E83412B43D31A34000D0064E7002E0B
:1096100000D065E700200024ABE7FF2E67D0802450
:10962000E40440422343E3E7FF2400233CE7002C0B
:1096300061D1002B7ED0002A00D124E79B185A016B
:1096400000D460E73E4A0C0013401CE7002C1ED1FA
:10965000002B2FD1002A66D013000D0013E7012242
:1096600077E7002C1FD1002B5AD0C94300290BD01B
:10967000FF2E50D01B295FDC1F002024CF40611A31
:109680008B40591E8B413B439B18340062E7002BF3
:109690001CD1002A4AD013000D00FF24F3E613006A
:1096A00034000D00EFE6FF2E35D08024E40449425B
:1096B0002343DFE7002A00D1E5E68027981AFF045C
:1096C000074000D152E7D31A0D00DCE6FF24002A40
:1096D00000D1D8E68020DB08C003034204D0D208C2
:1096E000024201D113000D00DB00FF24CBE6130082
:1096F000FF240D00C7E6002B0DD0FF24002A00D167
:10970000C1E68021DB08C9030B42EDD0D2080A4232
:10971000EAD11300E8E71300FF24B4E6012372E75F
:1097200013003400AFE60027002022E78027002046
:10973000FF03F1E61300A6E60123A5E7FFFFFF7D87
:10974000FFFFFFFBF8B54A024E0043024400240E1F
:10975000C50F9B09360EC90F9209FF2E00D183E079
:1097600001204140A01BA9425CD0002800DC95E00C
:10977000002E1CD1002A00D081E05A0704D00F220D
:109780001A40042A00D004335A013BD50134FF2C7F
:1097900000D191E001209B015B0AE4B205405B022D
:1097A000E4055B0AED0723432B431800F8BDFF2CAB
:1097B000E3D08021C9040A431B2800DD90E0160095
:1097C0002021C640081A8240511E8A4132439B1A0A
:1097D0005A0115D59B019E09300000F019FB053890
:1097E000864084426CDC041B330020200134E340BB
:1097F000041BA640721E964100243343BDE70D00B2
:109800005A07BCD1DF0801231D40FF2C33D1002FA4
:1098100000D190E08022D20313003B435B025B0A3D
:10982000FF24BCE700284FDD002E2ED0FF2CA4D053
:109830008025ED042A431B2800DD97E01600202533
:10984000C640281A8240501E824132439B185A015A
:10985000D5D50134FF2C6DD001227B481A405B081E
:10986000034013430D0088E7002A00D07AE777E72A
:10987000031EC5D100257B025B0AE4B28FE70138E5
:109880000028A4D0FF2C97D177E7002A00D174E7F5
:1098900001380028DAD0FF2CCDD16EE7002821D185
:1098A000601CC0B2012858DD80279E1AFF04374093
:1098B0002FD0D61A0D008FE701231D4000236EE73D
:1098C000624B241A334058E7002851D1601CC6B2BD
:1098D000012E33DDFF282DD09B185B0804004CE7D8
:1098E000012274E7002C1AD0FF2E1FD08024E4043C
:1098F000404223431B2800DD96E01D002024C54084
:10990000201A8340581E83412B43D31A34000D0084
:109910005EE7002E00D05FE700250024ABE7002BB8
:1099200044D0C0430028F0D0FF2EE3D11300FF2421
:109930000D0022E70D00FF24002330E7002C5DD14D
:10994000002B7DD0002A00D117E79B185A0100D4C4
:1099500056E73E4A040013400FE7002C1ED1002BAF
:109960002FD1002A65D013000D0006E701226DE714
:10997000002C1FD1002B59D0C04300280BD0FF2E44
:109980004FD01B285EDC1D002024C540201A8340D8
:10999000581E83412B439B18340058E7002B1CD1E1
:1099A000002A49D013000D00FF24E6E6130034001E
:1099B0000D00E2E6FF2E34D08024E404404223432D
:1099C000DFE7002A00D1D8E68027981AFF04074075
:1099D00000D14DE7D31A0D00CFE6FF24002A00D1B5
:1099E000CBE68020DB08C003034204D0D208024249
:1099F00001D113000D00DB00FF24BEE6002B10D0C8
:109A0000FF24002A00D1B8E68020DB08C00303420F
:109A100003D0D208024200D11300DB000D00FF2466
:109A2000ABE61300FF24A8E601236EE71300340021
:109A3000A3E6002700251EE780270025FF03E9E6AF
:109A400013009AE60123A6E7FFFFFF7DFFFFFFFB60
:109A50004302590A4300C20F1B0E00207E2B0EDD6D
:109A60009D2B0DDC802000040143952B0BDC962000
:109A7000C31AD9400B005842002A00D11800704781
:109A8000034BD018FBE7963B99400B00F3E7C04629
:109A9000FFFFFF7F70B5041E28D000F0B9F99E23A8
:109AA0001B1A962B0ADC9622D21A94406202520AA2
:109AB000D8B25202520AC005104370BD992B18DC6F
:109AC0009922D21A9440114A2240610704D00F21F2
:109AD0000C40042C00D00432510103D50B4B1A402A
:109AE0009F231B1A9201520AD8B2E2E700200022FB
:109AF000DFE705222500121AB921D5402200C91A34
:109B00008A40541EA2412C001443DCE7FFFFFFFBF8
:109B1000F0B55F4656464D464446F0B41F035C0020
:109B2000DB0F9A46194B0E034D00C90F8046360BCA
:109B30006D0D8B4691463F0B640D9D4219D0134B22
:109B40009C421BD00123A54206D018003CBC904685
:109B50009946A246AB46F0BDBE42F6D1C845F4D107
:109B6000D34510D0002DF0D1304303005A1E93414D
:109B7000EBE7310001230143E7D1E0E73A4301235A
:109B8000002AE2D1DEE70023DFE7C046FF0700003E
:109B9000F0B55F46444656464D46F0B41F033C0BB5
:109BA0002C4F0E034D00A3465C008446360B6D0D12
:109BB000C90F9046640DDB0FBD422BD0254FBC4230
:109BC0002ED0002D0ED130430700814678427841D7
:109BD000002C17D15F463A4314D14B460020002B8E
:109BE0000AD006E0002C02D15846024301D0994227
:109BF0001AD00123484218433CBC90469946A246DD
:109C0000AB46F0BD0028F2D05842584101224042F4
:109C10001043F1E737000743D0D002204042EBE782
:109C20005F461743CDD0F8E7A542E2DC05DB5E4591
:109C3000DFD808D000205E45DED2484248410123EB
:109C400040421843D8E7C445D3D80020C445F4D3D4
:109C5000D2E7C046FF070000F0B55F464D464446D8
:109C60005646F0B41C03240BA4462F4C0F034D00A2
:109C70005E00C90F80463F0B6D0D8B469146760DF9
:109C8000DB0FA54220D0284CA64222D0002D12D1B5
:109C9000384344424441002E20D0002C0DD05C4279
:109CA000634101245B421C4320003CBC9046994622
:109CB000A246AB46F0BD002E17D05B4519D05B46DF
:109CC0005C4201231C43EFE7390002240143EBD13E
:109CD000D9E7614602241143E6D1D7E761460A433A
:109CE000DBD100240028DFD0E9E761460A43E4D154
:109CF000E5E7B54203DD01225C421443D4E7B542F7
:109D0000CDDB6745DBD809D000246745CCD2594666
:109D10004C426141012449420C43C5E7C845CED8B5
:109D20000024C845F3D3BFE7FF07000070B5051E48
:109D300028D000F06DF8154B154A1B1AD21A1F2AAD
:109D400016DD2C00134A0025D21A94405A0524032C
:109D5000240B520D002124030B0D240B1B05234360
:109D60000D4C1205234013435B002800590870BDB9
:109D70000B212C00081AC440954024035A05240BDB
:109D8000520DE7E700220024E4E7C0461E0400006D
:109D90003304000013040000FFFF0F808446081CFA
:109DA0006146FFE71FB500F0BDF8002801D400218F
:109DB000C8421FBD10B500F049F84042013010BD47
:109DC00010B500F0AFF8002801DB002010BD012025
:109DD00010BDC04610B500F0A5F8002801DD002038
:109DE00010BD012010BDC04610B500F057F8002886
:109DF00001DC002010BD012010BDC04610B500F0F0
:109E00004DF8002801DA002010BD012010BDC04629
:109E10001C2101231B04984201D3000C10391B0A9A
:109E2000984201D3000A08391B09984201D300095E
:109E3000043902A2105C40187047C04604030202B5
:109E4000010101010000000000000000430270B5A4
:109E500042004C005D0AC30F4802120E460A240E4F
:109E6000C90FFF2A0FD0FF2C11D00120A24200D031
:109E700070BDB542FCD18B420DD0002AF8D128002C
:109E8000431E9841F4E70120002DF1D1EBE70120BA
:109E9000002EEDD1E9E70020EAE7C0464302F0B525
:109EA00042005D0AC30F4802440A4800120E000E29
:109EB000C90FFF2A1FD0FF2822D0002A09D16E42E5
:109EC0006E4100280FD1002C0DD10020002D09D0AB
:109ED00005E0002801D1002C01D08B4213D058425C
:109EE00001231843F0BD002EF7D048424141012024
:109EF00049420843F6E7002DDDD002204042F1E759
:109F0000002CDAD0F9E78242E9DC04DBA542E6D88E
:109F10000020A542E6D25842434101205B4218434B
:109F2000E0E7C0464302F0B542004C005E0AC30FB2
:109F30004802120E450A240EC90FFF2A17D0FF2C23
:109F400019D0002A0BD170427041002C17D0002884
:109F500007D048424141012049420843F0BD002C4E
:109F600013D08B4214D0584201231843F6E7022045
:109F7000002EF3D1E3E70220002DEFD1E1E7002D21
:109F8000E5D10020002EE9D0EDE7002DE9D1EAE788
:109F9000A242E8DC04DBAE42E5D80020AE42DDD2CE
:109FA0005842434101205B421843D7E710B586B0C1
:109FB00001AC1422002120000DF0D0FC0123A3727B
:109FC0006372034B0193200009F0C4F806B010BD82
:109FD000FF0D270772B6034B034A9A60034A9A6043
:109FE00062B6704700B0004015AD087979A8D55A1F
:109FF00000B587B001A80023837209F0ABF807B061
:10A0000000BDC04600B589B02022002168460DF091
:10A01000A5FC0D4B00931A3301930C4B02930123C3
:10A020006A46D37603226946CA754B754B74CB7367
:10A0300001330B740A338B8102338B73044807F0AE
:10A040006DFB09B000BDC046300100204C3000401F
:10A050004020014000B585B01022002168460DF077
:10A060007DFC064B009301236A465371044B029317
:10A070006946044808F0BEFF05B000BDDF2E0000B1
:10A080009DA300082011014000B585B010220021D9
:10A0900068460DF063FC074B009301236A46537139
:10A0A0001373054B02936946044808F0A3FF05B0FB
:10A0B00000BDC046DF2E00009DA300082011014016
:10A0C000F8B55F4656464D464446F0B41F4B1988D6
:10A0D00089B2FA200001FFF77DF800281FDD1C4B34
:10A0E0001B8898469B461E0000250024194B9A4663
:10A0F000164B994600E03E006D0053464246EA5238
:10A100000134E4B225004B46198889B25B469F1999
:10A11000FA200001FFF75EF88442ECDB00E0002645
:10A120000A4B198889B2FA200001FFF753F80100A1
:10A130003000FEF7C5FF084B1880FFF7A5FF3CBCB9
:10A1400090469946A246AB46F8BDC0460E48002050
:10A15000300100204C010020741F002030B589B070
:10A160005C4C02220221200007F046FC022203215F
:10A17000200007F041FC02220421200007F03CFCF3
:10A1800002220521200007F037FC02220F2152484D
:10A1900007F032FC514D02220021280007F02CFC70
:10A1A00002220121280007F027FC022207212000BB
:10A1B00007F022FC02220821200007F01DFC0222E9
:10A1C0000921200007F018FC02220A21200007F0D4
:10A1D00013FC02220B21200007F00EFC01A90B2327
:10A1E0000B700A3B4B708B700025CD700D714D715B
:10A1F0008D71CD710D724D728D72CB720D734D7369
:10A200000C228A73CD730D740B764D61344C200093
:10A2100006F08EFD002306220821200006F058FEDD
:10A22000012306220721200006F052FE0223062207
:10A230000621200006F04CFE032306220521200003
:10A2400006F046FE042306220B21200006F040FE05
:10A25000052306220A21200006F03AFE06230622E4
:10A260000921200006F034FE0723062204212000E5
:10A2700006F02EFE082306220321200006F028FE09
:10A28000092306220221200006F022FE0A230622CC
:10A290000121200006F01CFE0B23062200212000D5
:10A2A00006F016FE62680F4B13406360FFF7AAFECC
:10A2B000A26802231343A36063688022120613433B
:10A2C0006360094B1D80FFF7C5FEFFF7F9FE09B07B
:10A2D00030BDC04600000820300008206000082083
:10A2E00000300040FFFFEFFF741F0020F0B547462D
:10A2F00080B4264B198889B2FA200001FEF76AFF64
:10A300000138002819DD002500270024204B98463D
:10A310001E4E6B1C5B0042469B5A6D00AB52FF18F1
:10A320000134E4B22500318889B2FA200001FEF739
:10A3300051FF01388442ECDB00E00027134D2988EF
:10A3400089B2134CFA200001FEF744FF01384000A7
:10A35000104B1B880353298889B22D88ADB2FA208F
:10A360000001FEF737FF01384000035BDF192900C9
:10A37000FA200001FEF72EFF01003800FEF7A0FED4
:10A38000054B188004BC9046F0BDC0460E48002026
:10A390004C01002030010020741F002010B5FFF791
:10A3A000A5FF10BD00230B280CD84300064A07491F
:10A3B0005B5A934203D943001100044A995240006A
:10A3C000024BC35A18007047FF0F000030010020F5
:10A3D00010B582B001AC00232380214A0021117006
:10A3E000204A1380204A1380204A1380042200212F
:10A3F0001F480DF0B3FA042200211E480DF0AEFAFA
:10A40000022221008020C00002F030F801280ED185
:10A4100001AA13781B025278D3189BB25A1E92B22B
:10A4200015498A4203D8124A53800123137002222D
:10A4300001A9124802F01AF801280ED101AA1378D6
:10A440001B025278D3189BB25A1E92B20A498A4212
:10A4500003D8084A53800123137002B010BDC046D0
:10A460007A1F0020781F0020801F0020881F0020F6
:10A470008C1F00207C1F0020FDFF00000204000054
:10A48000F8B50C4C270038372568267900223100B2
:10A49000280007F0B1FAA2793100280007F09CFAF1
:10A4A00062793100280007F00DFB0834BC42EBD183
:10A4B000F8BDC046E879010810B5FFF7E1FFFFF7E6
:10A4C0004DFE00F0F5F810BD10B50023062807D8A2
:10A4D000044BC0001A181179C05807F087FA03001E
:10A4E000180010BDE879010810B506280FD8C30080
:10A4F000074AD3185B79012B09D14A1E9141CAB290
:10A50000034BC00019180979C05807F065FA10BD4F
:10A51000E879010830B51A4B5B6F5B072FD5194BF3
:10A520001A78194B1B78DBB29A4228D2144B186E5A
:10A53000402101431966186E082101431966196EFE
:10A540000420014319661C6E8021214319661C6E8C
:10A55000022121431966196E0124214319661D6EDB
:10A560002021294319661D6E102129431966596F50
:10A5700081435967054B1C700132024B1A7030BD84
:10A5800000400140DC020020E0480020E002002002
:10A59000F8B504000D001C4B1B78002B28D01B4B7A
:10A5A0009F6802230100994301D004292AD17E1C0F
:10A5B000B54207D3E400154B9C4664440023236155
:10A5C000A6611AE072431000B4214900FEF778FD3D
:10A5D0000004000CE4000D4B9C46644420612818E4
:10A5E000864203D2FF433818A06106E0A06104E070
:10A5F000C400074B9C466444A160044A916D8023CB
:10A600000B439365F8BDC0466248002000400140FE
:10A6100008400140164B1B78002B22D0154B9B683D
:10A6200002220100914301D0042908D1C000114A3F
:10A6300094466044016989B2806980B207E0C00035
:10A640000C4A94466044816889B2026990B28142A2
:10A6500002D8401A80B20AE00133C318581A80B2F7
:10A6600005E0C000044B9C466044806880B270479F
:10A6700062480020004001400840014000B585B01C
:10A680001022002168460DF069F902236A46137012
:10A69000013BD371D372137353739373D3736946AE
:10A6A000024808F0A3F805B000BDC04600400140D4
:10A6B00030B5B9B0614C01220421200007F09CF9AB
:10A6C00001220521200007F097F901220621200030
:10A6D00007F092F901220721200007F08DF90122ED
:10A6E0000821200007F088F9554D01220821280093
:10A6F00007F082F901220921200007F07DF90122EB
:10A700000A21200007F078F902220321280007F02F
:10A7100073F95022002110A80DF020F950220021D9
:10A7200024A80DF01BF91022002101A80DF016F944
:10A73000182200210AA80DF011F9424B1B78002BBA
:10A7400025D010AB02229A711A759A76042128201E
:10A75000195406301A5406240E301C5406301A546C
:10A7600001AA917003930125557395730AAC0B925E
:10A770009023FF336381344B198889B23348FEF745
:10A780009FFC0138E081A574314B636135E024AB57
:10A7900002221A7101259D729A731A751A76032185
:10A7A00099771F315A5404200631585404315A54B1
:10A7B00001300631585404315A540130063158548E
:10A7C00004315A5401300631585404315A5401AA04
:10A7D000423951700293557395730AAC0B929023D2
:10A7E000FF336381184B198889B21848FEF768FC5B
:10A7F0000138E081A574164B6361164D0AA9280043
:10A8000007F08AFC05AC1122002120000DF0A6F80B
:10A8100001236371A372E37223736373E37323747D
:10A820002100280008F034F8FFF728FF2B681822D1
:10A830009343103A13432B6039B030BD30000820E9
:10A8400060000820624800200E48002060EA0000F6
:10A8500015A500080040014010B5224B1B78012BC4
:10A860003FD1214A138801339BB213801F4A934280
:10A8700037D91F4B1B78DBB21E4A12789A422BD273
:10A8800000210420FFF730FE642000F0CDF9012103
:10A890000420FFF729FE184B1A6E40218A431A66DE
:10A8A0001A6E38398A431A661A6E04398A431A6650
:10A8B0001A6E7C318A431A661A6E7E398A431A668A
:10A8C0001A6E01398A431A661A6E1F318A431A6654
:10A8D0001A6E10398A431A660022034B1A80014B04
:10A8E0001A7010BDE0020020DE020020973A00003E
:10A8F000E0480020DC0200200040014010B50128A3
:10A9000021D1224B196E40220A431A66196E082281
:10A910000A431A66196E04220A431A66196E8022C7
:10A920000A431A66196E02220A431A66196E012238
:10A930000A431A66196E20220A431A66196E1022FB
:10A940000A431A6620E000281ED1104B1A6E4030D0
:10A9500082431A661A6E08218A431A661A6E042404
:10A96000A2431A661A6E7C34A2431A661A6E824398
:10A970001A661A6E8A431A661A6E18318A431A6664
:10A980001A6E10398A431A6610BDC0460040014055
:10A9900010B50321014807F029F810BD6000082018
:10A9A00010B501F0EBFE024A024B9A6062B610BD90
:10A9B0000090000800ED00E010B5FFF7F1FF01F096
:10A9C000FBFB05F075F905F09FFC02F03DFD00F082
:10A9D000B3FD02F0FBF802F0CFFAFFF7E7FAFFF75A
:10A9E0006BFDFFF7F5FC0CF06BF80CF055F800F080
:10A9F00005F9FEE710B582B000F040FF2B4B019344
:10AA0000012300930023302229492A4801F062F8EB
:10AA1000294B1B68012B24D1284B0193012400945E
:10AA2000002340222649274801F054F8264B019381
:10AA30000094002320222549254801F04BF8254B9E
:10AA400001930094002320222349244801F042F876
:10AA5000234B01930094002320222249224801F035
:10AA600039F8224B0193012400940023402220490D
:10AA7000204801F02FF8204B01930223009300237C
:10AA8000802292001D491E4801F024F81D4B0193BD
:10AA90000094002340221C491C4801F01BF80020B0
:10AAA00001F00EF900F0F6FE02B010BDEC0200203D
:10AAB000207A01087DAB000810B00108F0020020E8
:10AAC000307A010811AB0008F8020020407A010832
:10AAD00029AB000800030020507A010845AB0008AC
:10AAE000E4020020607A010861AB0008E80200205F
:10AAF000707A0108C1AB0008FC020020907A0108BE
:10AB000099AB0008F4020020A47A0108DDAB00082C
:10AB100000B583B001F064F9019000F01BFD012144
:10AB200001A801F0BDFAF8E700B583B001F058F9CB
:10AB30000190002000F000F9052101A801F0B0FA11
:10AB4000F7E7C04600B583B001F04AF90190012053
:10AB500000F0F2F80A2101A801F0A2FAF7E7C046D6
:10AB600000B583B001F03CF90190022000F0E4F858
:10AB7000322101A801F094FAF7E7C04610B582B07F
:10AB800001F02EF90190FA242401FFF723FA2100A5
:10AB900001A801F085FAF8E700B583B001F020F9CB
:10ABA00001900BF07DFF0BF07FFF0BF081FF0BF0AE
:10ABB00083FFFFF751FE012101A801F071FAF0E7D0
:10ABC00000B583B001F00CF9019005F029FD04F007
:10ABD0007BFF0A2101A801F063FAF6E700B583B014
:10ABE00001F0FEF8019002F0A9F802F08BFA04F0EF
:10ABF00039FD0A2101A801F053FAF4E700B583B04A
:10AC000000230193013300930023302204490548B7
:10AC100000F060FF012801D101F0A8F8FEE7C0466E
:10AC2000C07A0108F5A900080822002809D10AE025
:10AC3000C046013BDBB2002BFAD1013880B20028BC
:10AC400001D01300F4E77047022819D80D4A8D236C
:10AC5000DB00584310180C4B9C46604400230370E3
:10AC60006346D35CDB070BD4084BD35CDB0707D40C
:10AC7000074BD35CDB0703D4137A7F210B4013729D
:10AC80007047C046AC24002062060000CA0A0000DB
:10AC9000320F0000064B002206495A5406495A5406
:10ACA00006495A541A7A7F210A401A727047C046E0
:10ACB000AC24002062060000CA0A0000320F000027
:10ACC00010B500F0D3FB094B5B7A70221A4204D016
:10ACD00001221343054A537205E00448102213432E
:10ACE000437200F0C7FB00F0C3FB10BDAC24002092
:10ACF000024B00221A755A757047C046AC240020DA
:10AD000070B504000B4B1D7D00203B2D10D81E009C
:10AD1000587D40193C21FEF743FB881CC0003018C9
:10AD20000630082221000CF0DBFD013535750120CD
:10AD300070BDC046AC240020F0B557464E4645468F
:10AD4000E0B484B00190484B1B7A7F2B00D884E09C
:10AD5000464E0023984600254246B146B379DB07AC
:10AD60006FD5337901998B426BD17388013B9BB2CC
:10AD70007380002B65D13388738000248D23DB0022
:10AD800053431F00B2462B1902AA137000F06EFB4A
:10AD9000E000001BC000C019F930FF30324B9C4668
:10ADA0006044031D443083422ED2E200121BD200C5
:10ADB000D2196244FD32FF321168002924D002AA60
:10ADC00001321E79042E0AD10E7816700E68360AEA
:10ADD00056704E889670C978D17004320BE0022EFE
:10ADE00006D10E8816700988090A5170023202E0F5
:10ADF000097811700132083304A98A4204D29842BA
:10AE000002D019680029DCD1174B5B7A70221A42F4
:10AE100007D002A8FFF774FF002809D100F028FB33
:10AE200008E020221343104A537202A800F022FBCC
:10AE300000F01EFB0134E4B253465B79A342A2D278
:10AE40004E461435EDB201239C46E0448D23DB00D1
:10AE50009C4666443C2D00D07EE704B01CBC904666
:10AE60009946A246F0BDC046AC240020082B002025
:10AE700010B500F06DFB154B154AD35A0020002B7E
:10AE800022D0FF2B05D8DBB2104A11498852104955
:10AE900006E0013BFF3B0D4A0D498B520023F6E7CC
:10AEA0000A69147888882018888001320A61013B79
:10AEB000DBB2002BF4D1054B054AD35A0120002BFD
:10AEC00002D1FFF7FDFE002010BDC046360F000086
:10AED000AC240020F8B504000378012B00D15FE218
:10AEE000052B28D157E2C04B1B7ADB0604D4FFF7B1
:10AEF000D1FE0022BC4B5A72BB490B7A10229343FD
:10AF0000202213430B72B84BFF221A7000225A7092
:10AF100061789970FE21D9709A80DA8038E2B24B5C
:10AF20001B7A9A0600D440E2202293431022134356
:10AF3000AD4A137239E2AC4B1A7A930600D434E26C
:10AF4000A94BFF211970002159704178997005783B
:10AF5000232D00D919E2AB00A449CB589F46A44B3E
:10AF60001A780023002A0FD114E020239A439E4B25
:10AF70001A728378002B04D110231A439A4B1A7249
:10AF800006E2FFF787FE03E299490133DBB2CA5CB0
:10AF9000002AFAD1944AD37000231371937143337A
:10AFA00053714B33D371924BD360F1E18578012D0E
:10AFB00009D84168C07800F09DFA0235AD008A4B8F
:10AFC0005B195860E4E13222874B5A70E0E18178E6
:10AFD000C31C4A1ED2B2002900D1D9E10432841820
:10AFE00081491A78C8680270CA680132CA600133A0
:10AFF0009C42F6D1CCE1831C08347B491A78C8689E
:10B000000270CA680132CA600133A342F6D1BFE1BF
:10B010008278531EDBB2002A00D1B9E1181D724BB1
:10B02000C01803337049CA6812781A700133CA68AD
:10B030000132CA608342F6D1AAE1C078616800F0AB
:10B0400059FA694B1861A278531EDBB2002A00D16D
:10B050009EE1181D644BC018033363490A691278D6
:10B060001A7001330A6901320A618342F6D18FE115
:10B070008078FFF7E9FDA278022A19D88D23DB003A
:10B080005A43F932FF32584BD218131D59498C4696
:10B090006244934204D20021197001339A42FBD1D9
:10B0A000514A117A02230B431372FFF721FE00E08D
:10B0B00000254D4AD570A37814214B43137167E1E5
:10B0C0008378022B05D8C178132902D80279072A80
:10B0D00007D9454B31225A700021C832FF329950AE
:10B0E00056E1414CC800411A8D204343CB189B18B0
:10B0F0003F33DB001B190433FC225200A35047E10D
:10B1000083785A1E012A01D9042B05D1FC235B0048
:10B11000354AD558002D03D13122334B5A7037E1CF
:10B12000E1790906A3791B04C91863791B02CB18BE
:10B1300021795918E07800F0DDF92860FC235B00E4
:10B14000294AD358A2781A7122E1930703D4222204
:10B15000254B5A701CE18378012B08D0002B02D0BC
:10B16000022B51D07DE0C078FFF76EFD10E1C6786C
:10B17000022E00D90CE105794379C1790902807961
:10B18000411889B28D20C0007043174F3818CC2762
:10B19000FF00BC4660440370002900D101318D23BB
:10B1A000DB0073431048C318134818180180134973
:10B1B000591801200880124959180D7011498C4600
:10B1C000634404211970E078022800D9E0E00649C0
:10B1D0008D23DB004343CB18634401201870802388
:10B1E0005B421A430A72D3E0AC240020D87A0108EB
:10B1F000000000206C0400005C0600005E060000F9
:10B200006106000062060000C578022D00D9BFE08B
:10B2100000796379E2791202A1798A1892B28D21BC
:10B22000C9006943614C6118CC24E400A446614420
:10B230000B70002A00D101328D23DB006B435B4988
:10B24000CB185B4959180A805A4A9A180121118073
:10B25000594A9A181070594A9446634404221A7045
:10B2600096E03122514B5A7092E0930703D4222288
:10B270004E4B5A708CE08378002B02D0012B03D008
:10B2800019E0FFF707FD83E00023484D01264C4CF1
:10B290004A49591849190878042800D10E708D219F
:10B2A000C9008C466344A342F2D180235B421A4317
:10B2B0003E4B1A726CE031223C4B5A7068E03B4BBB
:10B2C0000222DA7000225A60DA681A6183881B044D
:10B2D00042881A43002B02D03221344B5970334B31
:10B2E00038495A525B78002B52D15EE043791906F7
:10B2F00003791B04CB18C27812029B188178591865
:10B300002A4BD86800F014F942E08278274D0330C8
:10B31000E96800F00FF9A378EA6894466344EB60AB
:10B32000022835D141E0214D02300622E96800F0C3
:10B3300001F9EB680633EB60022829D135E01B4B9D
:10B34000D86800F0DFF823E0184C0023E37000F029
:10B35000D3F860601CE044239A4314490A7283784E
:10B36000442003401A430A72A278174BCA540FE0D4
:10B370000E4B154A9A5CDA7000221A7108E00B4BEA
:10B380000222DA70013A1A7102E03022074B5A7039
:10B39000FFF796FC09E04388002B00D1B3E5BEE53A
:10B3A0004388002B00D0BAE59DE5F8BDAC24002011
:10B3B0005C0600005E0600006106000062060000F8
:10B3C000380D0000360F0000340F000010B51F4A82
:10B3D000537A702118008843507201241C4007D012
:10B3E00071229343194A5372FFF76AFC01242AE041
:10B3F000164B1B7A7F2B26D900F038F8134B1C7D97
:10B40000002C1ED01C005A7A202313436372607DE7
:10B410000230C0000019063000F02CF8637D0133C3
:10B42000DBB23B2B02D8094A537502E00022074BDE
:10B430005A75064A137D013B137500F019F8012473
:10B4400001E000F015F8200010BDC046AC2400203B
:10B45000044B054A991800221A7001338B42FBD124
:10B460007047C046AC240020380F000072B6704709
:10B4700062B6704710B5184B08225A7200225A73F0
:10B4800000231549C25C0C69E2540133082BF9D141
:10B49000114B1B691B78132B03D8104A0E4B1A60F3
:10B4A00011E01A00143A132A03D80D4A0A4B1A6005
:10B4B00009E0283B132B03D80A4A074B1A6002E025
:10B4C000094A054B1A6001220349084804F0E6FEC8
:10B4D0000122074B1A7010BD70210020D107000017
:10B4E000D2070000D3070000D40700000078004016
:10B4F0000503002008007047014B18787047C046CC
:10B5000006030020014B18707047C0460603002058
:10B51000044B05481978054A9A1811700133834283
:10B52000F8D1704700F80108000002080050FE172B
:10B530007047C0460020704710B5FFF7E9FFFFF7DE
:10B5400087FF0022014B1A7010BDC0460603002081
:10B550007047C04610B50C4B1B78012B06D100225A
:10B56000094B1A70094B1869FFF7B4FC72B6A02397
:10B57000074AD258C0239B021A4201D1FFF726FF87
:10B5800062B6FFF775FC10BD0403002024220020E2
:10B590000078004010B5124B00E013001A68824298
:10B5A000FBD359685C18A04203D140684118596028
:10B5B0001800446801198A420CD10A4A1268914263
:10B5C00006D04A68141944601A681268026002E0E2
:10B5D000016000E00260984200D0186010BDC046D3
:10B5E000140300201003002070B5040000F0F0FBED
:10B5F0003C4B1B68002B20D13B4A530708D0D11D80
:10B6000007239943C0235B01D3185B1A0A0001E0AA
:10B61000C0235B013548026000214160D318083B1C
:10B62000072083432F48036059601960991A5160BD
:10B6300013602F4B19602F4B1960002C4CD007233F
:10B6400023401A0010239B1ADA43944244D8E3188B
:10B65000002B3DDD274A1668B34239D8234A1468C7
:10B6600001E022000C0061688B4202D921680029A8
:10B67000F7D11C4909688C422AD0156821681160ED
:10B680006268D21A102A08D9E018410701D072B6B0
:10B69000FEE742606360FFF77DFF6268B31A1549F9
:10B6A0000B60134909688B4201D211490B600835C0
:10B6B00080231B061A436260002323600E4A13682E
:10B6C0000133136000F04EFC6B0708D072B6FEE742
:10B6D00000F048FC002502E000F044FC00252800B2
:10B6E00070BDC0461003002020030020140300207A
:10B6F000201B00200C0300200803002010B50028A8
:10B7000023D00300083B5B68002B01DB72B6FEE729
:10B710000200083A1268002A01D072B6FEE7083823
:10B7200004005B005B08436000F052FB074A63685B
:10B7300011688C46634413602000FFF72BFF044A16
:10B7400013680133136000F00DFC10BD0C030020E2
:10B750001C03002003000833436001225242826030
:10B76000C3600361002303607047C0460023036188
:10B770007047C04643684B609A688A609A68516017
:10B7800099600861036801330360704730B50C6845
:10B7900002000832631C02D1026904E01A005368F7
:10B7A0001D68AC42FAD253684B6099608A60516060
:10B7B000086103680133036030BDC0460369426815
:10B7C000816891608268416851605A68904201D1F5
:10B7D00082685A60002202611A68013A1A60186889
:10B7E0007047C04682B000230193064B1B680133AB
:10B7F00001D072B6FEE772B6019B002BFCD002B0FE
:10B800007047C0461000002000000000000000004B
:10B810000B4A13681868203080F30988022080F3EF
:10B820001488BFF36F8F3FBCAE4608BC04BC62B641
:10B830001847C046C046C046C046C046C046C0467F
:10B84000C41B002010B5031F802464041C60043B4B
:10B850001960043B02491960143B1A60403810BD5E
:10B86000E5B7000880225205034B1A60BFF34F8FE3
:10B87000BFF36F8F7047C04604ED00E072B6044A14
:10B88000136801331360BFF34F8FBFF36F8F70479F
:10B8900010000020064B1B68002B01D172B6FEE79A
:10B8A000013B034A1360002B00D162B67047C046CB
:10B8B00010000020EFF3108072B6704780F31088FC
:10B8C0007047C046000000000000000000000000BB
:10B8D000EFF309800E4B1A6820381060F0C0444620
:10B8E0004D4656465F46F0C008B572B600F016FCED
:10B8F00062B60CBC116808681030F0C8A046A946B2
:10B90000B246BB4680F309882038F0C81847C046C5
:10B91000C41B002010B5FFF7CDFF040000F066FA4D
:10B92000002803D080225205024B1A602000FFF746
:10B93000C5FF10BD04ED00E010B5084C00232360E6
:10B94000074A1360074B1868FA218900FDF7B8FB16
:10B950000138054B18600723236010BD10E000E09C
:10B9600018E000E02000002014E000E010B50C4BCF
:10B970001A68FF2109040A431A601A68FF210906A0
:10B980000A431A60FFF7D8FF0022064B1A60FFF740
:10B990003FFF00F0C3FBFFF725FF002010BDC046AE
:10B9A00020ED00E010000020084B1B681B68002BF6
:10B9B00004D101225242064B1A6005E0034B1B687A
:10B9C000DB681A68024B1A607047C046281B0020CB
:10B9D000C81B0020F0B5474680B4144B9846144F5E
:10B9E000144E43461B68002B18D0104DFFF746FF3E
:10B9F000FB68DC68201DFFF7E1FE3368013B336024
:10BA00002B68013B2B60FFF745FF206BFFF776FEAD
:10BA10002000FFF773FE2B68002BE7D1064B1B6855
:10BA2000012BDED9FFF71EFFDBE7C046041C002018
:10BA3000301B00201C1C00205C1B002070B5040083
:10BA40000D001E4B1E681E4B18680430FFF7B6FE33
:10BA5000631C16D1002D14D01A4A5168184B18686F
:10BA6000816018688C68C4608C68186804306060F5
:10BA70001868043088601B685A61136801331360CA
:10BA80001AE034190E4B1B685C60A64207D90E4BB6
:10BA900018680B4B19680431FFF778FE0CE00B4B6C
:10BAA0001868074B19680431FFF770FE084B1B68D4
:10BAB0009C4201D2064B1C6070BDC046D01B0020CA
:10BAC000C41B0020441B0020D41B0020281B002086
:10BAD000C81B0020F0B5474680B482B000900E002D
:10BAE000019395002800FFF77FFD041E00D1C7E0F9
:10BAF0005820FFF779FD071E0ED0582200210BF0C9
:10BB00002DFF3C632A00A52120000BF027FF3B6B93
:10BB10009846002E04D11EE02000FFF7EFFDAFE0B5
:10BB20000022B2563423FA540023F356002B0FD0D0
:10BB3000731C3A00353239003E310020185610701F
:10BB400000201856002803D0013301328A42F4D174
:10BB500000223D23FA54089B042B01D972B6FEE75C
:10BB6000089E042E00D90426FE62BE643C1D2000FF
:10BB7000FFF7FCFD38001830FFF7F8FD3F610523A3
:10BB80009B1BBB617F62281F404407239843019A97
:10BB90000099FFF757FE3860099B002B00D01F600B
:10BBA000FFF76CFE394A136801331360384B1B688A
:10BBB000002B23D1364B1F601368012B2AD1354D42
:10BBC0002E0064362800FFF7C5FD1435AE42F9D1CA
:10BBD000314E3000FFF7BEFD304D2800FFF7BAFDB3
:10BBE0002F48FFF7B7FD2F48FFF7B4FD2E48FFF7AA
:10BBF000B1FD2E4B1E602E4B1D600BE02D4B1B68C4
:10BC0000002B07D1224B1B68DB6AFA6A934201D8EA
:10BC10001F4B1F60284A1368013313603B64FB6AA3
:10BC2000264A1268934201D9244A136019499A009E
:10BC3000D3189B00CB185B68BB609A68FA609A685F
:10BC400054609C60FB6A9800C21892008A187A615E
:10BC5000C218920052580132C3189B005A50FFF785
:10BC600019FE144B1B680120002B0BD0084B1B68DE
:10BC7000DA6AFB6A9A4205D2FFF7F4FD012001E07F
:10BC80000120404202B004BC9046F0BD1C1C0020C4
:10BC9000C41B00205C1B0020F01B0020D81B0020D0
:10BCA000081C0020301B0020441B0020281B002003
:10BCB000D41B00202C1B0020EC1B0020201C00208B
:10BCC00070B50400FFF7DAFD002C01D1204B1C6891
:10BCD000251D2800FFF772FDA36A002B03D020006A
:10BCE0001830FFF76BFD1B4A136801331360184BC4
:10BCF0001B689C4208D129001748FFF73BFD174AF3
:10BD000013680133136005E0154A1368013B1360A3
:10BD1000FFF74AFEFFF7BEFD0D4B1B689C4205D0A6
:10BD2000206BFFF7EBFC2000FFF7E8FC0D4B1B68D6
:10BD3000002B0BD0064B1B689C4207D10A4B1B689B
:10BD4000002B01D072B6FEE7FFF78CFD70BDC04638
:10BD5000C41B0020EC1B0020301B0020041C002012
:10BD60001C1C00202C1B0020C01B002000B583B031
:10BD7000104B019300230093802252000E490F487C
:10BD8000FFF7A8FE01280DD172B6012252420C4BDA
:10BD90001A6002320B4B1A6000220B4B1A60FFF73D
:10BDA000E5FD03E0431C01D172B6FEE7074B1B68BB
:10BDB00003B000BDCC1B0020687B0108D5B900088A
:10BDC000C81B00202C1B0020D01B002014000020CA
:10BDD000024A1368013313607047C046C01B00203D
:10BDE000014B18687047C046D01B0020F0B547468D
:10BDF00080B4514B1B68002B00D094E04F4B1C6863
:10BE000001341C60002C12D14D4B1B681B68002BA9
:10BE100001D072B6FEE74A4A11684A4B18681060B2
:10BE20001960494A136801331360FFF7BDFD474BA2
:10BE30001B6800209C4265D30020414B9846002699
:10BE400043461B681B68002B04D1012252423F4B22
:10BE50001A6057E03A4B1B68DB68DB685A6894420B
:10BE600002D23A4B1A604DE05A699968DF688F60D8
:10BE7000D9689F684F60191D57688F4201D1DF68EC
:10BE800057605E611768013F17609A6A002A10D0F8
:10BE9000DF691D6ABD601F6ADD697D601F0018379C
:10BEA0005568BD4201D11D6A55609E621768013F09
:10BEB0001760DA6A264D2F68BA4200D92A609700C7
:10BEC000BA189200234DAC46624452689A60956855
:10BED000DD60976879609160DA6A9700B918890027
:10BEE000654661445961B918890049590131BA1848
:10BEF00092005151184A1168DA6ACB6A9A429FD966
:10BF000001209DE7144B1B68DB6A9A00D3189B0045
:10BF1000104A9B58012B00D90120104B1B68002BA5
:10BF200006D0012004E00E4A13680133136000209C
:10BF300004BC9046F0BDC046C01B0020D01B0020B2
:10BF4000281B0020D41B0020241B0020C81B00201D
:10BF5000201C00205C1B0020C41B0020241C00208F
:10BF6000581B0020F8B5464B1B68002B01D172B658
:10BF7000FEE7FFF783FC424B1A68013A1A601B6820
:10BF80000024002B77D13F4B1A680023002A4ED1A2
:10BF900071E0F368DB689C6ADA691D6A95601A6A69
:10BFA000DD6955601A0018326568954201D11A6A38
:10BFB000626098622268013A22605D699A68DC6872
:10BFC0009460DA689C6854601C1D6A68A24201D1C2
:10BFD000DA686A6058612A68013A2A60DA6A2A4D8A
:10BFE0002D68AA4201D9284D2A609500AA1892000E
:10BFF0008A1852689A609568DD6095686C609460F4
:10C00000DA6A9500AC18A4000C195C61AC18A400A5
:10C0100064580134AA18920054501C4A1268D26A1B
:10C02000DC6A944207D30122194C226003E0194FC5
:10C030003E00002018493A68002AAAD1002B01D0FE
:10C04000FFF7B2FC154B1C68002C0CD0104E0125DC
:10C05000FFF7CCFE002800D03560013C002CF7D162
:10C0600000220E4B1A600A4B1B680024002B02D0E2
:10C07000FFF7F8FB0134FFF70DFC2000F8BDC046C8
:10C08000C01B00201C1C0020201C0020C41B002002
:10C09000241C0020081C00205C1B0020581B0020D2
:10C0A00070B505000C00002801D172B6FEE700292A
:10C0B00001D172B6FEE7174B1B68002B01D072B698
:10C0C000FEE7FFF785FE144B18682A68A318904214
:10C0D00008D29A4219D99842A44164422B609842EE
:10C0E00009D204E09A420DD898420BD30DE0181AF9
:10C0F0000021FFF7A3FCFFF735FF002808D1FFF769
:10C10000B1FB05E02B600124F1E72B600024F2E78E
:10C11000200070BDC01B0020D01B002010B5214B9B
:10C120001B68002B03D001221F4B1A6038E000224D
:10C130001D4B1A601D4B1B689A00D21892001C49B7
:10C140005258002A0DD1002B02D003E0002B01D160
:10C1500072B6FEE7013B9A00D21892005258002AAC
:10C16000F4D0134C9A00D1188900611848684068CF
:10C170004860D21892000832A218904205D1416856
:10C180009A00D2189200A21851609A00D218920018
:10C1900007498A185268D168064A1160034A136039
:10C1A00010BDC046C01B0020241C0020201C002005
:10C1B0005C1B0020C41B002010B5104C0022012184
:10C1C000200005F019FC00220021200005F014FCDD
:10C1D00001220021200005F075FC094C00220321FA
:10C1E000200005F009FC01220321200005F06AFC73
:10C1F00001220321200005F0EFFB10BD0000082004
:10C200003000082010B5124C01220121200005F059
:10C2100059FC01220121200005F0DEFB0122002152
:10C22000200005F0D9FB0420FEF7FEFC00220121CE
:10C23000200005F0D1FB0420FEF7F6FC00220021CF
:10C24000200005F0C9FB0420FEF7EEFC10BDC0463F
:10C250000000082010B50E4C01220121200005F03D
:10C2600031FC00220121200005F0B6FB0420FEF77E
:10C27000DBFC01220021200005F0AEFB0420FEF7CC
:10C28000D3FC01220121200005F0A6FB10BDC04611
:10C290000000082070B5050001220121164805F0B4
:10C2A00011FC0824144E6BB2002B05DA0122012187
:10C2B000300005F091FB04E000220121300005F080
:10C2C0008BFB6D00EDB20420FEF7AEFC01220021D5
:10C2D000300005F081FB0420FEF7A6FC00220021BF
:10C2E000300005F079FB0420FEF79EFC013CE4B22F
:10C2F000002CD8D170BDC0460000082070B5184C85
:10C3000000220121200005F0DDFB01220121200097
:10C3100005F062FB0420FEF787FC012200212000CB
:10C3200005F05AFB0420FEF77FFCFB240C4D06E0D1
:10C33000013CE4B2002C02D1FFF78CFF0EE001219A
:10C34000280005F053FB0028F2D100220021044808
:10C3500005F042FB0420FEF767FC0124200070BDBD
:10C360000000082010B5124C01220121200005F028
:10C37000A9FB00220121200005F02EFB0420FEF77E
:10C3800053FC01220021200005F026FB0420FEF7CB
:10C390004BFC00220021200005F01EFB0420FEF7CC
:10C3A00043FC01220121200005F016FB10BDC04610
:10C3B0000000082010B50F4C01220121200005F0DB
:10C3C00081FB01220121200005F006FB0420FEF77D
:10C3D0002BFC01220021200005F0FEFA0420FEF7CC
:10C3E00023FC00220021200005F0F6FA0420FEF7CD
:10C3F0001BFC10BD00000820F8B507001A4C0022F5
:10C400000121200005F05EFB01220121200005F042
:10C41000E3FA08260024144D01220021280005F02B
:10C42000DBFA0420FEF700FC6400E4B201212800DE
:10C4300005F0DCFA002801D00134E4B2002200212A
:10C44000280005F0C9FA0420FEF7EEFB013EF6B223
:10C45000002EE1D1002F02D1FFF7ACFF01E0FFF782
:10C4600081FF2000F8BDC0460000082070B5040020
:10C470000D001600821880239B0100209A423DDCAB
:10C4800000293AD0FFF7BEFEA020FFF703FFFFF719
:10C4900035FF00282DD0200AFFF7FCFEFFF72EFF06
:10C4A000002826D0E0B2FFF7F5FEFFF727FF0028AF
:10C4B0001FD0FFF7A7FEA120FFF7ECFEFFF71EFF3E
:10C4C000002816D0B31E9BB2012E0AD02C000133D7
:10C4D000ED182E000120FFF78FFF20700134B442C9
:10C4E000F8D10020FFF788FF2870FFF7B3FE012086
:10C4F00004E0FFF7AFFE002000E0002070BDC04662
:10C50000F8B557464E46C0B405008A461400821856
:10C5100080239B0100209A425BDC002958D0002236
:10C5200003212E4805F058FA002C3BD02C19A3B259
:10C53000994600271F26BBB2002B01D02E4224D1E2
:10C54000FFF788FEFA208000FEF76EFB0024FFF75D
:10C5500059FEA020FFF79EFEFFF7D0FE002804D171
:10C560000134A4B2642CF2D129E0642C27D0280A2B
:10C57000FFF790FEFFF7C2FE002820D0E8B2FFF7D9
:10C5800089FEFFF7BBFE002819D05346D85DFFF7A0
:10C5900081FEFFF7B3FE002811D00135ADB201379F
:10C5A000A945C8D1FFF756FEFA208000FEF73CFBF4
:10C5B00001220321094805F00FFA012009E0FFF7E5
:10C5C00049FE01220321054805F006FA002000E09B
:10C5D00000200CBC91469A46F8BDC04630000820A9
:10C5E000002103E00F4B5B58435004310E480F4BC2
:10C5F00042189A42F6D30E4A03E000231360042344
:10C600001A440C4B9A42F8D300F048F90A480B49F7
:10C6100001800B48094901800A480B490180FEF757
:10C62000CBF970472C7D0108000000202C01002070
:10C63000300100205037002014000820FFFF0000C8
:10C640004400082074000820FF030000FEE70000FB
:10C6500082B00022019201380A4B58609A6005327C
:10C660001A601900802252020B680193019B134249
:10C67000FAD0044B1A6801218A431A6000229A609A
:10C6800002B0704710E000E000B583B000226B46B6
:10C69000DA71002006F0A6FB012006F0AFFB0128AE
:10C6A00005D104F0EBFF01226B46DA7105E00020B2
:10C6B00004F0E4FF00226B46DA71002004F0C8FFAA
:10C6C000012006F0CDFB01280CD1002004F0E2FF90
:10C6D000082004F0EBFF602004F0F8FF012004F0D4
:10C6E000AFFF0BE06B4607331B78012B03D1022011
:10C6F00004F0A6FF02E0002004F0A2FF03B000BD9A
:10C700000B4B0C4A1A600C4A1A600C4B0C4A1A600C
:10C71000802189020B4A11608022520019680A4365
:10C720001A60094A80231B0611680B431360704787
:10C73000002000401178AC00674523011420004020
:10C74000312000004020004004200040F8B50A4B92
:10C750001B6843431F001D0E08D00024802676046A
:10C760003000FFF775FF0134A542F9D13802000A05
:10C77000FFF76EFFF8BDC046281C002010B584B03E
:10C780000F226A44002313700E2169440B700D219F
:10C7900069440B7003A90B700B2169440B700A21CB
:10C7A00069440B70092169440B7001938020C00516
:10C7B000036803242340137003689B059B0F013318
:10C7C0000B701378DBB2012B08D0002B02D0022BA8
:10C7D0004AD04CE02C4A2D4B1A6048E08021C90514
:10C7E0000B68DB02DB0F0B226A4413700B689B069D
:10C7F0009B0F013303A8037025480B589B0F254C52
:10C80000E35CDBB20A246C4423700B589B00DB0E04
:10C810005B000E246C4423700B58DB0BDBB20D2144
:10C8200069440B701378002B03D0174A174B1A601A
:10C8300002E0154A154B1A600D236B4418780A2341
:10C840006B441978C9B2114C23685843FCF738FC83
:10C85000019001980E236B44197803AB1B78594360
:10C86000FCF72EFC206002E0074A084B1A600923FF
:10C870006B441978C9B2054B1868FCF721FC064BCC
:10C88000186004B010BDC04600127A0020000020DD
:10C89000908800001C0000202400002010B5074BE9
:10C8A000074A9A60074A084B1A60FFF729FFFFF70B
:10C8B000EBFE012004F0D6FE10BDC04600ED00E006
:10C8C00000900008006CDC022000002003789A072A
:10C8D000D20F50005A07D20F92008218D807C00F0B
:10C8E00010181A07D20FD2008018DA06D20F1201E0
:10C8F00080189A06D20F520180185A06D20F920160
:10C900008018DB09DB01C018C0B27047F0B547469C
:10C9100080B407000D0014001D2200210BF01EF84A
:10C920000022194B1A70012C02D0022C14D027E0DF
:10C93000164C26001C36144B98462000FFF7C6FF05
:10C940002840854204D143461B7801334246137088
:10C950000134B442F1D113E00C4E01240A4B984645
:10C960003000FFF7B3FF284205D043461B785A1C1E
:10C9700041460A70FC540134E4B201361D2CEFD15B
:10C98000380004BC9046F0BD21220020D5220020B2
:10C99000F8B5040000220F4B1A701D3200210AF076
:10C9A000DDFF0123002000270B4E0125D9B29A009C
:10C9B000B218D278D20703D57A1CE155D7B2280035
:10C9C00001331D2BF2D1002801D0024B1F70200033
:10C9D000F8BDC046D02200201CB001088000034BE7
:10C9E0001818C078C007C00FC0B270471CB001084B
:10C9F000C007C00FC0B2704770B51C2800D9B7E09F
:10CA00005C4A821883005C4CE318DB78DB0760D556
:10CA10005A4B1B78012B5CD1012900D098E011788A
:10CA20001943C9B202230B43D9B220230B43EF2190
:10CA30000B40AF398B4308210B431370504B1E78CA
:10CA4000B0421ED01C0031000025002303E0083452
:10CA50002178884215D0002900D01D000133DBB2B7
:10CA6000042BF4D171E0002D04D1002E02D1444BEF
:10CA7000187003E00135ED00414BE8540121414BB2
:10CA80001970414B187080003B4B1818C3789B07F6
:10CA9000DB0F012B6AD142E001243C4B1C70354B6B
:10CAA0001B5CDB070DD5374B1C700023344D002673
:10CAB000EC5C844202D1324C1C1926700833202BC6
:10CAC000F6D12C4C235C0825AB43073DAB432354E4
:10CAD00017E02A4B1B78002B13D101242B4B1C7021
:10CAE000244D2B5C0826B343A3431F34A3431E3CB1
:10CAF000A34310242343DBB2402423437F24234059
:10CB00002B5480001C4B1818C3789B07DB0F012B9C
:10CB100010D11A4B1B78012B2AD1012923D113786C
:10CB2000802149420B43137022E013787F210B4090
:10CB300013701DE0002B1BD1104B1B78012B17D15C
:10CB400013787F210B40137012E0022D8BD998E7E8
:10CB50000029A1D08000084B1818C3789B07DB0F71
:10CB6000012BE7D1D9E7002902D1DEE7002BE7D07E
:10CB700070BDC046D42200201CB001082022002035
:10CB8000981F0020A4240020182200201622002034
:10CB9000037801229343013293437D3213400370A3
:10CBA0007047C046037808229343043A9343033AFC
:10CBB00093431F3293431E3A934310221343DBB235
:10CBC000402213437F2213400370704770B5154C09
:10CBD00025001C352000FFF7E5FF0134AC42F9D1F8
:10CBE000AB22114B1A700023104A1370104A1370B5
:10CBF000104A1370104A002050709070D3700F4A82
:10CC0000137001220E490430FFF730FC20220D4939
:10CC10000720FFF72BFC04220B492720FFF726FCF7
:10CC200070BDC046D52200201722002021220020FE
:10CC3000A424002016220020182200200822002010
:10CC400020220020981F0020901F0020F8B55F468A
:10CC500056464D464446F0B4244C0020A2460021DE
:10CC600008239946043B9846033B9C46202702260E
:10CC7000C200524451709170E170217013794D4699
:10CC8000AB434546AB436546AB43BB43B34310257B
:10CC9000AB465D462B43DBB29B4640235D462B43B0
:10CCA0007F252B401371124BC318197001300834C3
:10CCB0000428DDD10F4A0023002050709070D370FB
:10CCC0000D4A13700D4A13700D4C25001C352000C1
:10CCD000FFF768FF0134AC42F9D10122094B1A7009
:10CCE0003CBC90469946A246AB46F8BD981F002032
:10CCF000901F002018220020082200204E22002031
:10CD0000D52200202C1C002070B5040003280FD869
:10CD100085B2C100074BC918E80007300822FFF7A9
:10CD2000EFFB05496118280027300122FFF7E8FBD7
:10CD300070BDC046981F0020901F0020F8B55F46C8
:10CD400056464D464446F0B4804B1B78012B13D118
:10CD500000227E4B1A700020FFF7D6FF0120FFF75C
:10CD6000D3FF0220FFF7D0FF0320FFF7CDFF012202
:10CD700077492B20FFF7C4FB764B1B78012B7BD127
:10CD8000754B1B78012B00D090E00022714B1A707C
:10CD9000724C012399460026F5B237002000217815
:10CDA00000291AD06E4A8B00985CD3185A789246A4
:10CDB0006A4AF700BC4662445070504690709A78B8
:10CDC000E270684A9155DB789B0702D50122604BDF
:10CDD0001A702800FFF798FF41E04B46032B00D95B
:10CDE0008BE0237A002B00D08AE04B465B4A04E0BC
:10CDF000D900895C002900D083E00133DBB2042B29
:10CE0000F6D17AE0554F0024564EEA00BB185C700C
:10CE10009C70DC70D45574552800FFF775FF6B1CAF
:10CE2000DDB2042DF1D122E00122494B1A704B4BA7
:10CE300098466346D80043461A18531C9A46002366
:10CE40000027BB465770574659467970D370424603
:10CE50008354444A614653542800FFF755FF013676
:10CE60004F4601370834FBB29946042E94D1012273
:10CE700037492B20FFF744FB3B4B1B78002B15D089
:10CE8000354A1278012A11D135499A00545C8A1822
:10CE9000507835494C7088709078C87033490B7061
:10CEA000D3789B0702D50122294B1A70304B1B788F
:10CEB000012B45D100222E4B1A7001210123284855
:10CEC0002C4C8A008218D278D20702D5625CD20735
:10CED00005D40133DBB201311D2BF2D101E01D2B52
:10CEE0002ED1214A00231370002050709070D3700F
:10CEF0001E4A1370164A137022E0032D82D9B6E73A
:10CF00004B469C46DB00154A995C01708B00144A25
:10CF10009A5C9346124A924653445A789246FA00D3
:10CF20000E4FB84642445F465770574697709A78FE
:10CF3000C2700C4A9155DB789B0700D574E776E701
:10CF40003CBC90469946A246AB46F8BD2C1C00203E
:10CF50004E220020A424002020220020981F002020
:10CF60001CB00108901F0020182200200822002079
:10CF700016220020D4220020094A002313701371C6
:10CF80005370537193709371D370064A1380064A9D
:10CF90001380064A1380064A1380064A13607047BE
:10CFA0000C220020A8240020941F0020142200201E
:10CFB00050240020C42100200349A0228B58802047
:10CFC00083438B507047C0460078004030B5104B0B
:10CFD0001D78002D1AD00F4B1B68984210D106E027
:10CFE0001C00116801330C3281420CD100E0002496
:10CFF00063001C19A400074B1C190023E38005E003
:10D00000044A0C320123D9B28D42E9D830BDC04662
:10D01000B01C0020381C002010B5304BDB7ADB0739
:10D0200054D52F4A13680A3313602E4A12882E49AA
:10D0300009688A4203D300212A4A118002E00A3299
:10D0400028490A80294A1278022A10D1284A1268EF
:10D05000934242D90023224A1360264A1380234B6D
:10D0600000221A7000210220FFF7C6FC35E0012AD9
:10D0700033D1214A1268934211D31E4A12881F49A4
:10D0800009688A420BD20021154B19600132194BF5
:10D090001A800222154B1A70FFF78EFF1DE0184A06
:10D0A0001268934219D3154B1B68124A12889A4290
:10D0B00013D300220A4B1A6002320C4B1A70FFF78E
:10D0C0007BFF01210220FFF797FC06E00023054AC1
:10D0D0001380084A1380024A136010BD1CB0010877
:10D0E000C421002014220020ACB001080C22002032
:10D0F000A0B0010850240020A8B00108B0B0010879
:10D10000A4B00108F0B54F4680B482B0734B1B88C1
:10D11000734A1268934232D2724AD279D2072ED51C
:10D120000A336E4A1380B0236F4AD3581B065B0F35
:10D130001AD06E4A13880A339BB213806C4A126865
:10D14000934221D30022694B1A8001210120FFF76D
:10D1500053FC6549A0228B588020834303438B50A6
:10D160008B5883438B500FE00022604B1A8061483C
:10D17000FFF70EFD00210120FFF73EFC04E0002335
:10D18000564A1380594A1380FFF746FF5A4B1B78C3
:10D19000012B00D09DE0594B1B78002B03D1584B3D
:10D1A0001B78002B05D1574B1B780024002B75D121
:10D1B0008FE0554A013BDBB201335900C9188900A1
:10D1C0005118484E1000D37A9B00F318DB78DB0728
:10D1D00060D5D3880A339FB2D78094884B4B1B68A5
:10D1E00063439BB201934A4D2D68AB4203D2484B37
:10D1F0001B689BB208E0474D2D68A946019D4D452F
:10D2000002D9444B1B689BB29F4207D3C380837AE9
:10D210000F27BB4301273B4383721CE0837A0F2710
:10D220003B40012B52D100230381837ABB431F0073
:10D2300002233B4383720EE003890A339BB20381CE
:10D24000354D2F686743BB4224D300230381837A83
:10D250000F27BB438372837A0F273B40012B0CD1EE
:10D26000C37A033B5B00807A00090E3F87402B485E
:10D27000185AB843294C18530CE0002B0AD1C37A32
:10D28000033B5B00877A3F090120B840234C1F5BBA
:10D29000384318530C328A4294D184E7114E194D09
:10D2A000E31C9B00F318DB78DB0709D563001B4AFE
:10D2B000995A4B425941C9B2E01CC0B2FFF79CFBDE
:10D2C0000134E4B22B78A342EAD802E0022BD4D195
:10D2D000B2E702B004BC9146F0BDC046A8240020CD
:10D2E000B8B001081CB0010800780040941F00206D
:10D2F000B4B00108D5220020A62400200C22002072
:10D30000B01C0020B11C0020381C00209CB001087B
:10D3100098B0010894B0010890B00108301C0020BA
:10D32000F0B5474680B40023022A62D9D71E022FE7
:10D330005FDC324B1E78002E1BD0314B1B689842AD
:10D3400054D02F4B98460C33751EEDB201356C004E
:10D35000A4466544AD002C00444405E00C331D0098
:10D360000C3D2D68854243D09C42F7D10023092E05
:10D370003FD8234B7400A519AD00E8505B19998084
:10D38000DA72997A0F20814399727B001D495C5AA9
:10D39000E3070CD501210123012528008840204204
:10D3A00006D00133DBB20131102BF6D100E00023AF
:10D3B0007800012199400C431249445270008019B1
:10D3C00080000F4908181901837A0F2423400B436A
:10D3D00083720136094B1E700B4B197801238F4263
:10D3E00007DB023A084B1A70012302E0012300E038
:10D3F0000123180004BC9046F0BDC046B01C0020BC
:10D40000381C0020301C0020B11C002010B503F097
:10D410004FFB10BD00B585B01022002168460AF010
:10D420009DFA064B009301236A465371044B029305
:10D430006946044805F0DEFD05B000BD7FA9030084
:10D440000DD400080011014070B582B001266B4672
:10D45000DE716B469D1D00249C71002002F048FF88
:10D46000002002F04BFF234B1C70234B1C70234BFE
:10D470001C70FFF7CFFF0322214B1A70214B1E7047
:10D480000132214B1A70214B1C70214B1C706732EA
:10D49000204980208000FEF7E9FF01221E49032079
:10D4A000FEF7E4FF01221D490120FEF7DFFF012204
:10D4B0001B490220FEF7DAFF012229000420FEF7B3
:10D4C000D5FF01280AD16B4606331B78012B05D006
:10D4D00001226B46D91D0330FFF712F8114A11687B
:10D4E000114B19705168597091689970D268DA704F
:10D4F00002B070BD0F34002018340020003400202A
:10D50000E533002010340020F1330020BB1C002044
:10D51000EC330020BC1C0020F0330020E43300205A
:10D52000EE33002000B00108281D002000B585B0B2
:10D530001022002168460AF011FA074B00930123DC
:10D540006A4653711373054B02936946044805F00C
:10D5500051FD05B000BDC0467FA903000DD40008F1
:10D5600000110140F0B5474680B40500884602F03E
:10D5700021FF070002F022FF0478427812022243C2
:10D5800083781B0413431A00C3781B06134301223C
:10D5900002710022427140351D70047842781202F7
:10D5A000224383781B0413431A00C3781B061343DA
:10D5B0000179427912020A431600013292B20271D5
:10D5C000120A42713D78797809022943BA78120427
:10D5D0000A431100FA7812060A4352787F210A4062
:10D5E0009A5501235B429C46E0444346002B29DDCB
:10D5F0000021047843781B0223431A0086783604FE
:10D6000033001343C67836061E43027943791B0262
:10D6100013439C4601339BB203711B0A43713D784F
:10D620007A7812022A43BB781B0413431A00FB7852
:10D630001B061343CB189B786246B3540131C9B221
:10D640004145D6DBFFF772FF04BC9046F0BDC046F3
:10D65000F0B557464E464546E0B404000D009246EC
:10D6600002F0A8FE060002F0A9FE0378427812023A
:10D670001A4383781B0413431A00C3781B06134311
:10D68000012202710022427140341C7004784278F9
:10D690001202224383781B0413431A00C3781B062B
:10D6A00013430179427912020A431700013292B200
:10D6B0000271120A42713278717809021143B2780C
:10D6C00012040A431100F27812060A4352787F21AD
:10D6D0000A40DA556B1E9946002B29DD0027047895
:10D6E00043781B0223431A00817809040B0013437B
:10D6F000C17809061943027943791B0213439846FE
:10D7000001339BB203711B0A4371357872781202A0
:10D710002A43B3781B0413431A00F3781B06134300
:10D72000FB189B7842468B547B1CDFB24F45D6DBFF
:10D73000047842781202224383781B0413431A00B0
:10D74000C3781B06134302794179090211434A1C2D
:10D7500092B20271120A42715246120A5A54047865
:10D7600042781202224383781B0413431A00C378C1
:10D770001B06134302794179090211434A1C92B2F4
:10D780000271120A427152465A54FFF7CFFE1CBC76
:10D7900090469946A246F0BDF0B557464E464546DE
:10D7A000E0B406000C009146984602F003FE050026
:10D7B00002F004FE0378427812021A4383781B04B5
:10D7C00013431A00C3781B0613430122027100227F
:10D7D0004271320040321A700378427812021A43C2
:10D7E00083781B0413431A00C3781B061343017983
:10D7F000427912020A431600013292B20271120AF1
:10D8000042712A78697809021143AA7812041143F7
:10D81000EA7812060A4352787F210A409A55631E1D
:10D820009A46002B29DD0027017843781B020B4321
:10D830001A0083781B041343C27812061A439446D5
:10D84000027943791B0213431E0001339BB203711B
:10D850001B0A437129786A7812020A43AB781B04C9
:10D8600013431A00EB781B061343FB189B786246A0
:10D8700093557B1CDFB25745D6DB04784278120201
:10D88000224383781B0413431A00C3781B061343F7
:10D8900002794179090211434A1C92B20271120ABB
:10D8A00042714A46120A5A540478427812022243BC
:10D8B00083781B0413431A00C3781B0613430279B1
:10D8C0004179090211434A1C92B20271120A427153
:10D8D0004A465A54047842781202224383781B0441
:10D8E00013431A00C3781B061343027941790902D6
:10D8F00011434A1C92B20271120A427142465A54B2
:10D90000FFF714FE1CBC90469946A246F0BDC046E7
:10D9100000B585B01022002168460AF01FF8064BBA
:10D92000009301236A465371044B029369460448ED
:10D9300005F060FB05B000BD7FA903000DD4000811
:10D9400000110140044B1878012802D100221A70FE
:10D9500000E000207047C046BB1C002072B6BFF339
:10D960004F8F034A034BDA60BFF34F8FC046FDE78A
:10D970000400FA0500ED00E070B506003E284DD128
:10D9800002F020FD040002F021FD05784278120229
:10D990002A4383781B0413431A00C3781B061343DE
:10D9A00001220271002242717E321A70057842789B
:10D9B00012022A4383781B0413431A00C3781B0600
:10D9C00013430279467936021643721C92B20271F1
:10D9D000120A42712578617809022943A27812045B
:10D9E0000A431100E27812060A4352787F210A4066
:10D9F0009A552078627812020243A3781B041343DD
:10DA00001A00E3781B0613435B787F2B02D8FFF7DD
:10DA10008DFD50E00022284B1A704CE002F0CAFC49
:10DA2000040002F0CBFC0578427812022A43837886
:10DA30001B0413431A00C3781B061343012202710F
:10DA40000022427140361E700578427812022A4345
:10DA500083781B0413431A00C3781B06134302790F
:10DA6000467936021643721C92B20271120A427152
:10DA70002578617809022943A27812040A4311002B
:10DA8000E27812060A4352787F210A409A5520789C
:10DA9000627812020243A3781B0413431A00E3784E
:10DAA0001B0613435B787F2B02D8FFF73FFD02E094
:10DAB0000022014B1A7070BDED33002070B50600D6
:10DAC0000D003E2842D102F07DFC02F07FFC04787C
:10DAD00042781202224383781B0413431A00C3784E
:10DAE0001B06134301220271002242717F321A7019
:10DAF000047842781202224383781B0413431A00ED
:10DB0000C3781B06134302794179090211434A1C69
:10DB100092B20271120A42713E225A54047842783B
:10DB20001202224383781B0413431A00C3781B0696
:10DB3000134302794179090211434A1C92B20271DE
:10DB4000120A42715D54FFF7F1FC3EE002F036FC30
:10DB5000047842781202224383781B0413431A008C
:10DB6000C3781B06134301220271002242717F32E7
:10DB70001A70047842781202224383781B041343FC
:10DB80001A00C3781B061343027941790902114335
:10DB90004A1C92B20271120A42715E5404784278B1
:10DBA0001202224383781B0413431A00C3781B0616
:10DBB000134302794179090211434A1C92B202715E
:10DBC000120A42715D54FFF7B1FC70BDF8B502F066
:10DBD000F1FB040002F0F2FB0578427812022A43BE
:10DBE00083781B0413431A00C3781B0613430122D6
:10DBF00002710022427150321A7005784278120286
:10DC00002A4383781B0413431A00C3781B0613436B
:10DC1000027947793F0217437A1C92B20271120AC5
:10DC200042712678617809023143A27812040A43CE
:10DC30001100E27812060A4352787F210A40DA5531
:10DC40000578427812022A4383781B0413431A0092
:10DC5000C3781B06134302794179090211434A1C18
:10DC600092B20271120A427100225A540578427827
:10DC700012022A4383781B0413431A00C3781B063D
:10DC8000134302794179090211434A1C92B202718D
:10DC9000120A427132225A540578427812022A43FB
:10DCA00083781B0413431A00C3781B0613430279BD
:10DCB0004179090211434A1C92B20271120A42715F
:10DCC00002225A540578427812022A4383781B04B0
:10DCD00013431A00C3781B061343027941790902E2
:10DCE00011434A1C92B20271120A4271BC225A5468
:10DCF0002078627812020243A3781B0413431A00AF
:10DD0000E3781B0613435B787F2B02D8FFF70EFCEA
:10DD100002E00022014B1A70F8BDC046ED3300202E
:10DD2000F8B505000E0017001C0002F043FB02F0DE
:10DD300045FB0378427812021A4383781B0413438D
:10DD40001A00C3781B06134301220271002242719C
:10DD500040351D700578427812022A4383781B04EF
:10DD600013431A00C3781B06134302794179090251
:10DD700011434A1C92B20271120A4271320A5A5479
:10DD80000578427812022A4383781B0413431A0051
:10DD9000C3781B06134302794179090211434A1CD7
:10DDA00092B20271120A42715E541A235F43134BFE
:10DDB000DF19FB7C002B1DD02600013BDBB20133B9
:10DDC000E3180578417809022943827812040A434E
:10DDD0001100C27812060A430179447924020C43E7
:10DDE000611C89B20171090A4171317811550136FE
:10DDF0009E42E6D1FFF79AFBF8BDC046FC7B0108C6
:10DE0000F8B5060002F0D6FA040002F0D7FA057859
:10DE1000427812022A4383781B0413431A00C37802
:10DE20001B061343012202710022427140361E700C
:10DE30000578427812022A4383781B0413431A00A0
:10DE4000C3781B061343027947793F0217437A1CB4
:10DE500092B20271120A4271267861780902314346
:10DE6000A27812040A431100E27812060A4352789B
:10DE7000DA550578427812022A4383781B0413434B
:10DE80001A00C3781B0613430279467936021643FB
:10DE9000721C92B20271120A4271257861780902ED
:10DEA0002943A27812040A431100E27812060A43B9
:10DEB00092789A55FFF73AFBF8BDC046F8B50500D1
:10DEC00002F078FA060002F079FA04784278120239
:10DED000224383781B0413431A00C3781B061343A1
:10DEE000012202710022427140351D70047842788F
:10DEF0001202224383781B0413431A00C3781B06C3
:10DF00001343027947793F0217437A1C92B2027198
:10DF1000120A42713578717809022943B2781204E5
:10DF20000A431100F27812060A4352787F210A4010
:10DF3000DA559E4B1B78012B58D104784278120297
:10DF4000224383781B0413431A00C3781B06134330
:10DF500002794179090211434A1C92B20271120AF4
:10DF600042712D225A540478427812022243837857
:10DF70001B0413431A00C3781B061343027941792B
:10DF8000090211434A1C92B20271120A4271CF2255
:10DF90005A54047842781202224383781B041343B4
:10DFA0001A00C3781B061343027941790902114311
:10DFB0004A1C92B20271120A427146225A540478E3
:10DFC00042781202224383781B0413431A00C37859
:10DFD0001B06134302794179090211434A1C92B28C
:10DFE0000271120A427129225A54DCE0704B1B78EC
:10DFF000012B0ED13478727812022243B3781B04BD
:10E0000013431A00F3781B0613435B78012B66D188
:10E010000FE0032B63D13478727812022243B37875
:10E020001B0413431A00F3781B0613435B78032B7E
:10E0300055D1047842781202224383781B0413439B
:10E040001A00C3781B061343027941790902114370
:10E050004A1C92B200250271120A42715D54047882
:10E0600042781202224383781B0413431A00C378B8
:10E070001B06134302794179090211434A1C92B2EB
:10E080000271120A42715D540478427812022243EE
:10E0900083781B0413431A00C3781B0613430279C9
:10E0A0004179090211434A1C92B20271120A42716B
:10E0B0005D54047842781202224383781B04134390
:10E0C0001A00C3781B0613430279417909021143F0
:10E0D0004A1C92B20271120A42715D5463E00478E4
:10E0E00042781202224383781B0413431A00C37838
:10E0F0001B06134302794179090211434A1C92B26B
:10E100000271120A42712B4D1C2252422C6862404D
:10E110005A54047842781202224383781B04134332
:10E120001A00C3781B06134302794179090211438F
:10E130004A1C92B20271120A4271732252422C6836
:10E1400062405A54047842781202224383781B04B6
:10E1500013431A00C3781B0613430279417909025D
:10E1600011434A1C92B20271120A427119222C68A0
:10E1700062405A54047842781202224383781B0486
:10E1800013431A00C3781B0613430279417909022D
:10E1900011434A1C92B20271120A42712A681E206F
:10E1A000404242405A54FFF7C1F9F8BD1800002020
:10E1B000F1330020841F002070B502F0FBF8050049
:10E1C00002F0FCF829786B781B020B431A00AC783C
:10E1D000240423001343EC7824061C430578437879
:10E1E0001B022B431A00817809040B001343C178EA
:10E1F000090619438A781206CB781B04D2184B798A
:10E20000D218097909025218D30912041A4352008C
:10E210002A4B534058011B0BA2781106E2781204D6
:10E220008A186179521821790902521803439A42D7
:10E2300008D10922224B1A700023224A1370224A65
:10E24000137039E0204B1B785A1C022A2BDD1D4A23
:10E250001278002A0FD101331B4A13700B22184B7E
:10E260001A700A3A174B1A70184A194B1A8004226E
:10E27000184B1A7020E0164B1B88002B0CD1012282
:10E28000104B1A70114A124B1A800B220C4B1A7049
:10E29000073A104B1A700FE00C22094B1A70083A1B
:10E2A0000C4B1A7008E00133074A13700A22044B22
:10E2B0001A70063A074B1A7070BDC04682FD3E7D4B
:10E2C000B31C0020EC330020B51C002060EAFFFFE7
:10E2D00028000020F1330020F0B583B002F06AF886
:10E2E000040002F06BF86E4A6E4B1A80BB226B463C
:10E2F000DA71227963791B021343022B07D00522BE
:10E30000694B1A7013211020FFF7D8FBC5E0257860
:10E31000627812022A43A3781B0413431A00E3789D
:10E320001B0613435B787F221340022B19D0DAB20D
:10E33000022A02D8012B05D044E0032B28D0042B5D
:10E3400033D03FE00123584A1370584A1370042217
:10E35000574B1A700022574B1A701020FFF736FCEB
:10E360009BE0514B1B78032B05D1013B4E4A1370A8
:10E370004E4A137035E0022B33D007224A4B1A70F5
:10E38000063A4A4B1A7022211020FFF797FB84E0CF
:10E390000323454A1370454A1370474B1A78454B7F
:10E3A0001A701020FFF712FC77E004233E4A137026
:10E3B0003E4A1370404B1A783E4B1A701020FFF7FC
:10E3C00005FC6AE00622384B1A70053A374B1A7082
:10E3D00012211020FFF772FB5FE0FBF709FEFFF749
:10E3E000BDFA354B1A78334B1A700122334B1A7031
:10E3F0000578427812022A4383781B0413431A00DB
:10E40000C3781B06134301220271002242717F323E
:10E410001A700578427812022A4383781B0413434A
:10E420001A00C3781B061343027947793F0217434A
:10E430007A1C92B20271120A42712678617809023E
:10E440003143A27812040A431100E27812060A430B
:10E450001278DA55047842781202224383781B043A
:10E4600013431A00C3781B0613430279417909024A
:10E4700011434A1C92B20271120A427178225A5414
:10E4800002F016FB0E48FCF7CFFB01226B46D91DAC
:10E490000320FEF735F801289FD003B0F0BDC04639
:10E4A00010270000B61C0020B21C002010340020F1
:10E4B000F13300200E340020EF3300200034002020
:10E4C0004C1D0000F8B501F075FF040001F076FF67
:10E4D0006F4B1B88002B09D06E4A6D4B1A80227936
:10E4E00063791B021343022B13D00DE001236A4A08
:10E4F00013700421694A1170694A13702279637993
:10E500001B021343022B09D013211120FFF7D6FA67
:10E51000BCE0614B1B78023B012B04D97E2111200A
:10E52000FFF7CCFAB2E05D4B1B7802229343012B3C
:10E5300004D033211120FFF7C1FAA7E025786278D3
:10E5400012022A43A3781B0413431A00E3781B0624
:10E5500013435B787F221340DAB2052A00D991E099
:10E560009B00504AD3589F464B4D01262E7007788A
:10E57000427812023A4383781B0413431A00C3788B
:10E580001B061343012202710022427151321A709C
:10E590000778427812023A4383781B0413431A0027
:10E5A000C3781B0613430179427912020A43944649
:10E5B000013292B20271120A42712778617809021F
:10E5C0003943A27812040A431100E27812060A4382
:10E5D00052787F210A4061465A54FEF7A7FF2D4822
:10E5E000FCF722FB2E70FFF7B9F901222A4B1A70B3
:10E5F0004CE0294D01262E700778427812023A43EA
:10E6000083781B0413431A00C3781B0613430122AB
:10E6100002710022427151321A7007784278120258
:10E620003A4383781B0413431A00C3781B06134331
:10E630000179427912020A439446013292B2027180
:10E64000120A42712778617809023943A2781204CC
:10E650000A431100E27812060A4352787F210A40E9
:10E6600061465A54FEF762FF0A48FCF7DDFA2E7045
:10E67000FFF774F90122084B1A7007E00122064BDC
:10E680001A7003E012211120FFF718FAF8BDC046F6
:10E69000B61C002010270000B21C0020F13300201F
:10E6A00010340020707B010870B501F083FE040077
:10E6B00001F084FE05002F4B1B88002B09D02E4A49
:10E6C0002C4B1A80227963791B021343042B13D03D
:10E6D0000DE00123294A13700421294A1170294AA7
:10E6E0001370227963791B021343042B0FD013217B
:10E6F0001420FFF7E3F93CE0204B1B780222934300
:10E70000012B04D022211420FFF7D8F931E0207822
:10E71000627812020243A3781B0413431A00E378C1
:10E720001B0613435A7811049A7812028A18DB7870
:10E73000D218154B9A4218D1FEF788FA0122134BD2
:10E740001A7028786A7812020243AB781B041343CC
:10E750001A00EB781B06134301222A7100226A710A
:10E7600054321A70FEF7E2FE03E031211420FFF765
:10E77000A5F970BDB61C002010270000B21C0020B7
:10E78000F133002010340020FFFFFF00BB1C0020ED
:10E79000F0B55F4656464D464446F0B491B001F0A0
:10E7A00009FE050001F00AFE0400D24B1B88002B75
:10E7B00003D0D14ACF4B1A8007E00123CF4A137010
:10E7C0000421CF4A1170CF4A13702A796B791B024A
:10E7D0001343023B9BB2012B04D913211920FFF7ED
:10E7E0006DF965E228786A7812020243AB781B045F
:10E7F00013431A00EB781B06134399785B78022BBE
:10E8000000D194E00A2B00D188E1012B00D04BE22B
:10E8100001226846FEF77AF82078627812020243F5
:10E82000A3781B0413431A00E3781B061343012249
:10E8300022710022627159321A70207862781202B5
:10E840000243A3781B0413431A00E3781B06134307
:10E85000227967793F0217437A1C92B22271120A19
:10E8600062712E78697809023143AA7812040A434A
:10E870001100EA7812060A435278DA552078627855
:10E8800012020243A3781B0413431A00E3781B0609
:10E89000134322796179090211434A1C92B2227111
:10E8A000120A6271984A12785A54207862781202D9
:10E8B0000243A3781B0413431A00E3781B06134397
:10E8C00022796179090211434A1C92B22271120A1B
:10E8D000627101225A542078627812020243A378AE
:10E8E0001B0413431A00E3781B0613432279617952
:10E8F000090211434A1C92B22271120A6271834AC0
:10E9000012785A5428786A7812020243AB781B04B2
:10E9100013431A00EB781B0613435B787F2B02D856
:10E92000FEF704FEC4E10022794B1A70C0E1022216
:10E9300008A8FDF7EBFF2078627812020243A37863
:10E940001B0413431A00E3781B06134301222271B0
:10E950000022627159321A702078627812020243E2
:10E96000A3781B0413431A00E3781B061343227990
:10E9700067793F0217437A1C92B22271120A6271C0
:10E980002E78697809023143AA7812040A431100EB
:10E99000EA7812060A435278DA5520786278120231
:10E9A0000243A3781B0413431A00E3781B061343A6
:10E9B00022796179090211434A1C92B22271120A2A
:10E9C0006271514A12785A54504B1B78002B7BD0FD
:10E9D0000026504F504B99464C4B98462078627811
:10E9E00012020243A3781B0413431A00E3781B06A8
:10E9F00013432179627912020A439246013292B29C
:10EA00002271120A627108AA925D9346920094469E
:10EA1000D25D6246B9184A7850461A542378627813
:10EA200012021A43A3781B041A43E3781B0613430C
:10EA300022799246627912025046104382460200C1
:10EA4000013292B22271120A62716246D25D487836
:10EA500050461A542378627812021A43A3781B0492
:10EA60001A43E3781B061343227994466279120213
:10EA7000604610430200013292B22271120A6271A2
:10EA80008A781A542378627812021A43A3781B04F6
:10EA900013431A00E3781B061343227961790902B4
:10EAA00011434A1C92B22271120A62719A468A4438
:10EAB00058464844FDF70AFF534618700136F6B22F
:10EAC00043461B78B34289D828786A7812020243F9
:10EAD000AB781B0413431A00EB781B0613435B78D7
