:0C800000F8B500BFF8BC08BC9E467047F5
:10800C0008B50021044606F0A5FB044B1868C36BA9
:10801C0003B19847204603F0DDF900BF0CEA0000DD
:10802C00024B13B1024806F001BC7047000000007F
:10803C0045E8000010B5054C237833B9044B13B157
:10804C000448AFF300800123237010BDBCEF010086
:10805C000000000018EA0000084B10B51BB10849DD
:10806C000848AFF300800848036803B910BD074BFC
:10807C00002BFBD0BDE81040184700BF00000000EB
:10808C00C0EF010018EA000028EA0100000000001F
:10809C00154B002B08BF134B9D46A3F5803A0021CE
:1080AC008B460F461348144A121A06F005FB0F4B69
:1080BC00002B00D098470E4B002B00D09847002087
:1080CC00002104000D000D48002802D00C4806F0D9
:1080DC00ADFB06F02FFA2000290000F021F8FFF785
:1080EC008FFF00BF0000080000000000000000002F
:1080FC0000000000BCEF0100D816020039E80000B7
:10810C0045E8000080B400AF62B6044B4FF48032F7
:10811C009A6000BFBD465DF8047B704700ED00E03F
:10812C0080B500AFFFF7EEFF06F0CEF803F0CEF906
:10813C0003F0A2FFFEE700BF80B584B000AF78600B
:10814C000B46FB700023FB81FB781946FF2004F0E3
:10815C003BFB02467B681A607B681B68002B01D1D5
:10816C000123FB81FB8918461037BD4680BD00BF3B
:10817C0080B584B000AF78607B681B68FB60F868E2
:10818C0004F0E4FB002318461037BD4680BD00BF49
:10819C0080B400AF054B5B69DBB203F00703DBB2C5
:1081AC001846BD465DF8047B704700BF0080004058
:1081BC0080B500AFFFF7ECFF0346184680BD00BF4B
:1081CC0080B483B000AF0346FB714FF080414FF099
:1081DC0080435B6923F40002FB79DB0513434B619D
:1081EC0000BF0C37BD465DF8047B704780B483B08C
:1081FC0000AF03460A46FB711346BB71FB79092B92
:10820C0000F2848001A252F823F000BF41820000EA
:10821C00598200007182000089820000A182000056
:10822C00B9820000D182000019830000E9820000AD
:10823C00018300004FF080414FF080435B6923F4D1
:10824C008062BB799B0213434B6160E04FF080412D
:10825C004FF080435B6923F40062BB79DB0213436C
:10826C004B6154E04FF080414FF080435B6923F445
:10827C008052BB791B0313434B6148E04FF08041A4
:10828C004FF080435B6923F40052BB795B031343CB
:10829C004B613CE04FF080414FF080435B6923F42D
:1082AC000042BB79DB0313434B6130E04FF080415C
:1082BC004FF080435B6923F48032BB791B0413437A
:1082CC004B6124E04FF080414FF080435B6923F415
:1082DC000032BB795B0413434B6118E04FF08041D3
:1082EC004FF080435B6923F40022BB79DB0413431A
:1082FC004B610CE04FF080414FF080435B6923F4FD
:10830C008012BB791B0513434B6100E000BF00BF1B
:10831C000C37BD465DF8047B704700BF80B483B05A
:10832C0000AF0346FB714FF080414FF080435B6917
:10833C0023F44072FB791B0213434B6100BF0C37D3
:10834C00BD465DF8047B704780B483B000AF034634
:10835C000A46FB711346BB71FB79092B00F28F8027
:10836C0001A252F823F000BF9D830000B3830000EC
:10837C00CB830000E3830000FB8300001384000028
:10838C002B840000438400005B8400007384000095
:10839C004FF080414FF080439B6923F00102BB7981
:1083AC0013438B616CE04FF080414FF080439B692D
:1083BC0023F00202BB795B0013438B6160E04FF04A
:1083CC0080414FF080439B6923F00402BB799B00F2
:1083DC0013438B6154E04FF080414FF080439B6915
:1083EC0023F00802BB79DB0013438B6148E04FF0AC
:1083FC0080414FF080439B6923F02002BB795B01E5
:10840C0013438B613CE04FF080414FF080439B69FC
:10841C0023F04002BB799B0113438B6130E04FF09A
:10842C0080414FF080439B6923F08002BB79DB01D4
:10843C0013438B6124E04FF080414FF080439B69E4
:10844C0023F48072BB791B0213438B6118E04FF04D
:10845C0080414FF080439B6923F40072BB795B022F
:10846C0013438B610CE04FF080414FF080439B69CC
:10847C0023F48062BB799B0213438B6100E000BF45
:10848C0000BF0C37BD465DF8047B704780B582B0E9
:10849C0000AF0346FB710B46BB7113467B71012089
:1084AC00FFF78EFEBA79FB7911461846FFF79EFE50
:1084BC007B791846FFF732FF00BF0837BD4680BDF9
:1084CC0080B582B000AF03460A46FB711346BB7100
:1084DC00BA79FB7911461846FFF736FF00BF08370B
:1084EC00BD4680BD80B584B000AFF860B96013465E
:1084FC00FB71FB791A46B968F86800F005F800BF03
:10850C001037BD4680BD00BF80B487B000AFF860A7
:10851C00B9601346FB71FB68BA6853F822307B6173
:10852C00FB79FB747B6923F4E0637B61FB7C1B02AE
:10853C007A6913437B61FB68BA68796943F8221046
:10854C0000BF1C37BD465DF8047B704780B483B018
:10855C0000AF0346FB7197F90730002B0BDB094981
:10856C0097F907305B09FA7902F01F02012000FA33
:10857C0002F241F8232000BF0C37BD465DF8047BA6
:10858C00704700BF00E100E080B485B000AFF86038
:10859C00B9607A603B60FB681B6823F07072BB6843
:1085AC009B051A43FB681A60FB681B6823F4702256
:1085BC007B681B041A43FB681A60FB681B6823F07A
:1085CC00F0023B681B011A43FB681A6000BF1437AA
:1085DC00BD465DF8047B704780B485B000AFF86091
:1085EC00B9607A603B60FB681B6823F07052BB6813
:1085FC009B061A43FB681A60FB681B6823F47042E5
:10860C007B681B031A43FB681A60FB681B6823F02A
:10861C000F023B681A43FB681A6000BF1437BD4653
:10862C005DF8047B704700BF80B485B000AFF86084
:10863C00B9607A60FB68DB6A23F47C62BB689B01DF
:10864C001A43FB68DA62FB681B6B23F47C627B6861
:10865C009B011A43FB681A6300BF1437BD465DF8D3
:10866C00047B704780B485B000AFF860B9607A6065
:10867C00FB68DB6A23F47C32BB681B031A43FB6880
:10868C00DA62FB681B6B23F47C327B681B031A4396
:10869C00FB681A6300BF1437BD465DF8047B704756
:1086AC0080B483B000AF78600B46FB707B681B68AE
:1086BC0023F40012FB785B051A437B681A6000BF39
:1086CC000C37BD465DF8047B704700BF80B485B0A5
:1086DC0000AFF860B9607A60FB68DB6A23F47C0257
:1086EC00BB689B041A43FB68DA62FB681B6B23F4C0
:1086FC007C027B689B041A43FB681A6300BF143727
:10870C00BD465DF8047B704780B485B000AFF8605F
:10871C00B9607A60FB68DB6A23F03F02BB681A43DE
:10872C00FB68DA62FB681B6B23F03F027B681A4321
:10873C00FB681A6300BF1437BD465DF8047B7047B5
:10874C0080B483B000AF786039607B681B6823F419
:10875C0080123B681B051A437B681A6000BF0C37FC
:10876C00BD465DF8047B704780B483B000AF786081
:10877C007B681B6803F480131B0D18460C37BD4631
:10878C005DF8047B704700BF80B483B000AF034634
:10879C00FB714FF080414FF080431B6823F0004287
:1087AC00FB79DB0713430B6000BF0C37BD465DF84C
:1087BC00047B704780B483B000AF786008461146E4
:1087CC001A460346FB700B46BB7013467B707B68E6
:1087DC00D3F8C03023F07852FB785B061A437B68E1
:1087EC00C3F8C0207B68D3F8C03023F4FF02BB78F9
:1087FC00DB031A437B68C3F8C0207B68D3F8C03016
:10880C0023F040427B789B071A437B68C3F8C02057
:10881C000B4A0B4BD3F8C43043F4E073C2F8C430AA
:10882C00074A074BD3F8C43023F00E0343F006037A
:10883C00C2F8C43000BF0C37BD465DF8047B7047EE
:10884C000088004080B485B000AFF860B9607A60F1
:10885C003B60FB68D3F8C03003F078535B0EDAB2A0
:10886C00BB681A70FB68D3F8C03003F4FF03DB0B52
:10887C00DAB27B681A70FB68D3F8C03003F040435F
:10888C009B0FDAB23B681A7000BF1437BD465DF817
:10889C00047B704780B483B000AF786039607B682C
:1088AC009B6C23F4E0623B681B021A437B689A645E
:1088BC0000BF0C37BD465DF8047B704780B483B0B5
:1088CC0000AF78600B46FB707B689B6C23F40062F6
:1088DC00FB78DB021A437B689A6400BF0C37BD46F9
:1088EC005DF8047B704700BF80B483B000AF0346D3
:1088FC00FB710749064B5B6823F08052FB791B0721
:10890C0013434B6000BF0C37BD465DF8047B7047CA
:10891C000080004080B483B000AF0346FB71074970
:10892C00064B5B6823F40072FB795B0213434B60CC
:10893C0000BF0C37BD465DF8047B704700800040DB
:10894C0080B483B000AF0346FB710749064B5B68EC
:10895C0023F48072FB791B0213434B6000BF0C376E
:10896C00BD465DF8047B70470080004080B400AFCA
:10897C00074B5B6803F080731B0E002B14BF0123A5
:10898C000023DBB21846BD465DF8047B704700BF80
:10899C000080004080B483B000AF0346FB710749F0
:1089AC00064B5B6823F48062FB799B0213434B609C
:1089BC0000BF0C37BD465DF8047B7047008000405B
:1089CC0080B400AF074B5B6803F000735B0E002BA9
:1089DC0014BF01230023DBB21846BD465DF8047BAF
:1089EC00704700BF0080004080B483B000AF0346E6
:1089FC00FB710749064B5B6823F00052FB795B0760
:108A0C0013434B6000BF0C37BD465DF8047B7047C9
:108A1C000080004080B400AF074B5B6803F08063BC
:108A2C009B0E002B14BF01230023DBB21846BD465E
:108A3C005DF8047B704700BF0080004080B483B0B9
:108A4C0000AF0346FB710749064B5B6823F00062DD
:108A5C00FB79DB0613434B6000BF0C37BD465DF85A
:108A6C00047B70470080004080B400AF074B5B680C
:108A7C0003F40003DB0D002B14BF01230023DBB236
:108A8C001846BD465DF8047B704700BF008000406F
:108A9C0080B485B000AF03460A46FB711346BB7128
:108AAC00FB79FB60FB681F2B1BD8BB79002B0BD011
:108ABC004FF080414FF080439A680120FB6800FA28
:108ACC0003F313438B604FE04FF080414FF0804332
:108ADC009A680120FB6800FA03F3DB4313408B60B8
:108AEC0042E0FB683F2B1ED8FB68203BFB60BB7948
:108AFC00002B0BD04FF080414FF08043DA680120FF
:108B0C00FB6800FA03F31343CB602DE04FF0804178
:108B1C004FF08043DA680120FB6800FA03F3DB4373
:108B2C001340CB6020E0FB68532B1DD8FB68403B07
:108B3C00FB60BB79002B0BD04FF080414FF0804392
:108B4C001A690120FB6800FA03F313430B610BE075
:108B5C004FF080414FF080431A690120FB6800FA06
:108B6C0003F3DB4313400B6100BF1437BD465DF8C4
:108B7C00047B704780B485B000AF03460A46FB7196
:108B8C001346BB71FB79FB60FB681F2B1BD8BB79B1
:108B9C00002B0BD04FF080414FF080431A6A01201C
:108BAC00FB6800FA03F313430B624FE04FF0804174
:108BBC004FF080431A6A0120FB6800FA03F3DB4391
:108BCC0013400B6242E0FB683F2B1ED8FB68203B36
:108BDC00FB60BB79002B0BD04FF080414FF08043F2
:108BEC005A6A0120FB6800FA03F313434B622DE031
:108BFC004FF080414FF080435A6A0120FB6800FA25
:108C0C0003F3DB4313404B6220E0FB684E2B1DD873
:108C1C00FB68403BFB60BB79002B0BD04FF08041D5
:108C2C004FF080439A6A0120FB6800FA03F3134368
:108C3C008B620BE04FF080414FF080439A6A012029
:108C4C00FB6800FA03F3DB4313408B6200BF14375D
:108C5C00BD465DF8047B704780B586B000AF6423D9
:108C6C003B6100F003FF03465B08FB606C4B012289
:108C7C001A604FF080431B6BBB604FF080424FF08B
:108C8C0080431B6B23F03F0343F0010313634FF04E
:108C9C0080424FF080431B6B23F47C3313634FF003
:108CAC008043DB6B7B604FF080424FF08043DB6B8B
:108CBC0023F0FF0343F05703D3634FF080439B68CB
:108CCC003B604FF080424FF080439B6843F00303BE
:108CDC0093604FF080424FF080431B6A23F00303F4
:108CEC0013624FF080424FF080431B6A43F0030342
:108CFC00136200BF4B4AFB685B0A4B49A1FB031391
:108D0C00DB081360494AFB685B094949A1FB031363
:108D1C00DB0903F00F035B001360464B01221A6062
:108D2C00454B01221A60454B03221A60444B052225
:108D3C001A60444B01221A60434B01221A60434BC8
:108D4C0003221A6000BF00BF414B1B6803F02003D5
:108D5C00002B05D13B69013B3B613B69002BF3D1F7
:108D6C003C4BAA221A6041F288333B6100BF3A4B5C
:108D7C001B6803F00103002B05D13B69013B3B61F0
:108D8C003B69002BF3D1354B1B68DBB2AA2B07D008
:108D9C003349334B1B6803F4E062324B13430B60D3
:108DAC004FF080424FF080431B6A23F003031362A1
:108DBC004FF080424FF080431B6A43F00303136271
:108DCC004FF080423B6893604FF080427B68D363E6
:108DDC004FF08042BB681363114B00221A604FF0B6
:108DEC0080424FF080431B6B23F03F03136300233F
:108DFC007B6103E000BF7B6901337B617B69632B83
:108E0C00F8D94FF080424FF080431B6B23F03F03A7
:108E1C0043F00103136300BF1837BD4680BD00BF8C
:108E2C004851084004800140ADC5A7004480014072
:108E3C00C55A7C0A0C80014014800140108001400E
:108E4C00048201400C8201401482014010820140D6
:108E5C0020820140008201402080014000800140BE
:108E6C000CED00E00400FA0580B598B000AF786016
:108E7C007B68FB657B68002B07D107F1080318465C
:108E8C0000F0FAF807F10803FB65FB6D184600F0DB
:108E9C001FF80346A7F85A30B7F85A30002B10D1F8
:108EAC00FFF7E2FD0346002B01D0FFF7D5FEFB6D6B
:108EBC002C33184600F090F8FB6D4833184600F040
:108ECC004BF8B7F85A3018466037BD4680BD00BF26
:108EDC0080B584B000AF78600023FB817B68002BE9
:108EEC0032D000F0A3FB0346FB81FB89002B04D19D
:108EFC00786800F0CBFB0346FB81FB89002B23D168
:108F0C00144B00221A607B6893F82030002B03D09E
:108F1C007B68DB690F4A13607B6893F82A30002B5F
:108F2C0012D07B6824331946012000F0ADFC0346B7
:108F3C00FB81FB89002B07D17B6827331946022064
:108F4C0000F0A2FC0346FB81FB8918461037BD4696
:108F5C0080BD00BFC413020080B584B000AF786040
:108F6C007B68002B33D07B685B68002B2FD00023F1
:108F7C00FB6027E07B685968FA6813465B00134472
:108F8C005B000B445B883B817B685968FA6813462D
:108F9C005B0013445B000B441B790133DBB2BB72E7
:108FAC007B685968FA6813465B0013445B000B44FA
:108FBC001B8807F108021146184600F097FDFB6864
:108FCC000133FB607B681A68FB689A42D2D800BFF9
:108FDC001037BD4680BD00BF80B584B000AF78604F
:108FEC007B681B78002B14D07B689B7819464FF05C
:108FFC00804000F0B3FE7B68DB7819464FF0804070
:10900C00FFF748FC7B685B7819464FF08040FFF710
:10901C0055FC7B681B79002B07D07B685A797B68E1
:10902C009B791946104600F0BBFF7B681B7A002B1E
:10903C0012D00023FB730CE0FA7BFB7B79680233C4
:10904C009B000B445B680B4941F82230FB7B0133DE
:10905C00FB73FB7B022BEFD97B681B7E002B04D0B0
:10906C007B685B7E184601F01DF800BF1037BD46CB
:10907C0080BD00BFC813020080B483B000AF78601D
:10908C007B6801229A707B680122DA707B6800226F
:10909C001A707B6800225A707B6801229A717B6877
:1090AC0000221A717B6800225A717B68012283F8B6
:1090BC0020207B680022DA617B6801221A747B68AD
:1090CC003C4A9A607B6800225A737B6800229A7330
:1090DC007B680022DA737B680122DA767B680022D7
:1090EC001A757B6860225A757B6808229A757B68B2
:1090FC000022DA757B6801225A767B6801229A7607
:10910C007B68012283F82A207B68002283F82620C2
:10911C007B68002283F825207B68012283F82420B9
:10912C007B68022283F829207B68002283F82820A0
:10913C007B68012283F827207B681F4ADA647B68EE
:10914C000D229A647B68012283F82C207B68002214
:10915C0083F82D207B68022283F82E207B68002266
:10916C0083F82F207B68012283F830207B68002253
:10917C0083F832207B68022283F831207B6801223D
:10918C0083F834207B6800229A637B680022DA63C0
:10919C007B6800221A647B68012283F844207B6878
:1091AC00002283F8452000BF0C37BD465DF8047BD8
:1091BC00704700BF00127A0034EA010080B582B01B
:1091CC0000AFFEF7F5FF0346002B02D0012B03D0B6
:1091DC0005E00123FB7105E00223FB7102E0032390
:1091EC00FB7100BFFB7918460837BD4680BD00BF38
:1091FC0080B586B000AF78600023FB82FFF7DEFFFE
:10920C000346FB73FB7B7968184600F03DFB034675
:10921C00FB82FB8A002B15D164233B613B69013B2C
:10922C003B614FF0804000F0C7FD02467B689B78A5
:10923C009A4202D03B69002BF0D13B69002B01D143
:10924C000323FB82FB8A18461837BD4680BD00BF3E
:10925C0080B586B000AF03463960FB710023FB82FA
:10926C003B68002B09D100233B7200237B72012346
:10927C00FB7207F108033B6101E03B683B614FF077
:10928C00804000F099FD0346022B02D10223FB82A1
:10929C0028E0FB79002B25D03B691B7819463B69EC
:1092AC005B781A464FF08040FFF7DCF9FB791846E3
:1092BC00FFF730FB3B69DB781846FFF741FB642373
:1092CC00FB6002E0FB68013BFB6000F0A7FB034680
:1092DC00002B02D1FB68002BF4D1FB68002B01D1D1
:1092EC000323FB82FB8A18461837BD4680BD00BF9E
:1092FC0080B586B000AF03463960FB710023FB825A
:10930C003B68002B07D100233B7200237B7207F1D3
:10931C0008033B6101E03B683B614FF0804000F08B
:10932C004BFD0346002B02D10223FB8227E0FB7985
:10933C00002B21D03B691B7819463B695B781A4698
:10934C004FF08040FFF770F9FB791846FFF722FBCE
:10935C006423FB6002E0FB68013BFB6000F072FBE6
:10936C000346002B02D1FB68002BF4D1FB68002BC9
:10937C0005D10323FB8202E00020FFF70BFBFB8AE5
:10938C0018461837BD4680BD80B588B000AF03467F
:10939C003960FB710023FB833B68002B0BD100234E
:1093AC00BB730023FB7300237B73464BBB6007F13D
:1093BC000803BB6101E03B68BB614FF0804000F0EB
:1093CC00FBFC0346012B02D10223FB8374E0FB79E7
:1093DC00002B6BD00020FFF7D7F9BB699B7919469E
:1093EC00BB69DB791A464FF08040FFF76FF9BB6918
:1093FC005B79002B14BF01230023DBB21846FFF767
:10940C0073FAFB791846FFF7EFFABB691B682E4A13
:10941C0013602E4B7B6102E07B69013B7B6100F0AA
:10942C00E9FA0346002B02D17B69002BF4D17B694E
:10943C00002B02D10323FB833EE0BB691B79012B7C
:10944C0013D0022B23D0002B00D035E000214FF09D
:10945C008040FFF725F900210420FFF731F80022A6
:10946C0000210420FFF712F826E001214FF0804084
:10947C00FFF716F900210420FFF722F80022012142
:10948C000420FFF703F83820FFF760F814E00121FF
:10949C004FF08040FFF704F901210420FFF710F88A
:1094AC00002200210420FEF7F1FF05E00020FFF769
:1094BC009BFA054B00221A60FB8B18462037BD46E1
:1094CC0080BD00BF00127A0030EA0100A0860100C6
:1094DC0080B588B000AF03463960FB710023FB8375
:1094EC003B68002B0FD101237B730123BB7300233B
:1094FC003B7260237B720823BB720023FB7207F163
:10950C000803BB6101E03B68BB614FF0804000F099
:10951C0053FC0346032B02D10223FB8302E0002001
:10952C00FFF78CFAFB79002B78D0FB8B002B75D1D5
:10953C000020FFF729F9BB69DB78002B03D100F081
:10954C006DFA786102E000F055FA7861BB691B781E
:10955C0001337A69B2FBF3F37B61BB695B781A4622
:10956C007B6902FB03F37B61BB695B7901221946C2
:10957C004FF08040FFF7C8F8BB69DB7819464FF015
:10958C008040FFF7DDF8BB699978BB695A78BB69F5
:10959C001B782548FFF70EF9FB791846FFF74EFAB2
:1095AC00BB691B79012B0ED0022B19D0002B00D0DC
:1095BC0020E000210520FEF783FF0022002105207A
:1095CC00FEF764FF16E000210520FEF779FF00226C
:1095DC0001210520FEF75AFF3820FEF7B7FF09E0FE
:1095EC0001210520FEF76CFF002200210520FEF76B
:1095FC004DFF00BF42F210733B6102E03B69013B3F
:10960C003B6100F033FA0346002B02D13B69002B7F
:10961C00F4D13B69002B01D10323FB83FB8B184650
:10962C002037BD4680BD00BF0088004080B582B0A9
:10963C0000AF0023FB804FF0804000F0BDFB0346E1
:10964C00002B1BD000F0FEF90346002B05D10021A6
:10965C000120FFF74DFE0346FB80FB88002B0DD14C
:10966C000023BB70084B9B787B70074BDB783B70FF
:10967C003B461846FFF7BCFD0346FB80FB881846AB
:10968C000837BD4680BD00BF1CE9000080B586B020
:10969C0000AF78600023FB827B689B787A68114668
:1096AC001846FFF7D5FD0346FB82FB8A002B16D12B
:1096BC007B681A7C7B68083319461046FFF764FEFA
:1096CC000346FB82FB8A002B09D17B68DA7E7B6820
:1096DC00143319461046FFF7FBFE0346FB82FFF7D7
:1096EC006DFD0346012B02D0022B04D007E07B68F2
:1096FC0024333B6106E07B6827333B6102E00023A7
:10970C003B6100BFFB8A002B40F08A803B69002B39
:10971C0000F086803B699B78002B64D10123FB828F
:10972C007B68DB7E002B11D0FB8A012B0ED103232F
:10973C00BB733E4B9B797B733C4BDB793B7307F1E3
:10974C000C031846FFF754FD0346FB827B681B7C19
:10975C00002B11D0FB8A012B0ED10123BB73334B91
:10976C001B797B73314B5B793B7307F10C03184608
:10977C00FFF73EFD0346FB827B689B78002B11D0E4
:10978C00FB8A012B0ED10223BB73284B1B787B73F6
:10979C00264B5B783B7307F10C031846FFF728FD4B
:1097AC000346FB82FB8A002B3AD17B689A797B6853
:1097BC00043319461046FFF79BFD0346FB82FB8AD8
:1097CC00002B2DD13B699B78BB733B695B787B731A
:1097DC003B691B783B7307F10C031846FFF708FD38
:1097EC000346FB821CE03B699B78BB733B695B784F
:1097FC007B733B691B783B7307F10C031846FFF72F
:10980C00F7FC0346FB82FB8A002B09D17B689A7913
:10981C007B68043319461046FFF76AFD0346FB824A
:10982C00FB8A18461837BD4680BD00BF24E90000EE
:10983C0080B584B000AF0346FB71FB79032B1BD8BA
:10984C0001A252F823F000BF759800006598000043
:10985C006D9800007D98000000F0CCF8F8600EE0E8
:10986C0000F0DCF8F8600AE000F0ECF8F86006E0D4
:10987C0000F0FCF8F86002E00023FB6000BFFB681E
:10988C0018461037BD4680BD80B588B000AF034682
:10989C003960FB710023FB833B689B781846FFF70C
:1098AC00C7FFB8613B685B780133BA69B2FBF3F36D
:1098BC007B613B681B7801337A69B2FBF3F33B6144
:1098CC00FB79012B02D0022B5CD07DE03B689B78AE
:1098DC001A46404B53F832207B699A4208D33B68B6
:1098EC009B783C4ADB0013445A683B699A4202D28B
:1098FC000123FB8368E00020FEF746FF364B374A16
:10990C00DA60354B364ADA607B69364AA2FB0323B0
:10991C009B0CFB60304B1B6903F47F431A0AFB68FA
:10992C009A4208D22C492C4B1B6923F47F42FB68CA
:10993C001B0213430B613B689B7819463B685B78B1
:10994C001A463B681B784FF08040FEF71DFE224BF9
:10995C001B6903F47F431A0AFB689A4208D91E4913
:10996C001D4B1B6923F47F42FB681B0213430B61E5
:10997C000120FEF709FF184B1B4ADA60164B1B4AF5
:10998C00DA6021E01A4B1A687B699A4208D3184BAB
:10999C005A683B699A4203D33B689B78022B02D0EE
:1099AC000123FB830FE00020FEF7EEFE3B685B78A3
:1099BC001A463B681B7802214FF08040FEF70CFEE4
:1099CC000120FEF7E1FE00BFFB8B18462037BD4699
:1099DC0080BD00BF2CE90000002000404078AC00A6
:1099EC006745230183DE1B43BF8753FF98BADCFE18
:1099FC004CE9000080B582B000AF00237B60FFF71C
:109A0C0009F80346002B02D0034B1B687B607B6874
:109A1C0018460837BD4680BD30EA010080B582B0DB
:109A2C0000AF00237B60FEF7A1FF0346002B01D0A3
:109A3C00034B7B607B6818460837BD4680BD00BF72
:109A4C0000127A0080B582B000AF00237B60FEF775
:109A5C00B7FF0346002B01D0034B7B607B68184695
:109A6C000837BD4680BD00BF006CDC0280B582B0FB
:109A7C0000AF00237B600023FB700023BB7000232E
:109A8C007B70FEF7F1FF0346002B28D04FF080408F
:109A9C00FEF76AFE0346002B03D1FFF7BFFF786089
:109AAC0002E0FFF7A7FF78607B68002B17D0FB1C48
:109ABC00BA1C791C0C48FEF7C5FEFB7801337A689A
:109ACC00B2FBF3F37B60BB781A467B6802FB03F3B3
:109ADC007B607B785B007A68B2FBF3F37B607B681E
:109AEC0018460837BD4680BD0088004080B584B05C
:109AFC0000AF03463960FB803B68002B40D0FB88ED
:109B0C00FF2B2AD9FB88B3F58C7F26D2FB88B3F5C3
:109B1C00847F1AD3FB88B3F5877F16D2FB88A3F515
:109B2C008473FB60FB68DAB23B681B8819461046ED
:109B3C0000F05EF9FB68DAB23B689B78013BDBB264
:109B4C001946104600F092F91AE03B681A88FB8817
:109B5C001146184600F0BCFA12E0FB88B3F58C7F76
:109B6C000ED3FB88B3F58F7F0AD2FB88A3F58C73D9
:109B7C00FB603B681B881946F86800F02DFAFFE77C
:109B8C0000BF1037BD4680BD80B485B000AFF86013
:109B9C007A601A460B46FB721346BB720A4AFB6884
:109BAC001360094AFB7A1371074A7B689360064A73
:109BBC00BB7A1373044ABB7A5373002318461437C9
:109BCC00BD465DF8047B7047D8EF010080B586B0C8
:109BDC0000AF03460A46FB711346BB710023BB82E0
:109BEC00FB793B73BB797B7372B6534B1A7B524B2D
:109BFC005A730123BB730023FB7525E04E4B9A6807
:109C0C00FB7D9B0013441B683B613B69002B18D008
:109C1C003B691B79022B14D03B691B683A6991682C
:109C2C0007F10C02104698470346002B09D0424A14
:109C3C00FB7D5373BB79002B03D140F20313BB8222
:109C4C0007E0FB7D0133FB753B4B1B7BFA7D9A4296
:109C5C00D4D3BB8A002B02D0BB79012B14D1364B49
:109C6C001A68FB799B0013441B681846FFF7FCF835
:109C7C000346BB82BB8A002B0CBF01230023BB75A0
:109C8C002D4AFB79537101E00023BB75BB7D002B82
:109C9C0030D00223BB730023FB7525E0264B9A685A
:109CAC00FB7D9B0013441B683B613B69002B18D068
:109CBC003B691B79012B14D03B691B683A6991688D
:109CCC0007F10C02104698470346002B09D01A4A9C
:109CDC00FB7D5373BB79002B03D14FF48273BB8292
:109CEC0024E0FB7D0133FB75134B1B7BFA7D9A4201
:109CFC00D4D31BE00023BB730F4B9A68FB7D9B00F6
:109D0C0013441B683B613B69002B07D03B691B6804
:109D1C003A69916807F10C0210469847FB7D002BBD
:109D2C0003D0FB7D013BFB75E6E700BF62B6BB8A47
:109D3C0018461837BD4680BDD8EF010080B400AF7F
:109D4C00054B5B69DBB203F00703DBB21846BD467B
:109D5C005DF8047B704700BF0080004080B483B086
:109D6C0000AF786039607B689B6C23F400627B6881
:109D7C009A643B68072B0ED87B689B6C23F0070218
:109D8C003B681A437B689A647B689B6C23F0F002F7
:109D9C007B689A6409E07B689B6C23F0F0023B685B
:109DAC00083B1B011A437B689A6400BF0C37BD4605
:109DBC005DF8047B704700BF80B584B000AF78605D
:109DCC00FFF7BCFF0346002B06D17B681B6803F032
:109DDC0070739B0DFB6005E07B681B6803F0705390
:109DEC009B0EFB60FB6818461037BD4680BD00BF5C
:109DFC0080B487B000AF03460A46FB711346BB80A4
:109E0C0000237B6103233B610023FB60BB880D2B8C
:109E1C0004D0102B08D0002B03D008E001237B6169
:109E2C0008E002237B6105E003237B6102E0002351
:109E3C007B6100BFFB795B00FB603A69FB6802FA4F
:109E4C0003F33B614FF080404FF080439A6B3B69CA
:109E5C00DB431A407969FB6801FA03F3134383630C
:109E6C0000BF1C37BD465DF8047B704780B483B0DF
:109E7C0000AF03460A46FB711346BB71FB79032BFB
:109E8C0039D801A252F823F0A59E0000BB9E000019
:109E9C00D39E0000EB9E00004FF080414FF08043BA
:109EAC00DB6C23F00102BB791343CB6424E04FF04D
:109EBC0080414FF08043DB6C23F00202BB795B00E6
:109ECC001343CB6418E04FF080414FF08043DB6CC0
:109EDC0023F00402BB799B001343CB640CE04FF0DE
:109EEC0080414FF08043DB6C23F00802BB79DB0030
:109EFC001343CB6400E000BF00BF0C37BD465DF8D8
:109F0C00047B704780B483B000AF03460A46FB71F4
:109F1C001346BB71FB79032B3AD801A252F823F0FC
:109F2C003D9F0000559F00006D9F0000859F000025
:109F3C004FF080414FF08043DB6C23F4E072BB792F
:109F4C009B011343CB6424E04FF080414FF08043DE
:109F5C00DB6C23F46062BB795B021343CB6418E0C7
:109F6C004FF080414FF08043DB6C23F4E042BB792F
:109F7C001B031343CB640CE04FF080414FF0804344
:109F8C00DB6C23F46032BB79DB031343CB6400E05E
:109F9C0000BF00BF0C37BD465DF8047B704700BFA7
:109FAC0080B483B000AF03460A46FB711346BB7105
:109FBC004FF080404FF080435B6823F00F02FB7939
:109FCC009900BB790B431343436000BF0C37BD466C
:109FDC005DF8047B704700BF80B489B000AF786037
:109FEC000B467B800023FB7600237B610023FB6107
:109FFC004FF080431B6C3B611F23FB600523BB6050
:10A00C007B88082B0FD97B880B2B0CD80023FB7675
:10A01C007B88093B7B61FB7E1B011A467B699B009D
:10A02C001343FB611CE07B88112B0ED97B88152B0D
:10A03C000BD80123FB767B88123B7B61FB7E1B01DB
:10A04C001A467B691343FB610AE00023FB7600236D
:10A05C007B61FB7E1B011A467B699B001343FB61F2
:10A06C00BB687A6802FB03F3FA6902FA03F3FB613B
:10A07C00BB687A6802FB03F3FA6802FA03F3DB436A
:10A08C003A6913403B613A69FB6913433B614FF0FA
:10A09C0080423B69136400BF2437BD465DF8047BE6
:10A0AC00704700BF80B483B000AF78604FF0804140
:10A0BC004FF08043DB6C23F070427B681B0713432B
:10A0CC00CB6400BF0C37BD465DF8047B704700BF06
:10A0DC0080B487B000AF03460A46FB801346BB80B2
:10A0EC00FB88A3F580733B6100237B610023FB603D
:10A0FC00BB8840F2FF12934202D100237B6102E045
:10A10C00BB88093B7B613B69072B16D83B6903F085
:10A11C0007039B00FB604FF080404FF080435A6B6D
:10A12C000F21FB6801FA03F3DB431A407969FB68E2
:10A13C0001FA03F31343436333E03B690F2B17D846
:10A14C003B69033B03F007039B00FB604FF080402F
:10A15C004FF080439A6B0F21FB6801FA03F3DB434A
:10A16C001A407969FB6801FA03F31343836318E01F
:10A17C003B691F2B15D83B6903F007039B00FB6061
:10A18C004FF080404FF08043DA6B0F21FB6801FAEF
:10A19C0003F3DB431A407969FB6801FA03F31343B9
:10A1AC00C36300BF1C37BD465DF8047B704700BF1E
:10A1BC0080B483B000AF0346FB7197F90730002BD6
:10A1CC000BDB094997F907305B09FA7902F01F029A
:10A1DC00012000FA02F241F8232000BF0C37BD46E3
:10A1EC005DF8047B704700BF00E100E080B483B0F1
:10A1FC0000AF0346FB7197F90730002B10DB0B49BE
:10A20C0097F907305B09FA7902F01F02012000FA76
:10A21C0002F2203341F82320BFF34F8FBFF36F8F2F
:10A22C0000BF0C37BD465DF8047B704700E100E0D1
:10A23C0080B483B000AF0346FB7197F90730002B55
:10A24C000CDB094997F907305B09FA7902F01F0218
:10A25C00012000FA02F2603341F8232000BF0C37D2
:10A26C00BD465DF8047B704700E100E080B483B02C
:10A27C0000AF78600B46FB70FB78002B0BD17B6832
:10A28C00D3F8A03003F480531B0B002B14BF012315
:10A29C000023DBB20AE07B68D3F8A03003F4403330
:10A2AC001B0C032B0CBF01230023DBB218460C370D
:10A2BC00BD465DF8047B704780B483B000AF786016
:10A2CC000B46FB70FB78002B0BD17B68D3F8A030CE
:10A2DC0003F480531B0B002B14BF01230023DBB2B0
:10A2EC0009E07B68D3F8A03003F4C063002B14BFE3
:10A2FC0001230023DBB218460C37BD465DF8047B06
:10A30C00704700BF80B483B000AF786039607B6861
:10A31C003A681A6500BF0C37BD465DF8047B704780
:10A32C0080B483B000AF786039607B683A685A6556
:10A33C0000BF0C37BD465DF8047B704780B483B01A
:10A34C0000AF78600B46FB707B68D3F8A03023F02D
:10A35C000802FB78DB001A437B68C3F8A02000BF1F
:10A36C000C37BD465DF8047B704700BF80B483B0EA
:10A37C0000AF78600B46FB707B68D3F8A03023F0FD
:10A38C001002FB781B011A437B68C3F8A02000BFA6
:10A39C000C37BD465DF8047B704700BF80B483B0BA
:10A3AC0000AF78600B46FB707B68D3F8A03023F0CD
:10A3BC002002FB785B011A437B68C3F8A02000BF26
:10A3CC000C37BD465DF8047B704700BF80B483B08A
:10A3DC0000AF78600B46FB707B68D3F8A03023F09D
:10A3EC004002FB789B011A437B68C3F8A02000BF96
:10A3FC000C37BD465DF8047B704700BF80B483B05A
:10A40C0000AF78600B46FB707B68D3F8A03023F06C
:10A41C008002FB78DB011A437B68C3F8A02000BFE5
:10A42C000C37BD465DF8047B704700BF80B483B029
:10A43C0000AF78607B68D3F8A03003F08003DB09B1
:10A44C00002B14BF01230023DBB218460C37BD468A
:10A45C005DF8047B704700BF80B483B000AF7860B8
:10A46C007B68D3F8A03003F400535B0B002B14BFB4
:10A47C0001230023DBB218460C37BD465DF8047B84
:10A48C00704700BF80B483B000AF78600B46FB70A0
:10A49C007B68D3F8A03023F48042FB789B031A43EB
:10A4AC007B68C3F8A02000BF0C37BD465DF8047B69
:10A4BC00704700BF80B483B000AF78600B46FB7070
:10A4CC007B68D3F8A03023F40042FB78DB031A43FB
:10A4DC007B68C3F8A02000BF0C37BD465DF8047B39
:10A4EC00704700BF80B483B000AF78600B46FB7040
:10A4FC007B68D3F8A03023F40022FB78DB041A43EA
:10A50C007B68C3F8A02000BF0C37BD465DF8047B08
:10A51C00704700BF80B483B000AF78600B46FB700F
:10A52C007B68D3F8A03023F40012FB785B051A4348
:10A53C007B68C3F8A02000BF0C37BD465DF8047BD8
:10A54C00704700BF80B483B000AF78607B68D3F8ED
:10A55C00A03043F480027B68C3F8A02000BF0C3706
:10A56C00BD465DF8047B704780B483B000AF786063
:10A57C000B46FB707B68D3F8A03023F40002FB7809
:10A58C00DB051A437B68C3F8A02000BF0C37BD461F
:10A59C005DF8047B704700BF80B483B000AF786077
:10A5AC007B68D3F8A03003F040731B0EDBB2184667
:10A5BC000C37BD465DF8047B704700BF80B483B098
:10A5CC0000AF78600B46FB707B68D3F8A03023F0AB
:10A5DC008062FB789B061A437B68C3F8A02000BFFF
:10A5EC000C37BD465DF8047B704700BF80B483B068
:10A5FC0000AF78607B68D3F8A03043F080527B6862
:10A60C00C3F8A02000BF0C37BD465DF8047B704733
:10A61C0080B483B000AF78600B46FB707B68D3F8D6
:10A62C00A03023F08042FB789B071A437B68C3F869
:10A63C00A02000BF0C37BD465DF8047B704700BFFF
:10A64C0080B483B000AF78600B46FB707B68D3F8A6
:10A65C00A03023F00042FB78DB071A437B68C3F879
:10A66C00A02000BF0C37BD465DF8047B704700BFCF
:10A67C0080B483B000AF786039607B68D3F8A430C5
:10A68C0023F4281323F0FE033A681A437B68C3F8BB
:10A69C00A42000BF0C37BD465DF8047B704700BF9B
:10A6AC0080B483B000AF78600B46FB707B68D3F846
:10A6BC00A43023F07062FB781B061A437B68C3F846
:10A6CC00A42000BF0C37BD465DF8047B704700BF6B
:10A6DC0080B483B000AF78600B46FB707B68D3F816
:10A6EC00A43023F07042FB781B071A437B68C3F835
:10A6FC00A42000BF0C37BD465DF8047B704700BF3B
:10A70C0080B483B000AF786039603B681A687B68AE
:10A71C00C3F8A82000BF0C37BD465DF8047B70471A
:10A72C0080B483B000AF786039603B681A687B688E
:10A73C00C3F8AC2000BF0C37BD465DF8047B7047F6
:10A74C0080B483B000AF78600B46FB707B68D3F8A5
:10A75C00B03023F4FE42FB781B021A437B68C3F82B
:10A76C00B02000BF0C37BD465DF8047B704700BFBE
:10A77C0080B483B000AF78600B46FB707B68D3F875
:10A78C00B03023F40042FB78DB031A437B68C3F838
:10A79C00B02000BF0C37BD465DF8047B704700BF8E
:10A7AC0080B483B000AF78600B46FB707B68D3F845
:10A7BC00B43023F48072FB781B021A437B68C3F815
:10A7CC00B42000BF0C37BD465DF8047B704700BF5A
:10A7DC0080B483B000AF78600B46FB707B68D3F815
:10A7EC00B43023F40072FB785B021A437B68C3F825
:10A7FC00B42000BF0C37BD465DF8047B704700BF2A
:10A80C0080B483B000AF78600B46FB707B68D3F8E4
:10A81C00B43023F48062FB789B021A437B68C3F844
:10A82C00B42000BF0C37BD465DF8047B704700BFF9
:10A83C0080B483B000AF78600B46FB707B68D3F8B4
:10A84C00B43023F40062FB78DB021A437B68C3F854
:10A85C00B42000BF0C37BD465DF8047B704700BFC9
:10A86C0080B483B000AF78600B46FB707B68D3F884
:10A87C00B43023F03F02FB781A437B68C3F8B42052
:10A88C0000BF0C37BD465DF8047B704780B483B0C5
:10A89C0000AF786039607B68D3F8B43023F04002A5
:10A8AC007B68C3F8B4203B6823F060427B68C3F834
:10A8BC00C02000BF0C37BD465DF8047B704700BF5D
:10A8CC0080B483B000AF786039607B68D3F8B43063
:10A8DC0043F040027B68C3F8B4203B6823F000428D
:10A8EC007B68C3F8C02000BF0C37BD465DF8047B05
:10A8FC00704700BF80B483B000AF78600B46FB702C
:10A90C007B68D3F8C43023F48032FB781B041A43E1
:10A91C007B68C3F8C42000BF0C37BD465DF8047BD0
:10A92C00704700BF80B483B000AF786039607B683B
:10A93C00D3F8C43023F420223B681A437B68C3F855
:10A94C00C42000BF0C37BD465DF8047B704700BFC8
:10A95C0080B483B000AF78607B68D3F8C43003F464
:10A96C000003DB0D002B14BF01230023DBB21846C0
:10A97C000C37BD465DF8047B704700BF80B483B0D4
:10A98C0000AF78600B46FB707B68D3F8CC3023F0BB
:10A99C000102FB781A437B68C3F8CC2000BF0C374C
:10A9AC00BD465DF8047B704780B483B000AF78601F
:10A9BC000B46FB707B68D3F8CC3023F00202FB789B
:10A9CC005B001A437B68C3F8CC2000BF0C37BD4634
:10A9DC005DF8047B704700BF80B586B000AF3B606C
:10A9EC000346FB710B46BB7113467B71FB79274AFF
:10A9FC0052F823303B613869FFF718FD0346FB73AF
:10AA0C00FB7B83F00103DBB2002B03D001213869FF
:10AA1C00FFF7F4FC7A79BB791946386900F05AFCD7
:10AA2C007B79002B24D0BB7919463869FFF718FFC6
:10AA3C003B681B6819463869FFF728FF3B685B6861
:10AA4C0023F060437B613B681B7A002B04D17B694C
:10AA5C0043F080437B6107E03B681B7A012B03D1F9
:10AA6C007B6943F0C0437B6179693869FFF728FF44
:10AA7C00FB7B83F00103DBB2002B03D00021386990
:10AA8C00FFF7BCFC00BF1837BD4680BD54E9000081
:10AA9C0080B483B000AF03463960FB71FB79064A82
:10AAAC005B01134418333A681A6000BF0C37BD467B
:10AABC005DF8047B704700BFE8EF010080B483B001
:10AACC0000AF03463960FB71FB79064A5B01134406
:10AADC001C333A681A6000BF0C37BD465DF8047B26
:10AAEC00704700BFE8EF010080B582B000AF0346AD
:10AAFC000A46FB711346BB71BB79002B06D0FB7960
:10AB0C000E4AD3561846FFF753FB0BE0FB790B4A62
:10AB1C00D3561846FFF76AFBFB79084AD3561846FA
:10AB2C00FFF786FBFB79064A5B0113440533BA79C0
:10AB3C001A7000BF0837BD4680BD00BF84EA010013
:10AB4C00E8EF010080B582B000AF03460A46FB7106
:10AB5C001346BB71BB79002B06D0FB790A4AD3563E
:10AB6C001846FFF725FB0BE0FB79074AD35618462E
:10AB7C00FFF73CFBFB79044AD3561846FFF758FB0A
:10AB8C0000BF0837BD4680BD88EA010080B586B09D
:10AB9C0000AF03463960FB710023BB82FB79964AF8
:10ABAC0052F823303B61FB795B01944A1344FB6000
:10ABBC000023FB75FB6800221A60FB79904AD35C7A
:10ABCC0001211846FDF764FFFB798E4AD35C012105
:10ABDC001846FDF7CFFF01213869FFF70FFC3B68E2
:10ABEC00DB7C19463869FFF785FE3B68DA7CFB682D
:10ABFC001A723B68203319463869FFF781FD3B68B0
:10AC0C009B7A002B17D03B68DB7A19463869FFF723
:10AC1C00ABFC3B68243319463869FFF781FD3B6870
:10AC2C001B7B19463869FFF7A3FD3B685B7B194614
:10AC3C003869FFF785FD3B68DB7C002B11D007E002
:10AC4C00FB7D0133FB75FB7DC82B01D9012313E17F
:10AC5C003869FFF77DFE034683F00103DBB2002B5E
:10AC6C00EED13B689B6A002B17D00023FB750FE0DD
:10AC7C003B68996AFA7D13465B0013449B000B44B6
:10AC8C00F97DF8790122FFF7A7FEFB7D0133FB75F7
:10AC9C003B681B78FA7D9A42EAD33B689B7C194649
:10ACAC003869FFF78BFC3B689A7CFB68DA710021F2
:10ACBC003869FFF7A3FB3B685B78012B04D10121BA
:10ACCC003869FFF7DFFB1BE03B685B78022B04D194
:10ACDC0001213869FFF762FB12E03B685B78032BBC
:10ACEC000AD101213869FFF771FB3B681B7A1946C1
:10ACFC003869FFF7A5FC03E000213869FFF7C2FBB8
:10AD0C003B685B7A19463869FFF7CAFC3B685B798C
:10AD1C0019463869FFF72AFB3B689B791946386955
:10AD2C00FFF70CFB0C213869FFF7D2FC3B68DB7892
:10AD3C0019463869FFF7EEFB3B68DB791946386931
:10AD4C00FFF766FC3B689B7D19463869FFF7CAFB29
:10AD5C0000213869FFF724FD3B689B7B002B1AD040
:10AD6C003B681A7CFB7911461846FFF7CBF83B6819
:10AD7C00DB7B19463869FFF75BFD3B685B7C19464A
:10AD8C003869FFF725FD01213869FFF709FD01211D
:10AD9C003869FFF735FD3B681A79FB681A753B6813
:10ADAC009A7BFB689A71FB680C3300211846FDF7FF
:10ADBC00C3F90346002B01D001235DE0FB6810337F
:10ADCC0000211846FDF7B8F90346002B06D0FB68A6
:10ADDC000C331846FDF7CCF901234DE03B689B7C06
:10ADEC00002B11D03B689B6923F08003194638690E
:10ADFC00FFF73EFC0EE000BF54E90000E8EF010055
:10AE0C008CEA010090EA01003B689B69194638699D
:10AE1C00FFF72EFC3B68DB6919463869FFF782FDAA
:10AE2C003B685B7D19463869FFF7A8FD3B681B7DC5
:10AE3C0019463869FFF7B8FD3B68DA6AFB791146A9
:10AE4C001846FFF725FE3B689A78FB7911461846A1
:10AE5C00FFF74AFE3B681A6BFB7911461846FFF761
:10AE6C002DFE3B681A7DFB7911461846FFF76AFEEA
:10AE7C00FB6801221A71BB8A18461837BD4680BD83
:10AE8C0080B586B000AF03463960FB711346BB71C9
:10AE9C00FB79384A52F82330FB60BB791946F868C5
:10AEAC00FFF708FB3B681B6823F060437B61FB7971
:10AEBC00314A5B01134406331B78002B03D07B69AA
:10AECC0043F080437B613B681B7A002B03D07B698A
:10AEDC0043F000437B617969F868FFF713FA3B682C
:10AEEC005B7A03F00F033B613B68DB7A002B0CD0E1
:10AEFC003B6943F020033B613B689B7A002B0CD0F1
:10AF0C003B6943F010033B6107E03B681B7B002B64
:10AF1C0003D03B6943F040033B613B685B7B002BF8
:10AF2C0003D03B6943F080033B613969F868FFF754
:10AF3C00F7F93B681B7B002B11D13B685B7A002B2C
:10AF4C000DD03B685B7A184600F056F90346FB724D
:10AF5C003B681B69FA7A1946F86800F02BF9BB7943
:10AF6C00012B02D1F868FFF7EDFA00BF1837BD4688
:10AF7C0080BD00BF54E90000E8EF010080B582B04D
:10AF8C0000AF03460A46FB711346BB71FB79064AB8
:10AF9C0052F82330BA7911461846FFF767F9034681
:10AFAC0018460837BD4680BD54E9000080B586B010
:10AFBC0000AF03463960FB711346BB710023FB8263
:10AFCC00FB79244A52F823303B61FB795B01224A1E
:10AFDC001344FB603869FFF729FA0346002B05D1AF
:10AFEC003869FFF739FA0346002B01D001232CE016
:10AFFC00BB79012B0ED1FB681B7D002B0AD1BB79D1
:10B00C0019463869FFF732F90346002B0CD002239E
:10B01C00FB8209E0BB7919463869FFF74DF9034605
:10B02C00002B01D00223FB82FB8A002B0CD1BA79B6
:10B03C00FB7939681846FFF723FFFB681A7DBB794B
:10B04C001946386900F018F9FB8A18461837BD46BE
:10B05C0080BD00BF54E90000E8EF010080B582B06C
:10B06C0000AF0346FB71FB79054A52F823301846B2
:10B07C00FFF792FA034618460837BD4680BD00BF5D
:10B08C0054E9000080B586B000AF786039603B6849
:10B09C0008337B613B681B6823F060427B681A6055
:10B0AC003B681B68DB0FDAB27B681A723B685B6823
:10B0BC00FB60FB681B09DBB203F00103DAB27B68AF
:10B0CC009A72FB685B09DBB203F00103DAB27B68AE
:10B0DC00DA72FB689B09DBB203F00103DAB27B681E
:10B0EC001A73FB68DB09DBB203F00103DAB27B688D
:10B0FC005A73FB68DBB203F00F03DAB27B685A7247
:10B10C007B681B7B002B26D17B685B7A002B22D0C3
:10B11C007B685B7A184600F06FF80346FB747B681B
:10B12C00DB7A002B04D1FB7C082B01D90823FB74A0
:10B13C000023BB740BE07B681A69BB7C1A447B69E7
:10B14C00191D79611B681360BB7C0433BB74BA7C1A
:10B15C00FB7C9A42EFD33B689A6C7B685A6000BFC9
:10B16C001837BD4680BD00BF80B584B000AF034624
:10B17C003960FB710023FB81FB790D4A52F82330B7
:10B18C00BB60B868FFF708FA0346002B02D1012315
:10B19C00FB8107E0BB6819463868FFF773FFB86896
:10B1AC00FFF724FAFB8918461037BD4680BD00BF57
:10B1BC0054E9000080B487B000AFF860B960134662
:10B1CC00FB71FB6858333B610023FB750AE03B695C
:10B1DC001A1D3A61FA7DB9680A4412681A60FB7D3F
:10B1EC000433FB75FA7DFB799A42F0D300BF1C3710
:10B1FC00BD465DF8047B704780B485B000AF034654
:10B20C00FB710023FB73FB79082B02D8FB79FB73D2
:10B21C002AE0FB79093B062B25D801A252F823F032
:10B22C0049B200004FB2000055B200005BB2000002
:10B23C0061B2000067B200006DB200000C23FB731A
:10B24C0012E01023FB730FE01423FB730CE01823A4
:10B25C00FB7309E02023FB7306E03023FB7303E050
:10B26C004023FB7300E000BFFB7B18461437BD4640
:10B27C005DF8047B704700BF80B483B000AF78608A
:10B28C000B46FB701346BB70FB78002B08D17B6818
:10B29C00D3F8A03043F480527B68C3F8A02013E0AD
:10B2AC00BB78002B08D17B68D3F8A03043F4007234
:10B2BC007B68C3F8A02007E07B68D3F8A03043F488
:10B2CC0080627B68C3F8A02000BF0C37BD465DF8D8
:10B2DC00047B704780B483B000AF78600B46FB7082
:10B2EC001346BB70FB780F2B1DD8BB78002B0CD0F2
:10B2FC007B68D3F8B420FB78012101FA03F31B041B
:10B30C001A437B68C3F8B4204EE07B68D3F8B420B2
:10B31C00FB78012101FA03F31B04DB431A407B6821
:10B32C00C3F8B42040E0FB782F2B1DD8BB78002B42
:10B33C000CD07B68D3F8B820FB78103B012101FAC4
:10B34C0003F31A437B68C3F8B8202DE07B68D3F86D
:10B35C00B820FB78103B012101FA03F3DB431A40C0
:10B36C007B68C3F8B8201FE0FB783B2B1CD8BB785C
:10B37C00002B0CD07B68D3F8BC20FB78303B012130
:10B38C0001FA03F31A437B68C3F8BC200CE07B681A
:10B39C00D3F8BC20FB78303B012101FA03F3DB43EB
:10B3AC001A407B68C3F8BC2000BF0C37BD465DF863
:10B3BC00047B704780B582B000AF7860396003F0D1
:10B3CC00B3F80246162313604FF0FF3318460837C4
:10B3DC00BD4680BD80B582B000AF78604FF0FF31C4
:10B3EC007868FFF7E7FFFEE780B500AF0023054A5A
:10B3FC0001210548FEF7C8FB00210020FEF7E6FB03
:10B40C0000BF80BD80F0010070EB010080B588B0FA
:10B41C0002AF786001237B6101233B610123FB6058
:10B42C000123BB6001F0A2F81B4B01930123009395
:10B43C000023302219491A4801F012FC7861194B8B
:10B44C00019301230093002330221749174801F080
:10B45C0007FC3861164B0193012300930023302223
:10B46C001449154801F0FCFBF860144B01930123BF
:10B47C000093002330221249124801F0F1FBB8600E
:10B48C00114B1B68184601F039FD01F089F800BF1B
:10B49C001837BD4680BD00BF68F0010064E90000AC
:10B4AC0019B500006CF0010078E900003DB5000012
:10B4BC0070F001008CE9000051B5000074F001003F
:10B4CC00A0E9000065B5000078F0010080B584B0FB
:10B4DC0002AFFFF789FF01237B60094B1B680193C7
:10B4EC000123009300234FF400720649064801F033
:10B4FC00B7FB78607B68012B01D101F0A7FDFEE75B
:10B50C0078F00100B0E9000019B4000080B582B0F9
:10B51C0000AF786002F0E8FE044B1B680133034A6D
:10B52C0013600A2001F06EFDF4E700BF7CF001000F
:10B53C0080B582B000AF786002F036FF0A2001F0CF
:10B54C0061FDF9E780B582B000AF786002F08CFF46
:10B55C000A2001F057FDF9E780B582B000AF7860A2
:10B56C0000F09AFD0A2001F04DFDF9E780B500AF1F
:10B57C0000F00EFD0D4B5B7A03F07003002B07D02F
:10B58C000A4B5B7A43F00103DAB2084B5A7209E0BA
:10B59C00064B5B7A43F01003DAB2044B5A72034841
:10B5AC0000F006FD00F0FCFC00BF80BDD4130200CF
:10B5BC0080B400AF054B00221A75044B00225A755B
:10B5CC0000BFBD465DF8047B704700BFD41302007A
:10B5DC0080B483B000AF03463A60FB710B46BB717D
:10B5EC0017E0FB79114A02339B0013445B683A68FD
:10B5FC0012781A70FA790D49931C9B000B445B6806
:10B60C00591C0A48931C9B00034459603B68013346
:10B61C003B60BB795A1EBA71002BE2D1012318464C
:10B62C000C37BD465DF8047B704700BFD413020095
:10B63C0080B483B000AF03463A60FB710B46BB711C
:10B64C0017E0FB79104A02339B0013445B681A78AD
:10B65C003B681A703B6801333B60FA790A49931CCA
:10B66C009B000B445B68591C0748931C9B000344CC
:10B67C005960BB795A1EBA71002BE2D100BF0C374E
:10B68C00BD465DF8047B7047D413020080B584B0CE
:10B69C0000AF0346FB71FB79012B01D9002321E09C
:10B6AC00FA791346DB0013445B01B8330F4A134499
:10B6BC000433FB60FB6803F59073BB6004E0FB682C
:10B6CC005A1CFA6000221A70FA68BB689A42F6D3C8
:10B6DC00064B1B7A43F00203DAB2044B1A72FFF7E3
:10B6EC0067FF0A2318461037BD4680BDD4130200ED
:10B6FC0090B482B000AF0446084611461A46234661
:10B70C00FB710346BB710B467B7113467B80FB7947
:10B71C00012B01D900233CE0FA7920491346DB00C8
:10B72C0013445B010B4403F5EC737A791A707B8834
:10B73C00002B01D101237B80FA7918491346DB00D9
:10B74C0013445B010B4403F5EA737A881A80FA7987
:10B75C0012491346DB0013445B010B4403F5EB73F6
:10B76C0001221A80FA790D491346DB0013445B0160
:10B77C000B4403F2D913BA791A70FA7907491346B4
:10B78C00DB0013445B010B4403F5ED7304221A70C8
:10B79C00012318460837BD4690BC7047D4130200ED
:10B7AC0080B483B000AF0346FB71FB79012B01D948
:10B7BC00002312E0FA790C491346DB0013445B01B9
:10B7CC000B4403F5ED7301221A70074B1B7A63F0DF
:10B7DC007F03DAB2044B1A72012318460C37BD46AC
:10B7EC005DF8047B704700BFD413020080B483B0B3
:10B7FC0000AF0023FB7119E0FA7914491346DB0002
:10B80C0013445B010B4403F5ED731B78042B0AD135
:10B81C00FA790E491346DB0013445B010B4403F524
:10B82C00ED7301221A70FB790133FB71FB79012B4B
:10B83C00E2D9064B1B7A63F07F03DAB2034B1A7220
:10B84C0000BF0C37BD465DF8047B7047D413020073
:10B85C0080B485B000AF0346FB71FB79012B29D86E
:10B86C00FA7918491346DB0013445B010B4403F5CA
:10B87C00ED7300221A700023FB7310E0FA7B114960
:10B88C001346DB0013445B010B4403F5ED731B788B
:10B89C0003F00103002B0FD1FB7B0133FB73FB7B0C
:10B8AC00012BEBD9074B1B7A03F07F03DAB2054B64
:10B8BC001A7202E000BF00E000BF1437BD465DF80D
:10B8CC00047B7047D413020080B483B000AF002314
:10B8DC00FB710DE0FA790E491346DB0013445B0152
:10B8EC000B4403F5ED7300221A70FB790133FB71E5
:10B8FC00FB79012BEED9064B1B7A03F07F03DAB2EE
:10B90C00034B1A7200BF0C37BD465DF8047B7047C1
:10B91C00D4130200B0B500AF00F0B6FB1D4BB3F86A
:10B92C00FE32002B33D01B4BB3F8FE32FF2B08D862
:10B93C00184BB3F8FE32DCB2164B0022A3F8FE22F1
:10B94C0009E00024134BB3F8FE32A3F580739AB2CE
:10B95C00104BA3F8FE220F4B1B691D780E490E4BA2
:10B96C001A88ABB213449BB20B800A4B1B69013390
:10B97C00084A1361631EDCB2002CECD1054BB3F802
:10B98C00FE32002B01D0012302E0FFF7EFFD002374
:10B99C001846B0BDD4130200D813020090B585B080
:10B9AC0000AF78607B681B78012B03D07B681B7819
:10B9BC00052B52D17B6802331B88B3F5007F04D072
:10B9CC007B6802331B88002B31D17B681B78012BE1
:10B9DC0018D1B44B1B7A03F01003002B04D1FFF7E2
:10B9EC0073FFB04B00225A72AE4B1B7A43F020030C
:10B9FC00DAB2AC4B1A72AB4B1B7A23F01003DAB2EF
:10BA0C00A84B1A72A74BFF221A70A64B00225A7031
:10BA1C007B685A78A34B9A70A24BFE22DA70A24B29
:10BA2C004FF400721A80A14B00221A802EE29D4B1B
:10BA3C001B7A03F02003002B00F02B82994B1B7A0E
:10BA4C0023F02003DAB2974B1A72964B1B7A43F011
:10BA5C001003DAB2934B1A721BE2924B1B7A03F06F
:10BA6C002003002B00F017828E4BFF221A708D4B97
:10BA7C0000225A707B685A788A4B9A707B681B78C4
:10BA8C00023B212B00F2F88101A252F823F000BFF7
:10BA9C009DBB0000D9BB00003DBC000085BE000072
:10BAAC006BBD000025BB0000F1BD000085BE000091
:10BABC0085BE000085BE000085BE000085BE00006E
:10BACC002BBE00004FBC000085BE000085BE0000F0
:10BADC0085BE000085BE00007BBC0000C5BC00001C
:10BAEC002FBD000053BB000085BE000085BE0000CA
:10BAFC0085BE000077BE000085BE000085BE00003C
:10BB0C0085BE000085BE000085BE000085BE00001D
:10BB1C0085BE00000DBC0000624B1B7A23F0200395
:10BB2C00DAB2604B1A727B6802331B78002B07D198
:10BB3C005C4B1B7A43F01003DAB25A4B1A72A5E134
:10BB4C00FFF7C2FEA2E10023FB7302E0FB7B013393
:10BB5C00FB73FB7B564AD35C002BF7D1514AFB7B22
:10BB6C00D370504B00221A714E4B01225A714D4B1F
:10BB7C0000229A714B4B5B7943F00203DAB2494BCA
:10BB8C005A71484B8E22DA71464B494ADA607DE194
:10BB9C007B6802331B78002B14D17B6802331B7833
:10BBAC001C467B6803331A787B6804331B68194680
:10BBBC00104600F043FA01463A4AA31C9B0013447A
:10BBCC00596063E1374B32225A705FE17B68023374
:10BBDC0019787B6803331A460020FFF7F9FC0346FB
:10BBEC00BB73BB7B022B00F05881BB7B002B03D0BB
:10BBFC00BB7B032B40F045812A4B33225A7040E12A
:10BC0C007B6802331A4606210020FFF7E1FC03464D
:10BC1C007B737B7B022B00F042817B7B002B03D060
:10BC2C007B7B032B40F02F811E4B33225A702AE171
:10BC3C007B6802331B781F4A19460020FFF7F8FC7B
:10BC4C0024E17B6803331A787B6804331B6819463C
:10BC5C00104600F0F3F90246124B1A617B6802336E
:10BC6C001B78144A19460120FFF7E2FC0EE17B68B1
:10BC7C0002331B781846FFF7EBFD7B6802331B7809
:10BC8C001846FFF703FD03461A46064BDA707B682D
:10BC9C0002331B781A46920013445B00DAB2014B54
:10BCAC001A71F3E0D4130200D8130200DA13020065
:10BCBC0074EB0100D71302007B6802331B78012B55
:10BCCC0009D87B6803331B78092B04D87B680433B1
:10BCDC001B78072B07D9744B31225A70724B0022F8
:10BCEC00C3F8B820D2E07B6802331B7819467B6816
:10BCFC0003331B7818467B6804331B781C460246BA
:10BD0C00D200121A0B46DB000B44DB001344234415
:10BD1C002E339B00644A13440433634AC2F8B83090
:10BD2C00B4E07B6802331B78012B04D15E4BD3F853
:10BD3C00B830002B03D15C4B31225A70A6E05A4B21
:10BD4C00D3F8B8407B6803331A787B6804331B68DC
:10BD5C001946104600F072F90346236096E0524BE8
:10BD6C001B7A03F00203002B03D14F4B22225A7093
:10BD7C008CE07B6802331B78012B0AD0022B1DD080
:10BD8C00002B2AD17B6803331B781846FFF760FD24
:10BD9C0027E07B68033318787B68043319787B6859
:10BDAC0005331A787B6806331B88FFF7A1FC7B6888
:10BDBC0003331B781846FFF7F3FC12E07B68033360
:10BDCC0018787B68043319787B6805331A787B689C
:10BDDC0006331B88FFF78CFC03E0334B31225A707F
:10BDEC0000BF53E0304B1B7A03F00203002B03D14E
:10BDFC002D4B22225A7049E07B6802331B78002BB2
:10BE0C0002D0012B03D005E0FFF75EFD06E0FFF743
:10BE1C00EDFC03E0244B31225A7000BF36E0224B7C
:10BE2C000222DA70214B00221A601F4BDB681E4A7B
:10BE3C0013617B6802331B881A467B6804331B88AA
:10BE4C001B041343BB60BB681B0C1B04002B02D0F0
:10BE5C00154B32225A70BB689AB2134BA3F8FE22D0
:10BE6C00114B5B78002B10D11AE00F4B0222DA70C9
:10BE7C000D4B01221A7109E00B4B30225A7000BF96
:10BE8C0004E000BF02E000BF00E000BFFFF76EFB64
:10BE9C0006E000BF04E000BF02E000BF00E000BF0E
:10BEAC001437BD4690BD00BFD4130200D813020056
:10BEBC0080B500AF274B5B7A23F07003DAB2254BC9
:10BECC005A72244B5B7A03F00103002B0AD0214BEE
:10BEDC005B7A23F00103DAB21E4B5A72FFF746FB72
:10BEEC00012335E01B4B1B7A5BB2002B2FDA00F0E1
:10BEFC004FF8184B1B7D002B27D0164B5B7A43F069
:10BF0C002003DAB2134B5A72124B5B7D0233DB0007
:10BF1C00104A13440633184600F04AF80D4B5B7D6B
:10BF2C000133DAB20B4B5A750A4B5B7D132B02D9DA
:10BF3C00084B00225A75074B1B7D013BDAB2054BAF
:10BF4C001A7500F02DF8012302E000F029F8002307
:10BF5C00184680BDD413020080B483B000AF0B4BE5
:10BF6C007B607B6803F540733B6004E07B685A1C84
:10BF7C007A6000221A707A683B689A42F6D300BF46
:10BF8C000C37BD465DF8047B704700BFD41302002C
:10BF9C0080B400AF72B600BFBD465DF8047B70473D
:10BFAC0080B400AF62B600BFBD465DF8047B70473D
:10BFBC0080B582B000AF78601E4B40F2D4721A602C
:10BFCC001C4B08225A721B4B00225A73194B1B69CB
:10BFDC007A6812781A70174B1B697A6852781A7043
:10BFEC00144B1B697A6892781A70124B1B697A6829
:10BFFC00D2781A700F4B1B697A6812791A700D4B34
:10C00C001B697A6852791A700A4B1B697A689279A3
:10C01C001A70084B1B697A68D2791A70012205498B
:10C02C000020FEF7C3FF044B01221A7000BF083733
:10C03C00BD4680BD24130200D416020080B483B028
:10C04C0000AF03463960FB713B6818460C37BD46A0
:10C05C005DF8047B704700BF80B485B000AF4FF033
:10C06C008073BB60034B7B600023FB73FB7B013352
:10C07C00FB73FBE70040007080B500AFFFF7ECFFEF
:10C08C00FFF76AFF00BF80BD80B400AF00BFBD46A4
:10C09C005DF8047B704700BF80B500AF084B1B7880
:10C0AC00002B07D0064B00221A70064B1B69184652
:10C0BC00FFF774FCFFF7FCFEFFF72CFC00BF80BD04
:10C0CC004C1302003813020080B58AB000AF7860C0
:10C0DC000023FB6100F0FCFF464B1B68002B04D1D6
:10C0EC0000F0D8F8434B01221A607B68002B13D068
:10C0FC0008231A467B6803F00703D31A08337B61C5
:10C10C007B69DA437B689A4204D37A687B6913446F
:10C11C007B6001E000237B607B68002B63DB7B682A
:10C12C00002B60D0344B1B687A689A425BD8334B37
:10C13C003B62324B1B687B6204E07B6A3B627B6A2E
:10C14C001B687B627B6A5A687B689A4203D27B6A63
:10C15C001B68002BF1D17B6A294A934243D03B6A7E
:10C16C001B6808221344FB617B6A1A683B6A1A60DD
:10C17C007B6A5A687B68D31A08225200934222D9F0
:10C18C007A6A7B6813443B617B6A5A687B68D21A73
:10C19C003B695A607B6A7A685A603B695B68FB60F2
:10C1AC00164BBB6102E0BB691B68BB61BB691B68BA
:10C1BC005A68FB689A42F6D3BB691A683B691A60E5
:10C1CC00BB693A691A600C4B1A687B6A5B68D31AB4
:10C1DC00094A13607B6A5B6843F000427B6A5A60D1
:10C1EC007B6A00221A6000F081FFFB691846283731
:10C1FC00BD4680BD9410020080EB0100841002004B
:10C20C008C10020080B586B000AF78607B683B6113
:10C21C007B68002B35D008235B423A6913443B61A1
:10C22C003B69FB60FB685B68002B2ADAFB681B68C8
:10C23C00002B26D1FB685B6823F00042FB685A6038
:10C24C0000F046FFFB685B68BB60104B7B6102E053
:10C25C007B691B687B617B691B685A68BB689A4267
:10C26C00F6D37B691A68FB681A607B69FA681A60F6
:10C27C00FB685A68064B1B681344054A136000F0B0
:10C28C0035FF00BF1837BD4680BD00BF84100200CB
:10C29C0080EB010080B483B000AF104B23F0070398
:10C2AC007B600F4A7B6813600D4B00225A600D4B6C
:10C2BC0041F6F8725A600B4B00221A607B683B60A7
:10C2CC003B6841F6F8725A603B68064A1A6000BF38
:10C2DC000C37BD465DF8047B704700BF8BF0010046
:10C2EC00841002008C10020080B483B000AF786020
:10C2FC007B6803F108027B685A607B684FF0FF3261
:10C30C009A607B6803F108027B68DA607B6803F152
:10C31C0008027B681A617B6800221A6000BF0C3728
:10C32C00BD465DF8047B704780B483B000AF786085
:10C33C007B6800221A6100BF0C37BD465DF8047B98
:10C34C00704700BF80B485B000AF786039607B68FF
:10C35C005B68FB603B68FA685A60FB689A683B68EC
:10C36C009A60FB689B683A685A60FB683A689A6006
:10C37C003B687A681A617B681B685A1C7B681A6078
:10C38C0000BF1437BD465DF8047B704780B485B0A0
:10C39C0000AF786039603B681B68BB60BB68B3F169
:10C3AC00FF3F03D17B681B69FB600CE07B680833A3
:10C3BC00FB6002E0FB685B68FB60FB685B681A680B
:10C3CC00BB689A42F6D9FB685A683B685A603B686E
:10C3DC005B683A689A603B68FA689A60FB683A68EE
:10C3EC005A603B687A681A617B681B685A1C7B68C8
:10C3FC001A6000BF1437BD465DF8047B704700BF60
:10C40C0080B485B000AF78607B681B69FB607B688B
:10C41C005B687A6892689A607B689B687A685268F5
:10C42C005A60FB685A687B689A4203D17B689A68A9
:10C43C00FB685A607B6800221A61FB681B685A1EF5
:10C44C00FB681A60FB681B6818461437BD465DF81C
:10C45C00047B704780B485B000AFF860B9607A6037
:10C46C00FB68043BFB60FB684FF080721A60FB6852
:10C47C00043BFB60BB6823F00102FB681A60FB689D
:10C48C00043BFB600C4AFB681A60FB68143BFB60C6
:10C49C007A68FB681A60FB68043BFB60FB686FF012
:10C4AC0002021A60FB68203BFB60FB6818461437DD
:10C4BC00BD465DF8047B7047C9C4000080B483B0EE
:10C4CC0000AF00233B604FF0200383F31188BFF3D0
:10C4DC006F8FBFF34F8F7B6000BF3B68002BFCD08E
:10C4EC0000BF0C37BD465DF8047B704708480068F8
:10C4FC00006880F308884FF0000080F3148862B65F
:10C50C0061B6BFF34F8FBFF36F8F00DF00BF00002A
:10C51C0008ED00E000BF00BF80B500AF104A104B23
:10C52C001B6843F4700313600D4A0D4B1B6843F0FA
:10C53C007043136000F04EF80A4B00221A6000F0B2
:10C54C0065F8094A084B1B6843F040431360FFF73A
:10C55C00CDFF00F0D9FFFFF7B1FF0023184680BDD7
:10C56C0020ED00E084EB010034EF00E080B483B0F8
:10C57C0000AF4FF0200383F31188BFF36F8FBFF32D
:10C58C004F8F7B60054B1B680133044A136000BF5F
:10C59C000C37BD465DF8047B704700BF84EB01008F
:10C5AC0080B483B000AF0A4B1B68013B084A136090
:10C5BC00074B1B68002B04D100237B607B6883F343
:10C5CC00118800BF0C37BD465DF8047B704700BF77
:10C5DC0084EB010080B400AF084B00221A60084BBA
:10C5EC0000221A60074B084A1A60044B07221A6093
:10C5FC0000BFBD465DF8047B704700BF10E000E053
:10C60C0018E000E014E000E0BFD40100DFF80C00FB
:10C61C00016841F4700101607047000088ED00E092
:10C62C0000BF00BF80B584B000AF786039600123D3
:10C63C00FB607B68BB60BB68002B5AD0BB68DB6BB4
:10C64C00002B56D0BB68DB6B4FF0FF32B2FBF3F222
:10C65C00BB681B6C9A424CD3FFF788FFBB681A6807
:10C66C00BB68DB6BB968096C01FB03F31A44BB684C
:10C67C009A60BB6800229A63BB681A68BB685A60F0
:10C68C00BB681A68BB68DB6B013BB968096C01FBC2
:10C69C0003F31A44BB68DA60BB68FF2283F84420BA
:10C6AC00BB68FF2283F845203B68002B14D1BB6884
:10C6BC001B69002B1AD0BB681033184600F0B8FF6A
:10C6CC000346002B12D00E4B4FF080521A60BFF372
:10C6DC004F8FBFF36F8F09E0BB6810331846FFF71D
:10C6EC0003FEBB6824331846FFF7FEFDFFF758FF27
:10C6FC0001E00023FB60FB6818461037BD4680BD87
:10C70C0004ED00E080B58AB002AFF860B960134662
:10C71C00FB710023FB61FB68002B2AD04FF0FF322A
:10C72C00FB68B2FBF3F2BB689A4222D3FB68BA688F
:10C73C0002FB03F313F1550F1BD8FB68BA6802FB1D
:10C74C0003F3BB61BB6954331846FFF7BDFCF861BA
:10C75C00FB69002B0DD0FB697B617B6954337B61DA
:10C76C00FA79FB69009313467A69B968F86800F0A6
:10C77C0005F8FB6918462037BD4680BD80B584B0EE
:10C78C0000AFF860B9607A60FB70BB68002B03D116
:10C79C00BB69BA691A6002E0BB697A681A60BB6946
:10C7AC00FA68DA63BB69BA681A640121B869FFF7E1
:10C7BC0039FFBB69FA7883F85020BB6900229A6470
:10C7CC0000BF1037BD4680BD80B584B000AF786027
:10C7DC0039600023FB607B68002B0FD03A687B68C4
:10C7EC009A420BD8022200217868FFF78BFFF86081
:10C7FC00FB68002B02D0FB683A689A63FB6818460A
:10C80C001037BD4680BD00BF80B58AB000AFF86060
:10C81C00B9607A6000237B62FB683B62FFF7A6FE7F
:10C82C003B6A9B6BFB61FB69002B1FD0B968386AB4
:10C83C0000F004F9FB695A1E3B6A9A633B6A1B6958
:10C84C00002B0FD03B6A1033184600F0F1FE034664
:10C85C00002B07D03C4B4FF080521A60BFF34F8F28
:10C86C00BFF36F8FFFF79CFE012369E07B68002B01
:10C87C0003D1FFF795FE002362E07B6A002B06D103
:10C88C0007F11403184600F09BFF01237B62FFF7AE
:10C89C0087FE00F01DFCFFF769FE3B6A93F84430FD
:10C8AC005BB2B3F1FF3F03D13B6A002283F8442013
:10C8BC003B6A93F845305BB2B3F1FF3F03D13B6A5F
:10C8CC00002283F84520FFF76BFE3A1D07F1140395
:10C8DC001146184600F08AFF0346002B23D1386A14
:10C8EC0000F032F90346002B17D03B6A24337A68E8
:10C8FC001146184600F04EFE386A00F0C5F800F0FC
:10C90C00F5FB0346002B89D10F4B4FF080521A6078
:10C91C00BFF34F8FBFF36F8F80E7386A00F0B4F826
:10C92C0000F0E4FB7AE7386A00F0AEF800F0DEFBCA
:10C93C00386A00F009F90346002B3FF46FAF00236F
:10C94C0018462837BD4680BD04ED00E080B584B0A4
:10C95C0000AF78607B68FB60F868FFF753FC00BFA2
:10C96C001037BD4680BD00BF80B586B000AFF86003
:10C97C00B9607A6000237B61FB689B6B3B61FB6851
:10C98C001B6C002B0DD1FB681B68002B4DD1FB6879
:10C99C009B68184601F030F87861FB6800229A60B9
:10C9AC0043E07B68002B19D1FB685868FB681B6C53
:10C9BC001A46B96801F0E6FDFB685A68FB681B6C07
:10C9CC001A44FB685A60FB685A68FB689B689A4279
:10C9DC002BD3FB681A68FB685A6026E0FB68D868A2
:10C9EC00FB681B6C1A46B96801F0CCFDFB68DA6871
:10C9FC00FB681B6C5B421A44FB68DA60FB68DA6804
:10CA0C00FB681B689A4207D2FB689A68FB681B6C30
:10CA1C005B421A44FB68DA607B68022B05D13B69E8
:10CA2C00002B02D03B69013B3B613B695A1CFB6804
:10CA3C009A637B6918461837BD4680BD80B582B0B5
:10CA4C0000AF786039607B681B6C002B18D07B685A
:10CA5C00DA687B681B6C1A447B68DA607B68DA687E
:10CA6C007B689B689A4203D37B681A687B68DA60A0
:10CA7C007B68D9687B681B6C1A46386801F082FDAC
:10CA8C0000BF0837BD4680BD80B584B000AF78606C
:10CA9C00FFF76CFD7B6893F84530FB731EE07B68F9
:10CAAC009B6C002B08D0786800F098F80346002B9C
:10CABC0010D000F0F5FE0DE07B685B6A002B12D005
:10CACC007B682433184600F0B3FD0346002B01D0DD
:10CADC0000F0E6FEFB7B013BDBB2FB7397F90F30FA
:10CAEC00002BDCDC00E000BF7B68FF2283F84520D4
:10CAFC00FFF756FDFFF73AFD7B6893F84430BB73A4
:10CB0C0011E07B681B69002B12D07B681033184630
:10CB1C0000F08EFD0346002B01D000F0C1FEBB7B64
:10CB2C00013BDBB2BB7397F90E30002BE9DC00E064
:10CB3C0000BF7B68FF2283F84420FFF731FD00BF64
:10CB4C001037BD4680BD00BF80B584B000AF7860A3
:10CB5C00FFF70CFD7B689B6B002B02D10123FB6064
:10CB6C0001E00023FB60FFF71BFDFB681846103744
:10CB7C00BD4680BD80B586B000AFF860B9607A6004
:10CB8C00FB687B61FFF7F2FC7B6993F844305BB286
:10CB9C00B3F1FF3F03D17B69002283F844207B690A
:10CBAC0093F845305BB2B3F1FF3F03D17B690022B0
:10CBBC0083F84520FFF7F4FC7B699B6B002B06D1B7
:10CBCC007B6924337A68B968184600F0F9FC7869F7
:10CBDC00FFF75AFF00BF1837BD4680BD80B586B041
:10CBEC0000AF78607B689B6C3B6100237B613B6989
:10CBFC009A6B3B69DB6B9A422DD23B6993F84530BB
:10CC0C00FB733B1D002219463869FFF7ADFE7861B6
:10CC1C0097F90F30B3F1FF3F0ED13B695B6A002BE4
:10CC2C0019D03B692433184600F002FD0346002B53
:10CC3C0011D001237B610EE000F054FBB86097F932
:10CC4C000F20BB689A4206D2FB7B0133DBB25AB28F
:10CC5C003B6983F845207B6918461837BD4680BD73
:10CC6C0080B58CB004AFF860B9603B601346FB80B4
:10CC7C00FB889B001846FFF727FA78617B69002B2D
:10CC8C0013D05820FFF720FAF861FB69002B08D06D
:10CC9C0058220021F86901F00FFDFB697A691A63CB
:10CCAC0005E07869FFF7AEFA01E00023FB61FB6950
:10CCBC00002B13D0FA8800230393FB690293FB6AC1
:10CCCC000193BB6A00933B68B968F86800F00EF8F2
:10CCDC00F86900F07DF80123BB6102E04FF0FF33EF
:10CCEC00BB61BB6918462037BD4680BD80B586B098
:10CCFC0000AFF860B9607A603B60BB6A186B7B6808
:10CD0C009B001A46A52101F0D7FCBB6A1A6B7B6805
:10CD1C0003F18043013B9B0013443B613B6923F0CF
:10CD2C0007033B61BB68002B20D000237B6114E020
:10CD3C00BA687B69134493F90010BA6A7B6913448F
:10CD4C0034330A461A70BA687B69134493F900307D
:10CD5C00002B06D07B6901337B617B69092BE7D9FA
:10CD6C0000E000BFBB6A002283F83D203B6A132B16
:10CD7C0001D913233B62BB6A3A6ADA62BB6A3A6A2C
:10CD8C009A64BB6A04331846FFF7CEFABB6A1833B1
:10CD9C001846FFF7C9FABB6ABA6A1A613B6AC3F153
:10CDAC001402BB6A9A61BB6ABA6A5A623A68F96839
:10CDBC003869FFF74FFB0246BB6A1A607B6A002B8F
:10CDCC0002D07B6ABA6A1A6000BF1837BD4680BDB4
:10CDDC0080B584B000AF7860FFF7C8FB404B1B6890
:10CDEC0001333F4A13603F4B1B68002B09D13D4A6E
:10CDFC007B6813603A4B1B68012B10D100F064FD6B
:10CE0C000DE0394B1B68002B09D1364B1B68DA6AD5
:10CE1C007B68DB6A9A4202D8324A7B681360334BD8
:10CE2C001B680133314A1360304B1A687B681A64F3
:10CE3C007B68DB6A01229A402D4B1B6813432C4AFA
:10CE4C0013607B68DA6A2B4913469B0013449B00E2
:10CE5C000B4404331B68FB607B68FA689A60FB68C0
:10CE6C009A687B68DA60FB689B687A6804325A605F
:10CE7C007B681A1DFB689A607B68DA6A13469B0014
:10CE8C0013449B001B4A1A447B685A617B68DA6A1C
:10CE9C00184913469B0013449B000B441B68591CF8
:10CEAC00144813469B0013449B0003441960FFF77E
:10CEBC0077FB0D4B1B68002B0ED00A4B1B68DA6AF4
:10CECC007B68DB6A9A4207D20B4B4FF080521A6098
:10CEDC00BFF34F8FBFF36F8F00BF1037BD4680BDC0
:10CEEC009C12020098100200A8120200B812020054
:10CEFC00A41202009C10020004ED00E080B584B086
:10CF0C0000AF7860FFF732FB7B68002B02D1344B0B
:10CF1C001B6800E07B68FB60FB6804331846FFF776
:10CF2C006FFA0346002B15D1FB68DA6A2D491346BC
:10CF3C009B0013449B000B441B68002B0AD1FB681D
:10CF4C00DB6A012202FA03F3DA43274B1B68134016
:10CF5C00254A1360FB689B6A002B04D0FB681833CE
:10CF6C001846FFF74DFA214B1B6801331F4A13601B
:10CF7C001B4B1B68FA689A420BD1FB6804331946A9
:10CF8C001B48FFF7DFF91B4B1B680133194A136071
:10CF9C0006E0194B1B68013B174A136000F010FDAB
:10CFAC00FFF7FEFA0E4B1B68FA689A4202D0F8683B
:10CFBC0000F0F6FC114B1B68002B0CD0084B1B68C7
:10CFCC00FA689A4207D10E4B4FF080521A60BFF3A9
:10CFDC004F8FBFF36F8F00BF1037BD4680BD00BFB2
:10CFEC00981002009C100200A4120200B812020059
:10CFFC0070120200841202009C120200A81202009D
:10D00C0004ED00E080B584B000AF78600023FB60D5
:10D01C007B68002B08D000F05BF80021786800F0EA
:10D02C006DFD00F063F8F860FB68002B07D1064B30
:10D03C004FF080521A60BFF34F8FBFF36F8F00BF5A
:10D04C001037BD4680BD00BF04ED00E080B584B054
:10D05C0002AF184B01930023009300234FF480720E
:10D06C0015491648FFF7FCFD78607B68012B02D14F
:10D07C0000F0C8FD78607B68012B14D14FF02003C1
:10D08C0083F31188BFF36F8FBFF34F8F3B600C4B53
:10D09C004FF0FF321A600B4B01221A600A4B002230
:10D0AC001A60FFF739FA094B1B6800BF0837BD46F9
:10D0BC0080BD00BFC0120200C8E90000C5D8000046
:10D0CC00BC120200A8120200A012020088EB0100A0
:10D0DC0080B400AF044B1B680133034A136000BFDC
:10D0EC00BD465DF8047B7047C412020080B586B063
:10D0FC0000AF00237B6100233B61FFF737FA684BDD
:10D10C001B68013B664A1360654B1B68002B40F0A3
:10D11C00C080644B1B68002B00F0BB808AE0624B24
:10D12C00DB68DB687B617B699B6ABB607B69DB6965
:10D13C007A69126A9A607B691B6A7A69D2695A6049
:10D14C00BB685A687B6918339A4203D17B691A6AA7
:10D15C00BB685A607B6900229A62BB681B685A1EC6
:10D16C00BB681A607B695B697B607B699B687A69C9
:10D17C00D2689A607B69DB687A6992685A607B68CE
:10D18C005A687B6904339A4203D17B69DA687B68FD
:10D19C005A607B6900225A617B681B685A1E7B6847
:10D1AC001A607B69DB6A01229A40404B1B6813436F
:10D1BC003E4A13607B69DA6A3D4913469B0013446F
:10D1CC009B000B4404331B683B607B693A689A6094
:10D1DC003B689A687B69DA603B689B687A690432C1
:10D1EC005A607B691A1D3B689A607B69DA6A134640
:10D1FC009B0013449B002E4A1A447B695A617B693D
:10D20C00DA6A2B4913469B0013449B000B441B68A2
:10D21C00591C274813469B0013449B000344196078
:10D22C007B69DA6A234B1B68DB6A9A4202D3224B76
:10D23C0001221A601C4B1B68002B7FF470AF7B69BA
:10D24C00002B01D000F0BCFB1C4B1B68FB60FB6887
:10D25C00002B10D000F052F80346002B02D0164BD6
:10D26C0001221A60FB68013BFB60FB68002BF1D1CB
:10D27C00124B00221A60104B1B68002B09D00123A3
:10D28C003B610F4B4FF080521A60BFF34F8FBFF3CF
:10D29C006F8FFFF785F93B6918461837BD4680BD7F
:10D2AC00C41202009C1202005C120200A4120200C2
:10D2BC009C10020098100200B0120200AC12020086
:10D2CC0004ED00E080B483B000AF054B1B687B60BD
:10D2DC007B6818460C37BD465DF8047B704700BF71
:10D2EC00A012020080B400AF034B1B681846BD4669
:10D2FC005DF8047B704700BF9C12020080B588B0BB
:10D30C0000AF0023FB61754B1B68002B40F0DC80E9
:10D31C00734B1B680133BB61714ABB691360BB69FA
:10D32C00002B10D16F4B1B687B616F4B1B686D4AD8
:10D33C0013606D4A7B6913606C4B1B6801336B4A3D
:10D34C00136000F03DFB6A4B1B68BA699A42C0F04F
:10D35C00A680644B1B681B68002B04D1644B4FF0F8
:10D36C00FF321A609BE05F4B1B68DB68DB683B613C
:10D37C003B695B68FB60BA69FB689A4203D25C4A02
:10D38C00FB6813608BE03B695B69BB603B699B6826
:10D39C003A69D2689A603B69DB683A6992685A606C
:10D3AC00BB685A683B6904339A4203D13B69DA681B
:10D3BC00BB685A603B6900225A61BB681B685A1EE5
:10D3CC00BB681A603B699B6A002B1ED03B699B6A49
:10D3DC007B603B69DB693A69126A9A603B691B6A3C
:10D3EC003A69D2695A607B685A683B6918339A4229
:10D3FC0003D13B691A6A7B685A603B6900229A62C6
:10D40C007B681B685A1E7B681A603B69DB6A0122C9
:10D41C009A40384B1B681343364A13603B69DA6AEF
:10D42C00354913469B0013449B000B4404331B6883
:10D43C003B603B693A689A603B689A683B69DA6082
:10D44C003B689B683A6904325A603B691A1D3B6819
:10D45C009A603B69DA6A13469B0013449B00264A88
:10D46C001A443B695A613B69DA6A234913469B00AB
:10D47C0013449B000B441B68591C1F4813469B000C
:10D48C0013449B00034419603B69DA6A1B4B1B680D
:10D49C00DB6A9A427FF65DAF0123FB6159E7174BBC
:10D4AC001B68DA6A144913469B0013449B000B4417
:10D4BC001B68012B01D90123FB61114B1B68002B4D
:10D4CC0007D00123FB6104E00E4B1B6801330D4AAE
:10D4DC001360FB6918462037BD4680BDC41202009C
:10D4EC00A01202005412020058120200B4120200E0
:10D4FC00BC120200A41202009C1002009810020040
:10D50C00B0120200AC12020080B485B000AF1C4B0C
:10D51C001B68002B03D01B4B01221A602AE0194B0D
:10D52C0000221A60184B1B687B607B68B3FA83F38C
:10D53C00FB70FB78C3F11F03FB60FA6813469B007A
:10D54C0013449B00114A1344BB60BB685B685A6868
:10D55C00BB685A60BB685A68BB6808339A4204D1EE
:10D56C00BB685B685A68BB685A60BB685B68DB6801
:10D57C00074A136000BF1437BD465DF8047B704743
:10D58C00C4120200B0120200A41202009C1002008D
:10D59C009810020080B582B000AF78603960074BFC
:10D5AC001B68183319467868FEF7F0FE01213868BD
:10D5BC0000F0A4FA00BF0837BD4680BD98100200E9
:10D5CC0080B586B000AFF860B9607A60FB685B68C4
:10D5DC007B61164B1B687A69DA61144B1B687A699C
:10D5EC0092681A627B699B68104A126818325A60FA
:10D5FC000E4B1B6803F118027B699A600B4B1B687E
:10D60C00FA689A62FB681B685A1CFB681A607B6894
:10D61C00002B02D04FF0FF33BB607968B86800F084
:10D62C006DFA00BF1837BD4680BD00BF98100200D0
:10D63C0080B489B000AF78607B68DB68DB68BB6165
:10D64C00BB699B6A7B61BB69DB69BA69126A9A60C8
:10D65C00BB691B6ABA69D2695A607B695A68BB6933
:10D66C0018339A4203D1BB691A6A7B695A60BB6949
:10D67C0000229A627B691B685A1E7B691A604A4BAE
:10D68C001B68002B5ED1BB695B693B61BB699B6806
:10D69C00BA69D2689A60BB69DB68BA6992685A60E9
:10D6AC003B695A68BB6904339A4203D1BB69DA6897
:10D6BC003B695A60BB6900225A613B691B685A1E60
:10D6CC003B691A60BB69DB6A01229A40374B1B68C5
:10D6DC001343364A1360BB69DA6A354913469B001B
:10D6EC0013449B000B4404331B68FB60BB69FA6852
:10D6FC009A60FB689A68BB69DA60FB689B68BA69D8
:10D70C0004325A60BB691A1DFB689A60BB69DA6AFD
:10D71C0013469B0013449B00254A1A44BB695A616B
:10D72C00BB69DA6A224913469B0013449B000B44E5
:10D73C001B68591C1E4813469B0013449B00034452
:10D74C0019601BE01B4B5B68BB60BB69BA68DA6194
:10D75C00BB689A68BB691A62BB689B68BA69183265
:10D76C005A60BB6903F11802BB689A60BB69114A25
:10D77C009A62104B1B6801330E4A1360BB69DA6A5C
:10D78C000D4B1B68DB6A9A4205D90123FB610B4BDD
:10D79C0001221A6001E00023FB61FB691846243763
:10D7AC00BD465DF8047B7047C4120200A41202004F
:10D7BC009C1002005C12020098100200B0120200D1
:10D7CC0080B483B000AF7860064B1A687B681A602F
:10D7DC00054B1A687B685A6000BF0C37BD465DF874
:10D7EC00047B7047B4120200A012020080B586B010
:10D7FC0000AF78603960FEF7B9FE264B1B683B61C1
:10D80C007B685B683A69D31AFB60234B1B6893F8FF
:10D81C005530002B07D0204B1B68002283F8552075
:10D82C0001237B612EE03B681B68B3F1FF3F02D103
:10D83C0000237B6126E07B681A68184B1B689A42B0
:10D84C000AD07B685A683B699A4205D801237B61F0
:10D85C003B6800221A6015E03B681A68FB689A4224
:10D86C000BD93B681A68FB68D21A3B681A60786857
:10D87C00FFF7A6FF00237B6104E03B6800221A60DF
:10D88C0001237B61FEF78CFE7B6918461837BD4679
:10D89C0080BD00BFA012020098100200B41202005A
:10D8AC0080B400AF034B01221A6000BFBD465DF887
:10D8BC00047B7047B012020080B582B000AF786074
:10D8CC0000F042F8FCE700BF80B582B000AF002347
:10D8DC007B600CE07A6813469B0013449B00124A51
:10D8EC0013441846FEF700FD7B6801337B607B68B0
:10D8FC00132BEFD90D48FEF7F7FC0D48FEF7F4FC9F
:10D90C000C48FEF7F1FC0C48FEF7EEFC0B48FEF75A
:10D91C00EBFC0B4B054A1A600A4B054A1A6000BF18
:10D92C000837BD4680BD00BF9C1002002C120200BF
:10D93C00401202005C1202007012020088120200F7
:10D94C00541202005812020080B582B000AF19E0E8
:10D95C00FEF70CFE0F4BDB68DB687B607B680433E7
:10D96C001846FEF74DFD0C4B1B68013B0A4A136031
:10D97C000A4B1B68013B094A1360FEF711FE7868DD
:10D98C0000F00EF8054B1B68002BE1D100BF0837E7
:10D99C00BD4680BD701202009C120200841202006F
:10D9AC0080B582B000AF78607B681B6B1846FEF7C1
:10D9BC0029FC7868FEF726FC00BF0837BD4680BD01
:10D9CC0080B400AF0A4B1B681B68002B04D1094BB9
:10D9DC004FF0FF321A6005E0054B1B68DB681B68D3
:10D9EC00044A136000BFBD465DF8047B704700BF5E
:10D9FC0054120200BC12020080B586B000AF7860F1
:10DA0C007B683B6100237B617B68002B6CD03B699E
:10DA1C00DB6C5A1E3B69DA643B69DA6A3B699B6CC6
:10DA2C009A4261D03B69DB6C002B5DD13B690433BE
:10DA3C001846FEF7E5FC0346002B0AD13B69DB6A6E
:10DA4C00012202FA03F3DA432A4B1B681340294ADA
:10DA5C0013603B699A6C3B69DA623B69DB6AC3F120
:10DA6C0014023B699A613B69DB6A01229A40214BA3
:10DA7C001B6813431F4A13603B69DA6A1E4913463D
:10DA8C009B0013449B000B4404331B68FB603B69F5
:10DA9C00FA689A60FB689A683B69DA60FB689B6875
:10DAAC003A6904325A603B691A1DFB689A603B69FB
:10DABC00DA6A13469B0013449B000F4A1A443B69D5
:10DACC005A613B69DA6A0C4913469B0013449B006C
