:100000008011FF1F2988000079880000798800008E
:1000100079880000798800007988000000000000DD
:1000200000000000000000000000000079880000CF
:10003000798800000000000079880000B58C00007D
:10004000DD470000ED470000FD4700000D480000BF
:100050001D4800002D4800003D4800004D480000AC
:100060005D4800006D4800007D4800008D4800009C
:100070009D480000AD480000BD480000CD4800008C
:100080000939000019390000293900003939000008
:1000900049390000210F00003D0F0000590F0000FA
:1000A000750F000000000000000000004116000075
:1000B00051160000611600000000000045380000E5
:1000C0000000000011420000D1830000E183000025
:1000D000F1830000018400001184000021840000ED
:1000E0003184000041840000000000000000000096
:1000F0000000000000000000A12A0000B12A00005A
:10010000B1870000C187000019880000FD020000CF
:10011000714100007988000009150000DD1400001D
:1001200079880000C92800002929000089290000D9
:10013000D92800003929000099290000E928000089
:1001400049290000A9290000F928000059290000C8
:10015000B92900000929000069290000C929000007
:100160001929000079290000D929000000000000A9
:10017000000000000000000000000000000000007F
:1001800000000000B5220000952B0000391000008F
:10019000491000005910000069100000814A000059
:1001A000D5400000C9400000E1400000B910000047
:0401B000C910000072
:1001B40080B500AF08F0C4FC0AF062F90AF010FA46
:1001C40008F084FD0AF06EFE08F0E4FCFCE700BFD2
:1001D40080B400AF72B600BFBD465DF8047B7047C3
:1001E40080B400AF62B600BFBD465DF8047B7047C3
:1001F40080B584B000AF78600023FB81FFF7E8FF8F
:100204007B681B78DBB2FF2B07D07B681B78DBB2E3
:100214000133DAB27B681A7001E00123FB81FFF736
:10022400DFFFFB8918461037BD4680BD80B582B01C
:1002340000AF78600B46FB70FFF7CAFF7B68FA7863
:100244001A70FFF7CDFF002318460837BD4680BD5E
:1002540080B483B000AF7860002318460C37BD46E5
:100264005DF8047B704700BF80B483B000AF786052
:100274007B685B6843F040027B685A6000BF0C37C0
:10028400BD465DF8047B704780B483B000AF7860EE
:100294007B68074A9A607B689B687B68054A9A601A
:1002A4007B689B6800BF0C37BD465DF8047B7047D4
:1002B40087D964E078848A8680B584B000AF034629
:1002C400FB710B4BFB60F868FFF7DEFFF868FFF784
:1002D400CBFFFB79074A52F82330002B04D0FB797B
:1002E400044A52F82330984700BF1037BD4680BDFA
:1002F40000B000400C06FF1F80B500AF0020FFF7E0
:10030400DBFF00BF80BD00BF80B483B000AF786066
:100314000B46FB707B681B6923F00102FB78002B02
:1003240001D0012300E000231A437B681A6100BF57
:100334007B681B6903F00103002B14BF0123002316
:10034400DBB21A46FB789A42F2D100BF0C37BD46A5
:100354005DF8047B704700BF80B483B000AF786061
:100364000B46FB707B681B6C23F00202FB78002BAE
:1003740001D0022300E000231A437B681A6400BF03
:100384000C37BD465DF8047B704700BF80B483B072
:1003940000AF78600B46FB707B681B6C23F0010296
:1003A400FB78002B01D0012300E000231A437B6873
:1003B4001A6400BF0C37BD465DF8047B704700BF6C
:1003C40080B483B000AF78600B46FB70FA787B682A
:1003D4001A6000BF0C37BD465DF8047B704700BF50
:1003E40080B483B000AF786039607B681B68DAB290
:1003F4003B681A7000BF0C37BD465DF8047B70473C
:1004040080B483B000AF78600B46FB707B685B6997
:1004140023F00102FB781A437B685A6100BF0C3752
:10042400BD465DF8047B704780B485B000AF78604A
:100434009E23FB607B68FA681A6200BF1437BD46CE
:100444005DF8047B704700BF80B584B000AF78606E
:10045400404A7B6852F82330FB603F4A7B6852F87D
:100464002330BB60786800F061F94FF44031F868DC
:1004740000F05CFC0346002B0AD04FF48031F8688E
:1004840000F0AAFC0346002B02D0786800F074F850
:100494003249F86800F04AFC0346002B09D0304981
:1004A400F86800F099FC0346002B02D0786800F04D
:1004B400AFF82C49F86800F039FC0346002B09D04A
:1004C4002949F86800F088FC0346002B02D07868BC
:1004D40000F002F92549F86800F028FC0346002BD7
:1004E40015D02349F86800F077FC0346002B0ED0A2
:1004F4001F49F86800F0A2FCBB689B69002B06D07A
:10050400BB689B69BA68D2690421B86898471949DD
:10051400F86800F00BFC0346002B17D04FF40031B1
:10052400F86800F059FC0346002B0FD04FF400315B
:10053400F86800F083FCBB689B69002B06D0BB689D
:100544009B69BA68D2690521B868984700BF10371B
:10055400BD4680BDA8AF00001006FF1F01000300C8
:10056400050001000200030006000100020004006F
:10057400080002000400060080B584B000AF786073
:10058400224A7B6852F82330FB60786800F062FAF4
:10059400FB681B7D022B0AD0FB685B685A1CFB6856
:1005A4005A60FB68DB685A1EFB68DA6009E0FB6886
:1005B4005B689A1CFB685A60FB68DB689A1EFB68E0
:1005C400DA60FB68DB68002B0AD1FB689B69002BAF
:1005D40006D0FB689B69FA68D2690021F8689847DD
:1005E400FB68DB68002B0DD1786800F0B1F9FB687B
:1005F4009B69002B06D0FB689B69FA68D2690221CB
:10060400F868984700BF1037BD4680BD1006FF1F2D
:1006140080B584B000AF78602B4A7B6852F82330F1
:10062400FB602A4A7B6852F82330BB60FB689B68F6
:10063400002B45D0786800F0CFF9FB681B7D022BB6
:1006440013D0FB689B68012B04D101222049B868B0
:1006540000F0F4FAFB681B685A1CFB681A60FB681C
:100664009B685A1EFB689A6012E0FB689B68022B29
:1006740004D101221649B86800F0E0FAFB681B684F
:100684009A1CFB681A60FB689B689A1EFB689A6058
:10069400FB689B68002B13D1FB681B6A002B06D0F8
:1006A400FB681B6AFA68526A0121F8689847FB687C
:1006B4009B68002B04D100220649B86800F0BEFAFA
:1006C40000BF1037BD4680BD1006FF1FA8AF000055
:1006D400020003000100030080B584B000AF78601D
:1006E400114A7B6852F82330FB60FB689B68002B3F
:1006F40016D1FB6893F82830012B03D1786800F0F9
:10070400EDF802E0786800F0E1F9FB681B6A002B61
:1007140006D0FB681B6AFA68526A0221F868984797
:1007240000BF1037BD4680BD1006FF1F80B584B0E2
:1007340000AF7860634A7B6852F82330FB60624AFA
:100744007B6852F82330BB604FF00111B86800F0A9
:1007540043FB0346002B1DD0FB6840F201621A865E
:10076400FB6893F82830012B03D1786800F0F0F887
:1007740002E0786800F0E6F9FB689B69002B06D07C
:10078400FB689B69FA68D2690321F8689847B868DE
:10079400FFF74AFE4D49B86800F01EFB0346002BE4
:1007A4001DD0FB6840F204621A86FB6893F8283077
:1007B400012B03D1786800F0CBF802E0786800F0F0
:1007C400C1F9FB689B69002B06D0FB689B69FA683A
:1007D400D2690321F8689847B868FFF725FE3C49B9
:1007E400B86800F0F9FA0346002B1DD0FB6840F20C
:1007F40003621A86FB6893F82830012B03D17868CA
:1008040000F0A6F802E0786800F09CF9FB689B69A8
:10081400002B06D0FB689B69FA68D2690321F8684B
:100824009847B868FFF700FE2A49B86800F0D4FA80
:100834000346002B1DD0FB6840F205621A86FB6854
:1008440093F82830012B03D1786800F081F802E096
:10085400786800F077F9FB689B69002B06D0FB6889
:100864009B69FA68D2690321F8689847B868FFF76A
:10087400DBFD1949B86800F0AFFA0346002B1DD020
:10088400FB6840F206621A86FB6893F82830012B55
:1008940003D1786800F05CF802E0786800F052F95F
:1008A400FB689B69002B06D0FB689B69FA68D269D8
:1008B4000321F8689847B868FFF7B6FD00BF103702
:1008C400BD4680BD1006FF1FA8AF00000200010056
:1008D40003000100040001000700010080B584B09A
:1008E40000AF7860164A7B6852F82330FB60154AE3
:1008F4007B6852F82330BB60BB68DB8D9BB2022B54
:1009040003D1BB680022DA8504E000220E49F868AE
:1009140000F094F900220D49F86800F08FF9BB68E3
:1009240000221A74BB689B7CDBB2002B04D0BB682A
:100934002C331846FFF75CFC00BF1037BD4680BD62
:10094400A8AF00001006FF1F01000300020003000F
:1009540080B586B000AF78600023FB731C4A7B68C7
:1009640052F823307B611B4A7B6852F823303B6189
:1009740000213869FFF7C8FC0021386900F0A4FAA7
:1009840007F10F0319463869FFF72AFD00224FF4D7
:100994004031386900F052F97B69DB7CDBB2002B13
:1009A40007D07B692B331846FFF722FC7B690022B2
:1009B400DA747B6900225A747B691B8E9BB2022B0A
:1009C40002D17B6900221A8600BF1837BD4680BD5C
:1009D4001006FF1FA8AF000080B586B000AF786096
:1009E4001A4A7B6852F823307B61194A7B6852F8B3
:1009F40023303B610023FB817B691B68BB607B69FF
:100A04001B7D002B03D07B691B7D012B06D1BB68AA
:100A14001B7819463869FFF7D3FC12E0BB681B78D2
:100A2400FB81BB680133BB60BB681B789BB21B02B4
:100A34009AB2FB891343FB81FB891946386900F09C
:100A4400D7F800BF1837BD4680BD00BF1006FF1F92
:100A5400A8AF000080B586B000AF7860194A7B6803
:100A640052F823307B61184A7B6852F823303B618B
:100A740000237B817B695B68FB607B691B7D002BAA
:100A840003D07B691B7D012B04D1F9683869FFF71A
:100A9400A7FC12E007F10A031946386900F0BAF816
:100AA4007B89DAB2FB681A70FB680133FB607B89CF
:100AB4001B0A9BB2DAB2FB681A7000BF1837BD4636
:100AC40080BD00BF1006FF1FA8AF000080B584B032
:100AD40000AF7860184A7B6852F82330FB60174AED
:100AE4007B6852F82330BB600021F868FFF734FCC0
:100AF400BB6893F82A30184603F044FE00221049DC
:100B0400F86800F09BF8BB689B7CDBB2002B04D038
:100B1400BB682C331846FFF76BFBBB68DB8D9BB2BD
:100B2400022B02D1BB680022DA85BB6800221A744A
:100B340000BF1037BD4680BDA8AF00001006FF1FE0
:100B44000200030080B586B000AF7860264A7B6857
:100B540052F823307B61254A7B6852F823303B618D
:100B64000023FB7300217869FFF7CEFB002178692D
:100B740000F0AAF900217869FFF708FC00217869E0
:100B8400FFF73EFC07F10F0319467869FFF728FCCD
:100B940007F10F0319467869FFF722FC01217869F0
:100BA400FFF72EFC3B6993F82930184603F0EAFD61
:100BB4003B69DB7CDBB2002B07D03B692B33184647
:100BC400FFF716FB3B690022DA743B691B8E9BB26C
:100BD400022B02D13B6900221A863B6900225A7417
:100BE40000BF1837BD4680BDA8AF00001006FF1F28
:100BF40080B483B000AF78600B467B807B88C3F3FE
:100C040008027B681A6000BF0C37BD465DF8047BA0
:100C1400704700BF80B483B000AF786039607B68F0
:100C24001B689BB2C3F308039AB23B681A8000BFE7
:100C34000C37BD465DF8047B704700BF80B487B0B5
:100C440000AFF860B9601346FB71BB681B0C7B6195
:100C5400BB689BB23B617B69033B032B5ED801A25B
:100C640052F823F0790C0000A30C0000CD0C000016
:100C7400F70C0000FB68DA6901213B6901FA03F310
:100C8400DB431A40FB79002B01D0012100E0002155
:100C94003B6901FA03F31A43FB68DA613FE0FB683E
:100CA4009A6C01213B6901FA03F3DB431A40FB7997
:100CB400002B01D0012100E000213B6901FA03F37C
:100CC4001A43FB689A642AE0FB68DA6D01213B69E8
:100CD40001FA03F3DB431A40FB79002B01D0012115
:100CE40000E000213B6901FA03F31A43FB68DA656B
:100CF40015E0FB689A6D01213B6901FA03F3DB43BC
:100D04001A40FB79002B01D0012100E000213B694E
:100D140001FA03F31A43FB689A6500E000BF00BFC1
:100D24001C37BD465DF8047B704700BF80B485B0B6
:100D340000AF786039603B681B0CBB600023FB7319
:100D4400BB68033B032B3FD801A252F823F000BF3A
:100D5400650D00007F0D0000990D0000B30D00002B
:100D64007B68DB693A6892B2D34003F00103002B3D
:100D740014BF01230023FB7327E07B689B6C3A6854
:100D840092B2D34003F00103002B14BF01230023CC
:100D9400FB731AE07B68DB6D3A6892B2D34003F0D0
:100DA4000103002B14BF01230023FB730DE07B68B8
:100DB4009B6D3A6892B2D34003F00103002B14BF39
:100DC40001230023FB7300E000BFFB7B18461437AC
:100DD400BD465DF8047B704780B485B000AF786091
:100DE40039603B681B0CBB600023FB73BB68012BA1
:100DF40002D0022B0DD019E07B681B6A3A6892B2CC
:100E0400D34003F00103002B14BF01230023FB7321
:100E14000CE07B685B6A3A6892B2D34003F001034A
:100E2400002B14BF01230023FB7300BFFB7B184678
:100E34001437BD465DF8047B704700BF80B485B0AD
:100E440000AF786039600023FB813B681B0CBB60FA
:100E54003B681A4A934206D8194A93420ED2B3F514
:100E6400803F0BD00DE0174A934207D0154A9342B6
:100E740007D3A3F50033053B022B02D80123FB81E2
:100E840014E0BB68012B08D13B689BB21A460123CE
:100E940003FA02F27B681A6207E03B689BB21A46C7
:100EA400012303FA02F27B685A6200BFFB891846E9
:100EB4001437BD465DF8047B704700BF060001008F
:100EC400050001000800010080B582B000AF786021
:100ED4000B46FB70FB781A460D497868FFF7AEFEA7
:100EE400FB781A464FF003117868FFF7A7FEFB78EA
:100EF4001A4608497868FFF7A1FEFB781A460649A6
:100F04007868FFF79BFE00BF0837BD4680BD00BF71
:100F140006000300050003000400030080B500AFD1
:100F2400044B1B68002B03D0024B1B68002098471E
:100F340000BF80BD0000FF1F80B500AF044B5B689D
:100F4400002B03D0024B5B680120984700BF80BD93
:100F54000000FF1F80B500AF044B9B68002B03D03B
:100F6400024B9B680220984700BF80BD0000FF1F12
:100F740080B500AF044BDB68002B03D0024BDB6869
:100F84000320984700BF80BD0000FF1F80B483B0DA
:100F940000AF786039607B685A683B681340184634
:100FA4000C37BD465DF8047B704700BF80B483B046
:100FB40000AF786039607B683A685A6000BF0C37CC
:100FC400BD465DF8047B704780B584B000AF78609F
:100FD4000023FB6001227B6802FA03F319461248DE
:100FE400FFF7D4FFF860FB68002B18D001227B6860
:100FF40002FA03F319460C48FFF7D8FF0B4A7B6843
:1010040052F82330002B0AD0084A7B6852F8233068
:1010140007497A6851F822000022F968984700BF0E
:101024001037BD4680BD00BF001001402006FF1FE1
:101034001000FF1F80B500AF0020FFF7C5FF00BF01
:1010440080BD00BF80B500AF0120FFF7BDFF00BF2A
:1010540080BD00BF80B500AF0220FFF7B5FF00BF21
:1010640080BD00BF80B500AF0320FFF7ADFF00BF18
:1010740080BD00BF80B584B000AF0346FB71002380
:10108400FB60FB79013B094A52F82330002B08D05E
:10109400FB79013B054A52F823300022F9680448E1
:1010A400984700BF1037BD4680BD00BF3006FF1F04
:1010B4000081084080B500AF0120FFF7DBFF00BFCF
:1010C40080BD00BF80B500AF0220FFF7D3FF00BF93
:1010D40080BD00BF80B483B000AF0346FB710A49F2
:1010E400094B1B6823F4E062FB791B0213430B607A
:1010F400054A054B1B6843F00203136000BF0C371D
:10110400BD465DF8047B70470080004080B400AFAA
:10111400054B5B69DBB203F00703DBB21846BD463F
:101124005DF8047B704700BF0080004080B400AFCE
:10113400054B1B6803F4E0631B0ADBB21846BD468B
:101144005DF8047B704700BF0080004080B483B02A
:1011540000AF0346FB710749064B5B6823F48062CA
:10116400FB799B0213434B6000BF0C37BD465DF80F
:10117400047B70470080004080B400AF074B5B687D
:1011840003F000735B0E002B14BF01230023DBB2BA
:101194001846BD465DF8047B704700BF00800040E0
:1011A40080B400AF074B5B6803F080639B0E002B99
:1011B40014BF01230023DBB21846BD465DF8047B4F
:1011C400704700BF0080004080B483B000AF034686
:1011D400FB710749064B5B6823F00062FB79DB0671
:1011E40013434B6000BF0C37BD465DF8047B70476A
:1011F4000080004080B400AF074B5B6803F4000339
:10120400DB0D002B14BF01230023DBB21846BD46BF
:101214005DF8047B704700BF0080004080B483B059
:1012240000AF786039607B681B6823F070723B689C
:101234009B051A437B681A6000BF0C37BD465DF8F6
:10124400047B704780B483B000AF78607B681B6810
:1012540003F480131B0D18460C37BD465DF8047B60
:10126400704700BF80B483B000AF0346FB714FF0FA
:1012740080414FF080431B6823F00042FB79DB0779
:1012840013430B6000BF0C37BD465DF8047B704709
:1012940080B58AB000AF0346FB714FF080439B6971
:1012A4003B6100233B620023FB6100237B83FB79CA
:1012B4001846FFF70FFFFB79042B02D0FB79002BB4
:1012C40005D14FF080423B6923F060039361FB79C1
:1012D400002B02D0FB79012B16D14FF47A737B6279
:1012E400FFF714FF0346FB72FA7AFB799A4205D0A2
:1012F4007B6A013B7B627B6A002BF1D17B6A002B0A
:101304005BD101237B8358E0604B1B68FB605F4A21
:10131400FB6823F001031360FB79042B3DD1FFF735
:1013240069FF0346002B38D04FF08040FFF78AFF57
:101334000346012B31D14FF0804005F06BFC03468E
:10134400032B25D1FFF718FF034683F00103DBB21B
:10135400002B13D00120FFF7F9FE64237B6200BF4A
:10136400FFF70AFF034683F00103DBB2002B05D02D
:101374007B6A013B7B627B6A002BF1D10020FFF783
:1013840071FF00214FF08040FFF748FF0123FB610C
:1013940001233B620020FFF717FF3D4A3C4B1B69CA
:1013A40043F00403136130BF3B6A002B02D00120D9
:1013B400FFF70AFF354AFB681360364B5B6803F09E
:1013C4000053002B11D04CF250337B6200BFFFF767
:1013D400E7FE034683F00103DBB2002B05D07B6AF2
:1013E400013B7B627B6A002BF1D1FB69002B19D096
:1013F40041F288337B6200BFFFF7FCFE034683F0B3
:101404000103DBB2002B05D07B6A013B7B627B6A64
:10141400002BF1D103214FF08040FFF7FFFE0120A4
:10142400FFF720FFFB79042B02D0FB79002B03D1BB
:101434004FF080423B699361FB79012B20D0FFF789
:10144400D9FE0346002B1BD04FF080424FF080435F
:101454001B6B23F03F03136300237B6103E000BF96
:101464007B6901337B617B69632BF8D94FF0804240
:101474004FF080431B6B23F03F0343F001031363DE
:101484007B8B18462837BD4680BD00BF10E000E0C6
:1014940000ED00E00080004080B500AFFFF736FEAD
:1014A4000346184680BD00BF80B500AFFFF73EFE7F
:1014B4000346184680BD00BF80B400AF054A054B03
:1014C4005B6943F01003536100BFBD465DF8047BC4
:1014D400704700BF0080004080B500AFFFF7ECFF0D
:1014E400064B1B68002B06D0044B1B68044AD168CA
:1014F40000220348984700BF80BD00BF3806FF1F85
:101504000080004080B500AF054B1B68002B05D060
:10151400034B1B68002200210248984700BF80BD8E
:101524003C06FF1F0080004080B584B000AF7860A7
:101534000B46FB700023FB81FB78262B61D801A2AC
:1015440052F823F0E5150000E5150000F31500003E
:10155400F3150000EB150000F3150000071600005A
:10156400E5150000E5150000071600000716000049
:1015740007160000071600000716000007160000F3
:1015840007160000071600000716000007160000E3
:1015940007160000071600000716000007160000D3
:1015A40007160000071600000716000007160000C3
:1015B40007160000071600000716000007160000B3
:1015C40007160000071600000716000007160000A3
:1015D400071600000716000007160000FF1500009C
:1015E4000123FB810EE0786800F012F80AE0FB7832
:1015F40001229A407B68DA6004E07B682622DA6084
:1016040000E000BFFB8918461037BD4680BD00BF0F
:1016140080B483B000AF78607B689B6843F01002AD
:101624007B689A607B689B6823F010027B689A60F1
:1016340000BF0C37BD465DF8047B704780B500AF32
:10164400002000F09DFA00BF80BD00BF80B500AF50
:10165400012000F095FA00BF80BD00BF80B500AF47
:10166400022000F08DFA00BF80BD00BF80B483B0BB
:1016740000AF78607B685B6803F480531B0B002B1E
:1016840014BF01230023DBB218460C37BD465DF8B6
:10169400047B704780B483B000AF78607B685B687C
:1016A40003F00073002B07D07B685B6803F0805362
:1016B400002B01D0012300E0002303F00103DBB27F
:1016C40018460C37BD465DF8047B704780B483B080
:1016D40000AF78600B46FB707B68DA68FB7822FA0F
:1016E40003F303F00103002B14BF01230023DBB237
:1016F40018460C37BD465DF8047B704780B483B050
:1017040000AF78600B46FB701346BB70BB78002BB0
:1017140009D07B685A68FB78012101FA03F31A4364
:101724007B685A6009E07B685A68FB78012101FAFA
:1017340003F3DB431A407B685A6000BF0C37BD4695
:101744005DF8047B704700BF80B483B000AF78605D
:101754000B46FB707B685A68FB7822FA03F303F0AC
:101764000103002B14BF01230023DBB218460C37FE
:10177400BD465DF8047B704780B483B000AF7860E9
:101784000B46FB707B685B6823F48042FB789B0309
:101794001A437B685A6000BF0C37BD465DF8047B72
:1017A400704700BF80B483B000AF78600B46FB7015
:1017B4007B685B6823F40042FB78DB031A437B6895
:1017C4005A6000BF0C37BD465DF8047B704700BF0C
:1017D40080B483B000AF78607B689B6843F02002DC
:1017E4007B689A6000BF0C37BD465DF8047B704788
:1017F40080B483B000AF78607B681B6918460C37EF
:10180400BD465DF8047B704780B483B000AF786058
:101814007B685B699B0803F00103002B14BF012361
:101824000023DBB218460C37BD465DF8047B7047D5
:1018340080B483B000AF78607B685B69DB0803F039
:101844000103002B14BF01230023DBB218460C371D
:10185400BD465DF8047B704780B582B000AF786008
:10186400786800F005F8002318460837BD4680BDA7
:1018740080B584B000AF7860294A7B6852F8233081
:10188400FB60284A7B6852F82330BB60FB68002267
:101894001A72FB689B78002B02D0786800F0ECF891
:1018A400FB68DB7E002B12D10021B868FFF77AFFBA
:1018B4000021B868FFF760FFFB685B7E184602F002
:1018C40061FFFB689B7E184602F05CFF09E0002282
:1018D4000921B868FFF712FF00220821B868FFF752
:1018E4000DFF786800F02AFAFB68DB78002B07D03C
:1018F400FB681C331846FEF77BFCFB680022DA7099
:10190400FB681B6A002B06D0FB681B6AFA68526AE4
:101914000021F868984700BF1037BD4680BD00BF5E
:101924004006FF1F2000FF1F80B584B000AF786021
:101934004F4A7B6852F82330FB604E4A7B6852F86A
:101944002330BB600221B868FFF7C0FE0346002BBA
:101954000ED0FB68DB68002B0AD07868FFF77CFFA9
:101964000221B868FFF7E0FDFB6801225A777CE0AA
:101974000321B868FFF7AAFE0346002B0ED0FB68CC
:101984001B69002B0AD07868FFF766FF0321B8684B
:10199400FFF7CAFDFB6802225A7766E00121B868A6
:1019A400FFF794FE0346002B0BD0FB68DB8A9BB247
:1019B400002B03D0786800F065F902E0B868FFF7FF
:1019C40017FF0021B868FFF781FE0346002B07D0FC
:1019D400FB689B8A9BB2002B02D0786800F0ECF87D
:1019E400FB689B8A9BB2002B05D0B868FFF720FFE9
:1019F4000346002B1CD0FB68DB8A9BB2002B05D06E
:101A0400B868FFF701FF0346002B11D00721B8681F
:101A1400FFF75CFE034683F00103DBB2002B07D023
:101A240000220821B868FFF769FE7868FFF720FFF5
:101A34000521B868FFF74AFE0346002B15D01F2185
:101A4400B868FFF781FE0346002B0ED00521B86865
:101A5400FFF76AFDFB681B6A002B06D0FB681B6A54
:101A6400FA68526A0121F86898471037BD4680BD6C
:101A74004006FF1F2000FF1F80B584B000AF7860D0
:101A84004FF47A73FB60134A7B6852F82330BB60CF
:101A9400B868FFF7EBFD0346002B16D0B868FFF7D4
:101AA400F9FD0346002B10D002E0FB68013BFB600C
:101AB4000721B868FFF70AFE0346002B02D0FB6833
:101AC400002BF2D1B868FFF783FE00BF1037BD4684
:101AD40080BD00BF2000FF1F80B483B000AF7860DA
:101AE4007B685B6803F480531B0B002B14BF01233A
:101AF4000023DBB218460C37BD465DF8047B704703
:101B040080B483B000AF78600B46FB701346BB70A3
:101B1400BB78002B09D07B685A68FB78012101FA55
:101B240003F31A437B685A6009E07B685A68FB78C0
:101B3400012101FA03F3DB431A407B685A6000BFBA
:101B44000C37BD465DF8047B704700BF80B483B09A
:101B540000AF786039607B683A681A6100BF0C375F
:101B6400BD465DF8047B704780B483B000AF7860F5
:101B74007B681B6918460C37BD465DF8047B7047CB
:101B840080B584B000AF78600A4A7B6852F823308D
:101B9400FB60F868FFF7A0FF0346002B03D07868CA
:101BA400FFF7C2FE02E0786800F0A0F900BF10372A
:101BB400BD4680BD2000FF1F80B586B000AF7860B1
:101BC4002E4A7B6852F823303B612D4A7B6852F8D9
:101BD4002330FB6000237B613B699B78002B08D09A
:101BE4003B699B8A9BB2012B03D13B6900229A82F9
:101BF40041E03B69DB68002B39D03B691B88082B2B
:101C040010D83B69DB681B787B613B69DB685A1C35
:101C14003B69DA603B699B8A9BB2013B9AB23B69A0
:101C24009A8224E03B691B88102B10D83B69DB683F
:101C34001B887B613B69DB689A1C3B69DA603B6902
:101C44009B8A9BB2023B9AB23B699A820FE03B6942
:101C5400DB681B687B613B69DB681A1D3B69DA60E2
:101C64003B699B8A9BB2043B9AB23B699A8279692D
:101C7400F868FFF76BFF1837BD4680BD4006FF1FAD
:101C84002000FF1F80B586B000AF7860294A7B68CA
:101C940052F823307B61284A7B6852F823303B6139
:101CA4000023FB603869FFF75FFFF8607B691B69FD
:101CB400002B3BD07B691B88082B11D87B691B69DF
:101CC400FA68D2B21A707B691B695A1C7B691A6163
:101CD4007B69DB8A9BB2013B9AB27B69DA8225E09D
:101CE4007B691B88102B11D87B691B69FA6892B237
:101CF4001A807B691B699A1C7B691A617B69DB8A80
:101D04009BB2023B9AB27B69DA820FE07B691B6962
:101D1400FA681A607B691B691A1D7B691A617B6901
:101D2400DB8A9BB2043B9AB27B69DA8200BF183724
:101D3400BD4680BD4006FF1F2000FF1F80B584B054
:101D440000AF78600D4A7B6852F82330FB600022B4
:101D54000A21F868FFF7D4FE00220B21F868FFF788
:101D6400CFFE0221F868FFF7DFFB0321F868FFF7D5
:101D7400DBFB00BF1037BD4680BD00BF2000FF1F46
:101D840080B483B000AF78600B46FB707B68DA6880
:101D9400FB7822FA03F303F00103002B14BF0123A1
:101DA4000023DBB218460C37BD465DF8047B704750
:101DB40080B483B000AF78600B46FB701346BB70F1
:101DC400BB78002B09D07B685A68FB78012101FAA3
:101DD40003F31A437B685A6009E07B685A68FB780E
:101DE400012101FA03F3DB431A407B685A6000BF08
:101DF4000C37BD465DF8047B704700BF80B483B0E8
:101E040000AF78600B46FB707B685A68FB7822FA57
:101E140003F303F00103002B14BF01230023DBB2FF
:101E240018460C37BD465DF8047B704780B483B018
:101E340000AF78600B46FB707B685B6823F48042DC
:101E4400FB789B031A437B685A6000BF0C37BD467E
:101E54005DF8047B704700BF80B483B000AF786046
:101E64000B46FB707B685B6823F40042FB78DB0362
:101E74001A437B685A6000BF0C37BD465DF8047B8B
:101E8400704700BF80B483B000AF78607B681B6983
:101E940018460C37BD465DF8047B704780B483B0A8
:101EA40000AF78607B685B699B0803F00103002B3B
:101EB40014BF01230023DBB218460C37BD465DF87E
:101EC400047B704780B483B000AF78607B685B6943
:101ED400DB0803F00103002B14BF01230023DBB252
:101EE40018460C37BD465DF8047B704780B584B056
:101EF40000AF7860644A7B6852F82330FB60634A21
:101F04007B6852F82330BB600221F868FFF738FF82
:101F14000346002B0AD0BB68DB68002B06D0786828
:101F240000F0B6F8BB6801225A77AAE00321F868EA
:101F3400FFF726FF0346002B0AD0BB681B69002B62
:101F440006D0786800F0A4F8BB6802225A7798E0BB
:101F54000121F868FFF714FF0346002B17D0BB6874
:101F6400DB8A9BB2002B0FD0FFF79EFA0346032BAC
:101F740006D1F868FFF786FF0020FFF789F906E02D
:101F84007868FFF77FFE02E0F868FFF77BFF002127
:101F9400F868FFF7F5FE0346002B07D0BB689B8A61
:101FA4009BB2002B02D07868FFF706FEBB689B8AC1
:101FB4009BB2002B04D100220821F868FFF7F8FE39
:101FC400BB68DB8A9BB2002B04D100220921F8688C
:101FD400FFF7EEFEBB68DB8A9BB2002B05D0F868E6
:101FE400FFF75CFF0346002B2ED0BB689B8A9BB295
:101FF400002B05D0F868FFF765FF0346002B23D0BC
:1020040000220A21F868FFF7D3FE00220B21F868AA
:10201400FFF7CEFEBB681B6A002B06D0BB681B6AA9
:10202400BA68526A0021B8689847BB68DB78002B0D
:1020340007D0BB681C331846FEF7DAF8BB680022E9
:10204400DA70BB6800221A720521F868FFF798FE5F
:102054000346002B15D01F21F868FFF7CFFE034677
:10206400002B0ED00521F868FFF75EFABB681B6AE7
:10207400002B06D0BB681B6ABA68526A0121B86893
:1020840098471037BD4680BD2000FF1F4006FF1F44
:1020940080B584B000AF7860204A7B6852F8233062
:1020A400FB601F4A7B6852F82330BB60BB68DB7E51
:1020B400012B0AD100220821F868FFF779FE0022DB
:1020C4000921F868FFF774FE11E00021F868FFF7B2
:1020D400C3FE0021F868FFF7A9FEBB685B7E1846C3
:1020E40002F050FBBB689B7E184602F04BFB7868FD
:1020F400FFF724FEBB6800221A72BB68DB78002B52
:1021040007D0BB681C331846FEF772F8BB68002280
:10211400DA70002318461037BD4680BD2000FF1F2B
:102124004006FF1F80B483B000AF786039607B68DD
:102134003A685A6000BF0C37BD465DF8047B7047AF
:1021440080B483B000AF78607B689B6818460C3716
:10215400BD465DF8047B704780B483B000AF7860FF
:102164007B685B6903F00803DB08002B14BF0123C1
:102174000023DBB218460C37BD465DF8047B70477C
:1021840080B485B000AF78607B685B69FB60FB68F6
:1021940043F00203FB607B68FA685A6100BF14379E
:1021A400BD465DF8047B704780B586B000AF03463A
:1021B400FB713D4B7B61FA793C4913465B00134448
:1021C4009B000B441B683B61FA79384913465B005A
:1021D40013449B000B4408331B68FB607869FFF7CA
:1021E400CFFF7869FFF7B8FF0346002B4AD03B695D
:1021F400002B54D03B699B68002B03D13B691B7BAC
:10220400002B26D07869FFF79BFFB8603B695A68BA
:10221400BB681344013BBB60B9687869FFF782FF70
:10222400FA79224913465B0013449B000B440433A0
:1022340001221A703B691B7B83F00103DBB2002B84
:1022440003D03B699B68013B00E000233A6993603B
:102254000DE000217869FFF765FFFA791349134609
:102264005B0013449B000B44043300221A703B6947
:102274001B69002B13D03B691B693A6952691046EC
:1022840098470CE0FB68002B09D0FB685B68002BC7
:1022940005D0FB685B68FA6892681046984700BFEF
:1022A4001837BD4680BD00BF009800404C06FF1F94
:1022B40080B500AF0020FFF777FF00BF80BD00BFEF
:1022C40080B483B000AF0346FB714FF080414FF000
:1022D40080435B6923F40002FB79DB0513434B6104
:1022E40000BF0C37BD465DF8047B704780B483B0F3
:1022F40000AF03460A46FB711346BB71FB79092BF9
:1023040000F2848001A252F823F000BF39230000B8
:102314005123000069230000812300009923000059
:10232400B1230000C923000011240000E1230000B0
:10233400F92300004FF080414FF080435B6923F4A0
:102344008062BB799B0213434B6160E04FF0804194
:102354004FF080435B6923F40062BB79DB021343D3
:102364004B6154E04FF080414FF080435B6923F4AC
:102374008052BB791B0313434B6148E04FF080410B
:102384004FF080435B6923F40052BB795B03134332
:102394004B613CE04FF080414FF080435B6923F494
:1023A4000042BB79DB0313434B6130E04FF08041C3
:1023B4004FF080435B6923F48032BB791B041343E1
:1023C4004B6124E04FF080414FF080435B6923F47C
:1023D4000032BB795B0413434B6118E04FF080413A
:1023E4004FF080435B6923F40022BB79DB04134381
:1023F4004B610CE04FF080414FF080435B6923F464
:102404008012BB791B0513434B6100E000BF00BF82
:102414000C37BD465DF8047B704700BF80B483B0C1
:1024240000AF0346FB714FF080414FF080435B697E
:1024340023F44072FB791B0213434B6100BF0C373A
:10244400BD465DF8047B704780B483B000AF03469B
:102454000A46FB711346BB71FB79092B00F28F808E
:1024640001A252F823F000BF95240000AB24000021
:10247400C3240000DB240000F32400000B2500002B
:10248400232500003B250000532500006B25000098
:102494004FF080414FF080439B6923F00102BB79E8
:1024A40013438B616CE04FF080414FF080439B6994
:1024B40023F00202BB795B0013438B6160E04FF0B1
:1024C40080414FF080439B6923F00402BB799B0059
:1024D40013438B6154E04FF080414FF080439B697C
:1024E40023F00802BB79DB0013438B6148E04FF013
:1024F40080414FF080439B6923F02002BB795B014C
:1025040013438B613CE04FF080414FF080439B6963
:1025140023F04002BB799B0113438B6130E04FF001
:1025240080414FF080439B6923F08002BB79DB013B
:1025340013438B6124E04FF080414FF080439B694B
:1025440023F48072BB791B0213438B6118E04FF0B4
:1025540080414FF080439B6923F40072BB795B0296
:1025640013438B610CE04FF080414FF080439B6933
:1025740023F48062BB799B0213438B6100E000BFAC
:1025840000BF0C37BD465DF8047B704780B582B050
:1025940000AF0346FB710B46BB7113467B710120F0
:1025A400FFF78EFEBA79FB7911461846FFF79EFEB7
:1025B4007B791846FFF732FF00BF0837BD4680BD60
:1025C40080B582B000AF03460A46FB711346BB7167
:1025D400BA79FB7911461846FFF736FF00BF083772
:1025E400BD4680BD80B485B000AF0346FB71FB7966
:1025F400064A52F82330FB60FB681B6DDBB21846B9
:102604001437BD465DF8047B704700BFB8AF0000C7
:1026140080B485B000AF03463960FB71FB79084A8A
:1026240052F82330FB60FB681A6D3B68DB431A40A9
:10263400FB681A6500BF1437BD465DF8047B70471C
:10264400B8AF000080B485B000AF0346FB71FB79DE
:10265400064A52F82330FB60FB681B6D03F47F03CA
:1026640018461437BD465DF8047B7047B8AF0000C8
:1026740080B485B000AF0346FB71FB79064A52F87B
:102684002330FB60FB681B6803F080031846143793
:10269400BD465DF8047B7047B8AF000080B485B0D8
:1026A40000AF0346FB71FB79064A52F82330FB6006
:1026B400FB681B6803F0040318461437BD465DF835
:1026C400047B7047B8AF000080B485B000AF034608
:1026D400FB71FB79074A52F82330FB60FB681B68E7
:1026E40023F08002FB681A6000BF1437BD465DF812
:1026F400047B7047B8AF000080B584B000AF0346D8
:10270400FB710023FB600023BB60FB791846FFF7D5
:10271400AFFFF860FB68002B03D0FB791846FFF786
:10272400D3FFFB791846FFF7B9FF0346BB60FB797B
:10273400084A52F82330002B08D0FB79054A52F896
:10274400233007F10802F879F968984700BF103779
:10275400BD4680BD5806FF1F80B584B000AF034658
:10276400FB710023FB600023BB60FB791846FFF775
:1027740039FFF860FB68DBB2002B04D0FB79F96801
:102784001846FFF745FFFB791846FFF75BFF034642
:10279400BB60FB79084A52F82330002B08D0FB7940
:1027A400054A52F8233007F10802F879F968984786
:1027B40000BF1037BD4680BD7006FF1F80B485B0D2
:1027C40000AF03460A46FB711346BB71FB79084A06
:1027D40052F82330FB60FB689A6FBB79012101FA40
:1027E40003F3134018461437BD465DF8047B704765
:1027F400B8AF000080B485B000AF0346FB71FB792D
:10280400064A52F82330FB60FB689B6F03F0800399
:1028140018461437BD465DF8047B7047B8AF000016
:1028240080B584B000AF0346FB710023BB60FB7925
:1028340000211846FFF7C2FF0346002B03D0BB68F4
:1028440043F00103BB60FB7901211846FFF7B6FF93
:102854000346002B03D0BB6843F00203BB60FB7943
:1028640002211846FFF7AAFF0346002B03D0BB68DA
:1028740043F00403BB60FB7903211846FFF79EFF76
:102884000346002B03D0BB6843F00803BB60FB790D
:102894001846FFF7AFFFF860FB79094A52F8233076
:1028A400002B08D0FB79064A52F8233007F10802BE
:1028B400F879F968984700BF1037BD4680BD00BF5E
:1028C4008806FF1F80B500AF0020FFF715FF00BF8B
:1028D40080BD00BF80B500AF0120FFF70DFF00BF32
:1028E40080BD00BF80B500AF0220FFF705FF00BF29
:1028F40080BD00BF80B500AF0320FFF7FDFE00BF21
:1029040080BD00BF80B500AF0420FFF7F5FE00BF17
:1029140080BD00BF80B500AF0520FFF7EDFE00BF0E
:1029240080BD00BF80B500AF0020FFF715FF00BFDA
:1029340080BD00BF80B500AF0120FFF70DFF00BFD1
:1029440080BD00BF80B500AF0220FFF705FF00BFC8
:1029540080BD00BF80B500AF0320FFF7FDFE00BFC0
:1029640080BD00BF80B500AF0420FFF7F5FE00BFB7
:1029740080BD00BF80B500AF0520FFF7EDFE00BFAE
:1029840080BD00BF80B500AF0020FFF749FF00BF46
:1029940080BD00BF80B500AF0120FFF741FF00BF3D
:1029A40080BD00BF80B500AF0220FFF739FF00BF34
:1029B40080BD00BF80B500AF0320FFF731FF00BF2B
:1029C40080BD00BF80B500AF0420FFF729FF00BF22
:1029D40080BD00BF80B500AF0520FFF721FF00BF19
:1029E40080BD00BF80B485B000AF0346FB71FB79A6
:1029F400094A52F82330FB60FB681B6803F48063C8
:102A04009B0A002B14BF01230023DBB218461437A2
:102A1400BD465DF8047B70472C00FF1F80B485B071
:102A240000AF0346FB71FB79074A52F82330FB6081
:102A3400FB681B6823F48062FB681A6000BF1437CC
:102A4400BD465DF8047B70472C00FF1F80B584B041
:102A540000AF0346FB710123FB73FB791846FFF7B4
:102A6400C1FF0346FB73FB7B002B11D0FB79184697
:102A7400FFF7D4FFFB79084A52F82330002B07D024
:102A8400FB79054A52F82330F879F97B00229847FC
:102A940000BF1037BD4680BDA006FF1F80B500AF44
:102AA4000020FFF7D3FF00BF80BD00BF80B500AF9B
:102AB4000120FFF7CBFF00BF80BD00BF80B483B00F
:102AC40000AF78607B681B6803F480731B0A002BDB
:102AD40014BF01230023DBB218460C37BD465DF852
:102AE400047B704780B483B000AF78607B681B6858
:102AF40043F480727B681A6000BF0C37BD465DF8F2
:102B0400047B704780B584B000AF0346FB71064B6D
:102B1400FB60F868FFF7D2FF0346FB72FB7A1846A6
:102B24001037BD4680BD00BF0090014080B584B021
:102B340000AF0346FB71044BFB60F868FFF7D2FF5C
:102B440000BF1037BD4680BD0090014080B582B003
:102B540000AF00237B600020FFF7D4FF03467B60B7
:102B64007B68002B0CD00020FFF7E0FF064B1B68AE
:102B7400002B05D0044B1B68002279680348984752
:102B840000BF0837BD4680BDA806FF1F0090014066
:102B940080B500AFFFF7DAFF00BF80BD80B483B01B
:102BA40000AF78600B46FB707B681B6923F0400222
:102BB400FB789B011A437B681A6100BF0C37BD4642
:102BC4005DF8047B704700BF80B483B000AF7860C9
:102BD4000B46FB707B689B6923F00202FB785B0069
:102BE4001A437B689A6100BF0C37BD465DF8047BCD
:102BF400704700BF80B483B000AF78607B689B6A85
:102C040003F0200318460C37BD465DF8047B70477B
:102C140080B483B000AF78600B46FB707B68DB69DF
:102C240023F00102FB781A437B68DA6100BF0C379A
:102C3400BD465DF8047B704780B483B000AF786014
:102C44000B46FB707B68DB6923F00202FB785B00B8
:102C54001A437B68DA6100BF0C37BD465DF8047B1C
:102C6400704700BF80B483B000AF78607B685B6A54
:102C740003F0040318460C37BD465DF8047B704727
:102C840080B483B000AF78607B685B6A03F00803AC
:102C940018460C37BD465DF8047B704780B483B09A
:102CA40000AF78607B681B6923F010027B681A61AF
:102CB40000BF0C37BD465DF8047B704780B483B019
:102CC40000AF78607B681B6923F008027B681A6197
:102CD40000BF0C37BD465DF8047B704780B483B0F9
:102CE40000AF78607B681B6943F008027B681A6157
:102CF40000BF0C37BD465DF8047B704780B483B0D9
:102D040000AF78600B46FB70FA787B68DA6200BF2C
:102D14000C37BD465DF8047B704700BF80B483B0B8
:102D240000AF78607B68DB6ADBB218460C37BD46BF
:102D34005DF8047B704700BF80B485B000AF786055
:102D44007B68DB6AFB6000BF1437BD465DF8047B1B
:102D5400704700BF80B483B000AF78607B681B6BA2
:102D640043F002027B681A6300BF0C37BD465DF86E
:102D7400047B704780B485B000AF78607B689B6A41
:102D840023F04003FB60FB6843F01003FB607B68A7
:102D9400FA689A6200BF1437BD465DF8047B704739
:102DA40080B485B000AF78607B689B6A23F0100321
:102DB400FB60FB6843F04003FB607B68FA689A623F
:102DC40000BF1437BD465DF8047B704780B483B000
:102DD40000AF78607B681B6903F0100318460C375A
:102DE400BD465DF8047B704780B483B000AF786063
:102DF4007B681B6903F0200318460C37BD465DF859
:102E0400047B704780B483B000AF78607B689B6AB2
:102E140003F0100318460C37BD465DF8047B704779
:102E240080B483B000AF78607B689B6A03F0400392
:102E340018460C37BD465DF8047B704780B483B0F8
:102E440000AF78607B681B6A18460C37BD465DF896
:102E5400047B704780B483B000AF786039607B68CE
:102E64003A681A6200BF0C37BD465DF8047B7047B0
:102E740080B483B000AF786039607B683A685A6286
:102E840000BF0C37BD465DF8047B704780B584B045
:102E940000AFF860B9601346FB710021F868FFF7D2
:102EA4007DFEBB689B7E002B11D1BB681B7E184640
:102EB40001F068FCBB681B68002B04D00021F86893
:102EC400FFF7BAFE03E00021F868FFF7A1FEFB79E3
:102ED400002B02D0F868FFF73DFFBB6800225A615F
:102EE400BB6800225A60BB6800229A60BB6800225B
:102EF4001A61BB6800221A60BB6801229A7700BF7E
:102F04001037BD4680BD00BF80B582B000AF786089
:102F1400396000217868FFF741FE3B685B7D002B38
:102F240011D13B681B7D184601F02CFC3B681B68E3
:102F3400002B04D000217868FFF77EFE03E0002117
:102F44007868FFF765FE3B6800221A763B6800222A
:102F54001A613B6800225A603B680022DA603B68D1
:102F640000221A603B6800229A6000BF0837BD4601
:102F740080BD00BF80B582B000AF786039603B6827
:102F84005B69002B38D03B685B68002B23D13B681E
:102F9400DB7F1A4639687868FFF778FF8021786804
:102FA400FFF758FF3B6893F82230002B04D03B68AE
:102FB40021331846FDF71CF93B6800229A833B68CD
:102FC4005B6A002B18D03B685B6A3A68926A1146C8
:102FD4000520984710E03B685B691B7819467868C0
:102FE400FFF78CFE3B685B695A1C3B685A613B687F
:102FF4005B685A1E3B685A6000BF0837BD4680BDF7
:1030040090B583B000AF786039607868FFF7DEFE72
:103014000346002B3AD03B681B68002B24D13B6845
:10302400DB7F1A4639687868FFF730FF80217868BB
:10303400FFF710FF3B6893F82230002B04D03B6865
:1030440021331846FDF7D4F83B6800229A833B6885
:103054005B6A002B00F0B1803B685B6A3A68926A55
:10306400114605209847A8E07868FFF717FE3B68EB
:103074001B68012B03D17868FFF730FE02E0786803
:10308400FFF71CFE7868FFF757FE96E03B681B6865
:10309400012B2DD17868FFF711FE3B681B69194697
:1030A400786800F0B5FB3B689B685A1C3B689A60E3
:1030B4003B68DB7F1A4639687868FFF7E7FE3B68B0
:1030C40093F82230002B04D03B6821331846FDF7D7
:1030D4008FF83B6800229A833B685B6A002B6CD0B4
:1030E4003B685B6A3A68926A11460520984764E037
:1030F4003B681B689A1E3B689B689A4214D978689F
:10310400FFF7DCFD3B681C697868FFF707FE0346A0
:1031140023703B681B695A1C3B681A613B689B68B7
:103124005A1C3B689A6048E03B681B689A1E3B68DF
:103134009B689A4214D17868FFF7D0FD3B681C69FC
:103144007868FFF7EBFD034623703B681B695A1C44
:103154003B681A613B689B685A1C3B689A602CE088
:103164007868FFF7ABFD3B681B691946786800F087
:103174004FFB3B689B685A1C3B689A603B68DB7F4B
:103184001A4639687868FFF781FE3B6893F8223065
:10319400002B04D03B6821331846FDF729F83B681F
:1031A40000229A833B685B6A002B06D03B685B6A0B
:1031B4003A68926A11460520984700BF0C37BD460D
:1031C40090BD00BF80B584B000AF78603960002343
:1031D400FB607868FFF732FEF86040217868FFF7FB
:1031E40039FEFB6803F00403002B11D03B681B6914
:1031F4001B7819467868FFF781FD3B681B695A1CE8
:103204003B681A613B685B685A1E3B685A600AE077
:103214003B681B68002B03D07868FFF74FFD02E082
:103224007868FFF75BFD3B680222DA8200BF103743
:10323400BD4680BD80B582B000AF786039603B6820
:103244005B68002B0FD180217868FFF703FE3B6891
:103254001B6A002B18D03B681B6A3A68526A1146F5
:103264000120984710E03B681B691B781946786871
:10327400FFF744FD3B681B695A1C3B681A613B68B5
:103284005B685A1E3B685A607868FFF7EBFC03469C
:10329400002B0BD03B6840F20122DA8204217868CB
:1032A400FFF7E6FDFF217868FFF728FD00BF083728
:1032B400BD4680BD90B583B000AF78603960786852
:1032C400FFF7DEFC0346002B09D13B681B68002B8B
:1032D40005D03B689A683B681B689A420BD33B68ED
:1032E40040F20222DA8208217868FFF7C1FD78688B
:1032F400FFF714FD13E07868FFF7E0FC3B68DC6837
:103304007868FFF70BFD034623703B68DB685A1CA3
:103314003B68DA603B689B685A1C3B689A6000BF54
:103324000C37BD4690BD00BF80B582B000AF786059
:1033340039603B685B7D002B08D101217868FFF779
:1033440089FD3B681B7D184601F01CFA3B681B7F16
:1033540083F00103DBB2002B0CD039687868FFF7E7
:10336400D3FD3B689B7E002B04D03B681933184681
:10337400FCF73EFF3B681B6A002B06D03B681B6AC8
:103384003A68526A11460420984700BF0837BD4680
:1033940080BD00BF80B588B002AF0346FB71174BF8
:1033A4007B61FB79164A52F823303B610023FB8191
:1033B40001217869FFF740FC3B69187D7B692C3358
:1033C4001A463B69DB6819463B691B680193002375
:1033D40000930B46002101F0D7F80346FB81FB89DB
:1033E400002B01D0FB8905E03B691B7D184601F0E9
:1033F400B1F9FB8918461837BD4680BD00E000408E
:10340400B006FF1F80B588B002AF0346FB711B4BAB
:103414007B61FB791A4A52F823303B610023FB811C
:1034240001217869FFF716FD01217869FFF7CCFBCC
:1034340001217869FFF7ECFB3B69187D3B691B6947
:103444001A467B692C3319463B695B680193002358
:1034540000930B46012101F097F80346FB81FB8999
:10346400002B01D0FB8905E03B691B7D184601F068
:1034740071F9FB8918461837BD4680BD00E000404D
:10348400B006FF1F80B584B000AF0346FB71FB7923
:103494000A4A52F82330FB60FB685B68002B04D0B7
:1034A400FB791846FFF7AEFF03E0FB791846FFF7F8
:1034B40071FF00BF1037BD4680BD00BFB006FF1FBF
:1034C40080B586B000AF0346FB715C4B7B61FB7932
:1034D4005B4A52F823303B610023FB607869FFF7B5
:1034E400ADFCF8607869FFF78DFC0346002B09D02A
:1034F4007869FFF77FFB0346002B03D07869FFF759
:1035040039FC0EE07869FFF78BFC0346002B08D0EA
:103514007869FFF76FFB0346002B02D07869FFF749
:103524003FFCFB6803F08003002B31D03B699B7E9A
:10353400012B0DD13B695B7E002B04D1396978697D
:10354400FFF718FD24E039697869FFF759FD1FE09A
:1035540080217869FFF77EFC3B69DB7F1A46396975
:103564007869FFF793FC3B6993F82230002B04D071
:103574003B6921331846FCF73BFE3B695B6A002B31
:1035840006D03B695B6A3A69926A114605209847FE
:10359400FB6803F01003002B1CD010217869FFF79F
:1035A40059FC3B6993F82230002B04D03B6921334A
:1035B4001846FCF71DFE3B6940F203229A833B69DF
:1035C4005B6A002B06D03B695B6A3A69926A1146D2
:1035D40005209847FB6803F00103002B29D03B69C1
:1035E4005B7E002B03D13B695B68002B1DD000225E
:1035F40039697869FFF74AFC3B6993F82230002B5C
:1036040004D03B6921331846FCF7F2FD3B694FF4C3
:1036140000729A833B695B6A002B06D03B695B6A44
:103624003A69926A11460520984701217869FFF7A3
:1036340011FC00BF1837BD4680BD00BF00E000404C
:10364400AC06FF1F80B586B000AF0346FB71464B46
:103654007B61FB79454A52F823303B610023FB60D0
:103664007869FFF7EBFBF8607869FFF7CBFB03465B
:10367400002B19D07869FFF7BDFA0346002B13D04D
:103684007869FFF777FB3B691B7F002B28D03B69E8
:103694005B7D002B24D101217869FFF7DBFBFB79EB
:1036A4001846FFF7EFFE1BE07869FFF7B9FB034606
:1036B400002B16D07869FFF79DFA0346002B10D033
:1036C4007869FFF76DFB3B69DB8A9BB2022B02D161
:1036D4003B690022DA8239697869FFF725FE00E048
:1036E40000BF3B695B7D012B1FD1FB6803F04003E6
:1036F400002B03D039697869FFF764FDFB6803F098
:103704008003002B2CD07869FFF798FB034603F065
:103714000403002B04D039697869FFF78BFD1FE09F
:1037240039697869FFF7C6FD1AE0FB6803F04003C6
:10373400002B03D040217869FFF78CFBFB6803F072
:103744000103002B03D000217869FFF73DFAFB68E1
:1037540003F08003002B03D080217869FFF77AFB04
:1037640000BF1837BD4680BD00E00040B006FF1F13
:1037740080B584B000AF0346FB710E4BFB60F86864
:10378400FFF732FB0346002B07D1F868FFF756FB1F
:10379400034603F01003002B04D0FB791846FFF70F
:1037A4008FFE03E0FB791846FFF74CFF00BF10378C
:1037B400BD4680BD00E0004080B483B000AF7860B7
:1037C4007B681B6943F010027B681A6100BF0C37E9
:1037D400BD465DF8047B704780B483B000AF786069
:1037E4007B68DB6ADBB218460C37BD465DF8047BA8
:1037F400704700BF80B483B000AF786039607B68E5
:103804003A681A6200BF0C37BD465DF8047B704706
:1038140080B582B000AF786039607868FFF7CCFF7C
:103824007868FFF7D9FF03461A463B681A7080216F
:103834007868FFF7DFFF00BF0837BD4680BD00BFD3
:1038440080B500AF0020FFF793FF00BF80BD00BF2D
:1038540080B485B000AF78607B68D3F8A030FB609B
:10386400FB6818461437BD465DF8047B704700BFFB
:1038740080B483B000AF78607B684FF0FF32C3F848
:10388400A02000BF0C37BD465DF8047B704700BF25
:1038940080B584B000AFF860B9601346FB71FB7962
:1038A4001A46B968F86800F055F800BF1037BD46ED
:1038B40080BD00BF80B586B000AF78600F4A7B68DA
:1038C40052F823307B617B68DB000D4A13443B6173
:1038D4007869FFF7BDFFF8607869FFF7C9FF3B69B6
:1038E4001B68002B06D03B691B683A695268F9686B
:1038F4007868984700BF1837BD4680BDD0AF000038
:10390400B406FF1F80B500AF0020FFF7D3FF00BF50
:1039140080BD00BF80B500AF0120FFF7CBFF00BF23
:1039240080BD00BF80B500AF0220FFF7C3FF00BF1A
:1039340080BD00BF80B500AF0320FFF7BBFF00BF11
:1039440080BD00BF80B500AF0420FFF7B3FF00BF08
:1039540080BD00BF80B487B000AFF860B960134683
:10396400FB71FB68BA6853F822307B61FB79FB7406
:103974007B6923F4E0637B61FB7C1B027A6913435C
:103984007B61FB68BA68796943F8221000BF1C3771
:10399400BD465DF8047B704780B483B000AF7860A7
:1039A400044A7B68D36000BF0C37BD465DF8047BD6
:1039B400704700BF0020004080B400AF054B1B6877
:1039C40003F480439B0BDBB21846BD465DF8047BD1
:1039D400704700BF0020004080B400AF054B1B6857
:1039E40003F400535B0BDBB21846BD465DF8047B61
:1039F400704700BF0020004080B483B000AF03468E
:103A0400FB710749064B1B6923F02002FB795B011C
:103A140013430B6100BF0C37BD465DF8047B704750
:103A24000020004080B483B000AF0346FB71044A19
:103A3400FB79536100BF0C37BD465DF8047B7047CA
:103A44000020004080B483B000AF7860044A7B68F3
:103A5400D36100BF0C37BD465DF8047B704700BFDF
:103A64000020004080B483B000AF7860044A7B68D3
:103A7400136200BF0C37BD465DF8047B704700BF7E
:103A84000020004080B483B000AF7860044A7B68B3
:103A9400936100BF0C37BD465DF8047B704700BFDF
:103AA4000020004080B400AF034B01221A6300BF22
:103AB400BD465DF8047B70470020004080B400AF31
:103AC400054B1B6BDBB203F00103DBB21846BD46AA
:103AD4005DF8047B704700BF0020004080B400AF55
:103AE400044B1B6803F4FE531846BD465DF8047B83
:103AF400704700BF0020004080B400AF054B9B6CB2
:103B0400DBB203F00F03DBB21846BD465DF8047B5D
:103B1400704700BF0020004080B400AF054B1B6815
:103B240003F480731B0ADBB21846BD465DF8047BC0
:103B3400704700BF0020004080B400AF054A054B29
:103B44001B6843F48073136000BFBD465DF8047BBB
:103B5400704700BF0020004080B400AF054B1B68D5
:103B640003F480531B0BDBB21846BD465DF8047B9F
:103B7400704700BF0020004080B400AF054A054BE9
:103B84001B6843F48053136000BFBD465DF8047B9B
:103B9400704700BF0020004080B582B000AF002312
:103BA400FB80FFF709FF03467B7100233B6012E0B3
:103BB4000D48FFF7F1FE0D48FFF7EEFE3B68642B5E
:103BC40002D90323FB8009E0FFF7F6FE03467B716D
:103BD4003B6801333B607B79012BE9D0FB881846B5
:103BE4000837BD4680BD00BF4078AC00674523015F
:103BF40080B500AF0348FFF7CFFE0348FFF7CCFEC4
:103C040000BF80BDBF8753FF98BADCFE80B483B089
:103C140000AF78600B46FB70FB78082B0AD8FB7862
:103C240003F00103DBB2002B04D1FB785A037B6859
:103C3400DA6003E07B684FF40032DA6000BF0C37CF
:103C4400BD465DF8047B704780B584B000AF7860F2
:103C540039600023FB73FFF7AFFE0346012B05D148
:103C64001B48FFF799FE1B48FFF796FE0120FFF75C
:103C7400C3FE7B681A683B681A607B685A683B68B5
:103C84005A607B689A683B689A607B68DA683B682C
:103C94001A617B681A693B689A61FFF72DFF034636
:103CA400FB73FB7B19463868FFF7B0FF3B68DB68A2
:103CB400B3F5003F04D23B684FF480525A6102E0EE
:103CC4003B6800225A6100BF1037BD4680BD00BF6B
:103CD4004078AC006745230180B584B000AF7860BC
:103CE4000023FB810223BB601A4A1A4BD3F80C341D
:103CF40043F00103C2F80C34FFF7D4FE00BFFFF712
:103D0400DDFE0346002B0CD0BB685A1EBA60002BA4
:103D1400F5D106E07B689B69002B02D07B689B6928
:103D24009847FFF759FE0346002BF3D0094A094B85
:103D3400D3F80C3423F00103C2F80C34FFF7CEFEA1
:103D44000346002B01D00123FB81FB891846103761
:103D5400BD4680BD0C0008E080B588B000AFF860B7
:103D6400B9607A600023FB830023BB6100233B61BD
:103D74007B687B61FB689B683B61BA683B699A42DC
:103D84000AD3FB68DA683B691A44BB689A4203D9D0
:103D94004FF40063BB6117E0FB681B683B61BA68C2
:103DA4003B699A420AD3FB685A683B691A44BB6868
:103DB4009A4203D94FF40063BB6105E00123FB83FE
:103DC40000237B610023BB61BB695A1E7B691340DE
:103DD400002B23D00423FB8320E0FFF7FDFD0346E3
:103DE400002B02D10223FB8318E0124A114B1B68FB
:103DF40043F4FE5313600120FFF714FEB868FFF785
:103E040041FEF868FFF768FF0346FB837A69BB69E4
:103E1400D31A7B61BA68BB691344BB607B69002B0E
:103E240002D0FB8B002BD8D0FB8B18462037BD4625
:103E340080BD00BF0020004080B586B000AFF860B0
:103E4400B9607A603B600023FB827B6803F0070360
:103E5400002B02D00423FB826AE0FB681A68FB682B
:103E64005B681A44BB689A425CD8FB689A68BB6872
:103E74009A4207D8FB689A68FB68DB681A44BB68F7
:103E84009A424FD80123FB824CE0FFF7A5FD03467D
:103E9400002B02D10223FB8244E0284A274B1B68F3
:103EA40043F4FE5313601020FFF7BCFDB868FFF71E
:103EB400E9FD3B681B781A463B6801331B781B02FB
:103EC4001A433B6802331B781B041A433B680333D1
:103ED4001B781B0613431846FFF7B4FD3B680433F5
:103EE4001B781A463B6805331B781B021A433B6850
:103EF40006331B781B041A433B6807331B781B06E5
:103F040013431846FFF7AEFDF868FFF7E5FE0346D6
:103F1400FB82BB680833BB607B68083B7B603B6803
:103F240008333B607B68002B02D0FB8A002BACD0AB
:103F3400FB8A18461837BD4680BD00BF00200040EC
:103F440080B584B000AF786039600023FB817B6862
:103F54001A687B685B681A443B689A420ED87B688F
:103F64009A683B689A4207D87B689A687B68DB68E2
:103F74001A443B689A4201D80123FB81FB89002B38
:103F840018D1FFF729FD0346002B02D10223FB8140
:103F940010E00B4A0A4B1B6843F4FE5313600220E3
:103FA400FFF740FD3868FFF76DFD7868FFF794FE72
:103FB4000346FB81FB8918461037BD4680BD00BF10
:103FC4000020004080B584B000AF786039600023E1
:103FD400FB817B681A687B685B681A443B689A4279
:103FE4000ED87B689A683B689A4207D87B689A68BF
:103FF4007B68DB681A443B689A4201D80123FB8141
:10400400FB89002B18D1FFF7E7FC0346002B02D1F4
:104014000223FB8110E00B4A0A4B1B6843F4FE5356
:1040240013602120FFF7FEFC3868FFF72BFD78684A
:10403400FFF752FE0346FB81FB8918461037BD4645
:1040440080BD00BF0020004080B500AF044B1B685A
:10405400002B02D0024B1B68984700BF80BD00BFF5
:10406400DC06FF1F80B500AFFFF756FD03461A4676
:10407400064B1A70FFF760FD054B1B68002B02D03E
:10408400034B1B68984700BF80BD00BFE806FF1FB5
:10409400E006FF1F80B500AFFFF75EFD03461A463A
:1040A400064B1A70FFF768FD054B1B68002B02D006
:1040B400034B1B68984700BF80BD00BFE906FF1F84
:1040C400E406FF1F80B500AFFFF7BEFF00BF80BD51
:1040D40080B500AFFFF7C6FF00BF80BD80B500AF5D
:1040E400FFF7D8FF00BF80BD80B483B000AF786015
:1040F4000B46FB70FA787B681A6000BF0C37BD462C
:104104005DF8047B704700BF80B483B000AF786073
:104114007B681B68DBB218460C37BD465DF8047B30
:10412400704700BF80B584B000AF78600D4BFB6072
:10413400F868FFF7E9FF034623F00803DBB21946EA
:10414400F868FFF7D1FF084A7B6852F82330002B48
:1041540004D0054A7B6852F82330984700BF1037D3
:10416400BD4680BD00B40040EC06FF1F80B500AF23
:104174000020FFF7D7FF00BF80BD00BF80B483B02D
:1041840000AF78607B689B6818460C37BD465DF8C5
:10419400047B704780B483B000AF78607B68DB68D1
:1041A40018460C37BD465DF8047B704780B483B075
:1041B40000AF78607B681B6918460C37BD465DF814
:1041C400047B704780B483B000AF78607B685B6920
:1041D40018460C37BD465DF8047B704780B483B045
:1041E40000AF78607B689B6918460C37BD465DF864
:1041F400047B704780B483B000AF78607B68DB6970
:1042040018460C37BD465DF8047B704780B58AB00C
:1042140000AF00233B62304BFB61F869FFF7D2FF2C
:10422400B861F869FFF7AAFF0246BB6913407B61D6
:10423400F869FFF7D3FFB861F869FFF7ABFF0246EF
:10424400BB6913403B61F869FFF7D4FFB861F869B3
:10425400FFF7ACFF0246BB691340FB601F4A3B6A91
:1042640052F823300433BB600023FB842CE0FB8C26
:104274009B00BA6813441B687B607B68002B20D0CA
:104284007B681B68002B1CD07B681B7A1A460123B1
:104294009340013B7A68527A93403B607A693B6869
:1042A4001340002B09D13A693B681340002B04D119
:1042B400FA683B681340002B03D07B681B6878685E
:1042C4009847FB8C0133FB84FB8C032BCFD900BFB5
:1042D4002837BD4680BD00BF00A00040F006FF1F88
:1042E40080B483B000AF78600B46FB707B685B6A78
:1042F40023F00102FB781A437B685A6200BF0C3733
:10430400BD465DF8047B704780B483B000AF78602D
:104314007B689B6843F002027B689A607B689B68B9
:1043240023F002027B689A6000BF0C37BD465DF83B
:10433400047B704780B483B000AF786039607B68D9
:104344003A689A6100BF0C37BD465DF8047B70473C
:1043540080B483B000AF786039607B683A68DA6112
:1043640000BF0C37BD465DF8047B704780B483B052
:1043740000AF786039607B683A681A6200BF0C3716
:10438400BD465DF8047B704780B483B000AF7860AD
:1043940039607B683A681A6300BF0C37BD465DF824
:1043A400047B704780B483B000AF78600B46FB7029
:1043B4007B681B6923F00C02FB789B001A437B6823
:1043C4001A6100BF0C37BD465DF8047B704700BF1F
:1043D40080B483B000AF78600B46FB707B681B69C8
:1043E40023F03002FB781B011A437B681A6100BF7B
:1043F4000C37BD465DF8047B704700BF80B483B0C2
:1044040000AF78600B467B807B685B6B1B0C1B04E6
:104414007A881A437B685A6300BF0C37BD465DF83F
:10442400047B704780B483B000AF78600B467B8018
:104434007B685B6B9AB27B881B041A437B685A6364
:1044440000BF0C37BD465DF8047B704780B483B071
:1044540000AF78600B467B807B685B691B0C1B0498
:104464007A881A437B685A6100BF0C37BD465DF8F1
:10447400047B704780B483B000AF78600B46FB7058
:104484007B681B6923F08002FB78DB011A437B689D
:104494001A6100BF0C37BD465DF8047B704700BF4E
:1044A40080B483B000AF78600B46FB707B685B68B8
:1044B40023F00102FB781A437B685A6000BF0C3773
:1044C400BD465DF8047B704780B586B000AF0346F7
:1044D400FB71FB79FB7500233B61FB7D064A52F8B7
:1044E4002330FB60F86800F065F938613B691846D1
:1044F4001837BD4680BD00BFE4AF000080B586B06C
:1045040000AF0346FB7100237B611D4B1B68FA79E6
:1045140053F822303B61FB79FB73FB7B194A52F859
:104524002330BB60FB791846FFF7CEFF78617B69C7
:1045340003F0FC03002B0FD07B6903F00803002B6E
:1045440004D17B6903F00403002B02D0B868FFF7A1
:10455400DBFE3B6901221A733B69002B0CD03B69DB
:104564005B68002B08D03B695B683A6990683A69DC
:10457400127BD2B21146984700BF1837BD4680BDA2
:10458400F406FF1FE4AF000080B58AB000AFBA6044
:104594007B600346FB730B46BB73FB7B87F82530BC
:1045A40097F82530684A52F823303B620023FB61B8
:1045B4000023BB610023FB8497F83030012202FA08
:1045C40003F3FB82FA8A7B6BB3FBF2F102FB01F289
:1045D4009B1A002B01D00123FB84BB7B002B0AD147
:1045E4007B68B3F1005F29D27B68584A934225D98E
:1045F4000423FB8422E0BB7B012B0AD1BB68B3F10B
:10460400005F1BD2BB68514A934217D90423FB8431
:1046140014E0BB7B022B11D1BB68B3F1005F03D262
:10462400BB684A4A934207D87B68B3F1005F05D25E
:104634007B68464A934201D90423FB84FB8C002BFC
:104644007CD1BA687B6B1344FB617A687B6B13443F
:10465400BB61B968386AFFF76DFEF969386AFFF71C
:1046640077FE7968386AFFF781FEB969386AFFF71F
:104674008BFE97F830301946386AFFF793FE97F8A7
:1046840030301946386AFFF7A3FEBB7B032B43D8AF
:1046940001A252F823F000BFAD460000C946000055
:1046A400E5460000034700000021386AFFF7A6FE34
:1046B400FB8A1946386AFFF7B5FE0021386AFFF70E
:1046C400D9FE2AE0FB8A1946386AFFF797FE0021D3
:1046D400386AFFF7A7FE0021386AFFF7CBFE1CE01B
:1046E400FB8A1946386AFFF789FEFB8A1946386A3D
:1046F400FFF798FE0121386AFFF7BCFE0DE00021A8
:10470400386AFFF77BFE0021386AFFF78BFE002131
:10471400386AFFF7AFFE00E000BF7B6B9BB219461F
:10472400386AFFF793FE0121386AFFF7B9FE084B98
:104734001B68FA7B53F8223000221A73FB8C18464C
:104744002837BD4680BD00BFE4AF0000FFFFFE1F59
:10475400F406FF1F80B584B000AF0346FB71FB79FC
:10476400FB73FB7B064A52F82330BB600121B86817
:10477400FFF7B6FD002318461037BD4680BD00BFC5
:10478400E4AF000080B584B000AF0346FB71FB7951
:10479400FB73FB7B064A52F82330BB600021B868E8
:1047A400FFF79EFD002318461037BD4680BD00BFAD
:1047B400E4AF000080B485B000AF78607B681B680C
:1047C400FB60FB68DA437B681A60FB6818461437A1
:1047D400BD465DF8047B704780B500AF0020FFF74D
:1047E4008DFE00BF80BD00BF80B500AF0120FFF784
:1047F40085FE00BF80BD00BF80B500AF0220FFF77B
:104804007DFE00BF80BD00BF80B500AF0320FFF771
:1048140075FE00BF80BD00BF80B500AF0420FFF768
:104824006DFE00BF80BD00BF80B500AF0520FFF75F
:1048340065FE00BF80BD00BF80B500AF0620FFF756
:104844005DFE00BF80BD00BF80B500AF0720FFF74D
:1048540055FE00BF80BD00BF80B500AF0820FFF744
:104864004DFE00BF80BD00BF80B500AF0920FFF73B
:1048740045FE00BF80BD00BF80B500AF0A20FFF732
:104884003DFE00BF80BD00BF80B500AF0B20FFF729
:1048940035FE00BF80BD00BF80B500AF0C20FFF720
:1048A4002DFE00BF80BD00BF80B500AF0D20FFF717
:1048B40025FE00BF80BD00BF80B500AF0E20FFF70E
:1048C4001DFE00BF80BD00BF80B500AF0F20FFF705
:1048D40015FE00BF80BD00BF80B483B000AF0346A7
:1048E400FB710749064B1B6923F00802FB79DB00C7
:1048F40013430B6100BF0C37BD465DF8047B704762
:104904000020004090B482B000AF0446084611462F
:104914001A462346FB710346BB710B467B71134653
:104924003B710A493B791A067B791B0403F47F0324
:104934001A43BB791B029BB21A43FB7913430B60E6
:1049440000BF0837BD4690BC704700BF001000147C
:1049540080B582B000AF042000F0B8FC0346BB80F1
:104964000123FB80BB88202B35D0202B0DDC022BB0
:1049740021D0022B02DC002B45DB19E0082B22D0CE
:10498400102B24D0042B1AD03DE0802B2BD0802B6D
:1049940004DC212B0CD0402B21D034E0B3F5007F74
:1049A40029D0B3F5806F2AD0B3F5807F1FD02AE0D9
:1049B4000023FB802AE040F20243FB8026E040F221
:1049C4000343FB8022E040F20443FB801EE040F2FC
:1049D4000543FB801AE040F20643FB8016E040F2F8
:1049E4000743FB8012E04FF48163FB800EE040F24A
:1049F4000943FB800AE040F20A43FB8006E040F2F0
:104A04000C43FB8002E00123FB8000BFFB881846B7
:104A14000837BD4680BD00BF80B400AF054B9B681E
:104A240003F480731B0ADBB21846BD465DF8047BB1
:104A3400704700BF0020004080B400AF054A054B1A
:104A44009B6843F48073936000BFBD465DF8047BAC
:104A5400704700BF0020004080B483B000AF78608E
:104A640039603A687B6813445A1E3B685B421340C2
:104A740018460C37BD465DF8047B704780B582B09C
:104A840000AFFFF7C9FF0346FB71FFF7D5FFFB79C2
:104A9400002B42D0234B1B681B78002B3DD0214BAD
:104AA4001B685B78013B052B1AD801A252F823F04E
:104AB400CD4A0000D34A0000CD4A0000D34A00008A
:104AC400D94A0000DF4A000000F084F909E000F050
:104AD400BFF906E000F016FA03E000F055FA00E032
:104AE40000BF104B1B681B7883F00103DBB2002B63
:104AF40013D00020FFF7F0FE0A4B1B689B6B002BC2
:104B04000BD0084B1B689B6B064A12685278104600
:104B1400044A1268D26B1146984700BF0837BD4655
:104B240080BD00BFF806FF1F80B582B000AF1D4BEB
:104B34001B681A691B4B1B68DB68D31A1B097B6053
:104B44007B68072B02D87B689BB200E007237B803D
:104B54007B88DBB21B017B70124B1B685A68114BBC
:104B64001B68DB6813447A781946102000F062FA57
:104B74007B8819460E2000F0ADFA0A4B1B687A7840
:104B84005A61084B1B685878064B1B6893F8202021
:104B9400044B1B681B7E0021FFF7B4FE00BF0837DF
:104BA400BD4680BDF806FF1F80B584B000AF334B0F
:104BB4001B681A69314B1B68DB68D31A1B09BB607D
:104BC400BB68072B02D8BB689BB200E00723FB80BD
:104BD400FB88DBB21B01FB73284B1B6893F8203066
:104BE400002B20D1BB68062B02D8BB689BB200E027
:104BF4000623FB80FB88DBB21B01FB731F4B1B6886
:104C0400DB6910221946102000F014FA1B4B1B68B4
:104C14005A681A4B1B68DB681344FA7B1946202038
:104C240000F008FA0BE0154B1B685A68134B1B681D
:104C3400DB681344FA7B1946102000F0FBF90F4B94
:104C44001B681B691B099BB219460E2000F042FA2F
:104C54000A4B1B68FA7B5A61084B1B685878074B50
:104C64001B6893F82020054B1B681B7E0021FFF76F
:104C740049FE00BF1037BD4680BD00BFF806FF1FC8
:104C840080B582B000AF1F4B1B681A691D4B1B68AF
:104C9400DB68D31A702B0AD81A4B1B681B69DAB26B
:104CA400184B1B68DB68DBB2D31ADBB200E070235D
:104CB400FB71144B1B685A68124B1B68DB68134466
:104CC400FA791946102000F0B5F90E4B1B6824330D
:104CD400012219460C2000F07BFA0A4B1B68FA7972
:104CE4005A61084B1B685878064B1B6893F82020C0
:104CF400044B1B681B7E0021FFF704FE00BF08372E
:104D0400BD4680BDF806FF1F80B582B000AF304BB2
:104D14001B681A692E4B1B68DB68D31A702B0AD8E0
:104D24002B4B1B681B69DAB2294B1B68DB68DBB2AF
:104D3400D31ADBB200E07023FB71FB791021184613
:104D4400FFF78AFE0346BB71214B1B685A68204B50
:104D54001B68DB681344FA791946102000F06AF9DD
:104D64001B4B1B682433012219460C2000F030FA37
:104D7400174B1B685B6B9BB21946082000F0AAF91D
:104D8400BB7910336F2B0ED8BB791033D8B2104BCC
:104D94001B681B6B1022194600F04CF90C4B1B6866
:104DA400012283F82C200A4B1B68FA795A61084BBC
:104DB4001B685878064B1B6893F82020044B1B682B
:104DC4001B7E0021FFF79EFD00BF0837BD4680BD56
:104DD400F806FF1F98B500AF1C4B1C68FFF7B8FD21
:104DE40003466383194B1B685B8B002B04D0174B62
:104DF4001B6800221A7028E0144B1B689A68134B36
:104E04001B68DB68D118114B1B685B69DBB21A465F
:104E1400102000F005FA0D4B1B680C4A1268D2688A
:104E24000A4909684969C9B20A44DA60074B1B6830
:104E3400DA68064B1B681B699A4204D3034B1B6850
:104E440000221A7001E0FFF76FFE98BDF806FF1FFD
:104E540098B500AF2A4B1C68FFF77AFD03466383BD
:104E6400274B1B685B8B002B04D0254B1B6800224F
:104E74001A7043E0224B1B6893F82030002B14D1A6
:104E84001F4B1B689A681E4B1B68DB68D1181C4BB0
:104E94001B685B69DBB21A46202000F0C1F9184B8D
:104EA4001B68012283F820200EE0154B1B689A68CA
:104EB400134B1B68DB68D118114B1B685B69DBB2B1
:104EC4001A46102000F0ACF90D4B1B680C4A12680E
:104ED400D2680B4909684969C9B20A44DA60084BC7
:104EE4001B68DA68064B1B681B699A4204D3044B9F
:104EF4001B6800221A7001E0FFF756FE98BD00BF40
:104F0400F806FF1F98B500AF1E4B1C68FFF720FD85
:104F1400034663831B4B1B685B8B002B04D0194B2C
:104F24001B6800221A702CE0164B1B6893F8203083
:104F3400002B04D1134B1B68012283F82020114B52
:104F44001B68104A1268D2680E4909684969C9B2D7
:104F54000A44DA600B4B1B68DA680A4B1B681B694E
:104F64009A420CD3074B1B6800221A70054B1B682E
:104F74009B6810221946202000F052F901E0FFF747
:104F84007FFE98BDF806FF1F98B500AF284B1C683C
:104F9400FFF7DEFC03466383254B1B685B8B002B0A
:104FA40004D0234B1B6800221A703FE0204B1B687F
:104FB40093F82030002B04D11D4B1B68012283F889
:104FC40020201B4B1B681A4A1268D26818490968CA
:104FD4004969C9B20A44DA60154B1B68144A12685D
:104FE40092F82C20002A14BF01220022D2B282F0AF
:104FF4000102D2B202F00102D2B21A700C4B1B6849
:105004001B7883F00103DBB2002B0DD0084B1B6827
:105014009C6A142000F05AF90346002B0CBF0123AC
:105024000023DBB2237001E0FFF76EFE98BD00BFE2
:10503400F806FF1F90B585B000AF03463960FB71D9
:105044001346BB710023FB7325E0214CFA79FB7BEB
:1050540013449B10FA7B033239680A441278110610
:10506400FA7B0232386802441278120402F47F0296
:105074001143FA7B0132386802441278120292B268
:105084000A43F97B3868014409780A4344F8232029
:10509400FB7B0433FB73FB7BDA1CBB799A42D4D3CE
:1050A4000DE0FA79FB7B1344D8B2FB7B3A681344D6
:1050B4001B78194600F046F8FB7B0133FB73FA7B3F
:1050C400BB799A42EDD300BF1437BD4690BD00BFF3
:1050D4000010001480B485B000AF03460A46FB718B
:1050E4001346BB800023FB60154AFB799B08DBB2A7
:1050F40052F82330FB60FB7903F00203002B08D045
:10510400FB681B0C1B04FB60BB88FA681343FB6041
:1051140007E0FB689BB2FB60BB881B04FA6813437F
:10512400FB60074AFB799B08DBB21946FB6842F82F
:10513400213000BF1437BD465DF8047B704700BFC3
:105144000010001480B483B000AF03460A46FB711C
:105154001346BB71FB7903F00303032B2ED801A282
:1051640052F823F0795100008B5100009D5100004A
:10517400AF510000154AFB799B08DBB29B00134436
:10518400BA79DA701BE0114AFB799B08DBB29B0009
:105194001344BA799A7012E00C4AFB799B08DBB28B
:1051A4009B001344BA795A7009E0084AFB799B08BA
:1051B400DBB21946BB7902F8213000E000BF00BF22
:1051C4000C37BD465DF8047B704700BF0010001427
:1051D40080B485B000AF03463960FB711346BB71E0
:1051E4000023FB73FB799B08BB730DE00B48BA7B70
:1051F400FB7B1344FA7B920039680A44126840F836
:105204002320FB7B0133FB73FA7BBB799A42EDD3FA
:1052140000BF1437BD465DF8047B704700100014CE
:1052240090B585B000AF03463960FB711346BB717E
:105234000023FB730023BB6028E02349FA79FB7B3E
:1052440013449B1051F82330BB60FB7B03333A6853
:105254001344BA68120ED2B21A70FB7B02333A6856
:105264001344BA68120CD2B21A70FB7B01333A6849
:105274001344BA68120AD2B21A70FB7B3A68134418
:10528400BA68D2B21A70FB7B0433FB73FB7BDA1C63
:10529400BB799A42D1D30EE0FB7B3A68D418FA79F1
:1052A400FB7B1344DBB2184600F038F80346237046
:1052B400FB7B0133FB73FA7BBB799A42ECD300BFCF
:1052C4001437BD4690BD00BF0010001480B485B0F3
:1052D40000AF0346FB710023FB81FB7903F002035B
:1052E400002B0AD00C4AFB799B08DBB252F823301E
:1052F4001B0C1B041B0CFB8106E0074AFB799B0873
:10530400DBB252F82330FB81FB8918461437BD46C3
:105314005DF8047B704700BF0010001480B485B0B2
:1053240000AF0346FB710023FB73FB7903F0030317
:10533400032B2ED801A252F823F000BF51530000D2
:10534400635300007553000087530000154AFB792E
:105354009B08DBB29B001344DB78FB731AE0114A11
:10536400FB799B08DBB29B0013449B78FB7311E031
:105374000C4AFB799B08DBB29B0013445B78FB73FC
:1053840008E0084AFB799B08DBB212F82330FB7370
:1053940000E000BFFB7B18461437BD465DF8047B74
:1053A400704700BF0010001480B483B000AF034600
:1053B400FB7197F90730002B0BDB094997F907308C
:1053C4005B09FA7902F01F02012000FA02F241F8A7
:1053D400232000BF0C37BD465DF8047B704700BF37
:1053E40000E100E080B485B000AFF860B9607A6095
:1053F4003B60FB681B6823F07072BB689B051A4313
:10540400FB681A60FB681B6823F470227B681B042A
:105414001A43FB681A60FB681B6823F0F0023B68C0
:105424001B011A43FB681A6000BF1437BD465DF8C0
:10543400047B704780B485B000AFF860B9607A60CF
:105444003B60FB681B6823F07052BB689B061A43E1
:10545400FB681A60FB681B6823F470427B681B03BB
:105464001A43FB681A60FB681B6823F00F023B6851
:105474001A43FB681A6000BF1437BD465DF8047B0D
:10548400704700BF80B485B000AFF860B9607A603F
:10549400FB68DB6A23F47C62BB689B011A43FB68EC
:1054A400DA62FB681B6B23F47C627B689B011A4302
:1054B400FB681A6300BF1437BD465DF8047B704770
:1054C40080B485B000AFF860B9607A60FB68DB6ACD
:1054D40023F47C32BB681B031A43FB68DA62FB6863
:1054E4001B6B23F47C327B681B031A43FB681A632F
:1054F40000BF1437BD465DF8047B704780B483B0A9
:1055040000AF78600B46FB707B681B6823F40012C5
:10551400FB785B051A437B681A6000BF0C37BD46F5
:105524005DF8047B704700BF80B485B000AFF860BD
:10553400B9607A60FB68DB6A23F47C02BB689B0475
:105544001A43FB68DA62FB681B6B23F47C027B68FA
:105554009B041A43FB681A6300BF1437BD465DF809
:10556400047B704780B485B000AFF860B9607A609E
:10557400FB68DB6A23F03F02BB681A43FB68DA620C
:10558400FB681B6B23F03F027B681A43FB681A63BA
:1055940000BF1437BD465DF8047B704780B483B008
:1055A40000AF786039607B681B6823F480123B6825
:1055B4001B051A437B681A6000BF0C37BD465DF8B3
:1055C400047B704780B483B000AF78607B681B684D
:1055D40003F480131B0D18460C37BD465DF8047B9D
:1055E400704700BF80B483B000AF0346FB714FF037
:1055F40080414FF080431B6823F00042FB79DB07B6
:1056040013430B6000BF0C37BD465DF8047B704745
:1056140080B483B000AF7860084611461A4603464A
:10562400FB700B46BB7013467B707B68D3F8C030AD
:1056340023F07852FB785B061A437B68C3F8C020DA
:105644007B68D3F8C03023F4FF02BB78DB031A4332
:105654007B68C3F8C0207B68D3F8C03023F0404295
:105664007B789B071A437B68C3F8C0200B4A0B4B1B
:10567400D3F8C43043F4E073C2F8C430074A074B8C
:10568400D3F8C43023F00E0343F00603C2F8C43049
:1056940000BF0C37BD465DF8047B704700880040AE
:1056A40080B485B000AFF860B9607A603B60FB6895
:1056B400D3F8C03003F078535B0EDAB2BB681A70CB
:1056C400FB68D3F8C03003F4FF03DB0BDAB27B686A
:1056D4001A70FB68D3F8C03003F040439B0FDAB272
:1056E4003B681A7000BF1437BD465DF8047B7047F1
:1056F40080B483B000AF786039607B689B6C23F41E
:10570400E0623B681B021A437B689A6400BF0C3753
:10571400BD465DF8047B704780B483B000AF786009
:105724000B46FB707B689B6C23F40062FB78DB0206
:105734001A437B689A6400BF0C37BD465DF8047B4E
:10574400704700BF80B483B000AF0346FB710749C4
:10575400064B5B6823F08052FB791B0713434B60B5
:1057640000BF0C37BD465DF8047B704700800040E5
:1057740080B483B000AF0346FB710749064B5B68F6
:1057840023F40072FB795B0213434B6000BF0C37B8
:10579400BD465DF8047B70470080004080B483B050
:1057A40000AF0346FB710749064B5B6823F4807224
:1057B400FB791B0213434B6000BF0C37BD465DF8F9
:1057C400047B70470080004080B400AF074B5B68E7
:1057D40003F080731B0E002B14BF01230023DBB2E4
:1057E4001846BD465DF8047B704700BF008000404A
:1057F40080B483B000AF0346FB710749064B5B6876
:1058040023F48062FB799B0213434B6000BF0C3787
:10581400BD465DF8047B70470080004080B400AF53
:10582400074B5B6803F000735B0E002B14BF01236E
:105834000023DBB21846BD465DF8047B704700BF09
:105844000080004080B483B000AF0346FB71074979
:10585400064B5B6823F00052FB795B0713434B60F4
:1058640000BF0C37BD465DF8047B704700800040E4
:1058740080B400AF074B5B6803F080639B0E002B82
:1058840014BF01230023DBB21846BD465DF8047B38
:10589400704700BF0080004080B483B000AF03466F
:1058A400FB710749064B5B6823F00062FB79DB065A
:1058B40013434B6000BF0C37BD465DF8047B704753
:1058C4000080004080B400AF074B5B6803F4000322
:1058D400DB0D002B14BF01230023DBB21846BD46A9
:1058E4005DF8047B704700BF0080004080B485B041
:1058F40000AF03460A46FB711346BB71FB79FB609C
:10590400FB681F2B1BD8BB79002B0BD04FF08041B9
:105914004FF080439A680120FB6800FA03F31343B5
:105924008B604FE04FF080414FF080439A68012034
:10593400FB6800FA03F3DB4313408B6042E0FB682F
:105944003F2B1ED8FB68203BFB60BB79002B0BD0A0
:105954004FF080414FF08043DA680120FB6800FA81
:1059640003F31343CB602DE04FF080414FF08043AD
:10597400DA680120FB6800FA03F3DB431340CB60D1
:1059840020E0FB68532B1DD8FB68403BFB60BB79D0
:10599400002B0BD04FF080414FF080431A69012057
:1059A400FB6800FA03F313430B610BE04FF08041F3
:1059B4004FF080431A690120FB6800FA03F3DB43CC
:1059C40013400B6100BF1437BD465DF8047B70477C
:1059D40080B485B000AF03460A46FB711346BB7121
:1059E400FB79FB60FB681F2B1BD8BB79002B0BD00A
:1059F4004FF080414FF080431A6A0120FB6800FA9F
:105A040003F313430B624FE04FF080414FF08043A8
:105A14001A6A0120FB6800FA03F3DB4313400B62AC
:105A240042E0FB683F2B1ED8FB68203BFB60BB7940
:105A3400002B0BD04FF080414FF080435A6A012075
:105A4400FB6800FA03F313434B622DE04FF08041EF
:105A54004FF080435A6A0120FB6800FA03F3DB43EA
:105A640013404B6220E0FB684E2B1DD8FB68403B83
:105A7400FB60BB79002B0BD04FF080414FF080438B
:105A84009A6A0120FB6800FA03F313438B620BE06C
:105A94004FF080414FF080439A6A0120FB6800FA7E
:105AA40003F3DB4313408B6200BF1437BD465DF83C
:105AB400047B704780B586B000AF64233B6100F07F
:105AC40003FF03465B08FB606C4B01221A604FF036
:105AD40080431B6BBB604FF080424FF080431B6BD5
