:020000040800F2
:10000000A0360020F1170008996000085D1800086C
:1000100000000000000000000000000000000000E0
:100020000000000000000000000000005D18000853
:100030000000000000000000B1060008F5060008FE
:100040005D1800085D1800085D1800085D180008BC
:100050005D180008016300081163000821630008AF
:10006000316300085D1800085D1800085D1800087D
:100070005D180008C95A0008ED5A0008115B000815
:10008000355B00088562000895620008A5620008DB
:10009000B56200085D1800086D6000084160000846
:1000A000B95200085D1800085D180008255E0008B8
:1000B0004D5E0008755E00089D5E0008F15E000858
:1000C00010B5064C2378002B07D1054B002B02D02E
:1000D000044800E000BF0123237010BDD8040020B5
:1000E0000000000020680008084B10B5002B03D06A
:1000F0000749084800E000BF07480368002B00D10B
:1001000010BD064B002BFBD09847F9E7000000001C
:10011000DC04002020680008D80400200000000053
:10012000002243088B4274D303098B425FD3030A36
:100130008B4244D3030B8B4228D3030C8B420DD349
:10014000FF22090212BA030C8B4202D312120902D7
:1001500065D0030B8B4219D300E0090AC30B8B4215
:1001600001D3CB03C01A5241830B8B4201D38B03C3
:10017000C01A5241430B8B4201D34B03C01A524168
:10018000030B8B4201D30B03C01A5241C30A8B42AB
:1001900001D3CB02C01A5241830A8B4201D38B0296
:1001A000C01A5241430A8B4201D34B02C01A52413A
:1001B000030A8B4201D30B02C01A5241CDD2C309AC
:1001C0008B4201D3CB01C01A524183098B4201D328
:1001D0008B01C01A524143098B4201D34B01C01A13
:1001E000524103098B4201D30B01C01A5241C3088B
:1001F0008B4201D3CB00C01A524183088B4201D3FA
:100200008B00C01A524143088B4201D34B00C01AE5
:100210005241411A00D20146524110467047FFE751
:1002200001B5002000F006F802BDC0460029F7D055
:1002300076E770477047C04610B500F0F7FF01F051
:10024000F3F804F099FA04F07BFB01F011FC04F0E0
:10025000C1FF00F067F8FEE710B582B000F0FEF9CC
:10026000124B01930223009300238022104911486E
:1002700000F0BAFB104B019301240094002380226C
:1002800052000E490E4800F0AFFB0E4B0193009454
:10029000002380220C490D4800F0A6FB002000F04E
:1002A00099FC00F0E7F902B010BDC046F40400204C
:1002B00008650008D1020008F8040020286500083D
:1002C000F5020008FC040020406500080D0300084A
:1002D00010B582B000F00EFD0190054C236801338B
:1002E000236004F0E1FC032101A800F095FEF5E78E
:1002F0007832002000B583B000F0FCFC019003F0E0
:10030000C3FF052101A800F087FEF8E700B583B020
:1003100000F0F0FC019004F081F90A2101A800F03E
:100320007BFEF8E700B583B000230193013300930F
:10033000002340220449054800F056FB012801D162
:1003400000F09EFCFEE7C0465C650008590200080C
:100350000822002809D10AE0C046013BDBB2002B8D
:10036000FAD1013880B2002801D01300F4E77047B9
:1003700010B5124B00E013001A688242FBD3596893
:100380005C18A04203D140684118596018004468C5
:1003900001198A420CD10A4A1268914206D04A6871
:1003A000141944601A681268026002E0016000E0FB
:1003B0000260984200D0186010BDC0460C050020B5
:1003C0000805002070B5040000F08CFC3C4B1B6855
:1003D000002B20D13B4A530708D0D11D0723994356
:1003E000A0239B01D3185B1A0A0001E0A0239B0104
:1003F0003548026000214160D318083B0720834341
:100400002F48036059601960991A516013602F4B8F
:1004100019602F4B1960002C4CD0072323401A0081
:1004200010239B1ADA43944244D8E318002B3DDD95
:10043000274A1668B34239D8234A146801E02200DB
:100440000C0061688B4202D921680029F7D11C4950
:1004500009688C422AD01568216811606268D21A36
:10046000102A08D9E018410701D072B6FEE74260B1
:100470006360FFF77DFF6268B31A15490B6013498B
:1004800009688B4201D211490B60083580231B0695
:100490001A436260002323600E4A1368013313601D
:1004A00000F01CFD6B0708D072B6FEE700F016FDE9
:1004B000002502E000F012FD0025280070BDC046B6
:1004C00008050020180500200C050020182D00202C
:1004D000040500200005002010B5002823D00300EB
:1004E000083B5B68002B01DB72B6FEE70200083AAE
:1004F0001268002A01D072B6FEE7083804005B00DB
:100500005B08436000F0EEFB074A636811688C46A5
:10051000634413602000FFF72BFF044A1368013384
:10052000136000F0DBFC10BD040500201405002062
:10053000030008334360012252428260C3600361BA
:10054000002303607047C046002303617047C04624
:1005500043684B609A688A609A6851609960086144
:10056000036801330360704730B50C68020008323D
:10057000631C02D1026904E01A0053681D68AC4292
:10058000FAD253684B6099608A60516008610368D1
:100590000133036030BDC0460369426881689160E1
:1005A0008268416851605A68904201D182685A60FD
:1005B000002202611A68013A1A6018687047C04642
:1005C00082B000230193064B1B68013301D072B641
:1005D000FEE772B6019B002BFCD002B07047C0460C
:1005E00000000020000000000000000000000000EB
:1005F0000B4A13681868203080F30988022080F3C2
:100600001488BFF36F8F3FBCAE4608BC04BC62B613
:100610001847C046C046C046C046C046C046C04651
:10062000CC2D002010B5031F802464041C60043B03
:100630001960043B02491960143B1A60403810BD30
:10064000C105000880225205034B1A60BFF34F8F8B
:10065000BFF36F8F7047C04604ED00E072B6044AE6
:10066000136801331360BFF34F8FBFF36F8F704771
:1006700000000020064B1B68002B01D172B6FEE77C
:10068000013B034A1360002B00D162B67047C0469D
:1006900000000020EFF3108072B6704780F31088DE
:1006A0007047C0460000000000000000000000008D
:1006B000EFF309800E4B1A6820381060F0C04446F2
:1006C0004D4656465F46F0C008B572B600F030FDA4
:1006D00062B60CBC116808681030F0C8A046A94684
:1006E000B246BB4680F309882038F0C81847C04698
:1006F000CC2D002010B5FFF7CDFF040000F032FB39
:10070000002803D080225205024B1A602000FFF718
:10071000C5FF10BD04ED00E070B5144D2C68FA2142
:1007200089002000FFF7FCFC0100114B1860114804
:10073000FFF7F6FC104B186021002000FFF7F0FCDB
:1007400001005E20FFF7ECFC0C4B18600C4C002302
:1007500023600C4A13602868FA218900FFF7E0FC47
:100760000138094B18600723236070BD0800002082
:100770001C2D0020FFFFFF00242D0020202D002035
:1007800010E000E018E000E014E000E010B50C4BD1
:100790001A68FF2109040A431A601A68FF21090632
:1007A0000A431A60FFF7B8FF0022064B1A60FFF7F2
:1007B0001FFF00F0BDFCFFF703FF002010BDC04687
:1007C00020ED00E00000002070B504003F4B1D68E4
:1007D00072B6BFF34F8FBFF36F8F00F0F7FC0028A6
:1007E00001D162B670E00622394B1A60394B1968A4
:1007F000002901D1384B19682B00A54200D92300EC
:10080000581E354A12684243521834490968490152
:1008100006D58024A40431490C602F490968521A76
:100820002F4909688A4200D9521A2E490A600024C9
:1008300028490C60264C2568012129432160002BA2
:1008400004D0BFF34F8F30BFBFF36F8F62B6BFF3DB
:100850004F8FBFF36F8F72B6BFF34F8FBFF36F8FA2
:100860001B4906240C600968C90310D51A4B196886
:10087000184B1B68CB18013B9A1A194B1B689A42FC
:1008800001D9914200D24A1E164B1A600EE0114A5D
:100890001468114A15686B431C1B29002000FFF7E0
:1008A0003FFC431C5D432C1B0E4B1C600022094B7C
:1008B0001A600732064B1A60074B1B68013B094A56
:1008C000136000F01DFA62B670BDC046242D0020F2
:1008D00010E000E018E000E01C2D002004ED00E036
:1008E000202D002014E000E0094B1A68094B1B681A
:1008F000DB6A0020002B0AD1074B1B68012B06D8AE
:10090000002A04D1054B1B68054A1068181A704765
:10091000242E0020CC2D0020502D0020D02D002092
:10092000D82D0020084B1B681B68002B04D1012226
:100930005242064B1A6005E0034B1B68DB681A68DD
:10094000024B1A607047C0462C2D0020D02D00208D
:1009500070B504000D001E4B1E681E4B1868043055
:10096000FFF71AFE631C16D1002D14D01A4A5168E5
:10097000184B1868816018688C68C4608C681868A7
:10098000043060601868043088601B685A6113681E
:10099000013313601AE034190E4B1B685C60A642E9
:1009A00007D90E4B18680B4B19680431FFF7DCFDB3
:1009B0000CE00B4B1868074B19680431FFF7D4FDA6
:1009C000084B1B689C4201D2064B1C6070BDC046A0
:1009D000D82D0020CC2D0020102E0020DC2D002052
:1009E0002C2D0020D02D0020F0B5474680B482B0D9
:1009F00000900E00019395002800FFF7E3FC041E11
:100A000000D1C7E05820FFF7DDFC071E0ED05822AA
:100A1000002105F09BFC3C632A00A521200005F085
:100A200095FC3B6B9846002E04D11EE02000FFF79A
:100A300053FDAFE00022B2563423FA540023F3569C
:100A4000002B0FD0731C3A00353239003E310020A4
:100A50001856107000201856002803D001330132B8
:100A60008A42F4D100223D23FA54089B042B01D979
:100A700072B6FEE7089E042E00D90426FE62BE640C
:100A80003C1D2000FFF760FD38001830FFF75CFDCB
:100A90003F6105239B1BBB617F62281F40440723E6
:100AA0009843019A0099FFF7BDFD3860099B002B20
:100AB00000D01F60FFF7D2FD394A1368013313607D
:100AC000384B1B68002B23D1364B1F601368012B5A
:100AD0002AD1354D2E0064362800FFF729FD143544
:100AE000AE42F9D1314E3000FFF722FD304D2800E3
:100AF000FFF71EFD2F48FFF71BFD2F48FFF718FDDE
:100B00002E48FFF715FD2E4B1E602E4B1D600BE08F
:100B10002D4B1B68002B07D1224B1B68DB6AFA6A3E
:100B2000934201D81F4B1F60284A1368013313609A
:100B30003B64FB6A264A1268934201D9244A136037
:100B400019499A00D3189B00CB185B68BB609A6860
:100B5000FA609A6854609C60FB6A9800C218920020
:100B60008A187A61C218920052580132C3189B0049
:100B70005A50FFF77FFD144B1B680120002B0BD050
:100B8000084B1B68DA6AFB6A9A4205D2FFF75AFDE6
:100B9000012001E00120404202B004BC9046F0BDBB
:100BA000F82D0020CC2D0020502D0020382D0020C5
:100BB000FC2D0020E02D0020B42D0020102E002060
:100BC0002C2D0020DC2D0020302D0020F42D0020C5
:100BD000242E002070B50400FFF740FD002C01D149
:100BE000204B1C68251D2800FFF7D6FCA36A002BAC
:100BF00003D020001830FFF7CFFC1B4A13680133E5
:100C00001360184B1B689C4208D129001748FFF756
:100C10009FFC174A13680133136005E0154A1368F7
:100C2000013B1360FFF77EFEFFF724FD0D4B1B68B1
:100C30009C4205D0206BFFF74FFC2000FFF74CFCD7
:100C40000D4B1B68002B0BD0064B1B689C4207D139
:100C50000A4B1B68002B01D072B6FEE7FFF7F2FCCF
:100C600070BDC046CC2D0020F42D0020B42D0020F6
:100C7000C82D0020F82D0020302D0020342D00201C
:100C800000B583B0104B0193002300938022D20063
:100C90000E490F48FFF7A8FE01280DD172B60122B8
:100CA00052420C4B1A6002320B4B1A6000220B4B63
:100CB0001A60FFF76BFD03E0431C01D172B6FEE73B
:100CC000074B1B6803B000BDD42D002074650008DD
:100CD00095100008D02D0020302D0020D82D0020A8
:100CE00004000020024A1368013313607047C046B5
:100CF000342D0020014B18687047C046D82D0020C5
:100D000010B50400134B1B68134A12681B1893425A
:100D100001D972B6FEE70F4B1B680F4A1268C31861
:100D2000934212D10D4B1B68002B01D172B6FEE726
:100D3000002801D172B6FEE7FFF790FC084A13685D
:100D400001331360FFF796FC013C024A1368E41874
:100D5000146010BDD82D0020D02D0020342D00208F
:100D60004C2D0020F0B5474680B4514B1B68002B3A
:100D700000D094E04F4B1C6801341C60002C12D151
:100D80004D4B1B681B68002B01D072B6FEE74A4A28
:100D900011684A4B186810601960494A136801339A
:100DA0001360FFF7BFFD474B1B6800209C4265D3D3
:100DB0000020414B9846002643461B681B68002BC9
:100DC00004D1012252423F4B1A6057E03A4B1B6854
:100DD000DB68DB685A68944202D23A4B1A604DE0F5
:100DE0005A699968DF688F60D9689F684F60191DDC
:100DF00057688F4201D1DF6857605E611768013F15
:100E000017609A6A002A10D0DF691D6ABD601F6AE8
:100E1000DD697D601F0018375568BD4201D11D6A2C
:100E200055609E621768013F1760DA6A264D2F6889
:100E3000BA4200D92A609700BA189200234DAC46F6
:100E4000624452689A609568DD6097687960916045
:100E5000DA6A9700B9188900654661445961B91882
:100E6000890049590131BA1892005151184A116844
:100E7000DA6ACB6A9A429FD901209DE7144B1B681E
:100E8000DB6A9A00D3189B00104A9B58012B00D9AB
:100E90000120104B1B68002B06D0012004E00E4AF5
:100EA000136801331360002004BC9046F0BDC046B7
:100EB000342D0020D82D00202C2D0020DC2D0020EA
:100EC000282D0020D02D0020242E0020502D002081
:100ED000CC2D0020282E00204C2D0020F8B5464BAC
:100EE0001B68002B01D172B6FEE7FFF7B7FB424B40
:100EF0001A68013A1A601B680024002B77D13F4B17
:100F00001A680023002A4ED171E0F368DB689C6AFE
:100F1000DA691D6A95601A6ADD6955601A0018322F
:100F20006568954201D11A6A626098622268013A46
:100F300022605D699A68DC689460DA689C68546035
:100F40001C1D6A68A24201D1DA686A6058612A6889
:100F5000013A2A60DA6A2A4D2D68AA4201D9284D41
:100F60002A609500AA1892008A1852689A609568BB
:100F7000DD6095686C609460DA6A9500AC18A40036
:100F80000C195C61AC18A40064580134AA189200D2
:100F900054501C4A1268D26ADC6A944207D3012278
:100FA000194C226003E0194F3E00002018493A68AE
:100FB000002AAAD1002B01D0FFF7B4FC154B1C6806
:100FC000002C0CD0104E0125FFF7CCFE002800D0DD
:100FD0003560013C002CF7D100220E4B1A600A4B01
:100FE0001B680024002B02D0FFF72CFB0134FFF715
:100FF00041FB2000F8BDC046342D0020F82D002014
:10100000242E0020CC2D0020282E0020E02D0020B2
:10101000502D00204C2D002070B505000C0000283C
:1010200001D172B6FEE7002901D172B6FEE7174B77
:101030001B68002B01D072B6FEE7FFF753FE144B7E
:1010400018682A68A318904208D29A4219D998427F
:10105000A44164422B60984209D204E09A420DD820
:1010600098420BD30DE0181A0021FFF771FCFFF72F
:1010700035FF002808D1FFF7E5FA05E02B600124D1
:10108000F1E72B600024F2E7200070BD342D002032
:10109000D82D0020F0B5474680B41F4B98461F4F0F
:1010A0001F4E43461B68002B18D01B4DFFF7D6FA86
:1010B000FB68DC68201DFFF76FFA3368013B336083
:1010C0002B68013B2B60FFF7D5FA206BFFF704FA82
:1010D0002000FFF701FA2B68002BE7D1114B1B68AA
:1010E000012B01D9FFF7AEFAFFF7FEFB0128D8D993
:1010F000FFF7F8FD0C4B1A680C4B1B689A4201D2A3
:1011000072B6FEE7FFF7F0FB012801D9FFF75CFBA1
:10111000FFF7E4FEC5E7C046C82D0020B42D00202F
:10112000F82D0020502D0020D02D0020D82D00209B
:1011300010B5214B1B68002B03D001221F4B1A60F6
:1011400038E000221D4B1A601D4B1B689A00D21814
:1011500092001C495258002A0DD1002B02D003E006
:10116000002B01D172B6FEE7013B9A00D218920023
:101170005258002AF4D0134C9A00D11889006118F3
:10118000486840684860D21892000832A21890421D
:1011900005D141689A00D2189200A21851609A00B5
:1011A000D218920007498A185268D168064A11601D
:1011B000034A136010BDC046342D0020282E0020A5
:1011C000242E0020502D0020CC2D00200B4B1B681E
:1011D0000020002B11D10A4B1B68002B0DD1094BAD
:1011E0001B68002B09D1084B1B68084A106801389E
:1011F000181A431E98410223181A7047E02D002048
:10120000282E00204C2D0020102E0020F82D00202C
:10121000044B5969044A0A405A615A69104358619B
:101220007047C0460020004080FEFFFF10B531200F
:10123000FFF7EEFF10BDC04610B504F08DFC102383
:10124000022809D1054B1A690223920704D4FA2017
:10125000800004F0C3FC0300180010BD0020004013
:10126000F8B506000F00FFF7E7FF042202281AD1A5
:101270007B0501D1FF0A01E0FF0A0137002F11D0E1
:10128000002300240C25D802801904F0CFFC02288A
:1012900001D02A0000E002220134A4B22300A742B8
:1012A000F1D800E013221000F8BDC04670B506006A
:1012B0000D00140080239B0007209A4237D8A020FD
:1012C000000404F06BFC03000420022B2FD1320336
:1012D000120B174B9A60210403220A43DA60D96883
:1012E00010220A43DA60002C07D0A400A4193300AE
:1012F000AD1BEA5804C3A342FBD1A020000404F0B4
:101300004DFC042302280ED1A020000404F066FC4A
:101310000300022804D1064A1269920602D402E0B0
:10132000042300E00B230021014AD160180070BDA6
:1013300000200040F0B54F4680B4C2B001900D00CF
:1013400003F080FB027A437A1B021343023BDA1755
:10135000920F9B1803273B409B1A72B69A0724D022
:10136000FC371F40BC460423DF1B002F1ADD00267C
:10137000FF240379427912021A4383791B04134331
:101380001A00C3791B061343027A417A09021143FA
:101390004A1C92B20272120A42725C540136F6B2D0
:1013A000BE42E6DB04356346ED1A022D27D902273B
:1013B00000240226631C9C460379427912021A43D8
:1013C00083791B0413431A00C3791B061343A2003D
:1013D000DC19617809028946A17809044944DB5D7A
:1013E000CB18E17809065B1802A953500436B6B24F
:1013F000370063466A4653805488B542DAD8FFF70F
:101400001BFF0423022809D1AA0802A90198FFF7AB
:101410004DFF022801D0042300E0022362B6180029
:1014200042B004BC9146F0BD10B5084C0022082122
:10143000200004F07DFC00220721200004F078FC4D
:1014400001220721200004F0D9FC10BD3000082043
:1014500010B5124C01220821200004F0CFFC01221B
:101460000821200004F054FC01220721200004F090
:101470004FFC0420FEF76CFF00220821200004F03E
:1014800047FC0420FEF764FF00220721200004F03F
:101490003FFC0420FEF75CFF10BDC0463000082072
:1014A00010B50E4C01220821200004F0A7FC0022F8
:1014B0000821200004F02CFC0420FEF749FF012243
:1014C0000721200004F024FC0420FEF741FF012244
:1014D0000821200004F01CFC10BDC046300008208C
:1014E00070B5050001220821164804F087FC082485
:1014F000144E6BB2002B05DA01220821300004F0F3
:1015000007FC04E000220821300004F001FC6D001B
:10151000EDB20420FEF71CFF01220721300004F089
:10152000F7FB0420FEF714FF00220721300004F02F
:10153000EFFB0420FEF70CFF013CE4B2002CD8D1F5
:1015400070BDC0463000082070B5184C002208213C
:10155000200004F053FC01220821200004F0D8FBF5
:101560000420FEF7F5FE01220721200004F0D0FB45
:101570000420FEF7EDFEFB240C4D06E0013CE4B236
:10158000002C02D1FFF78CFF0EE00821280004F0A8
:10159000C9FB0028F2D100220721044804F0B8FB5F
:1015A0000420FEF7D5FE0124200070BD3000082085
:1015B00010B5124C01220821200004F01FFC00226B
:1015C0000821200004F0A4FB0420FEF7C1FE012244
:1015D0000721200004F09CFB0420FEF7B9FE002246
:1015E0000721200004F094FB0420FEF7B1FE012245
:1015F0000821200004F08CFB10BDC04630000820FC
:1016000010B50F4C01220821200004F0F7FB012245
:101610000821200004F07CFB0420FEF799FE012243
:101620000721200004F074FB0420FEF791FE002245
:101630000721200004F06CFB0420FEF789FE10BD9A
:1016400030000820F8B507001A4C002208212000BD
:1016500004F0D4FB01220821200004F059FB0826E5
:101660000024144D01220721280004F051FB04201E
:10167000FEF76EFE6400E4B20821280004F052FB7D
:10168000002801D00134E4B200220721280004F030
:101690003FFB0420FEF75CFE013EF6B2002EE1D1D6
:1016A000002F02D1FFF7ACFF01E0FFF781FF200020
:1016B000F8BDC0463000082070B504000E001500CB
:1016C000821880235B0000209A4238DC002935D044
:1016D000FFF7BEFEA020FFF703FFFFF735FF00284E
:1016E00028D02000FFF7FCFEFFF72EFF002821D0B6
:1016F000FFF7AEFEA120FFF7F3FEFFF725FF00285E
:1017000018D0AB1E9BB2012D0AD034000133F6185D
:1017100035000120FFF796FF20700134AC42F8D16C
:101720000020FFF78FFF3070FFF76AFFFFF7B8FE6A
:10173000012004E0FFF7B4FE002000E0002070BDAF
:10174000F8B557464646C0B49246841880225200E7
:101750000023944247DC002944D086B25346002B34
:1017600034D00F00002507239846002D02D04346B1
:1017700033421DD1FFF794FEFA208000FEF7E8FD0A
:101780000024FFF765FEA020FFF7AAFEFFF7DCFEAE
:10179000002804D10134A4B2642CF2D11EE0642CE0
:1017A0001CD0F0B2FFF79CFEFFF7CEFE002815D04C
:1017B0003878FFF795FEFFF7C7FE00280ED0701CA3
:1017C00086B20135ADB20137AA45CED1FFF768FE2A
:1017D000FA208000FEF7BCFD012304E0FFF760FE65
:1017E000012300E0002318000CBC90469A46F8BD87
:1017F000002103E00F4B5B58435004310E480F4B60
:1018000042189A42F6D30E4A03E0002313600423E1
:101810001A440C4B9A42F8D300F0B8F80A480B4926
:1018200001800B48094901800A480B490180FEF7F5
:1018300003FD70474468000800000020D804002021
:10184000D8040020A032002014000820FFFF000070
:101850004400082074000820FF030000FEE7000099
:1018600082B00022019201380A4B58609A6005321A
:101870001A601900802252020B680193019B1342E7
:10188000FAD0044B1A6801218A431A6000229A6038
:1018900002B0704710E000E000B583B000226B4654
:1018A000DA71002004F04EFB012004F057FB012800
:1018B00005D104F0A9F801226B46DA7105E0002099
:1018C00004F0A2F800226B46DA71002004F086F8DA
:1018D000012004F075FB01280CD1002004F0A0F8D1
:1018E000082004F0A9F8602004F0B6F8012004F004
:1018F0006DF80BE06B4607331B78012B03D10220F8
:1019000004F064F802E0002004F060F803B000BDC9
:101910000B4B0C4A1A600C4A1A600C4B0C4A1A60AA
:10192000802189020B4A11608022520019680A4303
:101930001A60094A80231B0611680B431360704725
:10194000002000401178AC006745230114200040BE
:10195000312000004020004004200040F8B50A4B30
:101960001B6843431F001D0E08D000248026760408
:101970003000FFF775FF0134A542F9D13802000AA3
:10198000FFF76EFFF8BDC046302E002010B5074BA4
:10199000074A9A60074A084B1A60FFF7B9FFFFF73A
:1019A0007BFF012004F024F810BDC04600ED00E0EC
:1019B00000000008006CDC020800002010B503F0F5
:1019C000B5FB10BDF0B54F464646C0B4C1B0804629
:1019D0000D001400802252000021684604F0B6FC7D
:1019E0000020012620E0431CFF33994680277F001A
:1019F0009D4200D22F1A40444022694604F00AF961
:101A000000220D490DE06B46D35C5C400823600862
:101A1000344064420C404440013BDBB2002BF6D121
:101A2000013248469742EED18542DCD8200041B0D1
:101A30000CBC90469946F0BD2083B8ED00B585B04A
:101A400010220021684604F081FC064B009301231C
:101A50006A465371044B02936946044804F07AFBCA
:101A600005B000BDBFD40100BD1900080011014040
:101A700010B5002002F058FF002002F05BFF0024A8
:101A8000134B1C70134B1C70134B1C70FFF7D6FFCD
:101A90000322124B1A70023A114B1A700332114B87
:101AA0001A70114B1C70623210490020FFF704FEBF
:101AB00001220F490320FFF7FFFD01220D490120FC
:101AC000FFF7FAFD01220C490220FFF7F5FD10BDDA
:101AD000993200209B320020543200204C310020EB
:101AE0009A320020C831002064310020502E00209E
:101AF000BF31002044310020BD31002010B504F07A
:101B000083FB10BD00B585B010220021684604F0AB
:101B10001DFC074B009301236A4653711373054B59
:101B200002936946044804F015FB05B000BDC046A9
:101B3000BFD40100BD1900080011014000B585B0F7
:101B400010220021684604F001FC064B009301239B
:101B50006A465371044B02936946044804F0FAFA4A
:101B600005B000BDBFD40100BD190008001101403F
:101B700072B6BFF34F8F034A034BDA60BFF34F8F48
:101B8000C046FDE70400FA0500ED00E070B5060070
:101B90003E284DD102F05EFF040002F05FFF0579A0
:101BA000427912022A4383791B0413431A00C37932
:101BB0001B06134301220272002242727E321A7007
:101BC0000579427912022A4383791B0413431A00D0
:101BD000C3791B061343027A467A36021643721CF7
:101BE00092B20272120A427225796179090229437E
:101BF000A27912040A431100E27912060A435278CC
:101C00007F210A409A552079627912020243A37912
:101C10001B0413431A00E3791B0613435B787F2BE5
:101C200002D8FFF76FFF50E00022284B1A704CE0FB
:101C300002F008FF040002F009FF05794279120260
:101C40002A4383791B0413431A00C3791B061343E9
:101C5000012202720022427240361E7005794279DA
:101C600012022A4383791B0413431A00C3791B060B
:101C70001343027A467A36021643721C92B20272FB
:101C8000120A42722579617909022943A279120464
:101C90000A431100E27912060A4352787F210A4072
:101CA0009A552079627912020243A3791B041343E7
:101CB0001A00E3791B0613435B787F2B02D8FFF7EA
:101CC00021FF02E00022014B1A7070BDBC310020E0
:101CD000F8B502F0B7FE040002F0B8FE05794279CB
:101CE00012022A4383791B0413431A00C3791B068B
:101CF0001343012202720022427250321A70057997
:101D0000427912022A4383791B0413431A00C379D0
:101D10001B061343027A477A3F0217437A1C92B29A
:101D20000272120A42722679617909023143A2795C
:101D300012040A431100E27912060A4352787F2105
:101D40000A40DA550579427912022A4383791B0445
:101D500013431A00C3791B061343027A417A09021E
:101D600011434A1C92B20272120A427200225A5461
:101D70000579427912022A4383791B0413431A001E
:101D8000C3791B061343027A417A090211434A1CA4
:101D900092B20272120A427232225A540579427980
:101DA00012022A4383791B0413431A00C3791B06CA
:101DB0001343027A417A090211434A1C92B2027219
:101DC000120A427202225A540579427912022A43B7
:101DD00083791B0413431A00C3791B061343027A49
:101DE000417A090211434A1C92B20272120A4272EB
:101DF000BC225A542079627912020243A3791B044F
:101E000013431A00E3791B0613435B787F2B02D838
:101E1000FFF778FE02E00022014B1A70F8BDC046C1
:101E2000BC310020F8B505000E0017001C0002F0C0
:101E300009FE02F00BFE0379427912021A438379FC
:101E40001B0413431A00C3791B06134301220272B9
:101E50000022427240351D700579427912022A43F0
:101E600083791B0413431A00C3791B061343027AB8
:101E7000417A090211434A1C92B20272120A42725A
:101E8000320A5A540579427912022A4383791B0493
:101E900013431A00C3791B061343027A417A0902DD
:101EA00011434A1C92B20272120A42725E541A2301
:101EB0005F43134BDF19FB7C002B1DD02600013B39
:101EC000DBB20133E31805794179090229438279AC
:101ED00012040A431100C27912060A43017A447AB5
:101EE00024020C43611C89B20172090A41723178E3
:101EF000115501369E42E6D1FFF704FEF8BDC046FB
:101F000040670008F8B5060002F09CFD040002F0EE
:101F10009DFD0579427912022A4383791B041343FC
:101F20001A00C3791B061343012202720022427277
:101F300040361E700579427912022A4383791B04C8
:101F400013431A00C3791B061343027A477A3F02F0
:101F500017437A1C92B20272120A42722679617990
:101F600009023143A27912040A431100E2791206F0
:101F70000A435278DA550579427912022A43837965
:101F80001B0413431A00C3791B061343027A467AD3
:101F900036021643721C92B20272120A42722579FC
:101FA000617909022943A27912040A431100E279F6
:101FB00012060A4392789A55FFF7A4FDF8BDC04671
:101FC000F0B5474680B40500884602F03BFD0700A7
:101FD00002F03CFD047942791202224383791B040A
:101FE00013431A00C3791B06134301220272002215
:101FF000427240351D70047942791202224383797E
:102000001B0413431A00C3791B061343017A427A57
:1020100012020A431600013292B20272120A42728E
:102020003D79797909022943BA7912040A431100EA
:10203000FA7912060A4352787F210A409A55012301
:102040005B429C46E0444346002B29DD0021047995
:1020500043791B0223431A00867936043300134365
:10206000C67936061E43027A437A1B0213439C4606
:1020700001339BB203721B0A43723D797A791202D3
:102080002A43BB791B0413431A00FB791B06134335
:10209000CB189B786246B3540131C9B24145D6DBB7
:1020A00038797A7912020243BB791B0413431A0070
:1020B000FB791B0613435B787F2B01D8FFF722FDCA
:1020C00004BC9046F0BDC046F0B557464E46454666
:1020D000E0B404000D00924602F0B4FC060002F0E9
:1020E000B5FC0379427912021A4383791B04134326
:1020F0001A00C3791B0613430122027200224272A6
:1021000040341C70047942791202224383791B0403
:1021100013431A00C3791B061343017A427A120251
:102120000A431700013292B20272120A42723279E5
:10213000717909021143B27912040A431100F2794C
:1021400012060A4352787F210A40DA556B1E9946DF
:10215000002B29DD0027047943791B0223431A0051
:10216000817909040B001343C17909061943027AE6
:10217000437A1B021343984601339BB203721B0A36
:1021800043723579727912022A43B3791B041343DF
:102190001A00F3791B061343FB189B7842468B54B5
:1021A0007B1CDFB24F45D6DB047942791202224311
:1021B00083791B0413431A00C3791B061343027A65
:1021C000417A090211434A1C92B20272120A427207
:1021D00052465A543079727912020243B3791B0481
:1021E00013431A00F3791B0613435B787F2B01D846
:1021F000FFF788FC1CBC90469946A246F0BDC0463D
:1022000070B5060002F01EFC02F020FC0479427951
:102210001202224383791B0413431A00C3791B065D
:1022200013430025012202720022427240361E70C2
:10223000047942791202224383791B0413431A0062
:10224000C3791B061343027A417A090211434A1CDF
:1022500092B20272120A427240225A5404794279AE
:102260001202224383791B0413431A00C3791B060D
:102270001343027A417A090211434A1C92B2027254
:10228000120A42725D540479427912022243837920
:102290001B0413431A00C3791B061343027A417AC5
:1022A000090211434A1C92B20272120A42725D5430
:1022B000047942791202224383791B0413431A00E2
:1022C000C3791B061343027A417A090211434A1C5F
:1022D00092B20272120A427201225A54047942796D
:1022E0001202224383791B0413431A00C3791B068D
:1022F0001343027A417A090211434A1C92B20272D4
:10230000120A427202225A54FFF7FCFB70BDC0460B
:1023100070B5050002F09AFB04794279120222435B
:1023200083791B0413431A00C3791B06134301224C
:1023300002720022427240351D70FFF7E3FB70BD50
:1023400070B5060002F07EFB050002F07FFB047909
:1023500042791202224383791B0413431A00C37982
:102360001B061343012202720022427240361E7085
:10237000047942791202224383791B0413431A0021
:10238000C3791B061343027A467A36021643721C3F
:1023900092B20272120A42722C79697909022143BF
:1023A000AA7912040A431100EA7912060A43527804
:1023B0009A55FFF7A7FB70BD70B506000D003E28CB
:1023C00042D102F047FB02F049FB04794279120244
:1023D000224383791B0413431A00C3791B0613435A
:1023E00001220272002242727F321A70047942790D
:1023F0001202224383791B0413431A00C3791B067C
:102400001343027A417A090211434A1C92B20272C2
:10241000120A42723E225A5404794279120222432D
:1024200083791B0413431A00C3791B061343027AF2
:10243000417A090211434A1C92B20272120A427294
:102440005D54FFF75FFB3EE002F000FB0479427948
:102450001202224383791B0413431A00C3791B061B
:10246000134301220272002242727F321A700479F1
:1024700042791202224383791B0413431A00C37961
:102480001B061343027A417A090211434A1C92B295
:102490000272120A42725E54047942791202224395
:1024A00083791B0413431A00C3791B061343027A72
:1024B000417A090211434A1C92B20272120A427214
:1024C0005D54FFF71FFB70BD70B5050002F0BEFA4A
:1024D000047942791202224383791B0413431A00C0
:1024E000C3791B06134301220272002242727F321B
:1024F0001A70047942791202224383791B04134330
:102500001A00C3791B061343027A417A0902114368
:102510004A1C92B20272120A42725D5404794279E4
:102520001202224383791B0413431A00C3791B064A
:102530001343027A417A090211434A1C92B2027291
:10254000120A427278225A54FA200001FDF700FF65
:1025500002F0ECFD70BDC046F8B5050002F072FA5D
:10256000060002F073FA0479427912022243837959
:102570001B0413431A00C3791B0613430122027282
:102580000022427240351D700479427912022243C2
:1025900083791B0413431A00C3791B061343027A81
:1025A000477A3F0217437A1C92B20272120A4272B1
:1025B0003579717909022943B27912040A4311006D
:1025C000F27912060A4352787F210A40DA559E4B6F
:1025D0001B78012B58D10479427912022243837966
:1025E0001B0413431A00C3791B061343027A417A72
:1025F000090211434A1C92B20272120A42722D223F
:102600005A54047942791202224383791B041343FA
:102610001A00C3791B061343027A417A0902114357
:102620004A1C92B20272120A4272CF225A540479A0
:1026300042791202224383791B0413431A00C3799F
:102640001B061343027A417A090211434A1C92B2D3
:102650000272120A427246225A54047942791202D4
:10266000224383791B0413431A00C3791B061343C7
:10267000027A417A090211434A1C92B20272120A8A
:10268000427229225A54DCE0704B1B78012B0ED188
:102690003479727912022243B3791B0413431A006E
:1026A000F3791B0613439B78012B66D10FE0032BB4
:1026B00063D13479727912022243B3791B04134334
:1026C0001A00F3791B0613439B78032B55D1047929
:1026D00042791202224383791B0413431A00C379FF
:1026E0001B061343027A417A090211434A1C92B233
:1026F00000250272120A42725D5404794279120274
:10270000224383791B0413431A00C3791B06134326
:10271000027A417A090211434A1C92B20272120AE9
:1027200042725D54047942791202224383791B0478
:1027300013431A00C3791B061343027A417A090234
:1027400011434A1C92B20272120A42725D54047919
:1027500042791202224383791B0413431A00C3797E
:102760001B061343027A417A090211434A1C92B2B2
:102770000272120A42725D5463E0047942791202D5
:10278000224383791B0413431A00C3791B061343A6
:10279000027A417A090211434A1C92B20272120A69
:1027A00042722B4D1C2252422C6862405A540479CA
:1027B00042791202224383791B0413431A00C3791E
:1027C0001B061343027A417A090211434A1C92B252
:1027D0000272120A4272732252422C6862405A54A8
:1027E000047942791202224383791B0413431A00AD
:1027F000C3791B061343027A417A090211434A1C2A
:1028000092B20272120A427219222C6862405A5421
:10281000047942791202224383791B0413431A007C
:10282000C3791B061343027A417A090211434A1CF9
:1028300092B20272120A42722A681E20404242403C
:102840005A54FFF75FF9F8BD2C2E0020C831002044
:102850007832002070B502F0F5F8050002F0F6F8C5
:1028600029796B791B020B431A00AC7924042300ED
:102870001343EC7924061C43057943791B022B434F
:102880001A00817909040B001343C1790906194321
:102890008A781206CB781B04D2184B79D2180979A2
:1028A00009025218D30912041A435200264B53400E
:1028B00058011B0BA2781106E27812048A1861797C
:1028C000521821790902521803439A4206D109226B
:1028D0001E4B1A7000221E4B1A7034E01D4B1B78E1
:1028E000022B27D91A4B1B78002B09D10B22174B2F
:1028F0001A700A3A164B1A700332174B1A7022E0FC
:10290000164B1B88002B0ED10022124B1A7001327D
:102910000F4B1A70124A114B1A8004230B4A137082
:102920000D4A13700FE00C22084B1A70083A0A4B3C
:102930001A7008E00133074A13700A22034B1A7019
:10294000063A054B1A7070BD82FD3E7D362E002082
:10295000643100204C2E0020C83100200E000020E1
:1029600060EAFFFF10B502F06DF8040002F06EF8A7
:10297000227A637A1B021343022B07D005224A4BAB
:102980001A7013211020FFF717FD8CE0207962796F
:1029900012020243A3791B0413431A00E3791B06B6
:1029A00013435B787F221340022B30D0DAB2022A25
:1029B00002D8012B05D061E0032B3FD0042B4DD072
:1029C0005CE0394B1B78022B12D1013B364A137065
:1029D000364A13700422364B1A700022354B1A7097
:1029E0001020FFF775F93448FDF7B2FCFFF7C0F887
:1029F00001232D4A13702D4A137004222C4B1A7098
:102A000000222C4B1A701020FFF762F94BE0264B86
:102A10001B78032B05D1013B234A1370234A137003
:102A200037E0022B35D007221F4B1A70063A1F4B96
:102A30001A7022211020FFF7BFFC34E003231A4A4A
:102A400013701A4A13701D4B1A781A4B1A701A4ACF
:102A50001B4B1A801020FFF73BF924E00423124A95
:102A60001370124A1370154B1A78124B1A70124ACF
:102A7000134B1A801020FFF72BF914E006220A4BA3
:102A80001A70053A094B1A7012211020FFF794FCB6
:102A900009E00A4B1A78074B1A70074A084B1A804C
:102AA0001020FFF715F910BD352E00209A320020B6
:102AB000C83100209832002010270000BE310020CD
:102AC000402E0020F8B501F0BDFF040001F0BEFF6C
:102AD0006F4B1B88002B09D06E4A6D4B1A80227AEF
:102AE000637A1B021343022B13D00DE001236A4AC1
:102AF00013700421694A1170694A1370227A637A4B
:102B00001B021343022B09D013211120FFF754FCA1
:102B1000BCE0614B1B78023B012B04D97E211120C4
:102B2000FFF74AFCB2E05D4B1B7802229343012B76
:102B300004D033211120FFF73FFCA7E0257962790B
:102B400012022A43A3791B0413431A00E3791B06DC
:102B500013435B787F221340DAB2052A00D991E053
:102B60009B00504AD3589F464B4D01262E70077943
:102B7000427912023A4383791B0413431A00C37942
:102B80001B061343012202720022427251321A7054
:102B90000779427912023A4383791B0413431A00DE
:102BA000C3791B061343017A427A12020A43944600
:102BB000013292B20272120A4272277961790902D5
:102BC0003943A27912040A431100E27912060A433A
:102BD00052787F210A4061465A54FEF793FF2D48F0
:102BE000FDF7B6FB2E70FEF7C3FF01222A4B1A70C9
:102BF0004CE0294D01262E700779427912023A43A2
:102C000083791B0413431A00C3791B061343012263
:102C100002720022427251321A700779427912020E
:102C20003A4383791B0413431A00C3791B061343E9
:102C3000017A427A12020A439446013292B2027237
:102C4000120A42722779617909023943A279120482
:102C50000A431100E27912060A4352787F210A40A2
:102C600061465A54FEF74EFF0A48FDF771FB2E707D
:102C7000FEF77EFF0122084B1A7007E00122064B87
:102C80001A7003E012211120FFF796FBF8BDC04631
:102C9000402E002010270000352E0020C8310020D3
:102CA0009A3200207C650008F8B501F0CBFE0400E4
:102CB00001F0CCFE0122884B1A70884B1B88002B38
:102CC00003D0874A854B1A8007E00123854A137099
:102CD0000421854A1170854A1370227A637A1B0297
:102CE0001343032B04D013212220FFF765FBF1E0EF
:102CF0002079627912020243A3791B0413431A005C
:102D0000E3791B061343597809029B78591889B255
:102D1000774B1F78002F2AD0764B1A785B781B02EE
:102D20001343994200D1C6E00120724D1A239C46FC
:102D300018E006000130634673435C5DEB185B7876
:102D40001B02234399420DD11A235E43694B9E19FE
:102D5000B378002B09D0022B07D031212220FFF7B6
:102D60002BFBB7E0C2B2BA42E3D3BA4205D131215C
:102D70002220FFF721FBADE0002216001A2757435F
:102D80005C4BDF19FD783B791B022B4318007C79E3
:102D9000240423000343BC7924061C4317D0237862
:102DA000002B0FD051480578AB4209D0002301E039
:102DB000A84205D00133DBB2E05C0028F8D101E085
:102DC000002D04D131212220FFF7F6FA82E01A27E4
:102DD0007743484BDF19FD793B7A1B022B431800E0
:102DE0007C7A240423000343BC7A24061C4317D0B6
:102DF0002378002B0FD03C480578AB4209D0002344
:102E000001E0A84205D00133DBB2E05C0028F8D134
:102E100001E0002D04D133212220FFF7CDFA59E043
:102E2000354B994223D11A2373433248C3189B78F8
:102E3000002B0ED11A335E438619B57DF07D00025A
:102E40002843337E1B0403431800737E1B06034391
:102E500009E01A20464327488619347D737D1B02FA
:102E6000234326481B1808241B48047029E01A2312
:102E700073432048C3189B78002B0ED11A335E434E
:102E80008619B57DF07D00022843337E1B04034381
:102E90001800737E1B06034309E01A2046431548B9
:102EA0008619347D737D1B02234314481B180824A4
:102EB0000948047005E00F4B9B78002B00D15BE7BD
:102EC00003E02220FEF7AEFF04E00022022B00D137
:102ED00053E742E7F8BDC0463C2E0020402E0020BC
:102EE00010270000352E0020C83100209A32002023
:102EF0005F00002040670008F0F00000502E002026
:102F000010B501F09FFD040001F0A0FD614B1B888E
:102F1000002B09D0604A5F4B1A80227A637A1B0229
:102F20001343022B10D118E001235C4A13700421D3
:102F30005B4A11705B4A1370227A637A1B02134357
:102F4000022B00D0A0E00DE0062B06D01122564B3C
:102F50001A700D3A524B1A7091E0504B1B78023B9D
:102F6000012B06D90E22504B1A700A3A4C4B1A709C
:102F700062E02079627912020243A3791B041343B1
:102F80001A00E3791B0613435B787F221340012B61
:102F900002D0022B1DD040E0444B1B78012B0ED1F8
:102FA000434B1B78022B0AD9424B1B88002B06D0BF
:102FB0000B223D4B1A70073A394B1A7046E001223A
:102FC0003D4B1A700132384B1A700232344B1A7072
:102FD0002EE0394B1B78002B06D10D22324B1A7094
:102FE000093A2F4B1A7040E02F4C062323702720FC
:102FF000FFF730FC2378092B06D10122284B1A70E9
:1030000000222D4B1A700FE000212B4A1170112B5A
:103010003ED89B00294AD3589F461022224B1A7053
:103020000C3A1F4B1A700CE02720FEF7AFFD2FE083
:103030002720FFF791FA2BE07F212720FFF7BCF92B
:1030400026E012212720FFF7B7F921E036212720BB
:10305000FFF7B2F91CE035212720FFF7ADF917E0A3
:1030600037212720FFF7A8F912E024212720FFF7B6
:10307000A3F90DE022212720FFF79EF908E0132194
:103080002720FFF799F903E0062B00D05EE769E7F8
:1030900010BDC046402E002010270000352E002015
:1030A000C83100209A320020362E002064310020E2
:1030B0004C2E00200E000020432E002094650008B6
:1030C00010B582B001F0BEFC040001F0BFFC00228C
:1030D0006B46DA7101236A469371614A1370614B42
:1030E0001B88002B09D0604A5E4B1A80227A637AD3
:1030F0001B021343022B0ED915E001235B4A137008
:1031000004215B4A11705B4A1370227A637A1B02B6
:103110001343022B0BD80322514B1A701321282082
:10312000FFF74AF99AE0514B1B78032B07D0042292
:103130004B4B1A707E212820FFF73EF98EE0207954
:10314000627912020243A3791B0413431A00E37944
:103150001B0613435A787F210A40012A1DD0002AFA
:1031600004D0022A30D0032A45D05BE09B78012BA3
:103170000FD106223A4B1A7001F07CFB01F09EFB46
:1031800001226B46991D0520FEF7DAFA012865D168
:1031900050E00222324B1A705CE09B78012B0FD179
:1031A00007222F4B1A7001F089FB01F069FB012205
:1031B0006B46D91D0520FEF7C3FA01284ED13DE02C
:1031C0000222274B1A7045E09B78012B0FD1082271
:1031D000234B1A7001F05AFB01F04CFB01226B46A5
:1031E000991D0520FEF7ACFA012837D12AE002220A
:1031F0001B4B1A702EE09B78012B0FD10922184B24
:103200001A7001F043FB01F03BFB01226B46D91D14
:103210000520FEF795FA012820D117E00222104B75
:103220001A7017E005220E4B1A7012212820FFF7A2
:10323000C3F813E02820FEF7A9FC0FE02820FEF7D2
:10324000A5FC0BE02820FEF7A1FC07E02820FEF7F4
:103250009DFC03E031212820FFF7AEF802B010BD3D
:10326000442E0020402E002010270000352E002084
:10327000C83100209A320020F0B54F464646C0B40F
:1032800083B001F0DFFB040001F0E0FB20796279FC
:1032900012020243A3791B0413431A00E3791B06AD
:1032A0001343587800029B78181880B200282ED15A
:1032B00000226B465A716B46991DFF230B706A46BC
:1032C000D37101220130FEF73BFA012800D038E12A
:1032D00001226B46D91D0130FEF732FA012800D0D9
:1032E0002FE101226B46591D0330FEF729FA012810
:1032F00000D026E101226B46591D0430FEF720FA6A
:10330000002800D11DE12E20FEF7FCFD19E1012867
:103310002ED101226B465A716B46991DAA230B7060
:10332000CB326B46DA71CB3AFEF70AFA012800D0AD
:1033300007E101226B46D91D0130FEF701FA012891
:1033400000D0FEE001226B46591D0330FEF7F8F96C
:10335000012800D0F5E001226B46591D0430FEF72C
:10336000EFF9012800D0ECE02D30FEF7CBFDE8E0CE
:10337000764B1B88002B03D0754A744B1A8007E0EC
:103380000123744A13700421734A1170734A137035
:10339000227A637A1B0213439946032B11D9704B8F
:1033A0001B789C46002B2ED06E4B1A785B781B0244
:1033B0001343984200D1BCE001226A4E1A2398467A
:1033C0001CE013212E20FEF7F7FFBAE017000132B0
:1033D00043467B43995DF3185B781B020B4398428D
:1033E0000CD11A235F435F4BDF19BB78013B012BE4
:1033F00007D931212E20FEF7DFFFA2E0D5B26545C7
:10340000E4D3654504D131212E20FEF7D5FF98E0A5
:103410002F001A236B43534AD318DA7CD31C9945E7
:1034200004D013212E20FEF7C7FF8AE01A235D4344
:103430004C4B5D19EE7A2B7B1B0233431900687BE2
:10344000000403000B43A87B0006184318D0037840
:10345000002B10D041490D78AB4209D0002301E088
:10346000A94206D00133DBB2C15C0029F8D102E0E9
:103470000023002D05D131212E20FEF79DFF60E0B5
:1034800000231A257D4337494D19EE7B297C09021B
:1034900031430800697C083509040143AD7A2D06E3
:1034A0000D4317D0297800290FD02B480678B14258
:1034B00009D0002101E0B04205D00131C9B2685CF9
:1034C0000028F8D101E0002E04D133212E20FEF790
:1034D00073FF36E01A214B432249CB18187D103375
:1034E0005B791B02034320499C468C44002A13D07D
:1034F00000212679607900023043A3791B0403433D
:103500001800E3791B060343CB18DB78604643546D
:103510000131CBB29A42ECD892B21A235F43114BDD
:10352000DF19387D6146FEF70BF92E20FEF7EAFC25
:1035300007E00C4B9B78013B0025012B00D867E787
:1035400057E703B00CBC90469946F0BD402E0020D2
:1035500010270000352E0020C83100209A320020AC
:103560005F00002040670008502E002030B583B077
:103570000222D54B1A7001F065FA040001F066FAD8
:1035800000226B46DA71D14B1B88002B09D0D04A40
:10359000CE4B1A80227A637A1B021343032B0ED977
:1035A00014E00123CB4A13700421CB4A1170CB4A9B
:1035B0001370227A637A1B021343032B0AD8082262
:1035C000C14B1A700022C64B1A7030E3C14A127800
:1035D000022A06D00622BC4B1A700022C04B1A7079
:1035E00011E3BF4A1278012A32D1BE4B1B68002B6F
:1035F00027D0BD4BBD4A12689A4202D13120FEF756
:1036000063FFBA4B186880210901FDF729FE0228E3
:1036100010D1B64A1368802109018C4663441360B7
:10362000B04A1368B2498C46634413600322A64B28
:103630001A7040E30A22A44B1A700022A84B1A7099
:10364000E6E20022A64B1A7001329F4B1A70B1E2DB
:103650002579617909022943A27912040A431100EC
:10366000E27912060A4351787F200140022900D1F5
:1036700080E2032900D184E2012900D088E2917818
:103680000902D078411889B29A48814212D00229A1
:1036900000D1ECE0984A914200D1BDE1974B9942AC
:1036A00000D179E2FA3AFF3A874B1A7000228C4B2C
:1036B0001A70B7E201218A4B1970137919065379F0
:1036C0001B04CB18D1795918907900020918874B3F
:1036D0001960137A1806537A1B04C318D07A181885
:1036E000937A1B02C3187F4A1360B8225202934296
:1036F00013D85A0511D1824A914200D09CE29022FF
:103700005202934205D10FE0A022D201934204D18C
:103710000AE0B8225202934206D009226A4B1A707C
:1037200000226F4B1A707DE2764B1B78092B00D07C
:10373000ACE23120FEF7C8FE6C4B1B68704A934226
:1037400063D1684B1B68B8225202934230D180216A
:1037500009016B48FDF784FD022822D101226B4646
:10376000D91D1000FDF7ECFF012800D014E2012262
:103770006B46D91D0130FDF7E3FF012800D00BE2B5
:103780005A4A1368802109018C4663441360554AE4
:10379000136857498C466344136003224A4B1A70DE
:1037A00089E20A22484B1A7000224D4B1A702FE210
:1037B00090225202934200D0EEE18021090150484C
:1037C000FDF74EFD022819D101226B46D91D1000CC
:1037D000FDF7B6FF012800D0DEE1444A13688021DE
:1037E00009018C46634413603E4A136840498C4685
:1037F000634413600322344B1A705CE20A22324B9A
:103800001A700022364B1A7002E23F4A934200D0EF
:10381000C2E1A023DB01334A12689A4200D0BBE127
:10382000802109013848FDF71BFD022818D101222B
:103830006B46D91DFDF784FF012800D0ACE12B4A6F
:103840001368802109018C4663441360254A13687C
:1038500027498C466344136003221B4B1A702AE2EB
:103860000A22194B1A7000221D4B1A70D0E11379ED
:10387000190453791B02CB18917959181B4B196005
:10388000D3791804137A1B02C318527A9B1890221A
:103890001202914200D0D4E11C4A93423AD1184A14
:1038A000124B1A60902252020E4B1A600124CEE194
:1038B000174A93423AD1144A0C4B1A60A022D20103
:1038C000084B1A600224C2E13D2E0020402E002049
:1038D00010270000352E0020C83100209A32002029
:1038E00099320020482E002000800108382E002048
:1038F00000F8FFFF44FF0000020200000302000086
:1039000000900008362E002000B00108FFAF010033
:10391000FFFF0100CF4A934208D1CF4ACF4B1A6034
:10392000B8225202CE4B1A60032490E1CC4B1968A6
:10393000B8235B02994202D800244B0506D0092225
:10394000C84B1A700022C84B1A706BE1C74B1B782A
:10395000092B5AD1C14B1868FDF782FC02284DD1C2
:10396000022C15D0032C25D0012C40D101226B460E
:10397000D91D1000FDF7E4FE012800D00CE1002362
:10398000BB4A13700121B74A1170B74A137011E195
:1039900001226B46D91D0220FDF7D2FE012800D07E
:1039A000FAE00023B34A13700121AE4A1170AE4A07
:1039B0001370FFE001226B46D91D1000FDF7C0FE19
:1039C000012800D0E8E001226B46D91D0130FDF747
:1039D000B7FE012800D0DFE00023A54A1370A54AF6
:1039E000137001219F4A11709F4A1370E2E009226F
:1039F0009C4B1A7000229C4B1A7013E10A22994BBF
:103A00001A700022984B1A7002E10B22954B1A7023
:103A10000022954B1A7000E1082B03D00822914B2D
:103A20001A7004E1914B1B78092B00D09EE0AA226A
:103A30006B465A7122326B469A713120FEF744FD73
:103A4000012252428C4B19688C4B1868FDF7BAFF63
:103A50002379627912021A43A3791B0413431A00D3
:103A6000E3791B061343C0431A7911065A791204ED
:103A70008A18D97952189B791B02D318984262D1BF
:103A80007E4B1B68744A934200D00FE19022520291
:103A900079490968914200D003E101226B46591D22
:103AA0001000FDF74DFE012807D1AA22704B1A70B5
:103AB0009E3A6C4B1A70002249E00A22694B1A7038
:103AC000093A44E0A023DB016B4A12689A423AD1DA
:103AD00001226B46991D0220FDF732FE012807D115
:103AE000CC22644B1A70BF3A5E4B1A7000222EE053
:103AF0000A225C4B1A70093A29E0B8235B025E4A3D
:103B000012689A421FD101226B46591D1000FDF721
:103B100017FE012812D101226B46991D0130FDF7D5
:103B20000FFE01280AD1AA22514B1A702232514BA2
:103B30001A70BE3A4B4B1A70002208E00A22494B19
:103B40001A70093A03E00922464B1A70083A00211C
:103B5000454B1970434B1B78013BD9B20D2900D955
:103B6000A9E0DBB29B004649CB589F460B223D4B58
:103B70001A7052E000223C4B1A700132394B1A7015
:103B800018E00022384B1A700132364B1A7011E0DF
:103B900012213120FEF710FC324B1A780E2A00D980
:103BA00089E09300374AD3589F462F4B1B78002B50
:103BB00000D080E003213120FEF702FA7BE00022F2
:103BC00000E00022284B1B78002B74D10321312008
:103BD000FEF77AFA6FE0002200E00022224B1B7809
:103BE000002B68D103213120FEF76EFA63E000223A
:103BF00000E000221C4B1B78002B5CD103213120FC
:103C0000FEF762FA57E07F213120FEF7D5FB52E044
:103C100072213120FEF7D0FB4DE033213120FEF739
:103C2000CBFB48E031213120FEF7C6FB43E01321F6
:103C30003120FEF7C1FB3EE0134A914200D06CE513
:103C400062E5D8225202914200D06FE630E6044B82
:103C5000196872E6FFFF010000900008382E00206E
:103C6000482E00203D2E002099320020362E0020C4
:103C700044310020BD310020603100205832002046
:103C8000DC6500081466000800B001080B4B1B78C7
:103C9000063BDAB2082A0ED8DBB29B00084AD3589A
:103CA0009F46084A934200D04DE726E7064A9342D2
:103CB00000D048E706E703B030BDC0463D2E0020E7
:103CC000506600080090000800B00108F8B500F048
:103CD000B9FE040000F0BAFE594B1B88002B03D03C
:103CE000584A574B1A8007E00123574A13700421A2
:103CF000564A1170564A13700122564B1A70227A96
:103D0000637A1B021343032B07D80222514B1A700C
:103D100013213420FEF750FB90E04B4B1B78022B15
:103D20005CD12079627912020243A3791B04134308
:103D30001A00E3791B0613435A7852067ED19A780B
:103D40000F2515401409042D18D1042C16D1D81CA8
:103D5000D91D414E3268120232600778BA183260BB
:103D600001308842F6D10B333C48026812020260EF
:103D70000E78B218026001318B42F6D1384B1B78B5
:103D8000092B23D155E0374B334A12689A4209D99F
:103D9000B8235B02314A12689A4203D8042D01D13C
:103DA000042C07D004222B4B1A7031213420FEF74B
:103DB00003FB43E00922274B1A703420FEF720FA58
:103DC000264A13681278002A10D11DE00822214BE0
:103DD0001A7070213420FEF7EFFA2FE007221D4BF6
:103DE0001A707F213420FEF7E7FA27E01B0A01331F
:103DF0001D490B8001211D4B1970174B19681C4B75
:103E000019601C4B1A600BE01B0A174A1380002331
:103E1000164A1370104A1168154A1160154A13604A
:103E20000123154A1380154A13800A22094B1A7080
:103E300004E0134B1B78012BC8D1A4E7F8BDC046A2
:103E4000402E002010270000352E0020C831002011
:103E50009A320020342E0020583200206031002099
:103E6000362E0020FF8F0008462E00204D2E002009
:103E7000D0310020CC310020100000200C000020A8
:103E80003D2E002070B500F0DDFD040000F0DEFDE9
:103E9000B04B1B88002B03D0AF4AAE4B1A8007E013
:103EA0000123AE4A13700421AD4A1170AD4A13705C
:103EB000227A637A1B021343012B03D80122AA4BF7
:103EC0001A7045E1A94A1278092A03D00222A64BAA
:103ED0001A703DE1A64A1278012A03D10132A24BA1
:103EE0001A7010E19D490978022908D007229E4BDB
:103EF0001A7001239F4A13809F4A138008E10A2AFF
:103F000000D0F3E09B4A12889C4909888A4207D96D
:103F10000123954A1370974A1380974A1380EDE066
:103F20008A4247D281225200934208D9FF3A8E4BEF
:103F30001A7001238F4A13808F4A1380EDE080218D
:103F400049008F4B1868FDF7F5F9022829D18C4AF2
:103F500013680133FF331360864A138801331380DB
:103F60002379627912021A43A3791B0413431A00BE
:103F7000E3791B0613435B787F4A12889A4208D084
:103F80000922794B1A7001237A4A13807A4A1380E6
:103F9000CDE00A21744A11700133DBB2764A1380F6
:103FA000D3E00822704B1A700123724A1380724AC0
:103FB0001380B7E073490978002949D021796079E5
:103FC00000020843A179090401430800E1790906C8
:103FD0000143487868490988884208D00922624B21
:103FE0001A700123634A1380634A13809FE0013AE9
:103FF0001202023BD318644A1268934208D0052289
:10400000594B1A7001235B4A13805B4A138093E07B
:104010005E4B19685A4B1868FDF78CF902280ED1CF
:104020005B4A1369802149010B43136106224E4B01
:104030001A7001234F4A13804F4A138081E00822EF
:10404000494B1A7001234B4A13804B4A138069E095
:104050002179607900020843A1790904014308002D
:10406000E17909060143487843490988884208D024
:1040700009223D4B1A7001233E4A13803E4A1380A9
:1040800055E01202404909688A4207D90123364A9D
:104090001370384A1380384A13802FE09A18033A75
:1040A000FF3A914208D005222F4B1A700123314A62
:1040B0001380314A13803FE080214900304B18685B
:1040C000FDF738F9022808D10622274B1A70012380
:1040D000284A1380284A138033E00822224B1A70A2
:1040E0000123244A1380244A13801BE01E4B1A78B4
:1040F0000A2A2DD89300274AD3589F4613213620E9
:10410000FEF75AF924E024213620FEF755F91FE086
:104110007F213620FEF750F91AE031213620FEF7D4
:104120004BF915E072213620FEF746F910E07321B5
:104130003620FEF741F90BE071213620FEF73CF9FD
:1041400006E03620FEF7FCF802E03620FEF7F8F82D
:1041500070BDC046402E002010270000352E0020E4
:10416000C83100209A3200203E2E0020362E00203A
:10417000342E0020100000200C000020462E0020CD
:10418000D03100204D2E002060310020CC310020A5
:10419000002000407466000810B500F053FC0400D5
:1041A00000F054FC2F4B1B88002B09D02E4A2D4BBE
:1041B0001A80227A637A1B021343012B0ED811E076
:1041C00001232A4A13700421294A1170294A1370C5
:1041D000227A637A1B021343012B07D90122264B53
:1041E0001A702BE0214B1B78022B03D00322224BA9
:1041F0001A7028E0214B1B78092B11D00222204B8A
:104200001A701D4B1B78022B22D0DAB2022A02D878
:10421000012B25D112E0032B15D0042B1DD01FE05C
:10422000184B1B7808229343012B03D1063A124BFB
:104230001A700DE00422104B1A700EE01321372083
:10424000FEF7BAF80CE07F213720FEF7B5F807E05B
:1042500024213720FEF7B0F802E03720FEF758F8A7
:1042600010BDC046402E002010270000352E002033
:10427000C83100209A320020372E0020362E002030
:104280003E2E0020342E002070B5A54B1B6800F098
:10429000D9FBA44B1B78022B0DD9A34B1B88002BF9
:1042A00006D10022A04B1A8003329E4B1A7002E006
:1042B000053B9D4A13809D4B1B78012B10D19C4BD5
:1042C0001B88002B09D101339A4A13709A4A137044
:1042D00004229A4B1A70FDF74BFC053B944A13805D
:1042E000974B1B78012B71D1964B1B78012B42D138
:1042F0000122954B1A700479427912022243837984
:104300001B0413431A00C3791B06134318780300D8
:10431000103BDAB2272A21D893008C4AD3589F4603
:10432000FEF720FB1DE0FEF7CDFB1AE0FEF7BCFC1C
:1043300017E0FEF7E5FD14E0FEF7C2FE11E0FEF720
:104340009BFF0EE0FFF712F90BE0FFF7BFFC08E060
:10435000FFF798FD05E0FFF71FFF02E01121FEF7D0
:104360002BF80322784B1A70002000F0DDFA0022AF
:10437000744B1A70D3E0764B1B78012B26D10122A7
:10438000714B1A70047942791202224383791B041B
:1043900013431A00C3791B0613431B78112B06D055
:1043A000282B07D0102B07D1FEF7DCFA04E0FEF72C
:1043B00089FB01E0FEF784FE0322634B1A700020A4
:1043C00000F0B2FA0022624B1A70A8E0614B1B7831
:1043D000BB2B00D097E0604B1B78042B00D092E001
:1043E0000226544B1E705D4A514B1A8000F02EFB82
:1043F000047942791202224383791B0413431A0081
:10440000C3791B0613430025012202720022427267
:1044100050321A70047942791202224383791B04C4
:1044200013431A00C3791B061343027A417A090227
:1044300011434A1C92B20272120A42725E5404790B
:1044400042791202224383791B0413431A00C37971
:104450001B061343027A417A090211434A1C92B2A5
:104460000272120A42725D540479427912022243A6
:1044700083791B0413431A00C3791B061343027A82
:10448000417A090211434A1C92B20272120A427224
:1044900032225A54047942791202224383791B044E
:1044A00013431A00C3791B061343027A417A0902A7
:1044B00011434A1C92B20272120A42725E5404798B
:1044C00042791202224383791B0413431A00C379F1
:1044D0001B061343027A417A090211434A1C92B225
:1044E0000272120A4272BC225A5400F01FFE0020CF
:1044F00000F01AFA134B1D700C4B01221A70154B69
:10450000FE321A700BE0164B1B78012B07D1FFF718
:104510002DF8002000F008FA00220A4B1A7070BD36
:10452000009000084C2E00200E0000209832002041
:10453000402E0020352E00209A320020C831002065
:10454000BE310020743200204C310020A0660008EB
:1045500053320020BF3100205432002010270000C9
:104560009932002010B500F075FA040000F076FAD8
:10457000244B1B88002B03D0234A224B1A8007E0D0
:104580000123224A13700421214A1170214A137019
:104590000122214B1A70227A637A1B021343022BE9
:1045A00007D002221C4B1A7013213E20FDF704FF96
:1045B00027E0164B1B78012B07D10422164B1A70EB
:1045C0007F213E20FDF7F8FE1BE020796279120280
:1045D0000243A3791B0413431A00E3791B06134318
:1045E0005B785B0607D003220B4B1A7012213E202A
:1045F000FDF7E2FE05E00522074B1A703E20FDF7AD
:10460000C5FA10BD402E002010270000352E0020D6
:10461000C83100209A320020422E002010B5134BE2
:104620001B78012B21D1124B1B78012B03D0114B8E
:104630001B78012B19D100F00DFA0479427912028E
:10464000224383791B0413431A00C3791B061343C7
:104650001B783E2B01D1FFF785FF002000F06AF99F
:104660000023034A1370034A137010BD9C320020CC
:104670009D3200205C320020F0B5474680B4040033
:104680000E008B0501D5A023C358330447D44FE057
:104690002900200000F07EFF2B68FC22D20093420C
:1046A00018D12E4B1B691A78022A09D15B783E2B50
:1046B00006D1013A2A4B1A7000222A4B1A7005E0E3
:1046C0000122294B1A700022284B1A700122284B14
:1046D0001A7028E0274A934218D1204B1B691A7898
:1046E000022A09D15B783E2B06D100221C4B1A709E
:1046F00001321C4B1A7005E000221B4B1A7001326C
:104700001A4B1A7001221A4B1A700CE00023424611
:1047100013703B70124A1370124A137003E00F4D6E
:10472000114B9846114FA023E3589B019B0FAFD12B
:1047300073050FD5A023E258C0239B021A4209D06B
:10474000A023E3589B0405D4A022A3588021C900CC
:104750000B43A35004BC9046F0BDC046E831002096
:104760009D3200205C320020743200205332002041
:10477000FC310020DF070000F0B58DB002AC28222C
:104780000021200001F0E2FD01AE00250195254F3A
:1047900001220021380001F0CBFA0122012138006A
:1047A00001F0C6FA204F00220821380001F0C0FABB
:1047B00001220821380001F021FB002208213800E5
:1047C00001F0A6FA0523337006337370093BB3700A
:1047D000F370013BA371154A6261A570E570032275
:1047E0002270134A2262134A6262A6616371124AFE
:1047F000124B1A61124A134B1A612100124800F041
:1048000049FF124B1D70124B1D70124B1D70124B45
:104810001D70124B1D70012211490520FCF74CFF41
:104820000DB0F0BD3000082060000820FE002A0016
:1048300064000020794600086831002060320020C2
:1048400000320020E831002000780040FC310020D8
:1048500074320020533200209D3200205C32002050
:10486000C031002010B5024800F02EFD10BDC0463A
:10487000007800400122014B1A707047C0310020BF
:104880000022014B1A707047C031002070B582B011
:10489000084C26002436084DA368626821786078A9
:1048A0000090280000F0C6FE0C34B442F4D102B0EF
:1048B00070BDC046880000200078004070B582B00E
:1048C000084C26002436084DA36862682178607879
:1048D0000090280000F0AEFE0C34B442F4D102B0D7
:1048E00070BDC046640000200078004010B50B4B3E
:1048F0001B78012B07D10A4B0A689A4203D8012280
:1049000000F0E2FD09E0074B0A681340BD22D20027
:10491000934202D1012200F0D7FD10BDC03100202A
:10492000FF060000FFFDFFFF014B18707047C046F7
:10493000BE310020014B18707047C0469C320020E9
:1049400010B500232F4C00222F48842149001A550E
:104950001A5401338B42FAD100232C4800222C49EF
:104960001A545A540133082BFAD12A4B254A0021F4
:104970001A71100A5871100C9871120EDA71002217
:104980001A725A729A72DA72234B1F4A1A71100AFB
:104990005871100C9871120EDA7100221A725A7244
:1049A0009A72DA721D4B194A1A71100A5871100C5A
:1049B0009871120EDA7100221A725A729A72DA72B1
:1049C000174B134A1A71100A5871100C9871120E75
:1049D000DA7100221A725A729A72DA72114B1960E5
:1049E000114B19600123114A1370114A1370114AB7
:1049F0001370114B1980114B1980114B00221A7042
:104A000010BDC046DC2E0020E42F0020D42E002054
:104A1000CC2E002044320020D8310020503100201C
:104A2000A8310020B831002048310020D4310020C6
:104A30009E3200207C320020843200207E32002012
:104A4000BC310020004870474432002000487047C5
:104A5000D83100200048704750310020004870478E
:104A6000A831002070B5437A082B15D01900082210
:104A7000D31A002B0EDD00220023FF26082504692F
:104A8000A446624456540133DBB21A00417A6C1AD0
:104A9000A342F4DB0823437270BDC046F0B547461D
:104AA00080B41A4B1B691B780F2213405A1E062A2A
:104AB00029D802689BB2137200235372134B1B69EF
:104AC0001A7812071CD00025104A94460F275B194C
:104AD0005B78984606683479727912022243B3797A
:104AE0001B0413431A00F3791B06134342465A551D
:104AF0000135EDB263461B691A783A409542E6DB10
:104B00000522034B1A7004BC9046F0BDE83100202A
:104B1000BC310020F0B5194B1A6913781B0251788B
:104B2000F02212011A405218072A26DD02681B05DE
:104B300011721B0F5372124B02681A6000250F4B43
:104B40009C4663461B695B199F78066834797279C5
:104B500012022243B3791B0413431A00F3791B0694
:104B600013435F550135062DEBD1036806229A7277
:104B70000022DA720232034B1A70F0BDE8310020D5
:104B800048310020BC310020F8B557464E46C0B42D
:104B900004683F4B1C60A37AE57A2D021D433D4B10
:104BA0001B691B780F261E4007212800FBF7B8FA67
:104BB00080B201300F231840864259D10022364B73
:104BC0001A80344B5B7A012B38D9227A637A1B0224
:104BD00013439D4232D201239C4601262D4B994618
:104BE0002B4F4B461B6962469B5C9A462079627943
:104BF00012020243A3791B0413431A00E3791B0634
:104C0000134352465A553C68A37AE57A2D021D4358
:104C10000135ADB2A5722B0AE3720136F6B2082E49
:104C20000CD01C4B5B7AB34208D901239A46D4447A
:104C3000227A637A1B021343AB42D2D80322174B6A
:104C40001A70134B1B68987AD97A09021A7A5B7A20
:104C50001B02014313430920994215D30123104A33
:104C60001370104A137005220C4B1A7008380BE0B1
:104C700001220B4B1A70002323726372A372E3723A
:104C8000064B00221A7009200CBC91469A46F8BDCA
:104C900048310020E83100207E320020BC31002065
:104CA000D4310020BE31002010B582B05E4B01939C
:104CB0005E4B00935E4B1B78002B1BD15D4B9A7AA9
:104CC000DB7A1B021343062B14D15B4A1388033390
:104CD0009BB21380594A93420CD90122544B1A704B
:104CE000544B00221A725A729A72DA72524B1A801C
:104CF000534B1A70534B1B78002B18D1524B1B7817
:104D0000012B14D1514A138803339BB213804B4AB1
:104D100093420CD901224B4B1A70434B00221A725A
:104D20005A729A72DA72494B1A80454B1A70484B84
:104D30001B78012B03D0474B1B78012B17D1464B17
:104D40001B78012B13D1454B1B691B781B090BD119
:104D50003B4B1B78002B07D10124414B1C7068464C
:104D6000FFF79CFE3F4B1C7000223B4B1A703E4BE2
:104D70001B78012B03D03D4B1B78012B51D1364BB7
:104D80001B78012B4DD1354B1B691B781B09012B5F
:104D900011D0002B04D0022B2FD0032B1ED03DE0CE
:104DA000274B1B78002B39D101A8FFF777FE012292
:104DB0002F4B1A7032E0224B1B78002B2ED101A80A
:104DC000FFF7A8FE00231F4A13701F4A1370264ADC
:104DD0001370264A1370FCF795FE1FE0184B1B78E2
:104DE000082B1BD10422164B1A7000231E4A137085
:104DF0001E4A1370FCF786FE10E0114B1B780A2B3D
:104E000001D0032B0AD10F4B1B78002B06D10E4B80
:104E10001B78012B02D101A8FFF7B6FE00220E4B32
:104E20001A7002B010BDC04644320020503100203C
:104E30007C320020D831002084320020CF070000CF
:104E4000BC310020D43100209E3200207E32002070
:104E50009D3200205C320020FC310020E83100202F
:104E60009B3200209C3200207432002053320020FC
:104E7000BE31002010B5094CFD23DB002360002368
:104E80006373E3722000FFF7EDFD082363720122D4
:104E900021000348FFF72AFD10BDC0466032002004
:104EA0000078004070B505001D4B1B69027A1A702E
:104EB00000241B4E28796A7912020243AB791B0445
:104EC00013431A00EB791B0613431A5D33691B1950
:104ED0005A700134E4B22A7A6B7A1B021343A2B2ED
:104EE0009A42E7D90E4C013363722000FFF7C2FFEC
:104EF00000232B726B72AB72EB7223691A78032A50
:104F000009D15A787F2A06D1DB78782B03D1783AF9
:104F1000044B1A7002E00022024B1A7070BDC046AA
:104F200060320020BC31002070B5214B1A69137823
:104F30001909012913D10E310B4052789B18812297
:104F400052003224934214DCA0231A4AD458A403FA
:104F5000A40F033C624262413032140009E0A023F6
:104F6000144AD458A403A40F033C62426241303275
:104F70001400114D2B691C7024232A6953701F3BA8
:104F80002A699370023B6B7200236B73FD23DB0075
:104F90002B602800FFF766FD08236B7201222900B1
:104FA0000448FFF7A3FC0A22044B1A70200070BDCE
:104FB000E83100200078004060320020BC31002041
:104FC00010B50400FD23DB00036000234373FFF7EB
:104FD00049FD012221000248FFF788FC10BDC046B0
:104FE0000078004070B50500154A437A0F210B4048
:104FF000103311690B701369027A5A700024104E35
:1050000028796A7912020243AB791B0413431A0010
:10501000EB791B0613431A5D33691B199A7001342F
:10502000062CEDD10623AB720023EB720448023448
:105030004472FFF7C5FF034B1D60034B1C7070BD2E
:1050400060320020B8310020BC310020F8B5334B6D
:105050001C68002C60D0324B1D69A37AE07A0002F4
:1050600018430721FBF75CF801300F23184020306C
:105070002870A27AE37A1B021343217A627A120221
:105080000A43934223D20126254F257961790902EB
:105090002943A27912040A431100E27912060A4355
:1050A000D35C3A699355A27AE37A1B021343013326
:1050B0009BB2A3721A0AE272F5B2072E08D001362B
:1050C000217A627A12020A439A42DED800E0002571
:1050D000134801354572FFF773FF0922114B1A700F
:1050E000A07AE17A0902227A637A1B020143134310
:1050F0000020994211D30025084B1D600023237224
:105100006372A372E3720122074B1A70FCF716FD5B
:10511000044B1D70012000E00020F8BDB8310020D4
:1051200060320020BC3100207C32002010B5224BC0
:105130001A7A5B7A1B0213435A1E92B2062A05D8CA
:105140001D48FFF7AFFEFCF7F9FC33E0072B14D93D
:10515000194B9A7ADB7A1B0213430AD11648FFF7E0
:1051600041FF0023154A1370154A1380FCF7E6FC33
:1051700020E01148FFF76AFF1CE0124B1B78022B5E
:105180000AD1FFF7D1FE01220F4B1A7000220F4BFC
:105190001A80FCF7D3FC0DE00D4B1A7A5B7A1B02E8
:1051A0001343013B9BB2062B04D80948FFF77AFE54
:1051B000FCF7C4FC10BDC046D83100207C32002072
:1051C00084320020BC3100209E3200207E3200203C
:1051D000A831002010B582B01B4B1C6800226B4622
:1051E000DA711A4BE2181A4B9A421BD8194B1B78EA
:1051F000AA2B17D1184B1B78CC2B13D1174B1B782C
:10520000BB2B13D072B6FFF72DFBFCF777FC002207
:10521000134B1A6084F30888124B1B68124A136000
:1052200098470EE00D4B1B78BB2B0AD104220F4B85
:105230001A70033A6B46D91D0320FCF781FAFFF779
:1052400023F802B010BDC04600900008FFFFFFDF4A
:10525000FE4F000044310020BD310020BF3100204E
:1052600010E000E004900008C43100205432002017
:1052700070B50E4BC3189B031B0EA42284580C4917
:1052800021400C4D5E00F418A400615184580C4379
:105290008450F3189B00EB189B68002B04D00C3251
:1052A00082581206520F984770BDC0460088FFBF53
:1052B00000FFD500EC30002010B50248FFF7D8FF02
:1052C00010BDC0460078004070B50400A02281588F
:1052D00080230B43835000211C2000F043FB114B23
:1052E0009C466444A403240E0F4D63001C192B1923
:1052F0005878002100F002FBA3000C4AD3180022CA
:105300009A606357002B0BDB1F3213401E3A9A4002
:105310001300802206498B50BFF34F8FBFF36F8F6E
:1053200070BDC0460088FFBF14680008EC30002044
:1053300000E100E00F4BC3189B031B0E5A00D3186B
:105340009B000D4AD3181B79002B10D1002907D1DF
:10535000A433C258C258802109010A43C25006E052
:10536000A423C258C2588021C9000A43C250002059
:105370007047C0460088FFBFEC30002030B50029E0
:105380000BD10022A024802149010C4D03590B426E
:105390000FD00132AA42F9D10BE00022A024032150
:1053A000064D03591B0C0B40032B02D10132AA42BC
:1053B000F7D1034890428041404230BDA1860100B0
:1053C0009F860100082816D90938C3B2062B11D8C8
:1053D0009800094B1B589F460C200CE010200AE057
:1053E000142008E0182006E0202004E0302002E02D
:1053F000402000E000207047F867000870B5050005
:105400000C00161E05D1A02281582C4B0B40835056
:1054100005E0A0228358802109020B4383502368B2
:10542000DA00D208264BEB189B031B0E5900CB1851
:105430009B002449CB185B79002B02D080231B06EC
:105440001A432A65637A0F221340A27A002A01D0F8
:1054500010221343227B002A01D040221343E27A18
:10546000002A03D040229343203A1343627B002A50
:1054700001D0802213436B65237B002B14D1607A0B
:10548000002811D02369002B0ED0FFF79BFF0028C6
:105490000AD000239A082169C95816329200515146
:1054A0000433DBB29842F5D8012E05D1A022AB58C7
:1054B0008021C9030B43AB5070BDC046FF7FFFFF87
:1054C0000088FFBFEC300020F8B507000D00140085
:1054D0002E4BC618B603360E73009B199B002C4A40
:1054E000D3181B79002B10D0002C04D1A023C35853
:1054F000DB04DB0F06E0A023C3589B039B0F033B99
:105500005A425341002B30D104E02100FFF736FF0F
:1055100000282DD1220029003800FFF76FFFA023BB
:10552000FB589B041ED4002C06D1A022BB5880211E
:1055300049010B43BB501EE073009E19B600144B8B
:105540009E19B379012B06D1A022BB588021C90036
:105550000B43BB500FE0A022BB58802189000B43B6
:10556000BB5008E0032040420EE0012040420BE027
:105570000220404208E021003800FFF7DBFE030074
:105580000020002B00D00438F8BDC0460088FFBFC3
:10559000EC30002070B504000D00A023C3589B011F
:1055A0009B0F0120002B43D02368DB00DB080B603E
:1055B0002368DB0F0B7263681B0901210B40AB7280
:1055C000666876090E40EE7263689B090B402B7388
:1055D0006268D2090A406A7362680E3010406872CD
:1055E000002B1CD100281AD02B69002B17D0FFF7F5
:1055F000E9FE0100002E05D1011CC0B2082800D927
:105600000821C9B200290AD000239A080232920068
:1056100012592869C2500433DBB29942F5D8A36C01
:105620006B60A022A358802149050B43A3500020A2
:1056300070BDC04670B504AC2678A02405599F3CC7
:105640002D0625D5002E1BD0B334065980256D02BA
:105650008D403543055105590F26B5432943015166
:10566000055920218D430551D200D208B825425159
:105670000259114301515B005B084351002407E0CC
:10568000B4240359802252028A40934303510024D8
:10569000200070BDF0B54F464646C0B483B005004B
:1056A0000E00894BC718BF0AFBB29946FF231F4063
:1056B0007B00DB199B000021844A9950F378012B71
:1056C00003D1484600F0D8F903E00121484600F034
:1056D000D3F97B00DB197E4AD3185878012100F0FA
:1056E0000DF901211C2000F03DF9A022A9588023CA
:1056F0000B43AB50B1690B781A06CB781B04D31857
:105700008A7812029B184A789B18A822AB50B37B68
:10571000002B28D0A0202B58F17BC9056D4A1340DF
:105720000B432B50F1690B781A06CB781B04D31866
:105730008A7812029B184A789B18AC22AB50337CB3
:10574000002B10D0B0216858634A0240DB0313439A
:105750006B506B58707C0002FE22D20110405F4AF1
:10576000134003436B50336A9846002B14D03378B0
:10577000002B11D000246000001980004044836891
:1057800042680178407800902800FFF753FF013409
:10579000E4B23378A342EED8A022AB5880218B43E9
:1057A000AB50B378012B05D1AB588021C9010B4315
:1057B000AB5015E0022B05D1A022A9581E330B4394
:1057C000AB500DE0032B0BD1A022A9583D330B4366
:1057D000AB50AB58717BC9075B005B080B43AB5008
:1057E000A4216B581B011B09C022D20513436B5027
:1057F0006B58707800063A4A134003436B50A0235D
:10580000EA58F1790901102082430A43EA50EA5824
:10581000317AC900083882430A43EA50EA5830799D
:10582000400530490A400243EA50EA58307B80077D
:105830002D490A400243EA507B00DB199B00234AB2
:10584000D31872799A71726A9A60737A002B19D0A0
:10585000B17A484600F01CF97B00DB199B001B4A1B
:10586000D318727A5A71B4216B58F07A40021F4AE9
:10587000134003436B506A581D4B13408022520063
:1058800013436B50B379002B19D0A422A958194B9C
:105890000B4071690B43AB507A00D3199B000B4945
:1058A000CB18B1791971D719094BFB56002B06DBC0
:1058B0001F2213401E3A9A4013000F4A136003B090
:1058C0000CBC90469946F0BD0088FFBFEC3000202C
:1058D00014680008FFFF7FFFFF7FFFFFFF80FFFFCF
:1058E000FFFFFFF0FFFFDFFFFFFFFFBFFFFDFFFF39
:1058F000FFFEFFFF01FFD5FF00E100E082B0019055
:10590000019B1F2B13D8012908D101988021C905BB
:105910004A680123834013434B6021E001988021B2
:10592000C9054B680122824093434B6018E0019BFC
:10593000252B15D8019B203B0193012908D1019803
:105940008021C9058A680123834013438B6007E0E7
:1059500001988021C9058B680122824093438B60A6
:1059600002B0704782B00190019B1F2B13D8012910
:1059700008D101988021C9058A6901238340134316
:105980008B6121E001988021C9058B690122824049
:1059900093438B6118E0019B252B15D8019B203B7D
:1059A0000193012908D101988021C905CA69012301
:1059B00083401343CB6107E001988021C905CB697F
:1059C000012282409343CB6102B070478022D2050E
:1059D000136803218B431843106070478022D2055F
:1059E000136830218B430001184310607047C04694
:1059F0008022D2051168034B0B400002184310604F
:105A00007047C046FFFCFFFF8022D2051168034BA0
:105A10000B400005184310607047C046FFFFEFFFC2
:105A20008021C905034A8B589B009B0880071843B7
:105A3000885070479088000010B58021C905044A3D
:105A40008C58044B234040061843885010BDC04674
:105A500090880000FFFFFFC110B58021C905044AEE
:105A60008C58044B2340C0031843885010BDC046D7
:105A700090880000FF7F80FF8022D2051068034BD2
:105A800003408906194311607047C046FFFFFFFBC2
:105A90008022D2051068034B034049051943116069
:105AA0007047C046FFFF9FFF03000068420706D50E
:105AB0009A6802210A439A609A688A439A601A682F
:105AC00082431A607047C04610B50648FFF7ECFFE6
:105AD000054B1B68002B03D00022010001489847AA
