:020000040800F2
:109000004C4B002071DE00087D420108DDDE0008C7
:109010000000000000000000000000000000000050
:10902000000000000000000000000000DDDE00087D
:10903000000000000000000041CF000885CF0008BC
:10904000A9360108B9360108DD3D0108ED3D0108EA
:1090500011200108D1460108E1460108F146010846
:1090600001470108D940010801410108DD35010827
:1090700009360108D52C0108F92C01081D2D01081D
:10908000412D0108ED430108FD4301080D4401088D
:109090001D440108FD3D0108514201082542010817
:1090A000DD22010871220108652D0108C530010883
:1090B000ED300108153101083D31010891310108F9
:1090C000002243088B4274D303098B425FD3030A07
:1090D0008B4244D3030B8B4228D3030C8B420DD31A
:1090E000FF22090212BA030C8B4202D312120902A8
:1090F00065D0030B8B4219D300E0090AC30B8B42E6
:1091000001D3CB03C01A5241830B8B4201D38B0393
:10911000C01A5241430B8B4201D34B03C01A524138
:10912000030B8B4201D30B03C01A5241C30A8B427B
:1091300001D3CB02C01A5241830A8B4201D38B0266
:10914000C01A5241430A8B4201D34B02C01A52410A
:10915000030A8B4201D30B02C01A5241CDD2C3097C
:109160008B4201D3CB01C01A524183098B4201D3F8
:109170008B01C01A524143098B4201D34B01C01AE3
:10918000524103098B4201D30B01C01A5241C3085B
:109190008B4201D3CB00C01A524183088B4201D3CA
:1091A0008B00C01A524143088B4201D34B00C01AB6
:1091B0005241411A00D20146524110467047FFE722
:1091C00001B5002000F0F0F802BDC0460029F7D03C
:1091D00076E7704703460B437FD4002243088B4257
:1091E00074D303098B425FD3030A8B4244D3030B2E
:1091F0008B4228D3030C8B420DD3FF22090212BAF3
:10920000030C8B4202D31212090265D0030B8B426E
:1092100019D300E0090AC30B8B4201D3CB03C01A58
:109220005241830B8B4201D38B03C01A5241430B33
:109230008B4201D34B03C01A5241030B8B4201D323
:109240000B03C01A5241C30A8B4201D3CB02C01A8E
:109250005241830A8B4201D38B02C01A5241430A06
:109260008B4201D34B02C01A5241030A8B4201D3F5
:109270000B02C01A5241CDD2C3098B4201D3CB019C
:10928000C01A524183098B4201D38B01C01A52414B
:1092900043098B4201D34B01C01A524103098B424F
:1092A00001D30B01C01A5241C3088B4201D3CB003A
:1092B000C01A524183088B4201D38B00C01A52411D
:1092C00043088B4201D34B00C01A5241411A00D2CD
:1092D00001465241104670475DE0CA0F00D0494236
:1092E000031000D34042534000229C4603098B42A6
:1092F0002DD3030A8B4212D3FC22890112BA030A2E
:109300008B420CD3890192118B4208D389019211AF
:109310008B4204D389013AD0921100E08909C30934
:109320008B4201D3CB01C01A524183098B4201D336
:109330008B01C01A524143098B4201D34B01C01A21
:10934000524103098B4201D30B01C01A5241C30899
:109350008B4201D3CB00C01A524183088B4201D308
:109360008B00C01A5241D9D243088B4201D34B0023
:10937000C01A5241411A00D20146634652415B1065
:10938000104601D34042002B00D549427047634646
:109390005B1000D3404201B5002000F005F802BD8B
:1093A0000029F8D016E770477047C0468446101C65
:1093B00062468C46191C634600E0C0461FB500F0AB
:1093C0009FFE002801D40021C8421FBD10B500F047
:1093D000F3FD4042013010BD10B500F091FE0028B1
:1093E00001DB002010BD012010BDC04610B500F00B
:1093F00087FE002801DD002010BD012010BDC04601
:1094000010B500F019FE002801DC002010BD01207D
:1094100010BDC04610B500F00FFE002801DA002094
:1094200010BD012010BDC0468446081C6146FFE700
:109430001FB500F03BFA002801D40021C8421FBD2F
:1094400010B500F0C7F94042013010BD10B500F072
:109450002DFA002801DB002010BD012010BDC04600
:1094600010B500F023FA002801DD002010BD012016
:1094700010BDC04610B500F0D5F9002801DC002071
:1094800010BD012010BDC04610B500F0CBF900287A
:1094900001DA002010BD012010BDC046F0B54F46D6
:1094A0004646C0B41604360C9946330005042C0C0D
:1094B000070C150C63437E436F4365431C0CAD19C9
:1094C00064199C46A64203D980235B029846474410
:1094D0006346250CEF191D044B464A4343432D0CAC
:1094E000240464199918C91920000CBC90469946A7
:1094F000F0BDC0469E2110B5C905041CFFF7C4FF8E
:10950000002803D1201C00F0AFFC10BD9E21201CC0
:10951000C90500F023FB00F0A7FC80231B069C4636
:109520006044F2E770B500220C4B04000D00FFF719
:1095300071FF002804D12000290001F019FC70BD42
:10954000064B00222000290001F0BEF801F010FCBB
:1095500080231B069C466044F1E7C0460000E041C2
:1095600070B501F073FC00220B4B0D00040000F0FD
:1095700031FEFFF7D7FF060001F030FC0022074B59
:1095800000F028FE02000B002000290001F09CF8EA
:10959000FFF7C8FF310070BD0000F03D0000F04152
:1095A000F0B5564644465F464D46F0B44402460088
:1095B000C70F83B08846650A360EBA463DD0FF2EE7
:1095C00022D00023EC00802599469B46ED042543DC
:1095D0007F3E43465C025800DB0F640A000E98464B
:1095E00036D0FF2830D080230021E400DB041C4368
:1095F0007F38301A0190484642460843724E800038
:1096000030587A4013008746002D44D108239946EC
:10961000063B9B46DDE70122FF2000241A4064023E
:10962000C305640AD2071C431443200003B03CBCAA
:1096300090469946A246AB46F0BD002D20D10423AA
:109640009946033B9B46C4E7002C17D1022102E058
:10965000002C0AD10121321A01924A4643460A439C
:109660005A48920082587B409746200001F042FC05
:10967000431F76309C4040420021BAE70321B8E7FF
:10968000280001F037FC431F9D40002376304642FE
:1096900099469B469DE70C239946093B9B4698E7D4
:1096A00080240022E403FF20B9E70024C2468B4651
:1096B0005A465346022AAED0032A7DD0012A31D120
:1096C000012200201A400024A9E70122101A1B28B9
:1096D00056DD1A4000200024A1E78023DB031D4251
:1096E0004BD18023DB032B435C02640A3A00FF204A
:1096F00095E76D016001854230D2019A0024013A5C
:1097000001921B220127290064006D00002901DB62
:10971000A84201D82D1A3C43013A002AF3D16A1E0F
:1097200095412C4301987F300028CEDD620704D09C
:109730000F222240042A00D00434220103D5244AF7
:10974000019814408030FE2800DD64E70122A40166
:10975000640AC0B21A4062E72C00A9E72D1A1A2247
:109760000124CFE76B02BCD500248023DB031C431C
:109770006402640A4246FF2051E71C42B3D1F4E779
:1097800021002022C140101A8440621E94410C43E3
:10979000620704D00F222240042A00D00434620160
:1097A00004D5012201201A40002438E70122A40137
:1097B000640A1A40002032E78023DB031C43640262
:1097C000640A5246FF202AE73C8901087C89010887
:1097D000FFFFFFF7430270B542004C005D0AC30F64
:1097E0004802120E460A240EC90FFF2A0FD0FF2C82
:1097F00011D00120A24200D070BDB542FCD18B42F5
:109800000DD0002AF8D12800431E9841F4E701202A
:10981000002DF1D1EBE70120002EEDD1E9E700208A
:10982000EAE7C0464302F0B542005D0AC30F4802B2
:10983000440A4800120E000EC90FFF2A1FD0FF284D
:1098400022D0002A09D16E426E4100280FD1002C8F
:109850000DD10020002D09D005E0002801D1002CF9
:1098600001D08B4213D0584201231843F0BD002E83
:10987000F7D048424141012049420843F6E7002D14
:10988000DDD002204042F1E7002CDAD0F9E7824235
:10989000E9DC04DBA542E6D80020A542E6D2584226
:1098A000434101205B421843E0E7C0464302F0B564
:1098B00042004C005E0AC30F4802120E450A240EF5
:1098C000C90FFF2A17D0FF2C19D0002A0BD17042E4
:1098D0007041002C17D0002807D048424141012098
:1098E00049420843F0BD002C13D08B4214D058429B
:1098F00001231843F6E70220002EF3D1E3E702200C
:10990000002DEFD1E1E7002DE5D10020002EE9D0B8
:10991000EDE7002DE9D1EAE7A242E8DC04DBAE4244
:10992000E5D80020AE42DDD25842434101205B42DF
:109930001843D7E7F0B557464E4645464300E0B4D6
:1099400046028846760A1F0EC40F002F47D0FF2F0D
:1099500025D0002380259A469946F600ED042E4333
:109960007F3F434642465D02D20F5B006D0A1B0EED
:10997000904640D0FF2B39D080220020ED00D20449
:1099800015437F3BFB1842465746591C62408C46A4
:1099900007430F2F5CD86F49BF00C9598F46002E6F
:1099A00045D108239A46063B9946DAE74246022803
:1099B0002DD0032800D1C3E0012800D0A2E000256B
:1099C00000260240D4B27602ED05760A2E43E40763
:1099D000264330001CBC90469946A246F0BD002E9E
:1099E0001AD104239A46033B9946BAE72A00511E2E
:1099F0008A41901CC6E70120002DC3D0280001F049
:109A000079FA431F76309D4043420020BAE7012493
:109A1000FF2514400026D6E7300001F06BFA431F03
:109A20009E400023763047429A46994699E70C2398
:109A30009A46093B994694E780260024F603FF25C1
:109A4000C1E735004846B2E7350022004846AEE798
:109A50002904090C0800370C3604360C2C0C794309
:109A6000704367437443060C64183619B14203D936
:109A700080214902884647440004000C310409183B
:109A80008D01681E8541890E2943350CED19AD0104
:109A90000D43290104D5012369081D4063460D4388
:109AA00019007F31002925DD680704D00F202840E8
:109AB000042800D00435280103D5274980330D4000
:109AC0001900FE29A3DC0124AD016E0A1440CDB2B9
:109AD00079E78020C003064207D0054205D128431C
:109AE0004602760A4446FF256DE706437602760A6B
:109AF000FF2568E70124611A1B2905DD14400025B4
:109B0000002660E76346CBE72E002023CE40591A9B
:109B10008D406B1E9D412E43730704D00F233340AD
:109B2000042B00D00436730104D501240125144010
:109B3000002648E70124B601760A1440002542E7D2
:109B400080260124F6032E437602760A1440FF2570
:109B500039E7C046BC890108FFFFFFF7F8B54A02A4
:109B60004E0043024400240EC50F9B09360EC90F58
:109B70009209FF2E00D183E001204140A01BA942A1
:109B80005CD0002800DC95E0002E1CD1002A00D01B
:109B900081E05A0704D00F221A40042A00D004336F
:109BA0005A013BD50134FF2C00D191E001209B01EB
:109BB0005B0AE4B205405B02E4055B0AED07234360
:109BC0002B431800F8BDFF2CE3D08021C9040A43C1
:109BD0001B2800DD90E016002021C640081A8240B4
:109BE000511E8A4132439B1A5A0115D59B019E0989
:109BF000300001F07FF90538864084426CDC041B9C
:109C0000330020200134E340041BA640721E96411D
:109C100000243343BDE70D005A07BCD1DF08012300
:109C20001D40FF2C33D1002F00D190E08022D203C1
:109C300013003B435B025B0AFF24BCE700284FDDB7
:109C4000002E2ED0FF2CA4D08025ED042A431B2803
:109C500000DD97E016002025C640281A8240501EDD
:109C6000824132439B185A01D5D50134FF2C6DD067
:109C700001227B481A405B08034013430D0088E72C
:109C8000002A00D07AE777E7031EC5D100257B02C2
:109C90005B0AE4B28FE701380028A4D0FF2C97D1EB
:109CA00077E7002A00D174E701380028DAD0FF2CCA
:109CB000CDD16EE7002821D1601CC0B2012858DD4B
:109CC00080279E1AFF0437402FD0D61A0D008FE749
:109CD00001231D4000236EE7624B241A334058E7EE
:109CE000002851D1601CC6B2012E33DDFF282DD0D3
:109CF0009B185B0804004CE7012274E7002C1AD083
:109D0000FF2E1FD08024E404404223431B2800DDA3
:109D100096E01D002024C540201A8340581E834130
:109D20002B43D31A34000D005EE7002E00D05FE70E
:109D300000250024ABE7002B44D0C0430028F0D01E
:109D4000FF2EE3D11300FF240D0022E70D00FF24B6
:109D5000002330E7002C5DD1002B7DD0002A00D1FC
:109D600017E79B185A0100D456E73E4A04001340F7
:109D70000FE7002C1ED1002B2FD1002A65D0130035
:109D80000D0006E701226DE7002C1FD1002B59D0F2
:109D9000C04300280BD0FF2E4FD01B285EDC1D00D7
:109DA0002024C540201A8340581E83412B439B1812
:109DB000340058E7002B1CD1002A49D013000D00B5
:109DC000FF24E6E6130034000D00E2E6FF2E34D057
:109DD0008024E40440422343DFE7002A00D1D8E690
:109DE0008027981AFF04074000D14DE7D31A0D00D1
:109DF000CFE6FF24002A00D1CBE68020DB08C00399
:109E0000034204D0D208024201D113000D00DB004E
:109E1000FF24BEE6002B10D0FF24002A00D1B8E6B4
:109E20008020DB08C003034203D0D208024200D1E5
:109E30001300DB000D00FF24ABE61300FF24A8E6AF
:109E400001236EE713003400A3E6002700251EE778
:109E500080270025FF03E9E613009AE60123A6E721
:109E6000FFFFFF7DFFFFFFFB4302590A4300C20FC4
:109E70001B0E00207E2B0EDD9D2B0DDC80200004B0
:109E80000143952B0BDC9620C31AD9400B00584296
:109E9000002A00D118007047034BD018FBE7963B0F
:109EA00099400B00F3E7C046FFFFFF7F70B5002825
:109EB00030D0C317C5185D40C40F280001F01AF850
:109EC0009E231B1A962B0DDC9622D21A95406A020D
:109ED000520AD8B25202C005520AE4070243224392
:109EE000100070BD992B19DC9922D21A9540124AA4
:109EF0002A40690704D00F210D40042D00D0043200
:109F0000510103D50C4B1A409F231B1A9201520A90
:109F1000D8B2DFE7002400200022DBE705222E0074
:109F2000121AB921D6402A00C91A8A40551EAA41E0
:109F300035001543DBE7C046FFFFFFFB70B5041E8D
:109F400028D000F0D7FF9E231B1A962B0ADC9622FE
:109F5000D21A94406202520AD8B25202520AC00582
:109F6000104370BD992B18DC9922D21A9440114AE3
:109F70002240610704D00F210C40042C00D0043291
:109F8000510103D50B4B1A409F231B1A9201520A11
:109F9000D8B2E2E700200022DFE705222500121AEE
:109FA000B921D5402200C91A8A40541EA2412C0072
:109FB0001443DCE7FFFFFFFBF0B55F4656464D4616
:109FC0004446F0B41F035C00DB0F9A46194B0E03A6
:109FD0004D00C90F8046360B6D0D8B4691463F0BE9
:109FE000640D9D4219D0134B9C421BD00123A54206
:109FF00006D018003CBC90469946A246AB46F0BD40
:10A00000BE42F6D1C845F4D1D34510D0002DF0D1D1
:10A01000304303005A1E9341EBE731000123014313
:10A02000E7D1E0E73A430123002AE2D1DEE700234B
:10A03000DFE7C046FF070000F0B55F4644465646DE
:10A040004D46F0B41F033C0B2C4F0E034D00A346AE
:10A050005C008446360B6D0DC90F9046640DDB0F16
:10A06000BD422BD0254FBC422ED0002D0ED1304307
:10A070000700814678427841002C17D15F463A4369
:10A0800014D14B460020002B0AD006E0002C02D150
:10A090005846024301D099421AD00123484218433E
:10A0A0003CBC90469946A246AB46F0BD0028F2D093
:10A0B00058425841012240421043F1E7370007431C
:10A0C000D0D002204042EBE75F461743CDD0F8E7FF
:10A0D000A542E2DC05DB5E45DFD808D000205E4506
:10A0E000DED248424841012340421843D8E7C445E4
:10A0F000D3D80020C445F4D3D2E7C046FF07000000
:10A10000F0B55F464D4644465646F0B41C03240B5A
:10A11000A4462F4C0F034D005E00C90F80463F0B35
:10A120006D0D8B469146760DDB0FA54220D0284C55
:10A13000A64222D0002D12D1384344424441002E81
:10A1400020D0002C0DD05C42634101245B421C43B3
:10A1500020003CBC90469946A246AB46F0BD002E7E
:10A1600017D05B4519D05B465C4201231C43EFE7E7
:10A17000390002240143EBD1D9E76146022411439F
:10A18000E6D1D7E761460A43DBD100240028DFD0BF
:10A19000E9E761460A43E4D1E5E7B54203DD012280
:10A1A0005C421443D4E7B542CDDB6745DBD809D028
:10A1B00000246745CCD259464C42614101244942B2
:10A1C0000C43C5E7C845CED80024C845F3D3BFE744
:10A1D000FF070000F0B55F4656464D464446F0B4D2
:10A1E0000D0399464E002B0B87B007009246804620
:10A1F0009B46760DCC0F002E69D06D4B9E4235D01C
:10A200005B468022DD001204430F13432B439B4621
:10A21000C3009846674B00279C4600236644019381
:10A220004A4615035000D20F53462D0B400D914660
:10A2300000D176E05E4A90426CD080225B0F12041F
:10A2400013435C4AED0094461D4353460022DB0055
:10A25000604449463618701C6140029017430F2F26
:10A2600000D9AFE05448BF00C759BF465B461F4303
:10A2700000D088E000239B469846023308270193CC
:10A28000CEE74946022A6AD0032A00D109E2012A10
:10A2900000D0BBE111400022002300259046CCB243
:10A2A00000212D030A0D12052D0B1543434A1B05F2
:10A2B00015401D436D00E4076D0825434046290005
:10A2C00007B03CBC90469946A246AB46F0BD03435E
:10A2D00052D05B46002B00D18AE1584600F00AFEBE
:10A2E00003000B3B1C2B00DD7BE11D22D31A3A003F
:10A2F00001005D46DA4008398D4013008F402B4342
:10A300009B46B8462E4B00279C460023604446429D
:10A31000019385E752462A432CD1002500230222CF
:10A3200097E752462A4321D0002D00D154E128005E
:10A3300000F0E0FD03000B3B1C2B00DD46E11D217E
:10A34000CB1A51460200D9405346083A95409340F3
:10A350000D431B4A944660444042002279E70124A1
:10A3600000220C40124B0025904699E7002500235F
:10A3700001226EE703226CE700239B4698460133D7
:10A38000042701934CE703230C27019348E700239C
:10A390008025984600242D03054B81E75D46434602
:10A3A000019A6FE75D4643462100019A6AE7C0467D
:10A3B000FF07000001FCFFFFFC890108FFFF0F8081
:10A3C000F30300004246120C91461A0C9446424692
:10A3D00017044A461B041B0C5A43604690464A46E3
:10A3E00042431000039262461C003F0C7A437C43B8
:10A3F00042440192220C9246019A5244904506D959
:10A400008246802040028046C24450460390100C91
:10A41000049048462404240C1204121905922A0CB4
:10A420002D042D0C68432C00824648467C43504343
:10A430008146200C8046574357444744BA4503D9C8
:10A44000802040028046C144380C3F04B84648444E
:10A450002404240C01900498A044404404905846DD
:10A46000000C814658460404200C824607004846EA
:10A470005F434C46434360466043644683465046D0
:10A480004443380C8446E4186444A34203D980232F
:10A490005B029C46E34448463F04230C3F0C2404E3
:10A4A000E419574668436F4384464D46504655432A
:10A4B0004243380C814662444A445B44944503D984
:10A4C000802040028446654403983F0483460498F4
:10A4D0003F0C8446E344C345804140428246100419
:10A4E00084460198674484466744A344BC46A34518
:10A4F000A4419946D44464428742BF41D445804137
:10A50000E144A04699459B417F424042C8440743ED
:10A51000120CBA18A045A4415F423B006442234399
:10A52000D71843467D19DB0D6D021D435B465A0269
:10A53000059B1A43531E9A415B46DB0D1A43434663
:10A540005B021343EA0107D501225C081340234351
:10A55000EA07029E13436D08574AB218002A4BDDE2
:10A56000580709D00F201840042805D0181D98421C
:10A570009B415B42ED180300E80104D54F4A1540AA
:10A580008022D200B2184E48824200DDE7E6012464
:10A59000DB08680718436D02530580462D0B5B0DE1
:10A5A0000C407DE6802259461203114208D0154224
:10A5B00006D115432D0398462D0B4C46414B6FE6B3
:10A5C0005D4615432D032D0B3E4B69E603005546B2
:10A5D000283B9D400023BCE6504600F08BFC203019
:10A5E000A8E60300283B9F400023BB46984689E627
:10A5F00000F080FC203073E60124A61A382E07DD17
:10A6000000220C4000230025904649E6029EA3E765
:10A610001F2E20DC20222C001800921BF0409440BA
:10A6200093400443581E83411C43F540630709D0FF
:10A630000F232340042B05D023001C1D9C42924174
:10A640005242AD182B021FD5012400220C400123D9
:10A650000025904624E61F202C004042821AD44058
:10A66000202E1CD04022961BB5402B43581E834100
:10A670000720234318400025002809D00F22002579
:10A680001A401C00042AD8D1230068076D022D0B44
:10A690000124DB08034398460C40002300E6002514
:10A6A000E3E780220124120315432D0398462D0B66
:10A6B0000C40044BF4E5C046FF030000FFFFFFFE23
:10A6C000FE070000FF070000F0B557464E4645461E
:10A6D000E0B40E001100F20F9246C500420F1803BD
:10A6E00037037400400A4E0F7F0A3043CF4E1743A2
:10A6F0005A00640D520DDB0FC900B24200D1E5E0F3
:10A7000001267340A61AB446534500D1AFE0002E8F
:10A7100000DC0DE1002A3AD103000B4300D0E4E055
:10A720006B0709D00F232B40042B05D02B1DAB4208
:10A73000AD416D427F191D003B0200D488E0BB4B48
:10A7400001349C4200D110E13A00B94B51461A4005
:10A7500001235007ED08520264050543120B640DF6
:10A760000B400021280012030D0D120B64052D056E
:10A7700015436208AF4CDB072C40144364006408A7
:10A780001C4321001CBC90469946A246F0BDA74B35
:10A790009C42C5D080231B0418436346382B00DD40
:10A7A000FDE01F2B00DD30E1624620239B1A0200F2
:10A7B0009A40664690460A009940F24046464B1E33
:10A7C00099413243114363460200DA40691A8D42CF
:10A7D0009B410D00BA1A5B42D71A3B0235D57A026B
:10A7E000530A98464346002B00D1C4E0404600F08F
:10A7F00081FB0300083B1F2B00DDC5E02022290060
:10A80000D21A4746D1409F400A009D403A439C429D
:10A8100000DDC0E01C1B631C1F2B00DDE4E02021D9
:10A8200014002800C91AD8408C408D400443DA40F7
:10A83000681E854117002543002471E742466346A0
:10A840001A4300D14CE2674645466B0700D069E7E2
:10A85000012351467807ED08FA080B400543734978
:10A860008C4238D012036405120B640D79E7002E78
:10A8700000DC9AE0002A47D06C4A944200D14FE7AE
:10A880008022120410436246382A00DC08E10143AA
:10A89000481E81410022C9B24919D219A942BF41BB
:10A8A0000D007F42BF183A0200D442E15F4A0134F2
:10A8B000944200D14EE101205D4A69083A402840A7
:10A8C0000843D507054357089A4629E706000E4373
:10A8D00000D017E714E72900114300D1F9E18021E6
:10A8E00009030A431203120B3BE701235B4298461C
:10A8F000C4446346002B72D1691A8D429B413F1AB2
:10A900005B42FF1A0D0068E702000A4300D107E727
:10A91000012252429046C4446246002A00D0E6E03A
:10A920006918A942B6413F187642F7190D00BAE7F7
:10A93000002E00D080E0621C5205520D012A00DC7E
:10A94000F9E06A1A91464D45B6413A1A7642921B91
:10A950009046120200D499E04D1BA9428941C71BC1
:10A9600049427A1A90469A463CE75246012300250E
:10A9700013400022F5E6280000F0BCFA2030030066
:10A98000083B1F2B00DC39E72A00283882400025CD
:10A990009C4200DC3EE7264FE41A1740C0E6014324
:10A9A000481E81410022C9B210E7002E00D0F1E01C
:10A9B000621C94465205520D012A00DCA0E01B4A9D
:10A9C000944500D1C5E06918A94292413F1852420E
:10A9D000D2194908D5070D4357086446A0E6134B22
:10A9E0009C4200D0D9E69BE611001F3CE1400C00E0
:10A9F000202B00D180E04021CB1A9A4015436A1EDB
:10AA000095410027254300241FE763460200203BB1
:10AA1000DA406346202B71D0402366469B1B98404A
:10AA20000143481E814111430022CFE6FF07000089
:10AA3000FFFF7FFFFFFF0F80002C48D0CA4CA242CF
:10AA400000D1A2E07442A1468024240427434C464E
:10AA5000382C00DDDBE01F2C00DD44E14E462024D5
:10AA6000A41B3E00A640A246B0464C462E00E6403F
:10AA7000B4464646644626435446A5406C1EA5414E
:10AA800034002C434D46EF400D1B28E04A46434618
:10AA90004D461A4300D0A5E6002300240025DEE63B
:10AAA0001F2A5ADC66462022921B060096409146D9
:10AAB000B04662460E00D640424616434A46914092
:10AAC0004A1E9141020060463143C240E4E63C0028
:10AAD0002C435AD0F443A146002C52D14D1BA9421D
:10AAE0008941C71B49427F1A14009A4675E69E4A5F
:10AAF000944200D0C7E613E600227FE700208FE7EC
:10AB0000002C00D0C8E03B002B4300D10FE1030034
:10AB10000B4300D104E66918A9429B413F185B42F0
:10AB2000DF193B0200D41AE1904B0D001F40644630
:10AB3000F6E59A4689E63A002A43002C5CD1002AC1
:10AB400075D102000A4300D1CAE007000D009A4601
:10AB5000E6E564460022002581E662460600203ACA
:10AB6000D6406246B046202A00D1B7E04022664671
:10AB7000921B904001434246481E814111430022EE
:10AB80008AE6794CA24200D061E707000D0014006C
:10AB90009A46C5E5002C41D13C002C4378D0F443C3
:10ABA000A146002C20D0704CA24271D04C46382CCB
:10ABB00000DDB2E01F2C00DDBCE02026341BA246E5
:10ABC0003C005646B4404E46A0462C00F440A446F5
:10ABD000444666463443A4465446A54064466E1E29
:10ABE000B54125434C46E7406D188D4289413F18D9
:10ABF0004942CF19140056E6002A2FD102000A4319
:10AC000000D184E007000D009A46574C88E53D438B
:10AC10006F1EBD41ECB200270D1B60E7524CA242F3
:10AC200036D0744280263604A1463743BEE7020080
:10AC30000A4300D174E56A1A90464545B6413A1A6E
:10AC40007642921B9446120200D4F7E54D1BA942AE
:10AC50008941C71B49427F1A9A4661E502000A43AF
:10AC60003AD0ED087C072C438025FA082D032A42B0
:10AC700008D0C7082F4205D145072C003A009A4654
:10AC8000C9080C43670FD200E5001743364C47E56F
:10AC900007000D00140043E53A002A4343D00200A8
:10ACA0000A4319D0ED087C072C438025FA082D03B0
:10ACB0002A4207D0C6082E4204D147073C00320082
:10ACC000C9080C43D700620FE50017439A46264C8B
:10ACD00026E50022002544E5234C21E5002049E734
:10ACE00000230025BBE54C463E00203CE6404C4698
:10ACF000B446202C31D040244E46A61BB7403D43DD
:10AD00006C1EA54164462C4300270D1BE7E68022FC
:10AD100000231203144C0025A1E53D436F1EBD41E5
:10AD20000027EDB260E707000D000F4CF8E40700C4
:10AD30000D00F5E44E463C00203EF440A0464C4653
:10AD4000202C0ED040244E46A41BA7403D436F1E2E
:10AD5000BD4144460027254346E70027CFE70D00C5
:10AD600073E50027F2E7C046FF070000FFFF7FFF03
:10AD70000B0330B5134D1A0B4B005B0DC90F0024AC
:10AD8000AB4211DD104CA34210DC8024640322434B
:10AD90000E4CE41A1F2C0CDD0D48C31ADA401300C8
:10ADA0005C42002900D11C00200030BD094BCC18AA
:10ADB000FAE7E040084CA44663449A40130003437A
:10ADC000EEE7C046FE0300001D040000330400004F
:10ADD00013040000FFFFFF7FEDFBFFFF70B5051EB2
:10ADE00028D000F087F8154B154A1B1AD21A1F2AD3
:10ADF00016DD2C00134A0025D21A94405A0524036C
:10AE0000240B520D002124030B0D240B1B0523439F
:10AE10000D4C1205234013435B002800590870BDF8
:10AE20000B212C00081AC440954024035A05240B1A
:10AE3000520DE7E700220024E4E7C0461E040000AC
:10AE40003304000013040000FFFF0F804200120EC5
:10AE5000511C4302C9B270B55D0AC40F012915DD4A
:10AE6000E02189008C466D071B0B624400212800FD
:10AE70000D0D2D052B431C4D52052B40520813433D
:10AE80005B00E4075B082343190070BD002A15D15D
:10AE9000002D1FD0280000F02DF80A281DDC0B2300
:10AEA0002A001B1ADA4013000200153295400F4A9F
:10AEB0001B03121A52051B0B520DD7E7002D06D0AB
:10AEC00080221B0B120313436D07094ACEE7084A81
:10AED0000023CBE700220023C8E703000B3B9D4083
:10AEE0002B000025E3E7C046FFFF0F808903000029
:10AEF000FF0700001C2101231B04984201D3000C12
:10AF000010391B0A984201D3000A08391B099842DC
:10AF100001D30009043902A2105C40187047C046F2
:10AF20000403020201010101000000000000000012
:10AF3000F8B54A02430244004E00C50F240E280013
:10AF40009B09360EC90F92098D4259D0A01B0028CB
:10AF500000DC8DE0002E1AD1002A00D079E05A07DB
:10AF600004D00F221A40042A00D004335A0138D5E5
:10AF70000134FF2C00D189E028009B015B0AE4B278
:10AF80005B02E4055B0A2343C0071843F8BDFF2CAE
:10AF9000E5D08021C9040A431B2800DD89E01600A2
:10AFA0002021C640081A8240511E8A4132439B1A12
:10AFB0005A0114D59B019E093000FFF79BFF05380D
:10AFC0008640844265DC041B330020200134E340CA
:10AFD000041BA640721E964100243343BFE75A0764
:10AFE000BFD1DF082800FF2C2FD1002F00D187E030
:10AFF0008022D20313003B435B025B0AFF24BFE7BE
:10B00000A11B002949DD002E29D0FF2CA7D08026C6
:10B01000F60432431B2900DD8DE017002026CF40C7
:10B02000711A8A40511E8A413A439B185A01D6D55B
:10B030000134FF2C64D0012276491A405B080B4092
:10B0400013438CE7031ECAD100207B025B0AE4B2E3
:10B0500096E701380028AAD0FF2C9DD17FE7002A6F
:10B0600000D17CE701390029DFD0FF2CD2D176E76F
:10B07000002820D1601CC0B2012853DD80279E1A11
:10B08000FF0437402FD0D61A0D0095E72800002383
:10B0900076E7614B241A334061E700294DD1611CEA
:10B0A000CEB2012E2FDDFF292AD09B185B080C00A1
:10B0B00055E701227BE7002C1BD1002B5BD0C0435E
:10B0C00000280CD0FF2E7ED01B2800DD92E01D0052
:10B0D0002024C540201A8340581E83412B43D31A95
:10B0E00034000D0064E7002E00D065E70020002446
:10B0F000ABE7FF2E67D08024E40440422343E3E71C
:10B10000FF2400233CE7002C61D1002B7ED0002AD5
:10B1100000D124E79B185A0100D460E73E4A0C0096
:10B1200013401CE7002C1ED1002B2FD1002A66D023
:10B1300013000D0013E7012277E7002C1FD1002B2D
:10B140005AD0C94300290BD0FF2E50D01B295FDCF9
:10B150001F002024CF40611A8B40591E8B413B4376
:10B160009B18340062E7002B1CD1002A4AD0130040
:10B170000D00FF24F3E6130034000D00EFE6FF2E70
:10B1800035D08024E40449422343DFE7002A00D17C
:10B19000E5E68027981AFF04074000D152E7D31A4A
:10B1A0000D00DCE6FF24002A00D1D8E68020DB0871
:10B1B000C003034204D0D208024201D113000D00A3
:10B1C000DB00FF24CBE61300FF240D00C7E6002BB5
:10B1D0000DD0FF24002A00D1C1E68021DB08C9037D
:10B1E0000B42EDD0D2080A42EAD11300E8E713007F
:10B1F000FF24B4E6012372E713003400AFE6002712
:10B20000002022E780270020FF03F1E61300A6E6D6
:10B210000123A5E7FFFFFF7DFFFFFFFB43025A0A63
:10B2200040004B024900000E5B0A090EFF2803D0C4
:10B230000020FF2906D07047FE38002AFBD10020ED
:10B24000FF29F8D11800431E9841F4E7F0B556469F
:10B250004D4644465F46F0B41D000E034C00CB0F34
:10B2600087B0070092468146360B640D98466AD037
:10B270006D4B9C4235D08022430F12041343F600DD
:10B280001E43C3009946694B00279C460023644433
:10B2900002932B0368001B0BED0F51469B46400D9C
:10B2A000009500D178E0604B98426CD05B46DA00A4
:10B2B0004B0F802109040B4313439B465346D9008F
:10B2C0005A4B9C46002360444246201A6A409246EC
:10B2D00001901F430F2F00D9B0E05548BF00C0595F
:10B2E0008746374300D088E0002399460233082779
:10B2F00000260293CDE74346B34649460093029B9E
:10B30000009A9246022B00D0BFE100215346012251
:10B31000002689461A40444B002136030C0D2405B3
:10B32000360B2643434C1B0526401E437600D207AE
:10B33000760816434846310007B03CBC9046994613
:10B34000A246AB46F0BD330003434FD0002E00D1E0
:10B35000BCE13000FFF7CEFD03000B3B1C2B00DDF2
:10B36000ADE11D220100D31A08393A008F408E400A
:10B37000DA40B9461643304B00279C460023604410
:10B380004442029385E753465A4613432CD1002387
:10B3900000219B46023397E70B4320D05B46002BEE
:10B3A00000D19EE15846FFF7A5FD03000B3B1C2B87
:10B3B00000DD8FE102005946083A91408B461D217D
:10B3C000CB1A5146D9400B0059460B4351469B4678
:10B3D0009140194B9C4660444042002374E700238F
:10B3E00000219B4601336FE703236DE70023994655
:10B3F00001330427002602934BE703230C27029313
:10B4000047E70122D51A382D00DCB0E153461A4037
:10B4100000210023002689467EE7002380269946E6
:10B4200000223603004B77E7FF07000001FCFFFF17
:10B430003C8A0108FFFF0F80F30300005E4500D93E
:10B4400072E100D16DE1019B4D46013B0193002368
:10B45000340002935B461E020B0E1E430B02039345
:10B46000330C994633041B0C494620000093FDF72A
:10B4700027FE009B370043430600494620009846BC
:10B48000FDF7A4FE2C0C09040C43A04509D9E419CE
:10B49000731EA74200D95CE1A04500D859E1023EE5
:10B4A000E4194346E41A49462000FDF709FE03006B
:10B4B000009A80465343494620009B46FDF786FE8E
:10B4C0002A040904120C0A4393450DD94346D219A4
:10B4D000013B974200D93AE1934500D837E1022376
:10B4E0005B429C46D219E0445B46D21A434636047E
:10B4F00033439B460399180C0B0C1D00059309045C
:10B500005B46090C0C001B041B0C4443049159437B
:10B510006B4368431B190D0CEB189C4203D9802424
:10B520006402A44660441C0C09041B04090C201886
:10B530005D18824200D2DEE000D1D7E0161A029BED
:10B540009C465D1BAC459B415B42F61AB74200D15D
:10B5500006E149463000FDF7B3FD009B040043437C
:10B56000494630009846FDF731FE2E0C09040E4383
:10B57000B04509D9F619631EB74200D9F3E0B045CA
:10B5800000D8F0E0023CF6194346F31A4946180089
:10B590000293FDF795FD009B060043434946029840
:10B5A0009846FDF713FE2D0409042D0C0D43A84504
:10B5B00009D9ED19731EAF4200D9D6E0A84500D8CD
:10B5C000D3E0023EED192404210043463143049E9A
:10B5D000059A3000ED1A0B040C0C1B0C5843664303
:10B5E000534354439A19030C9B189E4203D980225B
:10B5F0005202944664441A0C00041B04000C1419F3
:10B600001B18A54250D34DD001231943964A019BE4
:10B6100094466344002B00DCF3E64A0709D00F226E
:10B620000A40042A05D00A1D8A42894149428B44B6
:10B6300011005A46D20108D55A468C4B1A409346FF
:10B640008022D2009446019B6344894A934200DDE4
:10B650005BE65A46C9085007084356025146012284
:10B660005B058146360B5B0D0A4055E680231B03C4
:10B670001E4211D05A461A420ED15E461E43360370
:10B68000360B2A0089467B4B46E6032B00D1E1E0CE
:10B69000012BBBD11A40BBE61E433603360B424694
:10B6A000744B39E6002BB1D07D194A1EAF4252D9F6
:10B6B0001100A542A8D1039A9A42A5D1A6E703009A
:10B6C0003E00283B9E400023994654E6FFF712FCBB
:10B6D000203041E603005246283B9A400021934621
:10B6E00077E65046FFF706FC20305EE6029B002618
:10B6F000AB4200D323E7039E0299B44661448846D7
:10B70000B045B6415B467642F619B218013B02914C
:10B71000974213D290424FD800D18EE0161A9B4622
:10B720000DE7894500D28EE674084B46F6073500D2
:10B730005B081D434B46DB0702938BE69742EDD136
:10B740000399029CA142E5D93E1A9B46F7E698462A
:10B75000CAE61E00A5E6AC423ED874D0110053E7FD
:10B760000121494252E71C000EE71E002BE71F2D66
:10B770003CDC20230A0058465B1B9840EA40994075
:10B780000243481E81415E461143EE404B0709D0FB
:10B790000F230B40042B05D00B00191D99429B4130
:10B7A0005B42F61833023CD55346012200211A4071
:10B7B000002601238946AFE502235B429C46039C99
:10B7C000E344A446029B63449846A045B6417642B2
:10B7D000F6190293B218B1E603988A1E410081421D
:10B7E000B6417642F619AD19039161E71F22524224
:10B7F000D31A5A46DA401300202D29D04022584649
:10B80000551BA8400143481E814107200B431840A7
:10B810000026002809D00F2200261A401900042A09
:10B82000BBD10B0070077602360BDB080343994649
:10B83000012253461A4000236EE502998D42BBD87F
:10B840009B4600267BE603989842C5D3110032E759
:10B850000020D7E780265B4636031E433603360BAF
:10B86000009A8946034B57E5FF030000FFFFFFFEE8
:10B87000FE070000FF0700004B0070B55E0D0C03D3
:10B88000751C640A420F6D052243C90FC4006D0D7B
:10B89000012D2ADD3B4BF318FE2B1ADC002B42DD79
:10B8A0008001451EA841D2001043620F0243500799
:10B8B00004D00F201040042800D004328020C0049F
:10B8C000104021D00133FF2B03D09201520ADBB28A
:10B8D00001E0FF2300225202520ADB0513435B0002
:10B8E000C9075B080B43180070BD002E07D0144336
:10B8F000EFD08020D20080040243FF23D7E7224309
:10B900000023002A03D00522D208FF2B03D05202C5
:10B91000520ADBB2DFE7002A32D08020C0030243A4
:10B920005202520AD7E71800173014DB80200004B7
:10B9300002431E20C01A1F280FDC2500124BF318EB
:10B940009D406E1EB5419A402B0013432200C24019
:10B950001A430023ABE70023D5E702256D42EB1A1B
:10B960001500DD40202809D0084BF3189A401443F5
:10B97000621E9441220000232A4398E70022F6E742
:10B980000022A8E780FCFFFF82FCFFFFA2FCFFFF74
:10B9900010B54B0709D5054AD16B054B1960116CE1
:10B9A0005960526C9A6000F00BFC10BD00300040F2
:10B9B0007805002000B589B02022002168460CF0EF
:10B9C00039FE0D4B0093343301930C4B029301234A
:10B9D0006A46D37603226946CA754B754B740222B8
:10B9E000CA730B740B338B8102338B73044807F0DB
:10B9F000B9F809B000BDC046840500204C300040B5
:10BA00004020014010B588B0554C02220B21200087
:10BA100007F032FA02220A21200007F02DFA514CD9
:10BA200002220421200007F027FA0222052120002B
:10BA300007F022FA01A900230B7001224A708A70D4
:10BA4000CB700B714B718B71CB710B724A728A7216
:10BA5000CA720B734B73042088730138C8730B745C
:10BA60000A76414B4B61414C200006F0E1FA00237D
:10BA700006220021200006F0ABFB01230622002154
:10BA8000200006F0A5FB022306220021200006F07C
:10BA90009FFB032306220121200006F099FB0423CB
:10BAA00006220121200006F093FB05230622012136
:10BAB000200006F08DFB062306220721200006F059
:10BAC00087FB072306220721200006F081FB0823BD
:10BAD00006220721200006F07BFB0923062208210D
:10BAE000200006F075FB0A2306220821200006F03C
:10BAF0006FFB0B2306220821200006F069FB0023C0
:10BB000001220921200006F091FB012301220A21D4
:10BB1000200006F08BFB022301220B21200006F0FF
:10BB200085FB6268124B13408022920313436360CB
:10BB30006268104B13408022920213436360626874
:10BB40000D4B13406360FFF735FFA26802231343D8
:10BB5000A3606368802212061343636008B010BDBF
:10BB6000000008203000082091B900080030004093
:10BB7000FFFFDFFFFFFFFDFFFFFFEFFF70B543009B
:10BB8000181880000A4B1B1800200022094C1900CD
:10BB90001D68A54200D91C60096840180132D2B264
:10BBA0000433032AF3D10321FDF78AFA70BDC0469E
:10BBB00084050020FF0F00008100064B064A8A58CA
:10BBC0009A4203D90B000349034A99508000024B63
:10BBD000C0587047FF0F00007805002010B584B0F2
:10BBE00006F0B6FF01AC0C22002120000CF022FD73
:10BBF00001232372200006F033FF04B010BDC046BD
:10BC000010B501220E210E4807F026F90D4B196ED2
:10BC100001220A431A66196E02220A431A66196E35
:10BC200004220A431A66196E08220A431A66196E1C
:10BC300010220A431A66196E20220A431A6610BDA2
:10BC4000300008200030014010B51C4C00220821B3
:10BC5000200007F011F900220821200007F072F9F6
:10BC600000220821200007F0F7F800220E21200012
:10BC700007F002F901220E21200007F063F90022EB
:10BC80000E21200007F0E8F801220821200007F02B
:10BC900063F90B49082007F007FA00220C21200065
:10BCA00007F0EAF801220C21200007F04BF90122ED
:10BCB0000C21200007F0D0F810BDC046300008204D
:10BCC00001BC000810B5FFF79DFE00F0EBF8FFF790
:10BCD000BBFFFFF783FF10BD10B50821034807F035
:10BCE000C5F8431E9841C0B210BDC04630000820C0
:10BCF00070B590B01E4C01220121200007F0BCF865
:10BD000001220021200007F0B7F80BAC142200211B
:10BD100020000CF08FFC07AD1022002128000CF051
:10BD200089FC01AE1822002130000CF083FC0323B3
:10BD3000A371023BE3712372E3722373E3732374F1
:10BD4000AB70AC6002226A7310322A73AB73EB7370
:10BD500075603372074B198889B20748FDF7B0F94F
:10BD60000138F0813100054807F0CEFC10B070BDFD
:10BD7000000008207CB0010800366E010030014050
:10BD800070B590B01E4C01220521200007F074F818
:10BD900001220421200007F06FF80BAC14220021CF
:10BDA00020000CF047FC07AD1022002128000CF009
:10BDB00041FC01AE1822002130000CF03BFC0222B5
:10BDC00022700123E3712372E3722373E3732374FC
:10BDD000AB70AC606A7310322A73AB73EB7375602F
:10BDE0003372084B198889B20748FDF769F90138A1
:10BDF000F0813100054807F087FC10B070BDC046E7
:10BE0000000008207CB0010800366E0100300140BF
:10BE100070B590B01F4C01220321200007F02CF8D0
:10BE200001220221200007F027F80BAC1422002188
:10BE300020000CF0FFFB07AD1022002128000CF0C1
:10BE4000F9FB01AE1822002130000CF0F3FB0423B3
:10BE50002370013BA371023BE3712372E3722373EE
:10BE6000E3732374AB70AC6002226A7310322A73DE
:10BE7000AB73EB7375603372074B198889B207484F
:10BE8000FDF71EF90138F0813100054807F03CFC50
:10BE900010B070BD000008207CB0010800366E01B3
:10BEA0000030014010B5FFF723FFFFF769FFFFF7F0
:10BEB000AFFF10BDC000034B9C46604400230361EC
:10BEC0008161704700300140012819D1194B1A6E69
:10BED00001218A431A661A6E01318A431A661A6E64
:10BEE00002318A431A661A6E04318A431A661A6E40
:10BEF00008318A431A661A6E10318A431A6618E0AE
:10BF00000C4B196E01220A431A66196E02220A436B
:10BF10001A66196E04220A431A66196E08220A4329
:10BF20001A66196E10220A431A66196E20220A43F5
:10BF30001A66704700300140C000034B9C466044C5
:10BF4000806880B27047C0460830014010B502F0EA
:10BF50005DF8024A024B9A6062B610BD009000087C
:10BF600000ED00E010B5FFF7F1FF01F099FD04F0DE
:10BF700061FE05F077F802F0D3FC05F01DFF00F03C
:10BF800017FE02F06BFA02F011FBFFF79BFE08F0C0
:10BF90009DFC00F0FFF8FEE710B582B000F0A6FFB0
:10BFA0002B4B1B68012B24D12A4B019301240094B5
:10BFB000002380222849294801F05EF9284B01938B
:10BFC0000094002330222749274801F055F9274BD8
:10BFD00001930094002330222549264801F04CF9B2
:10BFE000254B01930094002330222449244801F07A
:10BFF00043F9244B01930124009400234022224959
:10C00000224801F039F9224B019300940023402289
:10C010002049214801F030F9204B0193022300937D
:10C020000023A02292001E491E4801F025F91E4B54
:10C0300001930094002340221C491D4801F01CF983
:10C04000002001F00FFA00F05DFF02B010BDC04605
:10C0500000B00108C00500207C8A0108B5C00008B6
:10C06000C80500208C8A0108CDC00008D00500203A
:10C070009C8A0108E9C00008B4050020AC8A0108C8
:10C0800005C10008B8050020BC8A010849C10008A4
:10C09000BC050020DC8A010861C10008CC05002035
:10C0A000F48A010821C10008C4050020088B01089A
:10C0B00079C1000800B583B001F064FA019000F086
:10C0C00083FD012101A801F0EFFBF8E700B583B083
:10C0D00001F058FA0190002000F082F9052101A832
:10C0E00001F0E2FBF7E7C04600B583B001F04AFA81
:10C0F0000190012000F074F90A2101A801F0D4FB9D
:10C10000F7E7C04600B583B001F03CFA0190022089
:10C1100000F066F9322101A801F0C6FBF7E7C0463E
:10C1200000B583B001F02EFA019008F0BBFB08F0D7
:10C13000BDFB08F0C7FB08F0BDFB08F0BFFB012109
:10C1400001A801F0B1FBF0E700B583B001F01AFAE5
:10C15000019005F013F90A2101A801F0A5FBF8E709
:10C1600000B583B001F00EFA019004F05DFC0A21E5
:10C1700001A801F099FBF8E700B583B001F002FADD
:10C18000019002F03DFA04F00BFB0A2101A801F036
:10C190008BFBF6E700B583B00023019301330093D6
:10C1A000002330220449054801F066F8012801D136
:10C1B00001F0AEF9FEE7C046248B010899BF0008E4
:10C1C00010B508F05FFB08F069FB08F05FFB08F0B2
:10C1D00061FB10BD0822002809D10AE0C046013BDE
:10C1E000DBB2002BFAD1013880B2002801D0130055
:10C1F000F4E77047F8B500286EDD4400220C374B99
:10C200009A4207D806251A00A400013D230C934248
:10C21000FAD900E00625630E203BDBB29B00304AD2
:10C220009E5836042200002330000021FDF736F925
:10C230004900C00F0843320000230021FDF72EF90A
:10C240004900C00F0843C0273F06381A32000023B8
:10C250000021FDF723F94900C60F0E4322000023F9
:10C2600030000021FDF71AF94900C00F08433200E1
:10C2700000230021FDF712F94900C00F0843381AC6
:10C28000320000230021FDF709F94900C70F0F43D1
:10C290002E000C3E002033001F331EDB2200002343
:10C2A00038000021FDF7FAF84900C00F08433300B9
:10C2B0000F3301DA000C2E1DF31D01DA000A0836D7
:10C2C000731C04DA40080136731CFBD101E0002E18
:10C2D00003D00130400800E00020F8BDFF3F00001F
:10C2E0003C8B010810B5C004FFF784FF10BDC046A9
:10C2F000022819D80D4A8D23DB00584310180C4B27
:10C300009C466044002303706346D35CDB070BD478
:10C31000084BD35CDB0707D4074BD35CDB0703D4A4
:10C32000137A7F210B4013727047C046D03500202E
:10C3300062060000CA0A0000320F0000064B00220D
:10C3400006495A5406495A5406495A541A7A7F21C2
:10C350000A401A727047C046D035002062060000BD
:10C36000CA0A0000320F000010B500F0CBFB094BE9
:10C370005B7A70221A4204D001221343054A537299
:10C3800005E0044810221343437200F0BFFB00F0A5
:10C39000BBFB10BDD0350020024B00221A755A7528
:10C3A0007047C046D035002070B504000B4B1D7D92
:10C3B00000203B2D10D81E00587D40193C21FCF771
:10C3C000EFFF881CC00030180630082221000CF056
:10C3D000F3F801353575012070BDC046D035002019
:10C3E000F0B557464E464546E0B484B00190484B00
:10C3F0001B7A7F2B00D884E0464E00239846002508
:10C400004246B146B379DB076FD5337901998B4248
:10C410006BD17388013B9BB27380002B65D133884D
:10C42000738000248D23DB0053431F00B2462B1979
:10C4300002AA137000F066FBE000001BC000C019E8
:10C44000F930FF30324B9C466044031D4430834238
:10C450002ED2E200121BD200D2196244FD32FF320A
:10C460001168002924D002AA01321E79042E0AD1B3
:10C470000E7816700E68360A56704E889670C97817
:10C48000D17004320BE0022E06D10E881670098896
:10C49000090A5170023202E0097811700132083342
:10C4A00004A98A4204D2984202D019680029DCD13A
:10C4B000174B5B7A70221A4207D002A8FFF774FF6D
:10C4C000002809D100F020FB08E020221343104A85
:10C4D000537202A800F01AFB00F016FB0134E4B21C
:10C4E00053465B79A342A2D24E461435EDB20123E6
:10C4F0009C46E0448D23DB009C4666443C2D00D0E6
:10C500007EE704B01CBC90469946A246F0BDC046EA
:10C51000D03500202C3C002010B500F053FB154B0B
:10C52000154AD35A0020002B22D0FF2B05D8DBB2AE
:10C53000104A11498852104906E0013BFF3B0D4A61
:10C540000D498B520023F6E70A6914788888201871
:10C55000888001320A61013BDBB2002BF4D1054B2C
:10C56000054AD35A0120002B02D1FFF7FDFE00201F
:10C5700010BDC046360F0000D0350020F8B50400CD
:10C580000378012B00D15CE2052B28D154E2D54B76
:10C590001B7ADB0604D4FFF7D1FE0022D14B5A727E
:10C5A000D0490B7A10229343202213430B72CD4BB8
:10C5B000FF221A7000225A7061789970FE21D9709A
:10C5C0009A80DA8035E2C74B1B7A9A0600D43DE2A6
:10C5D0002022934310221343C24A137236E2C14B06
:10C5E0001A7A930600D431E2BE4BFF211970002164
:10C5F0005970417899700578232D00D916E2AB0067
:10C60000B949CB589F46B94B1A780023002A0FD15D
:10C6100014E020239A43B34B1A728378002B04D181
:10C6200010231A43AF4B1A7203E2FFF787FE00E2B2
:10C63000AE490133DBB2CA5C002AFAD1A94AD370F1
:10C64000002313719371433353714B33D371A74B51
:10C65000D360EEE18378002B06D14168C07800F00A
:10C6600095FAA04BD860E4E132229E4B5A70E0E18B
:10C670008178C31C4A1ED2B2002900D1D9E104320C
:10C68000841898491A78C8680270CA680132CA606A
:10C690000133A342F6D1CCE1831C083491491A78C6
:10C6A000C8680270CA680132CA6001339C42F6D180
:10C6B000BFE18278531EDBB2002A00D1B9E1181D18
:10C6C000884BC01803338749CA6812781A7001333F
:10C6D000CA680132CA609842F6D1AAE1C07861689E
:10C6E00000F054FA7F4B1861A278531EDBB2002A87
:10C6F00000D19EE1181D7B4BC018033379490A69AC
:10C7000012781A7001330A6901320A618342F6D144
:10C710008FE18078FFF7ECFDA278022A19D88D23EB
:10C72000DB005A43F932FF326E4BD218131D7049A9
:10C730008C466244934204D2002119700133934223
:10C74000FBD1684A117A02230B431372FFF724FED0
:10C7500000E00025634AD570A37814214B43137180
:10C7600067E18378022B05D8C178132902D80279B2
:10C77000072A07D95B4B31225A700021C832FF3299
:10C78000995056E1574CC800411A8D204343CB18AD
:10C790009B183F33DB001B190433FC225200A350CB
:10C7A00047E183785A1E012A01D9042B05D1FC23C5
:10C7B0005B004C4AD558002D03D13122494B5A70A9
:10C7C00037E1E1790906A3791B04C91863791B02D3
:10C7D000CB1821795918E07800F0D8F92860FC23AB
:10C7E0005B00404AD358A2781A7122E1930703D420
:10C7F00022223C4B5A701CE18378012B08D0002B7D
:10C8000002D0022B41D07DE0C078FFF771FD10E12E
:10C81000C678022E00D90CE105794379C179090265
:10C820008079411889B28D20C00070432D4F38188F
:10C83000CC27FF00BC4660440370002900D10131C1
:10C840008D23DB0073432748C3182A48181801803A
:10C850002949591801200880284959180D7028497C
:10C860008C46634404211970E078022800D9E0E086
:10C870001C498D23DB004343CB186344012018700F
:10C8800080235B421A430A72D3E0C578022D00D997
:10C89000CFE000796379E2791202A1798A1892B225
:10C8A0008D21C90069430F4C6118CC24E400A446D3
:10C8B00061440B70002A00D101328D23DB006B43F1
:10C8C0000849CB180B4959180A800B4A9A180121BC
:10C8D00011800A4A9A181070094A94466344042247
:10C8E0001A70A6E0D0350020BC8C010800000020A2
:10C8F0006C0400005C0600005E060000610600009B
:10C90000620600003122524B5A7092E0930703D422
:10C9100022224F4B5A708CE08378002B02D0012BDF
:10C9200003D019E0FFF70AFD83E00023484D0126FC
:10C93000484C4949591849190878042800D10E7003
:10C940008D21C9008C466344A342F2D180235B420F
:10C950001A433F4B1A726CE031223D4B5A7068E02B
:10C960003B4B0222DA7000225A60DA681A6183882F
:10C970001B0442881A43002B02D03221344B5970D9
:10C98000334B36495A525B78002B52D15EE04379E3
:10C99000190603791B04CB18C27812029B18817800
:10C9A00059182B4BD86800F0FFF842E08278284DE8
:10C9B0000330E96800F0FAF8A378EA689446634423
:10C9C000EB60022835D141E0214D02300622E968B2
:10C9D00000F0ECF8EB680633EB60022829D135E073
:10C9E0001B4BD86800F0DAF823E0194C0023E37001
:10C9F00000F0CEF860601CE044239A4314490A72A8
:10CA00008378442003401A430A72A278144BCA5414
:10CA10000FE00F4B124A9A5CDA7000221A7108E09C
:10CA20000B4B0222DA70013A1A7102E03022084BF5
:10CA30005A70FFF799FC09E04388002B00D1B6E556
:10CA4000C1E54388002B00D0BDE5A0E5F8BDC04698
:10CA5000D0350020380D000062060000360F0000BF
:10CA6000340F000010B51F4A537A70211800884314
:10CA7000507201241C4007D071229343194A53720B
:10CA8000FFF772FC01242AE0164B1B7A7F2B26D974
:10CA900000F038F8134B1C7D002C1ED01C005A7A75
:10CAA000202313436372607D0230C00000190630FA
:10CAB00000F02CF8637D0133DBB23B2B02D8094A2E
:10CAC000537502E00022074B5A75064A137D013B5D
:10CAD000137500F019F8012401E000F015F82000AA
:10CAE00010BDC046D0350020044B054A99180022DD
:10CAF0001A7001338B42FBD17047C046D0350020FD
:10CB0000380F000072B6704762B6704710B5184B08
:10CB100008225A7200225A7300231549C25C0C691C
:10CB2000E2540133082BF9D1114B1B691B78132BED
:10CB300003D8104A0E4B1A6011E01A00143A132A57
:10CB400003D80D4A0A4B1A6009E0283B132B03D87F
:10CB50000A4A074B1A6002E0094A054B1A60012293
:10CB60000349084804F048FA0122074B1A7010BD27
:10CB7000CC340020D1070000D2070000D30700000A
:10CB8000D407000000780040D50500200800704759
:10CB9000014B18787047C046D6050020014B18702D
:10CBA0007047C046D60500207047C0460020704739
:10CBB00010B5FFF799FF0022014B1A7010BDC04657
:10CBC000D60500207047C04610B50C4B1B78012BD2
:10CBD00006D10022094B1A70094B1869FFF7CEFCE9
:10CBE00072B6A023074AD258C0239B021A4201D131
:10CBF000FFF738FF62B6FFF78FFC10BDD4050020A9
:10CC0000803300200078004010B5124B00E0130084
:10CC10001A688242FBD359685C18A04203D140686D
:10CC2000411859601800446801198A420CD10A4A17
:10CC30001268914206D04A68141944601A68126852
:10CC4000026002E0016000E00260984200D01860DB
:10CC500010BDC046E4050020E005002070B50400CA
:10CC600000F088FC3C4B1B68002B20D13B4A53074B
:10CC700008D0D11D07239943A0239B01D3185B1A29
:10CC80000A0001E0A0239B013548026000214160B9
:10CC9000D318083B072083432F480360596019606D
:10CCA000991A516013602F4B19602F4B1960002C9B
:10CCB0004CD0072323401A0010239B1ADA439442D6
:10CCC00044D8E318002B3DDD274A1668B34239D813
:10CCD000234A146801E022000C0061688B4202D9EB
:10CCE00021680029F7D11C4909688C422AD01568AF
:10CCF000216811606268D21A102A08D9E018410729
:10CD000001D072B6FEE742606360FFF77DFF6268A4
:10CD1000B31A15490B60134909688B4201D21149B6
:10CD20000B60083580231B061A43626000232360D2
:10CD30000E4A13680133136000F018FD6B0708D02A
:10CD400072B6FEE700F012FD002502E000F00EFDD5
:10CD50000025280070BDC046E0050020F005002039
:10CD6000E4050020F02D0020DC050020D80500207F
:10CD700010B5002823D00300083B5B68002B01DBC3
:10CD800072B6FEE70200083A1268002A01D072B6B5
:10CD9000FEE7083804005B005B08436000F0EAFB34
:10CDA000074A636811688C46634413602000FFF7EC
:10CDB0002BFF044A13680133136000F0D7FC10BD49
:10CDC000DC050020EC05002003000833436001224D
:10CDD00052428260C3600361002303607047C04613
:10CDE000002303617047C04643684B609A688A60BD
:10CDF0009A68516099600861036801330360704765
:10CE000030B50C6802000832631C02D1026904E0EC
:10CE10001A0053681D68AC42FAD253684B6099609F
:10CE20008A605160086103680133036030BDC04609
:10CE300003694268816891608268416851605A68FC
:10CE4000904201D182685A60002202611A68013A58
:10CE50001A6018687047C04682B000230193064BE1
:10CE60001B68013301D072B6FEE772B6019B002B3E
:10CE7000FCD002B07047C046100000200000000047
:10CE80000B4A13681868203080F30988022080F369
:10CE90001488BFF36F8F3FBCAE4608BC04BC62B6BB
:10CEA0001847C046C046C046C046C046C046C046F9
:10CEB000A42E002010B5031F802464041C60043BD2
:10CEC0001960043B02491960143B1A60403810BDD8
:10CED00059CE000880225205034B1A60BFF34F8FD2
:10CEE000BFF36F8F7047C04604ED00E072B6044A8E
:10CEF000136801331360BFF34F8FBFF36F8F704719
:10CF000010000020064B1B68002B01D172B6FEE713
:10CF1000013B034A1360002B00D162B67047C04644
:10CF200010000020EFF3108072B6704780F3108875
:10CF30007047C04600000000000000000000000034
:10CF4000EFF309800E4B1A6820381060F0C0444699
:10CF50004D4656465F46F0C008B572B600F030FD4B
:10CF600062B60CBC116808681030F0C8A046A9462B
:10CF7000B246BB4680F309882038F0C81847C0463F
:10CF8000A42E002010B5FFF7CDFF040000F032FB07
:10CF9000002803D080225205024B1A602000FFF7C0
:10CFA000C5FF10BD04ED00E070B5144D2C68FA21EA
:10CFB00089002000FCF784F80100114B186011482B
:10CFC000FCF77EF8104B186021002000FCF778F881
:10CFD00001005E20FCF774F80C4B18600C4C002329
:10CFE00023600C4A13602868FA218900FCF768F86E
:10CFF0000138094B18600723236070BD2000002012
:10D00000F42D0020FFFFFF00FC2D0020F82D002054
:10D0100010E000E018E000E014E000E010B50C4B78
:10D020001A68FF2109040A431A601A68FF210906D9
:10D030000A431A60FFF7B8FF0022064B1A60FFF799
:10D040001FFF00F0BDFCFFF707FF002010BDC0462A
:10D0500020ED00E01000002070B504003F4B1D687B
:10D0600072B6BFF34F8FBFF36F8F00F0F7FC00284D
:10D0700001D162B670E00622394B1A60394B19684B
:10D08000002901D1384B19682B00A54200D9230093
:10D09000581E354A126842435218344909684901FA
:10D0A00006D58024A40431490C602F490968521A1E
:10D0B0002F4909688A4200D9521A2E490A60002471
:10D0C00028490C60264C2568012129432160002B4A
:10D0D00004D0BFF34F8F30BFBFF36F8F62B6BFF383
:10D0E0004F8FBFF36F8F72B6BFF34F8FBFF36F8F4A
:10D0F0001B4906240C600968C90310D51A4B19682E
:10D10000184B1B68CB18013B9A1A194B1B689A42A3
:10D1100001D9914200D24A1E164B1A600EE0114A04
:10D120001468114A15686B431C1B29002000FBF78B
:10D13000C7FF431C5D432C1B0E4B1C600022094B98
:10D140001A600732064B1A60074B1B68013B094AFD
:10D15000136000F01DFA62B670BDC046FC2D0020C1
:10D1600010E000E018E000E0F42D002004ED00E005
:10D17000F82D002014E000E0094B1A68094B1B68E9
:10D18000DB6A0020002B0AD1074B1B68012B06D855
:10D19000002A04D1054B1B68054A1068181A70470D
:10D1A000FC2E0020A42E0020282E0020A82E0020D7
:10D1B000B02E0020084B1B681B68002B04D10122F5
:10D1C0005242064B1A6005E0034B1B68DB681A6885
:10D1D000024B1A607047C046042E0020A82E002083
:10D1E00070B504000D001E4B1E681E4B18680430FD
:10D1F000FFF71EFE631C16D1002D14D01A4A516889
:10D20000184B1868816018688C68C4608C6818684E
:10D21000043060601868043088601B685A611368C5
:10D22000013313601AE034190E4B1B685C60A64290
:10D2300007D90E4B18680B4B19680431FFF7E0FD56
:10D240000CE00B4B1868074B19680431FFF7D8FD49
:10D25000084B1B689C4201D2064B1C6070BDC04647
:10D26000B02E0020A42E0020E82E0020B42E002096
:10D27000042E0020A82E0020F0B5474680B482B0CE
:10D2800000900E00019395002800FFF7E7FC041EB4
:10D2900000D1C7E05820FFF7E1FC071E0ED058224E
:10D2A00000210BF0C7F93C632A00A52120000BF0F8
:10D2B000C1F93B6B9846002E04D11EE02000FFF719
:10D2C00057FDAFE00022B2563423FA540023F35640
:10D2D000002B0FD0731C3A00353239003E3100204C
:10D2E0001856107000201856002803D00133013260
:10D2F0008A42F4D100223D23FA54089B042B01D921
:10D3000072B6FEE7089E042E00D90426FE62BE64B3
:10D310003C1D2000FFF764FD38001830FFF760FD6A
:10D320003F6105239B1BBB617F62281F404407238D
:10D330009843019A0099FFF7BDFD3860099B002BC7
:10D3400000D01F60FFF7D2FD394A13680133136024
:10D35000384B1B68002B23D1364B1F601368012B01
:10D360002AD1354D2E0064362800FFF72DFD1435E7
:10D37000AE42F9D1314E3000FFF726FD304D280086
:10D38000FFF722FD2F48FFF71FFD2F48FFF71CFD79
:10D390002E48FFF719FD2E4B1E602E4B1D600BE033
:10D3A0002D4B1B68002B07D1224B1B68DB6AFA6AE6
:10D3B000934201D81F4B1F60284A13680133136042
:10D3C0003B64FB6A264A1268934201D9244A1360DF
:10D3D00019499A00D3189B00CB185B68BB609A6808
:10D3E000FA609A6854609C60FB6A9800C2189200C8
:10D3F0008A187A61C218920052580132C3189B00F1
:10D400005A50FFF77FFD144B1B680120002B0BD0F7
:10D41000084B1B68DA6AFB6A9A4205D2FFF75AFD8D
:10D42000012001E00120404202B004BC9046F0BD62
:10D43000D02E0020A42E0020282E0020102E002008
:10D44000D42E0020B82E00208C2E0020E82E0020A4
:10D45000042E0020B42E0020082E0020CC2E002008
:10D46000FC2E002070B50400FFF740FD002C01D118
:10D47000204B1C68251D2800FFF7DAFCA36A002B4F
:10D4800003D020001830FFF7D3FC1B4A1368013388
:10D490001360184B1B689C4208D129001748FFF7FE
:10D4A000A3FC174A13680133136005E0154A13689B
:10D4B000013B1360FFF77EFEFFF724FD0D4B1B6859
:10D4C0009C4205D0206BFFF753FC2000FFF750FC77
:10D4D0000D4B1B68002B0BD0064B1B689C4207D1E1
:10D4E0000A4B1B68002B01D072B6FEE7FFF7F2FC77
:10D4F00070BDC046A42E0020CC2E00208C2E002013
:10D50000A02E0020D02E0020082E00200C2E00205F
:10D5100000B583B0104B0193002300938022D2000A
:10D520000E490F48FFF7A8FE01280DD172B601225F
:10D5300052420C4B1A6002320B4B1A6000220B4B0A
:10D540001A60FFF76BFD03E0431C01D172B6FEE7E2
:10D55000074B1B6803B000BDAC2E00204C8D0108AA
:10D5600025D90008A82E0020082E0020B02E00206B
:10D5700014000020024A1368013313607047C0464C
:10D580000C2E0020014B18687047C046B02E0020BA
:10D5900010B50400134B1B68134A12681B18934202
:10D5A00001D972B6FEE70F4B1B680F4A1268C31809
:10D5B000934212D10D4B1B68002B01D172B6FEE7CE
:10D5C000002801D172B6FEE7FFF790FC084A136805
:10D5D00001331360FFF796FC013C024A1368E4181C
:10D5E000146010BDB02E0020A82E00200C2E0020AC
:10D5F000242E0020F0B5474680B4514B1B68002B09
:10D6000000D094E04F4B1C6801341C60002C12D1F8
:10D610004D4B1B681B68002B01D072B6FEE74A4ACF
:10D6200011684A4B186810601960494A1368013341
:10D630001360FFF7BFFD474B1B6800209C4265D37A
:10D640000020414B9846002643461B681B68002B70
:10D6500004D1012252423F4B1A6057E03A4B1B68FB
:10D66000DB68DB685A68944202D23A4B1A604DE09C
:10D670005A699968DF688F60D9689F684F60191D83
:10D6800057688F4201D1DF6857605E611768013FBC
:10D6900017609A6A002A10D0DF691D6ABD601F6A90
:10D6A000DD697D601F0018375568BD4201D11D6AD4
:10D6B00055609E621768013F1760DA6A264D2F6831
:10D6C000BA4200D92A609700BA189200234DAC469E
:10D6D000624452689A609568DD60976879609160ED
:10D6E000DA6A9700B9188900654661445961B9182A
:10D6F000890049590131BA1892005151184A1168EC
:10D70000DA6ACB6A9A429FD901209DE7144B1B68C5
:10D71000DB6A9A00D3189B00104A9B58012B00D952
:10D720000120104B1B68002B06D0012004E00E4A9C
:10D73000136801331360002004BC9046F0BDC0465E
:10D740000C2E0020B02E0020042E0020B42E00202D
:10D75000002E0020A82E0020FC2E0020282E0020C5
:10D76000A42E0020002F0020242E0020F8B5464BC8
:10D770001B68002B01D172B6FEE7FFF7B7FB424BE7
:10D780001A68013A1A601B680024002B77D13F4BBE
:10D790001A680023002A4ED171E0F368DB689C6AA6
:10D7A000DA691D6A95601A6ADD6955601A001832D7
:10D7B0006568954201D11A6A626098622268013AEE
:10D7C00022605D699A68DC689460DA689C685460DD
:10D7D0001C1D6A68A24201D1DA686A6058612A6831
:10D7E000013A2A60DA6A2A4D2D68AA4201D9284DE9
:10D7F0002A609500AA1892008A1852689A60956863
:10D80000DD6095686C609460DA6A9500AC18A400DD
:10D810000C195C61AC18A40064580134AA18920079
:10D8200054501C4A1268D26ADC6A944207D301221F
:10D83000194C226003E0194F3E00002018493A6855
:10D84000002AAAD1002B01D0FFF7B4FC154B1C68AD
:10D85000002C0CD0104E0125FFF7CCFE002800D084
:10D860003560013C002CF7D100220E4B1A600A4BA8
:10D870001B680024002B02D0FFF72CFB0134FFF7BC
:10D8800041FB2000F8BDC0460C2E0020D02E002009
:10D89000FC2E0020A42E0020002F0020B82E0020F7
:10D8A000282E0020242E002070B505000C00002832
:10D8B00001D172B6FEE7002901D172B6FEE7174B1F
:10D8C0001B68002B01D072B6FEE7FFF753FE144B26
:10D8D00018682A68A318904208D29A4219D9984227
:10D8E000A44164422B60984209D204E09A420DD8C8
:10D8F00098420BD30DE0181A0021FFF771FCFFF7D7
:10D9000035FF002808D1FFF7E5FA05E02B60012478
:10D91000F1E72B600024F2E7200070BD0C2E002000
:10D92000B02E0020F0B5474680B41F4B98461F4FDD
:10D930001F4E43461B68002B18D01B4DFFF7D6FA2D
:10D94000FB68DC68201DFFF773FA3368013B336026
:10D950002B68013B2B60FFF7D5FA206BFFF708FA25
:10D960002000FFF705FA2B68002BE7D1114B1B684D
:10D97000012B01D9FFF7AEFAFFF7FEFB0128D8D93A
:10D98000FFF7F8FD0C4B1A680C4B1B689A4201D24A
:10D9900072B6FEE7FFF7F0FB012801D9FFF75CFB49
:10D9A000FFF7E4FEC5E7C046A02E00208C2E002025
:10D9B000D02E0020282E0020A82E0020B02E0020DF
:10D9C00010B5214B1B68002B03D001221F4B1A609E
:10D9D00038E000221D4B1A601D4B1B689A00D218BC
:10D9E00092001C495258002A0DD1002B02D003E0AE
:10D9F000002B01D172B6FEE7013B9A00D2189200CB
:10DA00005258002AF4D0134C9A00D118890061189A
:10DA1000486840684860D21892000832A2189042C4
:10DA200005D141689A00D2189200A21851609A005C
:10DA3000D218920007498A185268D168064A1160C4
:10DA4000034A136010BDC0460C2E0020002F00209A
:10DA5000FC2E0020282E0020A42E00200B4B1B683B
:10DA60000020002B11D10A4B1B68002B0DD1094B54
:10DA70001B68002B09D1084B1B68084A1068013845
:10DA8000181A431E98410223181A7047B82E002016
:10DA9000002F0020242E0020E82E0020D02E002071
:10DAA00010B5084C00220821200005F0E5F90022FD
:10DAB0000721200005F0E0F901220721200005F0F0
:10DAC00041FA10BD3000082010B5124C0122082187
:10DAD000200005F037FA01220821200005F0BCF9EA
:10DAE00001220721200005F0B7F90420FEF772FBA0
:10DAF00000220821200005F0AFF90420FEF76AFBA0
:10DB000000220721200005F0A7F90420FEF762FBA0
:10DB100010BDC0463000082010B50E4C012208216F
:10DB2000200005F00FFA00220821200005F094F9EA
:10DB30000420FEF74FFB01220721200005F08CF99D
:10DB40000420FEF747FB01220821200005F084F99C
:10DB500010BDC04630000820F8B50500012208219C
:10DB6000164805F0EFF908248027144E2F4205D0FF
:10DB700001220821300005F06FF904E0002208219D
:10DB8000300005F069F96D00ADB20420FEF722FB0C
:10DB900001220721300005F05FF90420FEF71AFB8F
:10DBA00000220721300005F057F90420FEF712FB90
:10DBB000013CE4B2002CD9D1F8BDC04630000820A9
:10DBC00070B5184C00220821200005F0BBF9012295
:10DBD0000821200005F040F90420FEF7FBFA01229D
:10DBE0000721200005F038F90420FEF7F3FAFB24A2
:10DBF0000C4D06E0013CE4B2002C02D1FFF78CFF93
:10DC00000EE00821280005F031F90028F2D10022A9
:10DC10000721044805F020F90420FEF7DBFA01246F
:10DC2000200070BD3000082010B5124C01220821E0
:10DC3000200005F087F900220821200005F00CF9EA
:10DC40000420FEF7C7FA01220721200005F004F99D
:10DC50000420FEF7BFFA00220721200005F0FCF89F
:10DC60000420FEF7B7FA01220821200005F0F4F89D
:10DC700010BDC0463000082010B50F4C012208210D
:10DC8000200005F05FF901220821200005F0E4F8EA
:10DC90000420FEF79FFA01220721200005F0DCF89E
:10DCA0000420FEF797FA00220721200005F0D4F89F
:10DCB0000420FEF78FFA10BD30000820F8B50700E9
:10DCC0001A4C00220821200005F03CF9012208210D
:10DCD000200005F0C1F808260024144D0122072178
:10DCE000280005F0B9F80420FEF774FA6400E4B2E5
:10DCF0000821280005F0BAF8002801D00134E4B268
:10DD000000220721280005F0A7F80420FEF762FA98
:10DD1000013EF6B2002EE1D1002F02D1FFF7ACFF99
:10DD200001E0FFF781FF2000F8BDC0463000082069
:10DD300070B504000D001600821880235B000020DF
:10DD40009A4238DC002935D0FFF7BEFEA020FFF74D
:10DD500003FFFFF735FF002828D0A0B2FFF7FCFE35
:10DD6000FFF72EFF002821D0FFF7AEFEA120FFF71E
:10DD7000F3FEFFF725FF002818D0B31E9BB2012E3B
:10DD80000AD02C000133ED182E000120FFF796FF7A
:10DD900020700134B442F8D10020FFF78FFF2870C3
:10DDA000FFF76AFFFFF7B8FE012004E0FFF7B4FEBB
:10DDB000002000E0002070BDF0B557464E464546B5
:10DDC000E0B492468418802252000023944249DC39
:10DDD000002946D083B299465346002B35D00F0018
:10DDE0000025FF2398464B465E19B6B2002D01D0A0
:10DDF00073071ED1FFF790FEFA208000FEF7EAF9C4
:10DE00000024FFF761FEA020FFF7A6FEFFF7D8FE73
:10DE1000002804D10134A4B2642CF2D11DE0642C9A
:10DE20001BD040463040FFF797FEFFF7C9FE0028A1
:10DE300013D03878FFF790FEFFF7C2FE00280CD011
:10DE40000135ADB20137AA45CDD1FFF765FEFA2005
:10DE50008000FEF7BFF9012304E0FFF75DFE012318
:10DE600000E0002318001CBC90469946A246F0BD75
:10DE7000002103E00F4B5B58435004310E480F4B19
:10DE800042189A42F6D30E4A03E00023136004239B
:10DE90001A440C4B9A42F8D300F048F90A480B494F
:10DEA00001800B48094901800A480B490180FEF7AF
:10DEB00059F87047589301080000002078050020A9
:10DEC000780500204C47002014000820FFFF0000C8
:10DED0004400082074000820FF030000FEE7000053
:10DEE00082B00022019201380A4B58609A600532D4
:10DEF0001A601900802252020B680193019B1342A1
:10DF0000FAD0044B1A6801218A431A6000229A60F1
:10DF100002B0704710E000E000B583B000226B460D
:10DF2000DA71002006F000F9012006F009F9012855
:10DF300005D104F045FD01226B46DA7105E00020B1
:10DF400004F03EFD00226B46DA71002004F022FD51
:10DF5000012006F027F901280CD1002004F03CFD37
:10DF6000082004F045FD602004F052FD012004F07B
:10DF700009FD0BE06B4607331B78012B03D1022010
:10DF800004F000FD02E0002004F0FCFC03B000BD42
:10DF90000B4B0C4A1A600C4A1A600C4B0C4A1A6064
:10DFA000802189020B4A11608022520019680A43BD
:10DFB0001A60094A80231B0611680B4313607047DF
:10DFC000002000401178AC00674523011420004078
:10DFD000312000004020004004200040F8B50A4BEA
:10DFE0001B6843431F001D0E08D0002480267604C2
:10DFF0003000FFF775FF0134A542F9D13802000A5D
:10E00000FFF76EFFF8BDC046042F002010B584B0A6
:10E010000F226A44002313700E2169440B700D21F6
:10E0200069440B7003A90B700B2169440B700A2122
:10E0300069440B70092169440B7001938020C0056D
:10E04000036803242340137003689B059B0F01336F
:10E050000B701378DBB2012B08D0002B02D0022BFF
:10E060004AD04CE02C4A2D4B1A6048E08021C9056B
:10E070000B68DB02DB0F0B226A4413700B689B06F4
:10E080009B0F013303A8037025480B589B0F254CA9
:10E09000E35CDBB20A246C4423700B589B00DB0E5C
:10E0A0005B000E246C4423700B58DB0BDBB20D219C
:10E0B00069440B701378002B03D0174A174B1A6072
:10E0C00002E0154A154B1A600D236B4418780A2399
:10E0D0006B441978C9B2114C23685843FAF7F0FF22
:10E0E000019001980E236B44197803AB1B785943B8
:10E0F000FAF7E6FF206002E0074A084B1A6009239E
:10E100006B441978C9B2054B1868FAF7D9FF064B6A
:10E11000186004B010BDC04600127A002000002034
:10E12000908800001C0000202400002010B5074B40
:10E13000074A9A60074A084B1A60FFF729FFFFF762
:10E14000EBFE012004F030FC10BDC04600ED00E005
:10E1500000900008006CDC022000002003789A0781
:10E16000D20F50005A07D20F92008218D807C00F62
:10E1700010181A07D20FD2008018DA06D20F120137
:10E1800080189A06D20F520180185A06D20F9201B7
:10E190008018DB09DB01C018C0B27047F0B54746F4
:10E1A00080B407000D001400132200210AF042FA87
:10E1B0000022194B1A70012C02D0022C14D027E037
:10E1C000164C26001236144B98462000FFF7C6FF67
:10E1D0002840854204D143461B78013342461370E0
:10E1E0000134B442F1D113E00C4E01240A4B98469D
:10E1F0003000FFF7B3FF284205D043461B785A1C76
:10E2000041460A70FC540134E4B20136132CEFD1BC
:10E21000380004BC9046F0BD6833002075340020FF
:10E22000F8B5040000220F4B1A70133200210AF0D7
:10E2300001FA0123002000270B4E0125D9B29A00D4
:10E24000B218D278D20703D57A1CE155D7B228008C
:10E250000133132BF2D1002801D0024B1F70200094
:10E26000F8BDC0467034002004B001088000034BA4
:10E270001818C078C007C00FC0B2704704B00108BA
:10E28000C007C00FC0B2704770B5122800D9B7E000
:10E290005C4A821883005C4CE318DB78DB0760D5AE
:10E2A0005A4B1B78012B5CD1012900D098E01178E2
:10E2B0001943C9B202230B43D9B220230B43EF21E8
:10E2C0000B40AF398B4308210B431370504B1E7822
:10E2D000B0421ED01C0031000025002303E00834AA
:10E2E0002178884215D0002900D01D000133DBB20F
:10E2F000042BF4D171E0002D04D1002E02D1444B47
:10E30000187003E00135ED00414BE8540121414B09
:10E310001970414B187080003B4B1818C3789B074D
:10E32000DB0F012B6AD142E001243C4B1C70354BC2
:10E330001B5CDB070DD5374B1C700023344D0026CA
:10E34000EC5C844202D1324C1C1926700833202B1D
:10E35000F6D12C4C235C0825AB43073DAB4323543B
:10E3600017E02A4B1B78002B13D101242B4B1C7078
:10E37000244D2B5C0826B343A3431F34A3431E3C08
:10E38000A34310242343DBB2402423437F242340B0
:10E390002B5480001C4B1818C3789B07DB0F012BF4
:10E3A00010D11A4B1B78012B2AD1012923D11378C4
:10E3B000802149420B43137022E013787F210B40E8
:10E3C00013701DE0002B1BD1104B1B78012B17D1B4
:10E3D00013787F210B40137012E0022D8BD998E740
:10E3E0000029A1D08000084B1818C3789B07DB0FC9
:10E3F000012BE7D1D9E7002902D1DEE7002BE7D0D6
:10E4000070BDC0467434002004B0010854330020AD
:10E410005C320020243500204C330020463300209D
:10E42000037801229343013293437D3213400370FA
:10E430007047C046037808229343043A9343033A53
:10E4400093431F3293431E3A934310221343DBB28C
:10E45000402213437F2213400370704770B5154C60
:10E46000250012352000FFF7E5FF0134AC42F9D159
:10E47000AB22114B1A700023104A1370104A13700C
:10E48000104A1370104A002050709070D3700F4AD9
:10E49000137001220E490430FFF74AFC20220D4977
:10E4A0000720FFF745FC04220B492720FFF740FC1B
:10E4B00070BDC0467534002047330020683300200B
:10E4C00024350020463300204C3300201033002038
:10E4D000543300205C3200205432002010B5040078
:10E4E00003280ED8C000074941180730C0B20822DF
:10E4F000FFF762FC044961182734E0B20122FFF7FC
:10E500005BFC10BD5C32002054320020F0B5474661
:10E5100080B4204E0024B04600251F4FE200424444
:10E5200055709570F5703570137908218B43043957
:10E530008B4303398B431F318B431E398B4310218F
:10E540000B43DBB240210B437F210B401371E319D6
:10E550001D70E0B2FFF7C2FF01340836042CDDD194
:10E560000E4A0023002050709070D3700C4A137034
:10E570000C490B7001222B30FFF71EFC0A4C2500C2
:10E5800012352000FFF756FF0134AC42F9D104BC2C
:10E590009046F0BD5C320020543200204C33002005
:10E5A000103300209533002075340020094A0023E1
:10E5B000137013715370537193709371D370064A33
:10E5C0001380064A1380064A1380064A1380064ABF
:10E5D0001360704714330020C835002058320020E3
:10E5E00044330020E03400200C3300200349A022F3
:10E5F0008B58802083438B507047C0460078004082
:10E60000F8B55F4656464D464446F0B4A14B1B88CC
:10E61000A14A126893423AD2A04AD279D20736D59B
:10E620000A339C4A13809E4B1B79002B13D19C4BC1
:10E630005B78002B0FD19A4B5B79002B0BD1984B59
:10E640009B78002B07D1964B9B79002B03D1944BE1
:10E65000DB78002B10D0934A13880A339BB21380C7
:10E66000914A1268934215D300228E4B1A800121E1
:10E670000120FFF709FE0DE000228A4B1A808B482B
:10E68000FFF7CEFE00210120FFF7FEFD02E0002291
:10E69000804B1A80814BDB7ADB0752D5844A1368A2
:10E6A0000A331360834A1288834909688A4203D374
:10E6B0000021804A118002E00A327E490A80784AAD
:10E6C0001278022A0CD17D4A1268934241D9002364
:10E6D000774A13607A4A1380714B00221A70C7E0A0
:10E6E000012A36D1774A1268934211D3744A1288AC
:10E6F000754909688A420BD200216D4B19600132BD
:10E700006F4B1A800222664B1A70FFF76FFFAFE063
:10E710006E4A1268934200D2AAE06B4B1B68684AAB
:10E7200012889A4200D2A3E00022614B1A600232A2
:10E730005B4B1A70FFF75AFF01210220FFF7A4FD7F
:10E7400096E000235B4A13805D4A1380584A1360A9
:10E750008EE0524BDB7BDB0700D495E05C4B1B78F3
:10E76000002B0BD05A4B1B7A002B05D0584B1D7C2D
:10E770006B1E9D41023502E0012500E00025ED0001
:10E78000534B5D196B79002B65D00024514B994692
:10E79000514B9846514B9B46C24601239C462B68E1
:10E7A0001A0A2B791B061343A200121952001219E0
:10E7B0009B189979DA7912020A430A3291B2997157
:10E7C0000A0ADA711A795879000210434A46126827
:10E7D000424392B246463668B24203D2524612686B
:10E7E00092B206E05E463668B24202D93B4A1268EF
:10E7F00092B291420AD39A71120ADA7162469A72FF
:10E80000EB886246A2409343EB801FE09A7A012A8C
:10E8100037D100221A725A7202329A7216E0197AAD
:10E820005A7A12020A430A3292B21A72110A5972C1
:10E830002B4909684843824208D300221A725A724F
:10E840009A72EA886346A3401343EB800134E4B232
:10E850006B79A342A3D8EB88002B04D101210320BC
:10E86000FFF712FD10E000210320FFF70DFD0BE084
:10E870000A4BDB7BDB0700D570E705E0002AE0D020
:10E88000E4E7022AFAD1CAE73CBC90469946A24680
:10E89000AB46F8BDC835002078B0010804B00108C7
:10E8A000143300205832002074B001087534002061
:10E8B0000C330020443300206CB0010860B0010824
:10E8C000E034002068B0010870B0010864B00108AD
:10E8D000580000205CB0010858B0010854B001088D
:10E8E00050B0010810B502F091FF10BD00B585B021
:10E8F00010220021684609F09DFE064B009301237B
:10E900006A465371044B02936946044805F014FDAE
:10E9100005B000BD7FA90300E5E800080011014033
:10E9200070B582B001266B46DE716B469D1D0024DA
:10E930009C71002002F08AFB002002F08DFB1E4B30
:10E940001C701E4B1C701E4B1C70FFF7CFFF032268
:10E950001C4B1A701C4B1E7001321C4B1A701C4B46
:10E960001C701C4B1C7067321B493020FFF7E0F90C
:10E9700001221A490320FFF7DBF90122184901207F
:10E98000FFF7D6F9012217490220FFF7D1F901223A
:10E9900029000420FFF7CCF901280AD16B46063381
:10E9A0001B78012B05D001226B46D91D0330FFF7E0
:10E9B00003FA02B070BDC046334500203C4500203C
:10E9C000244500200945002034450020154500203D
:10E9D000122F002010450020142F00201445002085
:10E9E000084500201245002000B585B01022002106
:10E9F000684609F01FFE074B009301236A465371D6
:10EA00001373054B02936946044805F095FC05B065
:10EA100000BDC0467FA90300E5E8000800110140E1
:10EA200000B585B010220021684609F003FE064BB0
:10EA3000009301236A465371044B029369460448CC
:10EA400005F07AFC05B000BD7FA90300E5E80008E9
:10EA50000011014072B6BFF34F8F034A034BDA60D7
:10EA6000BFF34F8FC046FDE70400FA0500ED00E05C
:10EA700070B506003E284DD102F052FB040002F0B2
:10EA800053FB0578427812022A4383781B04134310
:10EA90001A00C3781B06134301220271002242713F
:10EAA0007E321A700578427812022A4383781B045A
:10EAB00013431A00C3781B061343027946793602C2
:10EAC0001643721C92B20271120A42712578617863
:10EAD00009022943A27812040A431100E2781206BF
